{
	"Desktop/work/dao-company/contracts/Governance.sol": {
		"Governance": {
			"abi": [
				{
					"inputs": [
						{
							"internalType": "contract IERC20",
							"name": "_token",
							"type": "address"
						}
					],
					"stateMutability": "nonpayable",
					"type": "constructor"
				},
				{
					"anonymous": false,
					"inputs": [
						{
							"indexed": false,
							"internalType": "bytes32",
							"name": "proposalId",
							"type": "bytes32"
						}
					],
					"name": "ProposalAdded",
					"type": "event"
				},
				{
					"inputs": [],
					"name": "VOTING_DELAY",
					"outputs": [
						{
							"internalType": "uint256",
							"name": "",
							"type": "uint256"
						}
					],
					"stateMutability": "view",
					"type": "function"
				},
				{
					"inputs": [],
					"name": "VOTING_DURATION",
					"outputs": [
						{
							"internalType": "uint256",
							"name": "",
							"type": "uint256"
						}
					],
					"stateMutability": "view",
					"type": "function"
				},
				{
					"inputs": [
						{
							"internalType": "address",
							"name": "_to",
							"type": "address"
						},
						{
							"internalType": "uint256",
							"name": "_value",
							"type": "uint256"
						},
						{
							"internalType": "string",
							"name": "_func",
							"type": "string"
						},
						{
							"internalType": "bytes",
							"name": "_data",
							"type": "bytes"
						},
						{
							"internalType": "bytes32",
							"name": "_descriptionHash",
							"type": "bytes32"
						}
					],
					"name": "execute",
					"outputs": [
						{
							"internalType": "bytes",
							"name": "",
							"type": "bytes"
						}
					],
					"stateMutability": "nonpayable",
					"type": "function"
				},
				{
					"inputs": [
						{
							"internalType": "bytes32",
							"name": "",
							"type": "bytes32"
						}
					],
					"name": "proposalVotes",
					"outputs": [
						{
							"internalType": "uint256",
							"name": "againstVotes",
							"type": "uint256"
						},
						{
							"internalType": "uint256",
							"name": "forVotes",
							"type": "uint256"
						},
						{
							"internalType": "uint256",
							"name": "abstainVotes",
							"type": "uint256"
						}
					],
					"stateMutability": "view",
					"type": "function"
				},
				{
					"inputs": [
						{
							"internalType": "bytes32",
							"name": "",
							"type": "bytes32"
						}
					],
					"name": "proposals",
					"outputs": [
						{
							"internalType": "uint256",
							"name": "votingStarts",
							"type": "uint256"
						},
						{
							"internalType": "uint256",
							"name": "votingEnds",
							"type": "uint256"
						},
						{
							"internalType": "bool",
							"name": "executed",
							"type": "bool"
						}
					],
					"stateMutability": "view",
					"type": "function"
				},
				{
					"inputs": [
						{
							"internalType": "address",
							"name": "_to",
							"type": "address"
						},
						{
							"internalType": "uint256",
							"name": "_value",
							"type": "uint256"
						},
						{
							"internalType": "string",
							"name": "_func",
							"type": "string"
						},
						{
							"internalType": "bytes",
							"name": "_data",
							"type": "bytes"
						},
						{
							"internalType": "string",
							"name": "_description",
							"type": "string"
						}
					],
					"name": "propose",
					"outputs": [
						{
							"internalType": "bytes32",
							"name": "",
							"type": "bytes32"
						}
					],
					"stateMutability": "nonpayable",
					"type": "function"
				},
				{
					"inputs": [
						{
							"internalType": "bytes32",
							"name": "proposalId",
							"type": "bytes32"
						}
					],
					"name": "state",
					"outputs": [
						{
							"internalType": "enum Governance.ProposalState",
							"name": "",
							"type": "uint8"
						}
					],
					"stateMutability": "view",
					"type": "function"
				},
				{
					"inputs": [],
					"name": "token",
					"outputs": [
						{
							"internalType": "contract IERC20",
							"name": "",
							"type": "address"
						}
					],
					"stateMutability": "view",
					"type": "function"
				},
				{
					"inputs": [
						{
							"internalType": "bytes32",
							"name": "proposalId",
							"type": "bytes32"
						},
						{
							"internalType": "uint8",
							"name": "voteType",
							"type": "uint8"
						}
					],
					"name": "vote",
					"outputs": [],
					"stateMutability": "nonpayable",
					"type": "function"
				},
				{
					"stateMutability": "payable",
					"type": "receive"
				}
			],
			"devdoc": {
				"kind": "dev",
				"methods": {},
				"version": 1
			},
			"evm": {
				"assembly": "    /* \"Desktop/work/dao-company/contracts/Governance.sol\":82:4293  contract Governance {... */\n  mstore(0x40, 0x80)\n    /* \"Desktop/work/dao-company/contracts/Governance.sol\":718:776  constructor(IERC20 _token) {... */\n  callvalue\n  dup1\n  iszero\n  tag_1\n  jumpi\n  0x00\n  dup1\n  revert\ntag_1:\n  pop\n  mload(0x40)\n  sub(codesize, bytecodeSize)\n  dup1\n  bytecodeSize\n  dup4\n  codecopy\n  dup2\n  dup2\n  add\n  0x40\n  mstore\n  dup2\n  add\n  swap1\n  tag_2\n  swap2\n  swap1\n  tag_3\n  jump\t// in\ntag_2:\n    /* \"Desktop/work/dao-company/contracts/Governance.sol\":763:769  _token */\n  dup1\n    /* \"Desktop/work/dao-company/contracts/Governance.sol\":755:760  token */\n  0x02\n  0x00\n    /* \"Desktop/work/dao-company/contracts/Governance.sol\":755:769  token = _token */\n  0x0100\n  exp\n  dup2\n  sload\n  dup2\n  0xffffffffffffffffffffffffffffffffffffffff\n  mul\n  not\n  and\n  swap1\n  dup4\n  0xffffffffffffffffffffffffffffffffffffffff\n  and\n  mul\n  or\n  swap1\n  sstore\n  pop\n    /* \"Desktop/work/dao-company/contracts/Governance.sol\":718:776  constructor(IERC20 _token) {... */\n  pop\n    /* \"Desktop/work/dao-company/contracts/Governance.sol\":82:4293  contract Governance {... */\n  jump(tag_6)\n    /* \"#utility.yul\":88:205   */\ntag_8:\n    /* \"#utility.yul\":197:198   */\n  0x00\n    /* \"#utility.yul\":194:195   */\n  dup1\n    /* \"#utility.yul\":187:199   */\n  revert\n    /* \"#utility.yul\":334:460   */\ntag_10:\n    /* \"#utility.yul\":371:378   */\n  0x00\n    /* \"#utility.yul\":411:453   */\n  0xffffffffffffffffffffffffffffffffffffffff\n    /* \"#utility.yul\":404:409   */\n  dup3\n    /* \"#utility.yul\":400:454   */\n  and\n    /* \"#utility.yul\":389:454   */\n  swap1\n  pop\n    /* \"#utility.yul\":334:460   */\n  swap2\n  swap1\n  pop\n  jump\t// out\n    /* \"#utility.yul\":466:562   */\ntag_11:\n    /* \"#utility.yul\":503:510   */\n  0x00\n    /* \"#utility.yul\":532:556   */\n  tag_21\n    /* \"#utility.yul\":550:555   */\n  dup3\n    /* \"#utility.yul\":532:556   */\n  tag_10\n  jump\t// in\ntag_21:\n    /* \"#utility.yul\":521:556   */\n  swap1\n  pop\n    /* \"#utility.yul\":466:562   */\n  swap2\n  swap1\n  pop\n  jump\t// out\n    /* \"#utility.yul\":568:678   */\ntag_12:\n    /* \"#utility.yul\":619:626   */\n  0x00\n    /* \"#utility.yul\":648:672   */\n  tag_23\n    /* \"#utility.yul\":666:671   */\n  dup3\n    /* \"#utility.yul\":648:672   */\n  tag_11\n  jump\t// in\ntag_23:\n    /* \"#utility.yul\":637:672   */\n  swap1\n  pop\n    /* \"#utility.yul\":568:678   */\n  swap2\n  swap1\n  pop\n  jump\t// out\n    /* \"#utility.yul\":684:834   */\ntag_13:\n    /* \"#utility.yul\":771:809   */\n  tag_25\n    /* \"#utility.yul\":803:808   */\n  dup2\n    /* \"#utility.yul\":771:809   */\n  tag_12\n  jump\t// in\ntag_25:\n    /* \"#utility.yul\":764:769   */\n  dup2\n    /* \"#utility.yul\":761:810   */\n  eq\n    /* \"#utility.yul\":751:828   */\n  tag_26\n  jumpi\n    /* \"#utility.yul\":824:825   */\n  0x00\n    /* \"#utility.yul\":821:822   */\n  dup1\n    /* \"#utility.yul\":814:826   */\n  revert\n    /* \"#utility.yul\":751:828   */\ntag_26:\n    /* \"#utility.yul\":684:834   */\n  pop\n  jump\t// out\n    /* \"#utility.yul\":840:1011   */\ntag_14:\n    /* \"#utility.yul\":911:916   */\n  0x00\n    /* \"#utility.yul\":942:948   */\n  dup2\n    /* \"#utility.yul\":936:949   */\n  mload\n    /* \"#utility.yul\":927:949   */\n  swap1\n  pop\n    /* \"#utility.yul\":958:1005   */\n  tag_28\n    /* \"#utility.yul\":999:1004   */\n  dup2\n    /* \"#utility.yul\":958:1005   */\n  tag_13\n  jump\t// in\ntag_28:\n    /* \"#utility.yul\":840:1011   */\n  swap3\n  swap2\n  pop\n  pop\n  jump\t// out\n    /* \"#utility.yul\":1017:1396   */\ntag_3:\n    /* \"#utility.yul\":1101:1107   */\n  0x00\n    /* \"#utility.yul\":1150:1152   */\n  0x20\n    /* \"#utility.yul\":1138:1147   */\n  dup3\n    /* \"#utility.yul\":1129:1136   */\n  dup5\n    /* \"#utility.yul\":1125:1148   */\n  sub\n    /* \"#utility.yul\":1121:1153   */\n  slt\n    /* \"#utility.yul\":1118:1237   */\n  iszero\n  tag_30\n  jumpi\n    /* \"#utility.yul\":1156:1235   */\n  tag_31\n  tag_8\n  jump\t// in\ntag_31:\n    /* \"#utility.yul\":1118:1237   */\ntag_30:\n    /* \"#utility.yul\":1276:1277   */\n  0x00\n    /* \"#utility.yul\":1301:1379   */\n  tag_32\n    /* \"#utility.yul\":1371:1378   */\n  dup5\n    /* \"#utility.yul\":1362:1368   */\n  dup3\n    /* \"#utility.yul\":1351:1360   */\n  dup6\n    /* \"#utility.yul\":1347:1369   */\n  add\n    /* \"#utility.yul\":1301:1379   */\n  tag_14\n  jump\t// in\ntag_32:\n    /* \"#utility.yul\":1291:1379   */\n  swap2\n  pop\n    /* \"#utility.yul\":1247:1389   */\n  pop\n    /* \"#utility.yul\":1017:1396   */\n  swap3\n  swap2\n  pop\n  pop\n  jump\t// out\n    /* \"Desktop/work/dao-company/contracts/Governance.sol\":82:4293  contract Governance {... */\ntag_6:\n  dataSize(sub_0)\n  dup1\n  dataOffset(sub_0)\n  0x00\n  codecopy\n  0x00\n  return\nstop\n\nsub_0: assembly {\n        /* \"Desktop/work/dao-company/contracts/Governance.sol\":82:4293  contract Governance {... */\n      mstore(0x40, 0x80)\n      jumpi(tag_1, lt(calldatasize, 0x04))\n      shr(0xe0, calldataload(0x00))\n      dup1\n      0xbb0f4b15\n      gt\n      tag_12\n      jumpi\n      dup1\n      0xbb0f4b15\n      eq\n      tag_7\n      jumpi\n      dup1\n      0xc9a28cb9\n      eq\n      tag_8\n      jumpi\n      dup1\n      0xd14b85b9\n      eq\n      tag_9\n      jumpi\n      dup1\n      0xd6159fe5\n      eq\n      tag_10\n      jumpi\n      dup1\n      0xfc0c546a\n      eq\n      tag_11\n      jumpi\n      jump(tag_2)\n    tag_12:\n      dup1\n      0x32ed5b12\n      eq\n      tag_3\n      jumpi\n      dup1\n      0x61d585da\n      eq\n      tag_4\n      jumpi\n      dup1\n      0x8524c65d\n      eq\n      tag_5\n      jumpi\n      dup1\n      0xa438d208\n      eq\n      tag_6\n      jumpi\n      jump(tag_2)\n    tag_1:\n      jumpi(tag_2, calldatasize)\n      stop\n    tag_2:\n      0x00\n      dup1\n      revert\n        /* \"Desktop/work/dao-company/contracts/Governance.sol\":440:485  mapping(bytes32 => Proposal) public proposals */\n    tag_3:\n      callvalue\n      dup1\n      iszero\n      tag_15\n      jumpi\n      0x00\n      dup1\n      revert\n    tag_15:\n      pop\n      tag_16\n      0x04\n      dup1\n      calldatasize\n      sub\n      dup2\n      add\n      swap1\n      tag_17\n      swap2\n      swap1\n      tag_18\n      jump\t// in\n    tag_17:\n      tag_19\n      jump\t// in\n    tag_16:\n      mload(0x40)\n      tag_20\n      swap4\n      swap3\n      swap2\n      swap1\n      tag_21\n      jump\t// in\n    tag_20:\n      mload(0x40)\n      dup1\n      swap2\n      sub\n      swap1\n      return\n        /* \"Desktop/work/dao-company/contracts/Governance.sol\":3123:3935  function state(bytes32 proposalId) public view returns (ProposalState) {... */\n    tag_4:\n      callvalue\n      dup1\n      iszero\n      tag_22\n      jumpi\n      0x00\n      dup1\n      revert\n    tag_22:\n      pop\n      tag_23\n      0x04\n      dup1\n      calldatasize\n      sub\n      dup2\n      add\n      swap1\n      tag_24\n      swap2\n      swap1\n      tag_18\n      jump\t// in\n    tag_24:\n      tag_25\n      jump\t// in\n    tag_23:\n      mload(0x40)\n      tag_26\n      swap2\n      swap1\n      tag_27\n      jump\t// in\n    tag_26:\n      mload(0x40)\n      dup1\n      swap2\n      sub\n      swap1\n      return\n        /* \"Desktop/work/dao-company/contracts/Governance.sol\":782:1552  function propose(... */\n    tag_5:\n      callvalue\n      dup1\n      iszero\n      tag_28\n      jumpi\n      0x00\n      dup1\n      revert\n    tag_28:\n      pop\n      tag_29\n      0x04\n      dup1\n      calldatasize\n      sub\n      dup2\n      add\n      swap1\n      tag_30\n      swap2\n      swap1\n      tag_31\n      jump\t// in\n    tag_30:\n      tag_32\n      jump\t// in\n    tag_29:\n      mload(0x40)\n      tag_33\n      swap2\n      swap1\n      tag_34\n      jump\t// in\n    tag_33:\n      mload(0x40)\n      dup1\n      swap2\n      sub\n      swap1\n      return\n        /* \"Desktop/work/dao-company/contracts/Governance.sol\":620:665  uint public constant VOTING_DURATION = 1 days */\n    tag_6:\n      callvalue\n      dup1\n      iszero\n      tag_35\n      jumpi\n      0x00\n      dup1\n      revert\n    tag_35:\n      pop\n      tag_36\n      tag_37\n      jump\t// in\n    tag_36:\n      mload(0x40)\n      tag_38\n      swap2\n      swap1\n      tag_39\n      jump\t// in\n    tag_38:\n      mload(0x40)\n      dup1\n      swap2\n      sub\n      swap1\n      return\n        /* \"Desktop/work/dao-company/contracts/Governance.sol\":1558:2412  function execute(... */\n    tag_7:\n      callvalue\n      dup1\n      iszero\n      tag_40\n      jumpi\n      0x00\n      dup1\n      revert\n    tag_40:\n      pop\n      tag_41\n      0x04\n      dup1\n      calldatasize\n      sub\n      dup2\n      add\n      swap1\n      tag_42\n      swap2\n      swap1\n      tag_43\n      jump\t// in\n    tag_42:\n      tag_44\n      jump\t// in\n    tag_41:\n      mload(0x40)\n      tag_45\n      swap2\n      swap1\n      tag_46\n      jump\t// in\n    tag_45:\n      mload(0x40)\n      dup1\n      swap2\n      sub\n      swap1\n      return\n        /* \"Desktop/work/dao-company/contracts/Governance.sol\":2418:3117  function vote(bytes32 proposalId, uint8 voteType) external {... */\n    tag_8:\n      callvalue\n      dup1\n      iszero\n      tag_47\n      jumpi\n      0x00\n      dup1\n      revert\n    tag_47:\n      pop\n      tag_48\n      0x04\n      dup1\n      calldatasize\n      sub\n      dup2\n      add\n      swap1\n      tag_49\n      swap2\n      swap1\n      tag_50\n      jump\t// in\n    tag_49:\n      tag_51\n      jump\t// in\n    tag_48:\n      stop\n        /* \"Desktop/work/dao-company/contracts/Governance.sol\":491:544  mapping(bytes32 => ProposalVote) public proposalVotes */\n    tag_9:\n      callvalue\n      dup1\n      iszero\n      tag_52\n      jumpi\n      0x00\n      dup1\n      revert\n    tag_52:\n      pop\n      tag_53\n      0x04\n      dup1\n      calldatasize\n      sub\n      dup2\n      add\n      swap1\n      tag_54\n      swap2\n      swap1\n      tag_18\n      jump\t// in\n    tag_54:\n      tag_55\n      jump\t// in\n    tag_53:\n      mload(0x40)\n      tag_56\n      swap4\n      swap3\n      swap2\n      swap1\n      tag_57\n      jump\t// in\n    tag_56:\n      mload(0x40)\n      dup1\n      swap2\n      sub\n      swap1\n      return\n        /* \"Desktop/work/dao-company/contracts/Governance.sol\":576:614  uint public constant VOTING_DELAY = 10 */\n    tag_10:\n      callvalue\n      dup1\n      iszero\n      tag_58\n      jumpi\n      0x00\n      dup1\n      revert\n    tag_58:\n      pop\n      tag_59\n      tag_60\n      jump\t// in\n    tag_59:\n      mload(0x40)\n      tag_61\n      swap2\n      swap1\n      tag_39\n      jump\t// in\n    tag_61:\n      mload(0x40)\n      dup1\n      swap2\n      sub\n      swap1\n      return\n        /* \"Desktop/work/dao-company/contracts/Governance.sol\":551:570  IERC20 public token */\n    tag_11:\n      callvalue\n      dup1\n      iszero\n      tag_62\n      jumpi\n      0x00\n      dup1\n      revert\n    tag_62:\n      pop\n      tag_63\n      tag_64\n      jump\t// in\n    tag_63:\n      mload(0x40)\n      tag_65\n      swap2\n      swap1\n      tag_66\n      jump\t// in\n    tag_65:\n      mload(0x40)\n      dup1\n      swap2\n      sub\n      swap1\n      return\n        /* \"Desktop/work/dao-company/contracts/Governance.sol\":440:485  mapping(bytes32 => Proposal) public proposals */\n    tag_19:\n      mstore(0x20, 0x00)\n      dup1\n      0x00\n      mstore\n      keccak256(0x00, 0x40)\n      0x00\n      swap2\n      pop\n      swap1\n      pop\n      dup1\n      0x00\n      add\n      sload\n      swap1\n      dup1\n      0x01\n      add\n      sload\n      swap1\n      dup1\n      0x02\n      add\n      0x00\n      swap1\n      sload\n      swap1\n      0x0100\n      exp\n      swap1\n      div\n      0xff\n      and\n      swap1\n      pop\n      dup4\n      jump\t// out\n        /* \"Desktop/work/dao-company/contracts/Governance.sol\":3123:3935  function state(bytes32 proposalId) public view returns (ProposalState) {... */\n    tag_25:\n        /* \"Desktop/work/dao-company/contracts/Governance.sol\":3179:3192  ProposalState */\n      0x00\n        /* \"Desktop/work/dao-company/contracts/Governance.sol\":3204:3229  Proposal storage proposal */\n      dup1\n        /* \"Desktop/work/dao-company/contracts/Governance.sol\":3232:3241  proposals */\n      0x00\n        /* \"Desktop/work/dao-company/contracts/Governance.sol\":3232:3253  proposals[proposalId] */\n      dup1\n        /* \"Desktop/work/dao-company/contracts/Governance.sol\":3242:3252  proposalId */\n      dup5\n        /* \"Desktop/work/dao-company/contracts/Governance.sol\":3232:3253  proposals[proposalId] */\n      dup2\n      mstore\n      0x20\n      add\n      swap1\n      dup2\n      mstore\n      0x20\n      add\n      0x00\n      keccak256\n        /* \"Desktop/work/dao-company/contracts/Governance.sol\":3204:3253  Proposal storage proposal = proposals[proposalId] */\n      swap1\n      pop\n        /* \"Desktop/work/dao-company/contracts/Governance.sol\":3263:3296  ProposalVote storage proposalVote */\n      0x00\n        /* \"Desktop/work/dao-company/contracts/Governance.sol\":3299:3312  proposalVotes */\n      0x01\n        /* \"Desktop/work/dao-company/contracts/Governance.sol\":3299:3324  proposalVotes[proposalId] */\n      0x00\n        /* \"Desktop/work/dao-company/contracts/Governance.sol\":3313:3323  proposalId */\n      dup6\n        /* \"Desktop/work/dao-company/contracts/Governance.sol\":3299:3324  proposalVotes[proposalId] */\n      dup2\n      mstore\n      0x20\n      add\n      swap1\n      dup2\n      mstore\n      0x20\n      add\n      0x00\n      keccak256\n        /* \"Desktop/work/dao-company/contracts/Governance.sol\":3263:3324  ProposalVote storage proposalVote = proposalVotes[proposalId] */\n      swap1\n      pop\n        /* \"Desktop/work/dao-company/contracts/Governance.sol\":3367:3368  0 */\n      0x00\n        /* \"Desktop/work/dao-company/contracts/Governance.sol\":3343:3351  proposal */\n      dup3\n        /* \"Desktop/work/dao-company/contracts/Governance.sol\":3343:3364  proposal.votingStarts */\n      0x00\n      add\n      sload\n        /* \"Desktop/work/dao-company/contracts/Governance.sol\":3343:3368  proposal.votingStarts > 0 */\n      gt\n        /* \"Desktop/work/dao-company/contracts/Governance.sol\":3335:3394  require(proposal.votingStarts > 0, \"proposal doesnt exist\") */\n      tag_68\n      jumpi\n      mload(0x40)\n      0x08c379a000000000000000000000000000000000000000000000000000000000\n      dup2\n      mstore\n      0x04\n      add\n      tag_69\n      swap1\n      tag_70\n      jump\t// in\n    tag_69:\n      mload(0x40)\n      dup1\n      swap2\n      sub\n      swap1\n      revert\n    tag_68:\n        /* \"Desktop/work/dao-company/contracts/Governance.sol\":3409:3417  proposal */\n      dup2\n        /* \"Desktop/work/dao-company/contracts/Governance.sol\":3409:3426  proposal.executed */\n      0x02\n      add\n      0x00\n      swap1\n      sload\n      swap1\n      0x0100\n      exp\n      swap1\n      div\n      0xff\n      and\n        /* \"Desktop/work/dao-company/contracts/Governance.sol\":3405:3482  if (proposal.executed) {... */\n      iszero\n      tag_71\n      jumpi\n        /* \"Desktop/work/dao-company/contracts/Governance.sol\":3449:3471  ProposalState.Executed */\n      0x04\n        /* \"Desktop/work/dao-company/contracts/Governance.sol\":3442:3471  return ProposalState.Executed */\n      swap3\n      pop\n      pop\n      pop\n      jump(tag_67)\n        /* \"Desktop/work/dao-company/contracts/Governance.sol\":3405:3482  if (proposal.executed) {... */\n    tag_71:\n        /* \"Desktop/work/dao-company/contracts/Governance.sol\":3514:3522  proposal */\n      dup2\n        /* \"Desktop/work/dao-company/contracts/Governance.sol\":3514:3535  proposal.votingStarts */\n      0x00\n      add\n      sload\n        /* \"Desktop/work/dao-company/contracts/Governance.sol\":3496:3511  block.timestamp */\n      timestamp\n        /* \"Desktop/work/dao-company/contracts/Governance.sol\":3496:3535  block.timestamp < proposal.votingStarts */\n      lt\n        /* \"Desktop/work/dao-company/contracts/Governance.sol\":3492:3590  if (block.timestamp < proposal.votingStarts) {... */\n      iszero\n      tag_72\n      jumpi\n        /* \"Desktop/work/dao-company/contracts/Governance.sol\":3558:3579  ProposalState.Pending */\n      0x00\n        /* \"Desktop/work/dao-company/contracts/Governance.sol\":3551:3579  return ProposalState.Pending */\n      swap3\n      pop\n      pop\n      pop\n      jump(tag_67)\n        /* \"Desktop/work/dao-company/contracts/Governance.sol\":3492:3590  if (block.timestamp < proposal.votingStarts) {... */\n    tag_72:\n        /* \"Desktop/work/dao-company/contracts/Governance.sol\":3622:3630  proposal */\n      dup2\n        /* \"Desktop/work/dao-company/contracts/Governance.sol\":3622:3643  proposal.votingStarts */\n      0x00\n      add\n      sload\n        /* \"Desktop/work/dao-company/contracts/Governance.sol\":3603:3618  block.timestamp */\n      timestamp\n        /* \"Desktop/work/dao-company/contracts/Governance.sol\":3603:3643  block.timestamp >= proposal.votingStarts */\n      lt\n      iszero\n        /* \"Desktop/work/dao-company/contracts/Governance.sol\":3603:3696  block.timestamp >= proposal.votingStarts &&... */\n      dup1\n      iszero\n      tag_73\n      jumpi\n      pop\n        /* \"Desktop/work/dao-company/contracts/Governance.sol\":3681:3696  block.timestamp */\n      timestamp\n        /* \"Desktop/work/dao-company/contracts/Governance.sol\":3659:3667  proposal */\n      dup3\n        /* \"Desktop/work/dao-company/contracts/Governance.sol\":3659:3678  proposal.votingEnds */\n      0x01\n      add\n      sload\n        /* \"Desktop/work/dao-company/contracts/Governance.sol\":3659:3696  proposal.votingEnds > block.timestamp */\n      gt\n        /* \"Desktop/work/dao-company/contracts/Governance.sol\":3603:3696  block.timestamp >= proposal.votingStarts &&... */\n    tag_73:\n        /* \"Desktop/work/dao-company/contracts/Governance.sol\":3600:3750  if(block.timestamp >= proposal.votingStarts &&... */\n      iszero\n      tag_74\n      jumpi\n        /* \"Desktop/work/dao-company/contracts/Governance.sol\":3719:3739  ProposalState.Active */\n      0x01\n        /* \"Desktop/work/dao-company/contracts/Governance.sol\":3712:3739  return ProposalState.Active */\n      swap3\n      pop\n      pop\n      pop\n      jump(tag_67)\n        /* \"Desktop/work/dao-company/contracts/Governance.sol\":3600:3750  if(block.timestamp >= proposal.votingStarts &&... */\n    tag_74:\n        /* \"Desktop/work/dao-company/contracts/Governance.sol\":3787:3799  proposalVote */\n      dup1\n        /* \"Desktop/work/dao-company/contracts/Governance.sol\":3787:3812  proposalVote.againstVotes */\n      0x00\n      add\n      sload\n        /* \"Desktop/work/dao-company/contracts/Governance.sol\":3763:3775  proposalVote */\n      dup2\n        /* \"Desktop/work/dao-company/contracts/Governance.sol\":3763:3784  proposalVote.forVotes */\n      0x01\n      add\n      sload\n        /* \"Desktop/work/dao-company/contracts/Governance.sol\":3763:3812  proposalVote.forVotes > proposalVote.againstVotes */\n      gt\n        /* \"Desktop/work/dao-company/contracts/Governance.sol\":3760:3929  if(proposalVote.forVotes > proposalVote.againstVotes) {... */\n      iszero\n      tag_75\n      jumpi\n        /* \"Desktop/work/dao-company/contracts/Governance.sol\":3835:3858  ProposalState.Succeeded */\n      0x02\n        /* \"Desktop/work/dao-company/contracts/Governance.sol\":3828:3858  return ProposalState.Succeeded */\n      swap3\n      pop\n      pop\n      pop\n      jump(tag_67)\n        /* \"Desktop/work/dao-company/contracts/Governance.sol\":3760:3929  if(proposalVote.forVotes > proposalVote.againstVotes) {... */\n    tag_75:\n        /* \"Desktop/work/dao-company/contracts/Governance.sol\":3896:3918  ProposalState.Defeated */\n      0x03\n        /* \"Desktop/work/dao-company/contracts/Governance.sol\":3889:3918  return ProposalState.Defeated */\n      swap3\n      pop\n      pop\n      pop\n        /* \"Desktop/work/dao-company/contracts/Governance.sol\":3123:3935  function state(bytes32 proposalId) public view returns (ProposalState) {... */\n    tag_67:\n      swap2\n      swap1\n      pop\n      jump\t// out\n        /* \"Desktop/work/dao-company/contracts/Governance.sol\":782:1552  function propose(... */\n    tag_32:\n        /* \"Desktop/work/dao-company/contracts/Governance.sol\":963:970  bytes32 */\n      0x00\n        /* \"Desktop/work/dao-company/contracts/Governance.sol\":1020:1021  0 */\n      dup1\n        /* \"Desktop/work/dao-company/contracts/Governance.sol\":990:995  token */\n      0x02\n      0x00\n      swap1\n      sload\n      swap1\n      0x0100\n      exp\n      swap1\n      div\n      0xffffffffffffffffffffffffffffffffffffffff\n      and\n        /* \"Desktop/work/dao-company/contracts/Governance.sol\":990:1005  token.balanceOf */\n      0xffffffffffffffffffffffffffffffffffffffff\n      and\n      0x70a08231\n        /* \"Desktop/work/dao-company/contracts/Governance.sol\":1006:1016  msg.sender */\n      caller\n        /* \"Desktop/work/dao-company/contracts/Governance.sol\":990:1017  token.balanceOf(msg.sender) */\n      mload(0x40)\n      dup3\n      0xffffffff\n      and\n      0xe0\n      shl\n      dup2\n      mstore\n      0x04\n      add\n      tag_78\n      swap2\n      swap1\n      tag_79\n      jump\t// in\n    tag_78:\n      0x20\n      mload(0x40)\n      dup1\n      dup4\n      sub\n      dup2\n      dup7\n      gas\n      staticcall\n      iszero\n      dup1\n      iszero\n      tag_81\n      jumpi\n      returndatasize\n      0x00\n      dup1\n      returndatacopy\n      revert(0x00, returndatasize)\n    tag_81:\n      pop\n      pop\n      pop\n      pop\n      mload(0x40)\n      returndatasize\n      not(0x1f)\n      0x1f\n      dup3\n      add\n      and\n      dup3\n      add\n      dup1\n      0x40\n      mstore\n      pop\n      dup2\n      add\n      swap1\n      tag_82\n      swap2\n      swap1\n      tag_83\n      jump\t// in\n    tag_82:\n        /* \"Desktop/work/dao-company/contracts/Governance.sol\":990:1021  token.balanceOf(msg.sender) > 0 */\n      gt\n        /* \"Desktop/work/dao-company/contracts/Governance.sol\":982:1043  require(token.balanceOf(msg.sender) > 0, \"not enough tokens\") */\n      tag_84\n      jumpi\n      mload(0x40)\n      0x08c379a000000000000000000000000000000000000000000000000000000000\n      dup2\n      mstore\n      0x04\n      add\n      tag_85\n      swap1\n      tag_86\n      jump\t// in\n    tag_85:\n      mload(0x40)\n      dup1\n      swap2\n      sub\n      swap1\n      revert\n    tag_84:\n        /* \"Desktop/work/dao-company/contracts/Governance.sol\":1054:1072  bytes32 proposalId */\n      0x00\n        /* \"Desktop/work/dao-company/contracts/Governance.sol\":1075:1174  generateProposalId(... */\n      tag_87\n        /* \"Desktop/work/dao-company/contracts/Governance.sol\":1107:1110  _to */\n      dup11\n        /* \"Desktop/work/dao-company/contracts/Governance.sol\":1112:1118  _value */\n      dup11\n        /* \"Desktop/work/dao-company/contracts/Governance.sol\":1120:1125  _func */\n      dup11\n      dup11\n        /* \"Desktop/work/dao-company/contracts/Governance.sol\":1127:1132  _data */\n      dup11\n      dup11\n        /* \"Desktop/work/dao-company/contracts/Governance.sol\":1150:1162  _description */\n      dup11\n      dup11\n        /* \"Desktop/work/dao-company/contracts/Governance.sol\":1134:1164  keccak256(bytes(_description)) */\n      mload(0x40)\n      tag_88\n      swap3\n      swap2\n      swap1\n      tag_89\n      jump\t// in\n    tag_88:\n      mload(0x40)\n      dup1\n      swap2\n      sub\n      swap1\n      keccak256\n        /* \"Desktop/work/dao-company/contracts/Governance.sol\":1075:1093  generateProposalId */\n      tag_90\n        /* \"Desktop/work/dao-company/contracts/Governance.sol\":1075:1174  generateProposalId(... */\n      jump\t// in\n    tag_87:\n        /* \"Desktop/work/dao-company/contracts/Governance.sol\":1054:1174  bytes32 proposalId = generateProposalId(... */\n      swap1\n      pop\n        /* \"Desktop/work/dao-company/contracts/Governance.sol\":1231:1232  0 */\n      0x00\n        /* \"Desktop/work/dao-company/contracts/Governance.sol\":1193:1202  proposals */\n      dup1\n        /* \"Desktop/work/dao-company/contracts/Governance.sol\":1193:1214  proposals[proposalId] */\n      0x00\n        /* \"Desktop/work/dao-company/contracts/Governance.sol\":1203:1213  proposalId */\n      dup4\n        /* \"Desktop/work/dao-company/contracts/Governance.sol\":1193:1214  proposals[proposalId] */\n      dup2\n      mstore\n      0x20\n      add\n      swap1\n      dup2\n      mstore\n      0x20\n      add\n      0x00\n      keccak256\n        /* \"Desktop/work/dao-company/contracts/Governance.sol\":1193:1227  proposals[proposalId].votingStarts */\n      0x00\n      add\n      sload\n        /* \"Desktop/work/dao-company/contracts/Governance.sol\":1193:1232  proposals[proposalId].votingStarts == 0 */\n      eq\n        /* \"Desktop/work/dao-company/contracts/Governance.sol\":1185:1260  require(proposals[proposalId].votingStarts == 0, \"proposal already exists\") */\n      tag_91\n      jumpi\n      mload(0x40)\n      0x08c379a000000000000000000000000000000000000000000000000000000000\n      dup2\n      mstore\n      0x04\n      add\n      tag_92\n      swap1\n      tag_93\n      jump\t// in\n    tag_92:\n      mload(0x40)\n      dup1\n      swap2\n      sub\n      swap1\n      revert\n    tag_91:\n        /* \"Desktop/work/dao-company/contracts/Governance.sol\":1295:1476  Proposal({... */\n      mload(0x40)\n      dup1\n      0x60\n      add\n      0x40\n      mstore\n      dup1\n        /* \"Desktop/work/dao-company/contracts/Governance.sol\":612:614  10 */\n      0x0a\n        /* \"Desktop/work/dao-company/contracts/Governance.sol\":1332:1347  block.timestamp */\n      timestamp\n        /* \"Desktop/work/dao-company/contracts/Governance.sol\":1332:1362  block.timestamp + VOTING_DELAY */\n      tag_94\n      swap2\n      swap1\n      tag_95\n      jump\t// in\n    tag_94:\n        /* \"Desktop/work/dao-company/contracts/Governance.sol\":1295:1476  Proposal({... */\n      dup2\n      mstore\n      0x20\n      add\n        /* \"Desktop/work/dao-company/contracts/Governance.sol\":659:665  1 days */\n      0x015180\n        /* \"Desktop/work/dao-company/contracts/Governance.sol\":612:614  10 */\n      0x0a\n        /* \"Desktop/work/dao-company/contracts/Governance.sol\":1388:1403  block.timestamp */\n      timestamp\n        /* \"Desktop/work/dao-company/contracts/Governance.sol\":1388:1418  block.timestamp + VOTING_DELAY */\n      tag_96\n      swap2\n      swap1\n      tag_95\n      jump\t// in\n    tag_96:\n        /* \"Desktop/work/dao-company/contracts/Governance.sol\":1388:1436  block.timestamp + VOTING_DELAY + VOTING_DURATION */\n      tag_97\n      swap2\n      swap1\n      tag_95\n      jump\t// in\n    tag_97:\n        /* \"Desktop/work/dao-company/contracts/Governance.sol\":1295:1476  Proposal({... */\n      dup2\n      mstore\n      0x20\n      add\n        /* \"Desktop/work/dao-company/contracts/Governance.sol\":1460:1465  false */\n      0x00\n        /* \"Desktop/work/dao-company/contracts/Governance.sol\":1295:1476  Proposal({... */\n      iszero\n      iszero\n      dup2\n      mstore\n      pop\n        /* \"Desktop/work/dao-company/contracts/Governance.sol\":1271:1280  proposals */\n      0x00\n        /* \"Desktop/work/dao-company/contracts/Governance.sol\":1271:1292  proposals[proposalId] */\n      dup1\n        /* \"Desktop/work/dao-company/contracts/Governance.sol\":1281:1291  proposalId */\n      dup4\n        /* \"Desktop/work/dao-company/contracts/Governance.sol\":1271:1292  proposals[proposalId] */\n      dup2\n      mstore\n      0x20\n      add\n      swap1\n      dup2\n      mstore\n      0x20\n      add\n      0x00\n      keccak256\n        /* \"Desktop/work/dao-company/contracts/Governance.sol\":1271:1476  proposals[proposalId] = Proposal({... */\n      0x00\n      dup3\n      add\n      mload\n      dup2\n      0x00\n      add\n      sstore\n      0x20\n      dup3\n      add\n      mload\n      dup2\n      0x01\n      add\n      sstore\n      0x40\n      dup3\n      add\n      mload\n      dup2\n      0x02\n      add\n      exp(0x0100, 0x00)\n      dup2\n      sload\n      dup2\n      0xff\n      mul\n      not\n      and\n      swap1\n      dup4\n      iszero\n      iszero\n      mul\n      or\n      swap1\n      sstore\n      pop\n      swap1\n      pop\n      pop\n        /* \"Desktop/work/dao-company/contracts/Governance.sol\":1492:1517  ProposalAdded(proposalId) */\n      0x7b06b8256a1c2af3b6e3708cfedb6e43225986a2f920a401f0b70891c5d502df\n        /* \"Desktop/work/dao-company/contracts/Governance.sol\":1506:1516  proposalId */\n      dup2\n        /* \"Desktop/work/dao-company/contracts/Governance.sol\":1492:1517  ProposalAdded(proposalId) */\n      mload(0x40)\n      tag_98\n      swap2\n      swap1\n      tag_34\n      jump\t// in\n    tag_98:\n      mload(0x40)\n      dup1\n      swap2\n      sub\n      swap1\n      log1\n        /* \"Desktop/work/dao-company/contracts/Governance.sol\":1535:1545  proposalId */\n      dup1\n        /* \"Desktop/work/dao-company/contracts/Governance.sol\":1528:1545  return proposalId */\n      swap2\n      pop\n      pop\n        /* \"Desktop/work/dao-company/contracts/Governance.sol\":782:1552  function propose(... */\n      swap9\n      swap8\n      pop\n      pop\n      pop\n      pop\n      pop\n      pop\n      pop\n      pop\n      jump\t// out\n        /* \"Desktop/work/dao-company/contracts/Governance.sol\":620:665  uint public constant VOTING_DURATION = 1 days */\n    tag_37:\n        /* \"Desktop/work/dao-company/contracts/Governance.sol\":659:665  1 days */\n      0x015180\n        /* \"Desktop/work/dao-company/contracts/Governance.sol\":620:665  uint public constant VOTING_DURATION = 1 days */\n      dup2\n      jump\t// out\n        /* \"Desktop/work/dao-company/contracts/Governance.sol\":1558:2412  function execute(... */\n    tag_44:\n        /* \"Desktop/work/dao-company/contracts/Governance.sol\":1735:1747  bytes memory */\n      0x60\n        /* \"Desktop/work/dao-company/contracts/Governance.sol\":1759:1777  bytes32 proposalId */\n      0x00\n        /* \"Desktop/work/dao-company/contracts/Governance.sol\":1780:1865  generateProposalId(... */\n      tag_100\n        /* \"Desktop/work/dao-company/contracts/Governance.sol\":1812:1815  _to */\n      dup10\n        /* \"Desktop/work/dao-company/contracts/Governance.sol\":1817:1823  _value */\n      dup10\n        /* \"Desktop/work/dao-company/contracts/Governance.sol\":1825:1830  _func */\n      dup10\n      dup10\n        /* \"Desktop/work/dao-company/contracts/Governance.sol\":1832:1837  _data */\n      dup10\n      dup10\n        /* \"Desktop/work/dao-company/contracts/Governance.sol\":1839:1855  _descriptionHash */\n      dup10\n        /* \"Desktop/work/dao-company/contracts/Governance.sol\":1780:1798  generateProposalId */\n      tag_90\n        /* \"Desktop/work/dao-company/contracts/Governance.sol\":1780:1865  generateProposalId(... */\n      jump\t// in\n    tag_100:\n        /* \"Desktop/work/dao-company/contracts/Governance.sol\":1759:1865  bytes32 proposalId = generateProposalId(... */\n      swap1\n      pop\n        /* \"Desktop/work/dao-company/contracts/Governance.sol\":1905:1928  ProposalState.Succeeded */\n      0x02\n        /* \"Desktop/work/dao-company/contracts/Governance.sol\":1884:1928  state(proposalId) == ProposalState.Succeeded */\n      0x04\n      dup2\n      gt\n      iszero\n      tag_101\n      jumpi\n      tag_102\n      tag_103\n      jump\t// in\n    tag_102:\n    tag_101:\n        /* \"Desktop/work/dao-company/contracts/Governance.sol\":1884:1901  state(proposalId) */\n      tag_104\n        /* \"Desktop/work/dao-company/contracts/Governance.sol\":1890:1900  proposalId */\n      dup3\n        /* \"Desktop/work/dao-company/contracts/Governance.sol\":1884:1889  state */\n      tag_25\n        /* \"Desktop/work/dao-company/contracts/Governance.sol\":1884:1901  state(proposalId) */\n      jump\t// in\n    tag_104:\n        /* \"Desktop/work/dao-company/contracts/Governance.sol\":1884:1928  state(proposalId) == ProposalState.Succeeded */\n      0x04\n      dup2\n      gt\n      iszero\n      tag_105\n      jumpi\n      tag_106\n      tag_103\n      jump\t// in\n    tag_106:\n    tag_105:\n      eq\n        /* \"Desktop/work/dao-company/contracts/Governance.sol\":1876:1946  require(state(proposalId) == ProposalState.Succeeded, \"invalid state\") */\n      tag_107\n      jumpi\n      mload(0x40)\n      0x08c379a000000000000000000000000000000000000000000000000000000000\n      dup2\n      mstore\n      0x04\n      add\n      tag_108\n      swap1\n      tag_109\n      jump\t// in\n    tag_108:\n      mload(0x40)\n      dup1\n      swap2\n      sub\n      swap1\n      revert\n    tag_107:\n        /* \"Desktop/work/dao-company/contracts/Governance.sol\":1957:1982  Proposal storage proposal */\n      0x00\n        /* \"Desktop/work/dao-company/contracts/Governance.sol\":1985:1994  proposals */\n      dup1\n        /* \"Desktop/work/dao-company/contracts/Governance.sol\":1985:2006  proposals[proposalId] */\n      0x00\n        /* \"Desktop/work/dao-company/contracts/Governance.sol\":1995:2005  proposalId */\n      dup4\n        /* \"Desktop/work/dao-company/contracts/Governance.sol\":1985:2006  proposals[proposalId] */\n      dup2\n      mstore\n      0x20\n      add\n      swap1\n      dup2\n      mstore\n      0x20\n      add\n      0x00\n      keccak256\n        /* \"Desktop/work/dao-company/contracts/Governance.sol\":1957:2006  Proposal storage proposal = proposals[proposalId] */\n      swap1\n      pop\n        /* \"Desktop/work/dao-company/contracts/Governance.sol\":2037:2041  true */\n      0x01\n        /* \"Desktop/work/dao-company/contracts/Governance.sol\":2017:2025  proposal */\n      dup2\n        /* \"Desktop/work/dao-company/contracts/Governance.sol\":2017:2034  proposal.executed */\n      0x02\n      add\n      0x00\n        /* \"Desktop/work/dao-company/contracts/Governance.sol\":2017:2041  proposal.executed = true */\n      0x0100\n      exp\n      dup2\n      sload\n      dup2\n      0xff\n      mul\n      not\n      and\n      swap1\n      dup4\n      iszero\n      iszero\n      mul\n      or\n      swap1\n      sstore\n      pop\n        /* \"Desktop/work/dao-company/contracts/Governance.sol\":2052:2069  bytes memory data */\n      0x60\n        /* \"Desktop/work/dao-company/contracts/Governance.sol\":2105:2106  0 */\n      0x00\n        /* \"Desktop/work/dao-company/contracts/Governance.sol\":2089:2094  _func */\n      dup10\n      dup10\n        /* \"Desktop/work/dao-company/contracts/Governance.sol\":2083:2102  bytes(_func).length */\n      swap1\n      pop\n        /* \"Desktop/work/dao-company/contracts/Governance.sol\":2083:2106  bytes(_func).length > 0 */\n      gt\n        /* \"Desktop/work/dao-company/contracts/Governance.sol\":2079:2269  if (bytes(_func).length > 0) {... */\n      iszero\n      tag_110\n      jumpi\n        /* \"Desktop/work/dao-company/contracts/Governance.sol\":2186:2191  _func */\n      dup9\n      dup9\n        /* \"Desktop/work/dao-company/contracts/Governance.sol\":2170:2193  keccak256(bytes(_func)) */\n      mload(0x40)\n      tag_111\n      swap3\n      swap2\n      swap1\n      tag_89\n      jump\t// in\n    tag_111:\n      mload(0x40)\n      dup1\n      swap2\n      sub\n      swap1\n      keccak256\n        /* \"Desktop/work/dao-company/contracts/Governance.sol\":2196:2201  _data */\n      dup8\n      dup8\n        /* \"Desktop/work/dao-company/contracts/Governance.sol\":2129:2215  abi.encodePacked(... */\n      add(0x20, mload(0x40))\n      tag_112\n      swap4\n      swap3\n      swap2\n      swap1\n      tag_113\n      jump\t// in\n    tag_112:\n      mload(0x40)\n      0x20\n      dup2\n      dup4\n      sub\n      sub\n      dup2\n      mstore\n      swap1\n      0x40\n      mstore\n        /* \"Desktop/work/dao-company/contracts/Governance.sol\":2122:2215  data = abi.encodePacked(... */\n      swap1\n      pop\n        /* \"Desktop/work/dao-company/contracts/Governance.sol\":2079:2269  if (bytes(_func).length > 0) {... */\n      jump(tag_114)\n    tag_110:\n        /* \"Desktop/work/dao-company/contracts/Governance.sol\":2253:2258  _data */\n      dup7\n      dup7\n        /* \"Desktop/work/dao-company/contracts/Governance.sol\":2246:2258  data = _data */\n      dup1\n      dup1\n      0x1f\n      add\n      0x20\n      dup1\n      swap2\n      div\n      mul\n      0x20\n      add\n      mload(0x40)\n      swap1\n      dup2\n      add\n      0x40\n      mstore\n      dup1\n      swap4\n      swap3\n      swap2\n      swap1\n      dup2\n      dup2\n      mstore\n      0x20\n      add\n      dup4\n      dup4\n      dup1\n      dup3\n      dup5\n      calldatacopy\n      0x00\n      dup2\n      dup5\n      add\n      mstore\n      not(0x1f)\n      0x1f\n      dup3\n      add\n      and\n      swap1\n      pop\n      dup1\n      dup4\n      add\n      swap3\n      pop\n      pop\n      pop\n      pop\n      pop\n      pop\n      pop\n      swap1\n      pop\n        /* \"Desktop/work/dao-company/contracts/Governance.sol\":2079:2269  if (bytes(_func).length > 0) {... */\n    tag_114:\n        /* \"Desktop/work/dao-company/contracts/Governance.sol\":2280:2292  bool success */\n      0x00\n        /* \"Desktop/work/dao-company/contracts/Governance.sol\":2294:2311  bytes memory resp */\n      dup1\n        /* \"Desktop/work/dao-company/contracts/Governance.sol\":2315:2318  _to */\n      dup13\n        /* \"Desktop/work/dao-company/contracts/Governance.sol\":2315:2323  _to.call */\n      0xffffffffffffffffffffffffffffffffffffffff\n      and\n        /* \"Desktop/work/dao-company/contracts/Governance.sol\":2331:2337  _value */\n      dup13\n        /* \"Desktop/work/dao-company/contracts/Governance.sol\":2339:2343  data */\n      dup5\n        /* \"Desktop/work/dao-company/contracts/Governance.sol\":2315:2344  _to.call{value: _value}(data) */\n      mload(0x40)\n      tag_115\n      swap2\n      swap1\n      tag_116\n      jump\t// in\n    tag_115:\n      0x00\n      mload(0x40)\n      dup1\n      dup4\n      sub\n      dup2\n      dup6\n      dup8\n      gas\n      call\n      swap3\n      pop\n      pop\n      pop\n      returndatasize\n      dup1\n      0x00\n      dup2\n      eq\n      tag_119\n      jumpi\n      mload(0x40)\n      swap2\n      pop\n      and(add(returndatasize, 0x3f), not(0x1f))\n      dup3\n      add\n      0x40\n      mstore\n      returndatasize\n      dup3\n      mstore\n      returndatasize\n      0x00\n      0x20\n      dup5\n      add\n      returndatacopy\n      jump(tag_118)\n    tag_119:\n      0x60\n      swap2\n      pop\n    tag_118:\n      pop\n        /* \"Desktop/work/dao-company/contracts/Governance.sol\":2279:2344  (bool success, bytes memory resp) = _to.call{value: _value}(data) */\n      swap2\n      pop\n      swap2\n      pop\n        /* \"Desktop/work/dao-company/contracts/Governance.sol\":2362:2369  success */\n      dup2\n        /* \"Desktop/work/dao-company/contracts/Governance.sol\":2354:2383  require(success, \"tx failed\") */\n      tag_120\n      jumpi\n      mload(0x40)\n      0x08c379a000000000000000000000000000000000000000000000000000000000\n      dup2\n      mstore\n      0x04\n      add\n      tag_121\n      swap1\n      tag_122\n      jump\t// in\n    tag_121:\n      mload(0x40)\n      dup1\n      swap2\n      sub\n      swap1\n      revert\n    tag_120:\n        /* \"Desktop/work/dao-company/contracts/Governance.sol\":2401:2405  resp */\n      dup1\n        /* \"Desktop/work/dao-company/contracts/Governance.sol\":2394:2405  return resp */\n      swap6\n      pop\n      pop\n      pop\n      pop\n      pop\n      pop\n        /* \"Desktop/work/dao-company/contracts/Governance.sol\":1558:2412  function execute(... */\n      swap8\n      swap7\n      pop\n      pop\n      pop\n      pop\n      pop\n      pop\n      pop\n      jump\t// out\n        /* \"Desktop/work/dao-company/contracts/Governance.sol\":2418:3117  function vote(bytes32 proposalId, uint8 voteType) external {... */\n    tag_51:\n        /* \"Desktop/work/dao-company/contracts/Governance.sol\":2516:2536  ProposalState.Active */\n      0x01\n        /* \"Desktop/work/dao-company/contracts/Governance.sol\":2495:2536  state(proposalId) == ProposalState.Active */\n      0x04\n      dup2\n      gt\n      iszero\n      tag_124\n      jumpi\n      tag_125\n      tag_103\n      jump\t// in\n    tag_125:\n    tag_124:\n        /* \"Desktop/work/dao-company/contracts/Governance.sol\":2495:2512  state(proposalId) */\n      tag_126\n        /* \"Desktop/work/dao-company/contracts/Governance.sol\":2501:2511  proposalId */\n      dup4\n        /* \"Desktop/work/dao-company/contracts/Governance.sol\":2495:2500  state */\n      tag_25\n        /* \"Desktop/work/dao-company/contracts/Governance.sol\":2495:2512  state(proposalId) */\n      jump\t// in\n    tag_126:\n        /* \"Desktop/work/dao-company/contracts/Governance.sol\":2495:2536  state(proposalId) == ProposalState.Active */\n      0x04\n      dup2\n      gt\n      iszero\n      tag_127\n      jumpi\n      tag_128\n      tag_103\n      jump\t// in\n    tag_128:\n    tag_127:\n      eq\n        /* \"Desktop/work/dao-company/contracts/Governance.sol\":2487:2554  require(state(proposalId) == ProposalState.Active, \"invalid state\") */\n      tag_129\n      jumpi\n      mload(0x40)\n      0x08c379a000000000000000000000000000000000000000000000000000000000\n      dup2\n      mstore\n      0x04\n      add\n      tag_130\n      swap1\n      tag_109\n      jump\t// in\n    tag_130:\n      mload(0x40)\n      dup1\n      swap2\n      sub\n      swap1\n      revert\n    tag_129:\n        /* \"Desktop/work/dao-company/contracts/Governance.sol\":2565:2581  uint votingPower */\n      0x00\n        /* \"Desktop/work/dao-company/contracts/Governance.sol\":2584:2589  token */\n      0x02\n      0x00\n      swap1\n      sload\n      swap1\n      0x0100\n      exp\n      swap1\n      div\n      0xffffffffffffffffffffffffffffffffffffffff\n      and\n        /* \"Desktop/work/dao-company/contracts/Governance.sol\":2584:2599  token.balanceOf */\n      0xffffffffffffffffffffffffffffffffffffffff\n      and\n      0x70a08231\n        /* \"Desktop/work/dao-company/contracts/Governance.sol\":2600:2610  msg.sender */\n      caller\n        /* \"Desktop/work/dao-company/contracts/Governance.sol\":2584:2611  token.balanceOf(msg.sender) */\n      mload(0x40)\n      dup3\n      0xffffffff\n      and\n      0xe0\n      shl\n      dup2\n      mstore\n      0x04\n      add\n      tag_131\n      swap2\n      swap1\n      tag_79\n      jump\t// in\n    tag_131:\n      0x20\n      mload(0x40)\n      dup1\n      dup4\n      sub\n      dup2\n      dup7\n      gas\n      staticcall\n      iszero\n      dup1\n      iszero\n      tag_133\n      jumpi\n      returndatasize\n      0x00\n      dup1\n      returndatacopy\n      revert(0x00, returndatasize)\n    tag_133:\n      pop\n      pop\n      pop\n      pop\n      mload(0x40)\n      returndatasize\n      not(0x1f)\n      0x1f\n      dup3\n      add\n      and\n      dup3\n      add\n      dup1\n      0x40\n      mstore\n      pop\n      dup2\n      add\n      swap1\n      tag_134\n      swap2\n      swap1\n      tag_83\n      jump\t// in\n    tag_134:\n        /* \"Desktop/work/dao-company/contracts/Governance.sol\":2565:2611  uint votingPower = token.balanceOf(msg.sender) */\n      swap1\n      pop\n        /* \"Desktop/work/dao-company/contracts/Governance.sol\":2644:2645  0 */\n      0x00\n        /* \"Desktop/work/dao-company/contracts/Governance.sol\":2630:2641  votingPower */\n      dup2\n        /* \"Desktop/work/dao-company/contracts/Governance.sol\":2630:2645  votingPower > 0 */\n      gt\n        /* \"Desktop/work/dao-company/contracts/Governance.sol\":2622:2667  require(votingPower > 0, \"not enough tokens\") */\n      tag_135\n      jumpi\n      mload(0x40)\n      0x08c379a000000000000000000000000000000000000000000000000000000000\n      dup2\n      mstore\n      0x04\n      add\n      tag_136\n      swap1\n      tag_86\n      jump\t// in\n    tag_136:\n      mload(0x40)\n      dup1\n      swap2\n      sub\n      swap1\n      revert\n    tag_135:\n        /* \"Desktop/work/dao-company/contracts/Governance.sol\":2678:2711  ProposalVote storage proposalVote */\n      0x00\n        /* \"Desktop/work/dao-company/contracts/Governance.sol\":2714:2727  proposalVotes */\n      0x01\n        /* \"Desktop/work/dao-company/contracts/Governance.sol\":2714:2739  proposalVotes[proposalId] */\n      0x00\n        /* \"Desktop/work/dao-company/contracts/Governance.sol\":2728:2738  proposalId */\n      dup6\n        /* \"Desktop/work/dao-company/contracts/Governance.sol\":2714:2739  proposalVotes[proposalId] */\n      dup2\n      mstore\n      0x20\n      add\n      swap1\n      dup2\n      mstore\n      0x20\n      add\n      0x00\n      keccak256\n        /* \"Desktop/work/dao-company/contracts/Governance.sol\":2678:2739  ProposalVote storage proposalVote = proposalVotes[proposalId] */\n      swap1\n      pop\n        /* \"Desktop/work/dao-company/contracts/Governance.sol\":2759:2771  proposalVote */\n      dup1\n        /* \"Desktop/work/dao-company/contracts/Governance.sol\":2759:2780  proposalVote.hasVoted */\n      0x03\n      add\n        /* \"Desktop/work/dao-company/contracts/Governance.sol\":2759:2792  proposalVote.hasVoted[msg.sender] */\n      0x00\n        /* \"Desktop/work/dao-company/contracts/Governance.sol\":2781:2791  msg.sender */\n      caller\n        /* \"Desktop/work/dao-company/contracts/Governance.sol\":2759:2792  proposalVote.hasVoted[msg.sender] */\n      0xffffffffffffffffffffffffffffffffffffffff\n      and\n      0xffffffffffffffffffffffffffffffffffffffff\n      and\n      dup2\n      mstore\n      0x20\n      add\n      swap1\n      dup2\n      mstore\n      0x20\n      add\n      0x00\n      keccak256\n      0x00\n      swap1\n      sload\n      swap1\n      0x0100\n      exp\n      swap1\n      div\n      0xff\n      and\n        /* \"Desktop/work/dao-company/contracts/Governance.sol\":2758:2792  !proposalVote.hasVoted[msg.sender] */\n      iszero\n        /* \"Desktop/work/dao-company/contracts/Governance.sol\":2750:2810  require(!proposalVote.hasVoted[msg.sender], \"already voted\") */\n      tag_137\n      jumpi\n      mload(0x40)\n      0x08c379a000000000000000000000000000000000000000000000000000000000\n      dup2\n      mstore\n      0x04\n      add\n      tag_138\n      swap1\n      tag_139\n      jump\t// in\n    tag_138:\n      mload(0x40)\n      dup1\n      swap2\n      sub\n      swap1\n      revert\n    tag_137:\n        /* \"Desktop/work/dao-company/contracts/Governance.sol\":2836:2837  0 */\n      0x00\n        /* \"Desktop/work/dao-company/contracts/Governance.sol\":2824:2832  voteType */\n      dup4\n        /* \"Desktop/work/dao-company/contracts/Governance.sol\":2824:2837  voteType == 0 */\n      0xff\n      and\n      sub\n        /* \"Desktop/work/dao-company/contracts/Governance.sol\":2821:3060  if(voteType == 0) {... */\n      tag_140\n      jumpi\n        /* \"Desktop/work/dao-company/contracts/Governance.sol\":2882:2893  votingPower */\n      dup2\n        /* \"Desktop/work/dao-company/contracts/Governance.sol\":2853:2865  proposalVote */\n      dup2\n        /* \"Desktop/work/dao-company/contracts/Governance.sol\":2853:2878  proposalVote.againstVotes */\n      0x00\n      add\n      0x00\n        /* \"Desktop/work/dao-company/contracts/Governance.sol\":2853:2893  proposalVote.againstVotes += votingPower */\n      dup3\n      dup3\n      sload\n      tag_141\n      swap2\n      swap1\n      tag_95\n      jump\t// in\n    tag_141:\n      swap3\n      pop\n      pop\n      dup2\n      swap1\n      sstore\n      pop\n        /* \"Desktop/work/dao-company/contracts/Governance.sol\":2821:3060  if(voteType == 0) {... */\n      jump(tag_142)\n    tag_140:\n        /* \"Desktop/work/dao-company/contracts/Governance.sol\":2925:2926  1 */\n      0x01\n        /* \"Desktop/work/dao-company/contracts/Governance.sol\":2913:2921  voteType */\n      dup4\n        /* \"Desktop/work/dao-company/contracts/Governance.sol\":2913:2926  voteType == 1 */\n      0xff\n      and\n      sub\n        /* \"Desktop/work/dao-company/contracts/Governance.sol\":2910:3060  if(voteType == 1) {... */\n      tag_143\n      jumpi\n        /* \"Desktop/work/dao-company/contracts/Governance.sol\":2967:2978  votingPower */\n      dup2\n        /* \"Desktop/work/dao-company/contracts/Governance.sol\":2942:2954  proposalVote */\n      dup2\n        /* \"Desktop/work/dao-company/contracts/Governance.sol\":2942:2963  proposalVote.forVotes */\n      0x01\n      add\n      0x00\n        /* \"Desktop/work/dao-company/contracts/Governance.sol\":2942:2978  proposalVote.forVotes += votingPower */\n      dup3\n      dup3\n      sload\n      tag_144\n      swap2\n      swap1\n      tag_95\n      jump\t// in\n    tag_144:\n      swap3\n      pop\n      pop\n      dup2\n      swap1\n      sstore\n      pop\n        /* \"Desktop/work/dao-company/contracts/Governance.sol\":2910:3060  if(voteType == 1) {... */\n      jump(tag_145)\n    tag_143:\n        /* \"Desktop/work/dao-company/contracts/Governance.sol\":3038:3049  votingPower */\n      dup2\n        /* \"Desktop/work/dao-company/contracts/Governance.sol\":3009:3021  proposalVote */\n      dup2\n        /* \"Desktop/work/dao-company/contracts/Governance.sol\":3009:3034  proposalVote.abstainVotes */\n      0x02\n      add\n      0x00\n        /* \"Desktop/work/dao-company/contracts/Governance.sol\":3009:3049  proposalVote.abstainVotes += votingPower */\n      dup3\n      dup3\n      sload\n      tag_146\n      swap2\n      swap1\n      tag_95\n      jump\t// in\n    tag_146:\n      swap3\n      pop\n      pop\n      dup2\n      swap1\n      sstore\n      pop\n        /* \"Desktop/work/dao-company/contracts/Governance.sol\":2910:3060  if(voteType == 1) {... */\n    tag_145:\n        /* \"Desktop/work/dao-company/contracts/Governance.sol\":2821:3060  if(voteType == 0) {... */\n    tag_142:\n        /* \"Desktop/work/dao-company/contracts/Governance.sol\":3106:3110  true */\n      0x01\n        /* \"Desktop/work/dao-company/contracts/Governance.sol\":3070:3082  proposalVote */\n      dup2\n        /* \"Desktop/work/dao-company/contracts/Governance.sol\":3070:3091  proposalVote.hasVoted */\n      0x03\n      add\n        /* \"Desktop/work/dao-company/contracts/Governance.sol\":3070:3103  proposalVote.hasVoted[msg.sender] */\n      0x00\n        /* \"Desktop/work/dao-company/contracts/Governance.sol\":3092:3102  msg.sender */\n      caller\n        /* \"Desktop/work/dao-company/contracts/Governance.sol\":3070:3103  proposalVote.hasVoted[msg.sender] */\n      0xffffffffffffffffffffffffffffffffffffffff\n      and\n      0xffffffffffffffffffffffffffffffffffffffff\n      and\n      dup2\n      mstore\n      0x20\n      add\n      swap1\n      dup2\n      mstore\n      0x20\n      add\n      0x00\n      keccak256\n      0x00\n        /* \"Desktop/work/dao-company/contracts/Governance.sol\":3070:3110  proposalVote.hasVoted[msg.sender] = true */\n      0x0100\n      exp\n      dup2\n      sload\n      dup2\n      0xff\n      mul\n      not\n      and\n      swap1\n      dup4\n      iszero\n      iszero\n      mul\n      or\n      swap1\n      sstore\n      pop\n        /* \"Desktop/work/dao-company/contracts/Governance.sol\":2477:3117  {... */\n      pop\n      pop\n        /* \"Desktop/work/dao-company/contracts/Governance.sol\":2418:3117  function vote(bytes32 proposalId, uint8 voteType) external {... */\n      pop\n      pop\n      jump\t// out\n        /* \"Desktop/work/dao-company/contracts/Governance.sol\":491:544  mapping(bytes32 => ProposalVote) public proposalVotes */\n    tag_55:\n      mstore(0x20, 0x01)\n      dup1\n      0x00\n      mstore\n      keccak256(0x00, 0x40)\n      0x00\n      swap2\n      pop\n      swap1\n      pop\n      dup1\n      0x00\n      add\n      sload\n      swap1\n      dup1\n      0x01\n      add\n      sload\n      swap1\n      dup1\n      0x02\n      add\n      sload\n      swap1\n      pop\n      dup4\n      jump\t// out\n        /* \"Desktop/work/dao-company/contracts/Governance.sol\":576:614  uint public constant VOTING_DELAY = 10 */\n    tag_60:\n        /* \"Desktop/work/dao-company/contracts/Governance.sol\":612:614  10 */\n      0x0a\n        /* \"Desktop/work/dao-company/contracts/Governance.sol\":576:614  uint public constant VOTING_DELAY = 10 */\n      dup2\n      jump\t// out\n        /* \"Desktop/work/dao-company/contracts/Governance.sol\":551:570  IERC20 public token */\n    tag_64:\n      0x02\n      0x00\n      swap1\n      sload\n      swap1\n      0x0100\n      exp\n      swap1\n      div\n      0xffffffffffffffffffffffffffffffffffffffff\n      and\n      dup2\n      jump\t// out\n        /* \"Desktop/work/dao-company/contracts/Governance.sol\":3942:4256  function generateProposalId(... */\n    tag_90:\n        /* \"Desktop/work/dao-company/contracts/Governance.sol\":4135:4142  bytes32 */\n      0x00\n        /* \"Desktop/work/dao-company/contracts/Governance.sol\":4195:4198  _to */\n      dup8\n        /* \"Desktop/work/dao-company/contracts/Governance.sol\":4200:4206  _value */\n      dup8\n        /* \"Desktop/work/dao-company/contracts/Governance.sol\":4208:4213  _func */\n      dup8\n      dup8\n        /* \"Desktop/work/dao-company/contracts/Governance.sol\":4215:4220  _data */\n      dup8\n      dup8\n        /* \"Desktop/work/dao-company/contracts/Governance.sol\":4222:4238  _descriptionHash */\n      dup8\n        /* \"Desktop/work/dao-company/contracts/Governance.sol\":4171:4248  abi.encode(... */\n      add(0x20, mload(0x40))\n      tag_148\n      swap8\n      swap7\n      swap6\n      swap5\n      swap4\n      swap3\n      swap2\n      swap1\n      tag_149\n      jump\t// in\n    tag_148:\n      mload(0x40)\n      0x20\n      dup2\n      dup4\n      sub\n      sub\n      dup2\n      mstore\n      swap1\n      0x40\n      mstore\n        /* \"Desktop/work/dao-company/contracts/Governance.sol\":4161:4249  keccak256(abi.encode(... */\n      dup1\n      mload\n      swap1\n      0x20\n      add\n      keccak256\n        /* \"Desktop/work/dao-company/contracts/Governance.sol\":4154:4249  return keccak256(abi.encode(... */\n      swap1\n      pop\n        /* \"Desktop/work/dao-company/contracts/Governance.sol\":3942:4256  function generateProposalId(... */\n      swap8\n      swap7\n      pop\n      pop\n      pop\n      pop\n      pop\n      pop\n      pop\n      jump\t// out\n        /* \"#utility.yul\":88:205   */\n    tag_151:\n        /* \"#utility.yul\":197:198   */\n      0x00\n        /* \"#utility.yul\":194:195   */\n      dup1\n        /* \"#utility.yul\":187:199   */\n      revert\n        /* \"#utility.yul\":211:328   */\n    tag_152:\n        /* \"#utility.yul\":320:321   */\n      0x00\n        /* \"#utility.yul\":317:318   */\n      dup1\n        /* \"#utility.yul\":310:322   */\n      revert\n        /* \"#utility.yul\":334:411   */\n    tag_153:\n        /* \"#utility.yul\":371:378   */\n      0x00\n        /* \"#utility.yul\":400:405   */\n      dup2\n        /* \"#utility.yul\":389:405   */\n      swap1\n      pop\n        /* \"#utility.yul\":334:411   */\n      swap2\n      swap1\n      pop\n      jump\t// out\n        /* \"#utility.yul\":417:539   */\n    tag_154:\n        /* \"#utility.yul\":490:514   */\n      tag_220\n        /* \"#utility.yul\":508:513   */\n      dup2\n        /* \"#utility.yul\":490:514   */\n      tag_153\n      jump\t// in\n    tag_220:\n        /* \"#utility.yul\":483:488   */\n      dup2\n        /* \"#utility.yul\":480:515   */\n      eq\n        /* \"#utility.yul\":470:533   */\n      tag_221\n      jumpi\n        /* \"#utility.yul\":529:530   */\n      0x00\n        /* \"#utility.yul\":526:527   */\n      dup1\n        /* \"#utility.yul\":519:531   */\n      revert\n        /* \"#utility.yul\":470:533   */\n    tag_221:\n        /* \"#utility.yul\":417:539   */\n      pop\n      jump\t// out\n        /* \"#utility.yul\":545:684   */\n    tag_155:\n        /* \"#utility.yul\":591:596   */\n      0x00\n        /* \"#utility.yul\":629:635   */\n      dup2\n        /* \"#utility.yul\":616:636   */\n      calldataload\n        /* \"#utility.yul\":607:636   */\n      swap1\n      pop\n        /* \"#utility.yul\":645:678   */\n      tag_223\n        /* \"#utility.yul\":672:677   */\n      dup2\n        /* \"#utility.yul\":645:678   */\n      tag_154\n      jump\t// in\n    tag_223:\n        /* \"#utility.yul\":545:684   */\n      swap3\n      swap2\n      pop\n      pop\n      jump\t// out\n        /* \"#utility.yul\":690:1019   */\n    tag_18:\n        /* \"#utility.yul\":749:755   */\n      0x00\n        /* \"#utility.yul\":798:800   */\n      0x20\n        /* \"#utility.yul\":786:795   */\n      dup3\n        /* \"#utility.yul\":777:784   */\n      dup5\n        /* \"#utility.yul\":773:796   */\n      sub\n        /* \"#utility.yul\":769:801   */\n      slt\n        /* \"#utility.yul\":766:885   */\n      iszero\n      tag_225\n      jumpi\n        /* \"#utility.yul\":804:883   */\n      tag_226\n      tag_151\n      jump\t// in\n    tag_226:\n        /* \"#utility.yul\":766:885   */\n    tag_225:\n        /* \"#utility.yul\":924:925   */\n      0x00\n        /* \"#utility.yul\":949:1002   */\n      tag_227\n        /* \"#utility.yul\":994:1001   */\n      dup5\n        /* \"#utility.yul\":985:991   */\n      dup3\n        /* \"#utility.yul\":974:983   */\n      dup6\n        /* \"#utility.yul\":970:992   */\n      add\n        /* \"#utility.yul\":949:1002   */\n      tag_155\n      jump\t// in\n    tag_227:\n        /* \"#utility.yul\":939:1002   */\n      swap2\n      pop\n        /* \"#utility.yul\":895:1012   */\n      pop\n        /* \"#utility.yul\":690:1019   */\n      swap3\n      swap2\n      pop\n      pop\n      jump\t// out\n        /* \"#utility.yul\":1025:1102   */\n    tag_156:\n        /* \"#utility.yul\":1062:1069   */\n      0x00\n        /* \"#utility.yul\":1091:1096   */\n      dup2\n        /* \"#utility.yul\":1080:1096   */\n      swap1\n      pop\n        /* \"#utility.yul\":1025:1102   */\n      swap2\n      swap1\n      pop\n      jump\t// out\n        /* \"#utility.yul\":1108:1226   */\n    tag_157:\n        /* \"#utility.yul\":1195:1219   */\n      tag_230\n        /* \"#utility.yul\":1213:1218   */\n      dup2\n        /* \"#utility.yul\":1195:1219   */\n      tag_156\n      jump\t// in\n    tag_230:\n        /* \"#utility.yul\":1190:1193   */\n      dup3\n        /* \"#utility.yul\":1183:1220   */\n      mstore\n        /* \"#utility.yul\":1108:1226   */\n      pop\n      pop\n      jump\t// out\n        /* \"#utility.yul\":1232:1322   */\n    tag_158:\n        /* \"#utility.yul\":1266:1273   */\n      0x00\n        /* \"#utility.yul\":1309:1314   */\n      dup2\n        /* \"#utility.yul\":1302:1315   */\n      iszero\n        /* \"#utility.yul\":1295:1316   */\n      iszero\n        /* \"#utility.yul\":1284:1316   */\n      swap1\n      pop\n        /* \"#utility.yul\":1232:1322   */\n      swap2\n      swap1\n      pop\n      jump\t// out\n        /* \"#utility.yul\":1328:1437   */\n    tag_159:\n        /* \"#utility.yul\":1409:1430   */\n      tag_233\n        /* \"#utility.yul\":1424:1429   */\n      dup2\n        /* \"#utility.yul\":1409:1430   */\n      tag_158\n      jump\t// in\n    tag_233:\n        /* \"#utility.yul\":1404:1407   */\n      dup3\n        /* \"#utility.yul\":1397:1431   */\n      mstore\n        /* \"#utility.yul\":1328:1437   */\n      pop\n      pop\n      jump\t// out\n        /* \"#utility.yul\":1443:1873   */\n    tag_21:\n        /* \"#utility.yul\":1586:1590   */\n      0x00\n        /* \"#utility.yul\":1624:1626   */\n      0x60\n        /* \"#utility.yul\":1613:1622   */\n      dup3\n        /* \"#utility.yul\":1609:1627   */\n      add\n        /* \"#utility.yul\":1601:1627   */\n      swap1\n      pop\n        /* \"#utility.yul\":1637:1708   */\n      tag_235\n        /* \"#utility.yul\":1705:1706   */\n      0x00\n        /* \"#utility.yul\":1694:1703   */\n      dup4\n        /* \"#utility.yul\":1690:1707   */\n      add\n        /* \"#utility.yul\":1681:1687   */\n      dup7\n        /* \"#utility.yul\":1637:1708   */\n      tag_157\n      jump\t// in\n    tag_235:\n        /* \"#utility.yul\":1718:1790   */\n      tag_236\n        /* \"#utility.yul\":1786:1788   */\n      0x20\n        /* \"#utility.yul\":1775:1784   */\n      dup4\n        /* \"#utility.yul\":1771:1789   */\n      add\n        /* \"#utility.yul\":1762:1768   */\n      dup6\n        /* \"#utility.yul\":1718:1790   */\n      tag_157\n      jump\t// in\n    tag_236:\n        /* \"#utility.yul\":1800:1866   */\n      tag_237\n        /* \"#utility.yul\":1862:1864   */\n      0x40\n        /* \"#utility.yul\":1851:1860   */\n      dup4\n        /* \"#utility.yul\":1847:1865   */\n      add\n        /* \"#utility.yul\":1838:1844   */\n      dup5\n        /* \"#utility.yul\":1800:1866   */\n      tag_159\n      jump\t// in\n    tag_237:\n        /* \"#utility.yul\":1443:1873   */\n      swap5\n      swap4\n      pop\n      pop\n      pop\n      pop\n      jump\t// out\n        /* \"#utility.yul\":1879:2059   */\n    tag_103:\n        /* \"#utility.yul\":1927:2004   */\n      0x4e487b7100000000000000000000000000000000000000000000000000000000\n        /* \"#utility.yul\":1924:1925   */\n      0x00\n        /* \"#utility.yul\":1917:2005   */\n      mstore\n        /* \"#utility.yul\":2024:2028   */\n      0x21\n        /* \"#utility.yul\":2021:2022   */\n      0x04\n        /* \"#utility.yul\":2014:2029   */\n      mstore\n        /* \"#utility.yul\":2048:2052   */\n      0x24\n        /* \"#utility.yul\":2045:2046   */\n      0x00\n        /* \"#utility.yul\":2038:2053   */\n      revert\n        /* \"#utility.yul\":2065:2186   */\n    tag_160:\n        /* \"#utility.yul\":2154:2155   */\n      0x05\n        /* \"#utility.yul\":2147:2152   */\n      dup2\n        /* \"#utility.yul\":2144:2156   */\n      lt\n        /* \"#utility.yul\":2134:2180   */\n      tag_240\n      jumpi\n        /* \"#utility.yul\":2160:2178   */\n      tag_241\n      tag_103\n      jump\t// in\n    tag_241:\n        /* \"#utility.yul\":2134:2180   */\n    tag_240:\n        /* \"#utility.yul\":2065:2186   */\n      pop\n      jump\t// out\n        /* \"#utility.yul\":2192:2335   */\n    tag_161:\n        /* \"#utility.yul\":2245:2252   */\n      0x00\n        /* \"#utility.yul\":2274:2279   */\n      dup2\n        /* \"#utility.yul\":2263:2279   */\n      swap1\n      pop\n        /* \"#utility.yul\":2280:2329   */\n      tag_243\n        /* \"#utility.yul\":2323:2328   */\n      dup3\n        /* \"#utility.yul\":2280:2329   */\n      tag_160\n      jump\t// in\n    tag_243:\n        /* \"#utility.yul\":2192:2335   */\n      swap2\n      swap1\n      pop\n      jump\t// out\n        /* \"#utility.yul\":2341:2484   */\n    tag_162:\n        /* \"#utility.yul\":2405:2414   */\n      0x00\n        /* \"#utility.yul\":2438:2478   */\n      tag_245\n        /* \"#utility.yul\":2472:2477   */\n      dup3\n        /* \"#utility.yul\":2438:2478   */\n      tag_161\n      jump\t// in\n    tag_245:\n        /* \"#utility.yul\":2425:2478   */\n      swap1\n      pop\n        /* \"#utility.yul\":2341:2484   */\n      swap2\n      swap1\n      pop\n      jump\t// out\n        /* \"#utility.yul\":2490:2649   */\n    tag_163:\n        /* \"#utility.yul\":2591:2642   */\n      tag_247\n        /* \"#utility.yul\":2636:2641   */\n      dup2\n        /* \"#utility.yul\":2591:2642   */\n      tag_162\n      jump\t// in\n    tag_247:\n        /* \"#utility.yul\":2586:2589   */\n      dup3\n        /* \"#utility.yul\":2579:2643   */\n      mstore\n        /* \"#utility.yul\":2490:2649   */\n      pop\n      pop\n      jump\t// out\n        /* \"#utility.yul\":2655:2905   */\n    tag_27:\n        /* \"#utility.yul\":2762:2766   */\n      0x00\n        /* \"#utility.yul\":2800:2802   */\n      0x20\n        /* \"#utility.yul\":2789:2798   */\n      dup3\n        /* \"#utility.yul\":2785:2803   */\n      add\n        /* \"#utility.yul\":2777:2803   */\n      swap1\n      pop\n        /* \"#utility.yul\":2813:2898   */\n      tag_249\n        /* \"#utility.yul\":2895:2896   */\n      0x00\n        /* \"#utility.yul\":2884:2893   */\n      dup4\n        /* \"#utility.yul\":2880:2897   */\n      add\n        /* \"#utility.yul\":2871:2877   */\n      dup5\n        /* \"#utility.yul\":2813:2898   */\n      tag_163\n      jump\t// in\n    tag_249:\n        /* \"#utility.yul\":2655:2905   */\n      swap3\n      swap2\n      pop\n      pop\n      jump\t// out\n        /* \"#utility.yul\":2911:3037   */\n    tag_164:\n        /* \"#utility.yul\":2948:2955   */\n      0x00\n        /* \"#utility.yul\":2988:3030   */\n      0xffffffffffffffffffffffffffffffffffffffff\n        /* \"#utility.yul\":2981:2986   */\n      dup3\n        /* \"#utility.yul\":2977:3031   */\n      and\n        /* \"#utility.yul\":2966:3031   */\n      swap1\n      pop\n        /* \"#utility.yul\":2911:3037   */\n      swap2\n      swap1\n      pop\n      jump\t// out\n        /* \"#utility.yul\":3043:3139   */\n    tag_165:\n        /* \"#utility.yul\":3080:3087   */\n      0x00\n        /* \"#utility.yul\":3109:3133   */\n      tag_252\n        /* \"#utility.yul\":3127:3132   */\n      dup3\n        /* \"#utility.yul\":3109:3133   */\n      tag_164\n      jump\t// in\n    tag_252:\n        /* \"#utility.yul\":3098:3133   */\n      swap1\n      pop\n        /* \"#utility.yul\":3043:3139   */\n      swap2\n      swap1\n      pop\n      jump\t// out\n        /* \"#utility.yul\":3145:3267   */\n    tag_166:\n        /* \"#utility.yul\":3218:3242   */\n      tag_254\n        /* \"#utility.yul\":3236:3241   */\n      dup2\n        /* \"#utility.yul\":3218:3242   */\n      tag_165\n      jump\t// in\n    tag_254:\n        /* \"#utility.yul\":3211:3216   */\n      dup2\n        /* \"#utility.yul\":3208:3243   */\n      eq\n        /* \"#utility.yul\":3198:3261   */\n      tag_255\n      jumpi\n        /* \"#utility.yul\":3257:3258   */\n      0x00\n        /* \"#utility.yul\":3254:3255   */\n      dup1\n        /* \"#utility.yul\":3247:3259   */\n      revert\n        /* \"#utility.yul\":3198:3261   */\n    tag_255:\n        /* \"#utility.yul\":3145:3267   */\n      pop\n      jump\t// out\n        /* \"#utility.yul\":3273:3412   */\n    tag_167:\n        /* \"#utility.yul\":3319:3324   */\n      0x00\n        /* \"#utility.yul\":3357:3363   */\n      dup2\n        /* \"#utility.yul\":3344:3364   */\n      calldataload\n        /* \"#utility.yul\":3335:3364   */\n      swap1\n      pop\n        /* \"#utility.yul\":3373:3406   */\n      tag_257\n        /* \"#utility.yul\":3400:3405   */\n      dup2\n        /* \"#utility.yul\":3373:3406   */\n      tag_166\n      jump\t// in\n    tag_257:\n        /* \"#utility.yul\":3273:3412   */\n      swap3\n      swap2\n      pop\n      pop\n      jump\t// out\n        /* \"#utility.yul\":3418:3540   */\n    tag_168:\n        /* \"#utility.yul\":3491:3515   */\n      tag_259\n        /* \"#utility.yul\":3509:3514   */\n      dup2\n        /* \"#utility.yul\":3491:3515   */\n      tag_156\n      jump\t// in\n    tag_259:\n        /* \"#utility.yul\":3484:3489   */\n      dup2\n        /* \"#utility.yul\":3481:3516   */\n      eq\n        /* \"#utility.yul\":3471:3534   */\n      tag_260\n      jumpi\n        /* \"#utility.yul\":3530:3531   */\n      0x00\n        /* \"#utility.yul\":3527:3528   */\n      dup1\n        /* \"#utility.yul\":3520:3532   */\n      revert\n        /* \"#utility.yul\":3471:3534   */\n    tag_260:\n        /* \"#utility.yul\":3418:3540   */\n      pop\n      jump\t// out\n        /* \"#utility.yul\":3546:3685   */\n    tag_169:\n        /* \"#utility.yul\":3592:3597   */\n      0x00\n        /* \"#utility.yul\":3630:3636   */\n      dup2\n        /* \"#utility.yul\":3617:3637   */\n      calldataload\n        /* \"#utility.yul\":3608:3637   */\n      swap1\n      pop\n        /* \"#utility.yul\":3646:3679   */\n      tag_262\n        /* \"#utility.yul\":3673:3678   */\n      dup2\n        /* \"#utility.yul\":3646:3679   */\n      tag_168\n      jump\t// in\n    tag_262:\n        /* \"#utility.yul\":3546:3685   */\n      swap3\n      swap2\n      pop\n      pop\n      jump\t// out\n        /* \"#utility.yul\":3691:3808   */\n    tag_170:\n        /* \"#utility.yul\":3800:3801   */\n      0x00\n        /* \"#utility.yul\":3797:3798   */\n      dup1\n        /* \"#utility.yul\":3790:3802   */\n      revert\n        /* \"#utility.yul\":3814:3931   */\n    tag_171:\n        /* \"#utility.yul\":3923:3924   */\n      0x00\n        /* \"#utility.yul\":3920:3921   */\n      dup1\n        /* \"#utility.yul\":3913:3925   */\n      revert\n        /* \"#utility.yul\":3937:4054   */\n    tag_172:\n        /* \"#utility.yul\":4046:4047   */\n      0x00\n        /* \"#utility.yul\":4043:4044   */\n      dup1\n        /* \"#utility.yul\":4036:4048   */\n      revert\n        /* \"#utility.yul\":4074:4627   */\n    tag_173:\n        /* \"#utility.yul\":4132:4140   */\n      0x00\n        /* \"#utility.yul\":4142:4148   */\n      dup1\n        /* \"#utility.yul\":4192:4195   */\n      dup4\n        /* \"#utility.yul\":4185:4189   */\n      0x1f\n        /* \"#utility.yul\":4177:4183   */\n      dup5\n        /* \"#utility.yul\":4173:4190   */\n      add\n        /* \"#utility.yul\":4169:4196   */\n      slt\n        /* \"#utility.yul\":4159:4281   */\n      tag_267\n      jumpi\n        /* \"#utility.yul\":4200:4279   */\n      tag_268\n      tag_170\n      jump\t// in\n    tag_268:\n        /* \"#utility.yul\":4159:4281   */\n    tag_267:\n        /* \"#utility.yul\":4313:4319   */\n      dup3\n        /* \"#utility.yul\":4300:4320   */\n      calldataload\n        /* \"#utility.yul\":4290:4320   */\n      swap1\n      pop\n        /* \"#utility.yul\":4343:4361   */\n      0xffffffffffffffff\n        /* \"#utility.yul\":4335:4341   */\n      dup2\n        /* \"#utility.yul\":4332:4362   */\n      gt\n        /* \"#utility.yul\":4329:4446   */\n      iszero\n      tag_269\n      jumpi\n        /* \"#utility.yul\":4365:4444   */\n      tag_270\n      tag_171\n      jump\t// in\n    tag_270:\n        /* \"#utility.yul\":4329:4446   */\n    tag_269:\n        /* \"#utility.yul\":4479:4483   */\n      0x20\n        /* \"#utility.yul\":4471:4477   */\n      dup4\n        /* \"#utility.yul\":4467:4484   */\n      add\n        /* \"#utility.yul\":4455:4484   */\n      swap2\n      pop\n        /* \"#utility.yul\":4533:4536   */\n      dup4\n        /* \"#utility.yul\":4525:4529   */\n      0x01\n        /* \"#utility.yul\":4517:4523   */\n      dup3\n        /* \"#utility.yul\":4513:4530   */\n      mul\n        /* \"#utility.yul\":4503:4511   */\n      dup4\n        /* \"#utility.yul\":4499:4531   */\n      add\n        /* \"#utility.yul\":4496:4537   */\n      gt\n        /* \"#utility.yul\":4493:4621   */\n      iszero\n      tag_271\n      jumpi\n        /* \"#utility.yul\":4540:4619   */\n      tag_272\n      tag_172\n      jump\t// in\n    tag_272:\n        /* \"#utility.yul\":4493:4621   */\n    tag_271:\n        /* \"#utility.yul\":4074:4627   */\n      swap3\n      pop\n      swap3\n      swap1\n      pop\n      jump\t// out\n        /* \"#utility.yul\":4646:5198   */\n    tag_174:\n        /* \"#utility.yul\":4703:4711   */\n      0x00\n        /* \"#utility.yul\":4713:4719   */\n      dup1\n        /* \"#utility.yul\":4763:4766   */\n      dup4\n        /* \"#utility.yul\":4756:4760   */\n      0x1f\n        /* \"#utility.yul\":4748:4754   */\n      dup5\n        /* \"#utility.yul\":4744:4761   */\n      add\n        /* \"#utility.yul\":4740:4767   */\n      slt\n        /* \"#utility.yul\":4730:4852   */\n      tag_274\n      jumpi\n        /* \"#utility.yul\":4771:4850   */\n      tag_275\n      tag_170\n      jump\t// in\n    tag_275:\n        /* \"#utility.yul\":4730:4852   */\n    tag_274:\n        /* \"#utility.yul\":4884:4890   */\n      dup3\n        /* \"#utility.yul\":4871:4891   */\n      calldataload\n        /* \"#utility.yul\":4861:4891   */\n      swap1\n      pop\n        /* \"#utility.yul\":4914:4932   */\n      0xffffffffffffffff\n        /* \"#utility.yul\":4906:4912   */\n      dup2\n        /* \"#utility.yul\":4903:4933   */\n      gt\n        /* \"#utility.yul\":4900:5017   */\n      iszero\n      tag_276\n      jumpi\n        /* \"#utility.yul\":4936:5015   */\n      tag_277\n      tag_171\n      jump\t// in\n    tag_277:\n        /* \"#utility.yul\":4900:5017   */\n    tag_276:\n        /* \"#utility.yul\":5050:5054   */\n      0x20\n        /* \"#utility.yul\":5042:5048   */\n      dup4\n        /* \"#utility.yul\":5038:5055   */\n      add\n        /* \"#utility.yul\":5026:5055   */\n      swap2\n      pop\n        /* \"#utility.yul\":5104:5107   */\n      dup4\n        /* \"#utility.yul\":5096:5100   */\n      0x01\n        /* \"#utility.yul\":5088:5094   */\n      dup3\n        /* \"#utility.yul\":5084:5101   */\n      mul\n        /* \"#utility.yul\":5074:5082   */\n      dup4\n        /* \"#utility.yul\":5070:5102   */\n      add\n        /* \"#utility.yul\":5067:5108   */\n      gt\n        /* \"#utility.yul\":5064:5192   */\n      iszero\n      tag_278\n      jumpi\n        /* \"#utility.yul\":5111:5190   */\n      tag_279\n      tag_172\n      jump\t// in\n    tag_279:\n        /* \"#utility.yul\":5064:5192   */\n    tag_278:\n        /* \"#utility.yul\":4646:5198   */\n      swap3\n      pop\n      swap3\n      swap1\n      pop\n      jump\t// out\n        /* \"#utility.yul\":5204:6713   */\n    tag_31:\n        /* \"#utility.yul\":5334:5340   */\n      0x00\n        /* \"#utility.yul\":5342:5348   */\n      dup1\n        /* \"#utility.yul\":5350:5356   */\n      0x00\n        /* \"#utility.yul\":5358:5364   */\n      dup1\n        /* \"#utility.yul\":5366:5372   */\n      0x00\n        /* \"#utility.yul\":5374:5380   */\n      dup1\n        /* \"#utility.yul\":5382:5388   */\n      0x00\n        /* \"#utility.yul\":5390:5396   */\n      dup1\n        /* \"#utility.yul\":5439:5442   */\n      0xa0\n        /* \"#utility.yul\":5427:5436   */\n      dup10\n        /* \"#utility.yul\":5418:5425   */\n      dup12\n        /* \"#utility.yul\":5414:5437   */\n      sub\n        /* \"#utility.yul\":5410:5443   */\n      slt\n        /* \"#utility.yul\":5407:5527   */\n      iszero\n      tag_281\n      jumpi\n        /* \"#utility.yul\":5446:5525   */\n      tag_282\n      tag_151\n      jump\t// in\n    tag_282:\n        /* \"#utility.yul\":5407:5527   */\n    tag_281:\n        /* \"#utility.yul\":5566:5567   */\n      0x00\n        /* \"#utility.yul\":5591:5644   */\n      tag_283\n        /* \"#utility.yul\":5636:5643   */\n      dup12\n        /* \"#utility.yul\":5627:5633   */\n      dup3\n        /* \"#utility.yul\":5616:5625   */\n      dup13\n        /* \"#utility.yul\":5612:5634   */\n      add\n        /* \"#utility.yul\":5591:5644   */\n      tag_167\n      jump\t// in\n    tag_283:\n        /* \"#utility.yul\":5581:5644   */\n      swap9\n      pop\n        /* \"#utility.yul\":5537:5654   */\n      pop\n        /* \"#utility.yul\":5693:5695   */\n      0x20\n        /* \"#utility.yul\":5719:5772   */\n      tag_284\n        /* \"#utility.yul\":5764:5771   */\n      dup12\n        /* \"#utility.yul\":5755:5761   */\n      dup3\n        /* \"#utility.yul\":5744:5753   */\n      dup13\n        /* \"#utility.yul\":5740:5762   */\n      add\n        /* \"#utility.yul\":5719:5772   */\n      tag_169\n      jump\t// in\n    tag_284:\n        /* \"#utility.yul\":5709:5772   */\n      swap8\n      pop\n        /* \"#utility.yul\":5664:5782   */\n      pop\n        /* \"#utility.yul\":5849:5851   */\n      0x40\n        /* \"#utility.yul\":5838:5847   */\n      dup10\n        /* \"#utility.yul\":5834:5852   */\n      add\n        /* \"#utility.yul\":5821:5853   */\n      calldataload\n        /* \"#utility.yul\":5880:5898   */\n      0xffffffffffffffff\n        /* \"#utility.yul\":5872:5878   */\n      dup2\n        /* \"#utility.yul\":5869:5899   */\n      gt\n        /* \"#utility.yul\":5866:5983   */\n      iszero\n      tag_285\n      jumpi\n        /* \"#utility.yul\":5902:5981   */\n      tag_286\n      tag_152\n      jump\t// in\n    tag_286:\n        /* \"#utility.yul\":5866:5983   */\n    tag_285:\n        /* \"#utility.yul\":6015:6080   */\n      tag_287\n        /* \"#utility.yul\":6072:6079   */\n      dup12\n        /* \"#utility.yul\":6063:6069   */\n      dup3\n        /* \"#utility.yul\":6052:6061   */\n      dup13\n        /* \"#utility.yul\":6048:6070   */\n      add\n        /* \"#utility.yul\":6015:6080   */\n      tag_173\n      jump\t// in\n    tag_287:\n        /* \"#utility.yul\":5997:6080   */\n      swap7\n      pop\n      swap7\n      pop\n        /* \"#utility.yul\":5792:6090   */\n      pop\n        /* \"#utility.yul\":6157:6159   */\n      0x60\n        /* \"#utility.yul\":6146:6155   */\n      dup10\n        /* \"#utility.yul\":6142:6160   */\n      add\n        /* \"#utility.yul\":6129:6161   */\n      calldataload\n        /* \"#utility.yul\":6188:6206   */\n      0xffffffffffffffff\n        /* \"#utility.yul\":6180:6186   */\n      dup2\n        /* \"#utility.yul\":6177:6207   */\n      gt\n        /* \"#utility.yul\":6174:6291   */\n      iszero\n      tag_288\n      jumpi\n        /* \"#utility.yul\":6210:6289   */\n      tag_289\n      tag_152\n      jump\t// in\n    tag_289:\n        /* \"#utility.yul\":6174:6291   */\n    tag_288:\n        /* \"#utility.yul\":6323:6387   */\n      tag_290\n        /* \"#utility.yul\":6379:6386   */\n      dup12\n        /* \"#utility.yul\":6370:6376   */\n      dup3\n        /* \"#utility.yul\":6359:6368   */\n      dup13\n        /* \"#utility.yul\":6355:6377   */\n      add\n        /* \"#utility.yul\":6323:6387   */\n      tag_174\n      jump\t// in\n    tag_290:\n        /* \"#utility.yul\":6305:6387   */\n      swap5\n      pop\n      swap5\n      pop\n        /* \"#utility.yul\":6100:6397   */\n      pop\n        /* \"#utility.yul\":6464:6467   */\n      0x80\n        /* \"#utility.yul\":6453:6462   */\n      dup10\n        /* \"#utility.yul\":6449:6468   */\n      add\n        /* \"#utility.yul\":6436:6469   */\n      calldataload\n        /* \"#utility.yul\":6496:6514   */\n      0xffffffffffffffff\n        /* \"#utility.yul\":6488:6494   */\n      dup2\n        /* \"#utility.yul\":6485:6515   */\n      gt\n        /* \"#utility.yul\":6482:6599   */\n      iszero\n      tag_291\n      jumpi\n        /* \"#utility.yul\":6518:6597   */\n      tag_292\n      tag_152\n      jump\t// in\n    tag_292:\n        /* \"#utility.yul\":6482:6599   */\n    tag_291:\n        /* \"#utility.yul\":6631:6696   */\n      tag_293\n        /* \"#utility.yul\":6688:6695   */\n      dup12\n        /* \"#utility.yul\":6679:6685   */\n      dup3\n        /* \"#utility.yul\":6668:6677   */\n      dup13\n        /* \"#utility.yul\":6664:6686   */\n      add\n        /* \"#utility.yul\":6631:6696   */\n      tag_173\n      jump\t// in\n    tag_293:\n        /* \"#utility.yul\":6613:6696   */\n      swap3\n      pop\n      swap3\n      pop\n        /* \"#utility.yul\":6407:6706   */\n      pop\n        /* \"#utility.yul\":5204:6713   */\n      swap3\n      swap6\n      swap9\n      pop\n      swap3\n      swap6\n      swap9\n      swap1\n      swap4\n      swap7\n      pop\n      jump\t// out\n        /* \"#utility.yul\":6719:6837   */\n    tag_175:\n        /* \"#utility.yul\":6806:6830   */\n      tag_295\n        /* \"#utility.yul\":6824:6829   */\n      dup2\n        /* \"#utility.yul\":6806:6830   */\n      tag_153\n      jump\t// in\n    tag_295:\n        /* \"#utility.yul\":6801:6804   */\n      dup3\n        /* \"#utility.yul\":6794:6831   */\n      mstore\n        /* \"#utility.yul\":6719:6837   */\n      pop\n      pop\n      jump\t// out\n        /* \"#utility.yul\":6843:7065   */\n    tag_34:\n        /* \"#utility.yul\":6936:6940   */\n      0x00\n        /* \"#utility.yul\":6974:6976   */\n      0x20\n        /* \"#utility.yul\":6963:6972   */\n      dup3\n        /* \"#utility.yul\":6959:6977   */\n      add\n        /* \"#utility.yul\":6951:6977   */\n      swap1\n      pop\n        /* \"#utility.yul\":6987:7058   */\n      tag_297\n        /* \"#utility.yul\":7055:7056   */\n      0x00\n        /* \"#utility.yul\":7044:7053   */\n      dup4\n        /* \"#utility.yul\":7040:7057   */\n      add\n        /* \"#utility.yul\":7031:7037   */\n      dup5\n        /* \"#utility.yul\":6987:7058   */\n      tag_175\n      jump\t// in\n    tag_297:\n        /* \"#utility.yul\":6843:7065   */\n      swap3\n      swap2\n      pop\n      pop\n      jump\t// out\n        /* \"#utility.yul\":7071:7293   */\n    tag_39:\n        /* \"#utility.yul\":7164:7168   */\n      0x00\n        /* \"#utility.yul\":7202:7204   */\n      0x20\n        /* \"#utility.yul\":7191:7200   */\n      dup3\n        /* \"#utility.yul\":7187:7205   */\n      add\n        /* \"#utility.yul\":7179:7205   */\n      swap1\n      pop\n        /* \"#utility.yul\":7215:7286   */\n      tag_299\n        /* \"#utility.yul\":7283:7284   */\n      0x00\n        /* \"#utility.yul\":7272:7281   */\n      dup4\n        /* \"#utility.yul\":7268:7285   */\n      add\n        /* \"#utility.yul\":7259:7265   */\n      dup5\n        /* \"#utility.yul\":7215:7286   */\n      tag_157\n      jump\t// in\n    tag_299:\n        /* \"#utility.yul\":7071:7293   */\n      swap3\n      swap2\n      pop\n      pop\n      jump\t// out\n        /* \"#utility.yul\":7299:8608   */\n    tag_43:\n        /* \"#utility.yul\":7417:7423   */\n      0x00\n        /* \"#utility.yul\":7425:7431   */\n      dup1\n        /* \"#utility.yul\":7433:7439   */\n      0x00\n        /* \"#utility.yul\":7441:7447   */\n      dup1\n        /* \"#utility.yul\":7449:7455   */\n      0x00\n        /* \"#utility.yul\":7457:7463   */\n      dup1\n        /* \"#utility.yul\":7465:7471   */\n      0x00\n        /* \"#utility.yul\":7514:7517   */\n      0xa0\n        /* \"#utility.yul\":7502:7511   */\n      dup9\n        /* \"#utility.yul\":7493:7500   */\n      dup11\n        /* \"#utility.yul\":7489:7512   */\n      sub\n        /* \"#utility.yul\":7485:7518   */\n      slt\n        /* \"#utility.yul\":7482:7602   */\n      iszero\n      tag_301\n      jumpi\n        /* \"#utility.yul\":7521:7600   */\n      tag_302\n      tag_151\n      jump\t// in\n    tag_302:\n        /* \"#utility.yul\":7482:7602   */\n    tag_301:\n        /* \"#utility.yul\":7641:7642   */\n      0x00\n        /* \"#utility.yul\":7666:7719   */\n      tag_303\n        /* \"#utility.yul\":7711:7718   */\n      dup11\n        /* \"#utility.yul\":7702:7708   */\n      dup3\n        /* \"#utility.yul\":7691:7700   */\n      dup12\n        /* \"#utility.yul\":7687:7709   */\n      add\n        /* \"#utility.yul\":7666:7719   */\n      tag_167\n      jump\t// in\n    tag_303:\n        /* \"#utility.yul\":7656:7719   */\n      swap8\n      pop\n        /* \"#utility.yul\":7612:7729   */\n      pop\n        /* \"#utility.yul\":7768:7770   */\n      0x20\n        /* \"#utility.yul\":7794:7847   */\n      tag_304\n        /* \"#utility.yul\":7839:7846   */\n      dup11\n        /* \"#utility.yul\":7830:7836   */\n      dup3\n        /* \"#utility.yul\":7819:7828   */\n      dup12\n        /* \"#utility.yul\":7815:7837   */\n      add\n        /* \"#utility.yul\":7794:7847   */\n      tag_169\n      jump\t// in\n    tag_304:\n        /* \"#utility.yul\":7784:7847   */\n      swap7\n      pop\n        /* \"#utility.yul\":7739:7857   */\n      pop\n        /* \"#utility.yul\":7924:7926   */\n      0x40\n        /* \"#utility.yul\":7913:7922   */\n      dup9\n        /* \"#utility.yul\":7909:7927   */\n      add\n        /* \"#utility.yul\":7896:7928   */\n      calldataload\n        /* \"#utility.yul\":7955:7973   */\n      0xffffffffffffffff\n        /* \"#utility.yul\":7947:7953   */\n      dup2\n        /* \"#utility.yul\":7944:7974   */\n      gt\n        /* \"#utility.yul\":7941:8058   */\n      iszero\n      tag_305\n      jumpi\n        /* \"#utility.yul\":7977:8056   */\n      tag_306\n      tag_152\n      jump\t// in\n    tag_306:\n        /* \"#utility.yul\":7941:8058   */\n    tag_305:\n        /* \"#utility.yul\":8090:8155   */\n      tag_307\n        /* \"#utility.yul\":8147:8154   */\n      dup11\n        /* \"#utility.yul\":8138:8144   */\n      dup3\n        /* \"#utility.yul\":8127:8136   */\n      dup12\n        /* \"#utility.yul\":8123:8145   */\n      add\n        /* \"#utility.yul\":8090:8155   */\n      tag_173\n      jump\t// in\n    tag_307:\n        /* \"#utility.yul\":8072:8155   */\n      swap6\n      pop\n      swap6\n      pop\n        /* \"#utility.yul\":7867:8165   */\n      pop\n        /* \"#utility.yul\":8232:8234   */\n      0x60\n        /* \"#utility.yul\":8221:8230   */\n      dup9\n        /* \"#utility.yul\":8217:8235   */\n      add\n        /* \"#utility.yul\":8204:8236   */\n      calldataload\n        /* \"#utility.yul\":8263:8281   */\n      0xffffffffffffffff\n        /* \"#utility.yul\":8255:8261   */\n      dup2\n        /* \"#utility.yul\":8252:8282   */\n      gt\n        /* \"#utility.yul\":8249:8366   */\n      iszero\n      tag_308\n      jumpi\n        /* \"#utility.yul\":8285:8364   */\n      tag_309\n      tag_152\n      jump\t// in\n    tag_309:\n        /* \"#utility.yul\":8249:8366   */\n    tag_308:\n        /* \"#utility.yul\":8398:8462   */\n      tag_310\n        /* \"#utility.yul\":8454:8461   */\n      dup11\n        /* \"#utility.yul\":8445:8451   */\n      dup3\n        /* \"#utility.yul\":8434:8443   */\n      dup12\n        /* \"#utility.yul\":8430:8452   */\n      add\n        /* \"#utility.yul\":8398:8462   */\n      tag_174\n      jump\t// in\n    tag_310:\n        /* \"#utility.yul\":8380:8462   */\n      swap4\n      pop\n      swap4\n      pop\n        /* \"#utility.yul\":8175:8472   */\n      pop\n        /* \"#utility.yul\":8511:8514   */\n      0x80\n        /* \"#utility.yul\":8538:8591   */\n      tag_311\n        /* \"#utility.yul\":8583:8590   */\n      dup11\n        /* \"#utility.yul\":8574:8580   */\n      dup3\n        /* \"#utility.yul\":8563:8572   */\n      dup12\n        /* \"#utility.yul\":8559:8581   */\n      add\n        /* \"#utility.yul\":8538:8591   */\n      tag_155\n      jump\t// in\n    tag_311:\n        /* \"#utility.yul\":8528:8591   */\n      swap2\n      pop\n        /* \"#utility.yul\":8482:8601   */\n      pop\n        /* \"#utility.yul\":7299:8608   */\n      swap3\n      swap6\n      swap9\n      swap2\n      swap5\n      swap8\n      pop\n      swap3\n      swap6\n      pop\n      jump\t// out\n        /* \"#utility.yul\":8614:8712   */\n    tag_176:\n        /* \"#utility.yul\":8665:8671   */\n      0x00\n        /* \"#utility.yul\":8699:8704   */\n      dup2\n        /* \"#utility.yul\":8693:8705   */\n      mload\n        /* \"#utility.yul\":8683:8705   */\n      swap1\n      pop\n        /* \"#utility.yul\":8614:8712   */\n      swap2\n      swap1\n      pop\n      jump\t// out\n        /* \"#utility.yul\":8718:8886   */\n    tag_177:\n        /* \"#utility.yul\":8801:8812   */\n      0x00\n        /* \"#utility.yul\":8835:8841   */\n      dup3\n        /* \"#utility.yul\":8830:8833   */\n      dup3\n        /* \"#utility.yul\":8823:8842   */\n      mstore\n        /* \"#utility.yul\":8875:8879   */\n      0x20\n        /* \"#utility.yul\":8870:8873   */\n      dup3\n        /* \"#utility.yul\":8866:8880   */\n      add\n        /* \"#utility.yul\":8851:8880   */\n      swap1\n      pop\n        /* \"#utility.yul\":8718:8886   */\n      swap3\n      swap2\n      pop\n      pop\n      jump\t// out\n        /* \"#utility.yul\":8892:9138   */\n    tag_178:\n        /* \"#utility.yul\":8973:8974   */\n      0x00\n        /* \"#utility.yul\":8983:9096   */\n    tag_315:\n        /* \"#utility.yul\":8997:9003   */\n      dup4\n        /* \"#utility.yul\":8994:8995   */\n      dup2\n        /* \"#utility.yul\":8991:9004   */\n      lt\n        /* \"#utility.yul\":8983:9096   */\n      iszero\n      tag_317\n      jumpi\n        /* \"#utility.yul\":9082:9083   */\n      dup1\n        /* \"#utility.yul\":9077:9080   */\n      dup3\n        /* \"#utility.yul\":9073:9084   */\n      add\n        /* \"#utility.yul\":9067:9085   */\n      mload\n        /* \"#utility.yul\":9063:9064   */\n      dup2\n        /* \"#utility.yul\":9058:9061   */\n      dup5\n        /* \"#utility.yul\":9054:9065   */\n      add\n        /* \"#utility.yul\":9047:9086   */\n      mstore\n        /* \"#utility.yul\":9019:9021   */\n      0x20\n        /* \"#utility.yul\":9016:9017   */\n      dup2\n        /* \"#utility.yul\":9012:9022   */\n      add\n        /* \"#utility.yul\":9007:9022   */\n      swap1\n      pop\n        /* \"#utility.yul\":8983:9096   */\n      jump(tag_315)\n    tag_317:\n        /* \"#utility.yul\":9130:9131   */\n      0x00\n        /* \"#utility.yul\":9121:9127   */\n      dup5\n        /* \"#utility.yul\":9116:9119   */\n      dup5\n        /* \"#utility.yul\":9112:9128   */\n      add\n        /* \"#utility.yul\":9105:9132   */\n      mstore\n        /* \"#utility.yul\":8954:9138   */\n      pop\n        /* \"#utility.yul\":8892:9138   */\n      pop\n      pop\n      pop\n      jump\t// out\n        /* \"#utility.yul\":9144:9246   */\n    tag_179:\n        /* \"#utility.yul\":9185:9191   */\n      0x00\n        /* \"#utility.yul\":9236:9238   */\n      0x1f\n        /* \"#utility.yul\":9232:9239   */\n      not\n        /* \"#utility.yul\":9227:9229   */\n      0x1f\n        /* \"#utility.yul\":9220:9225   */\n      dup4\n        /* \"#utility.yul\":9216:9230   */\n      add\n        /* \"#utility.yul\":9212:9240   */\n      and\n        /* \"#utility.yul\":9202:9240   */\n      swap1\n      pop\n        /* \"#utility.yul\":9144:9246   */\n      swap2\n      swap1\n      pop\n      jump\t// out\n        /* \"#utility.yul\":9252:9625   */\n    tag_180:\n        /* \"#utility.yul\":9338:9341   */\n      0x00\n        /* \"#utility.yul\":9366:9404   */\n      tag_320\n        /* \"#utility.yul\":9398:9403   */\n      dup3\n        /* \"#utility.yul\":9366:9404   */\n      tag_176\n      jump\t// in\n    tag_320:\n        /* \"#utility.yul\":9420:9490   */\n      tag_321\n        /* \"#utility.yul\":9483:9489   */\n      dup2\n        /* \"#utility.yul\":9478:9481   */\n      dup6\n        /* \"#utility.yul\":9420:9490   */\n      tag_177\n      jump\t// in\n    tag_321:\n        /* \"#utility.yul\":9413:9490   */\n      swap4\n      pop\n        /* \"#utility.yul\":9499:9564   */\n      tag_322\n        /* \"#utility.yul\":9557:9563   */\n      dup2\n        /* \"#utility.yul\":9552:9555   */\n      dup6\n        /* \"#utility.yul\":9545:9549   */\n      0x20\n        /* \"#utility.yul\":9538:9543   */\n      dup7\n        /* \"#utility.yul\":9534:9550   */\n      add\n        /* \"#utility.yul\":9499:9564   */\n      tag_178\n      jump\t// in\n    tag_322:\n        /* \"#utility.yul\":9589:9618   */\n      tag_323\n        /* \"#utility.yul\":9611:9617   */\n      dup2\n        /* \"#utility.yul\":9589:9618   */\n      tag_179\n      jump\t// in\n    tag_323:\n        /* \"#utility.yul\":9584:9587   */\n      dup5\n        /* \"#utility.yul\":9580:9619   */\n      add\n        /* \"#utility.yul\":9573:9619   */\n      swap2\n      pop\n        /* \"#utility.yul\":9342:9625   */\n      pop\n        /* \"#utility.yul\":9252:9625   */\n      swap3\n      swap2\n      pop\n      pop\n      jump\t// out\n        /* \"#utility.yul\":9631:9940   */\n    tag_46:\n        /* \"#utility.yul\":9742:9746   */\n      0x00\n        /* \"#utility.yul\":9780:9782   */\n      0x20\n        /* \"#utility.yul\":9769:9778   */\n      dup3\n        /* \"#utility.yul\":9765:9783   */\n      add\n        /* \"#utility.yul\":9757:9783   */\n      swap1\n      pop\n        /* \"#utility.yul\":9829:9838   */\n      dup2\n        /* \"#utility.yul\":9823:9827   */\n      dup2\n        /* \"#utility.yul\":9819:9839   */\n      sub\n        /* \"#utility.yul\":9815:9816   */\n      0x00\n        /* \"#utility.yul\":9804:9813   */\n      dup4\n        /* \"#utility.yul\":9800:9817   */\n      add\n        /* \"#utility.yul\":9793:9840   */\n      mstore\n        /* \"#utility.yul\":9857:9933   */\n      tag_325\n        /* \"#utility.yul\":9928:9932   */\n      dup2\n        /* \"#utility.yul\":9919:9925   */\n      dup5\n        /* \"#utility.yul\":9857:9933   */\n      tag_180\n      jump\t// in\n    tag_325:\n        /* \"#utility.yul\":9849:9933   */\n      swap1\n      pop\n        /* \"#utility.yul\":9631:9940   */\n      swap3\n      swap2\n      pop\n      pop\n      jump\t// out\n        /* \"#utility.yul\":9946:10032   */\n    tag_181:\n        /* \"#utility.yul\":9981:9988   */\n      0x00\n        /* \"#utility.yul\":10021:10025   */\n      0xff\n        /* \"#utility.yul\":10014:10019   */\n      dup3\n        /* \"#utility.yul\":10010:10026   */\n      and\n        /* \"#utility.yul\":9999:10026   */\n      swap1\n      pop\n        /* \"#utility.yul\":9946:10032   */\n      swap2\n      swap1\n      pop\n      jump\t// out\n        /* \"#utility.yul\":10038:10156   */\n    tag_182:\n        /* \"#utility.yul\":10109:10131   */\n      tag_328\n        /* \"#utility.yul\":10125:10130   */\n      dup2\n        /* \"#utility.yul\":10109:10131   */\n      tag_181\n      jump\t// in\n    tag_328:\n        /* \"#utility.yul\":10102:10107   */\n      dup2\n        /* \"#utility.yul\":10099:10132   */\n      eq\n        /* \"#utility.yul\":10089:10150   */\n      tag_329\n      jumpi\n        /* \"#utility.yul\":10146:10147   */\n      0x00\n        /* \"#utility.yul\":10143:10144   */\n      dup1\n        /* \"#utility.yul\":10136:10148   */\n      revert\n        /* \"#utility.yul\":10089:10150   */\n    tag_329:\n        /* \"#utility.yul\":10038:10156   */\n      pop\n      jump\t// out\n        /* \"#utility.yul\":10162:10297   */\n    tag_183:\n        /* \"#utility.yul\":10206:10211   */\n      0x00\n        /* \"#utility.yul\":10244:10250   */\n      dup2\n        /* \"#utility.yul\":10231:10251   */\n      calldataload\n        /* \"#utility.yul\":10222:10251   */\n      swap1\n      pop\n        /* \"#utility.yul\":10260:10291   */\n      tag_331\n        /* \"#utility.yul\":10285:10290   */\n      dup2\n        /* \"#utility.yul\":10260:10291   */\n      tag_182\n      jump\t// in\n    tag_331:\n        /* \"#utility.yul\":10162:10297   */\n      swap3\n      swap2\n      pop\n      pop\n      jump\t// out\n        /* \"#utility.yul\":10303:10773   */\n    tag_50:\n        /* \"#utility.yul\":10369:10375   */\n      0x00\n        /* \"#utility.yul\":10377:10383   */\n      dup1\n        /* \"#utility.yul\":10426:10428   */\n      0x40\n        /* \"#utility.yul\":10414:10423   */\n      dup4\n        /* \"#utility.yul\":10405:10412   */\n      dup6\n        /* \"#utility.yul\":10401:10424   */\n      sub\n        /* \"#utility.yul\":10397:10429   */\n      slt\n        /* \"#utility.yul\":10394:10513   */\n      iszero\n      tag_333\n      jumpi\n        /* \"#utility.yul\":10432:10511   */\n      tag_334\n      tag_151\n      jump\t// in\n    tag_334:\n        /* \"#utility.yul\":10394:10513   */\n    tag_333:\n        /* \"#utility.yul\":10552:10553   */\n      0x00\n        /* \"#utility.yul\":10577:10630   */\n      tag_335\n        /* \"#utility.yul\":10622:10629   */\n      dup6\n        /* \"#utility.yul\":10613:10619   */\n      dup3\n        /* \"#utility.yul\":10602:10611   */\n      dup7\n        /* \"#utility.yul\":10598:10620   */\n      add\n        /* \"#utility.yul\":10577:10630   */\n      tag_155\n      jump\t// in\n    tag_335:\n        /* \"#utility.yul\":10567:10630   */\n      swap3\n      pop\n        /* \"#utility.yul\":10523:10640   */\n      pop\n        /* \"#utility.yul\":10679:10681   */\n      0x20\n        /* \"#utility.yul\":10705:10756   */\n      tag_336\n        /* \"#utility.yul\":10748:10755   */\n      dup6\n        /* \"#utility.yul\":10739:10745   */\n      dup3\n        /* \"#utility.yul\":10728:10737   */\n      dup7\n        /* \"#utility.yul\":10724:10746   */\n      add\n        /* \"#utility.yul\":10705:10756   */\n      tag_183\n      jump\t// in\n    tag_336:\n        /* \"#utility.yul\":10695:10756   */\n      swap2\n      pop\n        /* \"#utility.yul\":10650:10766   */\n      pop\n        /* \"#utility.yul\":10303:10773   */\n      swap3\n      pop\n      swap3\n      swap1\n      pop\n      jump\t// out\n        /* \"#utility.yul\":10779:11221   */\n    tag_57:\n        /* \"#utility.yul\":10928:10932   */\n      0x00\n        /* \"#utility.yul\":10966:10968   */\n      0x60\n        /* \"#utility.yul\":10955:10964   */\n      dup3\n        /* \"#utility.yul\":10951:10969   */\n      add\n        /* \"#utility.yul\":10943:10969   */\n      swap1\n      pop\n        /* \"#utility.yul\":10979:11050   */\n      tag_338\n        /* \"#utility.yul\":11047:11048   */\n      0x00\n        /* \"#utility.yul\":11036:11045   */\n      dup4\n        /* \"#utility.yul\":11032:11049   */\n      add\n        /* \"#utility.yul\":11023:11029   */\n      dup7\n        /* \"#utility.yul\":10979:11050   */\n      tag_157\n      jump\t// in\n    tag_338:\n        /* \"#utility.yul\":11060:11132   */\n      tag_339\n        /* \"#utility.yul\":11128:11130   */\n      0x20\n        /* \"#utility.yul\":11117:11126   */\n      dup4\n        /* \"#utility.yul\":11113:11131   */\n      add\n        /* \"#utility.yul\":11104:11110   */\n      dup6\n        /* \"#utility.yul\":11060:11132   */\n      tag_157\n      jump\t// in\n    tag_339:\n        /* \"#utility.yul\":11142:11214   */\n      tag_340\n        /* \"#utility.yul\":11210:11212   */\n      0x40\n        /* \"#utility.yul\":11199:11208   */\n      dup4\n        /* \"#utility.yul\":11195:11213   */\n      add\n        /* \"#utility.yul\":11186:11192   */\n      dup5\n        /* \"#utility.yul\":11142:11214   */\n      tag_157\n      jump\t// in\n    tag_340:\n        /* \"#utility.yul\":10779:11221   */\n      swap5\n      swap4\n      pop\n      pop\n      pop\n      pop\n      jump\t// out\n        /* \"#utility.yul\":11227:11287   */\n    tag_184:\n        /* \"#utility.yul\":11255:11258   */\n      0x00\n        /* \"#utility.yul\":11276:11281   */\n      dup2\n        /* \"#utility.yul\":11269:11281   */\n      swap1\n      pop\n        /* \"#utility.yul\":11227:11287   */\n      swap2\n      swap1\n      pop\n      jump\t// out\n        /* \"#utility.yul\":11293:11435   */\n    tag_185:\n        /* \"#utility.yul\":11343:11352   */\n      0x00\n        /* \"#utility.yul\":11376:11429   */\n      tag_343\n        /* \"#utility.yul\":11394:11428   */\n      tag_344\n        /* \"#utility.yul\":11403:11427   */\n      tag_345\n        /* \"#utility.yul\":11421:11426   */\n      dup5\n        /* \"#utility.yul\":11403:11427   */\n      tag_164\n      jump\t// in\n    tag_345:\n        /* \"#utility.yul\":11394:11428   */\n      tag_184\n      jump\t// in\n    tag_344:\n        /* \"#utility.yul\":11376:11429   */\n      tag_164\n      jump\t// in\n    tag_343:\n        /* \"#utility.yul\":11363:11429   */\n      swap1\n      pop\n        /* \"#utility.yul\":11293:11435   */\n      swap2\n      swap1\n      pop\n      jump\t// out\n        /* \"#utility.yul\":11441:11567   */\n    tag_186:\n        /* \"#utility.yul\":11491:11500   */\n      0x00\n        /* \"#utility.yul\":11524:11561   */\n      tag_347\n        /* \"#utility.yul\":11555:11560   */\n      dup3\n        /* \"#utility.yul\":11524:11561   */\n      tag_185\n      jump\t// in\n    tag_347:\n        /* \"#utility.yul\":11511:11561   */\n      swap1\n      pop\n        /* \"#utility.yul\":11441:11567   */\n      swap2\n      swap1\n      pop\n      jump\t// out\n        /* \"#utility.yul\":11573:11713   */\n    tag_187:\n        /* \"#utility.yul\":11637:11646   */\n      0x00\n        /* \"#utility.yul\":11670:11707   */\n      tag_349\n        /* \"#utility.yul\":11701:11706   */\n      dup3\n        /* \"#utility.yul\":11670:11707   */\n      tag_186\n      jump\t// in\n    tag_349:\n        /* \"#utility.yul\":11657:11707   */\n      swap1\n      pop\n        /* \"#utility.yul\":11573:11713   */\n      swap2\n      swap1\n      pop\n      jump\t// out\n        /* \"#utility.yul\":11719:11878   */\n    tag_188:\n        /* \"#utility.yul\":11820:11871   */\n      tag_351\n        /* \"#utility.yul\":11865:11870   */\n      dup2\n        /* \"#utility.yul\":11820:11871   */\n      tag_187\n      jump\t// in\n    tag_351:\n        /* \"#utility.yul\":11815:11818   */\n      dup3\n        /* \"#utility.yul\":11808:11872   */\n      mstore\n        /* \"#utility.yul\":11719:11878   */\n      pop\n      pop\n      jump\t// out\n        /* \"#utility.yul\":11884:12134   */\n    tag_66:\n        /* \"#utility.yul\":11991:11995   */\n      0x00\n        /* \"#utility.yul\":12029:12031   */\n      0x20\n        /* \"#utility.yul\":12018:12027   */\n      dup3\n        /* \"#utility.yul\":12014:12032   */\n      add\n        /* \"#utility.yul\":12006:12032   */\n      swap1\n      pop\n        /* \"#utility.yul\":12042:12127   */\n      tag_353\n        /* \"#utility.yul\":12124:12125   */\n      0x00\n        /* \"#utility.yul\":12113:12122   */\n      dup4\n        /* \"#utility.yul\":12109:12126   */\n      add\n        /* \"#utility.yul\":12100:12106   */\n      dup5\n        /* \"#utility.yul\":12042:12127   */\n      tag_188\n      jump\t// in\n    tag_353:\n        /* \"#utility.yul\":11884:12134   */\n      swap3\n      swap2\n      pop\n      pop\n      jump\t// out\n        /* \"#utility.yul\":12140:12309   */\n    tag_189:\n        /* \"#utility.yul\":12224:12235   */\n      0x00\n        /* \"#utility.yul\":12258:12264   */\n      dup3\n        /* \"#utility.yul\":12253:12256   */\n      dup3\n        /* \"#utility.yul\":12246:12265   */\n      mstore\n        /* \"#utility.yul\":12298:12302   */\n      0x20\n        /* \"#utility.yul\":12293:12296   */\n      dup3\n        /* \"#utility.yul\":12289:12303   */\n      add\n        /* \"#utility.yul\":12274:12303   */\n      swap1\n      pop\n        /* \"#utility.yul\":12140:12309   */\n      swap3\n      swap2\n      pop\n      pop\n      jump\t// out\n        /* \"#utility.yul\":12315:12486   */\n    tag_190:\n        /* \"#utility.yul\":12455:12478   */\n      0x70726f706f73616c20646f65736e742065786973740000000000000000000000\n        /* \"#utility.yul\":12451:12452   */\n      0x00\n        /* \"#utility.yul\":12443:12449   */\n      dup3\n        /* \"#utility.yul\":12439:12453   */\n      add\n        /* \"#utility.yul\":12432:12479   */\n      mstore\n        /* \"#utility.yul\":12315:12486   */\n      pop\n      jump\t// out\n        /* \"#utility.yul\":12492:12858   */\n    tag_191:\n        /* \"#utility.yul\":12634:12637   */\n      0x00\n        /* \"#utility.yul\":12655:12722   */\n      tag_357\n        /* \"#utility.yul\":12719:12721   */\n      0x15\n        /* \"#utility.yul\":12714:12717   */\n      dup4\n        /* \"#utility.yul\":12655:12722   */\n      tag_189\n      jump\t// in\n    tag_357:\n        /* \"#utility.yul\":12648:12722   */\n      swap2\n      pop\n        /* \"#utility.yul\":12731:12824   */\n      tag_358\n        /* \"#utility.yul\":12820:12823   */\n      dup3\n        /* \"#utility.yul\":12731:12824   */\n      tag_190\n      jump\t// in\n    tag_358:\n        /* \"#utility.yul\":12849:12851   */\n      0x20\n        /* \"#utility.yul\":12844:12847   */\n      dup3\n        /* \"#utility.yul\":12840:12852   */\n      add\n        /* \"#utility.yul\":12833:12852   */\n      swap1\n      pop\n        /* \"#utility.yul\":12492:12858   */\n      swap2\n      swap1\n      pop\n      jump\t// out\n        /* \"#utility.yul\":12864:13283   */\n    tag_70:\n        /* \"#utility.yul\":13030:13034   */\n      0x00\n        /* \"#utility.yul\":13068:13070   */\n      0x20\n        /* \"#utility.yul\":13057:13066   */\n      dup3\n        /* \"#utility.yul\":13053:13071   */\n      add\n        /* \"#utility.yul\":13045:13071   */\n      swap1\n      pop\n        /* \"#utility.yul\":13117:13126   */\n      dup2\n        /* \"#utility.yul\":13111:13115   */\n      dup2\n        /* \"#utility.yul\":13107:13127   */\n      sub\n        /* \"#utility.yul\":13103:13104   */\n      0x00\n        /* \"#utility.yul\":13092:13101   */\n      dup4\n        /* \"#utility.yul\":13088:13105   */\n      add\n        /* \"#utility.yul\":13081:13128   */\n      mstore\n        /* \"#utility.yul\":13145:13276   */\n      tag_360\n        /* \"#utility.yul\":13271:13275   */\n      dup2\n        /* \"#utility.yul\":13145:13276   */\n      tag_191\n      jump\t// in\n    tag_360:\n        /* \"#utility.yul\":13137:13276   */\n      swap1\n      pop\n        /* \"#utility.yul\":12864:13283   */\n      swap2\n      swap1\n      pop\n      jump\t// out\n        /* \"#utility.yul\":13289:13407   */\n    tag_192:\n        /* \"#utility.yul\":13376:13400   */\n      tag_362\n        /* \"#utility.yul\":13394:13399   */\n      dup2\n        /* \"#utility.yul\":13376:13400   */\n      tag_165\n      jump\t// in\n    tag_362:\n        /* \"#utility.yul\":13371:13374   */\n      dup3\n        /* \"#utility.yul\":13364:13401   */\n      mstore\n        /* \"#utility.yul\":13289:13407   */\n      pop\n      pop\n      jump\t// out\n        /* \"#utility.yul\":13413:13635   */\n    tag_79:\n        /* \"#utility.yul\":13506:13510   */\n      0x00\n        /* \"#utility.yul\":13544:13546   */\n      0x20\n        /* \"#utility.yul\":13533:13542   */\n      dup3\n        /* \"#utility.yul\":13529:13547   */\n      add\n        /* \"#utility.yul\":13521:13547   */\n      swap1\n      pop\n        /* \"#utility.yul\":13557:13628   */\n      tag_364\n        /* \"#utility.yul\":13625:13626   */\n      0x00\n        /* \"#utility.yul\":13614:13623   */\n      dup4\n        /* \"#utility.yul\":13610:13627   */\n      add\n        /* \"#utility.yul\":13601:13607   */\n      dup5\n        /* \"#utility.yul\":13557:13628   */\n      tag_192\n      jump\t// in\n    tag_364:\n        /* \"#utility.yul\":13413:13635   */\n      swap3\n      swap2\n      pop\n      pop\n      jump\t// out\n        /* \"#utility.yul\":13641:13784   */\n    tag_193:\n        /* \"#utility.yul\":13698:13703   */\n      0x00\n        /* \"#utility.yul\":13729:13735   */\n      dup2\n        /* \"#utility.yul\":13723:13736   */\n      mload\n        /* \"#utility.yul\":13714:13736   */\n      swap1\n      pop\n        /* \"#utility.yul\":13745:13778   */\n      tag_366\n        /* \"#utility.yul\":13772:13777   */\n      dup2\n        /* \"#utility.yul\":13745:13778   */\n      tag_168\n      jump\t// in\n    tag_366:\n        /* \"#utility.yul\":13641:13784   */\n      swap3\n      swap2\n      pop\n      pop\n      jump\t// out\n        /* \"#utility.yul\":13790:14141   */\n    tag_83:\n        /* \"#utility.yul\":13860:13866   */\n      0x00\n        /* \"#utility.yul\":13909:13911   */\n      0x20\n        /* \"#utility.yul\":13897:13906   */\n      dup3\n        /* \"#utility.yul\":13888:13895   */\n      dup5\n        /* \"#utility.yul\":13884:13907   */\n      sub\n        /* \"#utility.yul\":13880:13912   */\n      slt\n        /* \"#utility.yul\":13877:13996   */\n      iszero\n      tag_368\n      jumpi\n        /* \"#utility.yul\":13915:13994   */\n      tag_369\n      tag_151\n      jump\t// in\n    tag_369:\n        /* \"#utility.yul\":13877:13996   */\n    tag_368:\n        /* \"#utility.yul\":14035:14036   */\n      0x00\n        /* \"#utility.yul\":14060:14124   */\n      tag_370\n        /* \"#utility.yul\":14116:14123   */\n      dup5\n        /* \"#utility.yul\":14107:14113   */\n      dup3\n        /* \"#utility.yul\":14096:14105   */\n      dup6\n        /* \"#utility.yul\":14092:14114   */\n      add\n        /* \"#utility.yul\":14060:14124   */\n      tag_193\n      jump\t// in\n    tag_370:\n        /* \"#utility.yul\":14050:14124   */\n      swap2\n      pop\n        /* \"#utility.yul\":14006:14134   */\n      pop\n        /* \"#utility.yul\":13790:14141   */\n      swap3\n      swap2\n      pop\n      pop\n      jump\t// out\n        /* \"#utility.yul\":14147:14314   */\n    tag_194:\n        /* \"#utility.yul\":14287:14306   */\n      0x6e6f7420656e6f75676820746f6b656e73000000000000000000000000000000\n        /* \"#utility.yul\":14283:14284   */\n      0x00\n        /* \"#utility.yul\":14275:14281   */\n      dup3\n        /* \"#utility.yul\":14271:14285   */\n      add\n        /* \"#utility.yul\":14264:14307   */\n      mstore\n        /* \"#utility.yul\":14147:14314   */\n      pop\n      jump\t// out\n        /* \"#utility.yul\":14320:14686   */\n    tag_195:\n        /* \"#utility.yul\":14462:14465   */\n      0x00\n        /* \"#utility.yul\":14483:14550   */\n      tag_373\n        /* \"#utility.yul\":14547:14549   */\n      0x11\n        /* \"#utility.yul\":14542:14545   */\n      dup4\n        /* \"#utility.yul\":14483:14550   */\n      tag_189\n      jump\t// in\n    tag_373:\n        /* \"#utility.yul\":14476:14550   */\n      swap2\n      pop\n        /* \"#utility.yul\":14559:14652   */\n      tag_374\n        /* \"#utility.yul\":14648:14651   */\n      dup3\n        /* \"#utility.yul\":14559:14652   */\n      tag_194\n      jump\t// in\n    tag_374:\n        /* \"#utility.yul\":14677:14679   */\n      0x20\n        /* \"#utility.yul\":14672:14675   */\n      dup3\n        /* \"#utility.yul\":14668:14680   */\n      add\n        /* \"#utility.yul\":14661:14680   */\n      swap1\n      pop\n        /* \"#utility.yul\":14320:14686   */\n      swap2\n      swap1\n      pop\n      jump\t// out\n        /* \"#utility.yul\":14692:15111   */\n    tag_86:\n        /* \"#utility.yul\":14858:14862   */\n      0x00\n        /* \"#utility.yul\":14896:14898   */\n      0x20\n        /* \"#utility.yul\":14885:14894   */\n      dup3\n        /* \"#utility.yul\":14881:14899   */\n      add\n        /* \"#utility.yul\":14873:14899   */\n      swap1\n      pop\n        /* \"#utility.yul\":14945:14954   */\n      dup2\n        /* \"#utility.yul\":14939:14943   */\n      dup2\n        /* \"#utility.yul\":14935:14955   */\n      sub\n        /* \"#utility.yul\":14931:14932   */\n      0x00\n        /* \"#utility.yul\":14920:14929   */\n      dup4\n        /* \"#utility.yul\":14916:14933   */\n      add\n        /* \"#utility.yul\":14909:14956   */\n      mstore\n        /* \"#utility.yul\":14973:15104   */\n      tag_376\n        /* \"#utility.yul\":15099:15103   */\n      dup2\n        /* \"#utility.yul\":14973:15104   */\n      tag_195\n      jump\t// in\n    tag_376:\n        /* \"#utility.yul\":14965:15104   */\n      swap1\n      pop\n        /* \"#utility.yul\":14692:15111   */\n      swap2\n      swap1\n      pop\n      jump\t// out\n        /* \"#utility.yul\":15117:15264   */\n    tag_196:\n        /* \"#utility.yul\":15218:15229   */\n      0x00\n        /* \"#utility.yul\":15255:15258   */\n      dup2\n        /* \"#utility.yul\":15240:15258   */\n      swap1\n      pop\n        /* \"#utility.yul\":15117:15264   */\n      swap3\n      swap2\n      pop\n      pop\n      jump\t// out\n        /* \"#utility.yul\":15270:15416   */\n    tag_197:\n        /* \"#utility.yul\":15367:15373   */\n      dup3\n        /* \"#utility.yul\":15362:15365   */\n      dup2\n        /* \"#utility.yul\":15357:15360   */\n      dup4\n        /* \"#utility.yul\":15344:15374   */\n      calldatacopy\n        /* \"#utility.yul\":15408:15409   */\n      0x00\n        /* \"#utility.yul\":15399:15405   */\n      dup4\n        /* \"#utility.yul\":15394:15397   */\n      dup4\n        /* \"#utility.yul\":15390:15406   */\n      add\n        /* \"#utility.yul\":15383:15410   */\n      mstore\n        /* \"#utility.yul\":15270:15416   */\n      pop\n      pop\n      pop\n      jump\t// out\n        /* \"#utility.yul\":15444:15771   */\n    tag_198:\n        /* \"#utility.yul\":15558:15561   */\n      0x00\n        /* \"#utility.yul\":15579:15667   */\n      tag_380\n        /* \"#utility.yul\":15660:15666   */\n      dup4\n        /* \"#utility.yul\":15655:15658   */\n      dup6\n        /* \"#utility.yul\":15579:15667   */\n      tag_196\n      jump\t// in\n    tag_380:\n        /* \"#utility.yul\":15572:15667   */\n      swap4\n      pop\n        /* \"#utility.yul\":15677:15733   */\n      tag_381\n        /* \"#utility.yul\":15726:15732   */\n      dup4\n        /* \"#utility.yul\":15721:15724   */\n      dup6\n        /* \"#utility.yul\":15714:15719   */\n      dup5\n        /* \"#utility.yul\":15677:15733   */\n      tag_197\n      jump\t// in\n    tag_381:\n        /* \"#utility.yul\":15758:15764   */\n      dup3\n        /* \"#utility.yul\":15753:15756   */\n      dup5\n        /* \"#utility.yul\":15749:15765   */\n      add\n        /* \"#utility.yul\":15742:15765   */\n      swap1\n      pop\n        /* \"#utility.yul\":15444:15771   */\n      swap4\n      swap3\n      pop\n      pop\n      pop\n      jump\t// out\n        /* \"#utility.yul\":15777:16068   */\n    tag_89:\n        /* \"#utility.yul\":15917:15920   */\n      0x00\n        /* \"#utility.yul\":15939:16042   */\n      tag_383\n        /* \"#utility.yul\":16038:16041   */\n      dup3\n        /* \"#utility.yul\":16029:16035   */\n      dup5\n        /* \"#utility.yul\":16021:16027   */\n      dup7\n        /* \"#utility.yul\":15939:16042   */\n      tag_198\n      jump\t// in\n    tag_383:\n        /* \"#utility.yul\":15932:16042   */\n      swap2\n      pop\n        /* \"#utility.yul\":16059:16062   */\n      dup2\n        /* \"#utility.yul\":16052:16062   */\n      swap1\n      pop\n        /* \"#utility.yul\":15777:16068   */\n      swap4\n      swap3\n      pop\n      pop\n      pop\n      jump\t// out\n        /* \"#utility.yul\":16074:16247   */\n    tag_199:\n        /* \"#utility.yul\":16214:16239   */\n      0x70726f706f73616c20616c726561647920657869737473000000000000000000\n        /* \"#utility.yul\":16210:16211   */\n      0x00\n        /* \"#utility.yul\":16202:16208   */\n      dup3\n        /* \"#utility.yul\":16198:16212   */\n      add\n        /* \"#utility.yul\":16191:16240   */\n      mstore\n        /* \"#utility.yul\":16074:16247   */\n      pop\n      jump\t// out\n        /* \"#utility.yul\":16253:16619   */\n    tag_200:\n        /* \"#utility.yul\":16395:16398   */\n      0x00\n        /* \"#utility.yul\":16416:16483   */\n      tag_386\n        /* \"#utility.yul\":16480:16482   */\n      0x17\n        /* \"#utility.yul\":16475:16478   */\n      dup4\n        /* \"#utility.yul\":16416:16483   */\n      tag_189\n      jump\t// in\n    tag_386:\n        /* \"#utility.yul\":16409:16483   */\n      swap2\n      pop\n        /* \"#utility.yul\":16492:16585   */\n      tag_387\n        /* \"#utility.yul\":16581:16584   */\n      dup3\n        /* \"#utility.yul\":16492:16585   */\n      tag_199\n      jump\t// in\n    tag_387:\n        /* \"#utility.yul\":16610:16612   */\n      0x20\n        /* \"#utility.yul\":16605:16608   */\n      dup3\n        /* \"#utility.yul\":16601:16613   */\n      add\n        /* \"#utility.yul\":16594:16613   */\n      swap1\n      pop\n        /* \"#utility.yul\":16253:16619   */\n      swap2\n      swap1\n      pop\n      jump\t// out\n        /* \"#utility.yul\":16625:17044   */\n    tag_93:\n        /* \"#utility.yul\":16791:16795   */\n      0x00\n        /* \"#utility.yul\":16829:16831   */\n      0x20\n        /* \"#utility.yul\":16818:16827   */\n      dup3\n        /* \"#utility.yul\":16814:16832   */\n      add\n        /* \"#utility.yul\":16806:16832   */\n      swap1\n      pop\n        /* \"#utility.yul\":16878:16887   */\n      dup2\n        /* \"#utility.yul\":16872:16876   */\n      dup2\n        /* \"#utility.yul\":16868:16888   */\n      sub\n        /* \"#utility.yul\":16864:16865   */\n      0x00\n        /* \"#utility.yul\":16853:16862   */\n      dup4\n        /* \"#utility.yul\":16849:16866   */\n      add\n        /* \"#utility.yul\":16842:16889   */\n      mstore\n        /* \"#utility.yul\":16906:17037   */\n      tag_389\n        /* \"#utility.yul\":17032:17036   */\n      dup2\n        /* \"#utility.yul\":16906:17037   */\n      tag_200\n      jump\t// in\n    tag_389:\n        /* \"#utility.yul\":16898:17037   */\n      swap1\n      pop\n        /* \"#utility.yul\":16625:17044   */\n      swap2\n      swap1\n      pop\n      jump\t// out\n        /* \"#utility.yul\":17050:17230   */\n    tag_201:\n        /* \"#utility.yul\":17098:17175   */\n      0x4e487b7100000000000000000000000000000000000000000000000000000000\n        /* \"#utility.yul\":17095:17096   */\n      0x00\n        /* \"#utility.yul\":17088:17176   */\n      mstore\n        /* \"#utility.yul\":17195:17199   */\n      0x11\n        /* \"#utility.yul\":17192:17193   */\n      0x04\n        /* \"#utility.yul\":17185:17200   */\n      mstore\n        /* \"#utility.yul\":17219:17223   */\n      0x24\n        /* \"#utility.yul\":17216:17217   */\n      0x00\n        /* \"#utility.yul\":17209:17224   */\n      revert\n        /* \"#utility.yul\":17236:17427   */\n    tag_95:\n        /* \"#utility.yul\":17276:17279   */\n      0x00\n        /* \"#utility.yul\":17295:17315   */\n      tag_392\n        /* \"#utility.yul\":17313:17314   */\n      dup3\n        /* \"#utility.yul\":17295:17315   */\n      tag_156\n      jump\t// in\n    tag_392:\n        /* \"#utility.yul\":17290:17315   */\n      swap2\n      pop\n        /* \"#utility.yul\":17329:17349   */\n      tag_393\n        /* \"#utility.yul\":17347:17348   */\n      dup4\n        /* \"#utility.yul\":17329:17349   */\n      tag_156\n      jump\t// in\n    tag_393:\n        /* \"#utility.yul\":17324:17349   */\n      swap3\n      pop\n        /* \"#utility.yul\":17372:17373   */\n      dup3\n        /* \"#utility.yul\":17369:17370   */\n      dup3\n        /* \"#utility.yul\":17365:17374   */\n      add\n        /* \"#utility.yul\":17358:17374   */\n      swap1\n      pop\n        /* \"#utility.yul\":17393:17396   */\n      dup1\n        /* \"#utility.yul\":17390:17391   */\n      dup3\n        /* \"#utility.yul\":17387:17397   */\n      gt\n        /* \"#utility.yul\":17384:17420   */\n      iszero\n      tag_394\n      jumpi\n        /* \"#utility.yul\":17400:17418   */\n      tag_395\n      tag_201\n      jump\t// in\n    tag_395:\n        /* \"#utility.yul\":17384:17420   */\n    tag_394:\n        /* \"#utility.yul\":17236:17427   */\n      swap3\n      swap2\n      pop\n      pop\n      jump\t// out\n        /* \"#utility.yul\":17433:17596   */\n    tag_202:\n        /* \"#utility.yul\":17573:17588   */\n      0x696e76616c696420737461746500000000000000000000000000000000000000\n        /* \"#utility.yul\":17569:17570   */\n      0x00\n        /* \"#utility.yul\":17561:17567   */\n      dup3\n        /* \"#utility.yul\":17557:17571   */\n      add\n        /* \"#utility.yul\":17550:17589   */\n      mstore\n        /* \"#utility.yul\":17433:17596   */\n      pop\n      jump\t// out\n        /* \"#utility.yul\":17602:17968   */\n    tag_203:\n        /* \"#utility.yul\":17744:17747   */\n      0x00\n        /* \"#utility.yul\":17765:17832   */\n      tag_398\n        /* \"#utility.yul\":17829:17831   */\n      0x0d\n        /* \"#utility.yul\":17824:17827   */\n      dup4\n        /* \"#utility.yul\":17765:17832   */\n      tag_189\n      jump\t// in\n    tag_398:\n        /* \"#utility.yul\":17758:17832   */\n      swap2\n      pop\n        /* \"#utility.yul\":17841:17934   */\n      tag_399\n        /* \"#utility.yul\":17930:17933   */\n      dup3\n        /* \"#utility.yul\":17841:17934   */\n      tag_202\n      jump\t// in\n    tag_399:\n        /* \"#utility.yul\":17959:17961   */\n      0x20\n        /* \"#utility.yul\":17954:17957   */\n      dup3\n        /* \"#utility.yul\":17950:17962   */\n      add\n        /* \"#utility.yul\":17943:17962   */\n      swap1\n      pop\n        /* \"#utility.yul\":17602:17968   */\n      swap2\n      swap1\n      pop\n      jump\t// out\n        /* \"#utility.yul\":17974:18393   */\n    tag_109:\n        /* \"#utility.yul\":18140:18144   */\n      0x00\n        /* \"#utility.yul\":18178:18180   */\n      0x20\n        /* \"#utility.yul\":18167:18176   */\n      dup3\n        /* \"#utility.yul\":18163:18181   */\n      add\n        /* \"#utility.yul\":18155:18181   */\n      swap1\n      pop\n        /* \"#utility.yul\":18227:18236   */\n      dup2\n        /* \"#utility.yul\":18221:18225   */\n      dup2\n        /* \"#utility.yul\":18217:18237   */\n      sub\n        /* \"#utility.yul\":18213:18214   */\n      0x00\n        /* \"#utility.yul\":18202:18211   */\n      dup4\n        /* \"#utility.yul\":18198:18215   */\n      add\n        /* \"#utility.yul\":18191:18238   */\n      mstore\n        /* \"#utility.yul\":18255:18386   */\n      tag_401\n        /* \"#utility.yul\":18381:18385   */\n      dup2\n        /* \"#utility.yul\":18255:18386   */\n      tag_203\n      jump\t// in\n    tag_401:\n        /* \"#utility.yul\":18247:18386   */\n      swap1\n      pop\n        /* \"#utility.yul\":17974:18393   */\n      swap2\n      swap1\n      pop\n      jump\t// out\n        /* \"#utility.yul\":18399:18548   */\n    tag_204:\n        /* \"#utility.yul\":18435:18442   */\n      0x00\n        /* \"#utility.yul\":18475:18541   */\n      0xffffffff00000000000000000000000000000000000000000000000000000000\n        /* \"#utility.yul\":18468:18473   */\n      dup3\n        /* \"#utility.yul\":18464:18542   */\n      and\n        /* \"#utility.yul\":18453:18542   */\n      swap1\n      pop\n        /* \"#utility.yul\":18399:18548   */\n      swap2\n      swap1\n      pop\n      jump\t// out\n        /* \"#utility.yul\":18554:18632   */\n    tag_205:\n        /* \"#utility.yul\":18592:18599   */\n      0x00\n        /* \"#utility.yul\":18621:18626   */\n      dup2\n        /* \"#utility.yul\":18610:18626   */\n      swap1\n      pop\n        /* \"#utility.yul\":18554:18632   */\n      swap2\n      swap1\n      pop\n      jump\t// out\n        /* \"#utility.yul\":18638:18791   */\n    tag_206:\n        /* \"#utility.yul\":18741:18784   */\n      tag_405\n        /* \"#utility.yul\":18760:18783   */\n      tag_406\n        /* \"#utility.yul\":18777:18782   */\n      dup3\n        /* \"#utility.yul\":18760:18783   */\n      tag_204\n      jump\t// in\n    tag_406:\n        /* \"#utility.yul\":18741:18784   */\n      tag_205\n      jump\t// in\n    tag_405:\n        /* \"#utility.yul\":18736:18739   */\n      dup3\n        /* \"#utility.yul\":18729:18785   */\n      mstore\n        /* \"#utility.yul\":18638:18791   */\n      pop\n      pop\n      jump\t// out\n        /* \"#utility.yul\":18797:19224   */\n    tag_113:\n        /* \"#utility.yul\":18963:18966   */\n      0x00\n        /* \"#utility.yul\":18978:19051   */\n      tag_408\n        /* \"#utility.yul\":19047:19050   */\n      dup3\n        /* \"#utility.yul\":19038:19044   */\n      dup7\n        /* \"#utility.yul\":18978:19051   */\n      tag_206\n      jump\t// in\n    tag_408:\n        /* \"#utility.yul\":19076:19077   */\n      0x04\n        /* \"#utility.yul\":19071:19074   */\n      dup3\n        /* \"#utility.yul\":19067:19078   */\n      add\n        /* \"#utility.yul\":19060:19078   */\n      swap2\n      pop\n        /* \"#utility.yul\":19095:19198   */\n      tag_409\n        /* \"#utility.yul\":19194:19197   */\n      dup3\n        /* \"#utility.yul\":19185:19191   */\n      dup5\n        /* \"#utility.yul\":19177:19183   */\n      dup7\n        /* \"#utility.yul\":19095:19198   */\n      tag_198\n      jump\t// in\n    tag_409:\n        /* \"#utility.yul\":19088:19198   */\n      swap2\n      pop\n        /* \"#utility.yul\":19215:19218   */\n      dup2\n        /* \"#utility.yul\":19208:19218   */\n      swap1\n      pop\n        /* \"#utility.yul\":18797:19224   */\n      swap5\n      swap4\n      pop\n      pop\n      pop\n      pop\n      jump\t// out\n        /* \"#utility.yul\":19230:19616   */\n    tag_207:\n        /* \"#utility.yul\":19334:19337   */\n      0x00\n        /* \"#utility.yul\":19362:19400   */\n      tag_411\n        /* \"#utility.yul\":19394:19399   */\n      dup3\n        /* \"#utility.yul\":19362:19400   */\n      tag_176\n      jump\t// in\n    tag_411:\n        /* \"#utility.yul\":19416:19504   */\n      tag_412\n        /* \"#utility.yul\":19497:19503   */\n      dup2\n        /* \"#utility.yul\":19492:19495   */\n      dup6\n        /* \"#utility.yul\":19416:19504   */\n      tag_196\n      jump\t// in\n    tag_412:\n        /* \"#utility.yul\":19409:19504   */\n      swap4\n      pop\n        /* \"#utility.yul\":19513:19578   */\n      tag_413\n        /* \"#utility.yul\":19571:19577   */\n      dup2\n        /* \"#utility.yul\":19566:19569   */\n      dup6\n        /* \"#utility.yul\":19559:19563   */\n      0x20\n        /* \"#utility.yul\":19552:19557   */\n      dup7\n        /* \"#utility.yul\":19548:19564   */\n      add\n        /* \"#utility.yul\":19513:19578   */\n      tag_178\n      jump\t// in\n    tag_413:\n        /* \"#utility.yul\":19603:19609   */\n      dup1\n        /* \"#utility.yul\":19598:19601   */\n      dup5\n        /* \"#utility.yul\":19594:19610   */\n      add\n        /* \"#utility.yul\":19587:19610   */\n      swap2\n      pop\n        /* \"#utility.yul\":19338:19616   */\n      pop\n        /* \"#utility.yul\":19230:19616   */\n      swap3\n      swap2\n      pop\n      pop\n      jump\t// out\n        /* \"#utility.yul\":19622:19893   */\n    tag_116:\n        /* \"#utility.yul\":19752:19755   */\n      0x00\n        /* \"#utility.yul\":19774:19867   */\n      tag_415\n        /* \"#utility.yul\":19863:19866   */\n      dup3\n        /* \"#utility.yul\":19854:19860   */\n      dup5\n        /* \"#utility.yul\":19774:19867   */\n      tag_207\n      jump\t// in\n    tag_415:\n        /* \"#utility.yul\":19767:19867   */\n      swap2\n      pop\n        /* \"#utility.yul\":19884:19887   */\n      dup2\n        /* \"#utility.yul\":19877:19887   */\n      swap1\n      pop\n        /* \"#utility.yul\":19622:19893   */\n      swap3\n      swap2\n      pop\n      pop\n      jump\t// out\n        /* \"#utility.yul\":19899:20058   */\n    tag_208:\n        /* \"#utility.yul\":20039:20050   */\n      0x7478206661696c65640000000000000000000000000000000000000000000000\n        /* \"#utility.yul\":20035:20036   */\n      0x00\n        /* \"#utility.yul\":20027:20033   */\n      dup3\n        /* \"#utility.yul\":20023:20037   */\n      add\n        /* \"#utility.yul\":20016:20051   */\n      mstore\n        /* \"#utility.yul\":19899:20058   */\n      pop\n      jump\t// out\n        /* \"#utility.yul\":20064:20429   */\n    tag_209:\n        /* \"#utility.yul\":20206:20209   */\n      0x00\n        /* \"#utility.yul\":20227:20293   */\n      tag_418\n        /* \"#utility.yul\":20291:20292   */\n      0x09\n        /* \"#utility.yul\":20286:20289   */\n      dup4\n        /* \"#utility.yul\":20227:20293   */\n      tag_189\n      jump\t// in\n    tag_418:\n        /* \"#utility.yul\":20220:20293   */\n      swap2\n      pop\n        /* \"#utility.yul\":20302:20395   */\n      tag_419\n        /* \"#utility.yul\":20391:20394   */\n      dup3\n        /* \"#utility.yul\":20302:20395   */\n      tag_208\n      jump\t// in\n    tag_419:\n        /* \"#utility.yul\":20420:20422   */\n      0x20\n        /* \"#utility.yul\":20415:20418   */\n      dup3\n        /* \"#utility.yul\":20411:20423   */\n      add\n        /* \"#utility.yul\":20404:20423   */\n      swap1\n      pop\n        /* \"#utility.yul\":20064:20429   */\n      swap2\n      swap1\n      pop\n      jump\t// out\n        /* \"#utility.yul\":20435:20854   */\n    tag_122:\n        /* \"#utility.yul\":20601:20605   */\n      0x00\n        /* \"#utility.yul\":20639:20641   */\n      0x20\n        /* \"#utility.yul\":20628:20637   */\n      dup3\n        /* \"#utility.yul\":20624:20642   */\n      add\n        /* \"#utility.yul\":20616:20642   */\n      swap1\n      pop\n        /* \"#utility.yul\":20688:20697   */\n      dup2\n        /* \"#utility.yul\":20682:20686   */\n      dup2\n        /* \"#utility.yul\":20678:20698   */\n      sub\n        /* \"#utility.yul\":20674:20675   */\n      0x00\n        /* \"#utility.yul\":20663:20672   */\n      dup4\n        /* \"#utility.yul\":20659:20676   */\n      add\n        /* \"#utility.yul\":20652:20699   */\n      mstore\n        /* \"#utility.yul\":20716:20847   */\n      tag_421\n        /* \"#utility.yul\":20842:20846   */\n      dup2\n        /* \"#utility.yul\":20716:20847   */\n      tag_209\n      jump\t// in\n    tag_421:\n        /* \"#utility.yul\":20708:20847   */\n      swap1\n      pop\n        /* \"#utility.yul\":20435:20854   */\n      swap2\n      swap1\n      pop\n      jump\t// out\n        /* \"#utility.yul\":20860:21023   */\n    tag_210:\n        /* \"#utility.yul\":21000:21015   */\n      0x616c726561647920766f74656400000000000000000000000000000000000000\n        /* \"#utility.yul\":20996:20997   */\n      0x00\n        /* \"#utility.yul\":20988:20994   */\n      dup3\n        /* \"#utility.yul\":20984:20998   */\n      add\n        /* \"#utility.yul\":20977:21016   */\n      mstore\n        /* \"#utility.yul\":20860:21023   */\n      pop\n      jump\t// out\n        /* \"#utility.yul\":21029:21395   */\n    tag_211:\n        /* \"#utility.yul\":21171:21174   */\n      0x00\n        /* \"#utility.yul\":21192:21259   */\n      tag_424\n        /* \"#utility.yul\":21256:21258   */\n      0x0d\n        /* \"#utility.yul\":21251:21254   */\n      dup4\n        /* \"#utility.yul\":21192:21259   */\n      tag_189\n      jump\t// in\n    tag_424:\n        /* \"#utility.yul\":21185:21259   */\n      swap2\n      pop\n        /* \"#utility.yul\":21268:21361   */\n      tag_425\n        /* \"#utility.yul\":21357:21360   */\n      dup3\n        /* \"#utility.yul\":21268:21361   */\n      tag_210\n      jump\t// in\n    tag_425:\n        /* \"#utility.yul\":21386:21388   */\n      0x20\n        /* \"#utility.yul\":21381:21384   */\n      dup3\n        /* \"#utility.yul\":21377:21389   */\n      add\n        /* \"#utility.yul\":21370:21389   */\n      swap1\n      pop\n        /* \"#utility.yul\":21029:21395   */\n      swap2\n      swap1\n      pop\n      jump\t// out\n        /* \"#utility.yul\":21401:21820   */\n    tag_139:\n        /* \"#utility.yul\":21567:21571   */\n      0x00\n        /* \"#utility.yul\":21605:21607   */\n      0x20\n        /* \"#utility.yul\":21594:21603   */\n      dup3\n        /* \"#utility.yul\":21590:21608   */\n      add\n        /* \"#utility.yul\":21582:21608   */\n      swap1\n      pop\n        /* \"#utility.yul\":21654:21663   */\n      dup2\n        /* \"#utility.yul\":21648:21652   */\n      dup2\n        /* \"#utility.yul\":21644:21664   */\n      sub\n        /* \"#utility.yul\":21640:21641   */\n      0x00\n        /* \"#utility.yul\":21629:21638   */\n      dup4\n        /* \"#utility.yul\":21625:21642   */\n      add\n        /* \"#utility.yul\":21618:21665   */\n      mstore\n        /* \"#utility.yul\":21682:21813   */\n      tag_427\n        /* \"#utility.yul\":21808:21812   */\n      dup2\n        /* \"#utility.yul\":21682:21813   */\n      tag_211\n      jump\t// in\n    tag_427:\n        /* \"#utility.yul\":21674:21813   */\n      swap1\n      pop\n        /* \"#utility.yul\":21401:21820   */\n      swap2\n      swap1\n      pop\n      jump\t// out\n        /* \"#utility.yul\":21850:22167   */\n    tag_212:\n        /* \"#utility.yul\":21948:21951   */\n      0x00\n        /* \"#utility.yul\":21969:22040   */\n      tag_429\n        /* \"#utility.yul\":22033:22039   */\n      dup4\n        /* \"#utility.yul\":22028:22031   */\n      dup6\n        /* \"#utility.yul\":21969:22040   */\n      tag_189\n      jump\t// in\n    tag_429:\n        /* \"#utility.yul\":21962:22040   */\n      swap4\n      pop\n        /* \"#utility.yul\":22050:22106   */\n      tag_430\n        /* \"#utility.yul\":22099:22105   */\n      dup4\n        /* \"#utility.yul\":22094:22097   */\n      dup6\n        /* \"#utility.yul\":22087:22092   */\n      dup5\n        /* \"#utility.yul\":22050:22106   */\n      tag_197\n      jump\t// in\n    tag_430:\n        /* \"#utility.yul\":22131:22160   */\n      tag_431\n        /* \"#utility.yul\":22153:22159   */\n      dup4\n        /* \"#utility.yul\":22131:22160   */\n      tag_179\n      jump\t// in\n    tag_431:\n        /* \"#utility.yul\":22126:22129   */\n      dup5\n        /* \"#utility.yul\":22122:22161   */\n      add\n        /* \"#utility.yul\":22115:22161   */\n      swap1\n      pop\n        /* \"#utility.yul\":21850:22167   */\n      swap4\n      swap3\n      pop\n      pop\n      pop\n      jump\t// out\n        /* \"#utility.yul\":22195:22509   */\n    tag_213:\n        /* \"#utility.yul\":22291:22294   */\n      0x00\n        /* \"#utility.yul\":22312:22382   */\n      tag_433\n        /* \"#utility.yul\":22375:22381   */\n      dup4\n        /* \"#utility.yul\":22370:22373   */\n      dup6\n        /* \"#utility.yul\":22312:22382   */\n      tag_177\n      jump\t// in\n    tag_433:\n        /* \"#utility.yul\":22305:22382   */\n      swap4\n      pop\n        /* \"#utility.yul\":22392:22448   */\n      tag_434\n        /* \"#utility.yul\":22441:22447   */\n      dup4\n        /* \"#utility.yul\":22436:22439   */\n      dup6\n        /* \"#utility.yul\":22429:22434   */\n      dup5\n        /* \"#utility.yul\":22392:22448   */\n      tag_197\n      jump\t// in\n    tag_434:\n        /* \"#utility.yul\":22473:22502   */\n      tag_435\n        /* \"#utility.yul\":22495:22501   */\n      dup4\n        /* \"#utility.yul\":22473:22502   */\n      tag_179\n      jump\t// in\n    tag_435:\n        /* \"#utility.yul\":22468:22471   */\n      dup5\n        /* \"#utility.yul\":22464:22503   */\n      add\n        /* \"#utility.yul\":22457:22503   */\n      swap1\n      pop\n        /* \"#utility.yul\":22195:22509   */\n      swap4\n      swap3\n      pop\n      pop\n      pop\n      jump\t// out\n        /* \"#utility.yul\":22515:23397   */\n    tag_149:\n        /* \"#utility.yul\":22778:22782   */\n      0x00\n        /* \"#utility.yul\":22816:22819   */\n      0xa0\n        /* \"#utility.yul\":22805:22814   */\n      dup3\n        /* \"#utility.yul\":22801:22820   */\n      add\n        /* \"#utility.yul\":22793:22820   */\n      swap1\n      pop\n        /* \"#utility.yul\":22830:22901   */\n      tag_437\n        /* \"#utility.yul\":22898:22899   */\n      0x00\n        /* \"#utility.yul\":22887:22896   */\n      dup4\n        /* \"#utility.yul\":22883:22900   */\n      add\n        /* \"#utility.yul\":22874:22880   */\n      dup11\n        /* \"#utility.yul\":22830:22901   */\n      tag_192\n      jump\t// in\n    tag_437:\n        /* \"#utility.yul\":22911:22983   */\n      tag_438\n        /* \"#utility.yul\":22979:22981   */\n      0x20\n        /* \"#utility.yul\":22968:22977   */\n      dup4\n        /* \"#utility.yul\":22964:22982   */\n      add\n        /* \"#utility.yul\":22955:22961   */\n      dup10\n        /* \"#utility.yul\":22911:22983   */\n      tag_157\n      jump\t// in\n    tag_438:\n        /* \"#utility.yul\":23030:23039   */\n      dup2\n        /* \"#utility.yul\":23024:23028   */\n      dup2\n        /* \"#utility.yul\":23020:23040   */\n      sub\n        /* \"#utility.yul\":23015:23017   */\n      0x40\n        /* \"#utility.yul\":23004:23013   */\n      dup4\n        /* \"#utility.yul\":23000:23018   */\n      add\n        /* \"#utility.yul\":22993:23041   */\n      mstore\n        /* \"#utility.yul\":23058:23146   */\n      tag_439\n        /* \"#utility.yul\":23141:23145   */\n      dup2\n        /* \"#utility.yul\":23132:23138   */\n      dup8\n        /* \"#utility.yul\":23124:23130   */\n      dup10\n        /* \"#utility.yul\":23058:23146   */\n      tag_212\n      jump\t// in\n    tag_439:\n        /* \"#utility.yul\":23050:23146   */\n      swap1\n      pop\n        /* \"#utility.yul\":23193:23202   */\n      dup2\n        /* \"#utility.yul\":23187:23191   */\n      dup2\n        /* \"#utility.yul\":23183:23203   */\n      sub\n        /* \"#utility.yul\":23178:23180   */\n      0x60\n        /* \"#utility.yul\":23167:23176   */\n      dup4\n        /* \"#utility.yul\":23163:23181   */\n      add\n        /* \"#utility.yul\":23156:23204   */\n      mstore\n        /* \"#utility.yul\":23221:23307   */\n      tag_440\n        /* \"#utility.yul\":23302:23306   */\n      dup2\n        /* \"#utility.yul\":23293:23299   */\n      dup6\n        /* \"#utility.yul\":23285:23291   */\n      dup8\n        /* \"#utility.yul\":23221:23307   */\n      tag_213\n      jump\t// in\n    tag_440:\n        /* \"#utility.yul\":23213:23307   */\n      swap1\n      pop\n        /* \"#utility.yul\":23317:23390   */\n      tag_441\n        /* \"#utility.yul\":23385:23388   */\n      0x80\n        /* \"#utility.yul\":23374:23383   */\n      dup4\n        /* \"#utility.yul\":23370:23389   */\n      add\n        /* \"#utility.yul\":23361:23367   */\n      dup5\n        /* \"#utility.yul\":23317:23390   */\n      tag_175\n      jump\t// in\n    tag_441:\n        /* \"#utility.yul\":22515:23397   */\n      swap9\n      swap8\n      pop\n      pop\n      pop\n      pop\n      pop\n      pop\n      pop\n      pop\n      jump\t// out\n\n    auxdata: 0xa2646970667358221220eefb98afe732fbdbb68ee42dd76c01b6323ebe24cac91ccbfa0cedc3ce10cc5e64736f6c63430008100033\n}\n",
				"bytecode": {
					"linkReferences": {},
					"object": "60806040523480156200001157600080fd5b5060405162001873380380620018738339818101604052810190620000379190620000fd565b80600260006101000a81548173ffffffffffffffffffffffffffffffffffffffff021916908373ffffffffffffffffffffffffffffffffffffffff160217905550506200012f565b600080fd5b600073ffffffffffffffffffffffffffffffffffffffff82169050919050565b6000620000b18262000084565b9050919050565b6000620000c582620000a4565b9050919050565b620000d781620000b8565b8114620000e357600080fd5b50565b600081519050620000f781620000cc565b92915050565b6000602082840312156200011657620001156200007f565b5b60006200012684828501620000e6565b91505092915050565b611734806200013f6000396000f3fe60806040526004361061008a5760003560e01c8063bb0f4b1511610059578063bb0f4b151461017a578063c9a28cb9146101b7578063d14b85b9146101e0578063d6159fe51461021f578063fc0c546a1461024a57610091565b806332ed5b121461009657806361d585da146100d55780638524c65d14610112578063a438d2081461014f57610091565b3661009157005b600080fd5b3480156100a257600080fd5b506100bd60048036038101906100b89190610b98565b610275565b6040516100cc93929190610bf9565b60405180910390f35b3480156100e157600080fd5b506100fc60048036038101906100f79190610b98565b6102ac565b6040516101099190610ca7565b60405180910390f35b34801561011e57600080fd5b5061013960048036038101906101349190610e07565b6103a8565b6040516101469190610ef2565b60405180910390f35b34801561015b57600080fd5b506101646105dd565b6040516101719190610f0d565b60405180910390f35b34801561018657600080fd5b506101a1600480360381019061019c9190610f28565b6105e4565b6040516101ae9190611074565b60405180910390f35b3480156101c357600080fd5b506101de60048036038101906101d991906110cf565b6107f6565b005b3480156101ec57600080fd5b5061020760048036038101906102029190610b98565b610ac1565b6040516102169392919061110f565b60405180910390f35b34801561022b57600080fd5b50610234610aeb565b6040516102419190610f0d565b60405180910390f35b34801561025657600080fd5b5061025f610af0565b60405161026c91906111a5565b60405180910390f35b60006020528060005260406000206000915090508060000154908060010154908060020160009054906101000a900460ff16905083565b600080600080848152602001908152602001600020905060006001600085815260200190815260200160002090506000826000015411610321576040517f08c379a00000000000000000000000000000000000000000000000000000000081526004016103189061121d565b60405180910390fd5b8160020160009054906101000a900460ff1615610343576004925050506103a3565b816000015442101561035a576000925050506103a3565b816000015442101580156103715750428260010154115b15610381576001925050506103a3565b80600001548160010154111561039c576002925050506103a3565b6003925050505b919050565b600080600260009054906101000a900473ffffffffffffffffffffffffffffffffffffffff1673ffffffffffffffffffffffffffffffffffffffff166370a08231336040518263ffffffff1660e01b8152600401610406919061124c565b602060405180830381865afa158015610423573d6000803e3d6000fd5b505050506040513d601f19601f82011682018060405250810190610447919061127c565b11610487576040517f08c379a000000000000000000000000000000000000000000000000000000000815260040161047e906112f5565b60405180910390fd5b60006104af8a8a8a8a8a8a8a8a6040516104a2929190611354565b6040518091039020610b16565b905060008060008381526020019081526020016000206000015414610509576040517f08c379a0000000000000000000000000000000000000000000000000000000008152600401610500906113b9565b60405180910390fd5b6040518060600160405280600a426105219190611408565b815260200162015180600a426105379190611408565b6105419190611408565b815260200160001515815250600080838152602001908152602001600020600082015181600001556020820151816001015560408201518160020160006101000a81548160ff0219169083151502179055509050507f7b06b8256a1c2af3b6e3708cfedb6e43225986a2f920a401f0b70891c5d502df816040516105c59190610ef2565b60405180910390a18091505098975050505050505050565b6201518081565b606060006105f789898989898989610b16565b90506002600481111561060d5761060c610c30565b5b610616826102ac565b600481111561062857610627610c30565b5b14610668576040517f08c379a000000000000000000000000000000000000000000000000000000000815260040161065f90611488565b60405180910390fd5b6000806000838152602001908152602001600020905060018160020160006101000a81548160ff021916908315150217905550606060008989905011156106eb5788886040516106b9929190611354565b604051809103902087876040516020016106d5939291906114f5565b6040516020818303038152906040529050610733565b86868080601f016020809104026020016040519081016040528093929190818152602001838380828437600081840152601f19601f8201169050808301925050505050505090505b6000808c73ffffffffffffffffffffffffffffffffffffffff168c8460405161075c9190611550565b60006040518083038185875af1925050503d8060008114610799576040519150601f19603f3d011682016040523d82523d6000602084013e61079e565b606091505b5091509150816107e3576040517f08c379a00000000000000000000000000000000000000000000000000000000081526004016107da906115b3565b60405180910390fd5b8095505050505050979650505050505050565b6001600481111561080a57610809610c30565b5b610813836102ac565b600481111561082557610824610c30565b5b14610865576040517f08c379a000000000000000000000000000000000000000000000000000000000815260040161085c90611488565b60405180910390fd5b6000600260009054906101000a900473ffffffffffffffffffffffffffffffffffffffff1673ffffffffffffffffffffffffffffffffffffffff166370a08231336040518263ffffffff1660e01b81526004016108c2919061124c565b602060405180830381865afa1580156108df573d6000803e3d6000fd5b505050506040513d601f19601f82011682018060405250810190610903919061127c565b905060008111610948576040517f08c379a000000000000000000000000000000000000000000000000000000000815260040161093f906112f5565b60405180910390fd5b60006001600085815260200190815260200160002090508060030160003373ffffffffffffffffffffffffffffffffffffffff1673ffffffffffffffffffffffffffffffffffffffff16815260200190815260200160002060009054906101000a900460ff16156109ee576040517f08c379a00000000000000000000000000000000000000000000000000000000081526004016109e59061161f565b60405180910390fd5b60008360ff1603610a195781816000016000828254610a0d9190611408565b92505081905550610a61565b60018360ff1603610a445781816001016000828254610a389190611408565b92505081905550610a60565b81816002016000828254610a589190611408565b925050819055505b5b60018160030160003373ffffffffffffffffffffffffffffffffffffffff1673ffffffffffffffffffffffffffffffffffffffff16815260200190815260200160002060006101000a81548160ff02191690831515021790555050505050565b60016020528060005260406000206000915090508060000154908060010154908060020154905083565b600a81565b600260009054906101000a900473ffffffffffffffffffffffffffffffffffffffff1681565b600087878787878787604051602001610b359796959493929190611699565b604051602081830303815290604052805190602001209050979650505050505050565b600080fd5b600080fd5b6000819050919050565b610b7581610b62565b8114610b8057600080fd5b50565b600081359050610b9281610b6c565b92915050565b600060208284031215610bae57610bad610b58565b5b6000610bbc84828501610b83565b91505092915050565b6000819050919050565b610bd881610bc5565b82525050565b60008115159050919050565b610bf381610bde565b82525050565b6000606082019050610c0e6000830186610bcf565b610c1b6020830185610bcf565b610c286040830184610bea565b949350505050565b7f4e487b7100000000000000000000000000000000000000000000000000000000600052602160045260246000fd5b60058110610c7057610c6f610c30565b5b50565b6000819050610c8182610c5f565b919050565b6000610c9182610c73565b9050919050565b610ca181610c86565b82525050565b6000602082019050610cbc6000830184610c98565b92915050565b600073ffffffffffffffffffffffffffffffffffffffff82169050919050565b6000610ced82610cc2565b9050919050565b610cfd81610ce2565b8114610d0857600080fd5b50565b600081359050610d1a81610cf4565b92915050565b610d2981610bc5565b8114610d3457600080fd5b50565b600081359050610d4681610d20565b92915050565b600080fd5b600080fd5b600080fd5b60008083601f840112610d7157610d70610d4c565b5b8235905067ffffffffffffffff811115610d8e57610d8d610d51565b5b602083019150836001820283011115610daa57610da9610d56565b5b9250929050565b60008083601f840112610dc757610dc6610d4c565b5b8235905067ffffffffffffffff811115610de457610de3610d51565b5b602083019150836001820283011115610e0057610dff610d56565b5b9250929050565b60008060008060008060008060a0898b031215610e2757610e26610b58565b5b6000610e358b828c01610d0b565b9850506020610e468b828c01610d37565b975050604089013567ffffffffffffffff811115610e6757610e66610b5d565b5b610e738b828c01610d5b565b9650965050606089013567ffffffffffffffff811115610e9657610e95610b5d565b5b610ea28b828c01610db1565b9450945050608089013567ffffffffffffffff811115610ec557610ec4610b5d565b5b610ed18b828c01610d5b565b92509250509295985092959890939650565b610eec81610b62565b82525050565b6000602082019050610f076000830184610ee3565b92915050565b6000602082019050610f226000830184610bcf565b92915050565b600080600080600080600060a0888a031215610f4757610f46610b58565b5b6000610f558a828b01610d0b565b9750506020610f668a828b01610d37565b965050604088013567ffffffffffffffff811115610f8757610f86610b5d565b5b610f938a828b01610d5b565b9550955050606088013567ffffffffffffffff811115610fb657610fb5610b5d565b5b610fc28a828b01610db1565b93509350506080610fd58a828b01610b83565b91505092959891949750929550565b600081519050919050565b600082825260208201905092915050565b60005b8381101561101e578082015181840152602081019050611003565b60008484015250505050565b6000601f19601f8301169050919050565b600061104682610fe4565b6110508185610fef565b9350611060818560208601611000565b6110698161102a565b840191505092915050565b6000602082019050818103600083015261108e818461103b565b905092915050565b600060ff82169050919050565b6110ac81611096565b81146110b757600080fd5b50565b6000813590506110c9816110a3565b92915050565b600080604083850312156110e6576110e5610b58565b5b60006110f485828601610b83565b9250506020611105858286016110ba565b9150509250929050565b60006060820190506111246000830186610bcf565b6111316020830185610bcf565b61113e6040830184610bcf565b949350505050565b6000819050919050565b600061116b61116661116184610cc2565b611146565b610cc2565b9050919050565b600061117d82611150565b9050919050565b600061118f82611172565b9050919050565b61119f81611184565b82525050565b60006020820190506111ba6000830184611196565b92915050565b600082825260208201905092915050565b7f70726f706f73616c20646f65736e742065786973740000000000000000000000600082015250565b60006112076015836111c0565b9150611212826111d1565b602082019050919050565b60006020820190508181036000830152611236816111fa565b9050919050565b61124681610ce2565b82525050565b6000602082019050611261600083018461123d565b92915050565b60008151905061127681610d20565b92915050565b60006020828403121561129257611291610b58565b5b60006112a084828501611267565b91505092915050565b7f6e6f7420656e6f75676820746f6b656e73000000000000000000000000000000600082015250565b60006112df6011836111c0565b91506112ea826112a9565b602082019050919050565b6000602082019050818103600083015261130e816112d2565b9050919050565b600081905092915050565b82818337600083830152505050565b600061133b8385611315565b9350611348838584611320565b82840190509392505050565b600061136182848661132f565b91508190509392505050565b7f70726f706f73616c20616c726561647920657869737473000000000000000000600082015250565b60006113a36017836111c0565b91506113ae8261136d565b602082019050919050565b600060208201905081810360008301526113d281611396565b9050919050565b7f4e487b7100000000000000000000000000000000000000000000000000000000600052601160045260246000fd5b600061141382610bc5565b915061141e83610bc5565b9250828201905080821115611436576114356113d9565b5b92915050565b7f696e76616c696420737461746500000000000000000000000000000000000000600082015250565b6000611472600d836111c0565b915061147d8261143c565b602082019050919050565b600060208201905081810360008301526114a181611465565b9050919050565b60007fffffffff0000000000000000000000000000000000000000000000000000000082169050919050565b6000819050919050565b6114ef6114ea826114a8565b6114d4565b82525050565b600061150182866114de565b60048201915061151282848661132f565b9150819050949350505050565b600061152a82610fe4565b6115348185611315565b9350611544818560208601611000565b80840191505092915050565b600061155c828461151f565b915081905092915050565b7f7478206661696c65640000000000000000000000000000000000000000000000600082015250565b600061159d6009836111c0565b91506115a882611567565b602082019050919050565b600060208201905081810360008301526115cc81611590565b9050919050565b7f616c726561647920766f74656400000000000000000000000000000000000000600082015250565b6000611609600d836111c0565b9150611614826115d3565b602082019050919050565b60006020820190508181036000830152611638816115fc565b9050919050565b600061164b83856111c0565b9350611658838584611320565b6116618361102a565b840190509392505050565b60006116788385610fef565b9350611685838584611320565b61168e8361102a565b840190509392505050565b600060a0820190506116ae600083018a61123d565b6116bb6020830189610bcf565b81810360408301526116ce81878961163f565b905081810360608301526116e381858761166c565b90506116f26080830184610ee3565b9897505050505050505056fea2646970667358221220eefb98afe732fbdbb68ee42dd76c01b6323ebe24cac91ccbfa0cedc3ce10cc5e64736f6c63430008100033",
					"opcodes": "PUSH1 0x80 PUSH1 0x40 MSTORE CALLVALUE DUP1 ISZERO PUSH3 0x11 JUMPI PUSH1 0x0 DUP1 REVERT JUMPDEST POP PUSH1 0x40 MLOAD PUSH3 0x1873 CODESIZE SUB DUP1 PUSH3 0x1873 DUP4 CODECOPY DUP2 DUP2 ADD PUSH1 0x40 MSTORE DUP2 ADD SWAP1 PUSH3 0x37 SWAP2 SWAP1 PUSH3 0xFD JUMP JUMPDEST DUP1 PUSH1 0x2 PUSH1 0x0 PUSH2 0x100 EXP DUP2 SLOAD DUP2 PUSH20 0xFFFFFFFFFFFFFFFFFFFFFFFFFFFFFFFFFFFFFFFF MUL NOT AND SWAP1 DUP4 PUSH20 0xFFFFFFFFFFFFFFFFFFFFFFFFFFFFFFFFFFFFFFFF AND MUL OR SWAP1 SSTORE POP POP PUSH3 0x12F JUMP JUMPDEST PUSH1 0x0 DUP1 REVERT JUMPDEST PUSH1 0x0 PUSH20 0xFFFFFFFFFFFFFFFFFFFFFFFFFFFFFFFFFFFFFFFF DUP3 AND SWAP1 POP SWAP2 SWAP1 POP JUMP JUMPDEST PUSH1 0x0 PUSH3 0xB1 DUP3 PUSH3 0x84 JUMP JUMPDEST SWAP1 POP SWAP2 SWAP1 POP JUMP JUMPDEST PUSH1 0x0 PUSH3 0xC5 DUP3 PUSH3 0xA4 JUMP JUMPDEST SWAP1 POP SWAP2 SWAP1 POP JUMP JUMPDEST PUSH3 0xD7 DUP2 PUSH3 0xB8 JUMP JUMPDEST DUP2 EQ PUSH3 0xE3 JUMPI PUSH1 0x0 DUP1 REVERT JUMPDEST POP JUMP JUMPDEST PUSH1 0x0 DUP2 MLOAD SWAP1 POP PUSH3 0xF7 DUP2 PUSH3 0xCC JUMP JUMPDEST SWAP3 SWAP2 POP POP JUMP JUMPDEST PUSH1 0x0 PUSH1 0x20 DUP3 DUP5 SUB SLT ISZERO PUSH3 0x116 JUMPI PUSH3 0x115 PUSH3 0x7F JUMP JUMPDEST JUMPDEST PUSH1 0x0 PUSH3 0x126 DUP5 DUP3 DUP6 ADD PUSH3 0xE6 JUMP JUMPDEST SWAP2 POP POP SWAP3 SWAP2 POP POP JUMP JUMPDEST PUSH2 0x1734 DUP1 PUSH3 0x13F PUSH1 0x0 CODECOPY PUSH1 0x0 RETURN INVALID PUSH1 0x80 PUSH1 0x40 MSTORE PUSH1 0x4 CALLDATASIZE LT PUSH2 0x8A JUMPI PUSH1 0x0 CALLDATALOAD PUSH1 0xE0 SHR DUP1 PUSH4 0xBB0F4B15 GT PUSH2 0x59 JUMPI DUP1 PUSH4 0xBB0F4B15 EQ PUSH2 0x17A JUMPI DUP1 PUSH4 0xC9A28CB9 EQ PUSH2 0x1B7 JUMPI DUP1 PUSH4 0xD14B85B9 EQ PUSH2 0x1E0 JUMPI DUP1 PUSH4 0xD6159FE5 EQ PUSH2 0x21F JUMPI DUP1 PUSH4 0xFC0C546A EQ PUSH2 0x24A JUMPI PUSH2 0x91 JUMP JUMPDEST DUP1 PUSH4 0x32ED5B12 EQ PUSH2 0x96 JUMPI DUP1 PUSH4 0x61D585DA EQ PUSH2 0xD5 JUMPI DUP1 PUSH4 0x8524C65D EQ PUSH2 0x112 JUMPI DUP1 PUSH4 0xA438D208 EQ PUSH2 0x14F JUMPI PUSH2 0x91 JUMP JUMPDEST CALLDATASIZE PUSH2 0x91 JUMPI STOP JUMPDEST PUSH1 0x0 DUP1 REVERT JUMPDEST CALLVALUE DUP1 ISZERO PUSH2 0xA2 JUMPI PUSH1 0x0 DUP1 REVERT JUMPDEST POP PUSH2 0xBD PUSH1 0x4 DUP1 CALLDATASIZE SUB DUP2 ADD SWAP1 PUSH2 0xB8 SWAP2 SWAP1 PUSH2 0xB98 JUMP JUMPDEST PUSH2 0x275 JUMP JUMPDEST PUSH1 0x40 MLOAD PUSH2 0xCC SWAP4 SWAP3 SWAP2 SWAP1 PUSH2 0xBF9 JUMP JUMPDEST PUSH1 0x40 MLOAD DUP1 SWAP2 SUB SWAP1 RETURN JUMPDEST CALLVALUE DUP1 ISZERO PUSH2 0xE1 JUMPI PUSH1 0x0 DUP1 REVERT JUMPDEST POP PUSH2 0xFC PUSH1 0x4 DUP1 CALLDATASIZE SUB DUP2 ADD SWAP1 PUSH2 0xF7 SWAP2 SWAP1 PUSH2 0xB98 JUMP JUMPDEST PUSH2 0x2AC JUMP JUMPDEST PUSH1 0x40 MLOAD PUSH2 0x109 SWAP2 SWAP1 PUSH2 0xCA7 JUMP JUMPDEST PUSH1 0x40 MLOAD DUP1 SWAP2 SUB SWAP1 RETURN JUMPDEST CALLVALUE DUP1 ISZERO PUSH2 0x11E JUMPI PUSH1 0x0 DUP1 REVERT JUMPDEST POP PUSH2 0x139 PUSH1 0x4 DUP1 CALLDATASIZE SUB DUP2 ADD SWAP1 PUSH2 0x134 SWAP2 SWAP1 PUSH2 0xE07 JUMP JUMPDEST PUSH2 0x3A8 JUMP JUMPDEST PUSH1 0x40 MLOAD PUSH2 0x146 SWAP2 SWAP1 PUSH2 0xEF2 JUMP JUMPDEST PUSH1 0x40 MLOAD DUP1 SWAP2 SUB SWAP1 RETURN JUMPDEST CALLVALUE DUP1 ISZERO PUSH2 0x15B JUMPI PUSH1 0x0 DUP1 REVERT JUMPDEST POP PUSH2 0x164 PUSH2 0x5DD JUMP JUMPDEST PUSH1 0x40 MLOAD PUSH2 0x171 SWAP2 SWAP1 PUSH2 0xF0D JUMP JUMPDEST PUSH1 0x40 MLOAD DUP1 SWAP2 SUB SWAP1 RETURN JUMPDEST CALLVALUE DUP1 ISZERO PUSH2 0x186 JUMPI PUSH1 0x0 DUP1 REVERT JUMPDEST POP PUSH2 0x1A1 PUSH1 0x4 DUP1 CALLDATASIZE SUB DUP2 ADD SWAP1 PUSH2 0x19C SWAP2 SWAP1 PUSH2 0xF28 JUMP JUMPDEST PUSH2 0x5E4 JUMP JUMPDEST PUSH1 0x40 MLOAD PUSH2 0x1AE SWAP2 SWAP1 PUSH2 0x1074 JUMP JUMPDEST PUSH1 0x40 MLOAD DUP1 SWAP2 SUB SWAP1 RETURN JUMPDEST CALLVALUE DUP1 ISZERO PUSH2 0x1C3 JUMPI PUSH1 0x0 DUP1 REVERT JUMPDEST POP PUSH2 0x1DE PUSH1 0x4 DUP1 CALLDATASIZE SUB DUP2 ADD SWAP1 PUSH2 0x1D9 SWAP2 SWAP1 PUSH2 0x10CF JUMP JUMPDEST PUSH2 0x7F6 JUMP JUMPDEST STOP JUMPDEST CALLVALUE DUP1 ISZERO PUSH2 0x1EC JUMPI PUSH1 0x0 DUP1 REVERT JUMPDEST POP PUSH2 0x207 PUSH1 0x4 DUP1 CALLDATASIZE SUB DUP2 ADD SWAP1 PUSH2 0x202 SWAP2 SWAP1 PUSH2 0xB98 JUMP JUMPDEST PUSH2 0xAC1 JUMP JUMPDEST PUSH1 0x40 MLOAD PUSH2 0x216 SWAP4 SWAP3 SWAP2 SWAP1 PUSH2 0x110F JUMP JUMPDEST PUSH1 0x40 MLOAD DUP1 SWAP2 SUB SWAP1 RETURN JUMPDEST CALLVALUE DUP1 ISZERO PUSH2 0x22B JUMPI PUSH1 0x0 DUP1 REVERT JUMPDEST POP PUSH2 0x234 PUSH2 0xAEB JUMP JUMPDEST PUSH1 0x40 MLOAD PUSH2 0x241 SWAP2 SWAP1 PUSH2 0xF0D JUMP JUMPDEST PUSH1 0x40 MLOAD DUP1 SWAP2 SUB SWAP1 RETURN JUMPDEST CALLVALUE DUP1 ISZERO PUSH2 0x256 JUMPI PUSH1 0x0 DUP1 REVERT JUMPDEST POP PUSH2 0x25F PUSH2 0xAF0 JUMP JUMPDEST PUSH1 0x40 MLOAD PUSH2 0x26C SWAP2 SWAP1 PUSH2 0x11A5 JUMP JUMPDEST PUSH1 0x40 MLOAD DUP1 SWAP2 SUB SWAP1 RETURN JUMPDEST PUSH1 0x0 PUSH1 0x20 MSTORE DUP1 PUSH1 0x0 MSTORE PUSH1 0x40 PUSH1 0x0 KECCAK256 PUSH1 0x0 SWAP2 POP SWAP1 POP DUP1 PUSH1 0x0 ADD SLOAD SWAP1 DUP1 PUSH1 0x1 ADD SLOAD SWAP1 DUP1 PUSH1 0x2 ADD PUSH1 0x0 SWAP1 SLOAD SWAP1 PUSH2 0x100 EXP SWAP1 DIV PUSH1 0xFF AND SWAP1 POP DUP4 JUMP JUMPDEST PUSH1 0x0 DUP1 PUSH1 0x0 DUP1 DUP5 DUP2 MSTORE PUSH1 0x20 ADD SWAP1 DUP2 MSTORE PUSH1 0x20 ADD PUSH1 0x0 KECCAK256 SWAP1 POP PUSH1 0x0 PUSH1 0x1 PUSH1 0x0 DUP6 DUP2 MSTORE PUSH1 0x20 ADD SWAP1 DUP2 MSTORE PUSH1 0x20 ADD PUSH1 0x0 KECCAK256 SWAP1 POP PUSH1 0x0 DUP3 PUSH1 0x0 ADD SLOAD GT PUSH2 0x321 JUMPI PUSH1 0x40 MLOAD PUSH32 0x8C379A000000000000000000000000000000000000000000000000000000000 DUP2 MSTORE PUSH1 0x4 ADD PUSH2 0x318 SWAP1 PUSH2 0x121D JUMP JUMPDEST PUSH1 0x40 MLOAD DUP1 SWAP2 SUB SWAP1 REVERT JUMPDEST DUP2 PUSH1 0x2 ADD PUSH1 0x0 SWAP1 SLOAD SWAP1 PUSH2 0x100 EXP SWAP1 DIV PUSH1 0xFF AND ISZERO PUSH2 0x343 JUMPI PUSH1 0x4 SWAP3 POP POP POP PUSH2 0x3A3 JUMP JUMPDEST DUP2 PUSH1 0x0 ADD SLOAD TIMESTAMP LT ISZERO PUSH2 0x35A JUMPI PUSH1 0x0 SWAP3 POP POP POP PUSH2 0x3A3 JUMP JUMPDEST DUP2 PUSH1 0x0 ADD SLOAD TIMESTAMP LT ISZERO DUP1 ISZERO PUSH2 0x371 JUMPI POP TIMESTAMP DUP3 PUSH1 0x1 ADD SLOAD GT JUMPDEST ISZERO PUSH2 0x381 JUMPI PUSH1 0x1 SWAP3 POP POP POP PUSH2 0x3A3 JUMP JUMPDEST DUP1 PUSH1 0x0 ADD SLOAD DUP2 PUSH1 0x1 ADD SLOAD GT ISZERO PUSH2 0x39C JUMPI PUSH1 0x2 SWAP3 POP POP POP PUSH2 0x3A3 JUMP JUMPDEST PUSH1 0x3 SWAP3 POP POP POP JUMPDEST SWAP2 SWAP1 POP JUMP JUMPDEST PUSH1 0x0 DUP1 PUSH1 0x2 PUSH1 0x0 SWAP1 SLOAD SWAP1 PUSH2 0x100 EXP SWAP1 DIV PUSH20 0xFFFFFFFFFFFFFFFFFFFFFFFFFFFFFFFFFFFFFFFF AND PUSH20 0xFFFFFFFFFFFFFFFFFFFFFFFFFFFFFFFFFFFFFFFF AND PUSH4 0x70A08231 CALLER PUSH1 0x40 MLOAD DUP3 PUSH4 0xFFFFFFFF AND PUSH1 0xE0 SHL DUP2 MSTORE PUSH1 0x4 ADD PUSH2 0x406 SWAP2 SWAP1 PUSH2 0x124C JUMP JUMPDEST PUSH1 0x20 PUSH1 0x40 MLOAD DUP1 DUP4 SUB DUP2 DUP7 GAS STATICCALL ISZERO DUP1 ISZERO PUSH2 0x423 JUMPI RETURNDATASIZE PUSH1 0x0 DUP1 RETURNDATACOPY RETURNDATASIZE PUSH1 0x0 REVERT JUMPDEST POP POP POP POP PUSH1 0x40 MLOAD RETURNDATASIZE PUSH1 0x1F NOT PUSH1 0x1F DUP3 ADD AND DUP3 ADD DUP1 PUSH1 0x40 MSTORE POP DUP2 ADD SWAP1 PUSH2 0x447 SWAP2 SWAP1 PUSH2 0x127C JUMP JUMPDEST GT PUSH2 0x487 JUMPI PUSH1 0x40 MLOAD PUSH32 0x8C379A000000000000000000000000000000000000000000000000000000000 DUP2 MSTORE PUSH1 0x4 ADD PUSH2 0x47E SWAP1 PUSH2 0x12F5 JUMP JUMPDEST PUSH1 0x40 MLOAD DUP1 SWAP2 SUB SWAP1 REVERT JUMPDEST PUSH1 0x0 PUSH2 0x4AF DUP11 DUP11 DUP11 DUP11 DUP11 DUP11 DUP11 DUP11 PUSH1 0x40 MLOAD PUSH2 0x4A2 SWAP3 SWAP2 SWAP1 PUSH2 0x1354 JUMP JUMPDEST PUSH1 0x40 MLOAD DUP1 SWAP2 SUB SWAP1 KECCAK256 PUSH2 0xB16 JUMP JUMPDEST SWAP1 POP PUSH1 0x0 DUP1 PUSH1 0x0 DUP4 DUP2 MSTORE PUSH1 0x20 ADD SWAP1 DUP2 MSTORE PUSH1 0x20 ADD PUSH1 0x0 KECCAK256 PUSH1 0x0 ADD SLOAD EQ PUSH2 0x509 JUMPI PUSH1 0x40 MLOAD PUSH32 0x8C379A000000000000000000000000000000000000000000000000000000000 DUP2 MSTORE PUSH1 0x4 ADD PUSH2 0x500 SWAP1 PUSH2 0x13B9 JUMP JUMPDEST PUSH1 0x40 MLOAD DUP1 SWAP2 SUB SWAP1 REVERT JUMPDEST PUSH1 0x40 MLOAD DUP1 PUSH1 0x60 ADD PUSH1 0x40 MSTORE DUP1 PUSH1 0xA TIMESTAMP PUSH2 0x521 SWAP2 SWAP1 PUSH2 0x1408 JUMP JUMPDEST DUP2 MSTORE PUSH1 0x20 ADD PUSH3 0x15180 PUSH1 0xA TIMESTAMP PUSH2 0x537 SWAP2 SWAP1 PUSH2 0x1408 JUMP JUMPDEST PUSH2 0x541 SWAP2 SWAP1 PUSH2 0x1408 JUMP JUMPDEST DUP2 MSTORE PUSH1 0x20 ADD PUSH1 0x0 ISZERO ISZERO DUP2 MSTORE POP PUSH1 0x0 DUP1 DUP4 DUP2 MSTORE PUSH1 0x20 ADD SWAP1 DUP2 MSTORE PUSH1 0x20 ADD PUSH1 0x0 KECCAK256 PUSH1 0x0 DUP3 ADD MLOAD DUP2 PUSH1 0x0 ADD SSTORE PUSH1 0x20 DUP3 ADD MLOAD DUP2 PUSH1 0x1 ADD SSTORE PUSH1 0x40 DUP3 ADD MLOAD DUP2 PUSH1 0x2 ADD PUSH1 0x0 PUSH2 0x100 EXP DUP2 SLOAD DUP2 PUSH1 0xFF MUL NOT AND SWAP1 DUP4 ISZERO ISZERO MUL OR SWAP1 SSTORE POP SWAP1 POP POP PUSH32 0x7B06B8256A1C2AF3B6E3708CFEDB6E43225986A2F920A401F0B70891C5D502DF DUP2 PUSH1 0x40 MLOAD PUSH2 0x5C5 SWAP2 SWAP1 PUSH2 0xEF2 JUMP JUMPDEST PUSH1 0x40 MLOAD DUP1 SWAP2 SUB SWAP1 LOG1 DUP1 SWAP2 POP POP SWAP9 SWAP8 POP POP POP POP POP POP POP POP JUMP JUMPDEST PUSH3 0x15180 DUP2 JUMP JUMPDEST PUSH1 0x60 PUSH1 0x0 PUSH2 0x5F7 DUP10 DUP10 DUP10 DUP10 DUP10 DUP10 DUP10 PUSH2 0xB16 JUMP JUMPDEST SWAP1 POP PUSH1 0x2 PUSH1 0x4 DUP2 GT ISZERO PUSH2 0x60D JUMPI PUSH2 0x60C PUSH2 0xC30 JUMP JUMPDEST JUMPDEST PUSH2 0x616 DUP3 PUSH2 0x2AC JUMP JUMPDEST PUSH1 0x4 DUP2 GT ISZERO PUSH2 0x628 JUMPI PUSH2 0x627 PUSH2 0xC30 JUMP JUMPDEST JUMPDEST EQ PUSH2 0x668 JUMPI PUSH1 0x40 MLOAD PUSH32 0x8C379A000000000000000000000000000000000000000000000000000000000 DUP2 MSTORE PUSH1 0x4 ADD PUSH2 0x65F SWAP1 PUSH2 0x1488 JUMP JUMPDEST PUSH1 0x40 MLOAD DUP1 SWAP2 SUB SWAP1 REVERT JUMPDEST PUSH1 0x0 DUP1 PUSH1 0x0 DUP4 DUP2 MSTORE PUSH1 0x20 ADD SWAP1 DUP2 MSTORE PUSH1 0x20 ADD PUSH1 0x0 KECCAK256 SWAP1 POP PUSH1 0x1 DUP2 PUSH1 0x2 ADD PUSH1 0x0 PUSH2 0x100 EXP DUP2 SLOAD DUP2 PUSH1 0xFF MUL NOT AND SWAP1 DUP4 ISZERO ISZERO MUL OR SWAP1 SSTORE POP PUSH1 0x60 PUSH1 0x0 DUP10 DUP10 SWAP1 POP GT ISZERO PUSH2 0x6EB JUMPI DUP9 DUP9 PUSH1 0x40 MLOAD PUSH2 0x6B9 SWAP3 SWAP2 SWAP1 PUSH2 0x1354 JUMP JUMPDEST PUSH1 0x40 MLOAD DUP1 SWAP2 SUB SWAP1 KECCAK256 DUP8 DUP8 PUSH1 0x40 MLOAD PUSH1 0x20 ADD PUSH2 0x6D5 SWAP4 SWAP3 SWAP2 SWAP1 PUSH2 0x14F5 JUMP JUMPDEST PUSH1 0x40 MLOAD PUSH1 0x20 DUP2 DUP4 SUB SUB DUP2 MSTORE SWAP1 PUSH1 0x40 MSTORE SWAP1 POP PUSH2 0x733 JUMP JUMPDEST DUP7 DUP7 DUP1 DUP1 PUSH1 0x1F ADD PUSH1 0x20 DUP1 SWAP2 DIV MUL PUSH1 0x20 ADD PUSH1 0x40 MLOAD SWAP1 DUP2 ADD PUSH1 0x40 MSTORE DUP1 SWAP4 SWAP3 SWAP2 SWAP1 DUP2 DUP2 MSTORE PUSH1 0x20 ADD DUP4 DUP4 DUP1 DUP3 DUP5 CALLDATACOPY PUSH1 0x0 DUP2 DUP5 ADD MSTORE PUSH1 0x1F NOT PUSH1 0x1F DUP3 ADD AND SWAP1 POP DUP1 DUP4 ADD SWAP3 POP POP POP POP POP POP POP SWAP1 POP JUMPDEST PUSH1 0x0 DUP1 DUP13 PUSH20 0xFFFFFFFFFFFFFFFFFFFFFFFFFFFFFFFFFFFFFFFF AND DUP13 DUP5 PUSH1 0x40 MLOAD PUSH2 0x75C SWAP2 SWAP1 PUSH2 0x1550 JUMP JUMPDEST PUSH1 0x0 PUSH1 0x40 MLOAD DUP1 DUP4 SUB DUP2 DUP6 DUP8 GAS CALL SWAP3 POP POP POP RETURNDATASIZE DUP1 PUSH1 0x0 DUP2 EQ PUSH2 0x799 JUMPI PUSH1 0x40 MLOAD SWAP2 POP PUSH1 0x1F NOT PUSH1 0x3F RETURNDATASIZE ADD AND DUP3 ADD PUSH1 0x40 MSTORE RETURNDATASIZE DUP3 MSTORE RETURNDATASIZE PUSH1 0x0 PUSH1 0x20 DUP5 ADD RETURNDATACOPY PUSH2 0x79E JUMP JUMPDEST PUSH1 0x60 SWAP2 POP JUMPDEST POP SWAP2 POP SWAP2 POP DUP2 PUSH2 0x7E3 JUMPI PUSH1 0x40 MLOAD PUSH32 0x8C379A000000000000000000000000000000000000000000000000000000000 DUP2 MSTORE PUSH1 0x4 ADD PUSH2 0x7DA SWAP1 PUSH2 0x15B3 JUMP JUMPDEST PUSH1 0x40 MLOAD DUP1 SWAP2 SUB SWAP1 REVERT JUMPDEST DUP1 SWAP6 POP POP POP POP POP POP SWAP8 SWAP7 POP POP POP POP POP POP POP JUMP JUMPDEST PUSH1 0x1 PUSH1 0x4 DUP2 GT ISZERO PUSH2 0x80A JUMPI PUSH2 0x809 PUSH2 0xC30 JUMP JUMPDEST JUMPDEST PUSH2 0x813 DUP4 PUSH2 0x2AC JUMP JUMPDEST PUSH1 0x4 DUP2 GT ISZERO PUSH2 0x825 JUMPI PUSH2 0x824 PUSH2 0xC30 JUMP JUMPDEST JUMPDEST EQ PUSH2 0x865 JUMPI PUSH1 0x40 MLOAD PUSH32 0x8C379A000000000000000000000000000000000000000000000000000000000 DUP2 MSTORE PUSH1 0x4 ADD PUSH2 0x85C SWAP1 PUSH2 0x1488 JUMP JUMPDEST PUSH1 0x40 MLOAD DUP1 SWAP2 SUB SWAP1 REVERT JUMPDEST PUSH1 0x0 PUSH1 0x2 PUSH1 0x0 SWAP1 SLOAD SWAP1 PUSH2 0x100 EXP SWAP1 DIV PUSH20 0xFFFFFFFFFFFFFFFFFFFFFFFFFFFFFFFFFFFFFFFF AND PUSH20 0xFFFFFFFFFFFFFFFFFFFFFFFFFFFFFFFFFFFFFFFF AND PUSH4 0x70A08231 CALLER PUSH1 0x40 MLOAD DUP3 PUSH4 0xFFFFFFFF AND PUSH1 0xE0 SHL DUP2 MSTORE PUSH1 0x4 ADD PUSH2 0x8C2 SWAP2 SWAP1 PUSH2 0x124C JUMP JUMPDEST PUSH1 0x20 PUSH1 0x40 MLOAD DUP1 DUP4 SUB DUP2 DUP7 GAS STATICCALL ISZERO DUP1 ISZERO PUSH2 0x8DF JUMPI RETURNDATASIZE PUSH1 0x0 DUP1 RETURNDATACOPY RETURNDATASIZE PUSH1 0x0 REVERT JUMPDEST POP POP POP POP PUSH1 0x40 MLOAD RETURNDATASIZE PUSH1 0x1F NOT PUSH1 0x1F DUP3 ADD AND DUP3 ADD DUP1 PUSH1 0x40 MSTORE POP DUP2 ADD SWAP1 PUSH2 0x903 SWAP2 SWAP1 PUSH2 0x127C JUMP JUMPDEST SWAP1 POP PUSH1 0x0 DUP2 GT PUSH2 0x948 JUMPI PUSH1 0x40 MLOAD PUSH32 0x8C379A000000000000000000000000000000000000000000000000000000000 DUP2 MSTORE PUSH1 0x4 ADD PUSH2 0x93F SWAP1 PUSH2 0x12F5 JUMP JUMPDEST PUSH1 0x40 MLOAD DUP1 SWAP2 SUB SWAP1 REVERT JUMPDEST PUSH1 0x0 PUSH1 0x1 PUSH1 0x0 DUP6 DUP2 MSTORE PUSH1 0x20 ADD SWAP1 DUP2 MSTORE PUSH1 0x20 ADD PUSH1 0x0 KECCAK256 SWAP1 POP DUP1 PUSH1 0x3 ADD PUSH1 0x0 CALLER PUSH20 0xFFFFFFFFFFFFFFFFFFFFFFFFFFFFFFFFFFFFFFFF AND PUSH20 0xFFFFFFFFFFFFFFFFFFFFFFFFFFFFFFFFFFFFFFFF AND DUP2 MSTORE PUSH1 0x20 ADD SWAP1 DUP2 MSTORE PUSH1 0x20 ADD PUSH1 0x0 KECCAK256 PUSH1 0x0 SWAP1 SLOAD SWAP1 PUSH2 0x100 EXP SWAP1 DIV PUSH1 0xFF AND ISZERO PUSH2 0x9EE JUMPI PUSH1 0x40 MLOAD PUSH32 0x8C379A000000000000000000000000000000000000000000000000000000000 DUP2 MSTORE PUSH1 0x4 ADD PUSH2 0x9E5 SWAP1 PUSH2 0x161F JUMP JUMPDEST PUSH1 0x40 MLOAD DUP1 SWAP2 SUB SWAP1 REVERT JUMPDEST PUSH1 0x0 DUP4 PUSH1 0xFF AND SUB PUSH2 0xA19 JUMPI DUP2 DUP2 PUSH1 0x0 ADD PUSH1 0x0 DUP3 DUP3 SLOAD PUSH2 0xA0D SWAP2 SWAP1 PUSH2 0x1408 JUMP JUMPDEST SWAP3 POP POP DUP2 SWAP1 SSTORE POP PUSH2 0xA61 JUMP JUMPDEST PUSH1 0x1 DUP4 PUSH1 0xFF AND SUB PUSH2 0xA44 JUMPI DUP2 DUP2 PUSH1 0x1 ADD PUSH1 0x0 DUP3 DUP3 SLOAD PUSH2 0xA38 SWAP2 SWAP1 PUSH2 0x1408 JUMP JUMPDEST SWAP3 POP POP DUP2 SWAP1 SSTORE POP PUSH2 0xA60 JUMP JUMPDEST DUP2 DUP2 PUSH1 0x2 ADD PUSH1 0x0 DUP3 DUP3 SLOAD PUSH2 0xA58 SWAP2 SWAP1 PUSH2 0x1408 JUMP JUMPDEST SWAP3 POP POP DUP2 SWAP1 SSTORE POP JUMPDEST JUMPDEST PUSH1 0x1 DUP2 PUSH1 0x3 ADD PUSH1 0x0 CALLER PUSH20 0xFFFFFFFFFFFFFFFFFFFFFFFFFFFFFFFFFFFFFFFF AND PUSH20 0xFFFFFFFFFFFFFFFFFFFFFFFFFFFFFFFFFFFFFFFF AND DUP2 MSTORE PUSH1 0x20 ADD SWAP1 DUP2 MSTORE PUSH1 0x20 ADD PUSH1 0x0 KECCAK256 PUSH1 0x0 PUSH2 0x100 EXP DUP2 SLOAD DUP2 PUSH1 0xFF MUL NOT AND SWAP1 DUP4 ISZERO ISZERO MUL OR SWAP1 SSTORE POP POP POP POP POP JUMP JUMPDEST PUSH1 0x1 PUSH1 0x20 MSTORE DUP1 PUSH1 0x0 MSTORE PUSH1 0x40 PUSH1 0x0 KECCAK256 PUSH1 0x0 SWAP2 POP SWAP1 POP DUP1 PUSH1 0x0 ADD SLOAD SWAP1 DUP1 PUSH1 0x1 ADD SLOAD SWAP1 DUP1 PUSH1 0x2 ADD SLOAD SWAP1 POP DUP4 JUMP JUMPDEST PUSH1 0xA DUP2 JUMP JUMPDEST PUSH1 0x2 PUSH1 0x0 SWAP1 SLOAD SWAP1 PUSH2 0x100 EXP SWAP1 DIV PUSH20 0xFFFFFFFFFFFFFFFFFFFFFFFFFFFFFFFFFFFFFFFF AND DUP2 JUMP JUMPDEST PUSH1 0x0 DUP8 DUP8 DUP8 DUP8 DUP8 DUP8 DUP8 PUSH1 0x40 MLOAD PUSH1 0x20 ADD PUSH2 0xB35 SWAP8 SWAP7 SWAP6 SWAP5 SWAP4 SWAP3 SWAP2 SWAP1 PUSH2 0x1699 JUMP JUMPDEST PUSH1 0x40 MLOAD PUSH1 0x20 DUP2 DUP4 SUB SUB DUP2 MSTORE SWAP1 PUSH1 0x40 MSTORE DUP1 MLOAD SWAP1 PUSH1 0x20 ADD KECCAK256 SWAP1 POP SWAP8 SWAP7 POP POP POP POP POP POP POP JUMP JUMPDEST PUSH1 0x0 DUP1 REVERT JUMPDEST PUSH1 0x0 DUP1 REVERT JUMPDEST PUSH1 0x0 DUP2 SWAP1 POP SWAP2 SWAP1 POP JUMP JUMPDEST PUSH2 0xB75 DUP2 PUSH2 0xB62 JUMP JUMPDEST DUP2 EQ PUSH2 0xB80 JUMPI PUSH1 0x0 DUP1 REVERT JUMPDEST POP JUMP JUMPDEST PUSH1 0x0 DUP2 CALLDATALOAD SWAP1 POP PUSH2 0xB92 DUP2 PUSH2 0xB6C JUMP JUMPDEST SWAP3 SWAP2 POP POP JUMP JUMPDEST PUSH1 0x0 PUSH1 0x20 DUP3 DUP5 SUB SLT ISZERO PUSH2 0xBAE JUMPI PUSH2 0xBAD PUSH2 0xB58 JUMP JUMPDEST JUMPDEST PUSH1 0x0 PUSH2 0xBBC DUP5 DUP3 DUP6 ADD PUSH2 0xB83 JUMP JUMPDEST SWAP2 POP POP SWAP3 SWAP2 POP POP JUMP JUMPDEST PUSH1 0x0 DUP2 SWAP1 POP SWAP2 SWAP1 POP JUMP JUMPDEST PUSH2 0xBD8 DUP2 PUSH2 0xBC5 JUMP JUMPDEST DUP3 MSTORE POP POP JUMP JUMPDEST PUSH1 0x0 DUP2 ISZERO ISZERO SWAP1 POP SWAP2 SWAP1 POP JUMP JUMPDEST PUSH2 0xBF3 DUP2 PUSH2 0xBDE JUMP JUMPDEST DUP3 MSTORE POP POP JUMP JUMPDEST PUSH1 0x0 PUSH1 0x60 DUP3 ADD SWAP1 POP PUSH2 0xC0E PUSH1 0x0 DUP4 ADD DUP7 PUSH2 0xBCF JUMP JUMPDEST PUSH2 0xC1B PUSH1 0x20 DUP4 ADD DUP6 PUSH2 0xBCF JUMP JUMPDEST PUSH2 0xC28 PUSH1 0x40 DUP4 ADD DUP5 PUSH2 0xBEA JUMP JUMPDEST SWAP5 SWAP4 POP POP POP POP JUMP JUMPDEST PUSH32 0x4E487B7100000000000000000000000000000000000000000000000000000000 PUSH1 0x0 MSTORE PUSH1 0x21 PUSH1 0x4 MSTORE PUSH1 0x24 PUSH1 0x0 REVERT JUMPDEST PUSH1 0x5 DUP2 LT PUSH2 0xC70 JUMPI PUSH2 0xC6F PUSH2 0xC30 JUMP JUMPDEST JUMPDEST POP JUMP JUMPDEST PUSH1 0x0 DUP2 SWAP1 POP PUSH2 0xC81 DUP3 PUSH2 0xC5F JUMP JUMPDEST SWAP2 SWAP1 POP JUMP JUMPDEST PUSH1 0x0 PUSH2 0xC91 DUP3 PUSH2 0xC73 JUMP JUMPDEST SWAP1 POP SWAP2 SWAP1 POP JUMP JUMPDEST PUSH2 0xCA1 DUP2 PUSH2 0xC86 JUMP JUMPDEST DUP3 MSTORE POP POP JUMP JUMPDEST PUSH1 0x0 PUSH1 0x20 DUP3 ADD SWAP1 POP PUSH2 0xCBC PUSH1 0x0 DUP4 ADD DUP5 PUSH2 0xC98 JUMP JUMPDEST SWAP3 SWAP2 POP POP JUMP JUMPDEST PUSH1 0x0 PUSH20 0xFFFFFFFFFFFFFFFFFFFFFFFFFFFFFFFFFFFFFFFF DUP3 AND SWAP1 POP SWAP2 SWAP1 POP JUMP JUMPDEST PUSH1 0x0 PUSH2 0xCED DUP3 PUSH2 0xCC2 JUMP JUMPDEST SWAP1 POP SWAP2 SWAP1 POP JUMP JUMPDEST PUSH2 0xCFD DUP2 PUSH2 0xCE2 JUMP JUMPDEST DUP2 EQ PUSH2 0xD08 JUMPI PUSH1 0x0 DUP1 REVERT JUMPDEST POP JUMP JUMPDEST PUSH1 0x0 DUP2 CALLDATALOAD SWAP1 POP PUSH2 0xD1A DUP2 PUSH2 0xCF4 JUMP JUMPDEST SWAP3 SWAP2 POP POP JUMP JUMPDEST PUSH2 0xD29 DUP2 PUSH2 0xBC5 JUMP JUMPDEST DUP2 EQ PUSH2 0xD34 JUMPI PUSH1 0x0 DUP1 REVERT JUMPDEST POP JUMP JUMPDEST PUSH1 0x0 DUP2 CALLDATALOAD SWAP1 POP PUSH2 0xD46 DUP2 PUSH2 0xD20 JUMP JUMPDEST SWAP3 SWAP2 POP POP JUMP JUMPDEST PUSH1 0x0 DUP1 REVERT JUMPDEST PUSH1 0x0 DUP1 REVERT JUMPDEST PUSH1 0x0 DUP1 REVERT JUMPDEST PUSH1 0x0 DUP1 DUP4 PUSH1 0x1F DUP5 ADD SLT PUSH2 0xD71 JUMPI PUSH2 0xD70 PUSH2 0xD4C JUMP JUMPDEST JUMPDEST DUP3 CALLDATALOAD SWAP1 POP PUSH8 0xFFFFFFFFFFFFFFFF DUP2 GT ISZERO PUSH2 0xD8E JUMPI PUSH2 0xD8D PUSH2 0xD51 JUMP JUMPDEST JUMPDEST PUSH1 0x20 DUP4 ADD SWAP2 POP DUP4 PUSH1 0x1 DUP3 MUL DUP4 ADD GT ISZERO PUSH2 0xDAA JUMPI PUSH2 0xDA9 PUSH2 0xD56 JUMP JUMPDEST JUMPDEST SWAP3 POP SWAP3 SWAP1 POP JUMP JUMPDEST PUSH1 0x0 DUP1 DUP4 PUSH1 0x1F DUP5 ADD SLT PUSH2 0xDC7 JUMPI PUSH2 0xDC6 PUSH2 0xD4C JUMP JUMPDEST JUMPDEST DUP3 CALLDATALOAD SWAP1 POP PUSH8 0xFFFFFFFFFFFFFFFF DUP2 GT ISZERO PUSH2 0xDE4 JUMPI PUSH2 0xDE3 PUSH2 0xD51 JUMP JUMPDEST JUMPDEST PUSH1 0x20 DUP4 ADD SWAP2 POP DUP4 PUSH1 0x1 DUP3 MUL DUP4 ADD GT ISZERO PUSH2 0xE00 JUMPI PUSH2 0xDFF PUSH2 0xD56 JUMP JUMPDEST JUMPDEST SWAP3 POP SWAP3 SWAP1 POP JUMP JUMPDEST PUSH1 0x0 DUP1 PUSH1 0x0 DUP1 PUSH1 0x0 DUP1 PUSH1 0x0 DUP1 PUSH1 0xA0 DUP10 DUP12 SUB SLT ISZERO PUSH2 0xE27 JUMPI PUSH2 0xE26 PUSH2 0xB58 JUMP JUMPDEST JUMPDEST PUSH1 0x0 PUSH2 0xE35 DUP12 DUP3 DUP13 ADD PUSH2 0xD0B JUMP JUMPDEST SWAP9 POP POP PUSH1 0x20 PUSH2 0xE46 DUP12 DUP3 DUP13 ADD PUSH2 0xD37 JUMP JUMPDEST SWAP8 POP POP PUSH1 0x40 DUP10 ADD CALLDATALOAD PUSH8 0xFFFFFFFFFFFFFFFF DUP2 GT ISZERO PUSH2 0xE67 JUMPI PUSH2 0xE66 PUSH2 0xB5D JUMP JUMPDEST JUMPDEST PUSH2 0xE73 DUP12 DUP3 DUP13 ADD PUSH2 0xD5B JUMP JUMPDEST SWAP7 POP SWAP7 POP POP PUSH1 0x60 DUP10 ADD CALLDATALOAD PUSH8 0xFFFFFFFFFFFFFFFF DUP2 GT ISZERO PUSH2 0xE96 JUMPI PUSH2 0xE95 PUSH2 0xB5D JUMP JUMPDEST JUMPDEST PUSH2 0xEA2 DUP12 DUP3 DUP13 ADD PUSH2 0xDB1 JUMP JUMPDEST SWAP5 POP SWAP5 POP POP PUSH1 0x80 DUP10 ADD CALLDATALOAD PUSH8 0xFFFFFFFFFFFFFFFF DUP2 GT ISZERO PUSH2 0xEC5 JUMPI PUSH2 0xEC4 PUSH2 0xB5D JUMP JUMPDEST JUMPDEST PUSH2 0xED1 DUP12 DUP3 DUP13 ADD PUSH2 0xD5B JUMP JUMPDEST SWAP3 POP SWAP3 POP POP SWAP3 SWAP6 SWAP9 POP SWAP3 SWAP6 SWAP9 SWAP1 SWAP4 SWAP7 POP JUMP JUMPDEST PUSH2 0xEEC DUP2 PUSH2 0xB62 JUMP JUMPDEST DUP3 MSTORE POP POP JUMP JUMPDEST PUSH1 0x0 PUSH1 0x20 DUP3 ADD SWAP1 POP PUSH2 0xF07 PUSH1 0x0 DUP4 ADD DUP5 PUSH2 0xEE3 JUMP JUMPDEST SWAP3 SWAP2 POP POP JUMP JUMPDEST PUSH1 0x0 PUSH1 0x20 DUP3 ADD SWAP1 POP PUSH2 0xF22 PUSH1 0x0 DUP4 ADD DUP5 PUSH2 0xBCF JUMP JUMPDEST SWAP3 SWAP2 POP POP JUMP JUMPDEST PUSH1 0x0 DUP1 PUSH1 0x0 DUP1 PUSH1 0x0 DUP1 PUSH1 0x0 PUSH1 0xA0 DUP9 DUP11 SUB SLT ISZERO PUSH2 0xF47 JUMPI PUSH2 0xF46 PUSH2 0xB58 JUMP JUMPDEST JUMPDEST PUSH1 0x0 PUSH2 0xF55 DUP11 DUP3 DUP12 ADD PUSH2 0xD0B JUMP JUMPDEST SWAP8 POP POP PUSH1 0x20 PUSH2 0xF66 DUP11 DUP3 DUP12 ADD PUSH2 0xD37 JUMP JUMPDEST SWAP7 POP POP PUSH1 0x40 DUP9 ADD CALLDATALOAD PUSH8 0xFFFFFFFFFFFFFFFF DUP2 GT ISZERO PUSH2 0xF87 JUMPI PUSH2 0xF86 PUSH2 0xB5D JUMP JUMPDEST JUMPDEST PUSH2 0xF93 DUP11 DUP3 DUP12 ADD PUSH2 0xD5B JUMP JUMPDEST SWAP6 POP SWAP6 POP POP PUSH1 0x60 DUP9 ADD CALLDATALOAD PUSH8 0xFFFFFFFFFFFFFFFF DUP2 GT ISZERO PUSH2 0xFB6 JUMPI PUSH2 0xFB5 PUSH2 0xB5D JUMP JUMPDEST JUMPDEST PUSH2 0xFC2 DUP11 DUP3 DUP12 ADD PUSH2 0xDB1 JUMP JUMPDEST SWAP4 POP SWAP4 POP POP PUSH1 0x80 PUSH2 0xFD5 DUP11 DUP3 DUP12 ADD PUSH2 0xB83 JUMP JUMPDEST SWAP2 POP POP SWAP3 SWAP6 SWAP9 SWAP2 SWAP5 SWAP8 POP SWAP3 SWAP6 POP JUMP JUMPDEST PUSH1 0x0 DUP2 MLOAD SWAP1 POP SWAP2 SWAP1 POP JUMP JUMPDEST PUSH1 0x0 DUP3 DUP3 MSTORE PUSH1 0x20 DUP3 ADD SWAP1 POP SWAP3 SWAP2 POP POP JUMP JUMPDEST PUSH1 0x0 JUMPDEST DUP4 DUP2 LT ISZERO PUSH2 0x101E JUMPI DUP1 DUP3 ADD MLOAD DUP2 DUP5 ADD MSTORE PUSH1 0x20 DUP2 ADD SWAP1 POP PUSH2 0x1003 JUMP JUMPDEST PUSH1 0x0 DUP5 DUP5 ADD MSTORE POP POP POP POP JUMP JUMPDEST PUSH1 0x0 PUSH1 0x1F NOT PUSH1 0x1F DUP4 ADD AND SWAP1 POP SWAP2 SWAP1 POP JUMP JUMPDEST PUSH1 0x0 PUSH2 0x1046 DUP3 PUSH2 0xFE4 JUMP JUMPDEST PUSH2 0x1050 DUP2 DUP6 PUSH2 0xFEF JUMP JUMPDEST SWAP4 POP PUSH2 0x1060 DUP2 DUP6 PUSH1 0x20 DUP7 ADD PUSH2 0x1000 JUMP JUMPDEST PUSH2 0x1069 DUP2 PUSH2 0x102A JUMP JUMPDEST DUP5 ADD SWAP2 POP POP SWAP3 SWAP2 POP POP JUMP JUMPDEST PUSH1 0x0 PUSH1 0x20 DUP3 ADD SWAP1 POP DUP2 DUP2 SUB PUSH1 0x0 DUP4 ADD MSTORE PUSH2 0x108E DUP2 DUP5 PUSH2 0x103B JUMP JUMPDEST SWAP1 POP SWAP3 SWAP2 POP POP JUMP JUMPDEST PUSH1 0x0 PUSH1 0xFF DUP3 AND SWAP1 POP SWAP2 SWAP1 POP JUMP JUMPDEST PUSH2 0x10AC DUP2 PUSH2 0x1096 JUMP JUMPDEST DUP2 EQ PUSH2 0x10B7 JUMPI PUSH1 0x0 DUP1 REVERT JUMPDEST POP JUMP JUMPDEST PUSH1 0x0 DUP2 CALLDATALOAD SWAP1 POP PUSH2 0x10C9 DUP2 PUSH2 0x10A3 JUMP JUMPDEST SWAP3 SWAP2 POP POP JUMP JUMPDEST PUSH1 0x0 DUP1 PUSH1 0x40 DUP4 DUP6 SUB SLT ISZERO PUSH2 0x10E6 JUMPI PUSH2 0x10E5 PUSH2 0xB58 JUMP JUMPDEST JUMPDEST PUSH1 0x0 PUSH2 0x10F4 DUP6 DUP3 DUP7 ADD PUSH2 0xB83 JUMP JUMPDEST SWAP3 POP POP PUSH1 0x20 PUSH2 0x1105 DUP6 DUP3 DUP7 ADD PUSH2 0x10BA JUMP JUMPDEST SWAP2 POP POP SWAP3 POP SWAP3 SWAP1 POP JUMP JUMPDEST PUSH1 0x0 PUSH1 0x60 DUP3 ADD SWAP1 POP PUSH2 0x1124 PUSH1 0x0 DUP4 ADD DUP7 PUSH2 0xBCF JUMP JUMPDEST PUSH2 0x1131 PUSH1 0x20 DUP4 ADD DUP6 PUSH2 0xBCF JUMP JUMPDEST PUSH2 0x113E PUSH1 0x40 DUP4 ADD DUP5 PUSH2 0xBCF JUMP JUMPDEST SWAP5 SWAP4 POP POP POP POP JUMP JUMPDEST PUSH1 0x0 DUP2 SWAP1 POP SWAP2 SWAP1 POP JUMP JUMPDEST PUSH1 0x0 PUSH2 0x116B PUSH2 0x1166 PUSH2 0x1161 DUP5 PUSH2 0xCC2 JUMP JUMPDEST PUSH2 0x1146 JUMP JUMPDEST PUSH2 0xCC2 JUMP JUMPDEST SWAP1 POP SWAP2 SWAP1 POP JUMP JUMPDEST PUSH1 0x0 PUSH2 0x117D DUP3 PUSH2 0x1150 JUMP JUMPDEST SWAP1 POP SWAP2 SWAP1 POP JUMP JUMPDEST PUSH1 0x0 PUSH2 0x118F DUP3 PUSH2 0x1172 JUMP JUMPDEST SWAP1 POP SWAP2 SWAP1 POP JUMP JUMPDEST PUSH2 0x119F DUP2 PUSH2 0x1184 JUMP JUMPDEST DUP3 MSTORE POP POP JUMP JUMPDEST PUSH1 0x0 PUSH1 0x20 DUP3 ADD SWAP1 POP PUSH2 0x11BA PUSH1 0x0 DUP4 ADD DUP5 PUSH2 0x1196 JUMP JUMPDEST SWAP3 SWAP2 POP POP JUMP JUMPDEST PUSH1 0x0 DUP3 DUP3 MSTORE PUSH1 0x20 DUP3 ADD SWAP1 POP SWAP3 SWAP2 POP POP JUMP JUMPDEST PUSH32 0x70726F706F73616C20646F65736E742065786973740000000000000000000000 PUSH1 0x0 DUP3 ADD MSTORE POP JUMP JUMPDEST PUSH1 0x0 PUSH2 0x1207 PUSH1 0x15 DUP4 PUSH2 0x11C0 JUMP JUMPDEST SWAP2 POP PUSH2 0x1212 DUP3 PUSH2 0x11D1 JUMP JUMPDEST PUSH1 0x20 DUP3 ADD SWAP1 POP SWAP2 SWAP1 POP JUMP JUMPDEST PUSH1 0x0 PUSH1 0x20 DUP3 ADD SWAP1 POP DUP2 DUP2 SUB PUSH1 0x0 DUP4 ADD MSTORE PUSH2 0x1236 DUP2 PUSH2 0x11FA JUMP JUMPDEST SWAP1 POP SWAP2 SWAP1 POP JUMP JUMPDEST PUSH2 0x1246 DUP2 PUSH2 0xCE2 JUMP JUMPDEST DUP3 MSTORE POP POP JUMP JUMPDEST PUSH1 0x0 PUSH1 0x20 DUP3 ADD SWAP1 POP PUSH2 0x1261 PUSH1 0x0 DUP4 ADD DUP5 PUSH2 0x123D JUMP JUMPDEST SWAP3 SWAP2 POP POP JUMP JUMPDEST PUSH1 0x0 DUP2 MLOAD SWAP1 POP PUSH2 0x1276 DUP2 PUSH2 0xD20 JUMP JUMPDEST SWAP3 SWAP2 POP POP JUMP JUMPDEST PUSH1 0x0 PUSH1 0x20 DUP3 DUP5 SUB SLT ISZERO PUSH2 0x1292 JUMPI PUSH2 0x1291 PUSH2 0xB58 JUMP JUMPDEST JUMPDEST PUSH1 0x0 PUSH2 0x12A0 DUP5 DUP3 DUP6 ADD PUSH2 0x1267 JUMP JUMPDEST SWAP2 POP POP SWAP3 SWAP2 POP POP JUMP JUMPDEST PUSH32 0x6E6F7420656E6F75676820746F6B656E73000000000000000000000000000000 PUSH1 0x0 DUP3 ADD MSTORE POP JUMP JUMPDEST PUSH1 0x0 PUSH2 0x12DF PUSH1 0x11 DUP4 PUSH2 0x11C0 JUMP JUMPDEST SWAP2 POP PUSH2 0x12EA DUP3 PUSH2 0x12A9 JUMP JUMPDEST PUSH1 0x20 DUP3 ADD SWAP1 POP SWAP2 SWAP1 POP JUMP JUMPDEST PUSH1 0x0 PUSH1 0x20 DUP3 ADD SWAP1 POP DUP2 DUP2 SUB PUSH1 0x0 DUP4 ADD MSTORE PUSH2 0x130E DUP2 PUSH2 0x12D2 JUMP JUMPDEST SWAP1 POP SWAP2 SWAP1 POP JUMP JUMPDEST PUSH1 0x0 DUP2 SWAP1 POP SWAP3 SWAP2 POP POP JUMP JUMPDEST DUP3 DUP2 DUP4 CALLDATACOPY PUSH1 0x0 DUP4 DUP4 ADD MSTORE POP POP POP JUMP JUMPDEST PUSH1 0x0 PUSH2 0x133B DUP4 DUP6 PUSH2 0x1315 JUMP JUMPDEST SWAP4 POP PUSH2 0x1348 DUP4 DUP6 DUP5 PUSH2 0x1320 JUMP JUMPDEST DUP3 DUP5 ADD SWAP1 POP SWAP4 SWAP3 POP POP POP JUMP JUMPDEST PUSH1 0x0 PUSH2 0x1361 DUP3 DUP5 DUP7 PUSH2 0x132F JUMP JUMPDEST SWAP2 POP DUP2 SWAP1 POP SWAP4 SWAP3 POP POP POP JUMP JUMPDEST PUSH32 0x70726F706F73616C20616C726561647920657869737473000000000000000000 PUSH1 0x0 DUP3 ADD MSTORE POP JUMP JUMPDEST PUSH1 0x0 PUSH2 0x13A3 PUSH1 0x17 DUP4 PUSH2 0x11C0 JUMP JUMPDEST SWAP2 POP PUSH2 0x13AE DUP3 PUSH2 0x136D JUMP JUMPDEST PUSH1 0x20 DUP3 ADD SWAP1 POP SWAP2 SWAP1 POP JUMP JUMPDEST PUSH1 0x0 PUSH1 0x20 DUP3 ADD SWAP1 POP DUP2 DUP2 SUB PUSH1 0x0 DUP4 ADD MSTORE PUSH2 0x13D2 DUP2 PUSH2 0x1396 JUMP JUMPDEST SWAP1 POP SWAP2 SWAP1 POP JUMP JUMPDEST PUSH32 0x4E487B7100000000000000000000000000000000000000000000000000000000 PUSH1 0x0 MSTORE PUSH1 0x11 PUSH1 0x4 MSTORE PUSH1 0x24 PUSH1 0x0 REVERT JUMPDEST PUSH1 0x0 PUSH2 0x1413 DUP3 PUSH2 0xBC5 JUMP JUMPDEST SWAP2 POP PUSH2 0x141E DUP4 PUSH2 0xBC5 JUMP JUMPDEST SWAP3 POP DUP3 DUP3 ADD SWAP1 POP DUP1 DUP3 GT ISZERO PUSH2 0x1436 JUMPI PUSH2 0x1435 PUSH2 0x13D9 JUMP JUMPDEST JUMPDEST SWAP3 SWAP2 POP POP JUMP JUMPDEST PUSH32 0x696E76616C696420737461746500000000000000000000000000000000000000 PUSH1 0x0 DUP3 ADD MSTORE POP JUMP JUMPDEST PUSH1 0x0 PUSH2 0x1472 PUSH1 0xD DUP4 PUSH2 0x11C0 JUMP JUMPDEST SWAP2 POP PUSH2 0x147D DUP3 PUSH2 0x143C JUMP JUMPDEST PUSH1 0x20 DUP3 ADD SWAP1 POP SWAP2 SWAP1 POP JUMP JUMPDEST PUSH1 0x0 PUSH1 0x20 DUP3 ADD SWAP1 POP DUP2 DUP2 SUB PUSH1 0x0 DUP4 ADD MSTORE PUSH2 0x14A1 DUP2 PUSH2 0x1465 JUMP JUMPDEST SWAP1 POP SWAP2 SWAP1 POP JUMP JUMPDEST PUSH1 0x0 PUSH32 0xFFFFFFFF00000000000000000000000000000000000000000000000000000000 DUP3 AND SWAP1 POP SWAP2 SWAP1 POP JUMP JUMPDEST PUSH1 0x0 DUP2 SWAP1 POP SWAP2 SWAP1 POP JUMP JUMPDEST PUSH2 0x14EF PUSH2 0x14EA DUP3 PUSH2 0x14A8 JUMP JUMPDEST PUSH2 0x14D4 JUMP JUMPDEST DUP3 MSTORE POP POP JUMP JUMPDEST PUSH1 0x0 PUSH2 0x1501 DUP3 DUP7 PUSH2 0x14DE JUMP JUMPDEST PUSH1 0x4 DUP3 ADD SWAP2 POP PUSH2 0x1512 DUP3 DUP5 DUP7 PUSH2 0x132F JUMP JUMPDEST SWAP2 POP DUP2 SWAP1 POP SWAP5 SWAP4 POP POP POP POP JUMP JUMPDEST PUSH1 0x0 PUSH2 0x152A DUP3 PUSH2 0xFE4 JUMP JUMPDEST PUSH2 0x1534 DUP2 DUP6 PUSH2 0x1315 JUMP JUMPDEST SWAP4 POP PUSH2 0x1544 DUP2 DUP6 PUSH1 0x20 DUP7 ADD PUSH2 0x1000 JUMP JUMPDEST DUP1 DUP5 ADD SWAP2 POP POP SWAP3 SWAP2 POP POP JUMP JUMPDEST PUSH1 0x0 PUSH2 0x155C DUP3 DUP5 PUSH2 0x151F JUMP JUMPDEST SWAP2 POP DUP2 SWAP1 POP SWAP3 SWAP2 POP POP JUMP JUMPDEST PUSH32 0x7478206661696C65640000000000000000000000000000000000000000000000 PUSH1 0x0 DUP3 ADD MSTORE POP JUMP JUMPDEST PUSH1 0x0 PUSH2 0x159D PUSH1 0x9 DUP4 PUSH2 0x11C0 JUMP JUMPDEST SWAP2 POP PUSH2 0x15A8 DUP3 PUSH2 0x1567 JUMP JUMPDEST PUSH1 0x20 DUP3 ADD SWAP1 POP SWAP2 SWAP1 POP JUMP JUMPDEST PUSH1 0x0 PUSH1 0x20 DUP3 ADD SWAP1 POP DUP2 DUP2 SUB PUSH1 0x0 DUP4 ADD MSTORE PUSH2 0x15CC DUP2 PUSH2 0x1590 JUMP JUMPDEST SWAP1 POP SWAP2 SWAP1 POP JUMP JUMPDEST PUSH32 0x616C726561647920766F74656400000000000000000000000000000000000000 PUSH1 0x0 DUP3 ADD MSTORE POP JUMP JUMPDEST PUSH1 0x0 PUSH2 0x1609 PUSH1 0xD DUP4 PUSH2 0x11C0 JUMP JUMPDEST SWAP2 POP PUSH2 0x1614 DUP3 PUSH2 0x15D3 JUMP JUMPDEST PUSH1 0x20 DUP3 ADD SWAP1 POP SWAP2 SWAP1 POP JUMP JUMPDEST PUSH1 0x0 PUSH1 0x20 DUP3 ADD SWAP1 POP DUP2 DUP2 SUB PUSH1 0x0 DUP4 ADD MSTORE PUSH2 0x1638 DUP2 PUSH2 0x15FC JUMP JUMPDEST SWAP1 POP SWAP2 SWAP1 POP JUMP JUMPDEST PUSH1 0x0 PUSH2 0x164B DUP4 DUP6 PUSH2 0x11C0 JUMP JUMPDEST SWAP4 POP PUSH2 0x1658 DUP4 DUP6 DUP5 PUSH2 0x1320 JUMP JUMPDEST PUSH2 0x1661 DUP4 PUSH2 0x102A JUMP JUMPDEST DUP5 ADD SWAP1 POP SWAP4 SWAP3 POP POP POP JUMP JUMPDEST PUSH1 0x0 PUSH2 0x1678 DUP4 DUP6 PUSH2 0xFEF JUMP JUMPDEST SWAP4 POP PUSH2 0x1685 DUP4 DUP6 DUP5 PUSH2 0x1320 JUMP JUMPDEST PUSH2 0x168E DUP4 PUSH2 0x102A JUMP JUMPDEST DUP5 ADD SWAP1 POP SWAP4 SWAP3 POP POP POP JUMP JUMPDEST PUSH1 0x0 PUSH1 0xA0 DUP3 ADD SWAP1 POP PUSH2 0x16AE PUSH1 0x0 DUP4 ADD DUP11 PUSH2 0x123D JUMP JUMPDEST PUSH2 0x16BB PUSH1 0x20 DUP4 ADD DUP10 PUSH2 0xBCF JUMP JUMPDEST DUP2 DUP2 SUB PUSH1 0x40 DUP4 ADD MSTORE PUSH2 0x16CE DUP2 DUP8 DUP10 PUSH2 0x163F JUMP JUMPDEST SWAP1 POP DUP2 DUP2 SUB PUSH1 0x60 DUP4 ADD MSTORE PUSH2 0x16E3 DUP2 DUP6 DUP8 PUSH2 0x166C JUMP JUMPDEST SWAP1 POP PUSH2 0x16F2 PUSH1 0x80 DUP4 ADD DUP5 PUSH2 0xEE3 JUMP JUMPDEST SWAP9 SWAP8 POP POP POP POP POP POP POP POP JUMP INVALID LOG2 PUSH5 0x6970667358 0x22 SLT KECCAK256 0xEE 0xFB SWAP9 0xAF 0xE7 ORIGIN 0xFB 0xDB 0xB6 DUP15 0xE4 0x2D 0xD7 PUSH13 0x1B6323EBE24CAC91CCBFA0CED 0xC3 0xCE LT 0xCC 0x5E PUSH5 0x736F6C6343 STOP ADDMOD LT STOP CALLER "
				},
				"gasEstimates": {
					"creation": {
						"codeDepositCost": "1188000",
						"executionCost": "infinite",
						"totalCost": "infinite"
					},
					"external": {
						"VOTING_DELAY()": "395",
						"VOTING_DURATION()": "396",
						"execute(address,uint256,string,bytes,bytes32)": "infinite",
						"proposalVotes(bytes32)": "infinite",
						"proposals(bytes32)": "infinite",
						"propose(address,uint256,string,bytes,string)": "infinite",
						"state(bytes32)": "15843",
						"token()": "infinite",
						"vote(bytes32,uint8)": "infinite"
					},
					"internal": {
						"generateProposalId(address,uint256,string calldata,bytes calldata,bytes32)": "infinite"
					}
				},
				"methodIdentifiers": {
					"VOTING_DELAY()": "d6159fe5",
					"VOTING_DURATION()": "a438d208",
					"execute(address,uint256,string,bytes,bytes32)": "bb0f4b15",
					"proposalVotes(bytes32)": "d14b85b9",
					"proposals(bytes32)": "32ed5b12",
					"propose(address,uint256,string,bytes,string)": "8524c65d",
					"state(bytes32)": "61d585da",
					"token()": "fc0c546a",
					"vote(bytes32,uint8)": "c9a28cb9"
				}
			},
			"storageLayout": {
				"storage": [
					{
						"astId": 31,
						"contract": "Desktop/work/dao-company/contracts/Governance.sol:Governance",
						"label": "proposals",
						"offset": 0,
						"slot": "0",
						"type": "t_mapping(t_bytes32,t_struct(Proposal)20_storage)"
					},
					{
						"astId": 36,
						"contract": "Desktop/work/dao-company/contracts/Governance.sol:Governance",
						"label": "proposalVotes",
						"offset": 0,
						"slot": "1",
						"type": "t_mapping(t_bytes32,t_struct(ProposalVote)13_storage)"
					},
					{
						"astId": 39,
						"contract": "Desktop/work/dao-company/contracts/Governance.sol:Governance",
						"label": "token",
						"offset": 0,
						"slot": "2",
						"type": "t_contract(IERC20)512"
					}
				],
				"types": {
					"t_address": {
						"encoding": "inplace",
						"label": "address",
						"numberOfBytes": "20"
					},
					"t_bool": {
						"encoding": "inplace",
						"label": "bool",
						"numberOfBytes": "1"
					},
					"t_bytes32": {
						"encoding": "inplace",
						"label": "bytes32",
						"numberOfBytes": "32"
					},
					"t_contract(IERC20)512": {
						"encoding": "inplace",
						"label": "contract IERC20",
						"numberOfBytes": "20"
					},
					"t_mapping(t_address,t_bool)": {
						"encoding": "mapping",
						"key": "t_address",
						"label": "mapping(address => bool)",
						"numberOfBytes": "32",
						"value": "t_bool"
					},
					"t_mapping(t_bytes32,t_struct(Proposal)20_storage)": {
						"encoding": "mapping",
						"key": "t_bytes32",
						"label": "mapping(bytes32 => struct Governance.Proposal)",
						"numberOfBytes": "32",
						"value": "t_struct(Proposal)20_storage"
					},
					"t_mapping(t_bytes32,t_struct(ProposalVote)13_storage)": {
						"encoding": "mapping",
						"key": "t_bytes32",
						"label": "mapping(bytes32 => struct Governance.ProposalVote)",
						"numberOfBytes": "32",
						"value": "t_struct(ProposalVote)13_storage"
					},
					"t_struct(Proposal)20_storage": {
						"encoding": "inplace",
						"label": "struct Governance.Proposal",
						"members": [
							{
								"astId": 15,
								"contract": "Desktop/work/dao-company/contracts/Governance.sol:Governance",
								"label": "votingStarts",
								"offset": 0,
								"slot": "0",
								"type": "t_uint256"
							},
							{
								"astId": 17,
								"contract": "Desktop/work/dao-company/contracts/Governance.sol:Governance",
								"label": "votingEnds",
								"offset": 0,
								"slot": "1",
								"type": "t_uint256"
							},
							{
								"astId": 19,
								"contract": "Desktop/work/dao-company/contracts/Governance.sol:Governance",
								"label": "executed",
								"offset": 0,
								"slot": "2",
								"type": "t_bool"
							}
						],
						"numberOfBytes": "96"
					},
					"t_struct(ProposalVote)13_storage": {
						"encoding": "inplace",
						"label": "struct Governance.ProposalVote",
						"members": [
							{
								"astId": 4,
								"contract": "Desktop/work/dao-company/contracts/Governance.sol:Governance",
								"label": "againstVotes",
								"offset": 0,
								"slot": "0",
								"type": "t_uint256"
							},
							{
								"astId": 6,
								"contract": "Desktop/work/dao-company/contracts/Governance.sol:Governance",
								"label": "forVotes",
								"offset": 0,
								"slot": "1",
								"type": "t_uint256"
							},
							{
								"astId": 8,
								"contract": "Desktop/work/dao-company/contracts/Governance.sol:Governance",
								"label": "abstainVotes",
								"offset": 0,
								"slot": "2",
								"type": "t_uint256"
							},
							{
								"astId": 12,
								"contract": "Desktop/work/dao-company/contracts/Governance.sol:Governance",
								"label": "hasVoted",
								"offset": 0,
								"slot": "3",
								"type": "t_mapping(t_address,t_bool)"
							}
						],
						"numberOfBytes": "128"
					},
					"t_uint256": {
						"encoding": "inplace",
						"label": "uint256",
						"numberOfBytes": "32"
					}
				}
			},
			"userdoc": {
				"kind": "user",
				"methods": {},
				"version": 1
			}
		}
	}
}