{
	"Desktop/work/dao-company/contracts/ERC20.sol": {
		"ERC20": {
			"abi": [
				{
					"inputs": [
						{
							"internalType": "string",
							"name": "name_",
							"type": "string"
						},
						{
							"internalType": "string",
							"name": "symbol_",
							"type": "string"
						},
						{
							"internalType": "uint256",
							"name": "initialSupply",
							"type": "uint256"
						}
					],
					"stateMutability": "nonpayable",
					"type": "constructor"
				},
				{
					"anonymous": false,
					"inputs": [
						{
							"indexed": true,
							"internalType": "address",
							"name": "owner",
							"type": "address"
						},
						{
							"indexed": true,
							"internalType": "address",
							"name": "to",
							"type": "address"
						},
						{
							"indexed": false,
							"internalType": "uint256",
							"name": "amount",
							"type": "uint256"
						}
					],
					"name": "Approve",
					"type": "event"
				},
				{
					"anonymous": false,
					"inputs": [
						{
							"indexed": true,
							"internalType": "address",
							"name": "from",
							"type": "address"
						},
						{
							"indexed": true,
							"internalType": "address",
							"name": "to",
							"type": "address"
						},
						{
							"indexed": false,
							"internalType": "uint256",
							"name": "amount",
							"type": "uint256"
						}
					],
					"name": "Transfer",
					"type": "event"
				},
				{
					"inputs": [
						{
							"internalType": "address",
							"name": "_owner",
							"type": "address"
						},
						{
							"internalType": "address",
							"name": "spender",
							"type": "address"
						}
					],
					"name": "allowance",
					"outputs": [
						{
							"internalType": "uint256",
							"name": "",
							"type": "uint256"
						}
					],
					"stateMutability": "view",
					"type": "function"
				},
				{
					"inputs": [
						{
							"internalType": "address",
							"name": "spender",
							"type": "address"
						},
						{
							"internalType": "uint256",
							"name": "amount",
							"type": "uint256"
						}
					],
					"name": "approve",
					"outputs": [],
					"stateMutability": "nonpayable",
					"type": "function"
				},
				{
					"inputs": [
						{
							"internalType": "address",
							"name": "account",
							"type": "address"
						}
					],
					"name": "balanceOf",
					"outputs": [
						{
							"internalType": "uint256",
							"name": "",
							"type": "uint256"
						}
					],
					"stateMutability": "view",
					"type": "function"
				},
				{
					"inputs": [
						{
							"internalType": "address",
							"name": "_from",
							"type": "address"
						},
						{
							"internalType": "uint256",
							"name": "_amount",
							"type": "uint256"
						}
					],
					"name": "burn",
					"outputs": [],
					"stateMutability": "nonpayable",
					"type": "function"
				},
				{
					"inputs": [],
					"name": "decimals",
					"outputs": [
						{
							"internalType": "uint256",
							"name": "",
							"type": "uint256"
						}
					],
					"stateMutability": "pure",
					"type": "function"
				},
				{
					"inputs": [
						{
							"internalType": "uint256",
							"name": "amount",
							"type": "uint256"
						},
						{
							"internalType": "address",
							"name": "_to",
							"type": "address"
						}
					],
					"name": "mint",
					"outputs": [],
					"stateMutability": "nonpayable",
					"type": "function"
				},
				{
					"inputs": [],
					"name": "name",
					"outputs": [
						{
							"internalType": "string",
							"name": "",
							"type": "string"
						}
					],
					"stateMutability": "view",
					"type": "function"
				},
				{
					"inputs": [],
					"name": "symbol",
					"outputs": [
						{
							"internalType": "string",
							"name": "",
							"type": "string"
						}
					],
					"stateMutability": "view",
					"type": "function"
				},
				{
					"inputs": [],
					"name": "totalSupply",
					"outputs": [
						{
							"internalType": "uint256",
							"name": "",
							"type": "uint256"
						}
					],
					"stateMutability": "view",
					"type": "function"
				},
				{
					"inputs": [
						{
							"internalType": "address",
							"name": "to",
							"type": "address"
						},
						{
							"internalType": "uint256",
							"name": "amount",
							"type": "uint256"
						}
					],
					"name": "transfer",
					"outputs": [],
					"stateMutability": "nonpayable",
					"type": "function"
				},
				{
					"inputs": [
						{
							"internalType": "address",
							"name": "sender",
							"type": "address"
						},
						{
							"internalType": "address",
							"name": "recipient",
							"type": "address"
						},
						{
							"internalType": "uint256",
							"name": "amount",
							"type": "uint256"
						}
					],
					"name": "transferFrom",
					"outputs": [],
					"stateMutability": "nonpayable",
					"type": "function"
				}
			],
			"devdoc": {
				"kind": "dev",
				"methods": {},
				"version": 1
			},
			"evm": {
				"assembly": "    /* \"Desktop/work/dao-company/contracts/ERC20.sol\":82:2717  contract ERC20 is IERC20 {... */\n  mstore(0x40, 0x80)\n    /* \"Desktop/work/dao-company/contracts/ERC20.sol\":536:763  constructor(... */\n  callvalue\n  dup1\n  iszero\n  tag_1\n  jumpi\n  0x00\n  dup1\n  revert\ntag_1:\n  pop\n  mload(0x40)\n  sub(codesize, bytecodeSize)\n  dup1\n  bytecodeSize\n  dup4\n  codecopy\n  dup2\n  dup2\n  add\n  0x40\n  mstore\n  dup2\n  add\n  swap1\n  tag_2\n  swap2\n  swap1\n  tag_3\n  jump\t// in\ntag_2:\n    /* \"Desktop/work/dao-company/contracts/ERC20.sol\":660:665  name_ */\n  dup3\n    /* \"Desktop/work/dao-company/contracts/ERC20.sol\":652:657  _name */\n  0x04\n    /* \"Desktop/work/dao-company/contracts/ERC20.sol\":652:665  _name = name_ */\n  swap1\n  dup2\n  tag_6\n  swap2\n  swap1\n  tag_7\n  jump\t// in\ntag_6:\n  pop\n    /* \"Desktop/work/dao-company/contracts/ERC20.sol\":685:692  symbol_ */\n  dup2\n    /* \"Desktop/work/dao-company/contracts/ERC20.sol\":675:682  _symbol */\n  0x05\n    /* \"Desktop/work/dao-company/contracts/ERC20.sol\":675:692  _symbol = symbol_ */\n  swap1\n  dup2\n  tag_8\n  swap2\n  swap1\n  tag_7\n  jump\t// in\ntag_8:\n  pop\n    /* \"Desktop/work/dao-company/contracts/ERC20.sol\":710:720  msg.sender */\n  caller\n    /* \"Desktop/work/dao-company/contracts/ERC20.sol\":702:707  owner */\n  0x01\n  0x00\n    /* \"Desktop/work/dao-company/contracts/ERC20.sol\":702:720  owner = msg.sender */\n  0x0100\n  exp\n  dup2\n  sload\n  dup2\n  0xffffffffffffffffffffffffffffffffffffffff\n  mul\n  not\n  and\n  swap1\n  dup4\n  0xffffffffffffffffffffffffffffffffffffffff\n  and\n  mul\n  or\n  swap1\n  sstore\n  pop\n    /* \"Desktop/work/dao-company/contracts/ERC20.sol\":730:756  mint(initialSupply, owner) */\n  tag_9\n    /* \"Desktop/work/dao-company/contracts/ERC20.sol\":735:748  initialSupply */\n  dup2\n    /* \"Desktop/work/dao-company/contracts/ERC20.sol\":750:755  owner */\n  0x01\n  0x00\n  swap1\n  sload\n  swap1\n  0x0100\n  exp\n  swap1\n  div\n  0xffffffffffffffffffffffffffffffffffffffff\n  and\n    /* \"Desktop/work/dao-company/contracts/ERC20.sol\":730:734  mint */\n  shl(0x20, tag_10)\n    /* \"Desktop/work/dao-company/contracts/ERC20.sol\":730:756  mint(initialSupply, owner) */\n  0x20\n  shr\n  jump\t// in\ntag_9:\n    /* \"Desktop/work/dao-company/contracts/ERC20.sol\":536:763  constructor(... */\n  pop\n  pop\n  pop\n    /* \"Desktop/work/dao-company/contracts/ERC20.sol\":82:2717  contract ERC20 is IERC20 {... */\n  jump(tag_11)\n    /* \"Desktop/work/dao-company/contracts/ERC20.sol\":2129:2362  function mint(uint amount, address _to) public onlyOwner {... */\ntag_10:\n    /* \"Desktop/work/dao-company/contracts/ERC20.sol\":489:494  owner */\n  0x01\n  0x00\n  swap1\n  sload\n  swap1\n  0x0100\n  exp\n  swap1\n  div\n  0xffffffffffffffffffffffffffffffffffffffff\n  and\n    /* \"Desktop/work/dao-company/contracts/ERC20.sol\":475:494  msg.sender == owner */\n  0xffffffffffffffffffffffffffffffffffffffff\n  and\n    /* \"Desktop/work/dao-company/contracts/ERC20.sol\":475:485  msg.sender */\n  caller\n    /* \"Desktop/work/dao-company/contracts/ERC20.sol\":475:494  msg.sender == owner */\n  0xffffffffffffffffffffffffffffffffffffffff\n  and\n  eq\n    /* \"Desktop/work/dao-company/contracts/ERC20.sol\":467:512  require(msg.sender == owner, \"not an owner!\") */\n  tag_13\n  jumpi\n  mload(0x40)\n  0x08c379a000000000000000000000000000000000000000000000000000000000\n  dup2\n  mstore\n  0x04\n  add\n  tag_14\n  swap1\n  tag_15\n  jump\t// in\ntag_14:\n  mload(0x40)\n  dup1\n  swap2\n  sub\n  swap1\n  revert\ntag_13:\n    /* \"Desktop/work/dao-company/contracts/ERC20.sol\":2196:2241  _beforeTokenTransfer(address(0), _to, amount) */\n  tag_17\n    /* \"Desktop/work/dao-company/contracts/ERC20.sol\":2225:2226  0 */\n  0x00\n    /* \"Desktop/work/dao-company/contracts/ERC20.sol\":2229:2232  _to */\n  dup3\n    /* \"Desktop/work/dao-company/contracts/ERC20.sol\":2234:2240  amount */\n  dup5\n    /* \"Desktop/work/dao-company/contracts/ERC20.sol\":2196:2216  _beforeTokenTransfer */\n  shl(0x20, tag_18)\n    /* \"Desktop/work/dao-company/contracts/ERC20.sol\":2196:2241  _beforeTokenTransfer(address(0), _to, amount) */\n  0x20\n  shr\n  jump\t// in\ntag_17:\n    /* \"Desktop/work/dao-company/contracts/ERC20.sol\":2269:2275  amount */\n  dup2\n    /* \"Desktop/work/dao-company/contracts/ERC20.sol\":2252:2260  balances */\n  0x02\n    /* \"Desktop/work/dao-company/contracts/ERC20.sol\":2252:2265  balances[_to] */\n  0x00\n    /* \"Desktop/work/dao-company/contracts/ERC20.sol\":2261:2264  _to */\n  dup4\n    /* \"Desktop/work/dao-company/contracts/ERC20.sol\":2252:2265  balances[_to] */\n  0xffffffffffffffffffffffffffffffffffffffff\n  and\n  0xffffffffffffffffffffffffffffffffffffffff\n  and\n  dup2\n  mstore\n  0x20\n  add\n  swap1\n  dup2\n  mstore\n  0x20\n  add\n  0x00\n  keccak256\n  0x00\n    /* \"Desktop/work/dao-company/contracts/ERC20.sol\":2252:2275  balances[_to] += amount */\n  dup3\n  dup3\n  sload\n  tag_19\n  swap2\n  swap1\n  tag_20\n  jump\t// in\ntag_19:\n  swap3\n  pop\n  pop\n  dup2\n  swap1\n  sstore\n  pop\n    /* \"Desktop/work/dao-company/contracts/ERC20.sol\":2300:2306  amount */\n  dup2\n    /* \"Desktop/work/dao-company/contracts/ERC20.sol\":2285:2296  totalTokens */\n  0x00\n  dup1\n    /* \"Desktop/work/dao-company/contracts/ERC20.sol\":2285:2306  totalTokens += amount */\n  dup3\n  dup3\n  sload\n  tag_21\n  swap2\n  swap1\n  tag_20\n  jump\t// in\ntag_21:\n  swap3\n  pop\n  pop\n  dup2\n  swap1\n  sstore\n  pop\n    /* \"Desktop/work/dao-company/contracts/ERC20.sol\":2343:2346  _to */\n  dup1\n    /* \"Desktop/work/dao-company/contracts/ERC20.sol\":2322:2355  Transfer(address(0), _to, amount) */\n  0xffffffffffffffffffffffffffffffffffffffff\n  and\n    /* \"Desktop/work/dao-company/contracts/ERC20.sol\":2339:2340  0 */\n  0x00\n    /* \"Desktop/work/dao-company/contracts/ERC20.sol\":2322:2355  Transfer(address(0), _to, amount) */\n  0xffffffffffffffffffffffffffffffffffffffff\n  and\n  0xddf252ad1be2c89b69c2b068fc378daa952ba7f163c4a11628f55a4df523b3ef\n    /* \"Desktop/work/dao-company/contracts/ERC20.sol\":2348:2354  amount */\n  dup5\n    /* \"Desktop/work/dao-company/contracts/ERC20.sol\":2322:2355  Transfer(address(0), _to, amount) */\n  mload(0x40)\n  tag_22\n  swap2\n  swap1\n  tag_23\n  jump\t// in\ntag_22:\n  mload(0x40)\n  dup1\n  swap2\n  sub\n  swap1\n  log3\n    /* \"Desktop/work/dao-company/contracts/ERC20.sol\":2129:2362  function mint(uint amount, address _to) public onlyOwner {... */\n  pop\n  pop\n  jump\t// out\n    /* \"Desktop/work/dao-company/contracts/ERC20.sol\":2597:2715  function _beforeTokenTransfer(... */\ntag_18:\n  pop\n  pop\n  pop\n  jump\t// out\n    /* \"#utility.yul\":7:82   */\ntag_25:\n    /* \"#utility.yul\":40:46   */\n  0x00\n    /* \"#utility.yul\":73:75   */\n  0x40\n    /* \"#utility.yul\":67:76   */\n  mload\n    /* \"#utility.yul\":57:76   */\n  swap1\n  pop\n    /* \"#utility.yul\":7:82   */\n  swap1\n  jump\t// out\n    /* \"#utility.yul\":88:205   */\ntag_26:\n    /* \"#utility.yul\":197:198   */\n  0x00\n    /* \"#utility.yul\":194:195   */\n  dup1\n    /* \"#utility.yul\":187:199   */\n  revert\n    /* \"#utility.yul\":211:328   */\ntag_27:\n    /* \"#utility.yul\":320:321   */\n  0x00\n    /* \"#utility.yul\":317:318   */\n  dup1\n    /* \"#utility.yul\":310:322   */\n  revert\n    /* \"#utility.yul\":334:451   */\ntag_28:\n    /* \"#utility.yul\":443:444   */\n  0x00\n    /* \"#utility.yul\":440:441   */\n  dup1\n    /* \"#utility.yul\":433:445   */\n  revert\n    /* \"#utility.yul\":457:574   */\ntag_29:\n    /* \"#utility.yul\":566:567   */\n  0x00\n    /* \"#utility.yul\":563:564   */\n  dup1\n    /* \"#utility.yul\":556:568   */\n  revert\n    /* \"#utility.yul\":580:682   */\ntag_30:\n    /* \"#utility.yul\":621:627   */\n  0x00\n    /* \"#utility.yul\":672:674   */\n  0x1f\n    /* \"#utility.yul\":668:675   */\n  not\n    /* \"#utility.yul\":663:665   */\n  0x1f\n    /* \"#utility.yul\":656:661   */\n  dup4\n    /* \"#utility.yul\":652:666   */\n  add\n    /* \"#utility.yul\":648:676   */\n  and\n    /* \"#utility.yul\":638:676   */\n  swap1\n  pop\n    /* \"#utility.yul\":580:682   */\n  swap2\n  swap1\n  pop\n  jump\t// out\n    /* \"#utility.yul\":688:868   */\ntag_31:\n    /* \"#utility.yul\":736:813   */\n  0x4e487b7100000000000000000000000000000000000000000000000000000000\n    /* \"#utility.yul\":733:734   */\n  0x00\n    /* \"#utility.yul\":726:814   */\n  mstore\n    /* \"#utility.yul\":833:837   */\n  0x41\n    /* \"#utility.yul\":830:831   */\n  0x04\n    /* \"#utility.yul\":823:838   */\n  mstore\n    /* \"#utility.yul\":857:861   */\n  0x24\n    /* \"#utility.yul\":854:855   */\n  0x00\n    /* \"#utility.yul\":847:862   */\n  revert\n    /* \"#utility.yul\":874:1155   */\ntag_32:\n    /* \"#utility.yul\":957:984   */\n  tag_73\n    /* \"#utility.yul\":979:983   */\n  dup3\n    /* \"#utility.yul\":957:984   */\n  tag_30\n  jump\t// in\ntag_73:\n    /* \"#utility.yul\":949:955   */\n  dup2\n    /* \"#utility.yul\":945:985   */\n  add\n    /* \"#utility.yul\":1087:1093   */\n  dup2\n    /* \"#utility.yul\":1075:1085   */\n  dup2\n    /* \"#utility.yul\":1072:1094   */\n  lt\n    /* \"#utility.yul\":1051:1069   */\n  0xffffffffffffffff\n    /* \"#utility.yul\":1039:1049   */\n  dup3\n    /* \"#utility.yul\":1036:1070   */\n  gt\n    /* \"#utility.yul\":1033:1095   */\n  or\n    /* \"#utility.yul\":1030:1118   */\n  iszero\n  tag_74\n  jumpi\n    /* \"#utility.yul\":1098:1116   */\n  tag_75\n  tag_31\n  jump\t// in\ntag_75:\n    /* \"#utility.yul\":1030:1118   */\ntag_74:\n    /* \"#utility.yul\":1138:1148   */\n  dup1\n    /* \"#utility.yul\":1134:1136   */\n  0x40\n    /* \"#utility.yul\":1127:1149   */\n  mstore\n    /* \"#utility.yul\":917:1155   */\n  pop\n    /* \"#utility.yul\":874:1155   */\n  pop\n  pop\n  jump\t// out\n    /* \"#utility.yul\":1161:1290   */\ntag_33:\n    /* \"#utility.yul\":1195:1201   */\n  0x00\n    /* \"#utility.yul\":1222:1242   */\n  tag_77\n  tag_25\n  jump\t// in\ntag_77:\n    /* \"#utility.yul\":1212:1242   */\n  swap1\n  pop\n    /* \"#utility.yul\":1251:1284   */\n  tag_78\n    /* \"#utility.yul\":1279:1283   */\n  dup3\n    /* \"#utility.yul\":1271:1277   */\n  dup3\n    /* \"#utility.yul\":1251:1284   */\n  tag_32\n  jump\t// in\ntag_78:\n    /* \"#utility.yul\":1161:1290   */\n  swap2\n  swap1\n  pop\n  jump\t// out\n    /* \"#utility.yul\":1296:1604   */\ntag_34:\n    /* \"#utility.yul\":1358:1362   */\n  0x00\n    /* \"#utility.yul\":1448:1466   */\n  0xffffffffffffffff\n    /* \"#utility.yul\":1440:1446   */\n  dup3\n    /* \"#utility.yul\":1437:1467   */\n  gt\n    /* \"#utility.yul\":1434:1490   */\n  iszero\n  tag_80\n  jumpi\n    /* \"#utility.yul\":1470:1488   */\n  tag_81\n  tag_31\n  jump\t// in\ntag_81:\n    /* \"#utility.yul\":1434:1490   */\ntag_80:\n    /* \"#utility.yul\":1508:1537   */\n  tag_82\n    /* \"#utility.yul\":1530:1536   */\n  dup3\n    /* \"#utility.yul\":1508:1537   */\n  tag_30\n  jump\t// in\ntag_82:\n    /* \"#utility.yul\":1500:1537   */\n  swap1\n  pop\n    /* \"#utility.yul\":1592:1596   */\n  0x20\n    /* \"#utility.yul\":1586:1590   */\n  dup2\n    /* \"#utility.yul\":1582:1597   */\n  add\n    /* \"#utility.yul\":1574:1597   */\n  swap1\n  pop\n    /* \"#utility.yul\":1296:1604   */\n  swap2\n  swap1\n  pop\n  jump\t// out\n    /* \"#utility.yul\":1610:1856   */\ntag_35:\n    /* \"#utility.yul\":1691:1692   */\n  0x00\n    /* \"#utility.yul\":1701:1814   */\ntag_84:\n    /* \"#utility.yul\":1715:1721   */\n  dup4\n    /* \"#utility.yul\":1712:1713   */\n  dup2\n    /* \"#utility.yul\":1709:1722   */\n  lt\n    /* \"#utility.yul\":1701:1814   */\n  iszero\n  tag_86\n  jumpi\n    /* \"#utility.yul\":1800:1801   */\n  dup1\n    /* \"#utility.yul\":1795:1798   */\n  dup3\n    /* \"#utility.yul\":1791:1802   */\n  add\n    /* \"#utility.yul\":1785:1803   */\n  mload\n    /* \"#utility.yul\":1781:1782   */\n  dup2\n    /* \"#utility.yul\":1776:1779   */\n  dup5\n    /* \"#utility.yul\":1772:1783   */\n  add\n    /* \"#utility.yul\":1765:1804   */\n  mstore\n    /* \"#utility.yul\":1737:1739   */\n  0x20\n    /* \"#utility.yul\":1734:1735   */\n  dup2\n    /* \"#utility.yul\":1730:1740   */\n  add\n    /* \"#utility.yul\":1725:1740   */\n  swap1\n  pop\n    /* \"#utility.yul\":1701:1814   */\n  jump(tag_84)\ntag_86:\n    /* \"#utility.yul\":1848:1849   */\n  0x00\n    /* \"#utility.yul\":1839:1845   */\n  dup5\n    /* \"#utility.yul\":1834:1837   */\n  dup5\n    /* \"#utility.yul\":1830:1846   */\n  add\n    /* \"#utility.yul\":1823:1850   */\n  mstore\n    /* \"#utility.yul\":1672:1856   */\n  pop\n    /* \"#utility.yul\":1610:1856   */\n  pop\n  pop\n  pop\n  jump\t// out\n    /* \"#utility.yul\":1862:2296   */\ntag_36:\n    /* \"#utility.yul\":1951:1956   */\n  0x00\n    /* \"#utility.yul\":1976:2042   */\n  tag_88\n    /* \"#utility.yul\":1992:2041   */\n  tag_89\n    /* \"#utility.yul\":2034:2040   */\n  dup5\n    /* \"#utility.yul\":1992:2041   */\n  tag_34\n  jump\t// in\ntag_89:\n    /* \"#utility.yul\":1976:2042   */\n  tag_33\n  jump\t// in\ntag_88:\n    /* \"#utility.yul\":1967:2042   */\n  swap1\n  pop\n    /* \"#utility.yul\":2065:2071   */\n  dup3\n    /* \"#utility.yul\":2058:2063   */\n  dup2\n    /* \"#utility.yul\":2051:2072   */\n  mstore\n    /* \"#utility.yul\":2103:2107   */\n  0x20\n    /* \"#utility.yul\":2096:2101   */\n  dup2\n    /* \"#utility.yul\":2092:2108   */\n  add\n    /* \"#utility.yul\":2141:2144   */\n  dup5\n    /* \"#utility.yul\":2132:2138   */\n  dup5\n    /* \"#utility.yul\":2127:2130   */\n  dup5\n    /* \"#utility.yul\":2123:2139   */\n  add\n    /* \"#utility.yul\":2120:2145   */\n  gt\n    /* \"#utility.yul\":2117:2229   */\n  iszero\n  tag_90\n  jumpi\n    /* \"#utility.yul\":2148:2227   */\n  tag_91\n  tag_29\n  jump\t// in\ntag_91:\n    /* \"#utility.yul\":2117:2229   */\ntag_90:\n    /* \"#utility.yul\":2238:2290   */\n  tag_92\n    /* \"#utility.yul\":2283:2289   */\n  dup5\n    /* \"#utility.yul\":2278:2281   */\n  dup3\n    /* \"#utility.yul\":2273:2276   */\n  dup6\n    /* \"#utility.yul\":2238:2290   */\n  tag_35\n  jump\t// in\ntag_92:\n    /* \"#utility.yul\":1957:2296   */\n  pop\n    /* \"#utility.yul\":1862:2296   */\n  swap4\n  swap3\n  pop\n  pop\n  pop\n  jump\t// out\n    /* \"#utility.yul\":2316:2671   */\ntag_37:\n    /* \"#utility.yul\":2383:2388   */\n  0x00\n    /* \"#utility.yul\":2432:2435   */\n  dup3\n    /* \"#utility.yul\":2425:2429   */\n  0x1f\n    /* \"#utility.yul\":2417:2423   */\n  dup4\n    /* \"#utility.yul\":2413:2430   */\n  add\n    /* \"#utility.yul\":2409:2436   */\n  slt\n    /* \"#utility.yul\":2399:2521   */\n  tag_94\n  jumpi\n    /* \"#utility.yul\":2440:2519   */\n  tag_95\n  tag_28\n  jump\t// in\ntag_95:\n    /* \"#utility.yul\":2399:2521   */\ntag_94:\n    /* \"#utility.yul\":2550:2556   */\n  dup2\n    /* \"#utility.yul\":2544:2557   */\n  mload\n    /* \"#utility.yul\":2575:2665   */\n  tag_96\n    /* \"#utility.yul\":2661:2664   */\n  dup5\n    /* \"#utility.yul\":2653:2659   */\n  dup3\n    /* \"#utility.yul\":2646:2650   */\n  0x20\n    /* \"#utility.yul\":2638:2644   */\n  dup7\n    /* \"#utility.yul\":2634:2651   */\n  add\n    /* \"#utility.yul\":2575:2665   */\n  tag_36\n  jump\t// in\ntag_96:\n    /* \"#utility.yul\":2566:2665   */\n  swap2\n  pop\n    /* \"#utility.yul\":2389:2671   */\n  pop\n    /* \"#utility.yul\":2316:2671   */\n  swap3\n  swap2\n  pop\n  pop\n  jump\t// out\n    /* \"#utility.yul\":2677:2754   */\ntag_38:\n    /* \"#utility.yul\":2714:2721   */\n  0x00\n    /* \"#utility.yul\":2743:2748   */\n  dup2\n    /* \"#utility.yul\":2732:2748   */\n  swap1\n  pop\n    /* \"#utility.yul\":2677:2754   */\n  swap2\n  swap1\n  pop\n  jump\t// out\n    /* \"#utility.yul\":2760:2882   */\ntag_39:\n    /* \"#utility.yul\":2833:2857   */\n  tag_99\n    /* \"#utility.yul\":2851:2856   */\n  dup2\n    /* \"#utility.yul\":2833:2857   */\n  tag_38\n  jump\t// in\ntag_99:\n    /* \"#utility.yul\":2826:2831   */\n  dup2\n    /* \"#utility.yul\":2823:2858   */\n  eq\n    /* \"#utility.yul\":2813:2876   */\n  tag_100\n  jumpi\n    /* \"#utility.yul\":2872:2873   */\n  0x00\n    /* \"#utility.yul\":2869:2870   */\n  dup1\n    /* \"#utility.yul\":2862:2874   */\n  revert\n    /* \"#utility.yul\":2813:2876   */\ntag_100:\n    /* \"#utility.yul\":2760:2882   */\n  pop\n  jump\t// out\n    /* \"#utility.yul\":2888:3031   */\ntag_40:\n    /* \"#utility.yul\":2945:2950   */\n  0x00\n    /* \"#utility.yul\":2976:2982   */\n  dup2\n    /* \"#utility.yul\":2970:2983   */\n  mload\n    /* \"#utility.yul\":2961:2983   */\n  swap1\n  pop\n    /* \"#utility.yul\":2992:3025   */\n  tag_102\n    /* \"#utility.yul\":3019:3024   */\n  dup2\n    /* \"#utility.yul\":2992:3025   */\n  tag_39\n  jump\t// in\ntag_102:\n    /* \"#utility.yul\":2888:3031   */\n  swap3\n  swap2\n  pop\n  pop\n  jump\t// out\n    /* \"#utility.yul\":3037:4046   */\ntag_3:\n    /* \"#utility.yul\":3145:3151   */\n  0x00\n    /* \"#utility.yul\":3153:3159   */\n  dup1\n    /* \"#utility.yul\":3161:3167   */\n  0x00\n    /* \"#utility.yul\":3210:3212   */\n  0x60\n    /* \"#utility.yul\":3198:3207   */\n  dup5\n    /* \"#utility.yul\":3189:3196   */\n  dup7\n    /* \"#utility.yul\":3185:3208   */\n  sub\n    /* \"#utility.yul\":3181:3213   */\n  slt\n    /* \"#utility.yul\":3178:3297   */\n  iszero\n  tag_104\n  jumpi\n    /* \"#utility.yul\":3216:3295   */\n  tag_105\n  tag_26\n  jump\t// in\ntag_105:\n    /* \"#utility.yul\":3178:3297   */\ntag_104:\n    /* \"#utility.yul\":3357:3358   */\n  0x00\n    /* \"#utility.yul\":3346:3355   */\n  dup5\n    /* \"#utility.yul\":3342:3359   */\n  add\n    /* \"#utility.yul\":3336:3360   */\n  mload\n    /* \"#utility.yul\":3387:3405   */\n  0xffffffffffffffff\n    /* \"#utility.yul\":3379:3385   */\n  dup2\n    /* \"#utility.yul\":3376:3406   */\n  gt\n    /* \"#utility.yul\":3373:3490   */\n  iszero\n  tag_106\n  jumpi\n    /* \"#utility.yul\":3409:3488   */\n  tag_107\n  tag_27\n  jump\t// in\ntag_107:\n    /* \"#utility.yul\":3373:3490   */\ntag_106:\n    /* \"#utility.yul\":3514:3588   */\n  tag_108\n    /* \"#utility.yul\":3580:3587   */\n  dup7\n    /* \"#utility.yul\":3571:3577   */\n  dup3\n    /* \"#utility.yul\":3560:3569   */\n  dup8\n    /* \"#utility.yul\":3556:3578   */\n  add\n    /* \"#utility.yul\":3514:3588   */\n  tag_37\n  jump\t// in\ntag_108:\n    /* \"#utility.yul\":3504:3588   */\n  swap4\n  pop\n    /* \"#utility.yul\":3307:3598   */\n  pop\n    /* \"#utility.yul\":3658:3660   */\n  0x20\n    /* \"#utility.yul\":3647:3656   */\n  dup5\n    /* \"#utility.yul\":3643:3661   */\n  add\n    /* \"#utility.yul\":3637:3662   */\n  mload\n    /* \"#utility.yul\":3689:3707   */\n  0xffffffffffffffff\n    /* \"#utility.yul\":3681:3687   */\n  dup2\n    /* \"#utility.yul\":3678:3708   */\n  gt\n    /* \"#utility.yul\":3675:3792   */\n  iszero\n  tag_109\n  jumpi\n    /* \"#utility.yul\":3711:3790   */\n  tag_110\n  tag_27\n  jump\t// in\ntag_110:\n    /* \"#utility.yul\":3675:3792   */\ntag_109:\n    /* \"#utility.yul\":3816:3890   */\n  tag_111\n    /* \"#utility.yul\":3882:3889   */\n  dup7\n    /* \"#utility.yul\":3873:3879   */\n  dup3\n    /* \"#utility.yul\":3862:3871   */\n  dup8\n    /* \"#utility.yul\":3858:3880   */\n  add\n    /* \"#utility.yul\":3816:3890   */\n  tag_37\n  jump\t// in\ntag_111:\n    /* \"#utility.yul\":3806:3890   */\n  swap3\n  pop\n    /* \"#utility.yul\":3608:3900   */\n  pop\n    /* \"#utility.yul\":3939:3941   */\n  0x40\n    /* \"#utility.yul\":3965:4029   */\n  tag_112\n    /* \"#utility.yul\":4021:4028   */\n  dup7\n    /* \"#utility.yul\":4012:4018   */\n  dup3\n    /* \"#utility.yul\":4001:4010   */\n  dup8\n    /* \"#utility.yul\":3997:4019   */\n  add\n    /* \"#utility.yul\":3965:4029   */\n  tag_40\n  jump\t// in\ntag_112:\n    /* \"#utility.yul\":3955:4029   */\n  swap2\n  pop\n    /* \"#utility.yul\":3910:4039   */\n  pop\n    /* \"#utility.yul\":3037:4046   */\n  swap3\n  pop\n  swap3\n  pop\n  swap3\n  jump\t// out\n    /* \"#utility.yul\":4052:4151   */\ntag_41:\n    /* \"#utility.yul\":4104:4110   */\n  0x00\n    /* \"#utility.yul\":4138:4143   */\n  dup2\n    /* \"#utility.yul\":4132:4144   */\n  mload\n    /* \"#utility.yul\":4122:4144   */\n  swap1\n  pop\n    /* \"#utility.yul\":4052:4151   */\n  swap2\n  swap1\n  pop\n  jump\t// out\n    /* \"#utility.yul\":4157:4337   */\ntag_42:\n    /* \"#utility.yul\":4205:4282   */\n  0x4e487b7100000000000000000000000000000000000000000000000000000000\n    /* \"#utility.yul\":4202:4203   */\n  0x00\n    /* \"#utility.yul\":4195:4283   */\n  mstore\n    /* \"#utility.yul\":4302:4306   */\n  0x22\n    /* \"#utility.yul\":4299:4300   */\n  0x04\n    /* \"#utility.yul\":4292:4307   */\n  mstore\n    /* \"#utility.yul\":4326:4330   */\n  0x24\n    /* \"#utility.yul\":4323:4324   */\n  0x00\n    /* \"#utility.yul\":4316:4331   */\n  revert\n    /* \"#utility.yul\":4343:4663   */\ntag_43:\n    /* \"#utility.yul\":4387:4393   */\n  0x00\n    /* \"#utility.yul\":4424:4425   */\n  0x02\n    /* \"#utility.yul\":4418:4422   */\n  dup3\n    /* \"#utility.yul\":4414:4426   */\n  div\n    /* \"#utility.yul\":4404:4426   */\n  swap1\n  pop\n    /* \"#utility.yul\":4471:4472   */\n  0x01\n    /* \"#utility.yul\":4465:4469   */\n  dup3\n    /* \"#utility.yul\":4461:4473   */\n  and\n    /* \"#utility.yul\":4492:4510   */\n  dup1\n    /* \"#utility.yul\":4482:4563   */\n  tag_116\n  jumpi\n    /* \"#utility.yul\":4548:4552   */\n  0x7f\n    /* \"#utility.yul\":4540:4546   */\n  dup3\n    /* \"#utility.yul\":4536:4553   */\n  and\n    /* \"#utility.yul\":4526:4553   */\n  swap2\n  pop\n    /* \"#utility.yul\":4482:4563   */\ntag_116:\n    /* \"#utility.yul\":4610:4612   */\n  0x20\n    /* \"#utility.yul\":4602:4608   */\n  dup3\n    /* \"#utility.yul\":4599:4613   */\n  lt\n    /* \"#utility.yul\":4579:4597   */\n  dup2\n    /* \"#utility.yul\":4576:4614   */\n  sub\n    /* \"#utility.yul\":4573:4657   */\n  tag_117\n  jumpi\n    /* \"#utility.yul\":4629:4647   */\n  tag_118\n  tag_42\n  jump\t// in\ntag_118:\n    /* \"#utility.yul\":4573:4657   */\ntag_117:\n    /* \"#utility.yul\":4394:4663   */\n  pop\n    /* \"#utility.yul\":4343:4663   */\n  swap2\n  swap1\n  pop\n  jump\t// out\n    /* \"#utility.yul\":4669:4810   */\ntag_44:\n    /* \"#utility.yul\":4718:4722   */\n  0x00\n    /* \"#utility.yul\":4741:4744   */\n  dup2\n    /* \"#utility.yul\":4733:4744   */\n  swap1\n  pop\n    /* \"#utility.yul\":4764:4767   */\n  dup2\n    /* \"#utility.yul\":4761:4762   */\n  0x00\n    /* \"#utility.yul\":4754:4768   */\n  mstore\n    /* \"#utility.yul\":4798:4802   */\n  0x20\n    /* \"#utility.yul\":4795:4796   */\n  0x00\n    /* \"#utility.yul\":4785:4803   */\n  keccak256\n    /* \"#utility.yul\":4777:4803   */\n  swap1\n  pop\n    /* \"#utility.yul\":4669:4810   */\n  swap2\n  swap1\n  pop\n  jump\t// out\n    /* \"#utility.yul\":4816:4909   */\ntag_45:\n    /* \"#utility.yul\":4853:4859   */\n  0x00\n    /* \"#utility.yul\":4900:4902   */\n  0x20\n    /* \"#utility.yul\":4895:4897   */\n  0x1f\n    /* \"#utility.yul\":4888:4893   */\n  dup4\n    /* \"#utility.yul\":4884:4898   */\n  add\n    /* \"#utility.yul\":4880:4903   */\n  div\n    /* \"#utility.yul\":4870:4903   */\n  swap1\n  pop\n    /* \"#utility.yul\":4816:4909   */\n  swap2\n  swap1\n  pop\n  jump\t// out\n    /* \"#utility.yul\":4915:5022   */\ntag_46:\n    /* \"#utility.yul\":4959:4967   */\n  0x00\n    /* \"#utility.yul\":5009:5014   */\n  dup3\n    /* \"#utility.yul\":5003:5007   */\n  dup3\n    /* \"#utility.yul\":4999:5015   */\n  shl\n    /* \"#utility.yul\":4978:5015   */\n  swap1\n  pop\n    /* \"#utility.yul\":4915:5022   */\n  swap3\n  swap2\n  pop\n  pop\n  jump\t// out\n    /* \"#utility.yul\":5028:5421   */\ntag_47:\n    /* \"#utility.yul\":5097:5103   */\n  0x00\n    /* \"#utility.yul\":5147:5148   */\n  0x08\n    /* \"#utility.yul\":5135:5145   */\n  dup4\n    /* \"#utility.yul\":5131:5149   */\n  mul\n    /* \"#utility.yul\":5170:5267   */\n  tag_123\n    /* \"#utility.yul\":5200:5266   */\n  0xffffffffffffffffffffffffffffffffffffffffffffffffffffffffffffffff\n    /* \"#utility.yul\":5189:5198   */\n  dup3\n    /* \"#utility.yul\":5170:5267   */\n  tag_46\n  jump\t// in\ntag_123:\n    /* \"#utility.yul\":5288:5327   */\n  tag_124\n    /* \"#utility.yul\":5318:5326   */\n  dup7\n    /* \"#utility.yul\":5307:5316   */\n  dup4\n    /* \"#utility.yul\":5288:5327   */\n  tag_46\n  jump\t// in\ntag_124:\n    /* \"#utility.yul\":5276:5327   */\n  swap6\n  pop\n    /* \"#utility.yul\":5360:5364   */\n  dup1\n    /* \"#utility.yul\":5356:5365   */\n  not\n    /* \"#utility.yul\":5349:5354   */\n  dup5\n    /* \"#utility.yul\":5345:5366   */\n  and\n    /* \"#utility.yul\":5336:5366   */\n  swap4\n  pop\n    /* \"#utility.yul\":5409:5413   */\n  dup1\n    /* \"#utility.yul\":5399:5407   */\n  dup7\n    /* \"#utility.yul\":5395:5414   */\n  and\n    /* \"#utility.yul\":5388:5393   */\n  dup5\n    /* \"#utility.yul\":5385:5415   */\n  or\n    /* \"#utility.yul\":5375:5415   */\n  swap3\n  pop\n    /* \"#utility.yul\":5104:5421   */\n  pop\n  pop\n    /* \"#utility.yul\":5028:5421   */\n  swap4\n  swap3\n  pop\n  pop\n  pop\n  jump\t// out\n    /* \"#utility.yul\":5427:5487   */\ntag_48:\n    /* \"#utility.yul\":5455:5458   */\n  0x00\n    /* \"#utility.yul\":5476:5481   */\n  dup2\n    /* \"#utility.yul\":5469:5481   */\n  swap1\n  pop\n    /* \"#utility.yul\":5427:5487   */\n  swap2\n  swap1\n  pop\n  jump\t// out\n    /* \"#utility.yul\":5493:5635   */\ntag_49:\n    /* \"#utility.yul\":5543:5552   */\n  0x00\n    /* \"#utility.yul\":5576:5629   */\n  tag_127\n    /* \"#utility.yul\":5594:5628   */\n  tag_128\n    /* \"#utility.yul\":5603:5627   */\n  tag_129\n    /* \"#utility.yul\":5621:5626   */\n  dup5\n    /* \"#utility.yul\":5603:5627   */\n  tag_38\n  jump\t// in\ntag_129:\n    /* \"#utility.yul\":5594:5628   */\n  tag_48\n  jump\t// in\ntag_128:\n    /* \"#utility.yul\":5576:5629   */\n  tag_38\n  jump\t// in\ntag_127:\n    /* \"#utility.yul\":5563:5629   */\n  swap1\n  pop\n    /* \"#utility.yul\":5493:5635   */\n  swap2\n  swap1\n  pop\n  jump\t// out\n    /* \"#utility.yul\":5641:5716   */\ntag_50:\n    /* \"#utility.yul\":5684:5687   */\n  0x00\n    /* \"#utility.yul\":5705:5710   */\n  dup2\n    /* \"#utility.yul\":5698:5710   */\n  swap1\n  pop\n    /* \"#utility.yul\":5641:5716   */\n  swap2\n  swap1\n  pop\n  jump\t// out\n    /* \"#utility.yul\":5722:5991   */\ntag_51:\n    /* \"#utility.yul\":5832:5871   */\n  tag_132\n    /* \"#utility.yul\":5863:5870   */\n  dup4\n    /* \"#utility.yul\":5832:5871   */\n  tag_49\n  jump\t// in\ntag_132:\n    /* \"#utility.yul\":5893:5984   */\n  tag_133\n    /* \"#utility.yul\":5942:5983   */\n  tag_134\n    /* \"#utility.yul\":5966:5982   */\n  dup3\n    /* \"#utility.yul\":5942:5983   */\n  tag_50\n  jump\t// in\ntag_134:\n    /* \"#utility.yul\":5934:5940   */\n  dup5\n    /* \"#utility.yul\":5927:5931   */\n  dup5\n    /* \"#utility.yul\":5921:5932   */\n  sload\n    /* \"#utility.yul\":5893:5984   */\n  tag_47\n  jump\t// in\ntag_133:\n    /* \"#utility.yul\":5887:5891   */\n  dup3\n    /* \"#utility.yul\":5880:5985   */\n  sstore\n    /* \"#utility.yul\":5798:5991   */\n  pop\n    /* \"#utility.yul\":5722:5991   */\n  pop\n  pop\n  pop\n  jump\t// out\n    /* \"#utility.yul\":5997:6070   */\ntag_52:\n    /* \"#utility.yul\":6042:6045   */\n  0x00\n    /* \"#utility.yul\":5997:6070   */\n  swap1\n  jump\t// out\n    /* \"#utility.yul\":6076:6265   */\ntag_53:\n    /* \"#utility.yul\":6153:6185   */\n  tag_137\n  tag_52\n  jump\t// in\ntag_137:\n    /* \"#utility.yul\":6194:6259   */\n  tag_138\n    /* \"#utility.yul\":6252:6258   */\n  dup2\n    /* \"#utility.yul\":6244:6250   */\n  dup5\n    /* \"#utility.yul\":6238:6242   */\n  dup5\n    /* \"#utility.yul\":6194:6259   */\n  tag_51\n  jump\t// in\ntag_138:\n    /* \"#utility.yul\":6129:6265   */\n  pop\n    /* \"#utility.yul\":6076:6265   */\n  pop\n  pop\n  jump\t// out\n    /* \"#utility.yul\":6271:6457   */\ntag_54:\n    /* \"#utility.yul\":6331:6451   */\ntag_140:\n    /* \"#utility.yul\":6348:6351   */\n  dup2\n    /* \"#utility.yul\":6341:6346   */\n  dup2\n    /* \"#utility.yul\":6338:6352   */\n  lt\n    /* \"#utility.yul\":6331:6451   */\n  iszero\n  tag_142\n  jumpi\n    /* \"#utility.yul\":6402:6441   */\n  tag_143\n    /* \"#utility.yul\":6439:6440   */\n  0x00\n    /* \"#utility.yul\":6432:6437   */\n  dup3\n    /* \"#utility.yul\":6402:6441   */\n  tag_53\n  jump\t// in\ntag_143:\n    /* \"#utility.yul\":6375:6376   */\n  0x01\n    /* \"#utility.yul\":6368:6373   */\n  dup2\n    /* \"#utility.yul\":6364:6377   */\n  add\n    /* \"#utility.yul\":6355:6377   */\n  swap1\n  pop\n    /* \"#utility.yul\":6331:6451   */\n  jump(tag_140)\ntag_142:\n    /* \"#utility.yul\":6271:6457   */\n  pop\n  pop\n  jump\t// out\n    /* \"#utility.yul\":6463:7006   */\ntag_55:\n    /* \"#utility.yul\":6564:6566   */\n  0x1f\n    /* \"#utility.yul\":6559:6562   */\n  dup3\n    /* \"#utility.yul\":6556:6567   */\n  gt\n    /* \"#utility.yul\":6553:6999   */\n  iszero\n  tag_145\n  jumpi\n    /* \"#utility.yul\":6598:6636   */\n  tag_146\n    /* \"#utility.yul\":6630:6635   */\n  dup2\n    /* \"#utility.yul\":6598:6636   */\n  tag_44\n  jump\t// in\ntag_146:\n    /* \"#utility.yul\":6682:6711   */\n  tag_147\n    /* \"#utility.yul\":6700:6710   */\n  dup5\n    /* \"#utility.yul\":6682:6711   */\n  tag_45\n  jump\t// in\ntag_147:\n    /* \"#utility.yul\":6672:6680   */\n  dup2\n    /* \"#utility.yul\":6668:6712   */\n  add\n    /* \"#utility.yul\":6865:6867   */\n  0x20\n    /* \"#utility.yul\":6853:6863   */\n  dup6\n    /* \"#utility.yul\":6850:6868   */\n  lt\n    /* \"#utility.yul\":6847:6896   */\n  iszero\n  tag_148\n  jumpi\n    /* \"#utility.yul\":6886:6894   */\n  dup2\n    /* \"#utility.yul\":6871:6894   */\n  swap1\n  pop\n    /* \"#utility.yul\":6847:6896   */\ntag_148:\n    /* \"#utility.yul\":6909:6989   */\n  tag_149\n    /* \"#utility.yul\":6965:6987   */\n  tag_150\n    /* \"#utility.yul\":6983:6986   */\n  dup6\n    /* \"#utility.yul\":6965:6987   */\n  tag_45\n  jump\t// in\ntag_150:\n    /* \"#utility.yul\":6955:6963   */\n  dup4\n    /* \"#utility.yul\":6951:6988   */\n  add\n    /* \"#utility.yul\":6938:6949   */\n  dup3\n    /* \"#utility.yul\":6909:6989   */\n  tag_54\n  jump\t// in\ntag_149:\n    /* \"#utility.yul\":6568:6999   */\n  pop\n  pop\n    /* \"#utility.yul\":6553:6999   */\ntag_145:\n    /* \"#utility.yul\":6463:7006   */\n  pop\n  pop\n  pop\n  jump\t// out\n    /* \"#utility.yul\":7012:7129   */\ntag_56:\n    /* \"#utility.yul\":7066:7074   */\n  0x00\n    /* \"#utility.yul\":7116:7121   */\n  dup3\n    /* \"#utility.yul\":7110:7114   */\n  dup3\n    /* \"#utility.yul\":7106:7122   */\n  shr\n    /* \"#utility.yul\":7085:7122   */\n  swap1\n  pop\n    /* \"#utility.yul\":7012:7129   */\n  swap3\n  swap2\n  pop\n  pop\n  jump\t// out\n    /* \"#utility.yul\":7135:7304   */\ntag_57:\n    /* \"#utility.yul\":7179:7185   */\n  0x00\n    /* \"#utility.yul\":7212:7263   */\n  tag_153\n    /* \"#utility.yul\":7260:7261   */\n  0x00\n    /* \"#utility.yul\":7256:7262   */\n  not\n    /* \"#utility.yul\":7248:7253   */\n  dup5\n    /* \"#utility.yul\":7245:7246   */\n  0x08\n    /* \"#utility.yul\":7241:7254   */\n  mul\n    /* \"#utility.yul\":7212:7263   */\n  tag_56\n  jump\t// in\ntag_153:\n    /* \"#utility.yul\":7208:7264   */\n  not\n    /* \"#utility.yul\":7293:7297   */\n  dup1\n    /* \"#utility.yul\":7287:7291   */\n  dup4\n    /* \"#utility.yul\":7283:7298   */\n  and\n    /* \"#utility.yul\":7273:7298   */\n  swap2\n  pop\n    /* \"#utility.yul\":7186:7304   */\n  pop\n    /* \"#utility.yul\":7135:7304   */\n  swap3\n  swap2\n  pop\n  pop\n  jump\t// out\n    /* \"#utility.yul\":7309:7604   */\ntag_58:\n    /* \"#utility.yul\":7385:7389   */\n  0x00\n    /* \"#utility.yul\":7531:7560   */\n  tag_155\n    /* \"#utility.yul\":7556:7559   */\n  dup4\n    /* \"#utility.yul\":7550:7554   */\n  dup4\n    /* \"#utility.yul\":7531:7560   */\n  tag_57\n  jump\t// in\ntag_155:\n    /* \"#utility.yul\":7523:7560   */\n  swap2\n  pop\n    /* \"#utility.yul\":7593:7596   */\n  dup3\n    /* \"#utility.yul\":7590:7591   */\n  0x02\n    /* \"#utility.yul\":7586:7597   */\n  mul\n    /* \"#utility.yul\":7580:7584   */\n  dup3\n    /* \"#utility.yul\":7577:7598   */\n  or\n    /* \"#utility.yul\":7569:7598   */\n  swap1\n  pop\n    /* \"#utility.yul\":7309:7604   */\n  swap3\n  swap2\n  pop\n  pop\n  jump\t// out\n    /* \"#utility.yul\":7609:9004   */\ntag_7:\n    /* \"#utility.yul\":7726:7763   */\n  tag_157\n    /* \"#utility.yul\":7759:7762   */\n  dup3\n    /* \"#utility.yul\":7726:7763   */\n  tag_41\n  jump\t// in\ntag_157:\n    /* \"#utility.yul\":7828:7846   */\n  0xffffffffffffffff\n    /* \"#utility.yul\":7820:7826   */\n  dup2\n    /* \"#utility.yul\":7817:7847   */\n  gt\n    /* \"#utility.yul\":7814:7870   */\n  iszero\n  tag_158\n  jumpi\n    /* \"#utility.yul\":7850:7868   */\n  tag_159\n  tag_31\n  jump\t// in\ntag_159:\n    /* \"#utility.yul\":7814:7870   */\ntag_158:\n    /* \"#utility.yul\":7894:7932   */\n  tag_160\n    /* \"#utility.yul\":7926:7930   */\n  dup3\n    /* \"#utility.yul\":7920:7931   */\n  sload\n    /* \"#utility.yul\":7894:7932   */\n  tag_43\n  jump\t// in\ntag_160:\n    /* \"#utility.yul\":7979:8046   */\n  tag_161\n    /* \"#utility.yul\":8039:8045   */\n  dup3\n    /* \"#utility.yul\":8031:8037   */\n  dup3\n    /* \"#utility.yul\":8025:8029   */\n  dup6\n    /* \"#utility.yul\":7979:8046   */\n  tag_55\n  jump\t// in\ntag_161:\n    /* \"#utility.yul\":8073:8074   */\n  0x00\n    /* \"#utility.yul\":8097:8101   */\n  0x20\n    /* \"#utility.yul\":8084:8101   */\n  swap1\n  pop\n    /* \"#utility.yul\":8129:8131   */\n  0x1f\n    /* \"#utility.yul\":8121:8127   */\n  dup4\n    /* \"#utility.yul\":8118:8132   */\n  gt\n    /* \"#utility.yul\":8146:8147   */\n  0x01\n    /* \"#utility.yul\":8141:8759   */\n  dup2\n  eq\n  tag_163\n  jumpi\n    /* \"#utility.yul\":8803:8804   */\n  0x00\n    /* \"#utility.yul\":8820:8826   */\n  dup5\n    /* \"#utility.yul\":8817:8894   */\n  iszero\n  tag_164\n  jumpi\n    /* \"#utility.yul\":8869:8878   */\n  dup3\n    /* \"#utility.yul\":8864:8867   */\n  dup8\n    /* \"#utility.yul\":8860:8879   */\n  add\n    /* \"#utility.yul\":8854:8880   */\n  mload\n    /* \"#utility.yul\":8845:8880   */\n  swap1\n  pop\n    /* \"#utility.yul\":8817:8894   */\ntag_164:\n    /* \"#utility.yul\":8920:8987   */\n  tag_165\n    /* \"#utility.yul\":8980:8986   */\n  dup6\n    /* \"#utility.yul\":8973:8978   */\n  dup3\n    /* \"#utility.yul\":8920:8987   */\n  tag_58\n  jump\t// in\ntag_165:\n    /* \"#utility.yul\":8914:8918   */\n  dup7\n    /* \"#utility.yul\":8907:8988   */\n  sstore\n    /* \"#utility.yul\":8776:8998   */\n  pop\n    /* \"#utility.yul\":8111:8998   */\n  jump(tag_162)\n    /* \"#utility.yul\":8141:8759   */\ntag_163:\n    /* \"#utility.yul\":8193:8197   */\n  0x1f\n    /* \"#utility.yul\":8189:8198   */\n  not\n    /* \"#utility.yul\":8181:8187   */\n  dup5\n    /* \"#utility.yul\":8177:8199   */\n  and\n    /* \"#utility.yul\":8227:8264   */\n  tag_166\n    /* \"#utility.yul\":8259:8263   */\n  dup7\n    /* \"#utility.yul\":8227:8264   */\n  tag_44\n  jump\t// in\ntag_166:\n    /* \"#utility.yul\":8286:8287   */\n  0x00\n    /* \"#utility.yul\":8300:8508   */\ntag_167:\n    /* \"#utility.yul\":8314:8321   */\n  dup3\n    /* \"#utility.yul\":8311:8312   */\n  dup2\n    /* \"#utility.yul\":8308:8322   */\n  lt\n    /* \"#utility.yul\":8300:8508   */\n  iszero\n  tag_169\n  jumpi\n    /* \"#utility.yul\":8393:8402   */\n  dup5\n    /* \"#utility.yul\":8388:8391   */\n  dup10\n    /* \"#utility.yul\":8384:8403   */\n  add\n    /* \"#utility.yul\":8378:8404   */\n  mload\n    /* \"#utility.yul\":8370:8376   */\n  dup3\n    /* \"#utility.yul\":8363:8405   */\n  sstore\n    /* \"#utility.yul\":8444:8445   */\n  0x01\n    /* \"#utility.yul\":8436:8442   */\n  dup3\n    /* \"#utility.yul\":8432:8446   */\n  add\n    /* \"#utility.yul\":8422:8446   */\n  swap2\n  pop\n    /* \"#utility.yul\":8491:8493   */\n  0x20\n    /* \"#utility.yul\":8480:8489   */\n  dup6\n    /* \"#utility.yul\":8476:8494   */\n  add\n    /* \"#utility.yul\":8463:8494   */\n  swap5\n  pop\n    /* \"#utility.yul\":8337:8341   */\n  0x20\n    /* \"#utility.yul\":8334:8335   */\n  dup2\n    /* \"#utility.yul\":8330:8342   */\n  add\n    /* \"#utility.yul\":8325:8342   */\n  swap1\n  pop\n    /* \"#utility.yul\":8300:8508   */\n  jump(tag_167)\ntag_169:\n    /* \"#utility.yul\":8536:8542   */\n  dup7\n    /* \"#utility.yul\":8527:8534   */\n  dup4\n    /* \"#utility.yul\":8524:8543   */\n  lt\n    /* \"#utility.yul\":8521:8700   */\n  iszero\n  tag_170\n  jumpi\n    /* \"#utility.yul\":8594:8603   */\n  dup5\n    /* \"#utility.yul\":8589:8592   */\n  dup10\n    /* \"#utility.yul\":8585:8604   */\n  add\n    /* \"#utility.yul\":8579:8605   */\n  mload\n    /* \"#utility.yul\":8637:8685   */\n  tag_171\n    /* \"#utility.yul\":8679:8683   */\n  0x1f\n    /* \"#utility.yul\":8671:8677   */\n  dup10\n    /* \"#utility.yul\":8667:8684   */\n  and\n    /* \"#utility.yul\":8656:8665   */\n  dup3\n    /* \"#utility.yul\":8637:8685   */\n  tag_57\n  jump\t// in\ntag_171:\n    /* \"#utility.yul\":8629:8635   */\n  dup4\n    /* \"#utility.yul\":8622:8686   */\n  sstore\n    /* \"#utility.yul\":8544:8700   */\n  pop\n    /* \"#utility.yul\":8521:8700   */\ntag_170:\n    /* \"#utility.yul\":8746:8747   */\n  0x01\n    /* \"#utility.yul\":8742:8743   */\n  0x02\n    /* \"#utility.yul\":8734:8740   */\n  dup9\n    /* \"#utility.yul\":8730:8744   */\n  mul\n    /* \"#utility.yul\":8726:8748   */\n  add\n    /* \"#utility.yul\":8720:8724   */\n  dup9\n    /* \"#utility.yul\":8713:8749   */\n  sstore\n    /* \"#utility.yul\":8148:8759   */\n  pop\n  pop\n  pop\n    /* \"#utility.yul\":8111:8998   */\ntag_162:\n  pop\n    /* \"#utility.yul\":7701:9004   */\n  pop\n  pop\n  pop\n    /* \"#utility.yul\":7609:9004   */\n  pop\n  pop\n  jump\t// out\n    /* \"#utility.yul\":9010:9179   */\ntag_59:\n    /* \"#utility.yul\":9094:9105   */\n  0x00\n    /* \"#utility.yul\":9128:9134   */\n  dup3\n    /* \"#utility.yul\":9123:9126   */\n  dup3\n    /* \"#utility.yul\":9116:9135   */\n  mstore\n    /* \"#utility.yul\":9168:9172   */\n  0x20\n    /* \"#utility.yul\":9163:9166   */\n  dup3\n    /* \"#utility.yul\":9159:9173   */\n  add\n    /* \"#utility.yul\":9144:9173   */\n  swap1\n  pop\n    /* \"#utility.yul\":9010:9179   */\n  swap3\n  swap2\n  pop\n  pop\n  jump\t// out\n    /* \"#utility.yul\":9185:9348   */\ntag_60:\n    /* \"#utility.yul\":9325:9340   */\n  0x6e6f7420616e206f776e65722100000000000000000000000000000000000000\n    /* \"#utility.yul\":9321:9322   */\n  0x00\n    /* \"#utility.yul\":9313:9319   */\n  dup3\n    /* \"#utility.yul\":9309:9323   */\n  add\n    /* \"#utility.yul\":9302:9341   */\n  mstore\n    /* \"#utility.yul\":9185:9348   */\n  pop\n  jump\t// out\n    /* \"#utility.yul\":9354:9720   */\ntag_61:\n    /* \"#utility.yul\":9496:9499   */\n  0x00\n    /* \"#utility.yul\":9517:9584   */\n  tag_175\n    /* \"#utility.yul\":9581:9583   */\n  0x0d\n    /* \"#utility.yul\":9576:9579   */\n  dup4\n    /* \"#utility.yul\":9517:9584   */\n  tag_59\n  jump\t// in\ntag_175:\n    /* \"#utility.yul\":9510:9584   */\n  swap2\n  pop\n    /* \"#utility.yul\":9593:9686   */\n  tag_176\n    /* \"#utility.yul\":9682:9685   */\n  dup3\n    /* \"#utility.yul\":9593:9686   */\n  tag_60\n  jump\t// in\ntag_176:\n    /* \"#utility.yul\":9711:9713   */\n  0x20\n    /* \"#utility.yul\":9706:9709   */\n  dup3\n    /* \"#utility.yul\":9702:9714   */\n  add\n    /* \"#utility.yul\":9695:9714   */\n  swap1\n  pop\n    /* \"#utility.yul\":9354:9720   */\n  swap2\n  swap1\n  pop\n  jump\t// out\n    /* \"#utility.yul\":9726:10145   */\ntag_15:\n    /* \"#utility.yul\":9892:9896   */\n  0x00\n    /* \"#utility.yul\":9930:9932   */\n  0x20\n    /* \"#utility.yul\":9919:9928   */\n  dup3\n    /* \"#utility.yul\":9915:9933   */\n  add\n    /* \"#utility.yul\":9907:9933   */\n  swap1\n  pop\n    /* \"#utility.yul\":9979:9988   */\n  dup2\n    /* \"#utility.yul\":9973:9977   */\n  dup2\n    /* \"#utility.yul\":9969:9989   */\n  sub\n    /* \"#utility.yul\":9965:9966   */\n  0x00\n    /* \"#utility.yul\":9954:9963   */\n  dup4\n    /* \"#utility.yul\":9950:9967   */\n  add\n    /* \"#utility.yul\":9943:9990   */\n  mstore\n    /* \"#utility.yul\":10007:10138   */\n  tag_178\n    /* \"#utility.yul\":10133:10137   */\n  dup2\n    /* \"#utility.yul\":10007:10138   */\n  tag_61\n  jump\t// in\ntag_178:\n    /* \"#utility.yul\":9999:10138   */\n  swap1\n  pop\n    /* \"#utility.yul\":9726:10145   */\n  swap2\n  swap1\n  pop\n  jump\t// out\n    /* \"#utility.yul\":10151:10331   */\ntag_62:\n    /* \"#utility.yul\":10199:10276   */\n  0x4e487b7100000000000000000000000000000000000000000000000000000000\n    /* \"#utility.yul\":10196:10197   */\n  0x00\n    /* \"#utility.yul\":10189:10277   */\n  mstore\n    /* \"#utility.yul\":10296:10300   */\n  0x11\n    /* \"#utility.yul\":10293:10294   */\n  0x04\n    /* \"#utility.yul\":10286:10301   */\n  mstore\n    /* \"#utility.yul\":10320:10324   */\n  0x24\n    /* \"#utility.yul\":10317:10318   */\n  0x00\n    /* \"#utility.yul\":10310:10325   */\n  revert\n    /* \"#utility.yul\":10337:10528   */\ntag_20:\n    /* \"#utility.yul\":10377:10380   */\n  0x00\n    /* \"#utility.yul\":10396:10416   */\n  tag_181\n    /* \"#utility.yul\":10414:10415   */\n  dup3\n    /* \"#utility.yul\":10396:10416   */\n  tag_38\n  jump\t// in\ntag_181:\n    /* \"#utility.yul\":10391:10416   */\n  swap2\n  pop\n    /* \"#utility.yul\":10430:10450   */\n  tag_182\n    /* \"#utility.yul\":10448:10449   */\n  dup4\n    /* \"#utility.yul\":10430:10450   */\n  tag_38\n  jump\t// in\ntag_182:\n    /* \"#utility.yul\":10425:10450   */\n  swap3\n  pop\n    /* \"#utility.yul\":10473:10474   */\n  dup3\n    /* \"#utility.yul\":10470:10471   */\n  dup3\n    /* \"#utility.yul\":10466:10475   */\n  add\n    /* \"#utility.yul\":10459:10475   */\n  swap1\n  pop\n    /* \"#utility.yul\":10494:10497   */\n  dup1\n    /* \"#utility.yul\":10491:10492   */\n  dup3\n    /* \"#utility.yul\":10488:10498   */\n  gt\n    /* \"#utility.yul\":10485:10521   */\n  iszero\n  tag_183\n  jumpi\n    /* \"#utility.yul\":10501:10519   */\n  tag_184\n  tag_62\n  jump\t// in\ntag_184:\n    /* \"#utility.yul\":10485:10521   */\ntag_183:\n    /* \"#utility.yul\":10337:10528   */\n  swap3\n  swap2\n  pop\n  pop\n  jump\t// out\n    /* \"#utility.yul\":10534:10652   */\ntag_63:\n    /* \"#utility.yul\":10621:10645   */\n  tag_186\n    /* \"#utility.yul\":10639:10644   */\n  dup2\n    /* \"#utility.yul\":10621:10645   */\n  tag_38\n  jump\t// in\ntag_186:\n    /* \"#utility.yul\":10616:10619   */\n  dup3\n    /* \"#utility.yul\":10609:10646   */\n  mstore\n    /* \"#utility.yul\":10534:10652   */\n  pop\n  pop\n  jump\t// out\n    /* \"#utility.yul\":10658:10880   */\ntag_23:\n    /* \"#utility.yul\":10751:10755   */\n  0x00\n    /* \"#utility.yul\":10789:10791   */\n  0x20\n    /* \"#utility.yul\":10778:10787   */\n  dup3\n    /* \"#utility.yul\":10774:10792   */\n  add\n    /* \"#utility.yul\":10766:10792   */\n  swap1\n  pop\n    /* \"#utility.yul\":10802:10873   */\n  tag_188\n    /* \"#utility.yul\":10870:10871   */\n  0x00\n    /* \"#utility.yul\":10859:10868   */\n  dup4\n    /* \"#utility.yul\":10855:10872   */\n  add\n    /* \"#utility.yul\":10846:10852   */\n  dup5\n    /* \"#utility.yul\":10802:10873   */\n  tag_63\n  jump\t// in\ntag_188:\n    /* \"#utility.yul\":10658:10880   */\n  swap3\n  swap2\n  pop\n  pop\n  jump\t// out\n    /* \"Desktop/work/dao-company/contracts/ERC20.sol\":82:2717  contract ERC20 is IERC20 {... */\ntag_11:\n  dataSize(sub_0)\n  dup1\n  dataOffset(sub_0)\n  0x00\n  codecopy\n  0x00\n  return\nstop\n\nsub_0: assembly {\n        /* \"Desktop/work/dao-company/contracts/ERC20.sol\":82:2717  contract ERC20 is IERC20 {... */\n      mstore(0x40, 0x80)\n      callvalue\n      dup1\n      iszero\n      tag_1\n      jumpi\n      0x00\n      dup1\n      revert\n    tag_1:\n      pop\n      jumpi(tag_2, lt(calldatasize, 0x04))\n      shr(0xe0, calldataload(0x00))\n      dup1\n      0x70a08231\n      gt\n      tag_14\n      jumpi\n      dup1\n      0x70a08231\n      eq\n      tag_8\n      jumpi\n      dup1\n      0x94bf804d\n      eq\n      tag_9\n      jumpi\n      dup1\n      0x95d89b41\n      eq\n      tag_10\n      jumpi\n      dup1\n      0x9dc29fac\n      eq\n      tag_11\n      jumpi\n      dup1\n      0xa9059cbb\n      eq\n      tag_12\n      jumpi\n      dup1\n      0xdd62ed3e\n      eq\n      tag_13\n      jumpi\n      jump(tag_2)\n    tag_14:\n      dup1\n      0x06fdde03\n      eq\n      tag_3\n      jumpi\n      dup1\n      0x095ea7b3\n      eq\n      tag_4\n      jumpi\n      dup1\n      0x18160ddd\n      eq\n      tag_5\n      jumpi\n      dup1\n      0x23b872dd\n      eq\n      tag_6\n      jumpi\n      dup1\n      0x313ce567\n      eq\n      tag_7\n      jumpi\n    tag_2:\n      0x00\n      dup1\n      revert\n        /* \"Desktop/work/dao-company/contracts/ERC20.sol\":769:849  function name() public view returns(string memory) {... */\n    tag_3:\n      tag_15\n      tag_16\n      jump\t// in\n    tag_15:\n      mload(0x40)\n      tag_17\n      swap2\n      swap1\n      tag_18\n      jump\t// in\n    tag_17:\n      mload(0x40)\n      dup1\n      swap2\n      sub\n      swap1\n      return\n        /* \"Desktop/work/dao-company/contracts/ERC20.sol\":1632:1797  function approve(address spender, uint amount) external {... */\n    tag_4:\n      tag_19\n      0x04\n      dup1\n      calldatasize\n      sub\n      dup2\n      add\n      swap1\n      tag_20\n      swap2\n      swap1\n      tag_21\n      jump\t// in\n    tag_20:\n      tag_22\n      jump\t// in\n    tag_19:\n      stop\n        /* \"Desktop/work/dao-company/contracts/ERC20.sol\":1023:1107  function totalSupply() public view returns(uint) {... */\n    tag_5:\n      tag_23\n      tag_24\n      jump\t// in\n    tag_23:\n      mload(0x40)\n      tag_25\n      swap2\n      swap1\n      tag_26\n      jump\t// in\n    tag_25:\n      mload(0x40)\n      dup1\n      swap2\n      sub\n      swap1\n      return\n        /* \"Desktop/work/dao-company/contracts/ERC20.sol\":1803:2123  function transferFrom(address sender, address recipient, uint amount) external {... */\n    tag_6:\n      tag_27\n      0x04\n      dup1\n      calldatasize\n      sub\n      dup2\n      add\n      swap1\n      tag_28\n      swap2\n      swap1\n      tag_29\n      jump\t// in\n    tag_28:\n      tag_30\n      jump\t// in\n    tag_27:\n      stop\n        /* \"Desktop/work/dao-company/contracts/ERC20.sol\":945:1017  function decimals() public pure returns(uint) {... */\n    tag_7:\n      tag_31\n      tag_32\n      jump\t// in\n    tag_31:\n      mload(0x40)\n      tag_33\n      swap2\n      swap1\n      tag_26\n      jump\t// in\n    tag_33:\n      mload(0x40)\n      dup1\n      swap2\n      sub\n      swap1\n      return\n        /* \"Desktop/work/dao-company/contracts/ERC20.sol\":1113:1216  function balanceOf(address account) public view returns(uint) {... */\n    tag_8:\n      tag_34\n      0x04\n      dup1\n      calldatasize\n      sub\n      dup2\n      add\n      swap1\n      tag_35\n      swap2\n      swap1\n      tag_36\n      jump\t// in\n    tag_35:\n      tag_37\n      jump\t// in\n    tag_34:\n      mload(0x40)\n      tag_38\n      swap2\n      swap1\n      tag_26\n      jump\t// in\n    tag_38:\n      mload(0x40)\n      dup1\n      swap2\n      sub\n      swap1\n      return\n        /* \"Desktop/work/dao-company/contracts/ERC20.sol\":2129:2362  function mint(uint amount, address _to) public onlyOwner {... */\n    tag_9:\n      tag_39\n      0x04\n      dup1\n      calldatasize\n      sub\n      dup2\n      add\n      swap1\n      tag_40\n      swap2\n      swap1\n      tag_41\n      jump\t// in\n    tag_40:\n      tag_42\n      jump\t// in\n    tag_39:\n      stop\n        /* \"Desktop/work/dao-company/contracts/ERC20.sol\":855:939  function symbol() public view returns(string memory) {... */\n    tag_10:\n      tag_43\n      tag_44\n      jump\t// in\n    tag_43:\n      mload(0x40)\n      tag_45\n      swap2\n      swap1\n      tag_18\n      jump\t// in\n    tag_45:\n      mload(0x40)\n      dup1\n      swap2\n      sub\n      swap1\n      return\n        /* \"Desktop/work/dao-company/contracts/ERC20.sol\":2368:2591  function burn(address _from, uint _amount) public onlyOwner enoughTokens(_from, _amount) {... */\n    tag_11:\n      tag_46\n      0x04\n      dup1\n      calldatasize\n      sub\n      dup2\n      add\n      swap1\n      tag_47\n      swap2\n      swap1\n      tag_21\n      jump\t// in\n    tag_47:\n      tag_48\n      jump\t// in\n    tag_46:\n      stop\n        /* \"Desktop/work/dao-company/contracts/ERC20.sol\":1222:1489  function transfer(address to, uint amount) external enoughTokens(msg.sender, amount) {... */\n    tag_12:\n      tag_49\n      0x04\n      dup1\n      calldatasize\n      sub\n      dup2\n      add\n      swap1\n      tag_50\n      swap2\n      swap1\n      tag_21\n      jump\t// in\n    tag_50:\n      tag_51\n      jump\t// in\n    tag_49:\n      stop\n        /* \"Desktop/work/dao-company/contracts/ERC20.sol\":1495:1626  function allowance(address _owner, address spender) external view returns(uint) {... */\n    tag_13:\n      tag_52\n      0x04\n      dup1\n      calldatasize\n      sub\n      dup2\n      add\n      swap1\n      tag_53\n      swap2\n      swap1\n      tag_54\n      jump\t// in\n    tag_53:\n      tag_55\n      jump\t// in\n    tag_52:\n      mload(0x40)\n      tag_56\n      swap2\n      swap1\n      tag_26\n      jump\t// in\n    tag_56:\n      mload(0x40)\n      dup1\n      swap2\n      sub\n      swap1\n      return\n        /* \"Desktop/work/dao-company/contracts/ERC20.sol\":769:849  function name() public view returns(string memory) {... */\n    tag_16:\n        /* \"Desktop/work/dao-company/contracts/ERC20.sol\":805:818  string memory */\n      0x60\n        /* \"Desktop/work/dao-company/contracts/ERC20.sol\":837:842  _name */\n      0x04\n        /* \"Desktop/work/dao-company/contracts/ERC20.sol\":830:842  return _name */\n      dup1\n      sload\n      tag_58\n      swap1\n      tag_59\n      jump\t// in\n    tag_58:\n      dup1\n      0x1f\n      add\n      0x20\n      dup1\n      swap2\n      div\n      mul\n      0x20\n      add\n      mload(0x40)\n      swap1\n      dup2\n      add\n      0x40\n      mstore\n      dup1\n      swap3\n      swap2\n      swap1\n      dup2\n      dup2\n      mstore\n      0x20\n      add\n      dup3\n      dup1\n      sload\n      tag_60\n      swap1\n      tag_59\n      jump\t// in\n    tag_60:\n      dup1\n      iszero\n      tag_61\n      jumpi\n      dup1\n      0x1f\n      lt\n      tag_62\n      jumpi\n      0x0100\n      dup1\n      dup4\n      sload\n      div\n      mul\n      dup4\n      mstore\n      swap2\n      0x20\n      add\n      swap2\n      jump(tag_61)\n    tag_62:\n      dup3\n      add\n      swap2\n      swap1\n      0x00\n      mstore\n      keccak256(0x00, 0x20)\n      swap1\n    tag_63:\n      dup2\n      sload\n      dup2\n      mstore\n      swap1\n      0x01\n      add\n      swap1\n      0x20\n      add\n      dup1\n      dup4\n      gt\n      tag_63\n      jumpi\n      dup3\n      swap1\n      sub\n      0x1f\n      and\n      dup3\n      add\n      swap2\n    tag_61:\n      pop\n      pop\n      pop\n      pop\n      pop\n      swap1\n      pop\n        /* \"Desktop/work/dao-company/contracts/ERC20.sol\":769:849  function name() public view returns(string memory) {... */\n      swap1\n      jump\t// out\n        /* \"Desktop/work/dao-company/contracts/ERC20.sol\":1632:1797  function approve(address spender, uint amount) external {... */\n    tag_22:\n        /* \"Desktop/work/dao-company/contracts/ERC20.sol\":1732:1738  amount */\n      dup1\n        /* \"Desktop/work/dao-company/contracts/ERC20.sol\":1698:1708  allowances */\n      0x03\n        /* \"Desktop/work/dao-company/contracts/ERC20.sol\":1698:1720  allowances[msg.sender] */\n      0x00\n        /* \"Desktop/work/dao-company/contracts/ERC20.sol\":1709:1719  msg.sender */\n      caller\n        /* \"Desktop/work/dao-company/contracts/ERC20.sol\":1698:1720  allowances[msg.sender] */\n      0xffffffffffffffffffffffffffffffffffffffff\n      and\n      0xffffffffffffffffffffffffffffffffffffffff\n      and\n      dup2\n      mstore\n      0x20\n      add\n      swap1\n      dup2\n      mstore\n      0x20\n      add\n      0x00\n      keccak256\n        /* \"Desktop/work/dao-company/contracts/ERC20.sol\":1698:1729  allowances[msg.sender][spender] */\n      0x00\n        /* \"Desktop/work/dao-company/contracts/ERC20.sol\":1721:1728  spender */\n      dup5\n        /* \"Desktop/work/dao-company/contracts/ERC20.sol\":1698:1729  allowances[msg.sender][spender] */\n      0xffffffffffffffffffffffffffffffffffffffff\n      and\n      0xffffffffffffffffffffffffffffffffffffffff\n      and\n      dup2\n      mstore\n      0x20\n      add\n      swap1\n      dup2\n      mstore\n      0x20\n      add\n      0x00\n      keccak256\n        /* \"Desktop/work/dao-company/contracts/ERC20.sol\":1698:1738  allowances[msg.sender][spender] = amount */\n      dup2\n      swap1\n      sstore\n      pop\n        /* \"Desktop/work/dao-company/contracts/ERC20.sol\":1774:1781  spender */\n      dup2\n        /* \"Desktop/work/dao-company/contracts/ERC20.sol\":1754:1790  Approve(msg.sender, spender, amount) */\n      0xffffffffffffffffffffffffffffffffffffffff\n      and\n        /* \"Desktop/work/dao-company/contracts/ERC20.sol\":1762:1772  msg.sender */\n      caller\n        /* \"Desktop/work/dao-company/contracts/ERC20.sol\":1754:1790  Approve(msg.sender, spender, amount) */\n      0xffffffffffffffffffffffffffffffffffffffff\n      and\n      0x6e11fb1b7f119e3f2fa29896ef5fdf8b8a2d0d4df6fe90ba8668e7d8b2ffa25e\n        /* \"Desktop/work/dao-company/contracts/ERC20.sol\":1783:1789  amount */\n      dup4\n        /* \"Desktop/work/dao-company/contracts/ERC20.sol\":1754:1790  Approve(msg.sender, spender, amount) */\n      mload(0x40)\n      tag_65\n      swap2\n      swap1\n      tag_26\n      jump\t// in\n    tag_65:\n      mload(0x40)\n      dup1\n      swap2\n      sub\n      swap1\n      log3\n        /* \"Desktop/work/dao-company/contracts/ERC20.sol\":1632:1797  function approve(address spender, uint amount) external {... */\n      pop\n      pop\n      jump\t// out\n        /* \"Desktop/work/dao-company/contracts/ERC20.sol\":1023:1107  function totalSupply() public view returns(uint) {... */\n    tag_24:\n        /* \"Desktop/work/dao-company/contracts/ERC20.sol\":1066:1070  uint */\n      0x00\n        /* \"Desktop/work/dao-company/contracts/ERC20.sol\":1089:1100  totalTokens */\n      dup1\n      sload\n        /* \"Desktop/work/dao-company/contracts/ERC20.sol\":1082:1100  return totalTokens */\n      swap1\n      pop\n        /* \"Desktop/work/dao-company/contracts/ERC20.sol\":1023:1107  function totalSupply() public view returns(uint) {... */\n      swap1\n      jump\t// out\n        /* \"Desktop/work/dao-company/contracts/ERC20.sol\":1803:2123  function transferFrom(address sender, address recipient, uint amount) external {... */\n    tag_30:\n        /* \"Desktop/work/dao-company/contracts/ERC20.sol\":1892:1939  _beforeTokenTransfer(sender, recipient, amount) */\n      tag_68\n        /* \"Desktop/work/dao-company/contracts/ERC20.sol\":1913:1919  sender */\n      dup4\n        /* \"Desktop/work/dao-company/contracts/ERC20.sol\":1921:1930  recipient */\n      dup4\n        /* \"Desktop/work/dao-company/contracts/ERC20.sol\":1932:1938  amount */\n      dup4\n        /* \"Desktop/work/dao-company/contracts/ERC20.sol\":1892:1912  _beforeTokenTransfer */\n      tag_69\n        /* \"Desktop/work/dao-company/contracts/ERC20.sol\":1892:1939  _beforeTokenTransfer(sender, recipient, amount) */\n      jump\t// in\n    tag_68:\n        /* \"Desktop/work/dao-company/contracts/ERC20.sol\":1984:1990  amount */\n      dup1\n        /* \"Desktop/work/dao-company/contracts/ERC20.sol\":1950:1960  allowances */\n      0x03\n        /* \"Desktop/work/dao-company/contracts/ERC20.sol\":1950:1968  allowances[sender] */\n      0x00\n        /* \"Desktop/work/dao-company/contracts/ERC20.sol\":1961:1967  sender */\n      dup6\n        /* \"Desktop/work/dao-company/contracts/ERC20.sol\":1950:1968  allowances[sender] */\n      0xffffffffffffffffffffffffffffffffffffffff\n      and\n      0xffffffffffffffffffffffffffffffffffffffff\n      and\n      dup2\n      mstore\n      0x20\n      add\n      swap1\n      dup2\n      mstore\n      0x20\n      add\n      0x00\n      keccak256\n        /* \"Desktop/work/dao-company/contracts/ERC20.sol\":1950:1980  allowances[sender][msg.sender] */\n      0x00\n        /* \"Desktop/work/dao-company/contracts/ERC20.sol\":1969:1979  msg.sender */\n      caller\n        /* \"Desktop/work/dao-company/contracts/ERC20.sol\":1950:1980  allowances[sender][msg.sender] */\n      0xffffffffffffffffffffffffffffffffffffffff\n      and\n      0xffffffffffffffffffffffffffffffffffffffff\n      and\n      dup2\n      mstore\n      0x20\n      add\n      swap1\n      dup2\n      mstore\n      0x20\n      add\n      0x00\n      keccak256\n      0x00\n        /* \"Desktop/work/dao-company/contracts/ERC20.sol\":1950:1990  allowances[sender][msg.sender] -= amount */\n      dup3\n      dup3\n      sload\n      tag_70\n      swap2\n      swap1\n      tag_71\n      jump\t// in\n    tag_70:\n      swap3\n      pop\n      pop\n      dup2\n      swap1\n      sstore\n      pop\n        /* \"Desktop/work/dao-company/contracts/ERC20.sol\":2020:2026  amount */\n      dup1\n        /* \"Desktop/work/dao-company/contracts/ERC20.sol\":2000:2008  balances */\n      0x02\n        /* \"Desktop/work/dao-company/contracts/ERC20.sol\":2000:2016  balances[sender] */\n      0x00\n        /* \"Desktop/work/dao-company/contracts/ERC20.sol\":2009:2015  sender */\n      dup6\n        /* \"Desktop/work/dao-company/contracts/ERC20.sol\":2000:2016  balances[sender] */\n      0xffffffffffffffffffffffffffffffffffffffff\n      and\n      0xffffffffffffffffffffffffffffffffffffffff\n      and\n      dup2\n      mstore\n      0x20\n      add\n      swap1\n      dup2\n      mstore\n      0x20\n      add\n      0x00\n      keccak256\n      0x00\n        /* \"Desktop/work/dao-company/contracts/ERC20.sol\":2000:2026  balances[sender] -= amount */\n      dup3\n      dup3\n      sload\n      tag_72\n      swap2\n      swap1\n      tag_71\n      jump\t// in\n    tag_72:\n      swap3\n      pop\n      pop\n      dup2\n      swap1\n      sstore\n      pop\n        /* \"Desktop/work/dao-company/contracts/ERC20.sol\":2059:2065  amount */\n      dup1\n        /* \"Desktop/work/dao-company/contracts/ERC20.sol\":2036:2044  balances */\n      0x02\n        /* \"Desktop/work/dao-company/contracts/ERC20.sol\":2036:2055  balances[recipient] */\n      0x00\n        /* \"Desktop/work/dao-company/contracts/ERC20.sol\":2045:2054  recipient */\n      dup5\n        /* \"Desktop/work/dao-company/contracts/ERC20.sol\":2036:2055  balances[recipient] */\n      0xffffffffffffffffffffffffffffffffffffffff\n      and\n      0xffffffffffffffffffffffffffffffffffffffff\n      and\n      dup2\n      mstore\n      0x20\n      add\n      swap1\n      dup2\n      mstore\n      0x20\n      add\n      0x00\n      keccak256\n      0x00\n        /* \"Desktop/work/dao-company/contracts/ERC20.sol\":2036:2065  balances[recipient] += amount */\n      dup3\n      dup3\n      sload\n      tag_73\n      swap2\n      swap1\n      tag_74\n      jump\t// in\n    tag_73:\n      swap3\n      pop\n      pop\n      dup2\n      swap1\n      sstore\n      pop\n        /* \"Desktop/work/dao-company/contracts/ERC20.sol\":2098:2107  recipient */\n      dup2\n        /* \"Desktop/work/dao-company/contracts/ERC20.sol\":2081:2116  Transfer(sender, recipient, amount) */\n      0xffffffffffffffffffffffffffffffffffffffff\n      and\n        /* \"Desktop/work/dao-company/contracts/ERC20.sol\":2090:2096  sender */\n      dup4\n        /* \"Desktop/work/dao-company/contracts/ERC20.sol\":2081:2116  Transfer(sender, recipient, amount) */\n      0xffffffffffffffffffffffffffffffffffffffff\n      and\n      0xddf252ad1be2c89b69c2b068fc378daa952ba7f163c4a11628f55a4df523b3ef\n        /* \"Desktop/work/dao-company/contracts/ERC20.sol\":2109:2115  amount */\n      dup4\n        /* \"Desktop/work/dao-company/contracts/ERC20.sol\":2081:2116  Transfer(sender, recipient, amount) */\n      mload(0x40)\n      tag_75\n      swap2\n      swap1\n      tag_26\n      jump\t// in\n    tag_75:\n      mload(0x40)\n      dup1\n      swap2\n      sub\n      swap1\n      log3\n        /* \"Desktop/work/dao-company/contracts/ERC20.sol\":1803:2123  function transferFrom(address sender, address recipient, uint amount) external {... */\n      pop\n      pop\n      pop\n      jump\t// out\n        /* \"Desktop/work/dao-company/contracts/ERC20.sol\":945:1017  function decimals() public pure returns(uint) {... */\n    tag_32:\n        /* \"Desktop/work/dao-company/contracts/ERC20.sol\":985:989  uint */\n      0x00\n        /* \"Desktop/work/dao-company/contracts/ERC20.sol\":1008:1010  18 */\n      0x12\n        /* \"Desktop/work/dao-company/contracts/ERC20.sol\":1001:1010  return 18 */\n      swap1\n      pop\n        /* \"Desktop/work/dao-company/contracts/ERC20.sol\":945:1017  function decimals() public pure returns(uint) {... */\n      swap1\n      jump\t// out\n        /* \"Desktop/work/dao-company/contracts/ERC20.sol\":1113:1216  function balanceOf(address account) public view returns(uint) {... */\n    tag_37:\n        /* \"Desktop/work/dao-company/contracts/ERC20.sol\":1169:1173  uint */\n      0x00\n        /* \"Desktop/work/dao-company/contracts/ERC20.sol\":1192:1200  balances */\n      0x02\n        /* \"Desktop/work/dao-company/contracts/ERC20.sol\":1192:1209  balances[account] */\n      0x00\n        /* \"Desktop/work/dao-company/contracts/ERC20.sol\":1201:1208  account */\n      dup4\n        /* \"Desktop/work/dao-company/contracts/ERC20.sol\":1192:1209  balances[account] */\n      0xffffffffffffffffffffffffffffffffffffffff\n      and\n      0xffffffffffffffffffffffffffffffffffffffff\n      and\n      dup2\n      mstore\n      0x20\n      add\n      swap1\n      dup2\n      mstore\n      0x20\n      add\n      0x00\n      keccak256\n      sload\n        /* \"Desktop/work/dao-company/contracts/ERC20.sol\":1185:1209  return balances[account] */\n      swap1\n      pop\n        /* \"Desktop/work/dao-company/contracts/ERC20.sol\":1113:1216  function balanceOf(address account) public view returns(uint) {... */\n      swap2\n      swap1\n      pop\n      jump\t// out\n        /* \"Desktop/work/dao-company/contracts/ERC20.sol\":2129:2362  function mint(uint amount, address _to) public onlyOwner {... */\n    tag_42:\n        /* \"Desktop/work/dao-company/contracts/ERC20.sol\":489:494  owner */\n      0x01\n      0x00\n      swap1\n      sload\n      swap1\n      0x0100\n      exp\n      swap1\n      div\n      0xffffffffffffffffffffffffffffffffffffffff\n      and\n        /* \"Desktop/work/dao-company/contracts/ERC20.sol\":475:494  msg.sender == owner */\n      0xffffffffffffffffffffffffffffffffffffffff\n      and\n        /* \"Desktop/work/dao-company/contracts/ERC20.sol\":475:485  msg.sender */\n      caller\n        /* \"Desktop/work/dao-company/contracts/ERC20.sol\":475:494  msg.sender == owner */\n      0xffffffffffffffffffffffffffffffffffffffff\n      and\n      eq\n        /* \"Desktop/work/dao-company/contracts/ERC20.sol\":467:512  require(msg.sender == owner, \"not an owner!\") */\n      tag_79\n      jumpi\n      mload(0x40)\n      0x08c379a000000000000000000000000000000000000000000000000000000000\n      dup2\n      mstore\n      0x04\n      add\n      tag_80\n      swap1\n      tag_81\n      jump\t// in\n    tag_80:\n      mload(0x40)\n      dup1\n      swap2\n      sub\n      swap1\n      revert\n    tag_79:\n        /* \"Desktop/work/dao-company/contracts/ERC20.sol\":2196:2241  _beforeTokenTransfer(address(0), _to, amount) */\n      tag_83\n        /* \"Desktop/work/dao-company/contracts/ERC20.sol\":2225:2226  0 */\n      0x00\n        /* \"Desktop/work/dao-company/contracts/ERC20.sol\":2229:2232  _to */\n      dup3\n        /* \"Desktop/work/dao-company/contracts/ERC20.sol\":2234:2240  amount */\n      dup5\n        /* \"Desktop/work/dao-company/contracts/ERC20.sol\":2196:2216  _beforeTokenTransfer */\n      tag_69\n        /* \"Desktop/work/dao-company/contracts/ERC20.sol\":2196:2241  _beforeTokenTransfer(address(0), _to, amount) */\n      jump\t// in\n    tag_83:\n        /* \"Desktop/work/dao-company/contracts/ERC20.sol\":2269:2275  amount */\n      dup2\n        /* \"Desktop/work/dao-company/contracts/ERC20.sol\":2252:2260  balances */\n      0x02\n        /* \"Desktop/work/dao-company/contracts/ERC20.sol\":2252:2265  balances[_to] */\n      0x00\n        /* \"Desktop/work/dao-company/contracts/ERC20.sol\":2261:2264  _to */\n      dup4\n        /* \"Desktop/work/dao-company/contracts/ERC20.sol\":2252:2265  balances[_to] */\n      0xffffffffffffffffffffffffffffffffffffffff\n      and\n      0xffffffffffffffffffffffffffffffffffffffff\n      and\n      dup2\n      mstore\n      0x20\n      add\n      swap1\n      dup2\n      mstore\n      0x20\n      add\n      0x00\n      keccak256\n      0x00\n        /* \"Desktop/work/dao-company/contracts/ERC20.sol\":2252:2275  balances[_to] += amount */\n      dup3\n      dup3\n      sload\n      tag_84\n      swap2\n      swap1\n      tag_74\n      jump\t// in\n    tag_84:\n      swap3\n      pop\n      pop\n      dup2\n      swap1\n      sstore\n      pop\n        /* \"Desktop/work/dao-company/contracts/ERC20.sol\":2300:2306  amount */\n      dup2\n        /* \"Desktop/work/dao-company/contracts/ERC20.sol\":2285:2296  totalTokens */\n      0x00\n      dup1\n        /* \"Desktop/work/dao-company/contracts/ERC20.sol\":2285:2306  totalTokens += amount */\n      dup3\n      dup3\n      sload\n      tag_85\n      swap2\n      swap1\n      tag_74\n      jump\t// in\n    tag_85:\n      swap3\n      pop\n      pop\n      dup2\n      swap1\n      sstore\n      pop\n        /* \"Desktop/work/dao-company/contracts/ERC20.sol\":2343:2346  _to */\n      dup1\n        /* \"Desktop/work/dao-company/contracts/ERC20.sol\":2322:2355  Transfer(address(0), _to, amount) */\n      0xffffffffffffffffffffffffffffffffffffffff\n      and\n        /* \"Desktop/work/dao-company/contracts/ERC20.sol\":2339:2340  0 */\n      0x00\n        /* \"Desktop/work/dao-company/contracts/ERC20.sol\":2322:2355  Transfer(address(0), _to, amount) */\n      0xffffffffffffffffffffffffffffffffffffffff\n      and\n      0xddf252ad1be2c89b69c2b068fc378daa952ba7f163c4a11628f55a4df523b3ef\n        /* \"Desktop/work/dao-company/contracts/ERC20.sol\":2348:2354  amount */\n      dup5\n        /* \"Desktop/work/dao-company/contracts/ERC20.sol\":2322:2355  Transfer(address(0), _to, amount) */\n      mload(0x40)\n      tag_86\n      swap2\n      swap1\n      tag_26\n      jump\t// in\n    tag_86:\n      mload(0x40)\n      dup1\n      swap2\n      sub\n      swap1\n      log3\n        /* \"Desktop/work/dao-company/contracts/ERC20.sol\":2129:2362  function mint(uint amount, address _to) public onlyOwner {... */\n      pop\n      pop\n      jump\t// out\n        /* \"Desktop/work/dao-company/contracts/ERC20.sol\":855:939  function symbol() public view returns(string memory) {... */\n    tag_44:\n        /* \"Desktop/work/dao-company/contracts/ERC20.sol\":893:906  string memory */\n      0x60\n        /* \"Desktop/work/dao-company/contracts/ERC20.sol\":925:932  _symbol */\n      0x05\n        /* \"Desktop/work/dao-company/contracts/ERC20.sol\":918:932  return _symbol */\n      dup1\n      sload\n      tag_88\n      swap1\n      tag_59\n      jump\t// in\n    tag_88:\n      dup1\n      0x1f\n      add\n      0x20\n      dup1\n      swap2\n      div\n      mul\n      0x20\n      add\n      mload(0x40)\n      swap1\n      dup2\n      add\n      0x40\n      mstore\n      dup1\n      swap3\n      swap2\n      swap1\n      dup2\n      dup2\n      mstore\n      0x20\n      add\n      dup3\n      dup1\n      sload\n      tag_89\n      swap1\n      tag_59\n      jump\t// in\n    tag_89:\n      dup1\n      iszero\n      tag_90\n      jumpi\n      dup1\n      0x1f\n      lt\n      tag_91\n      jumpi\n      0x0100\n      dup1\n      dup4\n      sload\n      div\n      mul\n      dup4\n      mstore\n      swap2\n      0x20\n      add\n      swap2\n      jump(tag_90)\n    tag_91:\n      dup3\n      add\n      swap2\n      swap1\n      0x00\n      mstore\n      keccak256(0x00, 0x20)\n      swap1\n    tag_92:\n      dup2\n      sload\n      dup2\n      mstore\n      swap1\n      0x01\n      add\n      swap1\n      0x20\n      add\n      dup1\n      dup4\n      gt\n      tag_92\n      jumpi\n      dup3\n      swap1\n      sub\n      0x1f\n      and\n      dup3\n      add\n      swap2\n    tag_90:\n      pop\n      pop\n      pop\n      pop\n      pop\n      swap1\n      pop\n        /* \"Desktop/work/dao-company/contracts/ERC20.sol\":855:939  function symbol() public view returns(string memory) {... */\n      swap1\n      jump\t// out\n        /* \"Desktop/work/dao-company/contracts/ERC20.sol\":2368:2591  function burn(address _from, uint _amount) public onlyOwner enoughTokens(_from, _amount) {... */\n    tag_48:\n        /* \"Desktop/work/dao-company/contracts/ERC20.sol\":489:494  owner */\n      0x01\n      0x00\n      swap1\n      sload\n      swap1\n      0x0100\n      exp\n      swap1\n      div\n      0xffffffffffffffffffffffffffffffffffffffff\n      and\n        /* \"Desktop/work/dao-company/contracts/ERC20.sol\":475:494  msg.sender == owner */\n      0xffffffffffffffffffffffffffffffffffffffff\n      and\n        /* \"Desktop/work/dao-company/contracts/ERC20.sol\":475:485  msg.sender */\n      caller\n        /* \"Desktop/work/dao-company/contracts/ERC20.sol\":475:494  msg.sender == owner */\n      0xffffffffffffffffffffffffffffffffffffffff\n      and\n      eq\n        /* \"Desktop/work/dao-company/contracts/ERC20.sol\":467:512  require(msg.sender == owner, \"not an owner!\") */\n      tag_94\n      jumpi\n      mload(0x40)\n      0x08c379a000000000000000000000000000000000000000000000000000000000\n      dup2\n      mstore\n      0x04\n      add\n      tag_95\n      swap1\n      tag_81\n      jump\t// in\n    tag_95:\n      mload(0x40)\n      dup1\n      swap2\n      sub\n      swap1\n      revert\n    tag_94:\n        /* \"Desktop/work/dao-company/contracts/ERC20.sol\":2441:2446  _from */\n      dup2\n        /* \"Desktop/work/dao-company/contracts/ERC20.sol\":2448:2455  _amount */\n      dup2\n        /* \"Desktop/work/dao-company/contracts/ERC20.sol\":382:389  _amount */\n      dup1\n        /* \"Desktop/work/dao-company/contracts/ERC20.sol\":362:378  balanceOf(_from) */\n      tag_97\n        /* \"Desktop/work/dao-company/contracts/ERC20.sol\":372:377  _from */\n      dup4\n        /* \"Desktop/work/dao-company/contracts/ERC20.sol\":362:371  balanceOf */\n      tag_37\n        /* \"Desktop/work/dao-company/contracts/ERC20.sol\":362:378  balanceOf(_from) */\n      jump\t// in\n    tag_97:\n        /* \"Desktop/work/dao-company/contracts/ERC20.sol\":362:389  balanceOf(_from) >= _amount */\n      lt\n      iszero\n        /* \"Desktop/work/dao-company/contracts/ERC20.sol\":354:412  require(balanceOf(_from) >= _amount, \"not enough tokens!\") */\n      tag_98\n      jumpi\n      mload(0x40)\n      0x08c379a000000000000000000000000000000000000000000000000000000000\n      dup2\n      mstore\n      0x04\n      add\n      tag_99\n      swap1\n      tag_100\n      jump\t// in\n    tag_99:\n      mload(0x40)\n      dup1\n      swap2\n      sub\n      swap1\n      revert\n    tag_98:\n        /* \"Desktop/work/dao-company/contracts/ERC20.sol\":2467:2515  _beforeTokenTransfer(_from, address(0), _amount) */\n      tag_102\n        /* \"Desktop/work/dao-company/contracts/ERC20.sol\":2488:2493  _from */\n      dup5\n        /* \"Desktop/work/dao-company/contracts/ERC20.sol\":2503:2504  0 */\n      0x00\n        /* \"Desktop/work/dao-company/contracts/ERC20.sol\":2507:2514  _amount */\n      dup6\n        /* \"Desktop/work/dao-company/contracts/ERC20.sol\":2467:2487  _beforeTokenTransfer */\n      tag_69\n        /* \"Desktop/work/dao-company/contracts/ERC20.sol\":2467:2515  _beforeTokenTransfer(_from, address(0), _amount) */\n      jump\t// in\n    tag_102:\n        /* \"Desktop/work/dao-company/contracts/ERC20.sol\":2545:2552  _amount */\n      dup3\n        /* \"Desktop/work/dao-company/contracts/ERC20.sol\":2526:2534  balances */\n      0x02\n        /* \"Desktop/work/dao-company/contracts/ERC20.sol\":2526:2541  balances[_from] */\n      0x00\n        /* \"Desktop/work/dao-company/contracts/ERC20.sol\":2535:2540  _from */\n      dup7\n        /* \"Desktop/work/dao-company/contracts/ERC20.sol\":2526:2541  balances[_from] */\n      0xffffffffffffffffffffffffffffffffffffffff\n      and\n      0xffffffffffffffffffffffffffffffffffffffff\n      and\n      dup2\n      mstore\n      0x20\n      add\n      swap1\n      dup2\n      mstore\n      0x20\n      add\n      0x00\n      keccak256\n      0x00\n        /* \"Desktop/work/dao-company/contracts/ERC20.sol\":2526:2552  balances[_from] -= _amount */\n      dup3\n      dup3\n      sload\n      tag_103\n      swap2\n      swap1\n      tag_71\n      jump\t// in\n    tag_103:\n      swap3\n      pop\n      pop\n      dup2\n      swap1\n      sstore\n      pop\n        /* \"Desktop/work/dao-company/contracts/ERC20.sol\":2577:2584  _amount */\n      dup3\n        /* \"Desktop/work/dao-company/contracts/ERC20.sol\":2562:2573  totalTokens */\n      0x00\n      dup1\n        /* \"Desktop/work/dao-company/contracts/ERC20.sol\":2562:2584  totalTokens -= _amount */\n      dup3\n      dup3\n      sload\n      tag_104\n      swap2\n      swap1\n      tag_71\n      jump\t// in\n    tag_104:\n      swap3\n      pop\n      pop\n      dup2\n      swap1\n      sstore\n      pop\n        /* \"Desktop/work/dao-company/contracts/ERC20.sol\":522:523  _ */\n      pop\n      pop\n        /* \"Desktop/work/dao-company/contracts/ERC20.sol\":2368:2591  function burn(address _from, uint _amount) public onlyOwner enoughTokens(_from, _amount) {... */\n      pop\n      pop\n      jump\t// out\n        /* \"Desktop/work/dao-company/contracts/ERC20.sol\":1222:1489  function transfer(address to, uint amount) external enoughTokens(msg.sender, amount) {... */\n    tag_51:\n        /* \"Desktop/work/dao-company/contracts/ERC20.sol\":1287:1297  msg.sender */\n      caller\n        /* \"Desktop/work/dao-company/contracts/ERC20.sol\":1299:1305  amount */\n      dup2\n        /* \"Desktop/work/dao-company/contracts/ERC20.sol\":382:389  _amount */\n      dup1\n        /* \"Desktop/work/dao-company/contracts/ERC20.sol\":362:378  balanceOf(_from) */\n      tag_106\n        /* \"Desktop/work/dao-company/contracts/ERC20.sol\":372:377  _from */\n      dup4\n        /* \"Desktop/work/dao-company/contracts/ERC20.sol\":362:371  balanceOf */\n      tag_37\n        /* \"Desktop/work/dao-company/contracts/ERC20.sol\":362:378  balanceOf(_from) */\n      jump\t// in\n    tag_106:\n        /* \"Desktop/work/dao-company/contracts/ERC20.sol\":362:389  balanceOf(_from) >= _amount */\n      lt\n      iszero\n        /* \"Desktop/work/dao-company/contracts/ERC20.sol\":354:412  require(balanceOf(_from) >= _amount, \"not enough tokens!\") */\n      tag_107\n      jumpi\n      mload(0x40)\n      0x08c379a000000000000000000000000000000000000000000000000000000000\n      dup2\n      mstore\n      0x04\n      add\n      tag_108\n      swap1\n      tag_100\n      jump\t// in\n    tag_108:\n      mload(0x40)\n      dup1\n      swap2\n      sub\n      swap1\n      revert\n    tag_107:\n        /* \"Desktop/work/dao-company/contracts/ERC20.sol\":1317:1361  _beforeTokenTransfer(msg.sender, to, amount) */\n      tag_110\n        /* \"Desktop/work/dao-company/contracts/ERC20.sol\":1338:1348  msg.sender */\n      caller\n        /* \"Desktop/work/dao-company/contracts/ERC20.sol\":1350:1352  to */\n      dup6\n        /* \"Desktop/work/dao-company/contracts/ERC20.sol\":1354:1360  amount */\n      dup6\n        /* \"Desktop/work/dao-company/contracts/ERC20.sol\":1317:1337  _beforeTokenTransfer */\n      tag_69\n        /* \"Desktop/work/dao-company/contracts/ERC20.sol\":1317:1361  _beforeTokenTransfer(msg.sender, to, amount) */\n      jump\t// in\n    tag_110:\n        /* \"Desktop/work/dao-company/contracts/ERC20.sol\":1396:1402  amount */\n      dup3\n        /* \"Desktop/work/dao-company/contracts/ERC20.sol\":1372:1380  balances */\n      0x02\n        /* \"Desktop/work/dao-company/contracts/ERC20.sol\":1372:1392  balances[msg.sender] */\n      0x00\n        /* \"Desktop/work/dao-company/contracts/ERC20.sol\":1381:1391  msg.sender */\n      caller\n        /* \"Desktop/work/dao-company/contracts/ERC20.sol\":1372:1392  balances[msg.sender] */\n      0xffffffffffffffffffffffffffffffffffffffff\n      and\n      0xffffffffffffffffffffffffffffffffffffffff\n      and\n      dup2\n      mstore\n      0x20\n      add\n      swap1\n      dup2\n      mstore\n      0x20\n      add\n      0x00\n      keccak256\n      0x00\n        /* \"Desktop/work/dao-company/contracts/ERC20.sol\":1372:1402  balances[msg.sender] -= amount */\n      dup3\n      dup3\n      sload\n      tag_111\n      swap2\n      swap1\n      tag_71\n      jump\t// in\n    tag_111:\n      swap3\n      pop\n      pop\n      dup2\n      swap1\n      sstore\n      pop\n        /* \"Desktop/work/dao-company/contracts/ERC20.sol\":1428:1434  amount */\n      dup3\n        /* \"Desktop/work/dao-company/contracts/ERC20.sol\":1412:1420  balances */\n      0x02\n        /* \"Desktop/work/dao-company/contracts/ERC20.sol\":1412:1424  balances[to] */\n      0x00\n        /* \"Desktop/work/dao-company/contracts/ERC20.sol\":1421:1423  to */\n      dup7\n        /* \"Desktop/work/dao-company/contracts/ERC20.sol\":1412:1424  balances[to] */\n      0xffffffffffffffffffffffffffffffffffffffff\n      and\n      0xffffffffffffffffffffffffffffffffffffffff\n      and\n      dup2\n      mstore\n      0x20\n      add\n      swap1\n      dup2\n      mstore\n      0x20\n      add\n      0x00\n      keccak256\n      0x00\n        /* \"Desktop/work/dao-company/contracts/ERC20.sol\":1412:1434  balances[to] += amount */\n      dup3\n      dup3\n      sload\n      tag_112\n      swap2\n      swap1\n      tag_74\n      jump\t// in\n    tag_112:\n      swap3\n      pop\n      pop\n      dup2\n      swap1\n      sstore\n      pop\n        /* \"Desktop/work/dao-company/contracts/ERC20.sol\":1471:1473  to */\n      dup4\n        /* \"Desktop/work/dao-company/contracts/ERC20.sol\":1450:1482  Transfer(msg.sender, to, amount) */\n      0xffffffffffffffffffffffffffffffffffffffff\n      and\n        /* \"Desktop/work/dao-company/contracts/ERC20.sol\":1459:1469  msg.sender */\n      caller\n        /* \"Desktop/work/dao-company/contracts/ERC20.sol\":1450:1482  Transfer(msg.sender, to, amount) */\n      0xffffffffffffffffffffffffffffffffffffffff\n      and\n      0xddf252ad1be2c89b69c2b068fc378daa952ba7f163c4a11628f55a4df523b3ef\n        /* \"Desktop/work/dao-company/contracts/ERC20.sol\":1475:1481  amount */\n      dup6\n        /* \"Desktop/work/dao-company/contracts/ERC20.sol\":1450:1482  Transfer(msg.sender, to, amount) */\n      mload(0x40)\n      tag_113\n      swap2\n      swap1\n      tag_26\n      jump\t// in\n    tag_113:\n      mload(0x40)\n      dup1\n      swap2\n      sub\n      swap1\n      log3\n        /* \"Desktop/work/dao-company/contracts/ERC20.sol\":1222:1489  function transfer(address to, uint amount) external enoughTokens(msg.sender, amount) {... */\n      pop\n      pop\n      pop\n      pop\n      jump\t// out\n        /* \"Desktop/work/dao-company/contracts/ERC20.sol\":1495:1626  function allowance(address _owner, address spender) external view returns(uint) {... */\n    tag_55:\n        /* \"Desktop/work/dao-company/contracts/ERC20.sol\":1569:1573  uint */\n      0x00\n        /* \"Desktop/work/dao-company/contracts/ERC20.sol\":1592:1602  allowances */\n      0x03\n        /* \"Desktop/work/dao-company/contracts/ERC20.sol\":1592:1610  allowances[_owner] */\n      0x00\n        /* \"Desktop/work/dao-company/contracts/ERC20.sol\":1603:1609  _owner */\n      dup5\n        /* \"Desktop/work/dao-company/contracts/ERC20.sol\":1592:1610  allowances[_owner] */\n      0xffffffffffffffffffffffffffffffffffffffff\n      and\n      0xffffffffffffffffffffffffffffffffffffffff\n      and\n      dup2\n      mstore\n      0x20\n      add\n      swap1\n      dup2\n      mstore\n      0x20\n      add\n      0x00\n      keccak256\n        /* \"Desktop/work/dao-company/contracts/ERC20.sol\":1592:1619  allowances[_owner][spender] */\n      0x00\n        /* \"Desktop/work/dao-company/contracts/ERC20.sol\":1611:1618  spender */\n      dup4\n        /* \"Desktop/work/dao-company/contracts/ERC20.sol\":1592:1619  allowances[_owner][spender] */\n      0xffffffffffffffffffffffffffffffffffffffff\n      and\n      0xffffffffffffffffffffffffffffffffffffffff\n      and\n      dup2\n      mstore\n      0x20\n      add\n      swap1\n      dup2\n      mstore\n      0x20\n      add\n      0x00\n      keccak256\n      sload\n        /* \"Desktop/work/dao-company/contracts/ERC20.sol\":1585:1619  return allowances[_owner][spender] */\n      swap1\n      pop\n        /* \"Desktop/work/dao-company/contracts/ERC20.sol\":1495:1626  function allowance(address _owner, address spender) external view returns(uint) {... */\n      swap3\n      swap2\n      pop\n      pop\n      jump\t// out\n        /* \"Desktop/work/dao-company/contracts/ERC20.sol\":2597:2715  function _beforeTokenTransfer(... */\n    tag_69:\n      pop\n      pop\n      pop\n      jump\t// out\n        /* \"#utility.yul\":7:106   */\n    tag_116:\n        /* \"#utility.yul\":59:65   */\n      0x00\n        /* \"#utility.yul\":93:98   */\n      dup2\n        /* \"#utility.yul\":87:99   */\n      mload\n        /* \"#utility.yul\":77:99   */\n      swap1\n      pop\n        /* \"#utility.yul\":7:106   */\n      swap2\n      swap1\n      pop\n      jump\t// out\n        /* \"#utility.yul\":112:281   */\n    tag_117:\n        /* \"#utility.yul\":196:207   */\n      0x00\n        /* \"#utility.yul\":230:236   */\n      dup3\n        /* \"#utility.yul\":225:228   */\n      dup3\n        /* \"#utility.yul\":218:237   */\n      mstore\n        /* \"#utility.yul\":270:274   */\n      0x20\n        /* \"#utility.yul\":265:268   */\n      dup3\n        /* \"#utility.yul\":261:275   */\n      add\n        /* \"#utility.yul\":246:275   */\n      swap1\n      pop\n        /* \"#utility.yul\":112:281   */\n      swap3\n      swap2\n      pop\n      pop\n      jump\t// out\n        /* \"#utility.yul\":287:533   */\n    tag_118:\n        /* \"#utility.yul\":368:369   */\n      0x00\n        /* \"#utility.yul\":378:491   */\n    tag_142:\n        /* \"#utility.yul\":392:398   */\n      dup4\n        /* \"#utility.yul\":389:390   */\n      dup2\n        /* \"#utility.yul\":386:399   */\n      lt\n        /* \"#utility.yul\":378:491   */\n      iszero\n      tag_144\n      jumpi\n        /* \"#utility.yul\":477:478   */\n      dup1\n        /* \"#utility.yul\":472:475   */\n      dup3\n        /* \"#utility.yul\":468:479   */\n      add\n        /* \"#utility.yul\":462:480   */\n      mload\n        /* \"#utility.yul\":458:459   */\n      dup2\n        /* \"#utility.yul\":453:456   */\n      dup5\n        /* \"#utility.yul\":449:460   */\n      add\n        /* \"#utility.yul\":442:481   */\n      mstore\n        /* \"#utility.yul\":414:416   */\n      0x20\n        /* \"#utility.yul\":411:412   */\n      dup2\n        /* \"#utility.yul\":407:417   */\n      add\n        /* \"#utility.yul\":402:417   */\n      swap1\n      pop\n        /* \"#utility.yul\":378:491   */\n      jump(tag_142)\n    tag_144:\n        /* \"#utility.yul\":525:526   */\n      0x00\n        /* \"#utility.yul\":516:522   */\n      dup5\n        /* \"#utility.yul\":511:514   */\n      dup5\n        /* \"#utility.yul\":507:523   */\n      add\n        /* \"#utility.yul\":500:527   */\n      mstore\n        /* \"#utility.yul\":349:533   */\n      pop\n        /* \"#utility.yul\":287:533   */\n      pop\n      pop\n      pop\n      jump\t// out\n        /* \"#utility.yul\":539:641   */\n    tag_119:\n        /* \"#utility.yul\":580:586   */\n      0x00\n        /* \"#utility.yul\":631:633   */\n      0x1f\n        /* \"#utility.yul\":627:634   */\n      not\n        /* \"#utility.yul\":622:624   */\n      0x1f\n        /* \"#utility.yul\":615:620   */\n      dup4\n        /* \"#utility.yul\":611:625   */\n      add\n        /* \"#utility.yul\":607:635   */\n      and\n        /* \"#utility.yul\":597:635   */\n      swap1\n      pop\n        /* \"#utility.yul\":539:641   */\n      swap2\n      swap1\n      pop\n      jump\t// out\n        /* \"#utility.yul\":647:1024   */\n    tag_120:\n        /* \"#utility.yul\":735:738   */\n      0x00\n        /* \"#utility.yul\":763:802   */\n      tag_147\n        /* \"#utility.yul\":796:801   */\n      dup3\n        /* \"#utility.yul\":763:802   */\n      tag_116\n      jump\t// in\n    tag_147:\n        /* \"#utility.yul\":818:889   */\n      tag_148\n        /* \"#utility.yul\":882:888   */\n      dup2\n        /* \"#utility.yul\":877:880   */\n      dup6\n        /* \"#utility.yul\":818:889   */\n      tag_117\n      jump\t// in\n    tag_148:\n        /* \"#utility.yul\":811:889   */\n      swap4\n      pop\n        /* \"#utility.yul\":898:963   */\n      tag_149\n        /* \"#utility.yul\":956:962   */\n      dup2\n        /* \"#utility.yul\":951:954   */\n      dup6\n        /* \"#utility.yul\":944:948   */\n      0x20\n        /* \"#utility.yul\":937:942   */\n      dup7\n        /* \"#utility.yul\":933:949   */\n      add\n        /* \"#utility.yul\":898:963   */\n      tag_118\n      jump\t// in\n    tag_149:\n        /* \"#utility.yul\":988:1017   */\n      tag_150\n        /* \"#utility.yul\":1010:1016   */\n      dup2\n        /* \"#utility.yul\":988:1017   */\n      tag_119\n      jump\t// in\n    tag_150:\n        /* \"#utility.yul\":983:986   */\n      dup5\n        /* \"#utility.yul\":979:1018   */\n      add\n        /* \"#utility.yul\":972:1018   */\n      swap2\n      pop\n        /* \"#utility.yul\":739:1024   */\n      pop\n        /* \"#utility.yul\":647:1024   */\n      swap3\n      swap2\n      pop\n      pop\n      jump\t// out\n        /* \"#utility.yul\":1030:1343   */\n    tag_18:\n        /* \"#utility.yul\":1143:1147   */\n      0x00\n        /* \"#utility.yul\":1181:1183   */\n      0x20\n        /* \"#utility.yul\":1170:1179   */\n      dup3\n        /* \"#utility.yul\":1166:1184   */\n      add\n        /* \"#utility.yul\":1158:1184   */\n      swap1\n      pop\n        /* \"#utility.yul\":1230:1239   */\n      dup2\n        /* \"#utility.yul\":1224:1228   */\n      dup2\n        /* \"#utility.yul\":1220:1240   */\n      sub\n        /* \"#utility.yul\":1216:1217   */\n      0x00\n        /* \"#utility.yul\":1205:1214   */\n      dup4\n        /* \"#utility.yul\":1201:1218   */\n      add\n        /* \"#utility.yul\":1194:1241   */\n      mstore\n        /* \"#utility.yul\":1258:1336   */\n      tag_152\n        /* \"#utility.yul\":1331:1335   */\n      dup2\n        /* \"#utility.yul\":1322:1328   */\n      dup5\n        /* \"#utility.yul\":1258:1336   */\n      tag_120\n      jump\t// in\n    tag_152:\n        /* \"#utility.yul\":1250:1336   */\n      swap1\n      pop\n        /* \"#utility.yul\":1030:1343   */\n      swap3\n      swap2\n      pop\n      pop\n      jump\t// out\n        /* \"#utility.yul\":1430:1547   */\n    tag_122:\n        /* \"#utility.yul\":1539:1540   */\n      0x00\n        /* \"#utility.yul\":1536:1537   */\n      dup1\n        /* \"#utility.yul\":1529:1541   */\n      revert\n        /* \"#utility.yul\":1676:1802   */\n    tag_124:\n        /* \"#utility.yul\":1713:1720   */\n      0x00\n        /* \"#utility.yul\":1753:1795   */\n      0xffffffffffffffffffffffffffffffffffffffff\n        /* \"#utility.yul\":1746:1751   */\n      dup3\n        /* \"#utility.yul\":1742:1796   */\n      and\n        /* \"#utility.yul\":1731:1796   */\n      swap1\n      pop\n        /* \"#utility.yul\":1676:1802   */\n      swap2\n      swap1\n      pop\n      jump\t// out\n        /* \"#utility.yul\":1808:1904   */\n    tag_125:\n        /* \"#utility.yul\":1845:1852   */\n      0x00\n        /* \"#utility.yul\":1874:1898   */\n      tag_158\n        /* \"#utility.yul\":1892:1897   */\n      dup3\n        /* \"#utility.yul\":1874:1898   */\n      tag_124\n      jump\t// in\n    tag_158:\n        /* \"#utility.yul\":1863:1898   */\n      swap1\n      pop\n        /* \"#utility.yul\":1808:1904   */\n      swap2\n      swap1\n      pop\n      jump\t// out\n        /* \"#utility.yul\":1910:2032   */\n    tag_126:\n        /* \"#utility.yul\":1983:2007   */\n      tag_160\n        /* \"#utility.yul\":2001:2006   */\n      dup2\n        /* \"#utility.yul\":1983:2007   */\n      tag_125\n      jump\t// in\n    tag_160:\n        /* \"#utility.yul\":1976:1981   */\n      dup2\n        /* \"#utility.yul\":1973:2008   */\n      eq\n        /* \"#utility.yul\":1963:2026   */\n      tag_161\n      jumpi\n        /* \"#utility.yul\":2022:2023   */\n      0x00\n        /* \"#utility.yul\":2019:2020   */\n      dup1\n        /* \"#utility.yul\":2012:2024   */\n      revert\n        /* \"#utility.yul\":1963:2026   */\n    tag_161:\n        /* \"#utility.yul\":1910:2032   */\n      pop\n      jump\t// out\n        /* \"#utility.yul\":2038:2177   */\n    tag_127:\n        /* \"#utility.yul\":2084:2089   */\n      0x00\n        /* \"#utility.yul\":2122:2128   */\n      dup2\n        /* \"#utility.yul\":2109:2129   */\n      calldataload\n        /* \"#utility.yul\":2100:2129   */\n      swap1\n      pop\n        /* \"#utility.yul\":2138:2171   */\n      tag_163\n        /* \"#utility.yul\":2165:2170   */\n      dup2\n        /* \"#utility.yul\":2138:2171   */\n      tag_126\n      jump\t// in\n    tag_163:\n        /* \"#utility.yul\":2038:2177   */\n      swap3\n      swap2\n      pop\n      pop\n      jump\t// out\n        /* \"#utility.yul\":2183:2260   */\n    tag_128:\n        /* \"#utility.yul\":2220:2227   */\n      0x00\n        /* \"#utility.yul\":2249:2254   */\n      dup2\n        /* \"#utility.yul\":2238:2254   */\n      swap1\n      pop\n        /* \"#utility.yul\":2183:2260   */\n      swap2\n      swap1\n      pop\n      jump\t// out\n        /* \"#utility.yul\":2266:2388   */\n    tag_129:\n        /* \"#utility.yul\":2339:2363   */\n      tag_166\n        /* \"#utility.yul\":2357:2362   */\n      dup2\n        /* \"#utility.yul\":2339:2363   */\n      tag_128\n      jump\t// in\n    tag_166:\n        /* \"#utility.yul\":2332:2337   */\n      dup2\n        /* \"#utility.yul\":2329:2364   */\n      eq\n        /* \"#utility.yul\":2319:2382   */\n      tag_167\n      jumpi\n        /* \"#utility.yul\":2378:2379   */\n      0x00\n        /* \"#utility.yul\":2375:2376   */\n      dup1\n        /* \"#utility.yul\":2368:2380   */\n      revert\n        /* \"#utility.yul\":2319:2382   */\n    tag_167:\n        /* \"#utility.yul\":2266:2388   */\n      pop\n      jump\t// out\n        /* \"#utility.yul\":2394:2533   */\n    tag_130:\n        /* \"#utility.yul\":2440:2445   */\n      0x00\n        /* \"#utility.yul\":2478:2484   */\n      dup2\n        /* \"#utility.yul\":2465:2485   */\n      calldataload\n        /* \"#utility.yul\":2456:2485   */\n      swap1\n      pop\n        /* \"#utility.yul\":2494:2527   */\n      tag_169\n        /* \"#utility.yul\":2521:2526   */\n      dup2\n        /* \"#utility.yul\":2494:2527   */\n      tag_129\n      jump\t// in\n    tag_169:\n        /* \"#utility.yul\":2394:2533   */\n      swap3\n      swap2\n      pop\n      pop\n      jump\t// out\n        /* \"#utility.yul\":2539:3013   */\n    tag_21:\n        /* \"#utility.yul\":2607:2613   */\n      0x00\n        /* \"#utility.yul\":2615:2621   */\n      dup1\n        /* \"#utility.yul\":2664:2666   */\n      0x40\n        /* \"#utility.yul\":2652:2661   */\n      dup4\n        /* \"#utility.yul\":2643:2650   */\n      dup6\n        /* \"#utility.yul\":2639:2662   */\n      sub\n        /* \"#utility.yul\":2635:2667   */\n      slt\n        /* \"#utility.yul\":2632:2751   */\n      iszero\n      tag_171\n      jumpi\n        /* \"#utility.yul\":2670:2749   */\n      tag_172\n      tag_122\n      jump\t// in\n    tag_172:\n        /* \"#utility.yul\":2632:2751   */\n    tag_171:\n        /* \"#utility.yul\":2790:2791   */\n      0x00\n        /* \"#utility.yul\":2815:2868   */\n      tag_173\n        /* \"#utility.yul\":2860:2867   */\n      dup6\n        /* \"#utility.yul\":2851:2857   */\n      dup3\n        /* \"#utility.yul\":2840:2849   */\n      dup7\n        /* \"#utility.yul\":2836:2858   */\n      add\n        /* \"#utility.yul\":2815:2868   */\n      tag_127\n      jump\t// in\n    tag_173:\n        /* \"#utility.yul\":2805:2868   */\n      swap3\n      pop\n        /* \"#utility.yul\":2761:2878   */\n      pop\n        /* \"#utility.yul\":2917:2919   */\n      0x20\n        /* \"#utility.yul\":2943:2996   */\n      tag_174\n        /* \"#utility.yul\":2988:2995   */\n      dup6\n        /* \"#utility.yul\":2979:2985   */\n      dup3\n        /* \"#utility.yul\":2968:2977   */\n      dup7\n        /* \"#utility.yul\":2964:2986   */\n      add\n        /* \"#utility.yul\":2943:2996   */\n      tag_130\n      jump\t// in\n    tag_174:\n        /* \"#utility.yul\":2933:2996   */\n      swap2\n      pop\n        /* \"#utility.yul\":2888:3006   */\n      pop\n        /* \"#utility.yul\":2539:3013   */\n      swap3\n      pop\n      swap3\n      swap1\n      pop\n      jump\t// out\n        /* \"#utility.yul\":3019:3137   */\n    tag_131:\n        /* \"#utility.yul\":3106:3130   */\n      tag_176\n        /* \"#utility.yul\":3124:3129   */\n      dup2\n        /* \"#utility.yul\":3106:3130   */\n      tag_128\n      jump\t// in\n    tag_176:\n        /* \"#utility.yul\":3101:3104   */\n      dup3\n        /* \"#utility.yul\":3094:3131   */\n      mstore\n        /* \"#utility.yul\":3019:3137   */\n      pop\n      pop\n      jump\t// out\n        /* \"#utility.yul\":3143:3365   */\n    tag_26:\n        /* \"#utility.yul\":3236:3240   */\n      0x00\n        /* \"#utility.yul\":3274:3276   */\n      0x20\n        /* \"#utility.yul\":3263:3272   */\n      dup3\n        /* \"#utility.yul\":3259:3277   */\n      add\n        /* \"#utility.yul\":3251:3277   */\n      swap1\n      pop\n        /* \"#utility.yul\":3287:3358   */\n      tag_178\n        /* \"#utility.yul\":3355:3356   */\n      0x00\n        /* \"#utility.yul\":3344:3353   */\n      dup4\n        /* \"#utility.yul\":3340:3357   */\n      add\n        /* \"#utility.yul\":3331:3337   */\n      dup5\n        /* \"#utility.yul\":3287:3358   */\n      tag_131\n      jump\t// in\n    tag_178:\n        /* \"#utility.yul\":3143:3365   */\n      swap3\n      swap2\n      pop\n      pop\n      jump\t// out\n        /* \"#utility.yul\":3371:3990   */\n    tag_29:\n        /* \"#utility.yul\":3448:3454   */\n      0x00\n        /* \"#utility.yul\":3456:3462   */\n      dup1\n        /* \"#utility.yul\":3464:3470   */\n      0x00\n        /* \"#utility.yul\":3513:3515   */\n      0x60\n        /* \"#utility.yul\":3501:3510   */\n      dup5\n        /* \"#utility.yul\":3492:3499   */\n      dup7\n        /* \"#utility.yul\":3488:3511   */\n      sub\n        /* \"#utility.yul\":3484:3516   */\n      slt\n        /* \"#utility.yul\":3481:3600   */\n      iszero\n      tag_180\n      jumpi\n        /* \"#utility.yul\":3519:3598   */\n      tag_181\n      tag_122\n      jump\t// in\n    tag_181:\n        /* \"#utility.yul\":3481:3600   */\n    tag_180:\n        /* \"#utility.yul\":3639:3640   */\n      0x00\n        /* \"#utility.yul\":3664:3717   */\n      tag_182\n        /* \"#utility.yul\":3709:3716   */\n      dup7\n        /* \"#utility.yul\":3700:3706   */\n      dup3\n        /* \"#utility.yul\":3689:3698   */\n      dup8\n        /* \"#utility.yul\":3685:3707   */\n      add\n        /* \"#utility.yul\":3664:3717   */\n      tag_127\n      jump\t// in\n    tag_182:\n        /* \"#utility.yul\":3654:3717   */\n      swap4\n      pop\n        /* \"#utility.yul\":3610:3727   */\n      pop\n        /* \"#utility.yul\":3766:3768   */\n      0x20\n        /* \"#utility.yul\":3792:3845   */\n      tag_183\n        /* \"#utility.yul\":3837:3844   */\n      dup7\n        /* \"#utility.yul\":3828:3834   */\n      dup3\n        /* \"#utility.yul\":3817:3826   */\n      dup8\n        /* \"#utility.yul\":3813:3835   */\n      add\n        /* \"#utility.yul\":3792:3845   */\n      tag_127\n      jump\t// in\n    tag_183:\n        /* \"#utility.yul\":3782:3845   */\n      swap3\n      pop\n        /* \"#utility.yul\":3737:3855   */\n      pop\n        /* \"#utility.yul\":3894:3896   */\n      0x40\n        /* \"#utility.yul\":3920:3973   */\n      tag_184\n        /* \"#utility.yul\":3965:3972   */\n      dup7\n        /* \"#utility.yul\":3956:3962   */\n      dup3\n        /* \"#utility.yul\":3945:3954   */\n      dup8\n        /* \"#utility.yul\":3941:3963   */\n      add\n        /* \"#utility.yul\":3920:3973   */\n      tag_130\n      jump\t// in\n    tag_184:\n        /* \"#utility.yul\":3910:3973   */\n      swap2\n      pop\n        /* \"#utility.yul\":3865:3983   */\n      pop\n        /* \"#utility.yul\":3371:3990   */\n      swap3\n      pop\n      swap3\n      pop\n      swap3\n      jump\t// out\n        /* \"#utility.yul\":3996:4325   */\n    tag_36:\n        /* \"#utility.yul\":4055:4061   */\n      0x00\n        /* \"#utility.yul\":4104:4106   */\n      0x20\n        /* \"#utility.yul\":4092:4101   */\n      dup3\n        /* \"#utility.yul\":4083:4090   */\n      dup5\n        /* \"#utility.yul\":4079:4102   */\n      sub\n        /* \"#utility.yul\":4075:4107   */\n      slt\n        /* \"#utility.yul\":4072:4191   */\n      iszero\n      tag_186\n      jumpi\n        /* \"#utility.yul\":4110:4189   */\n      tag_187\n      tag_122\n      jump\t// in\n    tag_187:\n        /* \"#utility.yul\":4072:4191   */\n    tag_186:\n        /* \"#utility.yul\":4230:4231   */\n      0x00\n        /* \"#utility.yul\":4255:4308   */\n      tag_188\n        /* \"#utility.yul\":4300:4307   */\n      dup5\n        /* \"#utility.yul\":4291:4297   */\n      dup3\n        /* \"#utility.yul\":4280:4289   */\n      dup6\n        /* \"#utility.yul\":4276:4298   */\n      add\n        /* \"#utility.yul\":4255:4308   */\n      tag_127\n      jump\t// in\n    tag_188:\n        /* \"#utility.yul\":4245:4308   */\n      swap2\n      pop\n        /* \"#utility.yul\":4201:4318   */\n      pop\n        /* \"#utility.yul\":3996:4325   */\n      swap3\n      swap2\n      pop\n      pop\n      jump\t// out\n        /* \"#utility.yul\":4331:4805   */\n    tag_41:\n        /* \"#utility.yul\":4399:4405   */\n      0x00\n        /* \"#utility.yul\":4407:4413   */\n      dup1\n        /* \"#utility.yul\":4456:4458   */\n      0x40\n        /* \"#utility.yul\":4444:4453   */\n      dup4\n        /* \"#utility.yul\":4435:4442   */\n      dup6\n        /* \"#utility.yul\":4431:4454   */\n      sub\n        /* \"#utility.yul\":4427:4459   */\n      slt\n        /* \"#utility.yul\":4424:4543   */\n      iszero\n      tag_190\n      jumpi\n        /* \"#utility.yul\":4462:4541   */\n      tag_191\n      tag_122\n      jump\t// in\n    tag_191:\n        /* \"#utility.yul\":4424:4543   */\n    tag_190:\n        /* \"#utility.yul\":4582:4583   */\n      0x00\n        /* \"#utility.yul\":4607:4660   */\n      tag_192\n        /* \"#utility.yul\":4652:4659   */\n      dup6\n        /* \"#utility.yul\":4643:4649   */\n      dup3\n        /* \"#utility.yul\":4632:4641   */\n      dup7\n        /* \"#utility.yul\":4628:4650   */\n      add\n        /* \"#utility.yul\":4607:4660   */\n      tag_130\n      jump\t// in\n    tag_192:\n        /* \"#utility.yul\":4597:4660   */\n      swap3\n      pop\n        /* \"#utility.yul\":4553:4670   */\n      pop\n        /* \"#utility.yul\":4709:4711   */\n      0x20\n        /* \"#utility.yul\":4735:4788   */\n      tag_193\n        /* \"#utility.yul\":4780:4787   */\n      dup6\n        /* \"#utility.yul\":4771:4777   */\n      dup3\n        /* \"#utility.yul\":4760:4769   */\n      dup7\n        /* \"#utility.yul\":4756:4778   */\n      add\n        /* \"#utility.yul\":4735:4788   */\n      tag_127\n      jump\t// in\n    tag_193:\n        /* \"#utility.yul\":4725:4788   */\n      swap2\n      pop\n        /* \"#utility.yul\":4680:4798   */\n      pop\n        /* \"#utility.yul\":4331:4805   */\n      swap3\n      pop\n      swap3\n      swap1\n      pop\n      jump\t// out\n        /* \"#utility.yul\":4811:5285   */\n    tag_54:\n        /* \"#utility.yul\":4879:4885   */\n      0x00\n        /* \"#utility.yul\":4887:4893   */\n      dup1\n        /* \"#utility.yul\":4936:4938   */\n      0x40\n        /* \"#utility.yul\":4924:4933   */\n      dup4\n        /* \"#utility.yul\":4915:4922   */\n      dup6\n        /* \"#utility.yul\":4911:4934   */\n      sub\n        /* \"#utility.yul\":4907:4939   */\n      slt\n        /* \"#utility.yul\":4904:5023   */\n      iszero\n      tag_195\n      jumpi\n        /* \"#utility.yul\":4942:5021   */\n      tag_196\n      tag_122\n      jump\t// in\n    tag_196:\n        /* \"#utility.yul\":4904:5023   */\n    tag_195:\n        /* \"#utility.yul\":5062:5063   */\n      0x00\n        /* \"#utility.yul\":5087:5140   */\n      tag_197\n        /* \"#utility.yul\":5132:5139   */\n      dup6\n        /* \"#utility.yul\":5123:5129   */\n      dup3\n        /* \"#utility.yul\":5112:5121   */\n      dup7\n        /* \"#utility.yul\":5108:5130   */\n      add\n        /* \"#utility.yul\":5087:5140   */\n      tag_127\n      jump\t// in\n    tag_197:\n        /* \"#utility.yul\":5077:5140   */\n      swap3\n      pop\n        /* \"#utility.yul\":5033:5150   */\n      pop\n        /* \"#utility.yul\":5189:5191   */\n      0x20\n        /* \"#utility.yul\":5215:5268   */\n      tag_198\n        /* \"#utility.yul\":5260:5267   */\n      dup6\n        /* \"#utility.yul\":5251:5257   */\n      dup3\n        /* \"#utility.yul\":5240:5249   */\n      dup7\n        /* \"#utility.yul\":5236:5258   */\n      add\n        /* \"#utility.yul\":5215:5268   */\n      tag_127\n      jump\t// in\n    tag_198:\n        /* \"#utility.yul\":5205:5268   */\n      swap2\n      pop\n        /* \"#utility.yul\":5160:5278   */\n      pop\n        /* \"#utility.yul\":4811:5285   */\n      swap3\n      pop\n      swap3\n      swap1\n      pop\n      jump\t// out\n        /* \"#utility.yul\":5291:5471   */\n    tag_132:\n        /* \"#utility.yul\":5339:5416   */\n      0x4e487b7100000000000000000000000000000000000000000000000000000000\n        /* \"#utility.yul\":5336:5337   */\n      0x00\n        /* \"#utility.yul\":5329:5417   */\n      mstore\n        /* \"#utility.yul\":5436:5440   */\n      0x22\n        /* \"#utility.yul\":5433:5434   */\n      0x04\n        /* \"#utility.yul\":5426:5441   */\n      mstore\n        /* \"#utility.yul\":5460:5464   */\n      0x24\n        /* \"#utility.yul\":5457:5458   */\n      0x00\n        /* \"#utility.yul\":5450:5465   */\n      revert\n        /* \"#utility.yul\":5477:5797   */\n    tag_59:\n        /* \"#utility.yul\":5521:5527   */\n      0x00\n        /* \"#utility.yul\":5558:5559   */\n      0x02\n        /* \"#utility.yul\":5552:5556   */\n      dup3\n        /* \"#utility.yul\":5548:5560   */\n      div\n        /* \"#utility.yul\":5538:5560   */\n      swap1\n      pop\n        /* \"#utility.yul\":5605:5606   */\n      0x01\n        /* \"#utility.yul\":5599:5603   */\n      dup3\n        /* \"#utility.yul\":5595:5607   */\n      and\n        /* \"#utility.yul\":5626:5644   */\n      dup1\n        /* \"#utility.yul\":5616:5697   */\n      tag_201\n      jumpi\n        /* \"#utility.yul\":5682:5686   */\n      0x7f\n        /* \"#utility.yul\":5674:5680   */\n      dup3\n        /* \"#utility.yul\":5670:5687   */\n      and\n        /* \"#utility.yul\":5660:5687   */\n      swap2\n      pop\n        /* \"#utility.yul\":5616:5697   */\n    tag_201:\n        /* \"#utility.yul\":5744:5746   */\n      0x20\n        /* \"#utility.yul\":5736:5742   */\n      dup3\n        /* \"#utility.yul\":5733:5747   */\n      lt\n        /* \"#utility.yul\":5713:5731   */\n      dup2\n        /* \"#utility.yul\":5710:5748   */\n      sub\n        /* \"#utility.yul\":5707:5791   */\n      tag_202\n      jumpi\n        /* \"#utility.yul\":5763:5781   */\n      tag_203\n      tag_132\n      jump\t// in\n    tag_203:\n        /* \"#utility.yul\":5707:5791   */\n    tag_202:\n        /* \"#utility.yul\":5528:5797   */\n      pop\n        /* \"#utility.yul\":5477:5797   */\n      swap2\n      swap1\n      pop\n      jump\t// out\n        /* \"#utility.yul\":5803:5983   */\n    tag_133:\n        /* \"#utility.yul\":5851:5928   */\n      0x4e487b7100000000000000000000000000000000000000000000000000000000\n        /* \"#utility.yul\":5848:5849   */\n      0x00\n        /* \"#utility.yul\":5841:5929   */\n      mstore\n        /* \"#utility.yul\":5948:5952   */\n      0x11\n        /* \"#utility.yul\":5945:5946   */\n      0x04\n        /* \"#utility.yul\":5938:5953   */\n      mstore\n        /* \"#utility.yul\":5972:5976   */\n      0x24\n        /* \"#utility.yul\":5969:5970   */\n      0x00\n        /* \"#utility.yul\":5962:5977   */\n      revert\n        /* \"#utility.yul\":5989:6183   */\n    tag_71:\n        /* \"#utility.yul\":6029:6033   */\n      0x00\n        /* \"#utility.yul\":6049:6069   */\n      tag_206\n        /* \"#utility.yul\":6067:6068   */\n      dup3\n        /* \"#utility.yul\":6049:6069   */\n      tag_128\n      jump\t// in\n    tag_206:\n        /* \"#utility.yul\":6044:6069   */\n      swap2\n      pop\n        /* \"#utility.yul\":6083:6103   */\n      tag_207\n        /* \"#utility.yul\":6101:6102   */\n      dup4\n        /* \"#utility.yul\":6083:6103   */\n      tag_128\n      jump\t// in\n    tag_207:\n        /* \"#utility.yul\":6078:6103   */\n      swap3\n      pop\n        /* \"#utility.yul\":6127:6128   */\n      dup3\n        /* \"#utility.yul\":6124:6125   */\n      dup3\n        /* \"#utility.yul\":6120:6129   */\n      sub\n        /* \"#utility.yul\":6112:6129   */\n      swap1\n      pop\n        /* \"#utility.yul\":6151:6152   */\n      dup2\n        /* \"#utility.yul\":6145:6149   */\n      dup2\n        /* \"#utility.yul\":6142:6153   */\n      gt\n        /* \"#utility.yul\":6139:6176   */\n      iszero\n      tag_208\n      jumpi\n        /* \"#utility.yul\":6156:6174   */\n      tag_209\n      tag_133\n      jump\t// in\n    tag_209:\n        /* \"#utility.yul\":6139:6176   */\n    tag_208:\n        /* \"#utility.yul\":5989:6183   */\n      swap3\n      swap2\n      pop\n      pop\n      jump\t// out\n        /* \"#utility.yul\":6189:6380   */\n    tag_74:\n        /* \"#utility.yul\":6229:6232   */\n      0x00\n        /* \"#utility.yul\":6248:6268   */\n      tag_211\n        /* \"#utility.yul\":6266:6267   */\n      dup3\n        /* \"#utility.yul\":6248:6268   */\n      tag_128\n      jump\t// in\n    tag_211:\n        /* \"#utility.yul\":6243:6268   */\n      swap2\n      pop\n        /* \"#utility.yul\":6282:6302   */\n      tag_212\n        /* \"#utility.yul\":6300:6301   */\n      dup4\n        /* \"#utility.yul\":6282:6302   */\n      tag_128\n      jump\t// in\n    tag_212:\n        /* \"#utility.yul\":6277:6302   */\n      swap3\n      pop\n        /* \"#utility.yul\":6325:6326   */\n      dup3\n        /* \"#utility.yul\":6322:6323   */\n      dup3\n        /* \"#utility.yul\":6318:6327   */\n      add\n        /* \"#utility.yul\":6311:6327   */\n      swap1\n      pop\n        /* \"#utility.yul\":6346:6349   */\n      dup1\n        /* \"#utility.yul\":6343:6344   */\n      dup3\n        /* \"#utility.yul\":6340:6350   */\n      gt\n        /* \"#utility.yul\":6337:6373   */\n      iszero\n      tag_213\n      jumpi\n        /* \"#utility.yul\":6353:6371   */\n      tag_214\n      tag_133\n      jump\t// in\n    tag_214:\n        /* \"#utility.yul\":6337:6373   */\n    tag_213:\n        /* \"#utility.yul\":6189:6380   */\n      swap3\n      swap2\n      pop\n      pop\n      jump\t// out\n        /* \"#utility.yul\":6386:6549   */\n    tag_134:\n        /* \"#utility.yul\":6526:6541   */\n      0x6e6f7420616e206f776e65722100000000000000000000000000000000000000\n        /* \"#utility.yul\":6522:6523   */\n      0x00\n        /* \"#utility.yul\":6514:6520   */\n      dup3\n        /* \"#utility.yul\":6510:6524   */\n      add\n        /* \"#utility.yul\":6503:6542   */\n      mstore\n        /* \"#utility.yul\":6386:6549   */\n      pop\n      jump\t// out\n        /* \"#utility.yul\":6555:6921   */\n    tag_135:\n        /* \"#utility.yul\":6697:6700   */\n      0x00\n        /* \"#utility.yul\":6718:6785   */\n      tag_217\n        /* \"#utility.yul\":6782:6784   */\n      0x0d\n        /* \"#utility.yul\":6777:6780   */\n      dup4\n        /* \"#utility.yul\":6718:6785   */\n      tag_117\n      jump\t// in\n    tag_217:\n        /* \"#utility.yul\":6711:6785   */\n      swap2\n      pop\n        /* \"#utility.yul\":6794:6887   */\n      tag_218\n        /* \"#utility.yul\":6883:6886   */\n      dup3\n        /* \"#utility.yul\":6794:6887   */\n      tag_134\n      jump\t// in\n    tag_218:\n        /* \"#utility.yul\":6912:6914   */\n      0x20\n        /* \"#utility.yul\":6907:6910   */\n      dup3\n        /* \"#utility.yul\":6903:6915   */\n      add\n        /* \"#utility.yul\":6896:6915   */\n      swap1\n      pop\n        /* \"#utility.yul\":6555:6921   */\n      swap2\n      swap1\n      pop\n      jump\t// out\n        /* \"#utility.yul\":6927:7346   */\n    tag_81:\n        /* \"#utility.yul\":7093:7097   */\n      0x00\n        /* \"#utility.yul\":7131:7133   */\n      0x20\n        /* \"#utility.yul\":7120:7129   */\n      dup3\n        /* \"#utility.yul\":7116:7134   */\n      add\n        /* \"#utility.yul\":7108:7134   */\n      swap1\n      pop\n        /* \"#utility.yul\":7180:7189   */\n      dup2\n        /* \"#utility.yul\":7174:7178   */\n      dup2\n        /* \"#utility.yul\":7170:7190   */\n      sub\n        /* \"#utility.yul\":7166:7167   */\n      0x00\n        /* \"#utility.yul\":7155:7164   */\n      dup4\n        /* \"#utility.yul\":7151:7168   */\n      add\n        /* \"#utility.yul\":7144:7191   */\n      mstore\n        /* \"#utility.yul\":7208:7339   */\n      tag_220\n        /* \"#utility.yul\":7334:7338   */\n      dup2\n        /* \"#utility.yul\":7208:7339   */\n      tag_135\n      jump\t// in\n    tag_220:\n        /* \"#utility.yul\":7200:7339   */\n      swap1\n      pop\n        /* \"#utility.yul\":6927:7346   */\n      swap2\n      swap1\n      pop\n      jump\t// out\n        /* \"#utility.yul\":7352:7520   */\n    tag_136:\n        /* \"#utility.yul\":7492:7512   */\n      0x6e6f7420656e6f75676820746f6b656e73210000000000000000000000000000\n        /* \"#utility.yul\":7488:7489   */\n      0x00\n        /* \"#utility.yul\":7480:7486   */\n      dup3\n        /* \"#utility.yul\":7476:7490   */\n      add\n        /* \"#utility.yul\":7469:7513   */\n      mstore\n        /* \"#utility.yul\":7352:7520   */\n      pop\n      jump\t// out\n        /* \"#utility.yul\":7526:7892   */\n    tag_137:\n        /* \"#utility.yul\":7668:7671   */\n      0x00\n        /* \"#utility.yul\":7689:7756   */\n      tag_223\n        /* \"#utility.yul\":7753:7755   */\n      0x12\n        /* \"#utility.yul\":7748:7751   */\n      dup4\n        /* \"#utility.yul\":7689:7756   */\n      tag_117\n      jump\t// in\n    tag_223:\n        /* \"#utility.yul\":7682:7756   */\n      swap2\n      pop\n        /* \"#utility.yul\":7765:7858   */\n      tag_224\n        /* \"#utility.yul\":7854:7857   */\n      dup3\n        /* \"#utility.yul\":7765:7858   */\n      tag_136\n      jump\t// in\n    tag_224:\n        /* \"#utility.yul\":7883:7885   */\n      0x20\n        /* \"#utility.yul\":7878:7881   */\n      dup3\n        /* \"#utility.yul\":7874:7886   */\n      add\n        /* \"#utility.yul\":7867:7886   */\n      swap1\n      pop\n        /* \"#utility.yul\":7526:7892   */\n      swap2\n      swap1\n      pop\n      jump\t// out\n        /* \"#utility.yul\":7898:8317   */\n    tag_100:\n        /* \"#utility.yul\":8064:8068   */\n      0x00\n        /* \"#utility.yul\":8102:8104   */\n      0x20\n        /* \"#utility.yul\":8091:8100   */\n      dup3\n        /* \"#utility.yul\":8087:8105   */\n      add\n        /* \"#utility.yul\":8079:8105   */\n      swap1\n      pop\n        /* \"#utility.yul\":8151:8160   */\n      dup2\n        /* \"#utility.yul\":8145:8149   */\n      dup2\n        /* \"#utility.yul\":8141:8161   */\n      sub\n        /* \"#utility.yul\":8137:8138   */\n      0x00\n        /* \"#utility.yul\":8126:8135   */\n      dup4\n        /* \"#utility.yul\":8122:8139   */\n      add\n        /* \"#utility.yul\":8115:8162   */\n      mstore\n        /* \"#utility.yul\":8179:8310   */\n      tag_226\n        /* \"#utility.yul\":8305:8309   */\n      dup2\n        /* \"#utility.yul\":8179:8310   */\n      tag_137\n      jump\t// in\n    tag_226:\n        /* \"#utility.yul\":8171:8310   */\n      swap1\n      pop\n        /* \"#utility.yul\":7898:8317   */\n      swap2\n      swap1\n      pop\n      jump\t// out\n\n    auxdata: 0xa2646970667358221220fd6b08cdff70c1709546199e498ef60a7d6c91927dbd1e90697e129e0bca56e464736f6c63430008100033\n}\n",
				"bytecode": {
					"linkReferences": {},
					"object": "60806040523480156200001157600080fd5b50604051620018d3380380620018d3833981810160405281019062000037919062000431565b82600490816200004891906200070c565b5081600590816200005a91906200070c565b5033600160006101000a81548173ffffffffffffffffffffffffffffffffffffffff021916908373ffffffffffffffffffffffffffffffffffffffff160217905550620000d081600160009054906101000a900473ffffffffffffffffffffffffffffffffffffffff16620000d960201b60201c565b5050506200090e565b600160009054906101000a900473ffffffffffffffffffffffffffffffffffffffff1673ffffffffffffffffffffffffffffffffffffffff163373ffffffffffffffffffffffffffffffffffffffff16146200016c576040517f08c379a0000000000000000000000000000000000000000000000000000000008152600401620001639062000854565b60405180910390fd5b62000180600082846200025e60201b60201c565b81600260008373ffffffffffffffffffffffffffffffffffffffff1673ffffffffffffffffffffffffffffffffffffffff1681526020019081526020016000206000828254620001d19190620008a5565b9250508190555081600080828254620001eb9190620008a5565b925050819055508073ffffffffffffffffffffffffffffffffffffffff16600073ffffffffffffffffffffffffffffffffffffffff167fddf252ad1be2c89b69c2b068fc378daa952ba7f163c4a11628f55a4df523b3ef84604051620002529190620008f1565b60405180910390a35050565b505050565b6000604051905090565b600080fd5b600080fd5b600080fd5b600080fd5b6000601f19601f8301169050919050565b7f4e487b7100000000000000000000000000000000000000000000000000000000600052604160045260246000fd5b620002cc8262000281565b810181811067ffffffffffffffff82111715620002ee57620002ed62000292565b5b80604052505050565b60006200030362000263565b9050620003118282620002c1565b919050565b600067ffffffffffffffff82111562000334576200033362000292565b5b6200033f8262000281565b9050602081019050919050565b60005b838110156200036c5780820151818401526020810190506200034f565b60008484015250505050565b60006200038f620003898462000316565b620002f7565b905082815260208101848484011115620003ae57620003ad6200027c565b5b620003bb8482856200034c565b509392505050565b600082601f830112620003db57620003da62000277565b5b8151620003ed84826020860162000378565b91505092915050565b6000819050919050565b6200040b81620003f6565b81146200041757600080fd5b50565b6000815190506200042b8162000400565b92915050565b6000806000606084860312156200044d576200044c6200026d565b5b600084015167ffffffffffffffff8111156200046e576200046d62000272565b5b6200047c86828701620003c3565b935050602084015167ffffffffffffffff811115620004a0576200049f62000272565b5b620004ae86828701620003c3565b9250506040620004c1868287016200041a565b9150509250925092565b600081519050919050565b7f4e487b7100000000000000000000000000000000000000000000000000000000600052602260045260246000fd5b600060028204905060018216806200051e57607f821691505b602082108103620005345762000533620004d6565b5b50919050565b60008190508160005260206000209050919050565b60006020601f8301049050919050565b600082821b905092915050565b6000600883026200059e7fffffffffffffffffffffffffffffffffffffffffffffffffffffffffffffffff826200055f565b620005aa86836200055f565b95508019841693508086168417925050509392505050565b6000819050919050565b6000620005ed620005e7620005e184620003f6565b620005c2565b620003f6565b9050919050565b6000819050919050565b6200060983620005cc565b620006216200061882620005f4565b8484546200056c565b825550505050565b600090565b6200063862000629565b62000645818484620005fe565b505050565b5b818110156200066d57620006616000826200062e565b6001810190506200064b565b5050565b601f821115620006bc5762000686816200053a565b62000691846200054f565b81016020851015620006a1578190505b620006b9620006b0856200054f565b8301826200064a565b50505b505050565b600082821c905092915050565b6000620006e160001984600802620006c1565b1980831691505092915050565b6000620006fc8383620006ce565b9150826002028217905092915050565b6200071782620004cb565b67ffffffffffffffff81111562000733576200073262000292565b5b6200073f825462000505565b6200074c82828562000671565b600060209050601f8311600181146200078457600084156200076f578287015190505b6200077b8582620006ee565b865550620007eb565b601f19841662000794866200053a565b60005b82811015620007be5784890151825560018201915060208501945060208101905062000797565b86831015620007de5784890151620007da601f891682620006ce565b8355505b6001600288020188555050505b505050505050565b600082825260208201905092915050565b7f6e6f7420616e206f776e65722100000000000000000000000000000000000000600082015250565b60006200083c600d83620007f3565b9150620008498262000804565b602082019050919050565b600060208201905081810360008301526200086f816200082d565b9050919050565b7f4e487b7100000000000000000000000000000000000000000000000000000000600052601160045260246000fd5b6000620008b282620003f6565b9150620008bf83620003f6565b9250828201905080821115620008da57620008d962000876565b5b92915050565b620008eb81620003f6565b82525050565b6000602082019050620009086000830184620008e0565b92915050565b610fb5806200091e6000396000f3fe608060405234801561001057600080fd5b50600436106100a95760003560e01c806370a082311161007157806370a082311461014057806394bf804d1461017057806395d89b411461018c5780639dc29fac146101aa578063a9059cbb146101c6578063dd62ed3e146101e2576100a9565b806306fdde03146100ae578063095ea7b3146100cc57806318160ddd146100e857806323b872dd14610106578063313ce56714610122575b600080fd5b6100b6610212565b6040516100c39190610b8b565b60405180910390f35b6100e660048036038101906100e19190610c46565b6102a4565b005b6100f061038e565b6040516100fd9190610c95565b60405180910390f35b610120600480360381019061011b9190610cb0565b610397565b005b61012a61054b565b6040516101379190610c95565b60405180910390f35b61015a60048036038101906101559190610d03565b610554565b6040516101679190610c95565b60405180910390f35b61018a60048036038101906101859190610d30565b61059d565b005b610194610711565b6040516101a19190610b8b565b60405180910390f35b6101c460048036038101906101bf9190610c46565b6107a3565b005b6101e060048036038101906101db9190610c46565b610900565b005b6101fc60048036038101906101f79190610d70565b610a6f565b6040516102099190610c95565b60405180910390f35b60606004805461022190610ddf565b80601f016020809104026020016040519081016040528092919081815260200182805461024d90610ddf565b801561029a5780601f1061026f5761010080835404028352916020019161029a565b820191906000526020600020905b81548152906001019060200180831161027d57829003601f168201915b5050505050905090565b80600360003373ffffffffffffffffffffffffffffffffffffffff1673ffffffffffffffffffffffffffffffffffffffff16815260200190815260200160002060008473ffffffffffffffffffffffffffffffffffffffff1673ffffffffffffffffffffffffffffffffffffffff168152602001908152602001600020819055508173ffffffffffffffffffffffffffffffffffffffff163373ffffffffffffffffffffffffffffffffffffffff167f6e11fb1b7f119e3f2fa29896ef5fdf8b8a2d0d4df6fe90ba8668e7d8b2ffa25e836040516103829190610c95565b60405180910390a35050565b60008054905090565b6103a2838383610af6565b80600360008573ffffffffffffffffffffffffffffffffffffffff1673ffffffffffffffffffffffffffffffffffffffff16815260200190815260200160002060003373ffffffffffffffffffffffffffffffffffffffff1673ffffffffffffffffffffffffffffffffffffffff168152602001908152602001600020600082825461042e9190610e3f565b9250508190555080600260008573ffffffffffffffffffffffffffffffffffffffff1673ffffffffffffffffffffffffffffffffffffffff16815260200190815260200160002060008282546104849190610e3f565b9250508190555080600260008473ffffffffffffffffffffffffffffffffffffffff1673ffffffffffffffffffffffffffffffffffffffff16815260200190815260200160002060008282546104da9190610e73565b925050819055508173ffffffffffffffffffffffffffffffffffffffff168373ffffffffffffffffffffffffffffffffffffffff167fddf252ad1be2c89b69c2b068fc378daa952ba7f163c4a11628f55a4df523b3ef8360405161053e9190610c95565b60405180910390a3505050565b60006012905090565b6000600260008373ffffffffffffffffffffffffffffffffffffffff1673ffffffffffffffffffffffffffffffffffffffff168152602001908152602001600020549050919050565b600160009054906101000a900473ffffffffffffffffffffffffffffffffffffffff1673ffffffffffffffffffffffffffffffffffffffff163373ffffffffffffffffffffffffffffffffffffffff161461062d576040517f08c379a000000000000000000000000000000000000000000000000000000000815260040161062490610ef3565b60405180910390fd5b61063960008284610af6565b81600260008373ffffffffffffffffffffffffffffffffffffffff1673ffffffffffffffffffffffffffffffffffffffff16815260200190815260200160002060008282546106889190610e73565b92505081905550816000808282546106a09190610e73565b925050819055508073ffffffffffffffffffffffffffffffffffffffff16600073ffffffffffffffffffffffffffffffffffffffff167fddf252ad1be2c89b69c2b068fc378daa952ba7f163c4a11628f55a4df523b3ef846040516107059190610c95565b60405180910390a35050565b60606005805461072090610ddf565b80601f016020809104026020016040519081016040528092919081815260200182805461074c90610ddf565b80156107995780601f1061076e57610100808354040283529160200191610799565b820191906000526020600020905b81548152906001019060200180831161077c57829003601f168201915b5050505050905090565b600160009054906101000a900473ffffffffffffffffffffffffffffffffffffffff1673ffffffffffffffffffffffffffffffffffffffff163373ffffffffffffffffffffffffffffffffffffffff1614610833576040517f08c379a000000000000000000000000000000000000000000000000000000000815260040161082a90610ef3565b60405180910390fd5b81818061083f83610554565b1015610880576040517f08c379a000000000000000000000000000000000000000000000000000000000815260040161087790610f5f565b60405180910390fd5b61088c84600085610af6565b82600260008673ffffffffffffffffffffffffffffffffffffffff1673ffffffffffffffffffffffffffffffffffffffff16815260200190815260200160002060008282546108db9190610e3f565b92505081905550826000808282546108f39190610e3f565b9250508190555050505050565b33818061090c83610554565b101561094d576040517f08c379a000000000000000000000000000000000000000000000000000000000815260040161094490610f5f565b60405180910390fd5b610958338585610af6565b82600260003373ffffffffffffffffffffffffffffffffffffffff1673ffffffffffffffffffffffffffffffffffffffff16815260200190815260200160002060008282546109a79190610e3f565b9250508190555082600260008673ffffffffffffffffffffffffffffffffffffffff1673ffffffffffffffffffffffffffffffffffffffff16815260200190815260200160002060008282546109fd9190610e73565b925050819055508373ffffffffffffffffffffffffffffffffffffffff163373ffffffffffffffffffffffffffffffffffffffff167fddf252ad1be2c89b69c2b068fc378daa952ba7f163c4a11628f55a4df523b3ef85604051610a619190610c95565b60405180910390a350505050565b6000600360008473ffffffffffffffffffffffffffffffffffffffff1673ffffffffffffffffffffffffffffffffffffffff16815260200190815260200160002060008373ffffffffffffffffffffffffffffffffffffffff1673ffffffffffffffffffffffffffffffffffffffff16815260200190815260200160002054905092915050565b505050565b600081519050919050565b600082825260208201905092915050565b60005b83811015610b35578082015181840152602081019050610b1a565b60008484015250505050565b6000601f19601f8301169050919050565b6000610b5d82610afb565b610b678185610b06565b9350610b77818560208601610b17565b610b8081610b41565b840191505092915050565b60006020820190508181036000830152610ba58184610b52565b905092915050565b600080fd5b600073ffffffffffffffffffffffffffffffffffffffff82169050919050565b6000610bdd82610bb2565b9050919050565b610bed81610bd2565b8114610bf857600080fd5b50565b600081359050610c0a81610be4565b92915050565b6000819050919050565b610c2381610c10565b8114610c2e57600080fd5b50565b600081359050610c4081610c1a565b92915050565b60008060408385031215610c5d57610c5c610bad565b5b6000610c6b85828601610bfb565b9250506020610c7c85828601610c31565b9150509250929050565b610c8f81610c10565b82525050565b6000602082019050610caa6000830184610c86565b92915050565b600080600060608486031215610cc957610cc8610bad565b5b6000610cd786828701610bfb565b9350506020610ce886828701610bfb565b9250506040610cf986828701610c31565b9150509250925092565b600060208284031215610d1957610d18610bad565b5b6000610d2784828501610bfb565b91505092915050565b60008060408385031215610d4757610d46610bad565b5b6000610d5585828601610c31565b9250506020610d6685828601610bfb565b9150509250929050565b60008060408385031215610d8757610d86610bad565b5b6000610d9585828601610bfb565b9250506020610da685828601610bfb565b9150509250929050565b7f4e487b7100000000000000000000000000000000000000000000000000000000600052602260045260246000fd5b60006002820490506001821680610df757607f821691505b602082108103610e0a57610e09610db0565b5b50919050565b7f4e487b7100000000000000000000000000000000000000000000000000000000600052601160045260246000fd5b6000610e4a82610c10565b9150610e5583610c10565b9250828203905081811115610e6d57610e6c610e10565b5b92915050565b6000610e7e82610c10565b9150610e8983610c10565b9250828201905080821115610ea157610ea0610e10565b5b92915050565b7f6e6f7420616e206f776e65722100000000000000000000000000000000000000600082015250565b6000610edd600d83610b06565b9150610ee882610ea7565b602082019050919050565b60006020820190508181036000830152610f0c81610ed0565b9050919050565b7f6e6f7420656e6f75676820746f6b656e73210000000000000000000000000000600082015250565b6000610f49601283610b06565b9150610f5482610f13565b602082019050919050565b60006020820190508181036000830152610f7881610f3c565b905091905056fea2646970667358221220fd6b08cdff70c1709546199e498ef60a7d6c91927dbd1e90697e129e0bca56e464736f6c63430008100033",
					"opcodes": "PUSH1 0x80 PUSH1 0x40 MSTORE CALLVALUE DUP1 ISZERO PUSH3 0x11 JUMPI PUSH1 0x0 DUP1 REVERT JUMPDEST POP PUSH1 0x40 MLOAD PUSH3 0x18D3 CODESIZE SUB DUP1 PUSH3 0x18D3 DUP4 CODECOPY DUP2 DUP2 ADD PUSH1 0x40 MSTORE DUP2 ADD SWAP1 PUSH3 0x37 SWAP2 SWAP1 PUSH3 0x431 JUMP JUMPDEST DUP3 PUSH1 0x4 SWAP1 DUP2 PUSH3 0x48 SWAP2 SWAP1 PUSH3 0x70C JUMP JUMPDEST POP DUP2 PUSH1 0x5 SWAP1 DUP2 PUSH3 0x5A SWAP2 SWAP1 PUSH3 0x70C JUMP JUMPDEST POP CALLER PUSH1 0x1 PUSH1 0x0 PUSH2 0x100 EXP DUP2 SLOAD DUP2 PUSH20 0xFFFFFFFFFFFFFFFFFFFFFFFFFFFFFFFFFFFFFFFF MUL NOT AND SWAP1 DUP4 PUSH20 0xFFFFFFFFFFFFFFFFFFFFFFFFFFFFFFFFFFFFFFFF AND MUL OR SWAP1 SSTORE POP PUSH3 0xD0 DUP2 PUSH1 0x1 PUSH1 0x0 SWAP1 SLOAD SWAP1 PUSH2 0x100 EXP SWAP1 DIV PUSH20 0xFFFFFFFFFFFFFFFFFFFFFFFFFFFFFFFFFFFFFFFF AND PUSH3 0xD9 PUSH1 0x20 SHL PUSH1 0x20 SHR JUMP JUMPDEST POP POP POP PUSH3 0x90E JUMP JUMPDEST PUSH1 0x1 PUSH1 0x0 SWAP1 SLOAD SWAP1 PUSH2 0x100 EXP SWAP1 DIV PUSH20 0xFFFFFFFFFFFFFFFFFFFFFFFFFFFFFFFFFFFFFFFF AND PUSH20 0xFFFFFFFFFFFFFFFFFFFFFFFFFFFFFFFFFFFFFFFF AND CALLER PUSH20 0xFFFFFFFFFFFFFFFFFFFFFFFFFFFFFFFFFFFFFFFF AND EQ PUSH3 0x16C JUMPI PUSH1 0x40 MLOAD PUSH32 0x8C379A000000000000000000000000000000000000000000000000000000000 DUP2 MSTORE PUSH1 0x4 ADD PUSH3 0x163 SWAP1 PUSH3 0x854 JUMP JUMPDEST PUSH1 0x40 MLOAD DUP1 SWAP2 SUB SWAP1 REVERT JUMPDEST PUSH3 0x180 PUSH1 0x0 DUP3 DUP5 PUSH3 0x25E PUSH1 0x20 SHL PUSH1 0x20 SHR JUMP JUMPDEST DUP2 PUSH1 0x2 PUSH1 0x0 DUP4 PUSH20 0xFFFFFFFFFFFFFFFFFFFFFFFFFFFFFFFFFFFFFFFF AND PUSH20 0xFFFFFFFFFFFFFFFFFFFFFFFFFFFFFFFFFFFFFFFF AND DUP2 MSTORE PUSH1 0x20 ADD SWAP1 DUP2 MSTORE PUSH1 0x20 ADD PUSH1 0x0 KECCAK256 PUSH1 0x0 DUP3 DUP3 SLOAD PUSH3 0x1D1 SWAP2 SWAP1 PUSH3 0x8A5 JUMP JUMPDEST SWAP3 POP POP DUP2 SWAP1 SSTORE POP DUP2 PUSH1 0x0 DUP1 DUP3 DUP3 SLOAD PUSH3 0x1EB SWAP2 SWAP1 PUSH3 0x8A5 JUMP JUMPDEST SWAP3 POP POP DUP2 SWAP1 SSTORE POP DUP1 PUSH20 0xFFFFFFFFFFFFFFFFFFFFFFFFFFFFFFFFFFFFFFFF AND PUSH1 0x0 PUSH20 0xFFFFFFFFFFFFFFFFFFFFFFFFFFFFFFFFFFFFFFFF AND PUSH32 0xDDF252AD1BE2C89B69C2B068FC378DAA952BA7F163C4A11628F55A4DF523B3EF DUP5 PUSH1 0x40 MLOAD PUSH3 0x252 SWAP2 SWAP1 PUSH3 0x8F1 JUMP JUMPDEST PUSH1 0x40 MLOAD DUP1 SWAP2 SUB SWAP1 LOG3 POP POP JUMP JUMPDEST POP POP POP JUMP JUMPDEST PUSH1 0x0 PUSH1 0x40 MLOAD SWAP1 POP SWAP1 JUMP JUMPDEST PUSH1 0x0 DUP1 REVERT JUMPDEST PUSH1 0x0 DUP1 REVERT JUMPDEST PUSH1 0x0 DUP1 REVERT JUMPDEST PUSH1 0x0 DUP1 REVERT JUMPDEST PUSH1 0x0 PUSH1 0x1F NOT PUSH1 0x1F DUP4 ADD AND SWAP1 POP SWAP2 SWAP1 POP JUMP JUMPDEST PUSH32 0x4E487B7100000000000000000000000000000000000000000000000000000000 PUSH1 0x0 MSTORE PUSH1 0x41 PUSH1 0x4 MSTORE PUSH1 0x24 PUSH1 0x0 REVERT JUMPDEST PUSH3 0x2CC DUP3 PUSH3 0x281 JUMP JUMPDEST DUP2 ADD DUP2 DUP2 LT PUSH8 0xFFFFFFFFFFFFFFFF DUP3 GT OR ISZERO PUSH3 0x2EE JUMPI PUSH3 0x2ED PUSH3 0x292 JUMP JUMPDEST JUMPDEST DUP1 PUSH1 0x40 MSTORE POP POP POP JUMP JUMPDEST PUSH1 0x0 PUSH3 0x303 PUSH3 0x263 JUMP JUMPDEST SWAP1 POP PUSH3 0x311 DUP3 DUP3 PUSH3 0x2C1 JUMP JUMPDEST SWAP2 SWAP1 POP JUMP JUMPDEST PUSH1 0x0 PUSH8 0xFFFFFFFFFFFFFFFF DUP3 GT ISZERO PUSH3 0x334 JUMPI PUSH3 0x333 PUSH3 0x292 JUMP JUMPDEST JUMPDEST PUSH3 0x33F DUP3 PUSH3 0x281 JUMP JUMPDEST SWAP1 POP PUSH1 0x20 DUP2 ADD SWAP1 POP SWAP2 SWAP1 POP JUMP JUMPDEST PUSH1 0x0 JUMPDEST DUP4 DUP2 LT ISZERO PUSH3 0x36C JUMPI DUP1 DUP3 ADD MLOAD DUP2 DUP5 ADD MSTORE PUSH1 0x20 DUP2 ADD SWAP1 POP PUSH3 0x34F JUMP JUMPDEST PUSH1 0x0 DUP5 DUP5 ADD MSTORE POP POP POP POP JUMP JUMPDEST PUSH1 0x0 PUSH3 0x38F PUSH3 0x389 DUP5 PUSH3 0x316 JUMP JUMPDEST PUSH3 0x2F7 JUMP JUMPDEST SWAP1 POP DUP3 DUP2 MSTORE PUSH1 0x20 DUP2 ADD DUP5 DUP5 DUP5 ADD GT ISZERO PUSH3 0x3AE JUMPI PUSH3 0x3AD PUSH3 0x27C JUMP JUMPDEST JUMPDEST PUSH3 0x3BB DUP5 DUP3 DUP6 PUSH3 0x34C JUMP JUMPDEST POP SWAP4 SWAP3 POP POP POP JUMP JUMPDEST PUSH1 0x0 DUP3 PUSH1 0x1F DUP4 ADD SLT PUSH3 0x3DB JUMPI PUSH3 0x3DA PUSH3 0x277 JUMP JUMPDEST JUMPDEST DUP2 MLOAD PUSH3 0x3ED DUP5 DUP3 PUSH1 0x20 DUP7 ADD PUSH3 0x378 JUMP JUMPDEST SWAP2 POP POP SWAP3 SWAP2 POP POP JUMP JUMPDEST PUSH1 0x0 DUP2 SWAP1 POP SWAP2 SWAP1 POP JUMP JUMPDEST PUSH3 0x40B DUP2 PUSH3 0x3F6 JUMP JUMPDEST DUP2 EQ PUSH3 0x417 JUMPI PUSH1 0x0 DUP1 REVERT JUMPDEST POP JUMP JUMPDEST PUSH1 0x0 DUP2 MLOAD SWAP1 POP PUSH3 0x42B DUP2 PUSH3 0x400 JUMP JUMPDEST SWAP3 SWAP2 POP POP JUMP JUMPDEST PUSH1 0x0 DUP1 PUSH1 0x0 PUSH1 0x60 DUP5 DUP7 SUB SLT ISZERO PUSH3 0x44D JUMPI PUSH3 0x44C PUSH3 0x26D JUMP JUMPDEST JUMPDEST PUSH1 0x0 DUP5 ADD MLOAD PUSH8 0xFFFFFFFFFFFFFFFF DUP2 GT ISZERO PUSH3 0x46E JUMPI PUSH3 0x46D PUSH3 0x272 JUMP JUMPDEST JUMPDEST PUSH3 0x47C DUP7 DUP3 DUP8 ADD PUSH3 0x3C3 JUMP JUMPDEST SWAP4 POP POP PUSH1 0x20 DUP5 ADD MLOAD PUSH8 0xFFFFFFFFFFFFFFFF DUP2 GT ISZERO PUSH3 0x4A0 JUMPI PUSH3 0x49F PUSH3 0x272 JUMP JUMPDEST JUMPDEST PUSH3 0x4AE DUP7 DUP3 DUP8 ADD PUSH3 0x3C3 JUMP JUMPDEST SWAP3 POP POP PUSH1 0x40 PUSH3 0x4C1 DUP7 DUP3 DUP8 ADD PUSH3 0x41A JUMP JUMPDEST SWAP2 POP POP SWAP3 POP SWAP3 POP SWAP3 JUMP JUMPDEST PUSH1 0x0 DUP2 MLOAD SWAP1 POP SWAP2 SWAP1 POP JUMP JUMPDEST PUSH32 0x4E487B7100000000000000000000000000000000000000000000000000000000 PUSH1 0x0 MSTORE PUSH1 0x22 PUSH1 0x4 MSTORE PUSH1 0x24 PUSH1 0x0 REVERT JUMPDEST PUSH1 0x0 PUSH1 0x2 DUP3 DIV SWAP1 POP PUSH1 0x1 DUP3 AND DUP1 PUSH3 0x51E JUMPI PUSH1 0x7F DUP3 AND SWAP2 POP JUMPDEST PUSH1 0x20 DUP3 LT DUP2 SUB PUSH3 0x534 JUMPI PUSH3 0x533 PUSH3 0x4D6 JUMP JUMPDEST JUMPDEST POP SWAP2 SWAP1 POP JUMP JUMPDEST PUSH1 0x0 DUP2 SWAP1 POP DUP2 PUSH1 0x0 MSTORE PUSH1 0x20 PUSH1 0x0 KECCAK256 SWAP1 POP SWAP2 SWAP1 POP JUMP JUMPDEST PUSH1 0x0 PUSH1 0x20 PUSH1 0x1F DUP4 ADD DIV SWAP1 POP SWAP2 SWAP1 POP JUMP JUMPDEST PUSH1 0x0 DUP3 DUP3 SHL SWAP1 POP SWAP3 SWAP2 POP POP JUMP JUMPDEST PUSH1 0x0 PUSH1 0x8 DUP4 MUL PUSH3 0x59E PUSH32 0xFFFFFFFFFFFFFFFFFFFFFFFFFFFFFFFFFFFFFFFFFFFFFFFFFFFFFFFFFFFFFFFF DUP3 PUSH3 0x55F JUMP JUMPDEST PUSH3 0x5AA DUP7 DUP4 PUSH3 0x55F JUMP JUMPDEST SWAP6 POP DUP1 NOT DUP5 AND SWAP4 POP DUP1 DUP7 AND DUP5 OR SWAP3 POP POP POP SWAP4 SWAP3 POP POP POP JUMP JUMPDEST PUSH1 0x0 DUP2 SWAP1 POP SWAP2 SWAP1 POP JUMP JUMPDEST PUSH1 0x0 PUSH3 0x5ED PUSH3 0x5E7 PUSH3 0x5E1 DUP5 PUSH3 0x3F6 JUMP JUMPDEST PUSH3 0x5C2 JUMP JUMPDEST PUSH3 0x3F6 JUMP JUMPDEST SWAP1 POP SWAP2 SWAP1 POP JUMP JUMPDEST PUSH1 0x0 DUP2 SWAP1 POP SWAP2 SWAP1 POP JUMP JUMPDEST PUSH3 0x609 DUP4 PUSH3 0x5CC JUMP JUMPDEST PUSH3 0x621 PUSH3 0x618 DUP3 PUSH3 0x5F4 JUMP JUMPDEST DUP5 DUP5 SLOAD PUSH3 0x56C JUMP JUMPDEST DUP3 SSTORE POP POP POP POP JUMP JUMPDEST PUSH1 0x0 SWAP1 JUMP JUMPDEST PUSH3 0x638 PUSH3 0x629 JUMP JUMPDEST PUSH3 0x645 DUP2 DUP5 DUP5 PUSH3 0x5FE JUMP JUMPDEST POP POP POP JUMP JUMPDEST JUMPDEST DUP2 DUP2 LT ISZERO PUSH3 0x66D JUMPI PUSH3 0x661 PUSH1 0x0 DUP3 PUSH3 0x62E JUMP JUMPDEST PUSH1 0x1 DUP2 ADD SWAP1 POP PUSH3 0x64B JUMP JUMPDEST POP POP JUMP JUMPDEST PUSH1 0x1F DUP3 GT ISZERO PUSH3 0x6BC JUMPI PUSH3 0x686 DUP2 PUSH3 0x53A JUMP JUMPDEST PUSH3 0x691 DUP5 PUSH3 0x54F JUMP JUMPDEST DUP2 ADD PUSH1 0x20 DUP6 LT ISZERO PUSH3 0x6A1 JUMPI DUP2 SWAP1 POP JUMPDEST PUSH3 0x6B9 PUSH3 0x6B0 DUP6 PUSH3 0x54F JUMP JUMPDEST DUP4 ADD DUP3 PUSH3 0x64A JUMP JUMPDEST POP POP JUMPDEST POP POP POP JUMP JUMPDEST PUSH1 0x0 DUP3 DUP3 SHR SWAP1 POP SWAP3 SWAP2 POP POP JUMP JUMPDEST PUSH1 0x0 PUSH3 0x6E1 PUSH1 0x0 NOT DUP5 PUSH1 0x8 MUL PUSH3 0x6C1 JUMP JUMPDEST NOT DUP1 DUP4 AND SWAP2 POP POP SWAP3 SWAP2 POP POP JUMP JUMPDEST PUSH1 0x0 PUSH3 0x6FC DUP4 DUP4 PUSH3 0x6CE JUMP JUMPDEST SWAP2 POP DUP3 PUSH1 0x2 MUL DUP3 OR SWAP1 POP SWAP3 SWAP2 POP POP JUMP JUMPDEST PUSH3 0x717 DUP3 PUSH3 0x4CB JUMP JUMPDEST PUSH8 0xFFFFFFFFFFFFFFFF DUP2 GT ISZERO PUSH3 0x733 JUMPI PUSH3 0x732 PUSH3 0x292 JUMP JUMPDEST JUMPDEST PUSH3 0x73F DUP3 SLOAD PUSH3 0x505 JUMP JUMPDEST PUSH3 0x74C DUP3 DUP3 DUP6 PUSH3 0x671 JUMP JUMPDEST PUSH1 0x0 PUSH1 0x20 SWAP1 POP PUSH1 0x1F DUP4 GT PUSH1 0x1 DUP2 EQ PUSH3 0x784 JUMPI PUSH1 0x0 DUP5 ISZERO PUSH3 0x76F JUMPI DUP3 DUP8 ADD MLOAD SWAP1 POP JUMPDEST PUSH3 0x77B DUP6 DUP3 PUSH3 0x6EE JUMP JUMPDEST DUP7 SSTORE POP PUSH3 0x7EB JUMP JUMPDEST PUSH1 0x1F NOT DUP5 AND PUSH3 0x794 DUP7 PUSH3 0x53A JUMP JUMPDEST PUSH1 0x0 JUMPDEST DUP3 DUP2 LT ISZERO PUSH3 0x7BE JUMPI DUP5 DUP10 ADD MLOAD DUP3 SSTORE PUSH1 0x1 DUP3 ADD SWAP2 POP PUSH1 0x20 DUP6 ADD SWAP5 POP PUSH1 0x20 DUP2 ADD SWAP1 POP PUSH3 0x797 JUMP JUMPDEST DUP7 DUP4 LT ISZERO PUSH3 0x7DE JUMPI DUP5 DUP10 ADD MLOAD PUSH3 0x7DA PUSH1 0x1F DUP10 AND DUP3 PUSH3 0x6CE JUMP JUMPDEST DUP4 SSTORE POP JUMPDEST PUSH1 0x1 PUSH1 0x2 DUP9 MUL ADD DUP9 SSTORE POP POP POP JUMPDEST POP POP POP POP POP POP JUMP JUMPDEST PUSH1 0x0 DUP3 DUP3 MSTORE PUSH1 0x20 DUP3 ADD SWAP1 POP SWAP3 SWAP2 POP POP JUMP JUMPDEST PUSH32 0x6E6F7420616E206F776E65722100000000000000000000000000000000000000 PUSH1 0x0 DUP3 ADD MSTORE POP JUMP JUMPDEST PUSH1 0x0 PUSH3 0x83C PUSH1 0xD DUP4 PUSH3 0x7F3 JUMP JUMPDEST SWAP2 POP PUSH3 0x849 DUP3 PUSH3 0x804 JUMP JUMPDEST PUSH1 0x20 DUP3 ADD SWAP1 POP SWAP2 SWAP1 POP JUMP JUMPDEST PUSH1 0x0 PUSH1 0x20 DUP3 ADD SWAP1 POP DUP2 DUP2 SUB PUSH1 0x0 DUP4 ADD MSTORE PUSH3 0x86F DUP2 PUSH3 0x82D JUMP JUMPDEST SWAP1 POP SWAP2 SWAP1 POP JUMP JUMPDEST PUSH32 0x4E487B7100000000000000000000000000000000000000000000000000000000 PUSH1 0x0 MSTORE PUSH1 0x11 PUSH1 0x4 MSTORE PUSH1 0x24 PUSH1 0x0 REVERT JUMPDEST PUSH1 0x0 PUSH3 0x8B2 DUP3 PUSH3 0x3F6 JUMP JUMPDEST SWAP2 POP PUSH3 0x8BF DUP4 PUSH3 0x3F6 JUMP JUMPDEST SWAP3 POP DUP3 DUP3 ADD SWAP1 POP DUP1 DUP3 GT ISZERO PUSH3 0x8DA JUMPI PUSH3 0x8D9 PUSH3 0x876 JUMP JUMPDEST JUMPDEST SWAP3 SWAP2 POP POP JUMP JUMPDEST PUSH3 0x8EB DUP2 PUSH3 0x3F6 JUMP JUMPDEST DUP3 MSTORE POP POP JUMP JUMPDEST PUSH1 0x0 PUSH1 0x20 DUP3 ADD SWAP1 POP PUSH3 0x908 PUSH1 0x0 DUP4 ADD DUP5 PUSH3 0x8E0 JUMP JUMPDEST SWAP3 SWAP2 POP POP JUMP JUMPDEST PUSH2 0xFB5 DUP1 PUSH3 0x91E PUSH1 0x0 CODECOPY PUSH1 0x0 RETURN INVALID PUSH1 0x80 PUSH1 0x40 MSTORE CALLVALUE DUP1 ISZERO PUSH2 0x10 JUMPI PUSH1 0x0 DUP1 REVERT JUMPDEST POP PUSH1 0x4 CALLDATASIZE LT PUSH2 0xA9 JUMPI PUSH1 0x0 CALLDATALOAD PUSH1 0xE0 SHR DUP1 PUSH4 0x70A08231 GT PUSH2 0x71 JUMPI DUP1 PUSH4 0x70A08231 EQ PUSH2 0x140 JUMPI DUP1 PUSH4 0x94BF804D EQ PUSH2 0x170 JUMPI DUP1 PUSH4 0x95D89B41 EQ PUSH2 0x18C JUMPI DUP1 PUSH4 0x9DC29FAC EQ PUSH2 0x1AA JUMPI DUP1 PUSH4 0xA9059CBB EQ PUSH2 0x1C6 JUMPI DUP1 PUSH4 0xDD62ED3E EQ PUSH2 0x1E2 JUMPI PUSH2 0xA9 JUMP JUMPDEST DUP1 PUSH4 0x6FDDE03 EQ PUSH2 0xAE JUMPI DUP1 PUSH4 0x95EA7B3 EQ PUSH2 0xCC JUMPI DUP1 PUSH4 0x18160DDD EQ PUSH2 0xE8 JUMPI DUP1 PUSH4 0x23B872DD EQ PUSH2 0x106 JUMPI DUP1 PUSH4 0x313CE567 EQ PUSH2 0x122 JUMPI JUMPDEST PUSH1 0x0 DUP1 REVERT JUMPDEST PUSH2 0xB6 PUSH2 0x212 JUMP JUMPDEST PUSH1 0x40 MLOAD PUSH2 0xC3 SWAP2 SWAP1 PUSH2 0xB8B JUMP JUMPDEST PUSH1 0x40 MLOAD DUP1 SWAP2 SUB SWAP1 RETURN JUMPDEST PUSH2 0xE6 PUSH1 0x4 DUP1 CALLDATASIZE SUB DUP2 ADD SWAP1 PUSH2 0xE1 SWAP2 SWAP1 PUSH2 0xC46 JUMP JUMPDEST PUSH2 0x2A4 JUMP JUMPDEST STOP JUMPDEST PUSH2 0xF0 PUSH2 0x38E JUMP JUMPDEST PUSH1 0x40 MLOAD PUSH2 0xFD SWAP2 SWAP1 PUSH2 0xC95 JUMP JUMPDEST PUSH1 0x40 MLOAD DUP1 SWAP2 SUB SWAP1 RETURN JUMPDEST PUSH2 0x120 PUSH1 0x4 DUP1 CALLDATASIZE SUB DUP2 ADD SWAP1 PUSH2 0x11B SWAP2 SWAP1 PUSH2 0xCB0 JUMP JUMPDEST PUSH2 0x397 JUMP JUMPDEST STOP JUMPDEST PUSH2 0x12A PUSH2 0x54B JUMP JUMPDEST PUSH1 0x40 MLOAD PUSH2 0x137 SWAP2 SWAP1 PUSH2 0xC95 JUMP JUMPDEST PUSH1 0x40 MLOAD DUP1 SWAP2 SUB SWAP1 RETURN JUMPDEST PUSH2 0x15A PUSH1 0x4 DUP1 CALLDATASIZE SUB DUP2 ADD SWAP1 PUSH2 0x155 SWAP2 SWAP1 PUSH2 0xD03 JUMP JUMPDEST PUSH2 0x554 JUMP JUMPDEST PUSH1 0x40 MLOAD PUSH2 0x167 SWAP2 SWAP1 PUSH2 0xC95 JUMP JUMPDEST PUSH1 0x40 MLOAD DUP1 SWAP2 SUB SWAP1 RETURN JUMPDEST PUSH2 0x18A PUSH1 0x4 DUP1 CALLDATASIZE SUB DUP2 ADD SWAP1 PUSH2 0x185 SWAP2 SWAP1 PUSH2 0xD30 JUMP JUMPDEST PUSH2 0x59D JUMP JUMPDEST STOP JUMPDEST PUSH2 0x194 PUSH2 0x711 JUMP JUMPDEST PUSH1 0x40 MLOAD PUSH2 0x1A1 SWAP2 SWAP1 PUSH2 0xB8B JUMP JUMPDEST PUSH1 0x40 MLOAD DUP1 SWAP2 SUB SWAP1 RETURN JUMPDEST PUSH2 0x1C4 PUSH1 0x4 DUP1 CALLDATASIZE SUB DUP2 ADD SWAP1 PUSH2 0x1BF SWAP2 SWAP1 PUSH2 0xC46 JUMP JUMPDEST PUSH2 0x7A3 JUMP JUMPDEST STOP JUMPDEST PUSH2 0x1E0 PUSH1 0x4 DUP1 CALLDATASIZE SUB DUP2 ADD SWAP1 PUSH2 0x1DB SWAP2 SWAP1 PUSH2 0xC46 JUMP JUMPDEST PUSH2 0x900 JUMP JUMPDEST STOP JUMPDEST PUSH2 0x1FC PUSH1 0x4 DUP1 CALLDATASIZE SUB DUP2 ADD SWAP1 PUSH2 0x1F7 SWAP2 SWAP1 PUSH2 0xD70 JUMP JUMPDEST PUSH2 0xA6F JUMP JUMPDEST PUSH1 0x40 MLOAD PUSH2 0x209 SWAP2 SWAP1 PUSH2 0xC95 JUMP JUMPDEST PUSH1 0x40 MLOAD DUP1 SWAP2 SUB SWAP1 RETURN JUMPDEST PUSH1 0x60 PUSH1 0x4 DUP1 SLOAD PUSH2 0x221 SWAP1 PUSH2 0xDDF JUMP JUMPDEST DUP1 PUSH1 0x1F ADD PUSH1 0x20 DUP1 SWAP2 DIV MUL PUSH1 0x20 ADD PUSH1 0x40 MLOAD SWAP1 DUP2 ADD PUSH1 0x40 MSTORE DUP1 SWAP3 SWAP2 SWAP1 DUP2 DUP2 MSTORE PUSH1 0x20 ADD DUP3 DUP1 SLOAD PUSH2 0x24D SWAP1 PUSH2 0xDDF JUMP JUMPDEST DUP1 ISZERO PUSH2 0x29A JUMPI DUP1 PUSH1 0x1F LT PUSH2 0x26F JUMPI PUSH2 0x100 DUP1 DUP4 SLOAD DIV MUL DUP4 MSTORE SWAP2 PUSH1 0x20 ADD SWAP2 PUSH2 0x29A JUMP JUMPDEST DUP3 ADD SWAP2 SWAP1 PUSH1 0x0 MSTORE PUSH1 0x20 PUSH1 0x0 KECCAK256 SWAP1 JUMPDEST DUP2 SLOAD DUP2 MSTORE SWAP1 PUSH1 0x1 ADD SWAP1 PUSH1 0x20 ADD DUP1 DUP4 GT PUSH2 0x27D JUMPI DUP3 SWAP1 SUB PUSH1 0x1F AND DUP3 ADD SWAP2 JUMPDEST POP POP POP POP POP SWAP1 POP SWAP1 JUMP JUMPDEST DUP1 PUSH1 0x3 PUSH1 0x0 CALLER PUSH20 0xFFFFFFFFFFFFFFFFFFFFFFFFFFFFFFFFFFFFFFFF AND PUSH20 0xFFFFFFFFFFFFFFFFFFFFFFFFFFFFFFFFFFFFFFFF AND DUP2 MSTORE PUSH1 0x20 ADD SWAP1 DUP2 MSTORE PUSH1 0x20 ADD PUSH1 0x0 KECCAK256 PUSH1 0x0 DUP5 PUSH20 0xFFFFFFFFFFFFFFFFFFFFFFFFFFFFFFFFFFFFFFFF AND PUSH20 0xFFFFFFFFFFFFFFFFFFFFFFFFFFFFFFFFFFFFFFFF AND DUP2 MSTORE PUSH1 0x20 ADD SWAP1 DUP2 MSTORE PUSH1 0x20 ADD PUSH1 0x0 KECCAK256 DUP2 SWAP1 SSTORE POP DUP2 PUSH20 0xFFFFFFFFFFFFFFFFFFFFFFFFFFFFFFFFFFFFFFFF AND CALLER PUSH20 0xFFFFFFFFFFFFFFFFFFFFFFFFFFFFFFFFFFFFFFFF AND PUSH32 0x6E11FB1B7F119E3F2FA29896EF5FDF8B8A2D0D4DF6FE90BA8668E7D8B2FFA25E DUP4 PUSH1 0x40 MLOAD PUSH2 0x382 SWAP2 SWAP1 PUSH2 0xC95 JUMP JUMPDEST PUSH1 0x40 MLOAD DUP1 SWAP2 SUB SWAP1 LOG3 POP POP JUMP JUMPDEST PUSH1 0x0 DUP1 SLOAD SWAP1 POP SWAP1 JUMP JUMPDEST PUSH2 0x3A2 DUP4 DUP4 DUP4 PUSH2 0xAF6 JUMP JUMPDEST DUP1 PUSH1 0x3 PUSH1 0x0 DUP6 PUSH20 0xFFFFFFFFFFFFFFFFFFFFFFFFFFFFFFFFFFFFFFFF AND PUSH20 0xFFFFFFFFFFFFFFFFFFFFFFFFFFFFFFFFFFFFFFFF AND DUP2 MSTORE PUSH1 0x20 ADD SWAP1 DUP2 MSTORE PUSH1 0x20 ADD PUSH1 0x0 KECCAK256 PUSH1 0x0 CALLER PUSH20 0xFFFFFFFFFFFFFFFFFFFFFFFFFFFFFFFFFFFFFFFF AND PUSH20 0xFFFFFFFFFFFFFFFFFFFFFFFFFFFFFFFFFFFFFFFF AND DUP2 MSTORE PUSH1 0x20 ADD SWAP1 DUP2 MSTORE PUSH1 0x20 ADD PUSH1 0x0 KECCAK256 PUSH1 0x0 DUP3 DUP3 SLOAD PUSH2 0x42E SWAP2 SWAP1 PUSH2 0xE3F JUMP JUMPDEST SWAP3 POP POP DUP2 SWAP1 SSTORE POP DUP1 PUSH1 0x2 PUSH1 0x0 DUP6 PUSH20 0xFFFFFFFFFFFFFFFFFFFFFFFFFFFFFFFFFFFFFFFF AND PUSH20 0xFFFFFFFFFFFFFFFFFFFFFFFFFFFFFFFFFFFFFFFF AND DUP2 MSTORE PUSH1 0x20 ADD SWAP1 DUP2 MSTORE PUSH1 0x20 ADD PUSH1 0x0 KECCAK256 PUSH1 0x0 DUP3 DUP3 SLOAD PUSH2 0x484 SWAP2 SWAP1 PUSH2 0xE3F JUMP JUMPDEST SWAP3 POP POP DUP2 SWAP1 SSTORE POP DUP1 PUSH1 0x2 PUSH1 0x0 DUP5 PUSH20 0xFFFFFFFFFFFFFFFFFFFFFFFFFFFFFFFFFFFFFFFF AND PUSH20 0xFFFFFFFFFFFFFFFFFFFFFFFFFFFFFFFFFFFFFFFF AND DUP2 MSTORE PUSH1 0x20 ADD SWAP1 DUP2 MSTORE PUSH1 0x20 ADD PUSH1 0x0 KECCAK256 PUSH1 0x0 DUP3 DUP3 SLOAD PUSH2 0x4DA SWAP2 SWAP1 PUSH2 0xE73 JUMP JUMPDEST SWAP3 POP POP DUP2 SWAP1 SSTORE POP DUP2 PUSH20 0xFFFFFFFFFFFFFFFFFFFFFFFFFFFFFFFFFFFFFFFF AND DUP4 PUSH20 0xFFFFFFFFFFFFFFFFFFFFFFFFFFFFFFFFFFFFFFFF AND PUSH32 0xDDF252AD1BE2C89B69C2B068FC378DAA952BA7F163C4A11628F55A4DF523B3EF DUP4 PUSH1 0x40 MLOAD PUSH2 0x53E SWAP2 SWAP1 PUSH2 0xC95 JUMP JUMPDEST PUSH1 0x40 MLOAD DUP1 SWAP2 SUB SWAP1 LOG3 POP POP POP JUMP JUMPDEST PUSH1 0x0 PUSH1 0x12 SWAP1 POP SWAP1 JUMP JUMPDEST PUSH1 0x0 PUSH1 0x2 PUSH1 0x0 DUP4 PUSH20 0xFFFFFFFFFFFFFFFFFFFFFFFFFFFFFFFFFFFFFFFF AND PUSH20 0xFFFFFFFFFFFFFFFFFFFFFFFFFFFFFFFFFFFFFFFF AND DUP2 MSTORE PUSH1 0x20 ADD SWAP1 DUP2 MSTORE PUSH1 0x20 ADD PUSH1 0x0 KECCAK256 SLOAD SWAP1 POP SWAP2 SWAP1 POP JUMP JUMPDEST PUSH1 0x1 PUSH1 0x0 SWAP1 SLOAD SWAP1 PUSH2 0x100 EXP SWAP1 DIV PUSH20 0xFFFFFFFFFFFFFFFFFFFFFFFFFFFFFFFFFFFFFFFF AND PUSH20 0xFFFFFFFFFFFFFFFFFFFFFFFFFFFFFFFFFFFFFFFF AND CALLER PUSH20 0xFFFFFFFFFFFFFFFFFFFFFFFFFFFFFFFFFFFFFFFF AND EQ PUSH2 0x62D JUMPI PUSH1 0x40 MLOAD PUSH32 0x8C379A000000000000000000000000000000000000000000000000000000000 DUP2 MSTORE PUSH1 0x4 ADD PUSH2 0x624 SWAP1 PUSH2 0xEF3 JUMP JUMPDEST PUSH1 0x40 MLOAD DUP1 SWAP2 SUB SWAP1 REVERT JUMPDEST PUSH2 0x639 PUSH1 0x0 DUP3 DUP5 PUSH2 0xAF6 JUMP JUMPDEST DUP2 PUSH1 0x2 PUSH1 0x0 DUP4 PUSH20 0xFFFFFFFFFFFFFFFFFFFFFFFFFFFFFFFFFFFFFFFF AND PUSH20 0xFFFFFFFFFFFFFFFFFFFFFFFFFFFFFFFFFFFFFFFF AND DUP2 MSTORE PUSH1 0x20 ADD SWAP1 DUP2 MSTORE PUSH1 0x20 ADD PUSH1 0x0 KECCAK256 PUSH1 0x0 DUP3 DUP3 SLOAD PUSH2 0x688 SWAP2 SWAP1 PUSH2 0xE73 JUMP JUMPDEST SWAP3 POP POP DUP2 SWAP1 SSTORE POP DUP2 PUSH1 0x0 DUP1 DUP3 DUP3 SLOAD PUSH2 0x6A0 SWAP2 SWAP1 PUSH2 0xE73 JUMP JUMPDEST SWAP3 POP POP DUP2 SWAP1 SSTORE POP DUP1 PUSH20 0xFFFFFFFFFFFFFFFFFFFFFFFFFFFFFFFFFFFFFFFF AND PUSH1 0x0 PUSH20 0xFFFFFFFFFFFFFFFFFFFFFFFFFFFFFFFFFFFFFFFF AND PUSH32 0xDDF252AD1BE2C89B69C2B068FC378DAA952BA7F163C4A11628F55A4DF523B3EF DUP5 PUSH1 0x40 MLOAD PUSH2 0x705 SWAP2 SWAP1 PUSH2 0xC95 JUMP JUMPDEST PUSH1 0x40 MLOAD DUP1 SWAP2 SUB SWAP1 LOG3 POP POP JUMP JUMPDEST PUSH1 0x60 PUSH1 0x5 DUP1 SLOAD PUSH2 0x720 SWAP1 PUSH2 0xDDF JUMP JUMPDEST DUP1 PUSH1 0x1F ADD PUSH1 0x20 DUP1 SWAP2 DIV MUL PUSH1 0x20 ADD PUSH1 0x40 MLOAD SWAP1 DUP2 ADD PUSH1 0x40 MSTORE DUP1 SWAP3 SWAP2 SWAP1 DUP2 DUP2 MSTORE PUSH1 0x20 ADD DUP3 DUP1 SLOAD PUSH2 0x74C SWAP1 PUSH2 0xDDF JUMP JUMPDEST DUP1 ISZERO PUSH2 0x799 JUMPI DUP1 PUSH1 0x1F LT PUSH2 0x76E JUMPI PUSH2 0x100 DUP1 DUP4 SLOAD DIV MUL DUP4 MSTORE SWAP2 PUSH1 0x20 ADD SWAP2 PUSH2 0x799 JUMP JUMPDEST DUP3 ADD SWAP2 SWAP1 PUSH1 0x0 MSTORE PUSH1 0x20 PUSH1 0x0 KECCAK256 SWAP1 JUMPDEST DUP2 SLOAD DUP2 MSTORE SWAP1 PUSH1 0x1 ADD SWAP1 PUSH1 0x20 ADD DUP1 DUP4 GT PUSH2 0x77C JUMPI DUP3 SWAP1 SUB PUSH1 0x1F AND DUP3 ADD SWAP2 JUMPDEST POP POP POP POP POP SWAP1 POP SWAP1 JUMP JUMPDEST PUSH1 0x1 PUSH1 0x0 SWAP1 SLOAD SWAP1 PUSH2 0x100 EXP SWAP1 DIV PUSH20 0xFFFFFFFFFFFFFFFFFFFFFFFFFFFFFFFFFFFFFFFF AND PUSH20 0xFFFFFFFFFFFFFFFFFFFFFFFFFFFFFFFFFFFFFFFF AND CALLER PUSH20 0xFFFFFFFFFFFFFFFFFFFFFFFFFFFFFFFFFFFFFFFF AND EQ PUSH2 0x833 JUMPI PUSH1 0x40 MLOAD PUSH32 0x8C379A000000000000000000000000000000000000000000000000000000000 DUP2 MSTORE PUSH1 0x4 ADD PUSH2 0x82A SWAP1 PUSH2 0xEF3 JUMP JUMPDEST PUSH1 0x40 MLOAD DUP1 SWAP2 SUB SWAP1 REVERT JUMPDEST DUP2 DUP2 DUP1 PUSH2 0x83F DUP4 PUSH2 0x554 JUMP JUMPDEST LT ISZERO PUSH2 0x880 JUMPI PUSH1 0x40 MLOAD PUSH32 0x8C379A000000000000000000000000000000000000000000000000000000000 DUP2 MSTORE PUSH1 0x4 ADD PUSH2 0x877 SWAP1 PUSH2 0xF5F JUMP JUMPDEST PUSH1 0x40 MLOAD DUP1 SWAP2 SUB SWAP1 REVERT JUMPDEST PUSH2 0x88C DUP5 PUSH1 0x0 DUP6 PUSH2 0xAF6 JUMP JUMPDEST DUP3 PUSH1 0x2 PUSH1 0x0 DUP7 PUSH20 0xFFFFFFFFFFFFFFFFFFFFFFFFFFFFFFFFFFFFFFFF AND PUSH20 0xFFFFFFFFFFFFFFFFFFFFFFFFFFFFFFFFFFFFFFFF AND DUP2 MSTORE PUSH1 0x20 ADD SWAP1 DUP2 MSTORE PUSH1 0x20 ADD PUSH1 0x0 KECCAK256 PUSH1 0x0 DUP3 DUP3 SLOAD PUSH2 0x8DB SWAP2 SWAP1 PUSH2 0xE3F JUMP JUMPDEST SWAP3 POP POP DUP2 SWAP1 SSTORE POP DUP3 PUSH1 0x0 DUP1 DUP3 DUP3 SLOAD PUSH2 0x8F3 SWAP2 SWAP1 PUSH2 0xE3F JUMP JUMPDEST SWAP3 POP POP DUP2 SWAP1 SSTORE POP POP POP POP POP JUMP JUMPDEST CALLER DUP2 DUP1 PUSH2 0x90C DUP4 PUSH2 0x554 JUMP JUMPDEST LT ISZERO PUSH2 0x94D JUMPI PUSH1 0x40 MLOAD PUSH32 0x8C379A000000000000000000000000000000000000000000000000000000000 DUP2 MSTORE PUSH1 0x4 ADD PUSH2 0x944 SWAP1 PUSH2 0xF5F JUMP JUMPDEST PUSH1 0x40 MLOAD DUP1 SWAP2 SUB SWAP1 REVERT JUMPDEST PUSH2 0x958 CALLER DUP6 DUP6 PUSH2 0xAF6 JUMP JUMPDEST DUP3 PUSH1 0x2 PUSH1 0x0 CALLER PUSH20 0xFFFFFFFFFFFFFFFFFFFFFFFFFFFFFFFFFFFFFFFF AND PUSH20 0xFFFFFFFFFFFFFFFFFFFFFFFFFFFFFFFFFFFFFFFF AND DUP2 MSTORE PUSH1 0x20 ADD SWAP1 DUP2 MSTORE PUSH1 0x20 ADD PUSH1 0x0 KECCAK256 PUSH1 0x0 DUP3 DUP3 SLOAD PUSH2 0x9A7 SWAP2 SWAP1 PUSH2 0xE3F JUMP JUMPDEST SWAP3 POP POP DUP2 SWAP1 SSTORE POP DUP3 PUSH1 0x2 PUSH1 0x0 DUP7 PUSH20 0xFFFFFFFFFFFFFFFFFFFFFFFFFFFFFFFFFFFFFFFF AND PUSH20 0xFFFFFFFFFFFFFFFFFFFFFFFFFFFFFFFFFFFFFFFF AND DUP2 MSTORE PUSH1 0x20 ADD SWAP1 DUP2 MSTORE PUSH1 0x20 ADD PUSH1 0x0 KECCAK256 PUSH1 0x0 DUP3 DUP3 SLOAD PUSH2 0x9FD SWAP2 SWAP1 PUSH2 0xE73 JUMP JUMPDEST SWAP3 POP POP DUP2 SWAP1 SSTORE POP DUP4 PUSH20 0xFFFFFFFFFFFFFFFFFFFFFFFFFFFFFFFFFFFFFFFF AND CALLER PUSH20 0xFFFFFFFFFFFFFFFFFFFFFFFFFFFFFFFFFFFFFFFF AND PUSH32 0xDDF252AD1BE2C89B69C2B068FC378DAA952BA7F163C4A11628F55A4DF523B3EF DUP6 PUSH1 0x40 MLOAD PUSH2 0xA61 SWAP2 SWAP1 PUSH2 0xC95 JUMP JUMPDEST PUSH1 0x40 MLOAD DUP1 SWAP2 SUB SWAP1 LOG3 POP POP POP POP JUMP JUMPDEST PUSH1 0x0 PUSH1 0x3 PUSH1 0x0 DUP5 PUSH20 0xFFFFFFFFFFFFFFFFFFFFFFFFFFFFFFFFFFFFFFFF AND PUSH20 0xFFFFFFFFFFFFFFFFFFFFFFFFFFFFFFFFFFFFFFFF AND DUP2 MSTORE PUSH1 0x20 ADD SWAP1 DUP2 MSTORE PUSH1 0x20 ADD PUSH1 0x0 KECCAK256 PUSH1 0x0 DUP4 PUSH20 0xFFFFFFFFFFFFFFFFFFFFFFFFFFFFFFFFFFFFFFFF AND PUSH20 0xFFFFFFFFFFFFFFFFFFFFFFFFFFFFFFFFFFFFFFFF AND DUP2 MSTORE PUSH1 0x20 ADD SWAP1 DUP2 MSTORE PUSH1 0x20 ADD PUSH1 0x0 KECCAK256 SLOAD SWAP1 POP SWAP3 SWAP2 POP POP JUMP JUMPDEST POP POP POP JUMP JUMPDEST PUSH1 0x0 DUP2 MLOAD SWAP1 POP SWAP2 SWAP1 POP JUMP JUMPDEST PUSH1 0x0 DUP3 DUP3 MSTORE PUSH1 0x20 DUP3 ADD SWAP1 POP SWAP3 SWAP2 POP POP JUMP JUMPDEST PUSH1 0x0 JUMPDEST DUP4 DUP2 LT ISZERO PUSH2 0xB35 JUMPI DUP1 DUP3 ADD MLOAD DUP2 DUP5 ADD MSTORE PUSH1 0x20 DUP2 ADD SWAP1 POP PUSH2 0xB1A JUMP JUMPDEST PUSH1 0x0 DUP5 DUP5 ADD MSTORE POP POP POP POP JUMP JUMPDEST PUSH1 0x0 PUSH1 0x1F NOT PUSH1 0x1F DUP4 ADD AND SWAP1 POP SWAP2 SWAP1 POP JUMP JUMPDEST PUSH1 0x0 PUSH2 0xB5D DUP3 PUSH2 0xAFB JUMP JUMPDEST PUSH2 0xB67 DUP2 DUP6 PUSH2 0xB06 JUMP JUMPDEST SWAP4 POP PUSH2 0xB77 DUP2 DUP6 PUSH1 0x20 DUP7 ADD PUSH2 0xB17 JUMP JUMPDEST PUSH2 0xB80 DUP2 PUSH2 0xB41 JUMP JUMPDEST DUP5 ADD SWAP2 POP POP SWAP3 SWAP2 POP POP JUMP JUMPDEST PUSH1 0x0 PUSH1 0x20 DUP3 ADD SWAP1 POP DUP2 DUP2 SUB PUSH1 0x0 DUP4 ADD MSTORE PUSH2 0xBA5 DUP2 DUP5 PUSH2 0xB52 JUMP JUMPDEST SWAP1 POP SWAP3 SWAP2 POP POP JUMP JUMPDEST PUSH1 0x0 DUP1 REVERT JUMPDEST PUSH1 0x0 PUSH20 0xFFFFFFFFFFFFFFFFFFFFFFFFFFFFFFFFFFFFFFFF DUP3 AND SWAP1 POP SWAP2 SWAP1 POP JUMP JUMPDEST PUSH1 0x0 PUSH2 0xBDD DUP3 PUSH2 0xBB2 JUMP JUMPDEST SWAP1 POP SWAP2 SWAP1 POP JUMP JUMPDEST PUSH2 0xBED DUP2 PUSH2 0xBD2 JUMP JUMPDEST DUP2 EQ PUSH2 0xBF8 JUMPI PUSH1 0x0 DUP1 REVERT JUMPDEST POP JUMP JUMPDEST PUSH1 0x0 DUP2 CALLDATALOAD SWAP1 POP PUSH2 0xC0A DUP2 PUSH2 0xBE4 JUMP JUMPDEST SWAP3 SWAP2 POP POP JUMP JUMPDEST PUSH1 0x0 DUP2 SWAP1 POP SWAP2 SWAP1 POP JUMP JUMPDEST PUSH2 0xC23 DUP2 PUSH2 0xC10 JUMP JUMPDEST DUP2 EQ PUSH2 0xC2E JUMPI PUSH1 0x0 DUP1 REVERT JUMPDEST POP JUMP JUMPDEST PUSH1 0x0 DUP2 CALLDATALOAD SWAP1 POP PUSH2 0xC40 DUP2 PUSH2 0xC1A JUMP JUMPDEST SWAP3 SWAP2 POP POP JUMP JUMPDEST PUSH1 0x0 DUP1 PUSH1 0x40 DUP4 DUP6 SUB SLT ISZERO PUSH2 0xC5D JUMPI PUSH2 0xC5C PUSH2 0xBAD JUMP JUMPDEST JUMPDEST PUSH1 0x0 PUSH2 0xC6B DUP6 DUP3 DUP7 ADD PUSH2 0xBFB JUMP JUMPDEST SWAP3 POP POP PUSH1 0x20 PUSH2 0xC7C DUP6 DUP3 DUP7 ADD PUSH2 0xC31 JUMP JUMPDEST SWAP2 POP POP SWAP3 POP SWAP3 SWAP1 POP JUMP JUMPDEST PUSH2 0xC8F DUP2 PUSH2 0xC10 JUMP JUMPDEST DUP3 MSTORE POP POP JUMP JUMPDEST PUSH1 0x0 PUSH1 0x20 DUP3 ADD SWAP1 POP PUSH2 0xCAA PUSH1 0x0 DUP4 ADD DUP5 PUSH2 0xC86 JUMP JUMPDEST SWAP3 SWAP2 POP POP JUMP JUMPDEST PUSH1 0x0 DUP1 PUSH1 0x0 PUSH1 0x60 DUP5 DUP7 SUB SLT ISZERO PUSH2 0xCC9 JUMPI PUSH2 0xCC8 PUSH2 0xBAD JUMP JUMPDEST JUMPDEST PUSH1 0x0 PUSH2 0xCD7 DUP7 DUP3 DUP8 ADD PUSH2 0xBFB JUMP JUMPDEST SWAP4 POP POP PUSH1 0x20 PUSH2 0xCE8 DUP7 DUP3 DUP8 ADD PUSH2 0xBFB JUMP JUMPDEST SWAP3 POP POP PUSH1 0x40 PUSH2 0xCF9 DUP7 DUP3 DUP8 ADD PUSH2 0xC31 JUMP JUMPDEST SWAP2 POP POP SWAP3 POP SWAP3 POP SWAP3 JUMP JUMPDEST PUSH1 0x0 PUSH1 0x20 DUP3 DUP5 SUB SLT ISZERO PUSH2 0xD19 JUMPI PUSH2 0xD18 PUSH2 0xBAD JUMP JUMPDEST JUMPDEST PUSH1 0x0 PUSH2 0xD27 DUP5 DUP3 DUP6 ADD PUSH2 0xBFB JUMP JUMPDEST SWAP2 POP POP SWAP3 SWAP2 POP POP JUMP JUMPDEST PUSH1 0x0 DUP1 PUSH1 0x40 DUP4 DUP6 SUB SLT ISZERO PUSH2 0xD47 JUMPI PUSH2 0xD46 PUSH2 0xBAD JUMP JUMPDEST JUMPDEST PUSH1 0x0 PUSH2 0xD55 DUP6 DUP3 DUP7 ADD PUSH2 0xC31 JUMP JUMPDEST SWAP3 POP POP PUSH1 0x20 PUSH2 0xD66 DUP6 DUP3 DUP7 ADD PUSH2 0xBFB JUMP JUMPDEST SWAP2 POP POP SWAP3 POP SWAP3 SWAP1 POP JUMP JUMPDEST PUSH1 0x0 DUP1 PUSH1 0x40 DUP4 DUP6 SUB SLT ISZERO PUSH2 0xD87 JUMPI PUSH2 0xD86 PUSH2 0xBAD JUMP JUMPDEST JUMPDEST PUSH1 0x0 PUSH2 0xD95 DUP6 DUP3 DUP7 ADD PUSH2 0xBFB JUMP JUMPDEST SWAP3 POP POP PUSH1 0x20 PUSH2 0xDA6 DUP6 DUP3 DUP7 ADD PUSH2 0xBFB JUMP JUMPDEST SWAP2 POP POP SWAP3 POP SWAP3 SWAP1 POP JUMP JUMPDEST PUSH32 0x4E487B7100000000000000000000000000000000000000000000000000000000 PUSH1 0x0 MSTORE PUSH1 0x22 PUSH1 0x4 MSTORE PUSH1 0x24 PUSH1 0x0 REVERT JUMPDEST PUSH1 0x0 PUSH1 0x2 DUP3 DIV SWAP1 POP PUSH1 0x1 DUP3 AND DUP1 PUSH2 0xDF7 JUMPI PUSH1 0x7F DUP3 AND SWAP2 POP JUMPDEST PUSH1 0x20 DUP3 LT DUP2 SUB PUSH2 0xE0A JUMPI PUSH2 0xE09 PUSH2 0xDB0 JUMP JUMPDEST JUMPDEST POP SWAP2 SWAP1 POP JUMP JUMPDEST PUSH32 0x4E487B7100000000000000000000000000000000000000000000000000000000 PUSH1 0x0 MSTORE PUSH1 0x11 PUSH1 0x4 MSTORE PUSH1 0x24 PUSH1 0x0 REVERT JUMPDEST PUSH1 0x0 PUSH2 0xE4A DUP3 PUSH2 0xC10 JUMP JUMPDEST SWAP2 POP PUSH2 0xE55 DUP4 PUSH2 0xC10 JUMP JUMPDEST SWAP3 POP DUP3 DUP3 SUB SWAP1 POP DUP2 DUP2 GT ISZERO PUSH2 0xE6D JUMPI PUSH2 0xE6C PUSH2 0xE10 JUMP JUMPDEST JUMPDEST SWAP3 SWAP2 POP POP JUMP JUMPDEST PUSH1 0x0 PUSH2 0xE7E DUP3 PUSH2 0xC10 JUMP JUMPDEST SWAP2 POP PUSH2 0xE89 DUP4 PUSH2 0xC10 JUMP JUMPDEST SWAP3 POP DUP3 DUP3 ADD SWAP1 POP DUP1 DUP3 GT ISZERO PUSH2 0xEA1 JUMPI PUSH2 0xEA0 PUSH2 0xE10 JUMP JUMPDEST JUMPDEST SWAP3 SWAP2 POP POP JUMP JUMPDEST PUSH32 0x6E6F7420616E206F776E65722100000000000000000000000000000000000000 PUSH1 0x0 DUP3 ADD MSTORE POP JUMP JUMPDEST PUSH1 0x0 PUSH2 0xEDD PUSH1 0xD DUP4 PUSH2 0xB06 JUMP JUMPDEST SWAP2 POP PUSH2 0xEE8 DUP3 PUSH2 0xEA7 JUMP JUMPDEST PUSH1 0x20 DUP3 ADD SWAP1 POP SWAP2 SWAP1 POP JUMP JUMPDEST PUSH1 0x0 PUSH1 0x20 DUP3 ADD SWAP1 POP DUP2 DUP2 SUB PUSH1 0x0 DUP4 ADD MSTORE PUSH2 0xF0C DUP2 PUSH2 0xED0 JUMP JUMPDEST SWAP1 POP SWAP2 SWAP1 POP JUMP JUMPDEST PUSH32 0x6E6F7420656E6F75676820746F6B656E73210000000000000000000000000000 PUSH1 0x0 DUP3 ADD MSTORE POP JUMP JUMPDEST PUSH1 0x0 PUSH2 0xF49 PUSH1 0x12 DUP4 PUSH2 0xB06 JUMP JUMPDEST SWAP2 POP PUSH2 0xF54 DUP3 PUSH2 0xF13 JUMP JUMPDEST PUSH1 0x20 DUP3 ADD SWAP1 POP SWAP2 SWAP1 POP JUMP JUMPDEST PUSH1 0x0 PUSH1 0x20 DUP3 ADD SWAP1 POP DUP2 DUP2 SUB PUSH1 0x0 DUP4 ADD MSTORE PUSH2 0xF78 DUP2 PUSH2 0xF3C JUMP JUMPDEST SWAP1 POP SWAP2 SWAP1 POP JUMP INVALID LOG2 PUSH5 0x6970667358 0x22 SLT KECCAK256 REVERT PUSH12 0x8CDFF70C1709546199E498E 0xF6 EXP PUSH30 0x6C91927DBD1E90697E129E0BCA56E464736F6C6343000810003300000000 "
				},
				"gasEstimates": {
					"creation": {
						"codeDepositCost": "804200",
						"executionCost": "infinite",
						"totalCost": "infinite"
					},
					"external": {
						"allowance(address,address)": "infinite",
						"approve(address,uint256)": "infinite",
						"balanceOf(address)": "2841",
						"burn(address,uint256)": "infinite",
						"decimals()": "426",
						"mint(uint256,address)": "infinite",
						"name()": "infinite",
						"symbol()": "infinite",
						"totalSupply()": "2482",
						"transfer(address,uint256)": "infinite",
						"transferFrom(address,address,uint256)": "infinite"
					},
					"internal": {
						"_beforeTokenTransfer(address,address,uint256)": "15"
					}
				},
				"methodIdentifiers": {
					"allowance(address,address)": "dd62ed3e",
					"approve(address,uint256)": "095ea7b3",
					"balanceOf(address)": "70a08231",
					"burn(address,uint256)": "9dc29fac",
					"decimals()": "313ce567",
					"mint(uint256,address)": "94bf804d",
					"name()": "06fdde03",
					"symbol()": "95d89b41",
					"totalSupply()": "18160ddd",
					"transfer(address,uint256)": "a9059cbb",
					"transferFrom(address,address,uint256)": "23b872dd"
				}
			},
			"storageLayout": {
				"storage": [
					{
						"astId": 6,
						"contract": "Desktop/work/dao-company/contracts/ERC20.sol:ERC20",
						"label": "totalTokens",
						"offset": 0,
						"slot": "0",
						"type": "t_uint256"
					},
					{
						"astId": 8,
						"contract": "Desktop/work/dao-company/contracts/ERC20.sol:ERC20",
						"label": "owner",
						"offset": 0,
						"slot": "1",
						"type": "t_address"
					},
					{
						"astId": 12,
						"contract": "Desktop/work/dao-company/contracts/ERC20.sol:ERC20",
						"label": "balances",
						"offset": 0,
						"slot": "2",
						"type": "t_mapping(t_address,t_uint256)"
					},
					{
						"astId": 18,
						"contract": "Desktop/work/dao-company/contracts/ERC20.sol:ERC20",
						"label": "allowances",
						"offset": 0,
						"slot": "3",
						"type": "t_mapping(t_address,t_mapping(t_address,t_uint256))"
					},
					{
						"astId": 20,
						"contract": "Desktop/work/dao-company/contracts/ERC20.sol:ERC20",
						"label": "_name",
						"offset": 0,
						"slot": "4",
						"type": "t_string_storage"
					},
					{
						"astId": 22,
						"contract": "Desktop/work/dao-company/contracts/ERC20.sol:ERC20",
						"label": "_symbol",
						"offset": 0,
						"slot": "5",
						"type": "t_string_storage"
					}
				],
				"types": {
					"t_address": {
						"encoding": "inplace",
						"label": "address",
						"numberOfBytes": "20"
					},
					"t_mapping(t_address,t_mapping(t_address,t_uint256))": {
						"encoding": "mapping",
						"key": "t_address",
						"label": "mapping(address => mapping(address => uint256))",
						"numberOfBytes": "32",
						"value": "t_mapping(t_address,t_uint256)"
					},
					"t_mapping(t_address,t_uint256)": {
						"encoding": "mapping",
						"key": "t_address",
						"label": "mapping(address => uint256)",
						"numberOfBytes": "32",
						"value": "t_uint256"
					},
					"t_string_storage": {
						"encoding": "bytes",
						"label": "string",
						"numberOfBytes": "32"
					},
					"t_uint256": {
						"encoding": "inplace",
						"label": "uint256",
						"numberOfBytes": "32"
					}
				}
			},
			"userdoc": {
				"kind": "user",
				"methods": {},
				"version": 1
			}
		}
	}
}