{
	"Desktop/work/dao-company1/contracts/sq.sol": {
		"MyToken": {
			"abi": [
				{
					"inputs": [],
					"stateMutability": "nonpayable",
					"type": "constructor"
				},
				{
					"anonymous": false,
					"inputs": [
						{
							"indexed": false,
							"internalType": "address",
							"name": "previousAdmin",
							"type": "address"
						},
						{
							"indexed": false,
							"internalType": "address",
							"name": "newAdmin",
							"type": "address"
						}
					],
					"name": "AdminChanged",
					"type": "event"
				},
				{
					"anonymous": false,
					"inputs": [
						{
							"indexed": true,
							"internalType": "address",
							"name": "owner",
							"type": "address"
						},
						{
							"indexed": true,
							"internalType": "address",
							"name": "spender",
							"type": "address"
						},
						{
							"indexed": false,
							"internalType": "uint256",
							"name": "value",
							"type": "uint256"
						}
					],
					"name": "Approval",
					"type": "event"
				},
				{
					"anonymous": false,
					"inputs": [
						{
							"indexed": true,
							"internalType": "address",
							"name": "beacon",
							"type": "address"
						}
					],
					"name": "BeaconUpgraded",
					"type": "event"
				},
				{
					"anonymous": false,
					"inputs": [
						{
							"indexed": false,
							"internalType": "uint8",
							"name": "version",
							"type": "uint8"
						}
					],
					"name": "Initialized",
					"type": "event"
				},
				{
					"anonymous": false,
					"inputs": [
						{
							"indexed": true,
							"internalType": "address",
							"name": "previousOwner",
							"type": "address"
						},
						{
							"indexed": true,
							"internalType": "address",
							"name": "newOwner",
							"type": "address"
						}
					],
					"name": "OwnershipTransferred",
					"type": "event"
				},
				{
					"anonymous": false,
					"inputs": [
						{
							"indexed": true,
							"internalType": "address",
							"name": "from",
							"type": "address"
						},
						{
							"indexed": true,
							"internalType": "address",
							"name": "to",
							"type": "address"
						},
						{
							"indexed": false,
							"internalType": "uint256",
							"name": "value",
							"type": "uint256"
						}
					],
					"name": "Transfer",
					"type": "event"
				},
				{
					"anonymous": false,
					"inputs": [
						{
							"indexed": true,
							"internalType": "address",
							"name": "implementation",
							"type": "address"
						}
					],
					"name": "Upgraded",
					"type": "event"
				},
				{
					"inputs": [
						{
							"internalType": "address",
							"name": "to",
							"type": "address"
						},
						{
							"internalType": "uint256",
							"name": "amount",
							"type": "uint256"
						}
					],
					"name": "Tarder",
					"outputs": [],
					"stateMutability": "nonpayable",
					"type": "function"
				},
				{
					"inputs": [
						{
							"internalType": "address",
							"name": "owner",
							"type": "address"
						},
						{
							"internalType": "address",
							"name": "spender",
							"type": "address"
						}
					],
					"name": "allowance",
					"outputs": [
						{
							"internalType": "uint256",
							"name": "",
							"type": "uint256"
						}
					],
					"stateMutability": "view",
					"type": "function"
				},
				{
					"inputs": [
						{
							"internalType": "address",
							"name": "spender",
							"type": "address"
						},
						{
							"internalType": "uint256",
							"name": "amount",
							"type": "uint256"
						}
					],
					"name": "approve",
					"outputs": [
						{
							"internalType": "bool",
							"name": "",
							"type": "bool"
						}
					],
					"stateMutability": "nonpayable",
					"type": "function"
				},
				{
					"inputs": [
						{
							"internalType": "address",
							"name": "account",
							"type": "address"
						}
					],
					"name": "balanceOf",
					"outputs": [
						{
							"internalType": "uint256",
							"name": "",
							"type": "uint256"
						}
					],
					"stateMutability": "view",
					"type": "function"
				},
				{
					"inputs": [
						{
							"internalType": "uint256",
							"name": "amount",
							"type": "uint256"
						}
					],
					"name": "burn",
					"outputs": [],
					"stateMutability": "nonpayable",
					"type": "function"
				},
				{
					"inputs": [
						{
							"internalType": "address",
							"name": "account",
							"type": "address"
						},
						{
							"internalType": "uint256",
							"name": "amount",
							"type": "uint256"
						}
					],
					"name": "burnFrom",
					"outputs": [],
					"stateMutability": "nonpayable",
					"type": "function"
				},
				{
					"inputs": [],
					"name": "decimals",
					"outputs": [
						{
							"internalType": "uint8",
							"name": "",
							"type": "uint8"
						}
					],
					"stateMutability": "view",
					"type": "function"
				},
				{
					"inputs": [
						{
							"internalType": "address",
							"name": "spender",
							"type": "address"
						},
						{
							"internalType": "uint256",
							"name": "subtractedValue",
							"type": "uint256"
						}
					],
					"name": "decreaseAllowance",
					"outputs": [
						{
							"internalType": "bool",
							"name": "",
							"type": "bool"
						}
					],
					"stateMutability": "nonpayable",
					"type": "function"
				},
				{
					"inputs": [
						{
							"internalType": "address",
							"name": "spender",
							"type": "address"
						},
						{
							"internalType": "uint256",
							"name": "addedValue",
							"type": "uint256"
						}
					],
					"name": "increaseAllowance",
					"outputs": [
						{
							"internalType": "bool",
							"name": "",
							"type": "bool"
						}
					],
					"stateMutability": "nonpayable",
					"type": "function"
				},
				{
					"inputs": [],
					"name": "initialize",
					"outputs": [],
					"stateMutability": "nonpayable",
					"type": "function"
				},
				{
					"inputs": [
						{
							"internalType": "address",
							"name": "to",
							"type": "address"
						},
						{
							"internalType": "uint256",
							"name": "amount",
							"type": "uint256"
						}
					],
					"name": "mint",
					"outputs": [],
					"stateMutability": "nonpayable",
					"type": "function"
				},
				{
					"inputs": [],
					"name": "name",
					"outputs": [
						{
							"internalType": "string",
							"name": "",
							"type": "string"
						}
					],
					"stateMutability": "view",
					"type": "function"
				},
				{
					"inputs": [],
					"name": "owner",
					"outputs": [
						{
							"internalType": "address",
							"name": "",
							"type": "address"
						}
					],
					"stateMutability": "view",
					"type": "function"
				},
				{
					"inputs": [],
					"name": "proxiableUUID",
					"outputs": [
						{
							"internalType": "bytes32",
							"name": "",
							"type": "bytes32"
						}
					],
					"stateMutability": "view",
					"type": "function"
				},
				{
					"inputs": [],
					"name": "renounceOwnership",
					"outputs": [],
					"stateMutability": "nonpayable",
					"type": "function"
				},
				{
					"inputs": [],
					"name": "symbol",
					"outputs": [
						{
							"internalType": "string",
							"name": "",
							"type": "string"
						}
					],
					"stateMutability": "view",
					"type": "function"
				},
				{
					"inputs": [],
					"name": "totalSupply",
					"outputs": [
						{
							"internalType": "uint256",
							"name": "",
							"type": "uint256"
						}
					],
					"stateMutability": "view",
					"type": "function"
				},
				{
					"inputs": [
						{
							"internalType": "address",
							"name": "to",
							"type": "address"
						},
						{
							"internalType": "uint256",
							"name": "amount",
							"type": "uint256"
						}
					],
					"name": "transfer",
					"outputs": [
						{
							"internalType": "bool",
							"name": "",
							"type": "bool"
						}
					],
					"stateMutability": "nonpayable",
					"type": "function"
				},
				{
					"inputs": [
						{
							"internalType": "address",
							"name": "from",
							"type": "address"
						},
						{
							"internalType": "address",
							"name": "to",
							"type": "address"
						},
						{
							"internalType": "uint256",
							"name": "amount",
							"type": "uint256"
						}
					],
					"name": "transferFrom",
					"outputs": [
						{
							"internalType": "bool",
							"name": "",
							"type": "bool"
						}
					],
					"stateMutability": "nonpayable",
					"type": "function"
				},
				{
					"inputs": [
						{
							"internalType": "address",
							"name": "newOwner",
							"type": "address"
						}
					],
					"name": "transferOwnership",
					"outputs": [],
					"stateMutability": "nonpayable",
					"type": "function"
				},
				{
					"inputs": [
						{
							"internalType": "address",
							"name": "newImplementation",
							"type": "address"
						}
					],
					"name": "upgradeTo",
					"outputs": [],
					"stateMutability": "nonpayable",
					"type": "function"
				},
				{
					"inputs": [
						{
							"internalType": "address",
							"name": "newImplementation",
							"type": "address"
						},
						{
							"internalType": "bytes",
							"name": "data",
							"type": "bytes"
						}
					],
					"name": "upgradeToAndCall",
					"outputs": [],
					"stateMutability": "payable",
					"type": "function"
				}
			],
			"devdoc": {
				"kind": "dev",
				"methods": {
					"allowance(address,address)": {
						"details": "See {IERC20-allowance}."
					},
					"approve(address,uint256)": {
						"details": "See {IERC20-approve}. NOTE: If `amount` is the maximum `uint256`, the allowance is not updated on `transferFrom`. This is semantically equivalent to an infinite approval. Requirements: - `spender` cannot be the zero address."
					},
					"balanceOf(address)": {
						"details": "See {IERC20-balanceOf}."
					},
					"burn(uint256)": {
						"details": "Destroys `amount` tokens from the caller. See {ERC20-_burn}."
					},
					"burnFrom(address,uint256)": {
						"details": "Destroys `amount` tokens from `account`, deducting from the caller's allowance. See {ERC20-_burn} and {ERC20-allowance}. Requirements: - the caller must have allowance for ``accounts``'s tokens of at least `amount`."
					},
					"constructor": {
						"custom:oz-upgrades-unsafe-allow": "constructor"
					},
					"decimals()": {
						"details": "Returns the number of decimals used to get its user representation. For example, if `decimals` equals `2`, a balance of `505` tokens should be displayed to a user as `5.05` (`505 / 10 ** 2`). Tokens usually opt for a value of 18, imitating the relationship between Ether and Wei. This is the value {ERC20} uses, unless this function is overridden; NOTE: This information is only used for _display_ purposes: it in no way affects any of the arithmetic of the contract, including {IERC20-balanceOf} and {IERC20-transfer}."
					},
					"decreaseAllowance(address,uint256)": {
						"details": "Atomically decreases the allowance granted to `spender` by the caller. This is an alternative to {approve} that can be used as a mitigation for problems described in {IERC20-approve}. Emits an {Approval} event indicating the updated allowance. Requirements: - `spender` cannot be the zero address. - `spender` must have allowance for the caller of at least `subtractedValue`."
					},
					"increaseAllowance(address,uint256)": {
						"details": "Atomically increases the allowance granted to `spender` by the caller. This is an alternative to {approve} that can be used as a mitigation for problems described in {IERC20-approve}. Emits an {Approval} event indicating the updated allowance. Requirements: - `spender` cannot be the zero address."
					},
					"name()": {
						"details": "Returns the name of the token."
					},
					"owner()": {
						"details": "Returns the address of the current owner."
					},
					"proxiableUUID()": {
						"details": "Implementation of the ERC1822 {proxiableUUID} function. This returns the storage slot used by the implementation. It is used to validate that the this implementation remains valid after an upgrade. IMPORTANT: A proxy pointing at a proxiable contract should not be considered proxiable itself, because this risks bricking a proxy that upgrades to it, by delegating to itself until out of gas. Thus it is critical that this function revert if invoked through a proxy. This is guaranteed by the `notDelegated` modifier."
					},
					"renounceOwnership()": {
						"details": "Leaves the contract without owner. It will not be possible to call `onlyOwner` functions anymore. Can only be called by the current owner. NOTE: Renouncing ownership will leave the contract without an owner, thereby removing any functionality that is only available to the owner."
					},
					"symbol()": {
						"details": "Returns the symbol of the token, usually a shorter version of the name."
					},
					"totalSupply()": {
						"details": "See {IERC20-totalSupply}."
					},
					"transfer(address,uint256)": {
						"details": "See {IERC20-transfer}. Requirements: - `to` cannot be the zero address. - the caller must have a balance of at least `amount`."
					},
					"transferFrom(address,address,uint256)": {
						"details": "See {IERC20-transferFrom}. Emits an {Approval} event indicating the updated allowance. This is not required by the EIP. See the note at the beginning of {ERC20}. NOTE: Does not update the allowance if the current allowance is the maximum `uint256`. Requirements: - `from` and `to` cannot be the zero address. - `from` must have a balance of at least `amount`. - the caller must have allowance for ``from``'s tokens of at least `amount`."
					},
					"transferOwnership(address)": {
						"details": "Transfers ownership of the contract to a new account (`newOwner`). Can only be called by the current owner."
					},
					"upgradeTo(address)": {
						"details": "Upgrade the implementation of the proxy to `newImplementation`. Calls {_authorizeUpgrade}. Emits an {Upgraded} event."
					},
					"upgradeToAndCall(address,bytes)": {
						"details": "Upgrade the implementation of the proxy to `newImplementation`, and subsequently execute the function call encoded in `data`. Calls {_authorizeUpgrade}. Emits an {Upgraded} event."
					}
				},
				"version": 1
			},
			"evm": {
				"assembly": "    /* \"Desktop/work/dao-company1/contracts/sq.sol\":465:1198  contract MyToken is Initializable, ERC20Upgradeable, ERC20BurnableUpgradeable, OwnableUpgradeable, UUPSUpgradeable {... */\n  mstore(0x40, 0xa0)\n    /* \"@openzeppelin/contracts-upgradeable/proxy/utils/UUPSUpgradeable.sol\":1332:1336  this */\n  address\n    /* \"@openzeppelin/contracts-upgradeable/proxy/utils/UUPSUpgradeable.sol\":1289:1337  address private immutable __self = address(this) */\n  0xffffffffffffffffffffffffffffffffffffffff\n  and\n  0x80\n  swap1\n  0xffffffffffffffffffffffffffffffffffffffff\n  and\n  0x60\n  shl\n  dup2\n  mstore\n  pop\n    /* \"Desktop/work/dao-company1/contracts/sq.sol\":639:692  constructor() {... */\n  callvalue\n  dup1\n  iszero\n  tag_1\n  jumpi\n  0x00\n  dup1\n  revert\ntag_1:\n  pop\n    /* \"Desktop/work/dao-company1/contracts/sq.sol\":663:685  _disableInitializers() */\n  tag_4\n    /* \"Desktop/work/dao-company1/contracts/sq.sol\":663:683  _disableInitializers */\n  shl(0x20, tag_5)\n    /* \"Desktop/work/dao-company1/contracts/sq.sol\":663:685  _disableInitializers() */\n  0x20\n  shr\n  jump\t// in\ntag_4:\n    /* \"Desktop/work/dao-company1/contracts/sq.sol\":465:1198  contract MyToken is Initializable, ERC20Upgradeable, ERC20BurnableUpgradeable, OwnableUpgradeable, UUPSUpgradeable {... */\n  jump(tag_6)\n    /* \"@openzeppelin/contracts-upgradeable/proxy/utils/Initializable.sol\":5388:5667  function _disableInitializers() internal virtual {... */\ntag_5:\n    /* \"@openzeppelin/contracts-upgradeable/proxy/utils/Initializable.sol\":5456:5469  _initializing */\n  0x00\n  0x01\n  swap1\n  sload\n  swap1\n  0x0100\n  exp\n  swap1\n  div\n  0xff\n  and\n    /* \"@openzeppelin/contracts-upgradeable/proxy/utils/Initializable.sol\":5455:5469  !_initializing */\n  iszero\n    /* \"@openzeppelin/contracts-upgradeable/proxy/utils/Initializable.sol\":5447:5513  require(!_initializing, \"Initializable: contract is initializing\") */\n  tag_8\n  jumpi\n  mload(0x40)\n  0x08c379a000000000000000000000000000000000000000000000000000000000\n  dup2\n  mstore\n  0x04\n  add\n  tag_9\n  swap1\n  tag_10\n  jump\t// in\ntag_9:\n  mload(0x40)\n  dup1\n  swap2\n  sub\n  swap1\n  revert\ntag_8:\n    /* \"@openzeppelin/contracts-upgradeable/proxy/utils/Initializable.sol\":5542:5557  type(uint8).max */\n  0xff\n    /* \"@openzeppelin/contracts-upgradeable/proxy/utils/Initializable.sol\":5527:5557  _initialized < type(uint8).max */\n  dup1\n  and\n    /* \"@openzeppelin/contracts-upgradeable/proxy/utils/Initializable.sol\":5527:5539  _initialized */\n  0x00\n  dup1\n  sload\n  swap1\n  0x0100\n  exp\n  swap1\n  div\n  0xff\n  and\n    /* \"@openzeppelin/contracts-upgradeable/proxy/utils/Initializable.sol\":5527:5557  _initialized < type(uint8).max */\n  0xff\n  and\n  lt\n    /* \"@openzeppelin/contracts-upgradeable/proxy/utils/Initializable.sol\":5523:5661  if (_initialized < type(uint8).max) {... */\n  iszero\n  tag_11\n  jumpi\n    /* \"@openzeppelin/contracts-upgradeable/proxy/utils/Initializable.sol\":5588:5603  type(uint8).max */\n  0xff\n    /* \"@openzeppelin/contracts-upgradeable/proxy/utils/Initializable.sol\":5573:5585  _initialized */\n  0x00\n  dup1\n    /* \"@openzeppelin/contracts-upgradeable/proxy/utils/Initializable.sol\":5573:5603  _initialized = type(uint8).max */\n  0x0100\n  exp\n  dup2\n  sload\n  dup2\n  0xff\n  mul\n  not\n  and\n  swap1\n  dup4\n  0xff\n  and\n  mul\n  or\n  swap1\n  sstore\n  pop\n    /* \"@openzeppelin/contracts-upgradeable/proxy/utils/Initializable.sol\":5622:5650  Initialized(type(uint8).max) */\n  0x7f26b83ff96e1f2b6a682f133852f6798a09c465da95921460cefb3847402498\n    /* \"@openzeppelin/contracts-upgradeable/proxy/utils/Initializable.sol\":5634:5649  type(uint8).max */\n  0xff\n    /* \"@openzeppelin/contracts-upgradeable/proxy/utils/Initializable.sol\":5622:5650  Initialized(type(uint8).max) */\n  mload(0x40)\n  tag_12\n  swap2\n  swap1\n  tag_13\n  jump\t// in\ntag_12:\n  mload(0x40)\n  dup1\n  swap2\n  sub\n  swap1\n  log1\n    /* \"@openzeppelin/contracts-upgradeable/proxy/utils/Initializable.sol\":5523:5661  if (_initialized < type(uint8).max) {... */\ntag_11:\n    /* \"@openzeppelin/contracts-upgradeable/proxy/utils/Initializable.sol\":5388:5667  function _disableInitializers() internal virtual {... */\n  jump\t// out\n    /* \"#utility.yul\":7:373   */\ntag_15:\n    /* \"#utility.yul\":149:152   */\n  0x00\n    /* \"#utility.yul\":170:237   */\n  tag_17\n    /* \"#utility.yul\":234:236   */\n  0x27\n    /* \"#utility.yul\":229:232   */\n  dup4\n    /* \"#utility.yul\":170:237   */\n  tag_18\n  jump\t// in\ntag_17:\n    /* \"#utility.yul\":163:237   */\n  swap2\n  pop\n    /* \"#utility.yul\":246:339   */\n  tag_19\n    /* \"#utility.yul\":335:338   */\n  dup3\n    /* \"#utility.yul\":246:339   */\n  tag_20\n  jump\t// in\ntag_19:\n    /* \"#utility.yul\":364:366   */\n  0x40\n    /* \"#utility.yul\":359:362   */\n  dup3\n    /* \"#utility.yul\":355:367   */\n  add\n    /* \"#utility.yul\":348:367   */\n  swap1\n  pop\n    /* \"#utility.yul\":153:373   */\n  swap2\n  swap1\n  pop\n  jump\t// out\n    /* \"#utility.yul\":379:491   */\ntag_21:\n    /* \"#utility.yul\":462:484   */\n  tag_23\n    /* \"#utility.yul\":478:483   */\n  dup2\n    /* \"#utility.yul\":462:484   */\n  tag_24\n  jump\t// in\ntag_23:\n    /* \"#utility.yul\":457:460   */\n  dup3\n    /* \"#utility.yul\":450:485   */\n  mstore\n    /* \"#utility.yul\":440:491   */\n  pop\n  pop\n  jump\t// out\n    /* \"#utility.yul\":497:916   */\ntag_10:\n    /* \"#utility.yul\":663:667   */\n  0x00\n    /* \"#utility.yul\":701:703   */\n  0x20\n    /* \"#utility.yul\":690:699   */\n  dup3\n    /* \"#utility.yul\":686:704   */\n  add\n    /* \"#utility.yul\":678:704   */\n  swap1\n  pop\n    /* \"#utility.yul\":750:759   */\n  dup2\n    /* \"#utility.yul\":744:748   */\n  dup2\n    /* \"#utility.yul\":740:760   */\n  sub\n    /* \"#utility.yul\":736:737   */\n  0x00\n    /* \"#utility.yul\":725:734   */\n  dup4\n    /* \"#utility.yul\":721:738   */\n  add\n    /* \"#utility.yul\":714:761   */\n  mstore\n    /* \"#utility.yul\":778:909   */\n  tag_26\n    /* \"#utility.yul\":904:908   */\n  dup2\n    /* \"#utility.yul\":778:909   */\n  tag_15\n  jump\t// in\ntag_26:\n    /* \"#utility.yul\":770:909   */\n  swap1\n  pop\n    /* \"#utility.yul\":668:916   */\n  swap2\n  swap1\n  pop\n  jump\t// out\n    /* \"#utility.yul\":922:1136   */\ntag_13:\n    /* \"#utility.yul\":1011:1015   */\n  0x00\n    /* \"#utility.yul\":1049:1051   */\n  0x20\n    /* \"#utility.yul\":1038:1047   */\n  dup3\n    /* \"#utility.yul\":1034:1052   */\n  add\n    /* \"#utility.yul\":1026:1052   */\n  swap1\n  pop\n    /* \"#utility.yul\":1062:1129   */\n  tag_28\n    /* \"#utility.yul\":1126:1127   */\n  0x00\n    /* \"#utility.yul\":1115:1124   */\n  dup4\n    /* \"#utility.yul\":1111:1128   */\n  add\n    /* \"#utility.yul\":1102:1108   */\n  dup5\n    /* \"#utility.yul\":1062:1129   */\n  tag_21\n  jump\t// in\ntag_28:\n    /* \"#utility.yul\":1016:1136   */\n  swap3\n  swap2\n  pop\n  pop\n  jump\t// out\n    /* \"#utility.yul\":1142:1311   */\ntag_18:\n    /* \"#utility.yul\":1226:1237   */\n  0x00\n    /* \"#utility.yul\":1260:1266   */\n  dup3\n    /* \"#utility.yul\":1255:1258   */\n  dup3\n    /* \"#utility.yul\":1248:1267   */\n  mstore\n    /* \"#utility.yul\":1300:1304   */\n  0x20\n    /* \"#utility.yul\":1295:1298   */\n  dup3\n    /* \"#utility.yul\":1291:1305   */\n  add\n    /* \"#utility.yul\":1276:1305   */\n  swap1\n  pop\n    /* \"#utility.yul\":1238:1311   */\n  swap3\n  swap2\n  pop\n  pop\n  jump\t// out\n    /* \"#utility.yul\":1317:1403   */\ntag_24:\n    /* \"#utility.yul\":1352:1359   */\n  0x00\n    /* \"#utility.yul\":1392:1396   */\n  0xff\n    /* \"#utility.yul\":1385:1390   */\n  dup3\n    /* \"#utility.yul\":1381:1397   */\n  and\n    /* \"#utility.yul\":1370:1397   */\n  swap1\n  pop\n    /* \"#utility.yul\":1360:1403   */\n  swap2\n  swap1\n  pop\n  jump\t// out\n    /* \"#utility.yul\":1409:1635   */\ntag_20:\n    /* \"#utility.yul\":1549:1583   */\n  0x496e697469616c697a61626c653a20636f6e747261637420697320696e697469\n    /* \"#utility.yul\":1545:1546   */\n  0x00\n    /* \"#utility.yul\":1537:1543   */\n  dup3\n    /* \"#utility.yul\":1533:1547   */\n  add\n    /* \"#utility.yul\":1526:1584   */\n  mstore\n    /* \"#utility.yul\":1618:1627   */\n  0x616c697a696e6700000000000000000000000000000000000000000000000000\n    /* \"#utility.yul\":1613:1615   */\n  0x20\n    /* \"#utility.yul\":1605:1611   */\n  dup3\n    /* \"#utility.yul\":1601:1616   */\n  add\n    /* \"#utility.yul\":1594:1628   */\n  mstore\n    /* \"#utility.yul\":1515:1635   */\n  pop\n  jump\t// out\n    /* \"Desktop/work/dao-company1/contracts/sq.sol\":465:1198  contract MyToken is Initializable, ERC20Upgradeable, ERC20BurnableUpgradeable, OwnableUpgradeable, UUPSUpgradeable {... */\ntag_6:\n  shr(0x60, mload(0x80))\n  codecopy(0x00, dataOffset(sub_0), dataSize(sub_0))\n  0x00\n  assignImmutable(\"0xc8ae7d376bd02e39f4a20e5d95afdf144c832aed4bf964d0714dc40db43ce4fc\")\n  return(0x00, dataSize(sub_0))\nstop\n\nsub_0: assembly {\n        /* \"Desktop/work/dao-company1/contracts/sq.sol\":465:1198  contract MyToken is Initializable, ERC20Upgradeable, ERC20BurnableUpgradeable, OwnableUpgradeable, UUPSUpgradeable {... */\n      mstore(0x40, 0x80)\n      jumpi(tag_1, lt(calldatasize, 0x04))\n      shr(0xe0, calldataload(0x00))\n      dup1\n      0x70a08231\n      gt\n      tag_24\n      jumpi\n      dup1\n      0x95d89b41\n      gt\n      tag_25\n      jumpi\n      dup1\n      0x95d89b41\n      eq\n      tag_18\n      jumpi\n      dup1\n      0xa457c2d7\n      eq\n      tag_19\n      jumpi\n      dup1\n      0xa9059cbb\n      eq\n      tag_20\n      jumpi\n      dup1\n      0xd48bcc81\n      eq\n      tag_21\n      jumpi\n      dup1\n      0xdd62ed3e\n      eq\n      tag_22\n      jumpi\n      dup1\n      0xf2fde38b\n      eq\n      tag_23\n      jumpi\n      jump(tag_1)\n    tag_25:\n      dup1\n      0x70a08231\n      eq\n      tag_13\n      jumpi\n      dup1\n      0x715018a6\n      eq\n      tag_14\n      jumpi\n      dup1\n      0x79cc6790\n      eq\n      tag_15\n      jumpi\n      dup1\n      0x8129fc1c\n      eq\n      tag_16\n      jumpi\n      dup1\n      0x8da5cb5b\n      eq\n      tag_17\n      jumpi\n      jump(tag_1)\n    tag_24:\n      dup1\n      0x3659cfe6\n      gt\n      tag_26\n      jumpi\n      dup1\n      0x3659cfe6\n      eq\n      tag_7\n      jumpi\n      dup1\n      0x39509351\n      eq\n      tag_8\n      jumpi\n      dup1\n      0x40c10f19\n      eq\n      tag_9\n      jumpi\n      dup1\n      0x42966c68\n      eq\n      tag_10\n      jumpi\n      dup1\n      0x4f1ef286\n      eq\n      tag_11\n      jumpi\n      dup1\n      0x52d1902d\n      eq\n      tag_12\n      jumpi\n      jump(tag_1)\n    tag_26:\n      dup1\n      0x06fdde03\n      eq\n      tag_2\n      jumpi\n      dup1\n      0x095ea7b3\n      eq\n      tag_3\n      jumpi\n      dup1\n      0x18160ddd\n      eq\n      tag_4\n      jumpi\n      dup1\n      0x23b872dd\n      eq\n      tag_5\n      jumpi\n      dup1\n      0x313ce567\n      eq\n      tag_6\n      jumpi\n    tag_1:\n      0x00\n      dup1\n      revert\n        /* \"@openzeppelin/contracts-upgradeable/token/ERC20/ERC20Upgradeable.sol\":2493:2591  function name() public view virtual override returns (string memory) {... */\n    tag_2:\n      callvalue\n      dup1\n      iszero\n      tag_27\n      jumpi\n      0x00\n      dup1\n      revert\n    tag_27:\n      pop\n      tag_28\n      tag_29\n      jump\t// in\n    tag_28:\n      mload(0x40)\n      tag_30\n      swap2\n      swap1\n      tag_31\n      jump\t// in\n    tag_30:\n      mload(0x40)\n      dup1\n      swap2\n      sub\n      swap1\n      return\n        /* \"@openzeppelin/contracts-upgradeable/token/ERC20/ERC20Upgradeable.sol\":4770:4967  function approve(address spender, uint256 amount) public virtual override returns (bool) {... */\n    tag_3:\n      callvalue\n      dup1\n      iszero\n      tag_32\n      jumpi\n      0x00\n      dup1\n      revert\n    tag_32:\n      pop\n      tag_33\n      0x04\n      dup1\n      calldatasize\n      sub\n      dup2\n      add\n      swap1\n      tag_34\n      swap2\n      swap1\n      tag_35\n      jump\t// in\n    tag_34:\n      tag_36\n      jump\t// in\n    tag_33:\n      mload(0x40)\n      tag_37\n      swap2\n      swap1\n      tag_38\n      jump\t// in\n    tag_37:\n      mload(0x40)\n      dup1\n      swap2\n      sub\n      swap1\n      return\n        /* \"@openzeppelin/contracts-upgradeable/token/ERC20/ERC20Upgradeable.sol\":3581:3687  function totalSupply() public view virtual override returns (uint256) {... */\n    tag_4:\n      callvalue\n      dup1\n      iszero\n      tag_39\n      jumpi\n      0x00\n      dup1\n      revert\n    tag_39:\n      pop\n      tag_40\n      tag_41\n      jump\t// in\n    tag_40:\n      mload(0x40)\n      tag_42\n      swap2\n      swap1\n      tag_43\n      jump\t// in\n    tag_42:\n      mload(0x40)\n      dup1\n      swap2\n      sub\n      swap1\n      return\n        /* \"@openzeppelin/contracts-upgradeable/token/ERC20/ERC20Upgradeable.sol\":5529:5815  function transferFrom(... */\n    tag_5:\n      callvalue\n      dup1\n      iszero\n      tag_44\n      jumpi\n      0x00\n      dup1\n      revert\n    tag_44:\n      pop\n      tag_45\n      0x04\n      dup1\n      calldatasize\n      sub\n      dup2\n      add\n      swap1\n      tag_46\n      swap2\n      swap1\n      tag_47\n      jump\t// in\n    tag_46:\n      tag_48\n      jump\t// in\n    tag_45:\n      mload(0x40)\n      tag_49\n      swap2\n      swap1\n      tag_38\n      jump\t// in\n    tag_49:\n      mload(0x40)\n      dup1\n      swap2\n      sub\n      swap1\n      return\n        /* \"@openzeppelin/contracts-upgradeable/token/ERC20/ERC20Upgradeable.sol\":3430:3521  function decimals() public view virtual override returns (uint8) {... */\n    tag_6:\n      callvalue\n      dup1\n      iszero\n      tag_50\n      jumpi\n      0x00\n      dup1\n      revert\n    tag_50:\n      pop\n      tag_51\n      tag_52\n      jump\t// in\n    tag_51:\n      mload(0x40)\n      tag_53\n      swap2\n      swap1\n      tag_54\n      jump\t// in\n    tag_53:\n      mload(0x40)\n      dup1\n      swap2\n      sub\n      swap1\n      return\n        /* \"@openzeppelin/contracts-upgradeable/proxy/utils/UUPSUpgradeable.sol\":3315:3512  function upgradeTo(address newImplementation) external virtual onlyProxy {... */\n    tag_7:\n      callvalue\n      dup1\n      iszero\n      tag_55\n      jumpi\n      0x00\n      dup1\n      revert\n    tag_55:\n      pop\n      tag_56\n      0x04\n      dup1\n      calldatasize\n      sub\n      dup2\n      add\n      swap1\n      tag_57\n      swap2\n      swap1\n      tag_58\n      jump\t// in\n    tag_57:\n      tag_59\n      jump\t// in\n    tag_56:\n      stop\n        /* \"@openzeppelin/contracts-upgradeable/token/ERC20/ERC20Upgradeable.sol\":6210:6444  function increaseAllowance(address spender, uint256 addedValue) public virtual returns (bool) {... */\n    tag_8:\n      callvalue\n      dup1\n      iszero\n      tag_60\n      jumpi\n      0x00\n      dup1\n      revert\n    tag_60:\n      pop\n      tag_61\n      0x04\n      dup1\n      calldatasize\n      sub\n      dup2\n      add\n      swap1\n      tag_62\n      swap2\n      swap1\n      tag_35\n      jump\t// in\n    tag_62:\n      tag_63\n      jump\t// in\n    tag_61:\n      mload(0x40)\n      tag_64\n      swap2\n      swap1\n      tag_38\n      jump\t// in\n    tag_64:\n      mload(0x40)\n      dup1\n      swap2\n      sub\n      swap1\n      return\n        /* \"Desktop/work/dao-company1/contracts/sq.sol\":884:977  function mint(address to, uint256 amount) public onlyOwner {... */\n    tag_9:\n      callvalue\n      dup1\n      iszero\n      tag_65\n      jumpi\n      0x00\n      dup1\n      revert\n    tag_65:\n      pop\n      tag_66\n      0x04\n      dup1\n      calldatasize\n      sub\n      dup2\n      add\n      swap1\n      tag_67\n      swap2\n      swap1\n      tag_35\n      jump\t// in\n    tag_67:\n      tag_68\n      jump\t// in\n    tag_66:\n      stop\n        /* \"@openzeppelin/contracts-upgradeable/token/ERC20/extensions/ERC20BurnableUpgradeable.sol\":848:937  function burn(uint256 amount) public virtual {... */\n    tag_10:\n      callvalue\n      dup1\n      iszero\n      tag_69\n      jumpi\n      0x00\n      dup1\n      revert\n    tag_69:\n      pop\n      tag_70\n      0x04\n      dup1\n      calldatasize\n      sub\n      dup2\n      add\n      swap1\n      tag_71\n      swap2\n      swap1\n      tag_72\n      jump\t// in\n    tag_71:\n      tag_73\n      jump\t// in\n    tag_70:\n      stop\n        /* \"@openzeppelin/contracts-upgradeable/proxy/utils/UUPSUpgradeable.sol\":3761:3983  function upgradeToAndCall(address newImplementation, bytes memory data) external payable virtual onlyProxy {... */\n    tag_11:\n      tag_74\n      0x04\n      dup1\n      calldatasize\n      sub\n      dup2\n      add\n      swap1\n      tag_75\n      swap2\n      swap1\n      tag_76\n      jump\t// in\n    tag_75:\n      tag_77\n      jump\t// in\n    tag_74:\n      stop\n        /* \"@openzeppelin/contracts-upgradeable/proxy/utils/UUPSUpgradeable.sol\":3004:3135  function proxiableUUID() external view virtual override notDelegated returns (bytes32) {... */\n    tag_12:\n      callvalue\n      dup1\n      iszero\n      tag_78\n      jumpi\n      0x00\n      dup1\n      revert\n    tag_78:\n      pop\n      tag_79\n      tag_80\n      jump\t// in\n    tag_79:\n      mload(0x40)\n      tag_81\n      swap2\n      swap1\n      tag_82\n      jump\t// in\n    tag_81:\n      mload(0x40)\n      dup1\n      swap2\n      sub\n      swap1\n      return\n        /* \"@openzeppelin/contracts-upgradeable/token/ERC20/ERC20Upgradeable.sol\":3745:3870  function balanceOf(address account) public view virtual override returns (uint256) {... */\n    tag_13:\n      callvalue\n      dup1\n      iszero\n      tag_83\n      jumpi\n      0x00\n      dup1\n      revert\n    tag_83:\n      pop\n      tag_84\n      0x04\n      dup1\n      calldatasize\n      sub\n      dup2\n      add\n      swap1\n      tag_85\n      swap2\n      swap1\n      tag_58\n      jump\t// in\n    tag_85:\n      tag_86\n      jump\t// in\n    tag_84:\n      mload(0x40)\n      tag_87\n      swap2\n      swap1\n      tag_43\n      jump\t// in\n    tag_87:\n      mload(0x40)\n      dup1\n      swap2\n      sub\n      swap1\n      return\n        /* \"@openzeppelin/contracts-upgradeable/access/OwnableUpgradeable.sol\":2071:2172  function renounceOwnership() public virtual onlyOwner {... */\n    tag_14:\n      callvalue\n      dup1\n      iszero\n      tag_88\n      jumpi\n      0x00\n      dup1\n      revert\n    tag_88:\n      pop\n      tag_89\n      tag_90\n      jump\t// in\n    tag_89:\n      stop\n        /* \"@openzeppelin/contracts-upgradeable/token/ERC20/extensions/ERC20BurnableUpgradeable.sol\":1243:1404  function burnFrom(address account, uint256 amount) public virtual {... */\n    tag_15:\n      callvalue\n      dup1\n      iszero\n      tag_91\n      jumpi\n      0x00\n      dup1\n      revert\n    tag_91:\n      pop\n      tag_92\n      0x04\n      dup1\n      calldatasize\n      sub\n      dup2\n      add\n      swap1\n      tag_93\n      swap2\n      swap1\n      tag_35\n      jump\t// in\n    tag_93:\n      tag_94\n      jump\t// in\n    tag_92:\n      stop\n        /* \"Desktop/work/dao-company1/contracts/sq.sol\":698:878  function initialize() initializer public {... */\n    tag_16:\n      callvalue\n      dup1\n      iszero\n      tag_95\n      jumpi\n      0x00\n      dup1\n      revert\n    tag_95:\n      pop\n      tag_96\n      tag_97\n      jump\t// in\n    tag_96:\n      stop\n        /* \"@openzeppelin/contracts-upgradeable/access/OwnableUpgradeable.sol\":1441:1526  function owner() public view virtual returns (address) {... */\n    tag_17:\n      callvalue\n      dup1\n      iszero\n      tag_98\n      jumpi\n      0x00\n      dup1\n      revert\n    tag_98:\n      pop\n      tag_99\n      tag_100\n      jump\t// in\n    tag_99:\n      mload(0x40)\n      tag_101\n      swap2\n      swap1\n      tag_102\n      jump\t// in\n    tag_101:\n      mload(0x40)\n      dup1\n      swap2\n      sub\n      swap1\n      return\n        /* \"@openzeppelin/contracts-upgradeable/token/ERC20/ERC20Upgradeable.sol\":2704:2806  function symbol() public view virtual override returns (string memory) {... */\n    tag_18:\n      callvalue\n      dup1\n      iszero\n      tag_103\n      jumpi\n      0x00\n      dup1\n      revert\n    tag_103:\n      pop\n      tag_104\n      tag_105\n      jump\t// in\n    tag_104:\n      mload(0x40)\n      tag_106\n      swap2\n      swap1\n      tag_31\n      jump\t// in\n    tag_106:\n      mload(0x40)\n      dup1\n      swap2\n      sub\n      swap1\n      return\n        /* \"@openzeppelin/contracts-upgradeable/token/ERC20/ERC20Upgradeable.sol\":6931:7358  function decreaseAllowance(address spender, uint256 subtractedValue) public virtual returns (bool) {... */\n    tag_19:\n      callvalue\n      dup1\n      iszero\n      tag_107\n      jumpi\n      0x00\n      dup1\n      revert\n    tag_107:\n      pop\n      tag_108\n      0x04\n      dup1\n      calldatasize\n      sub\n      dup2\n      add\n      swap1\n      tag_109\n      swap2\n      swap1\n      tag_35\n      jump\t// in\n    tag_109:\n      tag_110\n      jump\t// in\n    tag_108:\n      mload(0x40)\n      tag_111\n      swap2\n      swap1\n      tag_38\n      jump\t// in\n    tag_111:\n      mload(0x40)\n      dup1\n      swap2\n      sub\n      swap1\n      return\n        /* \"@openzeppelin/contracts-upgradeable/token/ERC20/ERC20Upgradeable.sol\":4066:4255  function transfer(address to, uint256 amount) public virtual override returns (bool) {... */\n    tag_20:\n      callvalue\n      dup1\n      iszero\n      tag_112\n      jumpi\n      0x00\n      dup1\n      revert\n    tag_112:\n      pop\n      tag_113\n      0x04\n      dup1\n      calldatasize\n      sub\n      dup2\n      add\n      swap1\n      tag_114\n      swap2\n      swap1\n      tag_35\n      jump\t// in\n    tag_114:\n      tag_115\n      jump\t// in\n    tag_113:\n      mload(0x40)\n      tag_116\n      swap2\n      swap1\n      tag_38\n      jump\t// in\n    tag_116:\n      mload(0x40)\n      dup1\n      swap2\n      sub\n      swap1\n      return\n        /* \"Desktop/work/dao-company1/contracts/sq.sol\":983:1078  function Tarder(address to, uint256 amount) public onlyOwner {... */\n    tag_21:\n      callvalue\n      dup1\n      iszero\n      tag_117\n      jumpi\n      0x00\n      dup1\n      revert\n    tag_117:\n      pop\n      tag_118\n      0x04\n      dup1\n      calldatasize\n      sub\n      dup2\n      add\n      swap1\n      tag_119\n      swap2\n      swap1\n      tag_35\n      jump\t// in\n    tag_119:\n      tag_120\n      jump\t// in\n    tag_118:\n      stop\n        /* \"@openzeppelin/contracts-upgradeable/token/ERC20/ERC20Upgradeable.sol\":4313:4462  function allowance(address owner, address spender) public view virtual override returns (uint256) {... */\n    tag_22:\n      callvalue\n      dup1\n      iszero\n      tag_121\n      jumpi\n      0x00\n      dup1\n      revert\n    tag_121:\n      pop\n      tag_122\n      0x04\n      dup1\n      calldatasize\n      sub\n      dup2\n      add\n      swap1\n      tag_123\n      swap2\n      swap1\n      tag_124\n      jump\t// in\n    tag_123:\n      tag_125\n      jump\t// in\n    tag_122:\n      mload(0x40)\n      tag_126\n      swap2\n      swap1\n      tag_43\n      jump\t// in\n    tag_126:\n      mload(0x40)\n      dup1\n      swap2\n      sub\n      swap1\n      return\n        /* \"@openzeppelin/contracts-upgradeable/access/OwnableUpgradeable.sol\":2321:2519  function transferOwnership(address newOwner) public virtual onlyOwner {... */\n    tag_23:\n      callvalue\n      dup1\n      iszero\n      tag_127\n      jumpi\n      0x00\n      dup1\n      revert\n    tag_127:\n      pop\n      tag_128\n      0x04\n      dup1\n      calldatasize\n      sub\n      dup2\n      add\n      swap1\n      tag_129\n      swap2\n      swap1\n      tag_58\n      jump\t// in\n    tag_129:\n      tag_130\n      jump\t// in\n    tag_128:\n      stop\n        /* \"@openzeppelin/contracts-upgradeable/token/ERC20/ERC20Upgradeable.sol\":2493:2591  function name() public view virtual override returns (string memory) {... */\n    tag_29:\n        /* \"@openzeppelin/contracts-upgradeable/token/ERC20/ERC20Upgradeable.sol\":2547:2560  string memory */\n      0x60\n        /* \"@openzeppelin/contracts-upgradeable/token/ERC20/ERC20Upgradeable.sol\":2579:2584  _name */\n      0x36\n        /* \"@openzeppelin/contracts-upgradeable/token/ERC20/ERC20Upgradeable.sol\":2572:2584  return _name */\n      dup1\n      sload\n      tag_132\n      swap1\n      tag_133\n      jump\t// in\n    tag_132:\n      dup1\n      0x1f\n      add\n      0x20\n      dup1\n      swap2\n      div\n      mul\n      0x20\n      add\n      mload(0x40)\n      swap1\n      dup2\n      add\n      0x40\n      mstore\n      dup1\n      swap3\n      swap2\n      swap1\n      dup2\n      dup2\n      mstore\n      0x20\n      add\n      dup3\n      dup1\n      sload\n      tag_134\n      swap1\n      tag_133\n      jump\t// in\n    tag_134:\n      dup1\n      iszero\n      tag_135\n      jumpi\n      dup1\n      0x1f\n      lt\n      tag_136\n      jumpi\n      0x0100\n      dup1\n      dup4\n      sload\n      div\n      mul\n      dup4\n      mstore\n      swap2\n      0x20\n      add\n      swap2\n      jump(tag_135)\n    tag_136:\n      dup3\n      add\n      swap2\n      swap1\n      0x00\n      mstore\n      keccak256(0x00, 0x20)\n      swap1\n    tag_137:\n      dup2\n      sload\n      dup2\n      mstore\n      swap1\n      0x01\n      add\n      swap1\n      0x20\n      add\n      dup1\n      dup4\n      gt\n      tag_137\n      jumpi\n      dup3\n      swap1\n      sub\n      0x1f\n      and\n      dup3\n      add\n      swap2\n    tag_135:\n      pop\n      pop\n      pop\n      pop\n      pop\n      swap1\n      pop\n        /* \"@openzeppelin/contracts-upgradeable/token/ERC20/ERC20Upgradeable.sol\":2493:2591  function name() public view virtual override returns (string memory) {... */\n      swap1\n      jump\t// out\n        /* \"@openzeppelin/contracts-upgradeable/token/ERC20/ERC20Upgradeable.sol\":4770:4967  function approve(address spender, uint256 amount) public virtual override returns (bool) {... */\n    tag_36:\n        /* \"@openzeppelin/contracts-upgradeable/token/ERC20/ERC20Upgradeable.sol\":4853:4857  bool */\n      0x00\n        /* \"@openzeppelin/contracts-upgradeable/token/ERC20/ERC20Upgradeable.sol\":4869:4882  address owner */\n      dup1\n        /* \"@openzeppelin/contracts-upgradeable/token/ERC20/ERC20Upgradeable.sol\":4885:4897  _msgSender() */\n      tag_139\n        /* \"@openzeppelin/contracts-upgradeable/token/ERC20/ERC20Upgradeable.sol\":4885:4895  _msgSender */\n      tag_140\n        /* \"@openzeppelin/contracts-upgradeable/token/ERC20/ERC20Upgradeable.sol\":4885:4897  _msgSender() */\n      jump\t// in\n    tag_139:\n        /* \"@openzeppelin/contracts-upgradeable/token/ERC20/ERC20Upgradeable.sol\":4869:4897  address owner = _msgSender() */\n      swap1\n      pop\n        /* \"@openzeppelin/contracts-upgradeable/token/ERC20/ERC20Upgradeable.sol\":4907:4939  _approve(owner, spender, amount) */\n      tag_141\n        /* \"@openzeppelin/contracts-upgradeable/token/ERC20/ERC20Upgradeable.sol\":4916:4921  owner */\n      dup2\n        /* \"@openzeppelin/contracts-upgradeable/token/ERC20/ERC20Upgradeable.sol\":4923:4930  spender */\n      dup6\n        /* \"@openzeppelin/contracts-upgradeable/token/ERC20/ERC20Upgradeable.sol\":4932:4938  amount */\n      dup6\n        /* \"@openzeppelin/contracts-upgradeable/token/ERC20/ERC20Upgradeable.sol\":4907:4915  _approve */\n      tag_142\n        /* \"@openzeppelin/contracts-upgradeable/token/ERC20/ERC20Upgradeable.sol\":4907:4939  _approve(owner, spender, amount) */\n      jump\t// in\n    tag_141:\n        /* \"@openzeppelin/contracts-upgradeable/token/ERC20/ERC20Upgradeable.sol\":4956:4960  true */\n      0x01\n        /* \"@openzeppelin/contracts-upgradeable/token/ERC20/ERC20Upgradeable.sol\":4949:4960  return true */\n      swap2\n      pop\n      pop\n        /* \"@openzeppelin/contracts-upgradeable/token/ERC20/ERC20Upgradeable.sol\":4770:4967  function approve(address spender, uint256 amount) public virtual override returns (bool) {... */\n      swap3\n      swap2\n      pop\n      pop\n      jump\t// out\n        /* \"@openzeppelin/contracts-upgradeable/token/ERC20/ERC20Upgradeable.sol\":3581:3687  function totalSupply() public view virtual override returns (uint256) {... */\n    tag_41:\n        /* \"@openzeppelin/contracts-upgradeable/token/ERC20/ERC20Upgradeable.sol\":3642:3649  uint256 */\n      0x00\n        /* \"@openzeppelin/contracts-upgradeable/token/ERC20/ERC20Upgradeable.sol\":3668:3680  _totalSupply */\n      sload(0x35)\n        /* \"@openzeppelin/contracts-upgradeable/token/ERC20/ERC20Upgradeable.sol\":3661:3680  return _totalSupply */\n      swap1\n      pop\n        /* \"@openzeppelin/contracts-upgradeable/token/ERC20/ERC20Upgradeable.sol\":3581:3687  function totalSupply() public view virtual override returns (uint256) {... */\n      swap1\n      jump\t// out\n        /* \"@openzeppelin/contracts-upgradeable/token/ERC20/ERC20Upgradeable.sol\":5529:5815  function transferFrom(... */\n    tag_48:\n        /* \"@openzeppelin/contracts-upgradeable/token/ERC20/ERC20Upgradeable.sol\":5656:5660  bool */\n      0x00\n        /* \"@openzeppelin/contracts-upgradeable/token/ERC20/ERC20Upgradeable.sol\":5672:5687  address spender */\n      dup1\n        /* \"@openzeppelin/contracts-upgradeable/token/ERC20/ERC20Upgradeable.sol\":5690:5702  _msgSender() */\n      tag_145\n        /* \"@openzeppelin/contracts-upgradeable/token/ERC20/ERC20Upgradeable.sol\":5690:5700  _msgSender */\n      tag_140\n        /* \"@openzeppelin/contracts-upgradeable/token/ERC20/ERC20Upgradeable.sol\":5690:5702  _msgSender() */\n      jump\t// in\n    tag_145:\n        /* \"@openzeppelin/contracts-upgradeable/token/ERC20/ERC20Upgradeable.sol\":5672:5702  address spender = _msgSender() */\n      swap1\n      pop\n        /* \"@openzeppelin/contracts-upgradeable/token/ERC20/ERC20Upgradeable.sol\":5712:5750  _spendAllowance(from, spender, amount) */\n      tag_146\n        /* \"@openzeppelin/contracts-upgradeable/token/ERC20/ERC20Upgradeable.sol\":5728:5732  from */\n      dup6\n        /* \"@openzeppelin/contracts-upgradeable/token/ERC20/ERC20Upgradeable.sol\":5734:5741  spender */\n      dup3\n        /* \"@openzeppelin/contracts-upgradeable/token/ERC20/ERC20Upgradeable.sol\":5743:5749  amount */\n      dup6\n        /* \"@openzeppelin/contracts-upgradeable/token/ERC20/ERC20Upgradeable.sol\":5712:5727  _spendAllowance */\n      tag_147\n        /* \"@openzeppelin/contracts-upgradeable/token/ERC20/ERC20Upgradeable.sol\":5712:5750  _spendAllowance(from, spender, amount) */\n      jump\t// in\n    tag_146:\n        /* \"@openzeppelin/contracts-upgradeable/token/ERC20/ERC20Upgradeable.sol\":5760:5787  _transfer(from, to, amount) */\n      tag_148\n        /* \"@openzeppelin/contracts-upgradeable/token/ERC20/ERC20Upgradeable.sol\":5770:5774  from */\n      dup6\n        /* \"@openzeppelin/contracts-upgradeable/token/ERC20/ERC20Upgradeable.sol\":5776:5778  to */\n      dup6\n        /* \"@openzeppelin/contracts-upgradeable/token/ERC20/ERC20Upgradeable.sol\":5780:5786  amount */\n      dup6\n        /* \"@openzeppelin/contracts-upgradeable/token/ERC20/ERC20Upgradeable.sol\":5760:5769  _transfer */\n      tag_149\n        /* \"@openzeppelin/contracts-upgradeable/token/ERC20/ERC20Upgradeable.sol\":5760:5787  _transfer(from, to, amount) */\n      jump\t// in\n    tag_148:\n        /* \"@openzeppelin/contracts-upgradeable/token/ERC20/ERC20Upgradeable.sol\":5804:5808  true */\n      0x01\n        /* \"@openzeppelin/contracts-upgradeable/token/ERC20/ERC20Upgradeable.sol\":5797:5808  return true */\n      swap2\n      pop\n      pop\n        /* \"@openzeppelin/contracts-upgradeable/token/ERC20/ERC20Upgradeable.sol\":5529:5815  function transferFrom(... */\n      swap4\n      swap3\n      pop\n      pop\n      pop\n      jump\t// out\n        /* \"@openzeppelin/contracts-upgradeable/token/ERC20/ERC20Upgradeable.sol\":3430:3521  function decimals() public view virtual override returns (uint8) {... */\n    tag_52:\n        /* \"@openzeppelin/contracts-upgradeable/token/ERC20/ERC20Upgradeable.sol\":3488:3493  uint8 */\n      0x00\n        /* \"@openzeppelin/contracts-upgradeable/token/ERC20/ERC20Upgradeable.sol\":3512:3514  18 */\n      0x12\n        /* \"@openzeppelin/contracts-upgradeable/token/ERC20/ERC20Upgradeable.sol\":3505:3514  return 18 */\n      swap1\n      pop\n        /* \"@openzeppelin/contracts-upgradeable/token/ERC20/ERC20Upgradeable.sol\":3430:3521  function decimals() public view virtual override returns (uint8) {... */\n      swap1\n      jump\t// out\n        /* \"@openzeppelin/contracts-upgradeable/proxy/utils/UUPSUpgradeable.sol\":3315:3512  function upgradeTo(address newImplementation) external virtual onlyProxy {... */\n    tag_59:\n        /* \"@openzeppelin/contracts-upgradeable/proxy/utils/UUPSUpgradeable.sol\":1898:1904  __self */\n      immutable(\"0xc8ae7d376bd02e39f4a20e5d95afdf144c832aed4bf964d0714dc40db43ce4fc\")\n        /* \"@openzeppelin/contracts-upgradeable/proxy/utils/UUPSUpgradeable.sol\":1881:1904  address(this) != __self */\n      0xffffffffffffffffffffffffffffffffffffffff\n      and\n        /* \"@openzeppelin/contracts-upgradeable/proxy/utils/UUPSUpgradeable.sol\":1889:1893  this */\n      address\n        /* \"@openzeppelin/contracts-upgradeable/proxy/utils/UUPSUpgradeable.sol\":1881:1904  address(this) != __self */\n      0xffffffffffffffffffffffffffffffffffffffff\n      and\n      eq\n      iszero\n        /* \"@openzeppelin/contracts-upgradeable/proxy/utils/UUPSUpgradeable.sol\":1873:1953  require(address(this) != __self, \"Function must be called through delegatecall\") */\n      tag_152\n      jumpi\n      mload(0x40)\n      0x08c379a000000000000000000000000000000000000000000000000000000000\n      dup2\n      mstore\n      0x04\n      add\n      tag_153\n      swap1\n      tag_154\n      jump\t// in\n    tag_153:\n      mload(0x40)\n      dup1\n      swap2\n      sub\n      swap1\n      revert\n    tag_152:\n        /* \"@openzeppelin/contracts-upgradeable/proxy/utils/UUPSUpgradeable.sol\":1995:2001  __self */\n      immutable(\"0xc8ae7d376bd02e39f4a20e5d95afdf144c832aed4bf964d0714dc40db43ce4fc\")\n        /* \"@openzeppelin/contracts-upgradeable/proxy/utils/UUPSUpgradeable.sol\":1971:2001  _getImplementation() == __self */\n      0xffffffffffffffffffffffffffffffffffffffff\n      and\n        /* \"@openzeppelin/contracts-upgradeable/proxy/utils/UUPSUpgradeable.sol\":1971:1991  _getImplementation() */\n      tag_155\n        /* \"@openzeppelin/contracts-upgradeable/proxy/utils/UUPSUpgradeable.sol\":1971:1989  _getImplementation */\n      tag_156\n        /* \"@openzeppelin/contracts-upgradeable/proxy/utils/UUPSUpgradeable.sol\":1971:1991  _getImplementation() */\n      jump\t// in\n    tag_155:\n        /* \"@openzeppelin/contracts-upgradeable/proxy/utils/UUPSUpgradeable.sol\":1971:2001  _getImplementation() == __self */\n      0xffffffffffffffffffffffffffffffffffffffff\n      and\n      eq\n        /* \"@openzeppelin/contracts-upgradeable/proxy/utils/UUPSUpgradeable.sol\":1963:2050  require(_getImplementation() == __self, \"Function must be called through active proxy\") */\n      tag_157\n      jumpi\n      mload(0x40)\n      0x08c379a000000000000000000000000000000000000000000000000000000000\n      dup2\n      mstore\n      0x04\n      add\n      tag_158\n      swap1\n      tag_159\n      jump\t// in\n    tag_158:\n      mload(0x40)\n      dup1\n      swap2\n      sub\n      swap1\n      revert\n    tag_157:\n        /* \"@openzeppelin/contracts-upgradeable/proxy/utils/UUPSUpgradeable.sol\":3398:3434  _authorizeUpgrade(newImplementation) */\n      tag_161\n        /* \"@openzeppelin/contracts-upgradeable/proxy/utils/UUPSUpgradeable.sol\":3416:3433  newImplementation */\n      dup2\n        /* \"@openzeppelin/contracts-upgradeable/proxy/utils/UUPSUpgradeable.sol\":3398:3415  _authorizeUpgrade */\n      tag_162\n        /* \"@openzeppelin/contracts-upgradeable/proxy/utils/UUPSUpgradeable.sol\":3398:3434  _authorizeUpgrade(newImplementation) */\n      jump\t// in\n    tag_161:\n        /* \"@openzeppelin/contracts-upgradeable/proxy/utils/UUPSUpgradeable.sol\":3444:3505  _upgradeToAndCallUUPS(newImplementation, new bytes(0), false) */\n      tag_163\n        /* \"@openzeppelin/contracts-upgradeable/proxy/utils/UUPSUpgradeable.sol\":3466:3483  newImplementation */\n      dup2\n        /* \"@openzeppelin/contracts-upgradeable/proxy/utils/UUPSUpgradeable.sol\":3495:3496  0 */\n      0x00\n        /* \"@openzeppelin/contracts-upgradeable/proxy/utils/UUPSUpgradeable.sol\":3485:3497  new bytes(0) */\n      0xffffffffffffffff\n      dup2\n      gt\n      iszero\n      tag_164\n      jumpi\n      mstore(0x00, 0x4e487b7100000000000000000000000000000000000000000000000000000000)\n      mstore(0x04, 0x41)\n      revert(0x00, 0x24)\n    tag_164:\n      mload(0x40)\n      swap1\n      dup1\n      dup3\n      mstore\n      dup1\n      0x1f\n      add\n      not(0x1f)\n      and\n      0x20\n      add\n      dup3\n      add\n      0x40\n      mstore\n      dup1\n      iszero\n      tag_165\n      jumpi\n      dup2\n      0x20\n      add\n      0x01\n      dup3\n      mul\n      dup1\n      calldatasize\n      dup4\n      calldatacopy\n      dup1\n      dup3\n      add\n      swap2\n      pop\n      pop\n      swap1\n      pop\n    tag_165:\n      pop\n        /* \"@openzeppelin/contracts-upgradeable/proxy/utils/UUPSUpgradeable.sol\":3499:3504  false */\n      0x00\n        /* \"@openzeppelin/contracts-upgradeable/proxy/utils/UUPSUpgradeable.sol\":3444:3465  _upgradeToAndCallUUPS */\n      tag_166\n        /* \"@openzeppelin/contracts-upgradeable/proxy/utils/UUPSUpgradeable.sol\":3444:3505  _upgradeToAndCallUUPS(newImplementation, new bytes(0), false) */\n      jump\t// in\n    tag_163:\n        /* \"@openzeppelin/contracts-upgradeable/proxy/utils/UUPSUpgradeable.sol\":3315:3512  function upgradeTo(address newImplementation) external virtual onlyProxy {... */\n      pop\n      jump\t// out\n        /* \"@openzeppelin/contracts-upgradeable/token/ERC20/ERC20Upgradeable.sol\":6210:6444  function increaseAllowance(address spender, uint256 addedValue) public virtual returns (bool) {... */\n    tag_63:\n        /* \"@openzeppelin/contracts-upgradeable/token/ERC20/ERC20Upgradeable.sol\":6298:6302  bool */\n      0x00\n        /* \"@openzeppelin/contracts-upgradeable/token/ERC20/ERC20Upgradeable.sol\":6314:6327  address owner */\n      dup1\n        /* \"@openzeppelin/contracts-upgradeable/token/ERC20/ERC20Upgradeable.sol\":6330:6342  _msgSender() */\n      tag_168\n        /* \"@openzeppelin/contracts-upgradeable/token/ERC20/ERC20Upgradeable.sol\":6330:6340  _msgSender */\n      tag_140\n        /* \"@openzeppelin/contracts-upgradeable/token/ERC20/ERC20Upgradeable.sol\":6330:6342  _msgSender() */\n      jump\t// in\n    tag_168:\n        /* \"@openzeppelin/contracts-upgradeable/token/ERC20/ERC20Upgradeable.sol\":6314:6342  address owner = _msgSender() */\n      swap1\n      pop\n        /* \"@openzeppelin/contracts-upgradeable/token/ERC20/ERC20Upgradeable.sol\":6352:6416  _approve(owner, spender, allowance(owner, spender) + addedValue) */\n      tag_169\n        /* \"@openzeppelin/contracts-upgradeable/token/ERC20/ERC20Upgradeable.sol\":6361:6366  owner */\n      dup2\n        /* \"@openzeppelin/contracts-upgradeable/token/ERC20/ERC20Upgradeable.sol\":6368:6375  spender */\n      dup6\n        /* \"@openzeppelin/contracts-upgradeable/token/ERC20/ERC20Upgradeable.sol\":6405:6415  addedValue */\n      dup6\n        /* \"@openzeppelin/contracts-upgradeable/token/ERC20/ERC20Upgradeable.sol\":6377:6402  allowance(owner, spender) */\n      tag_170\n        /* \"@openzeppelin/contracts-upgradeable/token/ERC20/ERC20Upgradeable.sol\":6387:6392  owner */\n      dup6\n        /* \"@openzeppelin/contracts-upgradeable/token/ERC20/ERC20Upgradeable.sol\":6394:6401  spender */\n      dup10\n        /* \"@openzeppelin/contracts-upgradeable/token/ERC20/ERC20Upgradeable.sol\":6377:6386  allowance */\n      tag_125\n        /* \"@openzeppelin/contracts-upgradeable/token/ERC20/ERC20Upgradeable.sol\":6377:6402  allowance(owner, spender) */\n      jump\t// in\n    tag_170:\n        /* \"@openzeppelin/contracts-upgradeable/token/ERC20/ERC20Upgradeable.sol\":6377:6415  allowance(owner, spender) + addedValue */\n      tag_171\n      swap2\n      swap1\n      tag_172\n      jump\t// in\n    tag_171:\n        /* \"@openzeppelin/contracts-upgradeable/token/ERC20/ERC20Upgradeable.sol\":6352:6360  _approve */\n      tag_142\n        /* \"@openzeppelin/contracts-upgradeable/token/ERC20/ERC20Upgradeable.sol\":6352:6416  _approve(owner, spender, allowance(owner, spender) + addedValue) */\n      jump\t// in\n    tag_169:\n        /* \"@openzeppelin/contracts-upgradeable/token/ERC20/ERC20Upgradeable.sol\":6433:6437  true */\n      0x01\n        /* \"@openzeppelin/contracts-upgradeable/token/ERC20/ERC20Upgradeable.sol\":6426:6437  return true */\n      swap2\n      pop\n      pop\n        /* \"@openzeppelin/contracts-upgradeable/token/ERC20/ERC20Upgradeable.sol\":6210:6444  function increaseAllowance(address spender, uint256 addedValue) public virtual returns (bool) {... */\n      swap3\n      swap2\n      pop\n      pop\n      jump\t// out\n        /* \"Desktop/work/dao-company1/contracts/sq.sol\":884:977  function mint(address to, uint256 amount) public onlyOwner {... */\n    tag_68:\n        /* \"@openzeppelin/contracts-upgradeable/access/OwnableUpgradeable.sol\":1334:1347  _checkOwner() */\n      tag_174\n        /* \"@openzeppelin/contracts-upgradeable/access/OwnableUpgradeable.sol\":1334:1345  _checkOwner */\n      tag_175\n        /* \"@openzeppelin/contracts-upgradeable/access/OwnableUpgradeable.sol\":1334:1347  _checkOwner() */\n      jump\t// in\n    tag_174:\n        /* \"Desktop/work/dao-company1/contracts/sq.sol\":953:970  _mint(to, amount) */\n      tag_177\n        /* \"Desktop/work/dao-company1/contracts/sq.sol\":959:961  to */\n      dup3\n        /* \"Desktop/work/dao-company1/contracts/sq.sol\":963:969  amount */\n      dup3\n        /* \"Desktop/work/dao-company1/contracts/sq.sol\":953:958  _mint */\n      tag_178\n        /* \"Desktop/work/dao-company1/contracts/sq.sol\":953:970  _mint(to, amount) */\n      jump\t// in\n    tag_177:\n        /* \"Desktop/work/dao-company1/contracts/sq.sol\":884:977  function mint(address to, uint256 amount) public onlyOwner {... */\n      pop\n      pop\n      jump\t// out\n        /* \"@openzeppelin/contracts-upgradeable/token/ERC20/extensions/ERC20BurnableUpgradeable.sol\":848:937  function burn(uint256 amount) public virtual {... */\n    tag_73:\n        /* \"@openzeppelin/contracts-upgradeable/token/ERC20/extensions/ERC20BurnableUpgradeable.sol\":903:930  _burn(_msgSender(), amount) */\n      tag_180\n        /* \"@openzeppelin/contracts-upgradeable/token/ERC20/extensions/ERC20BurnableUpgradeable.sol\":909:921  _msgSender() */\n      tag_181\n        /* \"@openzeppelin/contracts-upgradeable/token/ERC20/extensions/ERC20BurnableUpgradeable.sol\":909:919  _msgSender */\n      tag_140\n        /* \"@openzeppelin/contracts-upgradeable/token/ERC20/extensions/ERC20BurnableUpgradeable.sol\":909:921  _msgSender() */\n      jump\t// in\n    tag_181:\n        /* \"@openzeppelin/contracts-upgradeable/token/ERC20/extensions/ERC20BurnableUpgradeable.sol\":923:929  amount */\n      dup3\n        /* \"@openzeppelin/contracts-upgradeable/token/ERC20/extensions/ERC20BurnableUpgradeable.sol\":903:908  _burn */\n      tag_182\n        /* \"@openzeppelin/contracts-upgradeable/token/ERC20/extensions/ERC20BurnableUpgradeable.sol\":903:930  _burn(_msgSender(), amount) */\n      jump\t// in\n    tag_180:\n        /* \"@openzeppelin/contracts-upgradeable/token/ERC20/extensions/ERC20BurnableUpgradeable.sol\":848:937  function burn(uint256 amount) public virtual {... */\n      pop\n      jump\t// out\n        /* \"@openzeppelin/contracts-upgradeable/proxy/utils/UUPSUpgradeable.sol\":3761:3983  function upgradeToAndCall(address newImplementation, bytes memory data) external payable virtual onlyProxy {... */\n    tag_77:\n        /* \"@openzeppelin/contracts-upgradeable/proxy/utils/UUPSUpgradeable.sol\":1898:1904  __self */\n      immutable(\"0xc8ae7d376bd02e39f4a20e5d95afdf144c832aed4bf964d0714dc40db43ce4fc\")\n        /* \"@openzeppelin/contracts-upgradeable/proxy/utils/UUPSUpgradeable.sol\":1881:1904  address(this) != __self */\n      0xffffffffffffffffffffffffffffffffffffffff\n      and\n        /* \"@openzeppelin/contracts-upgradeable/proxy/utils/UUPSUpgradeable.sol\":1889:1893  this */\n      address\n        /* \"@openzeppelin/contracts-upgradeable/proxy/utils/UUPSUpgradeable.sol\":1881:1904  address(this) != __self */\n      0xffffffffffffffffffffffffffffffffffffffff\n      and\n      eq\n      iszero\n        /* \"@openzeppelin/contracts-upgradeable/proxy/utils/UUPSUpgradeable.sol\":1873:1953  require(address(this) != __self, \"Function must be called through delegatecall\") */\n      tag_184\n      jumpi\n      mload(0x40)\n      0x08c379a000000000000000000000000000000000000000000000000000000000\n      dup2\n      mstore\n      0x04\n      add\n      tag_185\n      swap1\n      tag_154\n      jump\t// in\n    tag_185:\n      mload(0x40)\n      dup1\n      swap2\n      sub\n      swap1\n      revert\n    tag_184:\n        /* \"@openzeppelin/contracts-upgradeable/proxy/utils/UUPSUpgradeable.sol\":1995:2001  __self */\n      immutable(\"0xc8ae7d376bd02e39f4a20e5d95afdf144c832aed4bf964d0714dc40db43ce4fc\")\n        /* \"@openzeppelin/contracts-upgradeable/proxy/utils/UUPSUpgradeable.sol\":1971:2001  _getImplementation() == __self */\n      0xffffffffffffffffffffffffffffffffffffffff\n      and\n        /* \"@openzeppelin/contracts-upgradeable/proxy/utils/UUPSUpgradeable.sol\":1971:1991  _getImplementation() */\n      tag_186\n        /* \"@openzeppelin/contracts-upgradeable/proxy/utils/UUPSUpgradeable.sol\":1971:1989  _getImplementation */\n      tag_156\n        /* \"@openzeppelin/contracts-upgradeable/proxy/utils/UUPSUpgradeable.sol\":1971:1991  _getImplementation() */\n      jump\t// in\n    tag_186:\n        /* \"@openzeppelin/contracts-upgradeable/proxy/utils/UUPSUpgradeable.sol\":1971:2001  _getImplementation() == __self */\n      0xffffffffffffffffffffffffffffffffffffffff\n      and\n      eq\n        /* \"@openzeppelin/contracts-upgradeable/proxy/utils/UUPSUpgradeable.sol\":1963:2050  require(_getImplementation() == __self, \"Function must be called through active proxy\") */\n      tag_187\n      jumpi\n      mload(0x40)\n      0x08c379a000000000000000000000000000000000000000000000000000000000\n      dup2\n      mstore\n      0x04\n      add\n      tag_188\n      swap1\n      tag_159\n      jump\t// in\n    tag_188:\n      mload(0x40)\n      dup1\n      swap2\n      sub\n      swap1\n      revert\n    tag_187:\n        /* \"@openzeppelin/contracts-upgradeable/proxy/utils/UUPSUpgradeable.sol\":3878:3914  _authorizeUpgrade(newImplementation) */\n      tag_190\n        /* \"@openzeppelin/contracts-upgradeable/proxy/utils/UUPSUpgradeable.sol\":3896:3913  newImplementation */\n      dup3\n        /* \"@openzeppelin/contracts-upgradeable/proxy/utils/UUPSUpgradeable.sol\":3878:3895  _authorizeUpgrade */\n      tag_162\n        /* \"@openzeppelin/contracts-upgradeable/proxy/utils/UUPSUpgradeable.sol\":3878:3914  _authorizeUpgrade(newImplementation) */\n      jump\t// in\n    tag_190:\n        /* \"@openzeppelin/contracts-upgradeable/proxy/utils/UUPSUpgradeable.sol\":3924:3976  _upgradeToAndCallUUPS(newImplementation, data, true) */\n      tag_191\n        /* \"@openzeppelin/contracts-upgradeable/proxy/utils/UUPSUpgradeable.sol\":3946:3963  newImplementation */\n      dup3\n        /* \"@openzeppelin/contracts-upgradeable/proxy/utils/UUPSUpgradeable.sol\":3965:3969  data */\n      dup3\n        /* \"@openzeppelin/contracts-upgradeable/proxy/utils/UUPSUpgradeable.sol\":3971:3975  true */\n      0x01\n        /* \"@openzeppelin/contracts-upgradeable/proxy/utils/UUPSUpgradeable.sol\":3924:3945  _upgradeToAndCallUUPS */\n      tag_166\n        /* \"@openzeppelin/contracts-upgradeable/proxy/utils/UUPSUpgradeable.sol\":3924:3976  _upgradeToAndCallUUPS(newImplementation, data, true) */\n      jump\t// in\n    tag_191:\n        /* \"@openzeppelin/contracts-upgradeable/proxy/utils/UUPSUpgradeable.sol\":3761:3983  function upgradeToAndCall(address newImplementation, bytes memory data) external payable virtual onlyProxy {... */\n      pop\n      pop\n      jump\t// out\n        /* \"@openzeppelin/contracts-upgradeable/proxy/utils/UUPSUpgradeable.sol\":3004:3135  function proxiableUUID() external view virtual override notDelegated returns (bytes32) {... */\n    tag_80:\n        /* \"@openzeppelin/contracts-upgradeable/proxy/utils/UUPSUpgradeable.sol\":3082:3089  bytes32 */\n      0x00\n        /* \"@openzeppelin/contracts-upgradeable/proxy/utils/UUPSUpgradeable.sol\":2333:2339  __self */\n      immutable(\"0xc8ae7d376bd02e39f4a20e5d95afdf144c832aed4bf964d0714dc40db43ce4fc\")\n        /* \"@openzeppelin/contracts-upgradeable/proxy/utils/UUPSUpgradeable.sol\":2316:2339  address(this) == __self */\n      0xffffffffffffffffffffffffffffffffffffffff\n      and\n        /* \"@openzeppelin/contracts-upgradeable/proxy/utils/UUPSUpgradeable.sol\":2324:2328  this */\n      address\n        /* \"@openzeppelin/contracts-upgradeable/proxy/utils/UUPSUpgradeable.sol\":2316:2339  address(this) == __self */\n      0xffffffffffffffffffffffffffffffffffffffff\n      and\n      eq\n        /* \"@openzeppelin/contracts-upgradeable/proxy/utils/UUPSUpgradeable.sol\":2308:2400  require(address(this) == __self, \"UUPSUpgradeable: must not be called through delegatecall\") */\n      tag_193\n      jumpi\n      mload(0x40)\n      0x08c379a000000000000000000000000000000000000000000000000000000000\n      dup2\n      mstore\n      0x04\n      add\n      tag_194\n      swap1\n      tag_195\n      jump\t// in\n    tag_194:\n      mload(0x40)\n      dup1\n      swap2\n      sub\n      swap1\n      revert\n    tag_193:\n        /* \"@openzeppelin/contracts-upgradeable/proxy/ERC1967/ERC1967UpgradeUpgradeable.sol\":1292:1358  0x360894a13ba1a3210667c828492db98dca3e2076cc3735a920a3ca505d382bbc */\n      0x360894a13ba1a3210667c828492db98dca3e2076cc3735a920a3ca505d382bbc\n        /* \"@openzeppelin/contracts-upgradeable/proxy/utils/UUPSUpgradeable.sol\":3108:3128  _IMPLEMENTATION_SLOT */\n      0x00\n      shl\n        /* \"@openzeppelin/contracts-upgradeable/proxy/utils/UUPSUpgradeable.sol\":3101:3128  return _IMPLEMENTATION_SLOT */\n      swap1\n      pop\n        /* \"@openzeppelin/contracts-upgradeable/proxy/utils/UUPSUpgradeable.sol\":3004:3135  function proxiableUUID() external view virtual override notDelegated returns (bytes32) {... */\n      swap1\n      jump\t// out\n        /* \"@openzeppelin/contracts-upgradeable/token/ERC20/ERC20Upgradeable.sol\":3745:3870  function balanceOf(address account) public view virtual override returns (uint256) {... */\n    tag_86:\n        /* \"@openzeppelin/contracts-upgradeable/token/ERC20/ERC20Upgradeable.sol\":3819:3826  uint256 */\n      0x00\n        /* \"@openzeppelin/contracts-upgradeable/token/ERC20/ERC20Upgradeable.sol\":3845:3854  _balances */\n      0x33\n        /* \"@openzeppelin/contracts-upgradeable/token/ERC20/ERC20Upgradeable.sol\":3845:3863  _balances[account] */\n      0x00\n        /* \"@openzeppelin/contracts-upgradeable/token/ERC20/ERC20Upgradeable.sol\":3855:3862  account */\n      dup4\n        /* \"@openzeppelin/contracts-upgradeable/token/ERC20/ERC20Upgradeable.sol\":3845:3863  _balances[account] */\n      0xffffffffffffffffffffffffffffffffffffffff\n      and\n      0xffffffffffffffffffffffffffffffffffffffff\n      and\n      dup2\n      mstore\n      0x20\n      add\n      swap1\n      dup2\n      mstore\n      0x20\n      add\n      0x00\n      keccak256\n      sload\n        /* \"@openzeppelin/contracts-upgradeable/token/ERC20/ERC20Upgradeable.sol\":3838:3863  return _balances[account] */\n      swap1\n      pop\n        /* \"@openzeppelin/contracts-upgradeable/token/ERC20/ERC20Upgradeable.sol\":3745:3870  function balanceOf(address account) public view virtual override returns (uint256) {... */\n      swap2\n      swap1\n      pop\n      jump\t// out\n        /* \"@openzeppelin/contracts-upgradeable/access/OwnableUpgradeable.sol\":2071:2172  function renounceOwnership() public virtual onlyOwner {... */\n    tag_90:\n        /* \"@openzeppelin/contracts-upgradeable/access/OwnableUpgradeable.sol\":1334:1347  _checkOwner() */\n      tag_199\n        /* \"@openzeppelin/contracts-upgradeable/access/OwnableUpgradeable.sol\":1334:1345  _checkOwner */\n      tag_175\n        /* \"@openzeppelin/contracts-upgradeable/access/OwnableUpgradeable.sol\":1334:1347  _checkOwner() */\n      jump\t// in\n    tag_199:\n        /* \"@openzeppelin/contracts-upgradeable/access/OwnableUpgradeable.sol\":2135:2165  _transferOwnership(address(0)) */\n      tag_201\n        /* \"@openzeppelin/contracts-upgradeable/access/OwnableUpgradeable.sol\":2162:2163  0 */\n      0x00\n        /* \"@openzeppelin/contracts-upgradeable/access/OwnableUpgradeable.sol\":2135:2153  _transferOwnership */\n      tag_202\n        /* \"@openzeppelin/contracts-upgradeable/access/OwnableUpgradeable.sol\":2135:2165  _transferOwnership(address(0)) */\n      jump\t// in\n    tag_201:\n        /* \"@openzeppelin/contracts-upgradeable/access/OwnableUpgradeable.sol\":2071:2172  function renounceOwnership() public virtual onlyOwner {... */\n      jump\t// out\n        /* \"@openzeppelin/contracts-upgradeable/token/ERC20/extensions/ERC20BurnableUpgradeable.sol\":1243:1404  function burnFrom(address account, uint256 amount) public virtual {... */\n    tag_94:\n        /* \"@openzeppelin/contracts-upgradeable/token/ERC20/extensions/ERC20BurnableUpgradeable.sol\":1319:1365  _spendAllowance(account, _msgSender(), amount) */\n      tag_204\n        /* \"@openzeppelin/contracts-upgradeable/token/ERC20/extensions/ERC20BurnableUpgradeable.sol\":1335:1342  account */\n      dup3\n        /* \"@openzeppelin/contracts-upgradeable/token/ERC20/extensions/ERC20BurnableUpgradeable.sol\":1344:1356  _msgSender() */\n      tag_205\n        /* \"@openzeppelin/contracts-upgradeable/token/ERC20/extensions/ERC20BurnableUpgradeable.sol\":1344:1354  _msgSender */\n      tag_140\n        /* \"@openzeppelin/contracts-upgradeable/token/ERC20/extensions/ERC20BurnableUpgradeable.sol\":1344:1356  _msgSender() */\n      jump\t// in\n    tag_205:\n        /* \"@openzeppelin/contracts-upgradeable/token/ERC20/extensions/ERC20BurnableUpgradeable.sol\":1358:1364  amount */\n      dup4\n        /* \"@openzeppelin/contracts-upgradeable/token/ERC20/extensions/ERC20BurnableUpgradeable.sol\":1319:1334  _spendAllowance */\n      tag_147\n        /* \"@openzeppelin/contracts-upgradeable/token/ERC20/extensions/ERC20BurnableUpgradeable.sol\":1319:1365  _spendAllowance(account, _msgSender(), amount) */\n      jump\t// in\n    tag_204:\n        /* \"@openzeppelin/contracts-upgradeable/token/ERC20/extensions/ERC20BurnableUpgradeable.sol\":1375:1397  _burn(account, amount) */\n      tag_206\n        /* \"@openzeppelin/contracts-upgradeable/token/ERC20/extensions/ERC20BurnableUpgradeable.sol\":1381:1388  account */\n      dup3\n        /* \"@openzeppelin/contracts-upgradeable/token/ERC20/extensions/ERC20BurnableUpgradeable.sol\":1390:1396  amount */\n      dup3\n        /* \"@openzeppelin/contracts-upgradeable/token/ERC20/extensions/ERC20BurnableUpgradeable.sol\":1375:1380  _burn */\n      tag_182\n        /* \"@openzeppelin/contracts-upgradeable/token/ERC20/extensions/ERC20BurnableUpgradeable.sol\":1375:1397  _burn(account, amount) */\n      jump\t// in\n    tag_206:\n        /* \"@openzeppelin/contracts-upgradeable/token/ERC20/extensions/ERC20BurnableUpgradeable.sol\":1243:1404  function burnFrom(address account, uint256 amount) public virtual {... */\n      pop\n      pop\n      jump\t// out\n        /* \"Desktop/work/dao-company1/contracts/sq.sol\":698:878  function initialize() initializer public {... */\n    tag_97:\n        /* \"@openzeppelin/contracts-upgradeable/proxy/utils/Initializable.sol\":3111:3130  bool isTopLevelCall */\n      0x00\n        /* \"@openzeppelin/contracts-upgradeable/proxy/utils/Initializable.sol\":3134:3147  _initializing */\n      dup1\n      0x01\n      swap1\n      sload\n      swap1\n      0x0100\n      exp\n      swap1\n      div\n      0xff\n      and\n        /* \"@openzeppelin/contracts-upgradeable/proxy/utils/Initializable.sol\":3133:3147  !_initializing */\n      iszero\n        /* \"@openzeppelin/contracts-upgradeable/proxy/utils/Initializable.sol\":3111:3147  bool isTopLevelCall = !_initializing */\n      swap1\n      pop\n        /* \"@openzeppelin/contracts-upgradeable/proxy/utils/Initializable.sol\":3179:3193  isTopLevelCall */\n      dup1\n        /* \"@openzeppelin/contracts-upgradeable/proxy/utils/Initializable.sol\":3179:3213  isTopLevelCall && _initialized < 1 */\n      dup1\n      iszero\n      tag_208\n      jumpi\n      pop\n        /* \"@openzeppelin/contracts-upgradeable/proxy/utils/Initializable.sol\":3212:3213  1 */\n      0x01\n        /* \"@openzeppelin/contracts-upgradeable/proxy/utils/Initializable.sol\":3197:3209  _initialized */\n      0x00\n      dup1\n      sload\n      swap1\n      0x0100\n      exp\n      swap1\n      div\n      0xff\n      and\n        /* \"@openzeppelin/contracts-upgradeable/proxy/utils/Initializable.sol\":3197:3213  _initialized < 1 */\n      0xff\n      and\n      lt\n        /* \"@openzeppelin/contracts-upgradeable/proxy/utils/Initializable.sol\":3179:3213  isTopLevelCall && _initialized < 1 */\n    tag_208:\n        /* \"@openzeppelin/contracts-upgradeable/proxy/utils/Initializable.sol\":3178:3286  (isTopLevelCall && _initialized < 1) || (!AddressUpgradeable.isContract(address(this)) && _initialized == 1) */\n      dup1\n      tag_209\n      jumpi\n      pop\n        /* \"@openzeppelin/contracts-upgradeable/proxy/utils/Initializable.sol\":3220:3264  AddressUpgradeable.isContract(address(this)) */\n      tag_210\n        /* \"@openzeppelin/contracts-upgradeable/proxy/utils/Initializable.sol\":3258:3262  this */\n      address\n        /* \"@openzeppelin/contracts-upgradeable/proxy/utils/Initializable.sol\":3220:3249  AddressUpgradeable.isContract */\n      tag_211\n        /* \"@openzeppelin/contracts-upgradeable/proxy/utils/Initializable.sol\":3220:3264  AddressUpgradeable.isContract(address(this)) */\n      jump\t// in\n    tag_210:\n        /* \"@openzeppelin/contracts-upgradeable/proxy/utils/Initializable.sol\":3219:3264  !AddressUpgradeable.isContract(address(this)) */\n      iszero\n        /* \"@openzeppelin/contracts-upgradeable/proxy/utils/Initializable.sol\":3219:3285  !AddressUpgradeable.isContract(address(this)) && _initialized == 1 */\n      dup1\n      iszero\n      tag_212\n      jumpi\n      pop\n        /* \"@openzeppelin/contracts-upgradeable/proxy/utils/Initializable.sol\":3284:3285  1 */\n      0x01\n        /* \"@openzeppelin/contracts-upgradeable/proxy/utils/Initializable.sol\":3268:3280  _initialized */\n      0x00\n      dup1\n      sload\n      swap1\n      0x0100\n      exp\n      swap1\n      div\n      0xff\n      and\n        /* \"@openzeppelin/contracts-upgradeable/proxy/utils/Initializable.sol\":3268:3285  _initialized == 1 */\n      0xff\n      and\n      eq\n        /* \"@openzeppelin/contracts-upgradeable/proxy/utils/Initializable.sol\":3219:3285  !AddressUpgradeable.isContract(address(this)) && _initialized == 1 */\n    tag_212:\n        /* \"@openzeppelin/contracts-upgradeable/proxy/utils/Initializable.sol\":3178:3286  (isTopLevelCall && _initialized < 1) || (!AddressUpgradeable.isContract(address(this)) && _initialized == 1) */\n    tag_209:\n        /* \"@openzeppelin/contracts-upgradeable/proxy/utils/Initializable.sol\":3157:3358  require(... */\n      tag_213\n      jumpi\n      mload(0x40)\n      0x08c379a000000000000000000000000000000000000000000000000000000000\n      dup2\n      mstore\n      0x04\n      add\n      tag_214\n      swap1\n      tag_215\n      jump\t// in\n    tag_214:\n      mload(0x40)\n      dup1\n      swap2\n      sub\n      swap1\n      revert\n    tag_213:\n        /* \"@openzeppelin/contracts-upgradeable/proxy/utils/Initializable.sol\":3383:3384  1 */\n      0x01\n        /* \"@openzeppelin/contracts-upgradeable/proxy/utils/Initializable.sol\":3368:3380  _initialized */\n      0x00\n      dup1\n        /* \"@openzeppelin/contracts-upgradeable/proxy/utils/Initializable.sol\":3368:3384  _initialized = 1 */\n      0x0100\n      exp\n      dup2\n      sload\n      dup2\n      0xff\n      mul\n      not\n      and\n      swap1\n      dup4\n      0xff\n      and\n      mul\n      or\n      swap1\n      sstore\n      pop\n        /* \"@openzeppelin/contracts-upgradeable/proxy/utils/Initializable.sol\":3398:3412  isTopLevelCall */\n      dup1\n        /* \"@openzeppelin/contracts-upgradeable/proxy/utils/Initializable.sol\":3394:3459  if (isTopLevelCall) {... */\n      iszero\n      tag_216\n      jumpi\n        /* \"@openzeppelin/contracts-upgradeable/proxy/utils/Initializable.sol\":3444:3448  true */\n      0x01\n        /* \"@openzeppelin/contracts-upgradeable/proxy/utils/Initializable.sol\":3428:3441  _initializing */\n      0x00\n      0x01\n        /* \"@openzeppelin/contracts-upgradeable/proxy/utils/Initializable.sol\":3428:3448  _initializing = true */\n      0x0100\n      exp\n      dup2\n      sload\n      dup2\n      0xff\n      mul\n      not\n      and\n      swap1\n      dup4\n      iszero\n      iszero\n      mul\n      or\n      swap1\n      sstore\n      pop\n        /* \"@openzeppelin/contracts-upgradeable/proxy/utils/Initializable.sol\":3394:3459  if (isTopLevelCall) {... */\n    tag_216:\n        /* \"Desktop/work/dao-company1/contracts/sq.sol\":749:779  __ERC20_init(\"MyToken\", \"MTK\") */\n      tag_218\n      mload(0x40)\n      dup1\n      0x40\n      add\n      0x40\n      mstore\n      dup1\n      0x07\n      dup2\n      mstore\n      0x20\n      add\n      0x4d79546f6b656e00000000000000000000000000000000000000000000000000\n      dup2\n      mstore\n      pop\n      mload(0x40)\n      dup1\n      0x40\n      add\n      0x40\n      mstore\n      dup1\n      0x03\n      dup2\n      mstore\n      0x20\n      add\n      0x4d544b0000000000000000000000000000000000000000000000000000000000\n      dup2\n      mstore\n      pop\n        /* \"Desktop/work/dao-company1/contracts/sq.sol\":749:761  __ERC20_init */\n      tag_219\n        /* \"Desktop/work/dao-company1/contracts/sq.sol\":749:779  __ERC20_init(\"MyToken\", \"MTK\") */\n      jump\t// in\n    tag_218:\n        /* \"Desktop/work/dao-company1/contracts/sq.sol\":789:811  __ERC20Burnable_init() */\n      tag_220\n        /* \"Desktop/work/dao-company1/contracts/sq.sol\":789:809  __ERC20Burnable_init */\n      tag_221\n        /* \"Desktop/work/dao-company1/contracts/sq.sol\":789:811  __ERC20Burnable_init() */\n      jump\t// in\n    tag_220:\n        /* \"Desktop/work/dao-company1/contracts/sq.sol\":821:837  __Ownable_init() */\n      tag_222\n        /* \"Desktop/work/dao-company1/contracts/sq.sol\":821:835  __Ownable_init */\n      tag_223\n        /* \"Desktop/work/dao-company1/contracts/sq.sol\":821:837  __Ownable_init() */\n      jump\t// in\n    tag_222:\n        /* \"Desktop/work/dao-company1/contracts/sq.sol\":847:871  __UUPSUpgradeable_init() */\n      tag_224\n        /* \"Desktop/work/dao-company1/contracts/sq.sol\":847:869  __UUPSUpgradeable_init */\n      tag_225\n        /* \"Desktop/work/dao-company1/contracts/sq.sol\":847:871  __UUPSUpgradeable_init() */\n      jump\t// in\n    tag_224:\n        /* \"@openzeppelin/contracts-upgradeable/proxy/utils/Initializable.sol\":3483:3497  isTopLevelCall */\n      dup1\n        /* \"@openzeppelin/contracts-upgradeable/proxy/utils/Initializable.sol\":3479:3578  if (isTopLevelCall) {... */\n      iszero\n      tag_226\n      jumpi\n        /* \"@openzeppelin/contracts-upgradeable/proxy/utils/Initializable.sol\":3529:3534  false */\n      0x00\n        /* \"@openzeppelin/contracts-upgradeable/proxy/utils/Initializable.sol\":3513:3526  _initializing */\n      dup1\n      0x01\n        /* \"@openzeppelin/contracts-upgradeable/proxy/utils/Initializable.sol\":3513:3534  _initializing = false */\n      0x0100\n      exp\n      dup2\n      sload\n      dup2\n      0xff\n      mul\n      not\n      and\n      swap1\n      dup4\n      iszero\n      iszero\n      mul\n      or\n      swap1\n      sstore\n      pop\n        /* \"@openzeppelin/contracts-upgradeable/proxy/utils/Initializable.sol\":3553:3567  Initialized(1) */\n      0x7f26b83ff96e1f2b6a682f133852f6798a09c465da95921460cefb3847402498\n        /* \"@openzeppelin/contracts-upgradeable/proxy/utils/Initializable.sol\":3565:3566  1 */\n      0x01\n        /* \"@openzeppelin/contracts-upgradeable/proxy/utils/Initializable.sol\":3553:3567  Initialized(1) */\n      mload(0x40)\n      tag_227\n      swap2\n      swap1\n      tag_228\n      jump\t// in\n    tag_227:\n      mload(0x40)\n      dup1\n      swap2\n      sub\n      swap1\n      log1\n        /* \"@openzeppelin/contracts-upgradeable/proxy/utils/Initializable.sol\":3479:3578  if (isTopLevelCall) {... */\n    tag_226:\n        /* \"Desktop/work/dao-company1/contracts/sq.sol\":698:878  function initialize() initializer public {... */\n      pop\n      jump\t// out\n        /* \"@openzeppelin/contracts-upgradeable/access/OwnableUpgradeable.sol\":1441:1526  function owner() public view virtual returns (address) {... */\n    tag_100:\n        /* \"@openzeppelin/contracts-upgradeable/access/OwnableUpgradeable.sol\":1487:1494  address */\n      0x00\n        /* \"@openzeppelin/contracts-upgradeable/access/OwnableUpgradeable.sol\":1513:1519  _owner */\n      0x97\n      0x00\n      swap1\n      sload\n      swap1\n      0x0100\n      exp\n      swap1\n      div\n      0xffffffffffffffffffffffffffffffffffffffff\n      and\n        /* \"@openzeppelin/contracts-upgradeable/access/OwnableUpgradeable.sol\":1506:1519  return _owner */\n      swap1\n      pop\n        /* \"@openzeppelin/contracts-upgradeable/access/OwnableUpgradeable.sol\":1441:1526  function owner() public view virtual returns (address) {... */\n      swap1\n      jump\t// out\n        /* \"@openzeppelin/contracts-upgradeable/token/ERC20/ERC20Upgradeable.sol\":2704:2806  function symbol() public view virtual override returns (string memory) {... */\n    tag_105:\n        /* \"@openzeppelin/contracts-upgradeable/token/ERC20/ERC20Upgradeable.sol\":2760:2773  string memory */\n      0x60\n        /* \"@openzeppelin/contracts-upgradeable/token/ERC20/ERC20Upgradeable.sol\":2792:2799  _symbol */\n      0x37\n        /* \"@openzeppelin/contracts-upgradeable/token/ERC20/ERC20Upgradeable.sol\":2785:2799  return _symbol */\n      dup1\n      sload\n      tag_231\n      swap1\n      tag_133\n      jump\t// in\n    tag_231:\n      dup1\n      0x1f\n      add\n      0x20\n      dup1\n      swap2\n      div\n      mul\n      0x20\n      add\n      mload(0x40)\n      swap1\n      dup2\n      add\n      0x40\n      mstore\n      dup1\n      swap3\n      swap2\n      swap1\n      dup2\n      dup2\n      mstore\n      0x20\n      add\n      dup3\n      dup1\n      sload\n      tag_232\n      swap1\n      tag_133\n      jump\t// in\n    tag_232:\n      dup1\n      iszero\n      tag_233\n      jumpi\n      dup1\n      0x1f\n      lt\n      tag_234\n      jumpi\n      0x0100\n      dup1\n      dup4\n      sload\n      div\n      mul\n      dup4\n      mstore\n      swap2\n      0x20\n      add\n      swap2\n      jump(tag_233)\n    tag_234:\n      dup3\n      add\n      swap2\n      swap1\n      0x00\n      mstore\n      keccak256(0x00, 0x20)\n      swap1\n    tag_235:\n      dup2\n      sload\n      dup2\n      mstore\n      swap1\n      0x01\n      add\n      swap1\n      0x20\n      add\n      dup1\n      dup4\n      gt\n      tag_235\n      jumpi\n      dup3\n      swap1\n      sub\n      0x1f\n      and\n      dup3\n      add\n      swap2\n    tag_233:\n      pop\n      pop\n      pop\n      pop\n      pop\n      swap1\n      pop\n        /* \"@openzeppelin/contracts-upgradeable/token/ERC20/ERC20Upgradeable.sol\":2704:2806  function symbol() public view virtual override returns (string memory) {... */\n      swap1\n      jump\t// out\n        /* \"@openzeppelin/contracts-upgradeable/token/ERC20/ERC20Upgradeable.sol\":6931:7358  function decreaseAllowance(address spender, uint256 subtractedValue) public virtual returns (bool) {... */\n    tag_110:\n        /* \"@openzeppelin/contracts-upgradeable/token/ERC20/ERC20Upgradeable.sol\":7024:7028  bool */\n      0x00\n        /* \"@openzeppelin/contracts-upgradeable/token/ERC20/ERC20Upgradeable.sol\":7040:7053  address owner */\n      dup1\n        /* \"@openzeppelin/contracts-upgradeable/token/ERC20/ERC20Upgradeable.sol\":7056:7068  _msgSender() */\n      tag_237\n        /* \"@openzeppelin/contracts-upgradeable/token/ERC20/ERC20Upgradeable.sol\":7056:7066  _msgSender */\n      tag_140\n        /* \"@openzeppelin/contracts-upgradeable/token/ERC20/ERC20Upgradeable.sol\":7056:7068  _msgSender() */\n      jump\t// in\n    tag_237:\n        /* \"@openzeppelin/contracts-upgradeable/token/ERC20/ERC20Upgradeable.sol\":7040:7068  address owner = _msgSender() */\n      swap1\n      pop\n        /* \"@openzeppelin/contracts-upgradeable/token/ERC20/ERC20Upgradeable.sol\":7078:7102  uint256 currentAllowance */\n      0x00\n        /* \"@openzeppelin/contracts-upgradeable/token/ERC20/ERC20Upgradeable.sol\":7105:7130  allowance(owner, spender) */\n      tag_238\n        /* \"@openzeppelin/contracts-upgradeable/token/ERC20/ERC20Upgradeable.sol\":7115:7120  owner */\n      dup3\n        /* \"@openzeppelin/contracts-upgradeable/token/ERC20/ERC20Upgradeable.sol\":7122:7129  spender */\n      dup7\n        /* \"@openzeppelin/contracts-upgradeable/token/ERC20/ERC20Upgradeable.sol\":7105:7114  allowance */\n      tag_125\n        /* \"@openzeppelin/contracts-upgradeable/token/ERC20/ERC20Upgradeable.sol\":7105:7130  allowance(owner, spender) */\n      jump\t// in\n    tag_238:\n        /* \"@openzeppelin/contracts-upgradeable/token/ERC20/ERC20Upgradeable.sol\":7078:7130  uint256 currentAllowance = allowance(owner, spender) */\n      swap1\n      pop\n        /* \"@openzeppelin/contracts-upgradeable/token/ERC20/ERC20Upgradeable.sol\":7168:7183  subtractedValue */\n      dup4\n        /* \"@openzeppelin/contracts-upgradeable/token/ERC20/ERC20Upgradeable.sol\":7148:7164  currentAllowance */\n      dup2\n        /* \"@openzeppelin/contracts-upgradeable/token/ERC20/ERC20Upgradeable.sol\":7148:7183  currentAllowance >= subtractedValue */\n      lt\n      iszero\n        /* \"@openzeppelin/contracts-upgradeable/token/ERC20/ERC20Upgradeable.sol\":7140:7225  require(currentAllowance >= subtractedValue, \"ERC20: decreased allowance below zero\") */\n      tag_239\n      jumpi\n      mload(0x40)\n      0x08c379a000000000000000000000000000000000000000000000000000000000\n      dup2\n      mstore\n      0x04\n      add\n      tag_240\n      swap1\n      tag_241\n      jump\t// in\n    tag_240:\n      mload(0x40)\n      dup1\n      swap2\n      sub\n      swap1\n      revert\n    tag_239:\n        /* \"@openzeppelin/contracts-upgradeable/token/ERC20/ERC20Upgradeable.sol\":7259:7319  _approve(owner, spender, currentAllowance - subtractedValue) */\n      tag_242\n        /* \"@openzeppelin/contracts-upgradeable/token/ERC20/ERC20Upgradeable.sol\":7268:7273  owner */\n      dup3\n        /* \"@openzeppelin/contracts-upgradeable/token/ERC20/ERC20Upgradeable.sol\":7275:7282  spender */\n      dup7\n        /* \"@openzeppelin/contracts-upgradeable/token/ERC20/ERC20Upgradeable.sol\":7303:7318  subtractedValue */\n      dup7\n        /* \"@openzeppelin/contracts-upgradeable/token/ERC20/ERC20Upgradeable.sol\":7284:7300  currentAllowance */\n      dup5\n        /* \"@openzeppelin/contracts-upgradeable/token/ERC20/ERC20Upgradeable.sol\":7284:7318  currentAllowance - subtractedValue */\n      sub\n        /* \"@openzeppelin/contracts-upgradeable/token/ERC20/ERC20Upgradeable.sol\":7259:7267  _approve */\n      tag_142\n        /* \"@openzeppelin/contracts-upgradeable/token/ERC20/ERC20Upgradeable.sol\":7259:7319  _approve(owner, spender, currentAllowance - subtractedValue) */\n      jump\t// in\n    tag_242:\n        /* \"@openzeppelin/contracts-upgradeable/token/ERC20/ERC20Upgradeable.sol\":7347:7351  true */\n      0x01\n        /* \"@openzeppelin/contracts-upgradeable/token/ERC20/ERC20Upgradeable.sol\":7340:7351  return true */\n      swap3\n      pop\n      pop\n      pop\n        /* \"@openzeppelin/contracts-upgradeable/token/ERC20/ERC20Upgradeable.sol\":6931:7358  function decreaseAllowance(address spender, uint256 subtractedValue) public virtual returns (bool) {... */\n      swap3\n      swap2\n      pop\n      pop\n      jump\t// out\n        /* \"@openzeppelin/contracts-upgradeable/token/ERC20/ERC20Upgradeable.sol\":4066:4255  function transfer(address to, uint256 amount) public virtual override returns (bool) {... */\n    tag_115:\n        /* \"@openzeppelin/contracts-upgradeable/token/ERC20/ERC20Upgradeable.sol\":4145:4149  bool */\n      0x00\n        /* \"@openzeppelin/contracts-upgradeable/token/ERC20/ERC20Upgradeable.sol\":4161:4174  address owner */\n      dup1\n        /* \"@openzeppelin/contracts-upgradeable/token/ERC20/ERC20Upgradeable.sol\":4177:4189  _msgSender() */\n      tag_244\n        /* \"@openzeppelin/contracts-upgradeable/token/ERC20/ERC20Upgradeable.sol\":4177:4187  _msgSender */\n      tag_140\n        /* \"@openzeppelin/contracts-upgradeable/token/ERC20/ERC20Upgradeable.sol\":4177:4189  _msgSender() */\n      jump\t// in\n    tag_244:\n        /* \"@openzeppelin/contracts-upgradeable/token/ERC20/ERC20Upgradeable.sol\":4161:4189  address owner = _msgSender() */\n      swap1\n      pop\n        /* \"@openzeppelin/contracts-upgradeable/token/ERC20/ERC20Upgradeable.sol\":4199:4227  _transfer(owner, to, amount) */\n      tag_245\n        /* \"@openzeppelin/contracts-upgradeable/token/ERC20/ERC20Upgradeable.sol\":4209:4214  owner */\n      dup2\n        /* \"@openzeppelin/contracts-upgradeable/token/ERC20/ERC20Upgradeable.sol\":4216:4218  to */\n      dup6\n        /* \"@openzeppelin/contracts-upgradeable/token/ERC20/ERC20Upgradeable.sol\":4220:4226  amount */\n      dup6\n        /* \"@openzeppelin/contracts-upgradeable/token/ERC20/ERC20Upgradeable.sol\":4199:4208  _transfer */\n      tag_149\n        /* \"@openzeppelin/contracts-upgradeable/token/ERC20/ERC20Upgradeable.sol\":4199:4227  _transfer(owner, to, amount) */\n      jump\t// in\n    tag_245:\n        /* \"@openzeppelin/contracts-upgradeable/token/ERC20/ERC20Upgradeable.sol\":4244:4248  true */\n      0x01\n        /* \"@openzeppelin/contracts-upgradeable/token/ERC20/ERC20Upgradeable.sol\":4237:4248  return true */\n      swap2\n      pop\n      pop\n        /* \"@openzeppelin/contracts-upgradeable/token/ERC20/ERC20Upgradeable.sol\":4066:4255  function transfer(address to, uint256 amount) public virtual override returns (bool) {... */\n      swap3\n      swap2\n      pop\n      pop\n      jump\t// out\n        /* \"Desktop/work/dao-company1/contracts/sq.sol\":983:1078  function Tarder(address to, uint256 amount) public onlyOwner {... */\n    tag_120:\n        /* \"@openzeppelin/contracts-upgradeable/access/OwnableUpgradeable.sol\":1334:1347  _checkOwner() */\n      tag_247\n        /* \"@openzeppelin/contracts-upgradeable/access/OwnableUpgradeable.sol\":1334:1345  _checkOwner */\n      tag_175\n        /* \"@openzeppelin/contracts-upgradeable/access/OwnableUpgradeable.sol\":1334:1347  _checkOwner() */\n      jump\t// in\n    tag_247:\n        /* \"Desktop/work/dao-company1/contracts/sq.sol\":1054:1071  _mint(to, amount) */\n      tag_249\n        /* \"Desktop/work/dao-company1/contracts/sq.sol\":1060:1062  to */\n      dup3\n        /* \"Desktop/work/dao-company1/contracts/sq.sol\":1064:1070  amount */\n      dup3\n        /* \"Desktop/work/dao-company1/contracts/sq.sol\":1054:1059  _mint */\n      tag_178\n        /* \"Desktop/work/dao-company1/contracts/sq.sol\":1054:1071  _mint(to, amount) */\n      jump\t// in\n    tag_249:\n        /* \"Desktop/work/dao-company1/contracts/sq.sol\":983:1078  function Tarder(address to, uint256 amount) public onlyOwner {... */\n      pop\n      pop\n      jump\t// out\n        /* \"@openzeppelin/contracts-upgradeable/token/ERC20/ERC20Upgradeable.sol\":4313:4462  function allowance(address owner, address spender) public view virtual override returns (uint256) {... */\n    tag_125:\n        /* \"@openzeppelin/contracts-upgradeable/token/ERC20/ERC20Upgradeable.sol\":4402:4409  uint256 */\n      0x00\n        /* \"@openzeppelin/contracts-upgradeable/token/ERC20/ERC20Upgradeable.sol\":4428:4439  _allowances */\n      0x34\n        /* \"@openzeppelin/contracts-upgradeable/token/ERC20/ERC20Upgradeable.sol\":4428:4446  _allowances[owner] */\n      0x00\n        /* \"@openzeppelin/contracts-upgradeable/token/ERC20/ERC20Upgradeable.sol\":4440:4445  owner */\n      dup5\n        /* \"@openzeppelin/contracts-upgradeable/token/ERC20/ERC20Upgradeable.sol\":4428:4446  _allowances[owner] */\n      0xffffffffffffffffffffffffffffffffffffffff\n      and\n      0xffffffffffffffffffffffffffffffffffffffff\n      and\n      dup2\n      mstore\n      0x20\n      add\n      swap1\n      dup2\n      mstore\n      0x20\n      add\n      0x00\n      keccak256\n        /* \"@openzeppelin/contracts-upgradeable/token/ERC20/ERC20Upgradeable.sol\":4428:4455  _allowances[owner][spender] */\n      0x00\n        /* \"@openzeppelin/contracts-upgradeable/token/ERC20/ERC20Upgradeable.sol\":4447:4454  spender */\n      dup4\n        /* \"@openzeppelin/contracts-upgradeable/token/ERC20/ERC20Upgradeable.sol\":4428:4455  _allowances[owner][spender] */\n      0xffffffffffffffffffffffffffffffffffffffff\n      and\n      0xffffffffffffffffffffffffffffffffffffffff\n      and\n      dup2\n      mstore\n      0x20\n      add\n      swap1\n      dup2\n      mstore\n      0x20\n      add\n      0x00\n      keccak256\n      sload\n        /* \"@openzeppelin/contracts-upgradeable/token/ERC20/ERC20Upgradeable.sol\":4421:4455  return _allowances[owner][spender] */\n      swap1\n      pop\n        /* \"@openzeppelin/contracts-upgradeable/token/ERC20/ERC20Upgradeable.sol\":4313:4462  function allowance(address owner, address spender) public view virtual override returns (uint256) {... */\n      swap3\n      swap2\n      pop\n      pop\n      jump\t// out\n        /* \"@openzeppelin/contracts-upgradeable/access/OwnableUpgradeable.sol\":2321:2519  function transferOwnership(address newOwner) public virtual onlyOwner {... */\n    tag_130:\n        /* \"@openzeppelin/contracts-upgradeable/access/OwnableUpgradeable.sol\":1334:1347  _checkOwner() */\n      tag_252\n        /* \"@openzeppelin/contracts-upgradeable/access/OwnableUpgradeable.sol\":1334:1345  _checkOwner */\n      tag_175\n        /* \"@openzeppelin/contracts-upgradeable/access/OwnableUpgradeable.sol\":1334:1347  _checkOwner() */\n      jump\t// in\n    tag_252:\n        /* \"@openzeppelin/contracts-upgradeable/access/OwnableUpgradeable.sol\":2429:2430  0 */\n      0x00\n        /* \"@openzeppelin/contracts-upgradeable/access/OwnableUpgradeable.sol\":2409:2431  newOwner != address(0) */\n      0xffffffffffffffffffffffffffffffffffffffff\n      and\n        /* \"@openzeppelin/contracts-upgradeable/access/OwnableUpgradeable.sol\":2409:2417  newOwner */\n      dup2\n        /* \"@openzeppelin/contracts-upgradeable/access/OwnableUpgradeable.sol\":2409:2431  newOwner != address(0) */\n      0xffffffffffffffffffffffffffffffffffffffff\n      and\n      eq\n      iszero\n        /* \"@openzeppelin/contracts-upgradeable/access/OwnableUpgradeable.sol\":2401:2474  require(newOwner != address(0), \"Ownable: new owner is the zero address\") */\n      tag_254\n      jumpi\n      mload(0x40)\n      0x08c379a000000000000000000000000000000000000000000000000000000000\n      dup2\n      mstore\n      0x04\n      add\n      tag_255\n      swap1\n      tag_256\n      jump\t// in\n    tag_255:\n      mload(0x40)\n      dup1\n      swap2\n      sub\n      swap1\n      revert\n    tag_254:\n        /* \"@openzeppelin/contracts-upgradeable/access/OwnableUpgradeable.sol\":2484:2512  _transferOwnership(newOwner) */\n      tag_257\n        /* \"@openzeppelin/contracts-upgradeable/access/OwnableUpgradeable.sol\":2503:2511  newOwner */\n      dup2\n        /* \"@openzeppelin/contracts-upgradeable/access/OwnableUpgradeable.sol\":2484:2502  _transferOwnership */\n      tag_202\n        /* \"@openzeppelin/contracts-upgradeable/access/OwnableUpgradeable.sol\":2484:2512  _transferOwnership(newOwner) */\n      jump\t// in\n    tag_257:\n        /* \"@openzeppelin/contracts-upgradeable/access/OwnableUpgradeable.sol\":2321:2519  function transferOwnership(address newOwner) public virtual onlyOwner {... */\n      pop\n      jump\t// out\n        /* \"@openzeppelin/contracts-upgradeable/utils/ContextUpgradeable.sol\":850:946  function _msgSender() internal view virtual returns (address) {... */\n    tag_140:\n        /* \"@openzeppelin/contracts-upgradeable/utils/ContextUpgradeable.sol\":903:910  address */\n      0x00\n        /* \"@openzeppelin/contracts-upgradeable/utils/ContextUpgradeable.sol\":929:939  msg.sender */\n      caller\n        /* \"@openzeppelin/contracts-upgradeable/utils/ContextUpgradeable.sol\":922:939  return msg.sender */\n      swap1\n      pop\n        /* \"@openzeppelin/contracts-upgradeable/utils/ContextUpgradeable.sol\":850:946  function _msgSender() internal view virtual returns (address) {... */\n      swap1\n      jump\t// out\n        /* \"@openzeppelin/contracts-upgradeable/token/ERC20/ERC20Upgradeable.sol\":10447:10817  function _approve(... */\n    tag_142:\n        /* \"@openzeppelin/contracts-upgradeable/token/ERC20/ERC20Upgradeable.sol\":10595:10596  0 */\n      0x00\n        /* \"@openzeppelin/contracts-upgradeable/token/ERC20/ERC20Upgradeable.sol\":10578:10597  owner != address(0) */\n      0xffffffffffffffffffffffffffffffffffffffff\n      and\n        /* \"@openzeppelin/contracts-upgradeable/token/ERC20/ERC20Upgradeable.sol\":10578:10583  owner */\n      dup4\n        /* \"@openzeppelin/contracts-upgradeable/token/ERC20/ERC20Upgradeable.sol\":10578:10597  owner != address(0) */\n      0xffffffffffffffffffffffffffffffffffffffff\n      and\n      eq\n      iszero\n        /* \"@openzeppelin/contracts-upgradeable/token/ERC20/ERC20Upgradeable.sol\":10570:10638  require(owner != address(0), \"ERC20: approve from the zero address\") */\n      tag_260\n      jumpi\n      mload(0x40)\n      0x08c379a000000000000000000000000000000000000000000000000000000000\n      dup2\n      mstore\n      0x04\n      add\n      tag_261\n      swap1\n      tag_262\n      jump\t// in\n    tag_261:\n      mload(0x40)\n      dup1\n      swap2\n      sub\n      swap1\n      revert\n    tag_260:\n        /* \"@openzeppelin/contracts-upgradeable/token/ERC20/ERC20Upgradeable.sol\":10675:10676  0 */\n      0x00\n        /* \"@openzeppelin/contracts-upgradeable/token/ERC20/ERC20Upgradeable.sol\":10656:10677  spender != address(0) */\n      0xffffffffffffffffffffffffffffffffffffffff\n      and\n        /* \"@openzeppelin/contracts-upgradeable/token/ERC20/ERC20Upgradeable.sol\":10656:10663  spender */\n      dup3\n        /* \"@openzeppelin/contracts-upgradeable/token/ERC20/ERC20Upgradeable.sol\":10656:10677  spender != address(0) */\n      0xffffffffffffffffffffffffffffffffffffffff\n      and\n      eq\n      iszero\n        /* \"@openzeppelin/contracts-upgradeable/token/ERC20/ERC20Upgradeable.sol\":10648:10716  require(spender != address(0), \"ERC20: approve to the zero address\") */\n      tag_263\n      jumpi\n      mload(0x40)\n      0x08c379a000000000000000000000000000000000000000000000000000000000\n      dup2\n      mstore\n      0x04\n      add\n      tag_264\n      swap1\n      tag_265\n      jump\t// in\n    tag_264:\n      mload(0x40)\n      dup1\n      swap2\n      sub\n      swap1\n      revert\n    tag_263:\n        /* \"@openzeppelin/contracts-upgradeable/token/ERC20/ERC20Upgradeable.sol\":10757:10763  amount */\n      dup1\n        /* \"@openzeppelin/contracts-upgradeable/token/ERC20/ERC20Upgradeable.sol\":10727:10738  _allowances */\n      0x34\n        /* \"@openzeppelin/contracts-upgradeable/token/ERC20/ERC20Upgradeable.sol\":10727:10745  _allowances[owner] */\n      0x00\n        /* \"@openzeppelin/contracts-upgradeable/token/ERC20/ERC20Upgradeable.sol\":10739:10744  owner */\n      dup6\n        /* \"@openzeppelin/contracts-upgradeable/token/ERC20/ERC20Upgradeable.sol\":10727:10745  _allowances[owner] */\n      0xffffffffffffffffffffffffffffffffffffffff\n      and\n      0xffffffffffffffffffffffffffffffffffffffff\n      and\n      dup2\n      mstore\n      0x20\n      add\n      swap1\n      dup2\n      mstore\n      0x20\n      add\n      0x00\n      keccak256\n        /* \"@openzeppelin/contracts-upgradeable/token/ERC20/ERC20Upgradeable.sol\":10727:10754  _allowances[owner][spender] */\n      0x00\n        /* \"@openzeppelin/contracts-upgradeable/token/ERC20/ERC20Upgradeable.sol\":10746:10753  spender */\n      dup5\n        /* \"@openzeppelin/contracts-upgradeable/token/ERC20/ERC20Upgradeable.sol\":10727:10754  _allowances[owner][spender] */\n      0xffffffffffffffffffffffffffffffffffffffff\n      and\n      0xffffffffffffffffffffffffffffffffffffffff\n      and\n      dup2\n      mstore\n      0x20\n      add\n      swap1\n      dup2\n      mstore\n      0x20\n      add\n      0x00\n      keccak256\n        /* \"@openzeppelin/contracts-upgradeable/token/ERC20/ERC20Upgradeable.sol\":10727:10763  _allowances[owner][spender] = amount */\n      dup2\n      swap1\n      sstore\n      pop\n        /* \"@openzeppelin/contracts-upgradeable/token/ERC20/ERC20Upgradeable.sol\":10794:10801  spender */\n      dup2\n        /* \"@openzeppelin/contracts-upgradeable/token/ERC20/ERC20Upgradeable.sol\":10778:10810  Approval(owner, spender, amount) */\n      0xffffffffffffffffffffffffffffffffffffffff\n      and\n        /* \"@openzeppelin/contracts-upgradeable/token/ERC20/ERC20Upgradeable.sol\":10787:10792  owner */\n      dup4\n        /* \"@openzeppelin/contracts-upgradeable/token/ERC20/ERC20Upgradeable.sol\":10778:10810  Approval(owner, spender, amount) */\n      0xffffffffffffffffffffffffffffffffffffffff\n      and\n      0x8c5be1e5ebec7d5bd14f71427d1e84f3dd0314c0f7b2291e5b200ac8c7c3b925\n        /* \"@openzeppelin/contracts-upgradeable/token/ERC20/ERC20Upgradeable.sol\":10803:10809  amount */\n      dup4\n        /* \"@openzeppelin/contracts-upgradeable/token/ERC20/ERC20Upgradeable.sol\":10778:10810  Approval(owner, spender, amount) */\n      mload(0x40)\n      tag_266\n      swap2\n      swap1\n      tag_43\n      jump\t// in\n    tag_266:\n      mload(0x40)\n      dup1\n      swap2\n      sub\n      swap1\n      log3\n        /* \"@openzeppelin/contracts-upgradeable/token/ERC20/ERC20Upgradeable.sol\":10447:10817  function _approve(... */\n      pop\n      pop\n      pop\n      jump\t// out\n        /* \"@openzeppelin/contracts-upgradeable/token/ERC20/ERC20Upgradeable.sol\":11098:11539  function _spendAllowance(... */\n    tag_147:\n        /* \"@openzeppelin/contracts-upgradeable/token/ERC20/ERC20Upgradeable.sol\":11228:11252  uint256 currentAllowance */\n      0x00\n        /* \"@openzeppelin/contracts-upgradeable/token/ERC20/ERC20Upgradeable.sol\":11255:11280  allowance(owner, spender) */\n      tag_268\n        /* \"@openzeppelin/contracts-upgradeable/token/ERC20/ERC20Upgradeable.sol\":11265:11270  owner */\n      dup5\n        /* \"@openzeppelin/contracts-upgradeable/token/ERC20/ERC20Upgradeable.sol\":11272:11279  spender */\n      dup5\n        /* \"@openzeppelin/contracts-upgradeable/token/ERC20/ERC20Upgradeable.sol\":11255:11264  allowance */\n      tag_125\n        /* \"@openzeppelin/contracts-upgradeable/token/ERC20/ERC20Upgradeable.sol\":11255:11280  allowance(owner, spender) */\n      jump\t// in\n    tag_268:\n        /* \"@openzeppelin/contracts-upgradeable/token/ERC20/ERC20Upgradeable.sol\":11228:11280  uint256 currentAllowance = allowance(owner, spender) */\n      swap1\n      pop\n        /* \"@openzeppelin/contracts-upgradeable/token/ERC20/ERC20Upgradeable.sol\":11314:11331  type(uint256).max */\n      0xffffffffffffffffffffffffffffffffffffffffffffffffffffffffffffffff\n        /* \"@openzeppelin/contracts-upgradeable/token/ERC20/ERC20Upgradeable.sol\":11294:11310  currentAllowance */\n      dup2\n        /* \"@openzeppelin/contracts-upgradeable/token/ERC20/ERC20Upgradeable.sol\":11294:11331  currentAllowance != type(uint256).max */\n      eq\n        /* \"@openzeppelin/contracts-upgradeable/token/ERC20/ERC20Upgradeable.sol\":11290:11533  if (currentAllowance != type(uint256).max) {... */\n      tag_269\n      jumpi\n        /* \"@openzeppelin/contracts-upgradeable/token/ERC20/ERC20Upgradeable.sol\":11375:11381  amount */\n      dup2\n        /* \"@openzeppelin/contracts-upgradeable/token/ERC20/ERC20Upgradeable.sol\":11355:11371  currentAllowance */\n      dup2\n        /* \"@openzeppelin/contracts-upgradeable/token/ERC20/ERC20Upgradeable.sol\":11355:11381  currentAllowance >= amount */\n      lt\n      iszero\n        /* \"@openzeppelin/contracts-upgradeable/token/ERC20/ERC20Upgradeable.sol\":11347:11415  require(currentAllowance >= amount, \"ERC20: insufficient allowance\") */\n      tag_270\n      jumpi\n      mload(0x40)\n      0x08c379a000000000000000000000000000000000000000000000000000000000\n      dup2\n      mstore\n      0x04\n      add\n      tag_271\n      swap1\n      tag_272\n      jump\t// in\n    tag_271:\n      mload(0x40)\n      dup1\n      swap2\n      sub\n      swap1\n      revert\n    tag_270:\n        /* \"@openzeppelin/contracts-upgradeable/token/ERC20/ERC20Upgradeable.sol\":11457:11508  _approve(owner, spender, currentAllowance - amount) */\n      tag_273\n        /* \"@openzeppelin/contracts-upgradeable/token/ERC20/ERC20Upgradeable.sol\":11466:11471  owner */\n      dup5\n        /* \"@openzeppelin/contracts-upgradeable/token/ERC20/ERC20Upgradeable.sol\":11473:11480  spender */\n      dup5\n        /* \"@openzeppelin/contracts-upgradeable/token/ERC20/ERC20Upgradeable.sol\":11501:11507  amount */\n      dup5\n        /* \"@openzeppelin/contracts-upgradeable/token/ERC20/ERC20Upgradeable.sol\":11482:11498  currentAllowance */\n      dup5\n        /* \"@openzeppelin/contracts-upgradeable/token/ERC20/ERC20Upgradeable.sol\":11482:11507  currentAllowance - amount */\n      sub\n        /* \"@openzeppelin/contracts-upgradeable/token/ERC20/ERC20Upgradeable.sol\":11457:11465  _approve */\n      tag_142\n        /* \"@openzeppelin/contracts-upgradeable/token/ERC20/ERC20Upgradeable.sol\":11457:11508  _approve(owner, spender, currentAllowance - amount) */\n      jump\t// in\n    tag_273:\n        /* \"@openzeppelin/contracts-upgradeable/token/ERC20/ERC20Upgradeable.sol\":11290:11533  if (currentAllowance != type(uint256).max) {... */\n    tag_269:\n        /* \"@openzeppelin/contracts-upgradeable/token/ERC20/ERC20Upgradeable.sol\":11098:11539  function _spendAllowance(... */\n      pop\n      pop\n      pop\n      pop\n      jump\t// out\n        /* \"@openzeppelin/contracts-upgradeable/token/ERC20/ERC20Upgradeable.sol\":7812:8463  function _transfer(... */\n    tag_149:\n        /* \"@openzeppelin/contracts-upgradeable/token/ERC20/ERC20Upgradeable.sol\":7954:7955  0 */\n      0x00\n        /* \"@openzeppelin/contracts-upgradeable/token/ERC20/ERC20Upgradeable.sol\":7938:7956  from != address(0) */\n      0xffffffffffffffffffffffffffffffffffffffff\n      and\n        /* \"@openzeppelin/contracts-upgradeable/token/ERC20/ERC20Upgradeable.sol\":7938:7942  from */\n      dup4\n        /* \"@openzeppelin/contracts-upgradeable/token/ERC20/ERC20Upgradeable.sol\":7938:7956  from != address(0) */\n      0xffffffffffffffffffffffffffffffffffffffff\n      and\n      eq\n      iszero\n        /* \"@openzeppelin/contracts-upgradeable/token/ERC20/ERC20Upgradeable.sol\":7930:7998  require(from != address(0), \"ERC20: transfer from the zero address\") */\n      tag_275\n      jumpi\n      mload(0x40)\n      0x08c379a000000000000000000000000000000000000000000000000000000000\n      dup2\n      mstore\n      0x04\n      add\n      tag_276\n      swap1\n      tag_277\n      jump\t// in\n    tag_276:\n      mload(0x40)\n      dup1\n      swap2\n      sub\n      swap1\n      revert\n    tag_275:\n        /* \"@openzeppelin/contracts-upgradeable/token/ERC20/ERC20Upgradeable.sol\":8030:8031  0 */\n      0x00\n        /* \"@openzeppelin/contracts-upgradeable/token/ERC20/ERC20Upgradeable.sol\":8016:8032  to != address(0) */\n      0xffffffffffffffffffffffffffffffffffffffff\n      and\n        /* \"@openzeppelin/contracts-upgradeable/token/ERC20/ERC20Upgradeable.sol\":8016:8018  to */\n      dup3\n        /* \"@openzeppelin/contracts-upgradeable/token/ERC20/ERC20Upgradeable.sol\":8016:8032  to != address(0) */\n      0xffffffffffffffffffffffffffffffffffffffff\n      and\n      eq\n      iszero\n        /* \"@openzeppelin/contracts-upgradeable/token/ERC20/ERC20Upgradeable.sol\":8008:8072  require(to != address(0), \"ERC20: transfer to the zero address\") */\n      tag_278\n      jumpi\n      mload(0x40)\n      0x08c379a000000000000000000000000000000000000000000000000000000000\n      dup2\n      mstore\n      0x04\n      add\n      tag_279\n      swap1\n      tag_280\n      jump\t// in\n    tag_279:\n      mload(0x40)\n      dup1\n      swap2\n      sub\n      swap1\n      revert\n    tag_278:\n        /* \"@openzeppelin/contracts-upgradeable/token/ERC20/ERC20Upgradeable.sol\":8083:8121  _beforeTokenTransfer(from, to, amount) */\n      tag_281\n        /* \"@openzeppelin/contracts-upgradeable/token/ERC20/ERC20Upgradeable.sol\":8104:8108  from */\n      dup4\n        /* \"@openzeppelin/contracts-upgradeable/token/ERC20/ERC20Upgradeable.sol\":8110:8112  to */\n      dup4\n        /* \"@openzeppelin/contracts-upgradeable/token/ERC20/ERC20Upgradeable.sol\":8114:8120  amount */\n      dup4\n        /* \"@openzeppelin/contracts-upgradeable/token/ERC20/ERC20Upgradeable.sol\":8083:8103  _beforeTokenTransfer */\n      tag_282\n        /* \"@openzeppelin/contracts-upgradeable/token/ERC20/ERC20Upgradeable.sol\":8083:8121  _beforeTokenTransfer(from, to, amount) */\n      jump\t// in\n    tag_281:\n        /* \"@openzeppelin/contracts-upgradeable/token/ERC20/ERC20Upgradeable.sol\":8132:8151  uint256 fromBalance */\n      0x00\n        /* \"@openzeppelin/contracts-upgradeable/token/ERC20/ERC20Upgradeable.sol\":8154:8163  _balances */\n      0x33\n        /* \"@openzeppelin/contracts-upgradeable/token/ERC20/ERC20Upgradeable.sol\":8154:8169  _balances[from] */\n      0x00\n        /* \"@openzeppelin/contracts-upgradeable/token/ERC20/ERC20Upgradeable.sol\":8164:8168  from */\n      dup6\n        /* \"@openzeppelin/contracts-upgradeable/token/ERC20/ERC20Upgradeable.sol\":8154:8169  _balances[from] */\n      0xffffffffffffffffffffffffffffffffffffffff\n      and\n      0xffffffffffffffffffffffffffffffffffffffff\n      and\n      dup2\n      mstore\n      0x20\n      add\n      swap1\n      dup2\n      mstore\n      0x20\n      add\n      0x00\n      keccak256\n      sload\n        /* \"@openzeppelin/contracts-upgradeable/token/ERC20/ERC20Upgradeable.sol\":8132:8169  uint256 fromBalance = _balances[from] */\n      swap1\n      pop\n        /* \"@openzeppelin/contracts-upgradeable/token/ERC20/ERC20Upgradeable.sol\":8202:8208  amount */\n      dup2\n        /* \"@openzeppelin/contracts-upgradeable/token/ERC20/ERC20Upgradeable.sol\":8187:8198  fromBalance */\n      dup2\n        /* \"@openzeppelin/contracts-upgradeable/token/ERC20/ERC20Upgradeable.sol\":8187:8208  fromBalance >= amount */\n      lt\n      iszero\n        /* \"@openzeppelin/contracts-upgradeable/token/ERC20/ERC20Upgradeable.sol\":8179:8251  require(fromBalance >= amount, \"ERC20: transfer amount exceeds balance\") */\n      tag_283\n      jumpi\n      mload(0x40)\n      0x08c379a000000000000000000000000000000000000000000000000000000000\n      dup2\n      mstore\n      0x04\n      add\n      tag_284\n      swap1\n      tag_285\n      jump\t// in\n    tag_284:\n      mload(0x40)\n      dup1\n      swap2\n      sub\n      swap1\n      revert\n    tag_283:\n        /* \"@openzeppelin/contracts-upgradeable/token/ERC20/ERC20Upgradeable.sol\":8317:8323  amount */\n      dup2\n        /* \"@openzeppelin/contracts-upgradeable/token/ERC20/ERC20Upgradeable.sol\":8303:8314  fromBalance */\n      dup2\n        /* \"@openzeppelin/contracts-upgradeable/token/ERC20/ERC20Upgradeable.sol\":8303:8323  fromBalance - amount */\n      sub\n        /* \"@openzeppelin/contracts-upgradeable/token/ERC20/ERC20Upgradeable.sol\":8285:8294  _balances */\n      0x33\n        /* \"@openzeppelin/contracts-upgradeable/token/ERC20/ERC20Upgradeable.sol\":8285:8300  _balances[from] */\n      0x00\n        /* \"@openzeppelin/contracts-upgradeable/token/ERC20/ERC20Upgradeable.sol\":8295:8299  from */\n      dup7\n        /* \"@openzeppelin/contracts-upgradeable/token/ERC20/ERC20Upgradeable.sol\":8285:8300  _balances[from] */\n      0xffffffffffffffffffffffffffffffffffffffff\n      and\n      0xffffffffffffffffffffffffffffffffffffffff\n      and\n      dup2\n      mstore\n      0x20\n      add\n      swap1\n      dup2\n      mstore\n      0x20\n      add\n      0x00\n      keccak256\n        /* \"@openzeppelin/contracts-upgradeable/token/ERC20/ERC20Upgradeable.sol\":8285:8323  _balances[from] = fromBalance - amount */\n      dup2\n      swap1\n      sstore\n      pop\n        /* \"@openzeppelin/contracts-upgradeable/token/ERC20/ERC20Upgradeable.sol\":8360:8366  amount */\n      dup2\n        /* \"@openzeppelin/contracts-upgradeable/token/ERC20/ERC20Upgradeable.sol\":8343:8352  _balances */\n      0x33\n        /* \"@openzeppelin/contracts-upgradeable/token/ERC20/ERC20Upgradeable.sol\":8343:8356  _balances[to] */\n      0x00\n        /* \"@openzeppelin/contracts-upgradeable/token/ERC20/ERC20Upgradeable.sol\":8353:8355  to */\n      dup6\n        /* \"@openzeppelin/contracts-upgradeable/token/ERC20/ERC20Upgradeable.sol\":8343:8356  _balances[to] */\n      0xffffffffffffffffffffffffffffffffffffffff\n      and\n      0xffffffffffffffffffffffffffffffffffffffff\n      and\n      dup2\n      mstore\n      0x20\n      add\n      swap1\n      dup2\n      mstore\n      0x20\n      add\n      0x00\n      keccak256\n      0x00\n        /* \"@openzeppelin/contracts-upgradeable/token/ERC20/ERC20Upgradeable.sol\":8343:8366  _balances[to] += amount */\n      dup3\n      dup3\n      sload\n      tag_286\n      swap2\n      swap1\n      tag_172\n      jump\t// in\n    tag_286:\n      swap3\n      pop\n      pop\n      dup2\n      swap1\n      sstore\n      pop\n        /* \"@openzeppelin/contracts-upgradeable/token/ERC20/ERC20Upgradeable.sol\":8397:8399  to */\n      dup3\n        /* \"@openzeppelin/contracts-upgradeable/token/ERC20/ERC20Upgradeable.sol\":8382:8408  Transfer(from, to, amount) */\n      0xffffffffffffffffffffffffffffffffffffffff\n      and\n        /* \"@openzeppelin/contracts-upgradeable/token/ERC20/ERC20Upgradeable.sol\":8391:8395  from */\n      dup5\n        /* \"@openzeppelin/contracts-upgradeable/token/ERC20/ERC20Upgradeable.sol\":8382:8408  Transfer(from, to, amount) */\n      0xffffffffffffffffffffffffffffffffffffffff\n      and\n      0xddf252ad1be2c89b69c2b068fc378daa952ba7f163c4a11628f55a4df523b3ef\n        /* \"@openzeppelin/contracts-upgradeable/token/ERC20/ERC20Upgradeable.sol\":8401:8407  amount */\n      dup5\n        /* \"@openzeppelin/contracts-upgradeable/token/ERC20/ERC20Upgradeable.sol\":8382:8408  Transfer(from, to, amount) */\n      mload(0x40)\n      tag_287\n      swap2\n      swap1\n      tag_43\n      jump\t// in\n    tag_287:\n      mload(0x40)\n      dup1\n      swap2\n      sub\n      swap1\n      log3\n        /* \"@openzeppelin/contracts-upgradeable/token/ERC20/ERC20Upgradeable.sol\":8419:8456  _afterTokenTransfer(from, to, amount) */\n      tag_288\n        /* \"@openzeppelin/contracts-upgradeable/token/ERC20/ERC20Upgradeable.sol\":8439:8443  from */\n      dup5\n        /* \"@openzeppelin/contracts-upgradeable/token/ERC20/ERC20Upgradeable.sol\":8445:8447  to */\n      dup5\n        /* \"@openzeppelin/contracts-upgradeable/token/ERC20/ERC20Upgradeable.sol\":8449:8455  amount */\n      dup5\n        /* \"@openzeppelin/contracts-upgradeable/token/ERC20/ERC20Upgradeable.sol\":8419:8438  _afterTokenTransfer */\n      tag_289\n        /* \"@openzeppelin/contracts-upgradeable/token/ERC20/ERC20Upgradeable.sol\":8419:8456  _afterTokenTransfer(from, to, amount) */\n      jump\t// in\n    tag_288:\n        /* \"@openzeppelin/contracts-upgradeable/token/ERC20/ERC20Upgradeable.sol\":7812:8463  function _transfer(... */\n      pop\n      pop\n      pop\n      pop\n      jump\t// out\n        /* \"@openzeppelin/contracts-upgradeable/proxy/ERC1967/ERC1967UpgradeUpgradeable.sol\":1563:1714  function _getImplementation() internal view returns (address) {... */\n    tag_156:\n        /* \"@openzeppelin/contracts-upgradeable/proxy/ERC1967/ERC1967UpgradeUpgradeable.sol\":1616:1623  address */\n      0x00\n        /* \"@openzeppelin/contracts-upgradeable/proxy/ERC1967/ERC1967UpgradeUpgradeable.sol\":1642:1701  StorageSlotUpgradeable.getAddressSlot(_IMPLEMENTATION_SLOT) */\n      tag_291\n        /* \"@openzeppelin/contracts-upgradeable/proxy/ERC1967/ERC1967UpgradeUpgradeable.sol\":1292:1358  0x360894a13ba1a3210667c828492db98dca3e2076cc3735a920a3ca505d382bbc */\n      0x360894a13ba1a3210667c828492db98dca3e2076cc3735a920a3ca505d382bbc\n        /* \"@openzeppelin/contracts-upgradeable/proxy/ERC1967/ERC1967UpgradeUpgradeable.sol\":1680:1700  _IMPLEMENTATION_SLOT */\n      0x00\n      shl\n        /* \"@openzeppelin/contracts-upgradeable/proxy/ERC1967/ERC1967UpgradeUpgradeable.sol\":1642:1679  StorageSlotUpgradeable.getAddressSlot */\n      tag_292\n        /* \"@openzeppelin/contracts-upgradeable/proxy/ERC1967/ERC1967UpgradeUpgradeable.sol\":1642:1701  StorageSlotUpgradeable.getAddressSlot(_IMPLEMENTATION_SLOT) */\n      jump\t// in\n    tag_291:\n        /* \"@openzeppelin/contracts-upgradeable/proxy/ERC1967/ERC1967UpgradeUpgradeable.sol\":1642:1707  StorageSlotUpgradeable.getAddressSlot(_IMPLEMENTATION_SLOT).value */\n      0x00\n      add\n      0x00\n      swap1\n      sload\n      swap1\n      0x0100\n      exp\n      swap1\n      div\n      0xffffffffffffffffffffffffffffffffffffffff\n      and\n        /* \"@openzeppelin/contracts-upgradeable/proxy/ERC1967/ERC1967UpgradeUpgradeable.sol\":1635:1707  return StorageSlotUpgradeable.getAddressSlot(_IMPLEMENTATION_SLOT).value */\n      swap1\n      pop\n        /* \"@openzeppelin/contracts-upgradeable/proxy/ERC1967/ERC1967UpgradeUpgradeable.sol\":1563:1714  function _getImplementation() internal view returns (address) {... */\n      swap1\n      jump\t// out\n        /* \"Desktop/work/dao-company1/contracts/sq.sol\":1084:1196  function _authorizeUpgrade(address newImplementation)... */\n    tag_162:\n        /* \"@openzeppelin/contracts-upgradeable/access/OwnableUpgradeable.sol\":1334:1347  _checkOwner() */\n      tag_294\n        /* \"@openzeppelin/contracts-upgradeable/access/OwnableUpgradeable.sol\":1334:1345  _checkOwner */\n      tag_175\n        /* \"@openzeppelin/contracts-upgradeable/access/OwnableUpgradeable.sol\":1334:1347  _checkOwner() */\n      jump\t// in\n    tag_294:\n        /* \"Desktop/work/dao-company1/contracts/sq.sol\":1084:1196  function _authorizeUpgrade(address newImplementation)... */\n      pop\n      jump\t// out\n        /* \"@openzeppelin/contracts-upgradeable/proxy/ERC1967/ERC1967UpgradeUpgradeable.sol\":2938:3912  function _upgradeToAndCallUUPS(... */\n    tag_166:\n        /* \"@openzeppelin/contracts-upgradeable/proxy/ERC1967/ERC1967UpgradeUpgradeable.sol\":3384:3437  StorageSlotUpgradeable.getBooleanSlot(_ROLLBACK_SLOT) */\n      tag_297\n        /* \"@openzeppelin/contracts-upgradeable/proxy/ERC1967/ERC1967UpgradeUpgradeable.sol\":951:1017  0x4910fdfa16fed3260ed0e7147f7cc6da11a60208b5b9406d12a635614ffd9143 */\n      0x4910fdfa16fed3260ed0e7147f7cc6da11a60208b5b9406d12a635614ffd9143\n        /* \"@openzeppelin/contracts-upgradeable/proxy/ERC1967/ERC1967UpgradeUpgradeable.sol\":3422:3436  _ROLLBACK_SLOT */\n      0x00\n      shl\n        /* \"@openzeppelin/contracts-upgradeable/proxy/ERC1967/ERC1967UpgradeUpgradeable.sol\":3384:3421  StorageSlotUpgradeable.getBooleanSlot */\n      tag_298\n        /* \"@openzeppelin/contracts-upgradeable/proxy/ERC1967/ERC1967UpgradeUpgradeable.sol\":3384:3437  StorageSlotUpgradeable.getBooleanSlot(_ROLLBACK_SLOT) */\n      jump\t// in\n    tag_297:\n        /* \"@openzeppelin/contracts-upgradeable/proxy/ERC1967/ERC1967UpgradeUpgradeable.sol\":3384:3443  StorageSlotUpgradeable.getBooleanSlot(_ROLLBACK_SLOT).value */\n      0x00\n      add\n      0x00\n      swap1\n      sload\n      swap1\n      0x0100\n      exp\n      swap1\n      div\n      0xff\n      and\n        /* \"@openzeppelin/contracts-upgradeable/proxy/ERC1967/ERC1967UpgradeUpgradeable.sol\":3380:3906  if (StorageSlotUpgradeable.getBooleanSlot(_ROLLBACK_SLOT).value) {... */\n      iszero\n      tag_299\n      jumpi\n        /* \"@openzeppelin/contracts-upgradeable/proxy/ERC1967/ERC1967UpgradeUpgradeable.sol\":3459:3496  _setImplementation(newImplementation) */\n      tag_300\n        /* \"@openzeppelin/contracts-upgradeable/proxy/ERC1967/ERC1967UpgradeUpgradeable.sol\":3478:3495  newImplementation */\n      dup4\n        /* \"@openzeppelin/contracts-upgradeable/proxy/ERC1967/ERC1967UpgradeUpgradeable.sol\":3459:3477  _setImplementation */\n      tag_301\n        /* \"@openzeppelin/contracts-upgradeable/proxy/ERC1967/ERC1967UpgradeUpgradeable.sol\":3459:3496  _setImplementation(newImplementation) */\n      jump\t// in\n    tag_300:\n        /* \"@openzeppelin/contracts-upgradeable/proxy/ERC1967/ERC1967UpgradeUpgradeable.sol\":3380:3906  if (StorageSlotUpgradeable.getBooleanSlot(_ROLLBACK_SLOT).value) {... */\n      jump(tag_302)\n    tag_299:\n        /* \"@openzeppelin/contracts-upgradeable/proxy/ERC1967/ERC1967UpgradeUpgradeable.sol\":3560:3577  newImplementation */\n      dup3\n        /* \"@openzeppelin/contracts-upgradeable/proxy/ERC1967/ERC1967UpgradeUpgradeable.sol\":3531:3592  IERC1822ProxiableUpgradeable(newImplementation).proxiableUUID */\n      0xffffffffffffffffffffffffffffffffffffffff\n      and\n      0x52d1902d\n        /* \"@openzeppelin/contracts-upgradeable/proxy/ERC1967/ERC1967UpgradeUpgradeable.sol\":3531:3594  IERC1822ProxiableUpgradeable(newImplementation).proxiableUUID() */\n      mload(0x40)\n      dup2\n      0xffffffff\n      and\n      0xe0\n      shl\n      dup2\n      mstore\n      0x04\n      add\n      0x20\n      mload(0x40)\n      dup1\n      dup4\n      sub\n      dup2\n      dup7\n      dup1\n      extcodesize\n      iszero\n      dup1\n      iszero\n      tag_303\n      jumpi\n      0x00\n      dup1\n      revert\n    tag_303:\n      pop\n      gas\n      staticcall\n      swap3\n      pop\n      pop\n      pop\n      dup1\n      iszero\n      tag_304\n      jumpi\n      pop\n      mload(0x40)\n      returndatasize\n      not(0x1f)\n      0x1f\n      dup3\n      add\n      and\n      dup3\n      add\n      dup1\n      0x40\n      mstore\n      pop\n      dup2\n      add\n      swap1\n      tag_305\n      swap2\n      swap1\n      tag_306\n      jump\t// in\n    tag_305:\n      0x01\n    tag_304:\n        /* \"@openzeppelin/contracts-upgradeable/proxy/ERC1967/ERC1967UpgradeUpgradeable.sol\":3527:3829  try IERC1822ProxiableUpgradeable(newImplementation).proxiableUUID() returns (bytes32 slot) {... */\n      tag_307\n      jumpi\n        /* \"@openzeppelin/contracts-upgradeable/proxy/ERC1967/ERC1967UpgradeUpgradeable.sol\":3758:3814  revert(\"ERC1967Upgrade: new implementation is not UUPS\") */\n      mload(0x40)\n      0x08c379a000000000000000000000000000000000000000000000000000000000\n      dup2\n      mstore\n      0x04\n      add\n      tag_311\n      swap1\n      tag_312\n      jump\t// in\n    tag_311:\n      mload(0x40)\n      dup1\n      swap2\n      sub\n      swap1\n      revert\n        /* \"@openzeppelin/contracts-upgradeable/proxy/ERC1967/ERC1967UpgradeUpgradeable.sol\":3527:3829  try IERC1822ProxiableUpgradeable(newImplementation).proxiableUUID() returns (bytes32 slot) {... */\n    tag_307:\n        /* \"@openzeppelin/contracts-upgradeable/proxy/ERC1967/ERC1967UpgradeUpgradeable.sol\":1292:1358  0x360894a13ba1a3210667c828492db98dca3e2076cc3735a920a3ca505d382bbc */\n      0x360894a13ba1a3210667c828492db98dca3e2076cc3735a920a3ca505d382bbc\n        /* \"@openzeppelin/contracts-upgradeable/proxy/ERC1967/ERC1967UpgradeUpgradeable.sol\":3652:3672  _IMPLEMENTATION_SLOT */\n      0x00\n      shl\n        /* \"@openzeppelin/contracts-upgradeable/proxy/ERC1967/ERC1967UpgradeUpgradeable.sol\":3644:3648  slot */\n      dup2\n        /* \"@openzeppelin/contracts-upgradeable/proxy/ERC1967/ERC1967UpgradeUpgradeable.sol\":3644:3672  slot == _IMPLEMENTATION_SLOT */\n      eq\n        /* \"@openzeppelin/contracts-upgradeable/proxy/ERC1967/ERC1967UpgradeUpgradeable.sol\":3636:3718  require(slot == _IMPLEMENTATION_SLOT, \"ERC1967Upgrade: unsupported proxiableUUID\") */\n      tag_314\n      jumpi\n      mload(0x40)\n      0x08c379a000000000000000000000000000000000000000000000000000000000\n      dup2\n      mstore\n      0x04\n      add\n      tag_315\n      swap1\n      tag_316\n      jump\t// in\n    tag_315:\n      mload(0x40)\n      dup1\n      swap2\n      sub\n      swap1\n      revert\n    tag_314:\n        /* \"@openzeppelin/contracts-upgradeable/proxy/ERC1967/ERC1967UpgradeUpgradeable.sol\":3595:3733  returns (bytes32 slot) {... */\n      pop\n        /* \"@openzeppelin/contracts-upgradeable/proxy/ERC1967/ERC1967UpgradeUpgradeable.sol\":3842:3895  _upgradeToAndCall(newImplementation, data, forceCall) */\n      tag_317\n        /* \"@openzeppelin/contracts-upgradeable/proxy/ERC1967/ERC1967UpgradeUpgradeable.sol\":3860:3877  newImplementation */\n      dup4\n        /* \"@openzeppelin/contracts-upgradeable/proxy/ERC1967/ERC1967UpgradeUpgradeable.sol\":3879:3883  data */\n      dup4\n        /* \"@openzeppelin/contracts-upgradeable/proxy/ERC1967/ERC1967UpgradeUpgradeable.sol\":3885:3894  forceCall */\n      dup4\n        /* \"@openzeppelin/contracts-upgradeable/proxy/ERC1967/ERC1967UpgradeUpgradeable.sol\":3842:3859  _upgradeToAndCall */\n      tag_318\n        /* \"@openzeppelin/contracts-upgradeable/proxy/ERC1967/ERC1967UpgradeUpgradeable.sol\":3842:3895  _upgradeToAndCall(newImplementation, data, forceCall) */\n      jump\t// in\n    tag_317:\n        /* \"@openzeppelin/contracts-upgradeable/proxy/ERC1967/ERC1967UpgradeUpgradeable.sol\":3380:3906  if (StorageSlotUpgradeable.getBooleanSlot(_ROLLBACK_SLOT).value) {... */\n    tag_302:\n        /* \"@openzeppelin/contracts-upgradeable/proxy/ERC1967/ERC1967UpgradeUpgradeable.sol\":2938:3912  function _upgradeToAndCallUUPS(... */\n      pop\n      pop\n      pop\n      jump\t// out\n        /* \"@openzeppelin/contracts-upgradeable/access/OwnableUpgradeable.sol\":1599:1729  function _checkOwner() internal view virtual {... */\n    tag_175:\n        /* \"@openzeppelin/contracts-upgradeable/access/OwnableUpgradeable.sol\":1673:1685  _msgSender() */\n      tag_320\n        /* \"@openzeppelin/contracts-upgradeable/access/OwnableUpgradeable.sol\":1673:1683  _msgSender */\n      tag_140\n        /* \"@openzeppelin/contracts-upgradeable/access/OwnableUpgradeable.sol\":1673:1685  _msgSender() */\n      jump\t// in\n    tag_320:\n        /* \"@openzeppelin/contracts-upgradeable/access/OwnableUpgradeable.sol\":1662:1685  owner() == _msgSender() */\n      0xffffffffffffffffffffffffffffffffffffffff\n      and\n        /* \"@openzeppelin/contracts-upgradeable/access/OwnableUpgradeable.sol\":1662:1669  owner() */\n      tag_321\n        /* \"@openzeppelin/contracts-upgradeable/access/OwnableUpgradeable.sol\":1662:1667  owner */\n      tag_100\n        /* \"@openzeppelin/contracts-upgradeable/access/OwnableUpgradeable.sol\":1662:1669  owner() */\n      jump\t// in\n    tag_321:\n        /* \"@openzeppelin/contracts-upgradeable/access/OwnableUpgradeable.sol\":1662:1685  owner() == _msgSender() */\n      0xffffffffffffffffffffffffffffffffffffffff\n      and\n      eq\n        /* \"@openzeppelin/contracts-upgradeable/access/OwnableUpgradeable.sol\":1654:1722  require(owner() == _msgSender(), \"Ownable: caller is not the owner\") */\n      tag_322\n      jumpi\n      mload(0x40)\n      0x08c379a000000000000000000000000000000000000000000000000000000000\n      dup2\n      mstore\n      0x04\n      add\n      tag_323\n      swap1\n      tag_324\n      jump\t// in\n    tag_323:\n      mload(0x40)\n      dup1\n      swap2\n      sub\n      swap1\n      revert\n    tag_322:\n        /* \"@openzeppelin/contracts-upgradeable/access/OwnableUpgradeable.sol\":1599:1729  function _checkOwner() internal view virtual {... */\n      jump\t// out\n        /* \"@openzeppelin/contracts-upgradeable/token/ERC20/ERC20Upgradeable.sol\":8739:9128  function _mint(address account, uint256 amount) internal virtual {... */\n    tag_178:\n        /* \"@openzeppelin/contracts-upgradeable/token/ERC20/ERC20Upgradeable.sol\":8841:8842  0 */\n      0x00\n        /* \"@openzeppelin/contracts-upgradeable/token/ERC20/ERC20Upgradeable.sol\":8822:8843  account != address(0) */\n      0xffffffffffffffffffffffffffffffffffffffff\n      and\n        /* \"@openzeppelin/contracts-upgradeable/token/ERC20/ERC20Upgradeable.sol\":8822:8829  account */\n      dup3\n        /* \"@openzeppelin/contracts-upgradeable/token/ERC20/ERC20Upgradeable.sol\":8822:8843  account != address(0) */\n      0xffffffffffffffffffffffffffffffffffffffff\n      and\n      eq\n      iszero\n        /* \"@openzeppelin/contracts-upgradeable/token/ERC20/ERC20Upgradeable.sol\":8814:8879  require(account != address(0), \"ERC20: mint to the zero address\") */\n      tag_326\n      jumpi\n      mload(0x40)\n      0x08c379a000000000000000000000000000000000000000000000000000000000\n      dup2\n      mstore\n      0x04\n      add\n      tag_327\n      swap1\n      tag_328\n      jump\t// in\n    tag_327:\n      mload(0x40)\n      dup1\n      swap2\n      sub\n      swap1\n      revert\n    tag_326:\n        /* \"@openzeppelin/contracts-upgradeable/token/ERC20/ERC20Upgradeable.sol\":8890:8939  _beforeTokenTransfer(address(0), account, amount) */\n      tag_329\n        /* \"@openzeppelin/contracts-upgradeable/token/ERC20/ERC20Upgradeable.sol\":8919:8920  0 */\n      0x00\n        /* \"@openzeppelin/contracts-upgradeable/token/ERC20/ERC20Upgradeable.sol\":8923:8930  account */\n      dup4\n        /* \"@openzeppelin/contracts-upgradeable/token/ERC20/ERC20Upgradeable.sol\":8932:8938  amount */\n      dup4\n        /* \"@openzeppelin/contracts-upgradeable/token/ERC20/ERC20Upgradeable.sol\":8890:8910  _beforeTokenTransfer */\n      tag_282\n        /* \"@openzeppelin/contracts-upgradeable/token/ERC20/ERC20Upgradeable.sol\":8890:8939  _beforeTokenTransfer(address(0), account, amount) */\n      jump\t// in\n    tag_329:\n        /* \"@openzeppelin/contracts-upgradeable/token/ERC20/ERC20Upgradeable.sol\":8966:8972  amount */\n      dup1\n        /* \"@openzeppelin/contracts-upgradeable/token/ERC20/ERC20Upgradeable.sol\":8950:8962  _totalSupply */\n      0x35\n      0x00\n        /* \"@openzeppelin/contracts-upgradeable/token/ERC20/ERC20Upgradeable.sol\":8950:8972  _totalSupply += amount */\n      dup3\n      dup3\n      sload\n      tag_330\n      swap2\n      swap1\n      tag_172\n      jump\t// in\n    tag_330:\n      swap3\n      pop\n      pop\n      dup2\n      swap1\n      sstore\n      pop\n        /* \"@openzeppelin/contracts-upgradeable/token/ERC20/ERC20Upgradeable.sol\":9004:9010  amount */\n      dup1\n        /* \"@openzeppelin/contracts-upgradeable/token/ERC20/ERC20Upgradeable.sol\":8982:8991  _balances */\n      0x33\n        /* \"@openzeppelin/contracts-upgradeable/token/ERC20/ERC20Upgradeable.sol\":8982:9000  _balances[account] */\n      0x00\n        /* \"@openzeppelin/contracts-upgradeable/token/ERC20/ERC20Upgradeable.sol\":8992:8999  account */\n      dup5\n        /* \"@openzeppelin/contracts-upgradeable/token/ERC20/ERC20Upgradeable.sol\":8982:9000  _balances[account] */\n      0xffffffffffffffffffffffffffffffffffffffff\n      and\n      0xffffffffffffffffffffffffffffffffffffffff\n      and\n      dup2\n      mstore\n      0x20\n      add\n      swap1\n      dup2\n      mstore\n      0x20\n      add\n      0x00\n      keccak256\n      0x00\n        /* \"@openzeppelin/contracts-upgradeable/token/ERC20/ERC20Upgradeable.sol\":8982:9010  _balances[account] += amount */\n      dup3\n      dup3\n      sload\n      tag_331\n      swap2\n      swap1\n      tag_172\n      jump\t// in\n    tag_331:\n      swap3\n      pop\n      pop\n      dup2\n      swap1\n      sstore\n      pop\n        /* \"@openzeppelin/contracts-upgradeable/token/ERC20/ERC20Upgradeable.sol\":9046:9053  account */\n      dup2\n        /* \"@openzeppelin/contracts-upgradeable/token/ERC20/ERC20Upgradeable.sol\":9025:9062  Transfer(address(0), account, amount) */\n      0xffffffffffffffffffffffffffffffffffffffff\n      and\n        /* \"@openzeppelin/contracts-upgradeable/token/ERC20/ERC20Upgradeable.sol\":9042:9043  0 */\n      0x00\n        /* \"@openzeppelin/contracts-upgradeable/token/ERC20/ERC20Upgradeable.sol\":9025:9062  Transfer(address(0), account, amount) */\n      0xffffffffffffffffffffffffffffffffffffffff\n      and\n      0xddf252ad1be2c89b69c2b068fc378daa952ba7f163c4a11628f55a4df523b3ef\n        /* \"@openzeppelin/contracts-upgradeable/token/ERC20/ERC20Upgradeable.sol\":9055:9061  amount */\n      dup4\n        /* \"@openzeppelin/contracts-upgradeable/token/ERC20/ERC20Upgradeable.sol\":9025:9062  Transfer(address(0), account, amount) */\n      mload(0x40)\n      tag_332\n      swap2\n      swap1\n      tag_43\n      jump\t// in\n    tag_332:\n      mload(0x40)\n      dup1\n      swap2\n      sub\n      swap1\n      log3\n        /* \"@openzeppelin/contracts-upgradeable/token/ERC20/ERC20Upgradeable.sol\":9073:9121  _afterTokenTransfer(address(0), account, amount) */\n      tag_333\n        /* \"@openzeppelin/contracts-upgradeable/token/ERC20/ERC20Upgradeable.sol\":9101:9102  0 */\n      0x00\n        /* \"@openzeppelin/contracts-upgradeable/token/ERC20/ERC20Upgradeable.sol\":9105:9112  account */\n      dup4\n        /* \"@openzeppelin/contracts-upgradeable/token/ERC20/ERC20Upgradeable.sol\":9114:9120  amount */\n      dup4\n        /* \"@openzeppelin/contracts-upgradeable/token/ERC20/ERC20Upgradeable.sol\":9073:9092  _afterTokenTransfer */\n      tag_289\n        /* \"@openzeppelin/contracts-upgradeable/token/ERC20/ERC20Upgradeable.sol\":9073:9121  _afterTokenTransfer(address(0), account, amount) */\n      jump\t// in\n    tag_333:\n        /* \"@openzeppelin/contracts-upgradeable/token/ERC20/ERC20Upgradeable.sol\":8739:9128  function _mint(address account, uint256 amount) internal virtual {... */\n      pop\n      pop\n      jump\t// out\n        /* \"@openzeppelin/contracts-upgradeable/token/ERC20/ERC20Upgradeable.sol\":9448:10024  function _burn(address account, uint256 amount) internal virtual {... */\n    tag_182:\n        /* \"@openzeppelin/contracts-upgradeable/token/ERC20/ERC20Upgradeable.sol\":9550:9551  0 */\n      0x00\n        /* \"@openzeppelin/contracts-upgradeable/token/ERC20/ERC20Upgradeable.sol\":9531:9552  account != address(0) */\n      0xffffffffffffffffffffffffffffffffffffffff\n      and\n        /* \"@openzeppelin/contracts-upgradeable/token/ERC20/ERC20Upgradeable.sol\":9531:9538  account */\n      dup3\n        /* \"@openzeppelin/contracts-upgradeable/token/ERC20/ERC20Upgradeable.sol\":9531:9552  account != address(0) */\n      0xffffffffffffffffffffffffffffffffffffffff\n      and\n      eq\n      iszero\n        /* \"@openzeppelin/contracts-upgradeable/token/ERC20/ERC20Upgradeable.sol\":9523:9590  require(account != address(0), \"ERC20: burn from the zero address\") */\n      tag_335\n      jumpi\n      mload(0x40)\n      0x08c379a000000000000000000000000000000000000000000000000000000000\n      dup2\n      mstore\n      0x04\n      add\n      tag_336\n      swap1\n      tag_337\n      jump\t// in\n    tag_336:\n      mload(0x40)\n      dup1\n      swap2\n      sub\n      swap1\n      revert\n    tag_335:\n        /* \"@openzeppelin/contracts-upgradeable/token/ERC20/ERC20Upgradeable.sol\":9601:9650  _beforeTokenTransfer(account, address(0), amount) */\n      tag_338\n        /* \"@openzeppelin/contracts-upgradeable/token/ERC20/ERC20Upgradeable.sol\":9622:9629  account */\n      dup3\n        /* \"@openzeppelin/contracts-upgradeable/token/ERC20/ERC20Upgradeable.sol\":9639:9640  0 */\n      0x00\n        /* \"@openzeppelin/contracts-upgradeable/token/ERC20/ERC20Upgradeable.sol\":9643:9649  amount */\n      dup4\n        /* \"@openzeppelin/contracts-upgradeable/token/ERC20/ERC20Upgradeable.sol\":9601:9621  _beforeTokenTransfer */\n      tag_282\n        /* \"@openzeppelin/contracts-upgradeable/token/ERC20/ERC20Upgradeable.sol\":9601:9650  _beforeTokenTransfer(account, address(0), amount) */\n      jump\t// in\n    tag_338:\n        /* \"@openzeppelin/contracts-upgradeable/token/ERC20/ERC20Upgradeable.sol\":9661:9683  uint256 accountBalance */\n      0x00\n        /* \"@openzeppelin/contracts-upgradeable/token/ERC20/ERC20Upgradeable.sol\":9686:9695  _balances */\n      0x33\n        /* \"@openzeppelin/contracts-upgradeable/token/ERC20/ERC20Upgradeable.sol\":9686:9704  _balances[account] */\n      0x00\n        /* \"@openzeppelin/contracts-upgradeable/token/ERC20/ERC20Upgradeable.sol\":9696:9703  account */\n      dup5\n        /* \"@openzeppelin/contracts-upgradeable/token/ERC20/ERC20Upgradeable.sol\":9686:9704  _balances[account] */\n      0xffffffffffffffffffffffffffffffffffffffff\n      and\n      0xffffffffffffffffffffffffffffffffffffffff\n      and\n      dup2\n      mstore\n      0x20\n      add\n      swap1\n      dup2\n      mstore\n      0x20\n      add\n      0x00\n      keccak256\n      sload\n        /* \"@openzeppelin/contracts-upgradeable/token/ERC20/ERC20Upgradeable.sol\":9661:9704  uint256 accountBalance = _balances[account] */\n      swap1\n      pop\n        /* \"@openzeppelin/contracts-upgradeable/token/ERC20/ERC20Upgradeable.sol\":9740:9746  amount */\n      dup2\n        /* \"@openzeppelin/contracts-upgradeable/token/ERC20/ERC20Upgradeable.sol\":9722:9736  accountBalance */\n      dup2\n        /* \"@openzeppelin/contracts-upgradeable/token/ERC20/ERC20Upgradeable.sol\":9722:9746  accountBalance >= amount */\n      lt\n      iszero\n        /* \"@openzeppelin/contracts-upgradeable/token/ERC20/ERC20Upgradeable.sol\":9714:9785  require(accountBalance >= amount, \"ERC20: burn amount exceeds balance\") */\n      tag_339\n      jumpi\n      mload(0x40)\n      0x08c379a000000000000000000000000000000000000000000000000000000000\n      dup2\n      mstore\n      0x04\n      add\n      tag_340\n      swap1\n      tag_341\n      jump\t// in\n    tag_340:\n      mload(0x40)\n      dup1\n      swap2\n      sub\n      swap1\n      revert\n    tag_339:\n        /* \"@openzeppelin/contracts-upgradeable/token/ERC20/ERC20Upgradeable.sol\":9857:9863  amount */\n      dup2\n        /* \"@openzeppelin/contracts-upgradeable/token/ERC20/ERC20Upgradeable.sol\":9840:9854  accountBalance */\n      dup2\n        /* \"@openzeppelin/contracts-upgradeable/token/ERC20/ERC20Upgradeable.sol\":9840:9863  accountBalance - amount */\n      sub\n        /* \"@openzeppelin/contracts-upgradeable/token/ERC20/ERC20Upgradeable.sol\":9819:9828  _balances */\n      0x33\n        /* \"@openzeppelin/contracts-upgradeable/token/ERC20/ERC20Upgradeable.sol\":9819:9837  _balances[account] */\n      0x00\n        /* \"@openzeppelin/contracts-upgradeable/token/ERC20/ERC20Upgradeable.sol\":9829:9836  account */\n      dup6\n        /* \"@openzeppelin/contracts-upgradeable/token/ERC20/ERC20Upgradeable.sol\":9819:9837  _balances[account] */\n      0xffffffffffffffffffffffffffffffffffffffff\n      and\n      0xffffffffffffffffffffffffffffffffffffffff\n      and\n      dup2\n      mstore\n      0x20\n      add\n      swap1\n      dup2\n      mstore\n      0x20\n      add\n      0x00\n      keccak256\n        /* \"@openzeppelin/contracts-upgradeable/token/ERC20/ERC20Upgradeable.sol\":9819:9863  _balances[account] = accountBalance - amount */\n      dup2\n      swap1\n      sstore\n      pop\n        /* \"@openzeppelin/contracts-upgradeable/token/ERC20/ERC20Upgradeable.sol\":9899:9905  amount */\n      dup2\n        /* \"@openzeppelin/contracts-upgradeable/token/ERC20/ERC20Upgradeable.sol\":9883:9895  _totalSupply */\n      0x35\n      0x00\n        /* \"@openzeppelin/contracts-upgradeable/token/ERC20/ERC20Upgradeable.sol\":9883:9905  _totalSupply -= amount */\n      dup3\n      dup3\n      sload\n      tag_342\n      swap2\n      swap1\n      tag_343\n      jump\t// in\n    tag_342:\n      swap3\n      pop\n      pop\n      dup2\n      swap1\n      sstore\n      pop\n        /* \"@openzeppelin/contracts-upgradeable/token/ERC20/ERC20Upgradeable.sol\":9947:9948  0 */\n      0x00\n        /* \"@openzeppelin/contracts-upgradeable/token/ERC20/ERC20Upgradeable.sol\":9921:9958  Transfer(account, address(0), amount) */\n      0xffffffffffffffffffffffffffffffffffffffff\n      and\n        /* \"@openzeppelin/contracts-upgradeable/token/ERC20/ERC20Upgradeable.sol\":9930:9937  account */\n      dup4\n        /* \"@openzeppelin/contracts-upgradeable/token/ERC20/ERC20Upgradeable.sol\":9921:9958  Transfer(account, address(0), amount) */\n      0xffffffffffffffffffffffffffffffffffffffff\n      and\n      0xddf252ad1be2c89b69c2b068fc378daa952ba7f163c4a11628f55a4df523b3ef\n        /* \"@openzeppelin/contracts-upgradeable/token/ERC20/ERC20Upgradeable.sol\":9951:9957  amount */\n      dup5\n        /* \"@openzeppelin/contracts-upgradeable/token/ERC20/ERC20Upgradeable.sol\":9921:9958  Transfer(account, address(0), amount) */\n      mload(0x40)\n      tag_344\n      swap2\n      swap1\n      tag_43\n      jump\t// in\n    tag_344:\n      mload(0x40)\n      dup1\n      swap2\n      sub\n      swap1\n      log3\n        /* \"@openzeppelin/contracts-upgradeable/token/ERC20/ERC20Upgradeable.sol\":9969:10017  _afterTokenTransfer(account, address(0), amount) */\n      tag_345\n        /* \"@openzeppelin/contracts-upgradeable/token/ERC20/ERC20Upgradeable.sol\":9989:9996  account */\n      dup4\n        /* \"@openzeppelin/contracts-upgradeable/token/ERC20/ERC20Upgradeable.sol\":10006:10007  0 */\n      0x00\n        /* \"@openzeppelin/contracts-upgradeable/token/ERC20/ERC20Upgradeable.sol\":10010:10016  amount */\n      dup5\n        /* \"@openzeppelin/contracts-upgradeable/token/ERC20/ERC20Upgradeable.sol\":9969:9988  _afterTokenTransfer */\n      tag_289\n        /* \"@openzeppelin/contracts-upgradeable/token/ERC20/ERC20Upgradeable.sol\":9969:10017  _afterTokenTransfer(account, address(0), amount) */\n      jump\t// in\n    tag_345:\n        /* \"@openzeppelin/contracts-upgradeable/token/ERC20/ERC20Upgradeable.sol\":9448:10024  function _burn(address account, uint256 amount) internal virtual {... */\n      pop\n      pop\n      pop\n      jump\t// out\n        /* \"@openzeppelin/contracts-upgradeable/access/OwnableUpgradeable.sol\":2673:2860  function _transferOwnership(address newOwner) internal virtual {... */\n    tag_202:\n        /* \"@openzeppelin/contracts-upgradeable/access/OwnableUpgradeable.sol\":2746:2762  address oldOwner */\n      0x00\n        /* \"@openzeppelin/contracts-upgradeable/access/OwnableUpgradeable.sol\":2765:2771  _owner */\n      0x97\n      0x00\n      swap1\n      sload\n      swap1\n      0x0100\n      exp\n      swap1\n      div\n      0xffffffffffffffffffffffffffffffffffffffff\n      and\n        /* \"@openzeppelin/contracts-upgradeable/access/OwnableUpgradeable.sol\":2746:2771  address oldOwner = _owner */\n      swap1\n      pop\n        /* \"@openzeppelin/contracts-upgradeable/access/OwnableUpgradeable.sol\":2790:2798  newOwner */\n      dup2\n        /* \"@openzeppelin/contracts-upgradeable/access/OwnableUpgradeable.sol\":2781:2787  _owner */\n      0x97\n      0x00\n        /* \"@openzeppelin/contracts-upgradeable/access/OwnableUpgradeable.sol\":2781:2798  _owner = newOwner */\n      0x0100\n      exp\n      dup2\n      sload\n      dup2\n      0xffffffffffffffffffffffffffffffffffffffff\n      mul\n      not\n      and\n      swap1\n      dup4\n      0xffffffffffffffffffffffffffffffffffffffff\n      and\n      mul\n      or\n      swap1\n      sstore\n      pop\n        /* \"@openzeppelin/contracts-upgradeable/access/OwnableUpgradeable.sol\":2844:2852  newOwner */\n      dup2\n        /* \"@openzeppelin/contracts-upgradeable/access/OwnableUpgradeable.sol\":2813:2853  OwnershipTransferred(oldOwner, newOwner) */\n      0xffffffffffffffffffffffffffffffffffffffff\n      and\n        /* \"@openzeppelin/contracts-upgradeable/access/OwnableUpgradeable.sol\":2834:2842  oldOwner */\n      dup2\n        /* \"@openzeppelin/contracts-upgradeable/access/OwnableUpgradeable.sol\":2813:2853  OwnershipTransferred(oldOwner, newOwner) */\n      0xffffffffffffffffffffffffffffffffffffffff\n      and\n      0x8be0079c531659141344cd1fd0a4f28419497f9722a3daafe3b4186f6b6457e0\n      mload(0x40)\n      mload(0x40)\n      dup1\n      swap2\n      sub\n      swap1\n      log3\n        /* \"@openzeppelin/contracts-upgradeable/access/OwnableUpgradeable.sol\":2673:2860  function _transferOwnership(address newOwner) internal virtual {... */\n      pop\n      pop\n      jump\t// out\n        /* \"@openzeppelin/contracts-upgradeable/utils/AddressUpgradeable.sol\":1186:1506  function isContract(address account) internal view returns (bool) {... */\n    tag_211:\n        /* \"@openzeppelin/contracts-upgradeable/utils/AddressUpgradeable.sol\":1246:1250  bool */\n      0x00\n        /* \"@openzeppelin/contracts-upgradeable/utils/AddressUpgradeable.sol\":1498:1499  0 */\n      dup1\n        /* \"@openzeppelin/contracts-upgradeable/utils/AddressUpgradeable.sol\":1476:1483  account */\n      dup3\n        /* \"@openzeppelin/contracts-upgradeable/utils/AddressUpgradeable.sol\":1476:1495  account.code.length */\n      0xffffffffffffffffffffffffffffffffffffffff\n      and\n      extcodesize\n        /* \"@openzeppelin/contracts-upgradeable/utils/AddressUpgradeable.sol\":1476:1499  account.code.length > 0 */\n      gt\n        /* \"@openzeppelin/contracts-upgradeable/utils/AddressUpgradeable.sol\":1469:1499  return account.code.length > 0 */\n      swap1\n      pop\n        /* \"@openzeppelin/contracts-upgradeable/utils/AddressUpgradeable.sol\":1186:1506  function isContract(address account) internal view returns (bool) {... */\n      swap2\n      swap1\n      pop\n      jump\t// out\n        /* \"@openzeppelin/contracts-upgradeable/token/ERC20/ERC20Upgradeable.sol\":2116:2263  function __ERC20_init(string memory name_, string memory symbol_) internal onlyInitializing {... */\n    tag_219:\n        /* \"@openzeppelin/contracts-upgradeable/proxy/utils/Initializable.sol\":4910:4923  _initializing */\n      0x00\n      0x01\n      swap1\n      sload\n      swap1\n      0x0100\n      exp\n      swap1\n      div\n      0xff\n      and\n        /* \"@openzeppelin/contracts-upgradeable/proxy/utils/Initializable.sol\":4902:4971  require(_initializing, \"Initializable: contract is not initializing\") */\n      tag_349\n      jumpi\n      mload(0x40)\n      0x08c379a000000000000000000000000000000000000000000000000000000000\n      dup2\n      mstore\n      0x04\n      add\n      tag_350\n      swap1\n      tag_351\n      jump\t// in\n    tag_350:\n      mload(0x40)\n      dup1\n      swap2\n      sub\n      swap1\n      revert\n    tag_349:\n        /* \"@openzeppelin/contracts-upgradeable/token/ERC20/ERC20Upgradeable.sol\":2218:2256  __ERC20_init_unchained(name_, symbol_) */\n      tag_353\n        /* \"@openzeppelin/contracts-upgradeable/token/ERC20/ERC20Upgradeable.sol\":2241:2246  name_ */\n      dup3\n        /* \"@openzeppelin/contracts-upgradeable/token/ERC20/ERC20Upgradeable.sol\":2248:2255  symbol_ */\n      dup3\n        /* \"@openzeppelin/contracts-upgradeable/token/ERC20/ERC20Upgradeable.sol\":2218:2240  __ERC20_init_unchained */\n      tag_354\n        /* \"@openzeppelin/contracts-upgradeable/token/ERC20/ERC20Upgradeable.sol\":2218:2256  __ERC20_init_unchained(name_, symbol_) */\n      jump\t// in\n    tag_353:\n        /* \"@openzeppelin/contracts-upgradeable/token/ERC20/ERC20Upgradeable.sol\":2116:2263  function __ERC20_init(string memory name_, string memory symbol_) internal onlyInitializing {... */\n      pop\n      pop\n      jump\t// out\n        /* \"@openzeppelin/contracts-upgradeable/token/ERC20/extensions/ERC20BurnableUpgradeable.sol\":594:659  function __ERC20Burnable_init() internal onlyInitializing {... */\n    tag_221:\n        /* \"@openzeppelin/contracts-upgradeable/proxy/utils/Initializable.sol\":4910:4923  _initializing */\n      0x00\n      0x01\n      swap1\n      sload\n      swap1\n      0x0100\n      exp\n      swap1\n      div\n      0xff\n      and\n        /* \"@openzeppelin/contracts-upgradeable/proxy/utils/Initializable.sol\":4902:4971  require(_initializing, \"Initializable: contract is not initializing\") */\n      tag_356\n      jumpi\n      mload(0x40)\n      0x08c379a000000000000000000000000000000000000000000000000000000000\n      dup2\n      mstore\n      0x04\n      add\n      tag_357\n      swap1\n      tag_351\n      jump\t// in\n    tag_357:\n      mload(0x40)\n      dup1\n      swap2\n      sub\n      swap1\n      revert\n    tag_356:\n        /* \"@openzeppelin/contracts-upgradeable/token/ERC20/extensions/ERC20BurnableUpgradeable.sol\":594:659  function __ERC20Burnable_init() internal onlyInitializing {... */\n      jump\t// out\n        /* \"@openzeppelin/contracts-upgradeable/access/OwnableUpgradeable.sol\":1003:1098  function __Ownable_init() internal onlyInitializing {... */\n    tag_223:\n        /* \"@openzeppelin/contracts-upgradeable/proxy/utils/Initializable.sol\":4910:4923  _initializing */\n      0x00\n      0x01\n      swap1\n      sload\n      swap1\n      0x0100\n      exp\n      swap1\n      div\n      0xff\n      and\n        /* \"@openzeppelin/contracts-upgradeable/proxy/utils/Initializable.sol\":4902:4971  require(_initializing, \"Initializable: contract is not initializing\") */\n      tag_360\n      jumpi\n      mload(0x40)\n      0x08c379a000000000000000000000000000000000000000000000000000000000\n      dup2\n      mstore\n      0x04\n      add\n      tag_361\n      swap1\n      tag_351\n      jump\t// in\n    tag_361:\n      mload(0x40)\n      dup1\n      swap2\n      sub\n      swap1\n      revert\n    tag_360:\n        /* \"@openzeppelin/contracts-upgradeable/access/OwnableUpgradeable.sol\":1065:1091  __Ownable_init_unchained() */\n      tag_363\n        /* \"@openzeppelin/contracts-upgradeable/access/OwnableUpgradeable.sol\":1065:1089  __Ownable_init_unchained */\n      tag_364\n        /* \"@openzeppelin/contracts-upgradeable/access/OwnableUpgradeable.sol\":1065:1091  __Ownable_init_unchained() */\n      jump\t// in\n    tag_363:\n        /* \"@openzeppelin/contracts-upgradeable/access/OwnableUpgradeable.sol\":1003:1098  function __Ownable_init() internal onlyInitializing {... */\n      jump\t// out\n        /* \"@openzeppelin/contracts-upgradeable/proxy/utils/UUPSUpgradeable.sol\":1042:1109  function __UUPSUpgradeable_init() internal onlyInitializing {... */\n    tag_225:\n        /* \"@openzeppelin/contracts-upgradeable/proxy/utils/Initializable.sol\":4910:4923  _initializing */\n      0x00\n      0x01\n      swap1\n      sload\n      swap1\n      0x0100\n      exp\n      swap1\n      div\n      0xff\n      and\n        /* \"@openzeppelin/contracts-upgradeable/proxy/utils/Initializable.sol\":4902:4971  require(_initializing, \"Initializable: contract is not initializing\") */\n      tag_366\n      jumpi\n      mload(0x40)\n      0x08c379a000000000000000000000000000000000000000000000000000000000\n      dup2\n      mstore\n      0x04\n      add\n      tag_367\n      swap1\n      tag_351\n      jump\t// in\n    tag_367:\n      mload(0x40)\n      dup1\n      swap2\n      sub\n      swap1\n      revert\n    tag_366:\n        /* \"@openzeppelin/contracts-upgradeable/proxy/utils/UUPSUpgradeable.sol\":1042:1109  function __UUPSUpgradeable_init() internal onlyInitializing {... */\n      jump\t// out\n        /* \"@openzeppelin/contracts-upgradeable/token/ERC20/ERC20Upgradeable.sol\":12123:12244  function _beforeTokenTransfer(... */\n    tag_282:\n      pop\n      pop\n      pop\n      jump\t// out\n        /* \"@openzeppelin/contracts-upgradeable/token/ERC20/ERC20Upgradeable.sol\":12832:12952  function _afterTokenTransfer(... */\n    tag_289:\n      pop\n      pop\n      pop\n      jump\t// out\n        /* \"@openzeppelin/contracts-upgradeable/utils/StorageSlotUpgradeable.sol\":1625:1815  function getAddressSlot(bytes32 slot) internal pure returns (AddressSlot storage r) {... */\n    tag_292:\n        /* \"@openzeppelin/contracts-upgradeable/utils/StorageSlotUpgradeable.sol\":1686:1707  AddressSlot storage r */\n      0x00\n        /* \"@openzeppelin/contracts-upgradeable/utils/StorageSlotUpgradeable.sol\":1795:1799  slot */\n      dup2\n        /* \"@openzeppelin/contracts-upgradeable/utils/StorageSlotUpgradeable.sol\":1785:1799  r.slot := slot */\n      swap1\n      pop\n        /* \"@openzeppelin/contracts-upgradeable/utils/StorageSlotUpgradeable.sol\":1771:1809  {... */\n      swap2\n      swap1\n      pop\n      jump\t// out\n        /* \"@openzeppelin/contracts-upgradeable/utils/StorageSlotUpgradeable.sol\":1913:2103  function getBooleanSlot(bytes32 slot) internal pure returns (BooleanSlot storage r) {... */\n    tag_298:\n        /* \"@openzeppelin/contracts-upgradeable/utils/StorageSlotUpgradeable.sol\":1974:1995  BooleanSlot storage r */\n      0x00\n        /* \"@openzeppelin/contracts-upgradeable/utils/StorageSlotUpgradeable.sol\":2083:2087  slot */\n      dup2\n        /* \"@openzeppelin/contracts-upgradeable/utils/StorageSlotUpgradeable.sol\":2073:2087  r.slot := slot */\n      swap1\n      pop\n        /* \"@openzeppelin/contracts-upgradeable/utils/StorageSlotUpgradeable.sol\":2059:2097  {... */\n      swap2\n      swap1\n      pop\n      jump\t// out\n        /* \"@openzeppelin/contracts-upgradeable/proxy/ERC1967/ERC1967UpgradeUpgradeable.sol\":1805:2086  function _setImplementation(address newImplementation) private {... */\n    tag_301:\n        /* \"@openzeppelin/contracts-upgradeable/proxy/ERC1967/ERC1967UpgradeUpgradeable.sol\":1886:1934  AddressUpgradeable.isContract(newImplementation) */\n      tag_374\n        /* \"@openzeppelin/contracts-upgradeable/proxy/ERC1967/ERC1967UpgradeUpgradeable.sol\":1916:1933  newImplementation */\n      dup2\n        /* \"@openzeppelin/contracts-upgradeable/proxy/ERC1967/ERC1967UpgradeUpgradeable.sol\":1886:1915  AddressUpgradeable.isContract */\n      tag_211\n        /* \"@openzeppelin/contracts-upgradeable/proxy/ERC1967/ERC1967UpgradeUpgradeable.sol\":1886:1934  AddressUpgradeable.isContract(newImplementation) */\n      jump\t// in\n    tag_374:\n        /* \"@openzeppelin/contracts-upgradeable/proxy/ERC1967/ERC1967UpgradeUpgradeable.sol\":1878:1984  require(AddressUpgradeable.isContract(newImplementation), \"ERC1967: new implementation is not a contract\") */\n      tag_375\n      jumpi\n      mload(0x40)\n      0x08c379a000000000000000000000000000000000000000000000000000000000\n      dup2\n      mstore\n      0x04\n      add\n      tag_376\n      swap1\n      tag_377\n      jump\t// in\n    tag_376:\n      mload(0x40)\n      dup1\n      swap2\n      sub\n      swap1\n      revert\n    tag_375:\n        /* \"@openzeppelin/contracts-upgradeable/proxy/ERC1967/ERC1967UpgradeUpgradeable.sol\":2062:2079  newImplementation */\n      dup1\n        /* \"@openzeppelin/contracts-upgradeable/proxy/ERC1967/ERC1967UpgradeUpgradeable.sol\":1994:2053  StorageSlotUpgradeable.getAddressSlot(_IMPLEMENTATION_SLOT) */\n      tag_378\n        /* \"@openzeppelin/contracts-upgradeable/proxy/ERC1967/ERC1967UpgradeUpgradeable.sol\":1292:1358  0x360894a13ba1a3210667c828492db98dca3e2076cc3735a920a3ca505d382bbc */\n      0x360894a13ba1a3210667c828492db98dca3e2076cc3735a920a3ca505d382bbc\n        /* \"@openzeppelin/contracts-upgradeable/proxy/ERC1967/ERC1967UpgradeUpgradeable.sol\":2032:2052  _IMPLEMENTATION_SLOT */\n      0x00\n      shl\n        /* \"@openzeppelin/contracts-upgradeable/proxy/ERC1967/ERC1967UpgradeUpgradeable.sol\":1994:2031  StorageSlotUpgradeable.getAddressSlot */\n      tag_292\n        /* \"@openzeppelin/contracts-upgradeable/proxy/ERC1967/ERC1967UpgradeUpgradeable.sol\":1994:2053  StorageSlotUpgradeable.getAddressSlot(_IMPLEMENTATION_SLOT) */\n      jump\t// in\n    tag_378:\n        /* \"@openzeppelin/contracts-upgradeable/proxy/ERC1967/ERC1967UpgradeUpgradeable.sol\":1994:2059  StorageSlotUpgradeable.getAddressSlot(_IMPLEMENTATION_SLOT).value */\n      0x00\n      add\n      0x00\n        /* \"@openzeppelin/contracts-upgradeable/proxy/ERC1967/ERC1967UpgradeUpgradeable.sol\":1994:2079  StorageSlotUpgradeable.getAddressSlot(_IMPLEMENTATION_SLOT).value = newImplementation */\n      0x0100\n      exp\n      dup2\n      sload\n      dup2\n      0xffffffffffffffffffffffffffffffffffffffff\n      mul\n      not\n      and\n      swap1\n      dup4\n      0xffffffffffffffffffffffffffffffffffffffff\n      and\n      mul\n      or\n      swap1\n      sstore\n      pop\n        /* \"@openzeppelin/contracts-upgradeable/proxy/ERC1967/ERC1967UpgradeUpgradeable.sol\":1805:2086  function _setImplementation(address newImplementation) private {... */\n      pop\n      jump\t// out\n        /* \"@openzeppelin/contracts-upgradeable/proxy/ERC1967/ERC1967UpgradeUpgradeable.sol\":2478:2766  function _upgradeToAndCall(... */\n    tag_318:\n        /* \"@openzeppelin/contracts-upgradeable/proxy/ERC1967/ERC1967UpgradeUpgradeable.sol\":2616:2645  _upgradeTo(newImplementation) */\n      tag_380\n        /* \"@openzeppelin/contracts-upgradeable/proxy/ERC1967/ERC1967UpgradeUpgradeable.sol\":2627:2644  newImplementation */\n      dup4\n        /* \"@openzeppelin/contracts-upgradeable/proxy/ERC1967/ERC1967UpgradeUpgradeable.sol\":2616:2626  _upgradeTo */\n      tag_381\n        /* \"@openzeppelin/contracts-upgradeable/proxy/ERC1967/ERC1967UpgradeUpgradeable.sol\":2616:2645  _upgradeTo(newImplementation) */\n      jump\t// in\n    tag_380:\n        /* \"@openzeppelin/contracts-upgradeable/proxy/ERC1967/ERC1967UpgradeUpgradeable.sol\":2673:2674  0 */\n      0x00\n        /* \"@openzeppelin/contracts-upgradeable/proxy/ERC1967/ERC1967UpgradeUpgradeable.sol\":2659:2663  data */\n      dup3\n        /* \"@openzeppelin/contracts-upgradeable/proxy/ERC1967/ERC1967UpgradeUpgradeable.sol\":2659:2670  data.length */\n      mload\n        /* \"@openzeppelin/contracts-upgradeable/proxy/ERC1967/ERC1967UpgradeUpgradeable.sol\":2659:2674  data.length > 0 */\n      gt\n        /* \"@openzeppelin/contracts-upgradeable/proxy/ERC1967/ERC1967UpgradeUpgradeable.sol\":2659:2687  data.length > 0 || forceCall */\n      dup1\n      tag_382\n      jumpi\n      pop\n        /* \"@openzeppelin/contracts-upgradeable/proxy/ERC1967/ERC1967UpgradeUpgradeable.sol\":2678:2687  forceCall */\n      dup1\n        /* \"@openzeppelin/contracts-upgradeable/proxy/ERC1967/ERC1967UpgradeUpgradeable.sol\":2659:2687  data.length > 0 || forceCall */\n    tag_382:\n        /* \"@openzeppelin/contracts-upgradeable/proxy/ERC1967/ERC1967UpgradeUpgradeable.sol\":2655:2760  if (data.length > 0 || forceCall) {... */\n      iszero\n      tag_383\n      jumpi\n        /* \"@openzeppelin/contracts-upgradeable/proxy/ERC1967/ERC1967UpgradeUpgradeable.sol\":2703:2749  _functionDelegateCall(newImplementation, data) */\n      tag_384\n        /* \"@openzeppelin/contracts-upgradeable/proxy/ERC1967/ERC1967UpgradeUpgradeable.sol\":2725:2742  newImplementation */\n      dup4\n        /* \"@openzeppelin/contracts-upgradeable/proxy/ERC1967/ERC1967UpgradeUpgradeable.sol\":2744:2748  data */\n      dup4\n        /* \"@openzeppelin/contracts-upgradeable/proxy/ERC1967/ERC1967UpgradeUpgradeable.sol\":2703:2724  _functionDelegateCall */\n      tag_385\n        /* \"@openzeppelin/contracts-upgradeable/proxy/ERC1967/ERC1967UpgradeUpgradeable.sol\":2703:2749  _functionDelegateCall(newImplementation, data) */\n      jump\t// in\n    tag_384:\n      pop\n        /* \"@openzeppelin/contracts-upgradeable/proxy/ERC1967/ERC1967UpgradeUpgradeable.sol\":2655:2760  if (data.length > 0 || forceCall) {... */\n    tag_383:\n        /* \"@openzeppelin/contracts-upgradeable/proxy/ERC1967/ERC1967UpgradeUpgradeable.sol\":2478:2766  function _upgradeToAndCall(... */\n      pop\n      pop\n      pop\n      jump\t// out\n        /* \"@openzeppelin/contracts-upgradeable/token/ERC20/ERC20Upgradeable.sol\":2269:2428  function __ERC20_init_unchained(string memory name_, string memory symbol_) internal onlyInitializing {... */\n    tag_354:\n        /* \"@openzeppelin/contracts-upgradeable/proxy/utils/Initializable.sol\":4910:4923  _initializing */\n      0x00\n      0x01\n      swap1\n      sload\n      swap1\n      0x0100\n      exp\n      swap1\n      div\n      0xff\n      and\n        /* \"@openzeppelin/contracts-upgradeable/proxy/utils/Initializable.sol\":4902:4971  require(_initializing, \"Initializable: contract is not initializing\") */\n      tag_387\n      jumpi\n      mload(0x40)\n      0x08c379a000000000000000000000000000000000000000000000000000000000\n      dup2\n      mstore\n      0x04\n      add\n      tag_388\n      swap1\n      tag_351\n      jump\t// in\n    tag_388:\n      mload(0x40)\n      dup1\n      swap2\n      sub\n      swap1\n      revert\n    tag_387:\n        /* \"@openzeppelin/contracts-upgradeable/token/ERC20/ERC20Upgradeable.sol\":2389:2394  name_ */\n      dup2\n        /* \"@openzeppelin/contracts-upgradeable/token/ERC20/ERC20Upgradeable.sol\":2381:2386  _name */\n      0x36\n        /* \"@openzeppelin/contracts-upgradeable/token/ERC20/ERC20Upgradeable.sol\":2381:2394  _name = name_ */\n      swap1\n      dup1\n      mload\n      swap1\n      0x20\n      add\n      swap1\n      tag_390\n      swap3\n      swap2\n      swap1\n      tag_391\n      jump\t// in\n    tag_390:\n      pop\n        /* \"@openzeppelin/contracts-upgradeable/token/ERC20/ERC20Upgradeable.sol\":2414:2421  symbol_ */\n      dup1\n        /* \"@openzeppelin/contracts-upgradeable/token/ERC20/ERC20Upgradeable.sol\":2404:2411  _symbol */\n      0x37\n        /* \"@openzeppelin/contracts-upgradeable/token/ERC20/ERC20Upgradeable.sol\":2404:2421  _symbol = symbol_ */\n      swap1\n      dup1\n      mload\n      swap1\n      0x20\n      add\n      swap1\n      tag_392\n      swap3\n      swap2\n      swap1\n      tag_391\n      jump\t// in\n    tag_392:\n      pop\n        /* \"@openzeppelin/contracts-upgradeable/token/ERC20/ERC20Upgradeable.sol\":2269:2428  function __ERC20_init_unchained(string memory name_, string memory symbol_) internal onlyInitializing {... */\n      pop\n      pop\n      jump\t// out\n        /* \"@openzeppelin/contracts-upgradeable/access/OwnableUpgradeable.sol\":1104:1215  function __Ownable_init_unchained() internal onlyInitializing {... */\n    tag_364:\n        /* \"@openzeppelin/contracts-upgradeable/proxy/utils/Initializable.sol\":4910:4923  _initializing */\n      0x00\n      0x01\n      swap1\n      sload\n      swap1\n      0x0100\n      exp\n      swap1\n      div\n      0xff\n      and\n        /* \"@openzeppelin/contracts-upgradeable/proxy/utils/Initializable.sol\":4902:4971  require(_initializing, \"Initializable: contract is not initializing\") */\n      tag_394\n      jumpi\n      mload(0x40)\n      0x08c379a000000000000000000000000000000000000000000000000000000000\n      dup2\n      mstore\n      0x04\n      add\n      tag_395\n      swap1\n      tag_351\n      jump\t// in\n    tag_395:\n      mload(0x40)\n      dup1\n      swap2\n      sub\n      swap1\n      revert\n    tag_394:\n        /* \"@openzeppelin/contracts-upgradeable/access/OwnableUpgradeable.sol\":1176:1208  _transferOwnership(_msgSender()) */\n      tag_397\n        /* \"@openzeppelin/contracts-upgradeable/access/OwnableUpgradeable.sol\":1195:1207  _msgSender() */\n      tag_398\n        /* \"@openzeppelin/contracts-upgradeable/access/OwnableUpgradeable.sol\":1195:1205  _msgSender */\n      tag_140\n        /* \"@openzeppelin/contracts-upgradeable/access/OwnableUpgradeable.sol\":1195:1207  _msgSender() */\n      jump\t// in\n    tag_398:\n        /* \"@openzeppelin/contracts-upgradeable/access/OwnableUpgradeable.sol\":1176:1194  _transferOwnership */\n      tag_202\n        /* \"@openzeppelin/contracts-upgradeable/access/OwnableUpgradeable.sol\":1176:1208  _transferOwnership(_msgSender()) */\n      jump\t// in\n    tag_397:\n        /* \"@openzeppelin/contracts-upgradeable/access/OwnableUpgradeable.sol\":1104:1215  function __Ownable_init_unchained() internal onlyInitializing {... */\n      jump\t// out\n        /* \"@openzeppelin/contracts-upgradeable/proxy/ERC1967/ERC1967UpgradeUpgradeable.sol\":2192:2344  function _upgradeTo(address newImplementation) internal {... */\n    tag_381:\n        /* \"@openzeppelin/contracts-upgradeable/proxy/ERC1967/ERC1967UpgradeUpgradeable.sol\":2258:2295  _setImplementation(newImplementation) */\n      tag_400\n        /* \"@openzeppelin/contracts-upgradeable/proxy/ERC1967/ERC1967UpgradeUpgradeable.sol\":2277:2294  newImplementation */\n      dup2\n        /* \"@openzeppelin/contracts-upgradeable/proxy/ERC1967/ERC1967UpgradeUpgradeable.sol\":2258:2276  _setImplementation */\n      tag_301\n        /* \"@openzeppelin/contracts-upgradeable/proxy/ERC1967/ERC1967UpgradeUpgradeable.sol\":2258:2295  _setImplementation(newImplementation) */\n      jump\t// in\n    tag_400:\n        /* \"@openzeppelin/contracts-upgradeable/proxy/ERC1967/ERC1967UpgradeUpgradeable.sol\":2319:2336  newImplementation */\n      dup1\n        /* \"@openzeppelin/contracts-upgradeable/proxy/ERC1967/ERC1967UpgradeUpgradeable.sol\":2310:2337  Upgraded(newImplementation) */\n      0xffffffffffffffffffffffffffffffffffffffff\n      and\n      0xbc7cd75a20ee27fd9adebab32041f755214dbc6bffa90cc0225b39da2e5c2d3b\n      mload(0x40)\n      mload(0x40)\n      dup1\n      swap2\n      sub\n      swap1\n      log2\n        /* \"@openzeppelin/contracts-upgradeable/proxy/ERC1967/ERC1967UpgradeUpgradeable.sol\":2192:2344  function _upgradeTo(address newImplementation) internal {... */\n      pop\n      jump\t// out\n        /* \"@openzeppelin/contracts-upgradeable/proxy/ERC1967/ERC1967UpgradeUpgradeable.sol\":7088:7543  function _functionDelegateCall(address target, bytes memory data) private returns (bytes memory) {... */\n    tag_385:\n        /* \"@openzeppelin/contracts-upgradeable/proxy/ERC1967/ERC1967UpgradeUpgradeable.sol\":7171:7183  bytes memory */\n      0x60\n        /* \"@openzeppelin/contracts-upgradeable/proxy/ERC1967/ERC1967UpgradeUpgradeable.sol\":7203:7240  AddressUpgradeable.isContract(target) */\n      tag_402\n        /* \"@openzeppelin/contracts-upgradeable/proxy/ERC1967/ERC1967UpgradeUpgradeable.sol\":7233:7239  target */\n      dup4\n        /* \"@openzeppelin/contracts-upgradeable/proxy/ERC1967/ERC1967UpgradeUpgradeable.sol\":7203:7232  AddressUpgradeable.isContract */\n      tag_211\n        /* \"@openzeppelin/contracts-upgradeable/proxy/ERC1967/ERC1967UpgradeUpgradeable.sol\":7203:7240  AddressUpgradeable.isContract(target) */\n      jump\t// in\n    tag_402:\n        /* \"@openzeppelin/contracts-upgradeable/proxy/ERC1967/ERC1967UpgradeUpgradeable.sol\":7195:7283  require(AddressUpgradeable.isContract(target), \"Address: delegate call to non-contract\") */\n      tag_403\n      jumpi\n      mload(0x40)\n      0x08c379a000000000000000000000000000000000000000000000000000000000\n      dup2\n      mstore\n      0x04\n      add\n      tag_404\n      swap1\n      tag_405\n      jump\t// in\n    tag_404:\n      mload(0x40)\n      dup1\n      swap2\n      sub\n      swap1\n      revert\n    tag_403:\n        /* \"@openzeppelin/contracts-upgradeable/proxy/ERC1967/ERC1967UpgradeUpgradeable.sol\":7354:7366  bool success */\n      0x00\n        /* \"@openzeppelin/contracts-upgradeable/proxy/ERC1967/ERC1967UpgradeUpgradeable.sol\":7368:7391  bytes memory returndata */\n      dup1\n        /* \"@openzeppelin/contracts-upgradeable/proxy/ERC1967/ERC1967UpgradeUpgradeable.sol\":7395:7401  target */\n      dup5\n        /* \"@openzeppelin/contracts-upgradeable/proxy/ERC1967/ERC1967UpgradeUpgradeable.sol\":7395:7414  target.delegatecall */\n      0xffffffffffffffffffffffffffffffffffffffff\n      and\n        /* \"@openzeppelin/contracts-upgradeable/proxy/ERC1967/ERC1967UpgradeUpgradeable.sol\":7415:7419  data */\n      dup5\n        /* \"@openzeppelin/contracts-upgradeable/proxy/ERC1967/ERC1967UpgradeUpgradeable.sol\":7395:7420  target.delegatecall(data) */\n      mload(0x40)\n      tag_406\n      swap2\n      swap1\n      tag_407\n      jump\t// in\n    tag_406:\n      0x00\n      mload(0x40)\n      dup1\n      dup4\n      sub\n      dup2\n      dup6\n      gas\n      delegatecall\n      swap2\n      pop\n      pop\n      returndatasize\n      dup1\n      0x00\n      dup2\n      eq\n      tag_410\n      jumpi\n      mload(0x40)\n      swap2\n      pop\n      and(add(returndatasize, 0x3f), not(0x1f))\n      dup3\n      add\n      0x40\n      mstore\n      returndatasize\n      dup3\n      mstore\n      returndatasize\n      0x00\n      0x20\n      dup5\n      add\n      returndatacopy\n      jump(tag_409)\n    tag_410:\n      0x60\n      swap2\n      pop\n    tag_409:\n      pop\n        /* \"@openzeppelin/contracts-upgradeable/proxy/ERC1967/ERC1967UpgradeUpgradeable.sol\":7353:7420  (bool success, bytes memory returndata) = target.delegatecall(data) */\n      swap2\n      pop\n      swap2\n      pop\n        /* \"@openzeppelin/contracts-upgradeable/proxy/ERC1967/ERC1967UpgradeUpgradeable.sol\":7437:7536  AddressUpgradeable.verifyCallResult(success, returndata, \"Address: low-level delegate call failed\") */\n      tag_411\n        /* \"@openzeppelin/contracts-upgradeable/proxy/ERC1967/ERC1967UpgradeUpgradeable.sol\":7473:7480  success */\n      dup3\n        /* \"@openzeppelin/contracts-upgradeable/proxy/ERC1967/ERC1967UpgradeUpgradeable.sol\":7482:7492  returndata */\n      dup3\n        /* \"@openzeppelin/contracts-upgradeable/proxy/ERC1967/ERC1967UpgradeUpgradeable.sol\":7437:7536  AddressUpgradeable.verifyCallResult(success, returndata, \"Address: low-level delegate call failed\") */\n      mload(0x40)\n      dup1\n      0x60\n      add\n      0x40\n      mstore\n      dup1\n      0x27\n      dup2\n      mstore\n      0x20\n      add\n      data_9fdcd12e4b726339b32a442b0a448365d5d85c96b2d2cff917b4f66c63110398\n      0x27\n      swap2\n      codecopy\n        /* \"@openzeppelin/contracts-upgradeable/proxy/ERC1967/ERC1967UpgradeUpgradeable.sol\":7437:7472  AddressUpgradeable.verifyCallResult */\n      tag_412\n        /* \"@openzeppelin/contracts-upgradeable/proxy/ERC1967/ERC1967UpgradeUpgradeable.sol\":7437:7536  AddressUpgradeable.verifyCallResult(success, returndata, \"Address: low-level delegate call failed\") */\n      jump\t// in\n    tag_411:\n        /* \"@openzeppelin/contracts-upgradeable/proxy/ERC1967/ERC1967UpgradeUpgradeable.sol\":7430:7536  return AddressUpgradeable.verifyCallResult(success, returndata, \"Address: low-level delegate call failed\") */\n      swap3\n      pop\n      pop\n      pop\n        /* \"@openzeppelin/contracts-upgradeable/proxy/ERC1967/ERC1967UpgradeUpgradeable.sol\":7088:7543  function _functionDelegateCall(address target, bytes memory data) private returns (bytes memory) {... */\n      swap3\n      swap2\n      pop\n      pop\n      jump\t// out\n        /* \"@openzeppelin/contracts-upgradeable/utils/AddressUpgradeable.sol\":6622:7364  function verifyCallResult(... */\n    tag_412:\n        /* \"@openzeppelin/contracts-upgradeable/utils/AddressUpgradeable.sol\":6768:6780  bytes memory */\n      0x60\n        /* \"@openzeppelin/contracts-upgradeable/utils/AddressUpgradeable.sol\":6796:6803  success */\n      dup4\n        /* \"@openzeppelin/contracts-upgradeable/utils/AddressUpgradeable.sol\":6792:7358  if (success) {... */\n      iszero\n      tag_414\n      jumpi\n        /* \"@openzeppelin/contracts-upgradeable/utils/AddressUpgradeable.sol\":6826:6836  returndata */\n      dup3\n        /* \"@openzeppelin/contracts-upgradeable/utils/AddressUpgradeable.sol\":6819:6836  return returndata */\n      swap1\n      pop\n      jump(tag_413)\n        /* \"@openzeppelin/contracts-upgradeable/utils/AddressUpgradeable.sol\":6792:7358  if (success) {... */\n    tag_414:\n        /* \"@openzeppelin/contracts-upgradeable/utils/AddressUpgradeable.sol\":6957:6958  0 */\n      0x00\n        /* \"@openzeppelin/contracts-upgradeable/utils/AddressUpgradeable.sol\":6937:6947  returndata */\n      dup4\n        /* \"@openzeppelin/contracts-upgradeable/utils/AddressUpgradeable.sol\":6937:6954  returndata.length */\n      mload\n        /* \"@openzeppelin/contracts-upgradeable/utils/AddressUpgradeable.sol\":6937:6958  returndata.length > 0 */\n      gt\n        /* \"@openzeppelin/contracts-upgradeable/utils/AddressUpgradeable.sol\":6933:7348  if (returndata.length > 0) {... */\n      iszero\n      tag_416\n      jumpi\n        /* \"@openzeppelin/contracts-upgradeable/utils/AddressUpgradeable.sol\":7181:7191  returndata */\n      dup3\n        /* \"@openzeppelin/contracts-upgradeable/utils/AddressUpgradeable.sol\":7175:7192  mload(returndata) */\n      mload\n        /* \"@openzeppelin/contracts-upgradeable/utils/AddressUpgradeable.sol\":7241:7256  returndata_size */\n      dup1\n        /* \"@openzeppelin/contracts-upgradeable/utils/AddressUpgradeable.sol\":7228:7238  returndata */\n      dup5\n        /* \"@openzeppelin/contracts-upgradeable/utils/AddressUpgradeable.sol\":7224:7226  32 */\n      0x20\n        /* \"@openzeppelin/contracts-upgradeable/utils/AddressUpgradeable.sol\":7220:7239  add(32, returndata) */\n      add\n        /* \"@openzeppelin/contracts-upgradeable/utils/AddressUpgradeable.sol\":7213:7257  revert(add(32, returndata), returndata_size) */\n      revert\n        /* \"@openzeppelin/contracts-upgradeable/utils/AddressUpgradeable.sol\":7130:7275  {... */\n    tag_416:\n        /* \"@openzeppelin/contracts-upgradeable/utils/AddressUpgradeable.sol\":7320:7332  errorMessage */\n      dup2\n        /* \"@openzeppelin/contracts-upgradeable/utils/AddressUpgradeable.sol\":7313:7333  revert(errorMessage) */\n      mload(0x40)\n      0x08c379a000000000000000000000000000000000000000000000000000000000\n      dup2\n      mstore\n      0x04\n      add\n      tag_418\n      swap2\n      swap1\n      tag_31\n      jump\t// in\n    tag_418:\n      mload(0x40)\n      dup1\n      swap2\n      sub\n      swap1\n      revert\n        /* \"@openzeppelin/contracts-upgradeable/utils/AddressUpgradeable.sol\":6622:7364  function verifyCallResult(... */\n    tag_413:\n      swap4\n      swap3\n      pop\n      pop\n      pop\n      jump\t// out\n    tag_391:\n      dup3\n      dup1\n      sload\n      tag_419\n      swap1\n      tag_133\n      jump\t// in\n    tag_419:\n      swap1\n      0x00\n      mstore\n      keccak256(0x00, 0x20)\n      swap1\n      0x1f\n      add\n      0x20\n      swap1\n      div\n      dup2\n      add\n      swap3\n      dup3\n      tag_421\n      jumpi\n      0x00\n      dup6\n      sstore\n      jump(tag_420)\n    tag_421:\n      dup3\n      0x1f\n      lt\n      tag_422\n      jumpi\n      dup1\n      mload\n      not(0xff)\n      and\n      dup4\n      dup1\n      add\n      or\n      dup6\n      sstore\n      jump(tag_420)\n    tag_422:\n      dup3\n      dup1\n      add\n      0x01\n      add\n      dup6\n      sstore\n      dup3\n      iszero\n      tag_420\n      jumpi\n      swap2\n      dup3\n      add\n    tag_423:\n      dup3\n      dup2\n      gt\n      iszero\n      tag_424\n      jumpi\n      dup3\n      mload\n      dup3\n      sstore\n      swap2\n      0x20\n      add\n      swap2\n      swap1\n      0x01\n      add\n      swap1\n      jump(tag_423)\n    tag_424:\n    tag_420:\n      pop\n      swap1\n      pop\n      tag_425\n      swap2\n      swap1\n      tag_426\n      jump\t// in\n    tag_425:\n      pop\n      swap1\n      jump\t// out\n    tag_426:\n    tag_427:\n      dup1\n      dup3\n      gt\n      iszero\n      tag_428\n      jumpi\n      0x00\n      dup2\n      0x00\n      swap1\n      sstore\n      pop\n      0x01\n      add\n      jump(tag_427)\n    tag_428:\n      pop\n      swap1\n      jump\t// out\n        /* \"#utility.yul\":7:350   */\n    tag_430:\n        /* \"#utility.yul\":84:89   */\n      0x00\n        /* \"#utility.yul\":109:174   */\n      tag_432\n        /* \"#utility.yul\":125:173   */\n      tag_433\n        /* \"#utility.yul\":166:172   */\n      dup5\n        /* \"#utility.yul\":125:173   */\n      tag_434\n      jump\t// in\n    tag_433:\n        /* \"#utility.yul\":109:174   */\n      tag_435\n      jump\t// in\n    tag_432:\n        /* \"#utility.yul\":100:174   */\n      swap1\n      pop\n        /* \"#utility.yul\":197:203   */\n      dup3\n        /* \"#utility.yul\":190:195   */\n      dup2\n        /* \"#utility.yul\":183:204   */\n      mstore\n        /* \"#utility.yul\":235:239   */\n      0x20\n        /* \"#utility.yul\":228:233   */\n      dup2\n        /* \"#utility.yul\":224:240   */\n      add\n        /* \"#utility.yul\":273:276   */\n      dup5\n        /* \"#utility.yul\":264:270   */\n      dup5\n        /* \"#utility.yul\":259:262   */\n      dup5\n        /* \"#utility.yul\":255:271   */\n      add\n        /* \"#utility.yul\":252:277   */\n      gt\n        /* \"#utility.yul\":249:251   */\n      iszero\n      tag_436\n      jumpi\n        /* \"#utility.yul\":290:291   */\n      0x00\n        /* \"#utility.yul\":287:288   */\n      dup1\n        /* \"#utility.yul\":280:292   */\n      revert\n        /* \"#utility.yul\":249:251   */\n    tag_436:\n        /* \"#utility.yul\":303:344   */\n      tag_437\n        /* \"#utility.yul\":337:343   */\n      dup5\n        /* \"#utility.yul\":332:335   */\n      dup3\n        /* \"#utility.yul\":327:330   */\n      dup6\n        /* \"#utility.yul\":303:344   */\n      tag_438\n      jump\t// in\n    tag_437:\n        /* \"#utility.yul\":90:350   */\n      pop\n      swap4\n      swap3\n      pop\n      pop\n      pop\n      jump\t// out\n        /* \"#utility.yul\":356:495   */\n    tag_439:\n        /* \"#utility.yul\":402:407   */\n      0x00\n        /* \"#utility.yul\":440:446   */\n      dup2\n        /* \"#utility.yul\":427:447   */\n      calldataload\n        /* \"#utility.yul\":418:447   */\n      swap1\n      pop\n        /* \"#utility.yul\":456:489   */\n      tag_441\n        /* \"#utility.yul\":483:488   */\n      dup2\n        /* \"#utility.yul\":456:489   */\n      tag_442\n      jump\t// in\n    tag_441:\n        /* \"#utility.yul\":408:495   */\n      swap3\n      swap2\n      pop\n      pop\n      jump\t// out\n        /* \"#utility.yul\":501:644   */\n    tag_443:\n        /* \"#utility.yul\":558:563   */\n      0x00\n        /* \"#utility.yul\":589:595   */\n      dup2\n        /* \"#utility.yul\":583:596   */\n      mload\n        /* \"#utility.yul\":574:596   */\n      swap1\n      pop\n        /* \"#utility.yul\":605:638   */\n      tag_445\n        /* \"#utility.yul\":632:637   */\n      dup2\n        /* \"#utility.yul\":605:638   */\n      tag_446\n      jump\t// in\n    tag_445:\n        /* \"#utility.yul\":564:644   */\n      swap3\n      swap2\n      pop\n      pop\n      jump\t// out\n        /* \"#utility.yul\":663:934   */\n    tag_447:\n        /* \"#utility.yul\":718:723   */\n      0x00\n        /* \"#utility.yul\":767:770   */\n      dup3\n        /* \"#utility.yul\":760:764   */\n      0x1f\n        /* \"#utility.yul\":752:758   */\n      dup4\n        /* \"#utility.yul\":748:765   */\n      add\n        /* \"#utility.yul\":744:771   */\n      slt\n        /* \"#utility.yul\":734:736   */\n      tag_449\n      jumpi\n        /* \"#utility.yul\":785:786   */\n      0x00\n        /* \"#utility.yul\":782:783   */\n      dup1\n        /* \"#utility.yul\":775:787   */\n      revert\n        /* \"#utility.yul\":734:736   */\n    tag_449:\n        /* \"#utility.yul\":825:831   */\n      dup2\n        /* \"#utility.yul\":812:832   */\n      calldataload\n        /* \"#utility.yul\":850:928   */\n      tag_450\n        /* \"#utility.yul\":924:927   */\n      dup5\n        /* \"#utility.yul\":916:922   */\n      dup3\n        /* \"#utility.yul\":909:913   */\n      0x20\n        /* \"#utility.yul\":901:907   */\n      dup7\n        /* \"#utility.yul\":897:914   */\n      add\n        /* \"#utility.yul\":850:928   */\n      tag_430\n      jump\t// in\n    tag_450:\n        /* \"#utility.yul\":841:928   */\n      swap2\n      pop\n        /* \"#utility.yul\":724:934   */\n      pop\n      swap3\n      swap2\n      pop\n      pop\n      jump\t// out\n        /* \"#utility.yul\":940:1079   */\n    tag_451:\n        /* \"#utility.yul\":986:991   */\n      0x00\n        /* \"#utility.yul\":1024:1030   */\n      dup2\n        /* \"#utility.yul\":1011:1031   */\n      calldataload\n        /* \"#utility.yul\":1002:1031   */\n      swap1\n      pop\n        /* \"#utility.yul\":1040:1073   */\n      tag_453\n        /* \"#utility.yul\":1067:1072   */\n      dup2\n        /* \"#utility.yul\":1040:1073   */\n      tag_454\n      jump\t// in\n    tag_453:\n        /* \"#utility.yul\":992:1079   */\n      swap3\n      swap2\n      pop\n      pop\n      jump\t// out\n        /* \"#utility.yul\":1085:1347   */\n    tag_58:\n        /* \"#utility.yul\":1144:1150   */\n      0x00\n        /* \"#utility.yul\":1193:1195   */\n      0x20\n        /* \"#utility.yul\":1181:1190   */\n      dup3\n        /* \"#utility.yul\":1172:1179   */\n      dup5\n        /* \"#utility.yul\":1168:1191   */\n      sub\n        /* \"#utility.yul\":1164:1196   */\n      slt\n        /* \"#utility.yul\":1161:1163   */\n      iszero\n      tag_456\n      jumpi\n        /* \"#utility.yul\":1209:1210   */\n      0x00\n        /* \"#utility.yul\":1206:1207   */\n      dup1\n        /* \"#utility.yul\":1199:1211   */\n      revert\n        /* \"#utility.yul\":1161:1163   */\n    tag_456:\n        /* \"#utility.yul\":1252:1253   */\n      0x00\n        /* \"#utility.yul\":1277:1330   */\n      tag_457\n        /* \"#utility.yul\":1322:1329   */\n      dup5\n        /* \"#utility.yul\":1313:1319   */\n      dup3\n        /* \"#utility.yul\":1302:1311   */\n      dup6\n        /* \"#utility.yul\":1298:1320   */\n      add\n        /* \"#utility.yul\":1277:1330   */\n      tag_439\n      jump\t// in\n    tag_457:\n        /* \"#utility.yul\":1267:1330   */\n      swap2\n      pop\n        /* \"#utility.yul\":1223:1340   */\n      pop\n        /* \"#utility.yul\":1151:1347   */\n      swap3\n      swap2\n      pop\n      pop\n      jump\t// out\n        /* \"#utility.yul\":1353:1760   */\n    tag_124:\n        /* \"#utility.yul\":1421:1427   */\n      0x00\n        /* \"#utility.yul\":1429:1435   */\n      dup1\n        /* \"#utility.yul\":1478:1480   */\n      0x40\n        /* \"#utility.yul\":1466:1475   */\n      dup4\n        /* \"#utility.yul\":1457:1464   */\n      dup6\n        /* \"#utility.yul\":1453:1476   */\n      sub\n        /* \"#utility.yul\":1449:1481   */\n      slt\n        /* \"#utility.yul\":1446:1448   */\n      iszero\n      tag_459\n      jumpi\n        /* \"#utility.yul\":1494:1495   */\n      0x00\n        /* \"#utility.yul\":1491:1492   */\n      dup1\n        /* \"#utility.yul\":1484:1496   */\n      revert\n        /* \"#utility.yul\":1446:1448   */\n    tag_459:\n        /* \"#utility.yul\":1537:1538   */\n      0x00\n        /* \"#utility.yul\":1562:1615   */\n      tag_460\n        /* \"#utility.yul\":1607:1614   */\n      dup6\n        /* \"#utility.yul\":1598:1604   */\n      dup3\n        /* \"#utility.yul\":1587:1596   */\n      dup7\n        /* \"#utility.yul\":1583:1605   */\n      add\n        /* \"#utility.yul\":1562:1615   */\n      tag_439\n      jump\t// in\n    tag_460:\n        /* \"#utility.yul\":1552:1615   */\n      swap3\n      pop\n        /* \"#utility.yul\":1508:1625   */\n      pop\n        /* \"#utility.yul\":1664:1666   */\n      0x20\n        /* \"#utility.yul\":1690:1743   */\n      tag_461\n        /* \"#utility.yul\":1735:1742   */\n      dup6\n        /* \"#utility.yul\":1726:1732   */\n      dup3\n        /* \"#utility.yul\":1715:1724   */\n      dup7\n        /* \"#utility.yul\":1711:1733   */\n      add\n        /* \"#utility.yul\":1690:1743   */\n      tag_439\n      jump\t// in\n    tag_461:\n        /* \"#utility.yul\":1680:1743   */\n      swap2\n      pop\n        /* \"#utility.yul\":1635:1753   */\n      pop\n        /* \"#utility.yul\":1436:1760   */\n      swap3\n      pop\n      swap3\n      swap1\n      pop\n      jump\t// out\n        /* \"#utility.yul\":1766:2318   */\n    tag_47:\n        /* \"#utility.yul\":1843:1849   */\n      0x00\n        /* \"#utility.yul\":1851:1857   */\n      dup1\n        /* \"#utility.yul\":1859:1865   */\n      0x00\n        /* \"#utility.yul\":1908:1910   */\n      0x60\n        /* \"#utility.yul\":1896:1905   */\n      dup5\n        /* \"#utility.yul\":1887:1894   */\n      dup7\n        /* \"#utility.yul\":1883:1906   */\n      sub\n        /* \"#utility.yul\":1879:1911   */\n      slt\n        /* \"#utility.yul\":1876:1878   */\n      iszero\n      tag_463\n      jumpi\n        /* \"#utility.yul\":1924:1925   */\n      0x00\n        /* \"#utility.yul\":1921:1922   */\n      dup1\n        /* \"#utility.yul\":1914:1926   */\n      revert\n        /* \"#utility.yul\":1876:1878   */\n    tag_463:\n        /* \"#utility.yul\":1967:1968   */\n      0x00\n        /* \"#utility.yul\":1992:2045   */\n      tag_464\n        /* \"#utility.yul\":2037:2044   */\n      dup7\n        /* \"#utility.yul\":2028:2034   */\n      dup3\n        /* \"#utility.yul\":2017:2026   */\n      dup8\n        /* \"#utility.yul\":2013:2035   */\n      add\n        /* \"#utility.yul\":1992:2045   */\n      tag_439\n      jump\t// in\n    tag_464:\n        /* \"#utility.yul\":1982:2045   */\n      swap4\n      pop\n        /* \"#utility.yul\":1938:2055   */\n      pop\n        /* \"#utility.yul\":2094:2096   */\n      0x20\n        /* \"#utility.yul\":2120:2173   */\n      tag_465\n        /* \"#utility.yul\":2165:2172   */\n      dup7\n        /* \"#utility.yul\":2156:2162   */\n      dup3\n        /* \"#utility.yul\":2145:2154   */\n      dup8\n        /* \"#utility.yul\":2141:2163   */\n      add\n        /* \"#utility.yul\":2120:2173   */\n      tag_439\n      jump\t// in\n    tag_465:\n        /* \"#utility.yul\":2110:2173   */\n      swap3\n      pop\n        /* \"#utility.yul\":2065:2183   */\n      pop\n        /* \"#utility.yul\":2222:2224   */\n      0x40\n        /* \"#utility.yul\":2248:2301   */\n      tag_466\n        /* \"#utility.yul\":2293:2300   */\n      dup7\n        /* \"#utility.yul\":2284:2290   */\n      dup3\n        /* \"#utility.yul\":2273:2282   */\n      dup8\n        /* \"#utility.yul\":2269:2291   */\n      add\n        /* \"#utility.yul\":2248:2301   */\n      tag_451\n      jump\t// in\n    tag_466:\n        /* \"#utility.yul\":2238:2301   */\n      swap2\n      pop\n        /* \"#utility.yul\":2193:2311   */\n      pop\n        /* \"#utility.yul\":1866:2318   */\n      swap3\n      pop\n      swap3\n      pop\n      swap3\n      jump\t// out\n        /* \"#utility.yul\":2324:2842   */\n    tag_76:\n        /* \"#utility.yul\":2401:2407   */\n      0x00\n        /* \"#utility.yul\":2409:2415   */\n      dup1\n        /* \"#utility.yul\":2458:2460   */\n      0x40\n        /* \"#utility.yul\":2446:2455   */\n      dup4\n        /* \"#utility.yul\":2437:2444   */\n      dup6\n        /* \"#utility.yul\":2433:2456   */\n      sub\n        /* \"#utility.yul\":2429:2461   */\n      slt\n        /* \"#utility.yul\":2426:2428   */\n      iszero\n      tag_468\n      jumpi\n        /* \"#utility.yul\":2474:2475   */\n      0x00\n        /* \"#utility.yul\":2471:2472   */\n      dup1\n        /* \"#utility.yul\":2464:2476   */\n      revert\n        /* \"#utility.yul\":2426:2428   */\n    tag_468:\n        /* \"#utility.yul\":2517:2518   */\n      0x00\n        /* \"#utility.yul\":2542:2595   */\n      tag_469\n        /* \"#utility.yul\":2587:2594   */\n      dup6\n        /* \"#utility.yul\":2578:2584   */\n      dup3\n        /* \"#utility.yul\":2567:2576   */\n      dup7\n        /* \"#utility.yul\":2563:2585   */\n      add\n        /* \"#utility.yul\":2542:2595   */\n      tag_439\n      jump\t// in\n    tag_469:\n        /* \"#utility.yul\":2532:2595   */\n      swap3\n      pop\n        /* \"#utility.yul\":2488:2605   */\n      pop\n        /* \"#utility.yul\":2672:2674   */\n      0x20\n        /* \"#utility.yul\":2661:2670   */\n      dup4\n        /* \"#utility.yul\":2657:2675   */\n      add\n        /* \"#utility.yul\":2644:2676   */\n      calldataload\n        /* \"#utility.yul\":2703:2721   */\n      0xffffffffffffffff\n        /* \"#utility.yul\":2695:2701   */\n      dup2\n        /* \"#utility.yul\":2692:2722   */\n      gt\n        /* \"#utility.yul\":2689:2691   */\n      iszero\n      tag_470\n      jumpi\n        /* \"#utility.yul\":2735:2736   */\n      0x00\n        /* \"#utility.yul\":2732:2733   */\n      dup1\n        /* \"#utility.yul\":2725:2737   */\n      revert\n        /* \"#utility.yul\":2689:2691   */\n    tag_470:\n        /* \"#utility.yul\":2763:2825   */\n      tag_471\n        /* \"#utility.yul\":2817:2824   */\n      dup6\n        /* \"#utility.yul\":2808:2814   */\n      dup3\n        /* \"#utility.yul\":2797:2806   */\n      dup7\n        /* \"#utility.yul\":2793:2815   */\n      add\n        /* \"#utility.yul\":2763:2825   */\n      tag_447\n      jump\t// in\n    tag_471:\n        /* \"#utility.yul\":2753:2825   */\n      swap2\n      pop\n        /* \"#utility.yul\":2615:2835   */\n      pop\n        /* \"#utility.yul\":2416:2842   */\n      swap3\n      pop\n      swap3\n      swap1\n      pop\n      jump\t// out\n        /* \"#utility.yul\":2848:3255   */\n    tag_35:\n        /* \"#utility.yul\":2916:2922   */\n      0x00\n        /* \"#utility.yul\":2924:2930   */\n      dup1\n        /* \"#utility.yul\":2973:2975   */\n      0x40\n        /* \"#utility.yul\":2961:2970   */\n      dup4\n        /* \"#utility.yul\":2952:2959   */\n      dup6\n        /* \"#utility.yul\":2948:2971   */\n      sub\n        /* \"#utility.yul\":2944:2976   */\n      slt\n        /* \"#utility.yul\":2941:2943   */\n      iszero\n      tag_473\n      jumpi\n        /* \"#utility.yul\":2989:2990   */\n      0x00\n        /* \"#utility.yul\":2986:2987   */\n      dup1\n        /* \"#utility.yul\":2979:2991   */\n      revert\n        /* \"#utility.yul\":2941:2943   */\n    tag_473:\n        /* \"#utility.yul\":3032:3033   */\n      0x00\n        /* \"#utility.yul\":3057:3110   */\n      tag_474\n        /* \"#utility.yul\":3102:3109   */\n      dup6\n        /* \"#utility.yul\":3093:3099   */\n      dup3\n        /* \"#utility.yul\":3082:3091   */\n      dup7\n        /* \"#utility.yul\":3078:3100   */\n      add\n        /* \"#utility.yul\":3057:3110   */\n      tag_439\n      jump\t// in\n    tag_474:\n        /* \"#utility.yul\":3047:3110   */\n      swap3\n      pop\n        /* \"#utility.yul\":3003:3120   */\n      pop\n        /* \"#utility.yul\":3159:3161   */\n      0x20\n        /* \"#utility.yul\":3185:3238   */\n      tag_475\n        /* \"#utility.yul\":3230:3237   */\n      dup6\n        /* \"#utility.yul\":3221:3227   */\n      dup3\n        /* \"#utility.yul\":3210:3219   */\n      dup7\n        /* \"#utility.yul\":3206:3228   */\n      add\n        /* \"#utility.yul\":3185:3238   */\n      tag_451\n      jump\t// in\n    tag_475:\n        /* \"#utility.yul\":3175:3238   */\n      swap2\n      pop\n        /* \"#utility.yul\":3130:3248   */\n      pop\n        /* \"#utility.yul\":2931:3255   */\n      swap3\n      pop\n      swap3\n      swap1\n      pop\n      jump\t// out\n        /* \"#utility.yul\":3261:3545   */\n    tag_306:\n        /* \"#utility.yul\":3331:3337   */\n      0x00\n        /* \"#utility.yul\":3380:3382   */\n      0x20\n        /* \"#utility.yul\":3368:3377   */\n      dup3\n        /* \"#utility.yul\":3359:3366   */\n      dup5\n        /* \"#utility.yul\":3355:3378   */\n      sub\n        /* \"#utility.yul\":3351:3383   */\n      slt\n        /* \"#utility.yul\":3348:3350   */\n      iszero\n      tag_477\n      jumpi\n        /* \"#utility.yul\":3396:3397   */\n      0x00\n        /* \"#utility.yul\":3393:3394   */\n      dup1\n        /* \"#utility.yul\":3386:3398   */\n      revert\n        /* \"#utility.yul\":3348:3350   */\n    tag_477:\n        /* \"#utility.yul\":3439:3440   */\n      0x00\n        /* \"#utility.yul\":3464:3528   */\n      tag_478\n        /* \"#utility.yul\":3520:3527   */\n      dup5\n        /* \"#utility.yul\":3511:3517   */\n      dup3\n        /* \"#utility.yul\":3500:3509   */\n      dup6\n        /* \"#utility.yul\":3496:3518   */\n      add\n        /* \"#utility.yul\":3464:3528   */\n      tag_443\n      jump\t// in\n    tag_478:\n        /* \"#utility.yul\":3454:3528   */\n      swap2\n      pop\n        /* \"#utility.yul\":3410:3538   */\n      pop\n        /* \"#utility.yul\":3338:3545   */\n      swap3\n      swap2\n      pop\n      pop\n      jump\t// out\n        /* \"#utility.yul\":3551:3813   */\n    tag_72:\n        /* \"#utility.yul\":3610:3616   */\n      0x00\n        /* \"#utility.yul\":3659:3661   */\n      0x20\n        /* \"#utility.yul\":3647:3656   */\n      dup3\n        /* \"#utility.yul\":3638:3645   */\n      dup5\n        /* \"#utility.yul\":3634:3657   */\n      sub\n        /* \"#utility.yul\":3630:3662   */\n      slt\n        /* \"#utility.yul\":3627:3629   */\n      iszero\n      tag_480\n      jumpi\n        /* \"#utility.yul\":3675:3676   */\n      0x00\n        /* \"#utility.yul\":3672:3673   */\n      dup1\n        /* \"#utility.yul\":3665:3677   */\n      revert\n        /* \"#utility.yul\":3627:3629   */\n    tag_480:\n        /* \"#utility.yul\":3718:3719   */\n      0x00\n        /* \"#utility.yul\":3743:3796   */\n      tag_481\n        /* \"#utility.yul\":3788:3795   */\n      dup5\n        /* \"#utility.yul\":3779:3785   */\n      dup3\n        /* \"#utility.yul\":3768:3777   */\n      dup6\n        /* \"#utility.yul\":3764:3786   */\n      add\n        /* \"#utility.yul\":3743:3796   */\n      tag_451\n      jump\t// in\n    tag_481:\n        /* \"#utility.yul\":3733:3796   */\n      swap2\n      pop\n        /* \"#utility.yul\":3689:3806   */\n      pop\n        /* \"#utility.yul\":3617:3813   */\n      swap3\n      swap2\n      pop\n      pop\n      jump\t// out\n        /* \"#utility.yul\":3819:3937   */\n    tag_482:\n        /* \"#utility.yul\":3906:3930   */\n      tag_484\n        /* \"#utility.yul\":3924:3929   */\n      dup2\n        /* \"#utility.yul\":3906:3930   */\n      tag_485\n      jump\t// in\n    tag_484:\n        /* \"#utility.yul\":3901:3904   */\n      dup3\n        /* \"#utility.yul\":3894:3931   */\n      mstore\n        /* \"#utility.yul\":3884:3937   */\n      pop\n      pop\n      jump\t// out\n        /* \"#utility.yul\":3943:4052   */\n    tag_486:\n        /* \"#utility.yul\":4024:4045   */\n      tag_488\n        /* \"#utility.yul\":4039:4044   */\n      dup2\n        /* \"#utility.yul\":4024:4045   */\n      tag_489\n      jump\t// in\n    tag_488:\n        /* \"#utility.yul\":4019:4022   */\n      dup3\n        /* \"#utility.yul\":4012:4046   */\n      mstore\n        /* \"#utility.yul\":4002:4052   */\n      pop\n      pop\n      jump\t// out\n        /* \"#utility.yul\":4058:4176   */\n    tag_490:\n        /* \"#utility.yul\":4145:4169   */\n      tag_492\n        /* \"#utility.yul\":4163:4168   */\n      dup2\n        /* \"#utility.yul\":4145:4169   */\n      tag_493\n      jump\t// in\n    tag_492:\n        /* \"#utility.yul\":4140:4143   */\n      dup3\n        /* \"#utility.yul\":4133:4170   */\n      mstore\n        /* \"#utility.yul\":4123:4176   */\n      pop\n      pop\n      jump\t// out\n        /* \"#utility.yul\":4182:4555   */\n    tag_494:\n        /* \"#utility.yul\":4286:4289   */\n      0x00\n        /* \"#utility.yul\":4314:4352   */\n      tag_496\n        /* \"#utility.yul\":4346:4351   */\n      dup3\n        /* \"#utility.yul\":4314:4352   */\n      tag_497\n      jump\t// in\n    tag_496:\n        /* \"#utility.yul\":4368:4456   */\n      tag_498\n        /* \"#utility.yul\":4449:4455   */\n      dup2\n        /* \"#utility.yul\":4444:4447   */\n      dup6\n        /* \"#utility.yul\":4368:4456   */\n      tag_499\n      jump\t// in\n    tag_498:\n        /* \"#utility.yul\":4361:4456   */\n      swap4\n      pop\n        /* \"#utility.yul\":4465:4517   */\n      tag_500\n        /* \"#utility.yul\":4510:4516   */\n      dup2\n        /* \"#utility.yul\":4505:4508   */\n      dup6\n        /* \"#utility.yul\":4498:4502   */\n      0x20\n        /* \"#utility.yul\":4491:4496   */\n      dup7\n        /* \"#utility.yul\":4487:4503   */\n      add\n        /* \"#utility.yul\":4465:4517   */\n      tag_501\n      jump\t// in\n    tag_500:\n        /* \"#utility.yul\":4542:4548   */\n      dup1\n        /* \"#utility.yul\":4537:4540   */\n      dup5\n        /* \"#utility.yul\":4533:4549   */\n      add\n        /* \"#utility.yul\":4526:4549   */\n      swap2\n      pop\n        /* \"#utility.yul\":4290:4555   */\n      pop\n      swap3\n      swap2\n      pop\n      pop\n      jump\t// out\n        /* \"#utility.yul\":4561:4704   */\n    tag_502:\n        /* \"#utility.yul\":4654:4697   */\n      tag_504\n        /* \"#utility.yul\":4691:4696   */\n      dup2\n        /* \"#utility.yul\":4654:4697   */\n      tag_505\n      jump\t// in\n    tag_504:\n        /* \"#utility.yul\":4649:4652   */\n      dup3\n        /* \"#utility.yul\":4642:4698   */\n      mstore\n        /* \"#utility.yul\":4632:4704   */\n      pop\n      pop\n      jump\t// out\n        /* \"#utility.yul\":4710:5074   */\n    tag_506:\n        /* \"#utility.yul\":4798:4801   */\n      0x00\n        /* \"#utility.yul\":4826:4865   */\n      tag_508\n        /* \"#utility.yul\":4859:4864   */\n      dup3\n        /* \"#utility.yul\":4826:4865   */\n      tag_509\n      jump\t// in\n    tag_508:\n        /* \"#utility.yul\":4881:4952   */\n      tag_510\n        /* \"#utility.yul\":4945:4951   */\n      dup2\n        /* \"#utility.yul\":4940:4943   */\n      dup6\n        /* \"#utility.yul\":4881:4952   */\n      tag_511\n      jump\t// in\n    tag_510:\n        /* \"#utility.yul\":4874:4952   */\n      swap4\n      pop\n        /* \"#utility.yul\":4961:5013   */\n      tag_512\n        /* \"#utility.yul\":5006:5012   */\n      dup2\n        /* \"#utility.yul\":5001:5004   */\n      dup6\n        /* \"#utility.yul\":4994:4998   */\n      0x20\n        /* \"#utility.yul\":4987:4992   */\n      dup7\n        /* \"#utility.yul\":4983:4999   */\n      add\n        /* \"#utility.yul\":4961:5013   */\n      tag_501\n      jump\t// in\n    tag_512:\n        /* \"#utility.yul\":5038:5067   */\n      tag_513\n        /* \"#utility.yul\":5060:5066   */\n      dup2\n        /* \"#utility.yul\":5038:5067   */\n      tag_514\n      jump\t// in\n    tag_513:\n        /* \"#utility.yul\":5033:5036   */\n      dup5\n        /* \"#utility.yul\":5029:5068   */\n      add\n        /* \"#utility.yul\":5022:5068   */\n      swap2\n      pop\n        /* \"#utility.yul\":4802:5074   */\n      pop\n      swap3\n      swap2\n      pop\n      pop\n      jump\t// out\n        /* \"#utility.yul\":5080:5446   */\n    tag_515:\n        /* \"#utility.yul\":5222:5225   */\n      0x00\n        /* \"#utility.yul\":5243:5310   */\n      tag_517\n        /* \"#utility.yul\":5307:5309   */\n      0x23\n        /* \"#utility.yul\":5302:5305   */\n      dup4\n        /* \"#utility.yul\":5243:5310   */\n      tag_511\n      jump\t// in\n    tag_517:\n        /* \"#utility.yul\":5236:5310   */\n      swap2\n      pop\n        /* \"#utility.yul\":5319:5412   */\n      tag_518\n        /* \"#utility.yul\":5408:5411   */\n      dup3\n        /* \"#utility.yul\":5319:5412   */\n      tag_519\n      jump\t// in\n    tag_518:\n        /* \"#utility.yul\":5437:5439   */\n      0x40\n        /* \"#utility.yul\":5432:5435   */\n      dup3\n        /* \"#utility.yul\":5428:5440   */\n      add\n        /* \"#utility.yul\":5421:5440   */\n      swap1\n      pop\n        /* \"#utility.yul\":5226:5446   */\n      swap2\n      swap1\n      pop\n      jump\t// out\n        /* \"#utility.yul\":5452:5818   */\n    tag_520:\n        /* \"#utility.yul\":5594:5597   */\n      0x00\n        /* \"#utility.yul\":5615:5682   */\n      tag_522\n        /* \"#utility.yul\":5679:5681   */\n      0x22\n        /* \"#utility.yul\":5674:5677   */\n      dup4\n        /* \"#utility.yul\":5615:5682   */\n      tag_511\n      jump\t// in\n    tag_522:\n        /* \"#utility.yul\":5608:5682   */\n      swap2\n      pop\n        /* \"#utility.yul\":5691:5784   */\n      tag_523\n        /* \"#utility.yul\":5780:5783   */\n      dup3\n        /* \"#utility.yul\":5691:5784   */\n      tag_524\n      jump\t// in\n    tag_523:\n        /* \"#utility.yul\":5809:5811   */\n      0x40\n        /* \"#utility.yul\":5804:5807   */\n      dup3\n        /* \"#utility.yul\":5800:5812   */\n      add\n        /* \"#utility.yul\":5793:5812   */\n      swap1\n      pop\n        /* \"#utility.yul\":5598:5818   */\n      swap2\n      swap1\n      pop\n      jump\t// out\n        /* \"#utility.yul\":5824:6190   */\n    tag_525:\n        /* \"#utility.yul\":5966:5969   */\n      0x00\n        /* \"#utility.yul\":5987:6054   */\n      tag_527\n        /* \"#utility.yul\":6051:6053   */\n      0x26\n        /* \"#utility.yul\":6046:6049   */\n      dup4\n        /* \"#utility.yul\":5987:6054   */\n      tag_511\n      jump\t// in\n    tag_527:\n        /* \"#utility.yul\":5980:6054   */\n      swap2\n      pop\n        /* \"#utility.yul\":6063:6156   */\n      tag_528\n        /* \"#utility.yul\":6152:6155   */\n      dup3\n        /* \"#utility.yul\":6063:6156   */\n      tag_529\n      jump\t// in\n    tag_528:\n        /* \"#utility.yul\":6181:6183   */\n      0x40\n        /* \"#utility.yul\":6176:6179   */\n      dup3\n        /* \"#utility.yul\":6172:6184   */\n      add\n        /* \"#utility.yul\":6165:6184   */\n      swap1\n      pop\n        /* \"#utility.yul\":5970:6190   */\n      swap2\n      swap1\n      pop\n      jump\t// out\n        /* \"#utility.yul\":6196:6562   */\n    tag_530:\n        /* \"#utility.yul\":6338:6341   */\n      0x00\n        /* \"#utility.yul\":6359:6426   */\n      tag_532\n        /* \"#utility.yul\":6423:6425   */\n      0x22\n        /* \"#utility.yul\":6418:6421   */\n      dup4\n        /* \"#utility.yul\":6359:6426   */\n      tag_511\n      jump\t// in\n    tag_532:\n        /* \"#utility.yul\":6352:6426   */\n      swap2\n      pop\n        /* \"#utility.yul\":6435:6528   */\n      tag_533\n        /* \"#utility.yul\":6524:6527   */\n      dup3\n        /* \"#utility.yul\":6435:6528   */\n      tag_534\n      jump\t// in\n    tag_533:\n        /* \"#utility.yul\":6553:6555   */\n      0x40\n        /* \"#utility.yul\":6548:6551   */\n      dup3\n        /* \"#utility.yul\":6544:6556   */\n      add\n        /* \"#utility.yul\":6537:6556   */\n      swap1\n      pop\n        /* \"#utility.yul\":6342:6562   */\n      swap2\n      swap1\n      pop\n      jump\t// out\n        /* \"#utility.yul\":6568:6934   */\n    tag_535:\n        /* \"#utility.yul\":6710:6713   */\n      0x00\n        /* \"#utility.yul\":6731:6798   */\n      tag_537\n        /* \"#utility.yul\":6795:6797   */\n      0x2c\n        /* \"#utility.yul\":6790:6793   */\n      dup4\n        /* \"#utility.yul\":6731:6798   */\n      tag_511\n      jump\t// in\n    tag_537:\n        /* \"#utility.yul\":6724:6798   */\n      swap2\n      pop\n        /* \"#utility.yul\":6807:6900   */\n      tag_538\n        /* \"#utility.yul\":6896:6899   */\n      dup3\n        /* \"#utility.yul\":6807:6900   */\n      tag_539\n      jump\t// in\n    tag_538:\n        /* \"#utility.yul\":6925:6927   */\n      0x40\n        /* \"#utility.yul\":6920:6923   */\n      dup3\n        /* \"#utility.yul\":6916:6928   */\n      add\n        /* \"#utility.yul\":6909:6928   */\n      swap1\n      pop\n        /* \"#utility.yul\":6714:6934   */\n      swap2\n      swap1\n      pop\n      jump\t// out\n        /* \"#utility.yul\":6940:7306   */\n    tag_540:\n        /* \"#utility.yul\":7082:7085   */\n      0x00\n        /* \"#utility.yul\":7103:7170   */\n      tag_542\n        /* \"#utility.yul\":7167:7169   */\n      0x1d\n        /* \"#utility.yul\":7162:7165   */\n      dup4\n        /* \"#utility.yul\":7103:7170   */\n      tag_511\n      jump\t// in\n    tag_542:\n        /* \"#utility.yul\":7096:7170   */\n      swap2\n      pop\n        /* \"#utility.yul\":7179:7272   */\n      tag_543\n        /* \"#utility.yul\":7268:7271   */\n      dup3\n        /* \"#utility.yul\":7179:7272   */\n      tag_544\n      jump\t// in\n    tag_543:\n        /* \"#utility.yul\":7297:7299   */\n      0x20\n        /* \"#utility.yul\":7292:7295   */\n      dup3\n        /* \"#utility.yul\":7288:7300   */\n      add\n        /* \"#utility.yul\":7281:7300   */\n      swap1\n      pop\n        /* \"#utility.yul\":7086:7306   */\n      swap2\n      swap1\n      pop\n      jump\t// out\n        /* \"#utility.yul\":7312:7678   */\n    tag_545:\n        /* \"#utility.yul\":7454:7457   */\n      0x00\n        /* \"#utility.yul\":7475:7542   */\n      tag_547\n        /* \"#utility.yul\":7539:7541   */\n      0x26\n        /* \"#utility.yul\":7534:7537   */\n      dup4\n        /* \"#utility.yul\":7475:7542   */\n      tag_511\n      jump\t// in\n    tag_547:\n        /* \"#utility.yul\":7468:7542   */\n      swap2\n      pop\n        /* \"#utility.yul\":7551:7644   */\n      tag_548\n        /* \"#utility.yul\":7640:7643   */\n      dup3\n        /* \"#utility.yul\":7551:7644   */\n      tag_549\n      jump\t// in\n    tag_548:\n        /* \"#utility.yul\":7669:7671   */\n      0x40\n        /* \"#utility.yul\":7664:7667   */\n      dup3\n        /* \"#utility.yul\":7660:7672   */\n      add\n        /* \"#utility.yul\":7653:7672   */\n      swap1\n      pop\n        /* \"#utility.yul\":7458:7678   */\n      swap2\n      swap1\n      pop\n      jump\t// out\n        /* \"#utility.yul\":7684:8050   */\n    tag_550:\n        /* \"#utility.yul\":7826:7829   */\n      0x00\n        /* \"#utility.yul\":7847:7914   */\n      tag_552\n        /* \"#utility.yul\":7911:7913   */\n      0x2c\n        /* \"#utility.yul\":7906:7909   */\n      dup4\n        /* \"#utility.yul\":7847:7914   */\n      tag_511\n      jump\t// in\n    tag_552:\n        /* \"#utility.yul\":7840:7914   */\n      swap2\n      pop\n        /* \"#utility.yul\":7923:8016   */\n      tag_553\n        /* \"#utility.yul\":8012:8015   */\n      dup3\n        /* \"#utility.yul\":7923:8016   */\n      tag_554\n      jump\t// in\n    tag_553:\n        /* \"#utility.yul\":8041:8043   */\n      0x40\n        /* \"#utility.yul\":8036:8039   */\n      dup3\n        /* \"#utility.yul\":8032:8044   */\n      add\n        /* \"#utility.yul\":8025:8044   */\n      swap1\n      pop\n        /* \"#utility.yul\":7830:8050   */\n      swap2\n      swap1\n      pop\n      jump\t// out\n        /* \"#utility.yul\":8056:8422   */\n    tag_555:\n        /* \"#utility.yul\":8198:8201   */\n      0x00\n        /* \"#utility.yul\":8219:8286   */\n      tag_557\n        /* \"#utility.yul\":8283:8285   */\n      0x38\n        /* \"#utility.yul\":8278:8281   */\n      dup4\n        /* \"#utility.yul\":8219:8286   */\n      tag_511\n      jump\t// in\n    tag_557:\n        /* \"#utility.yul\":8212:8286   */\n      swap2\n      pop\n        /* \"#utility.yul\":8295:8388   */\n      tag_558\n        /* \"#utility.yul\":8384:8387   */\n      dup3\n        /* \"#utility.yul\":8295:8388   */\n      tag_559\n      jump\t// in\n    tag_558:\n        /* \"#utility.yul\":8413:8415   */\n      0x40\n        /* \"#utility.yul\":8408:8411   */\n      dup3\n        /* \"#utility.yul\":8404:8416   */\n      add\n        /* \"#utility.yul\":8397:8416   */\n      swap1\n      pop\n        /* \"#utility.yul\":8202:8422   */\n      swap2\n      swap1\n      pop\n      jump\t// out\n        /* \"#utility.yul\":8428:8794   */\n    tag_560:\n        /* \"#utility.yul\":8570:8573   */\n      0x00\n        /* \"#utility.yul\":8591:8658   */\n      tag_562\n        /* \"#utility.yul\":8655:8657   */\n      0x29\n        /* \"#utility.yul\":8650:8653   */\n      dup4\n        /* \"#utility.yul\":8591:8658   */\n      tag_511\n      jump\t// in\n    tag_562:\n        /* \"#utility.yul\":8584:8658   */\n      swap2\n      pop\n        /* \"#utility.yul\":8667:8760   */\n      tag_563\n        /* \"#utility.yul\":8756:8759   */\n      dup3\n        /* \"#utility.yul\":8667:8760   */\n      tag_564\n      jump\t// in\n    tag_563:\n        /* \"#utility.yul\":8785:8787   */\n      0x40\n        /* \"#utility.yul\":8780:8783   */\n      dup3\n        /* \"#utility.yul\":8776:8788   */\n      add\n        /* \"#utility.yul\":8769:8788   */\n      swap1\n      pop\n        /* \"#utility.yul\":8574:8794   */\n      swap2\n      swap1\n      pop\n      jump\t// out\n        /* \"#utility.yul\":8800:9166   */\n    tag_565:\n        /* \"#utility.yul\":8942:8945   */\n      0x00\n        /* \"#utility.yul\":8963:9030   */\n      tag_567\n        /* \"#utility.yul\":9027:9029   */\n      0x2e\n        /* \"#utility.yul\":9022:9025   */\n      dup4\n        /* \"#utility.yul\":8963:9030   */\n      tag_511\n      jump\t// in\n    tag_567:\n        /* \"#utility.yul\":8956:9030   */\n      swap2\n      pop\n        /* \"#utility.yul\":9039:9132   */\n      tag_568\n        /* \"#utility.yul\":9128:9131   */\n      dup3\n        /* \"#utility.yul\":9039:9132   */\n      tag_569\n      jump\t// in\n    tag_568:\n        /* \"#utility.yul\":9157:9159   */\n      0x40\n        /* \"#utility.yul\":9152:9155   */\n      dup3\n        /* \"#utility.yul\":9148:9160   */\n      add\n        /* \"#utility.yul\":9141:9160   */\n      swap1\n      pop\n        /* \"#utility.yul\":8946:9166   */\n      swap2\n      swap1\n      pop\n      jump\t// out\n        /* \"#utility.yul\":9172:9538   */\n    tag_570:\n        /* \"#utility.yul\":9314:9317   */\n      0x00\n        /* \"#utility.yul\":9335:9402   */\n      tag_572\n        /* \"#utility.yul\":9399:9401   */\n      0x2e\n        /* \"#utility.yul\":9394:9397   */\n      dup4\n        /* \"#utility.yul\":9335:9402   */\n      tag_511\n      jump\t// in\n    tag_572:\n        /* \"#utility.yul\":9328:9402   */\n      swap2\n      pop\n        /* \"#utility.yul\":9411:9504   */\n      tag_573\n        /* \"#utility.yul\":9500:9503   */\n      dup3\n        /* \"#utility.yul\":9411:9504   */\n      tag_574\n      jump\t// in\n    tag_573:\n        /* \"#utility.yul\":9529:9531   */\n      0x40\n        /* \"#utility.yul\":9524:9527   */\n      dup3\n        /* \"#utility.yul\":9520:9532   */\n      add\n        /* \"#utility.yul\":9513:9532   */\n      swap1\n      pop\n        /* \"#utility.yul\":9318:9538   */\n      swap2\n      swap1\n      pop\n      jump\t// out\n        /* \"#utility.yul\":9544:9910   */\n    tag_575:\n        /* \"#utility.yul\":9686:9689   */\n      0x00\n        /* \"#utility.yul\":9707:9774   */\n      tag_577\n        /* \"#utility.yul\":9771:9773   */\n      0x2d\n        /* \"#utility.yul\":9766:9769   */\n      dup4\n        /* \"#utility.yul\":9707:9774   */\n      tag_511\n      jump\t// in\n    tag_577:\n        /* \"#utility.yul\":9700:9774   */\n      swap2\n      pop\n        /* \"#utility.yul\":9783:9876   */\n      tag_578\n        /* \"#utility.yul\":9872:9875   */\n      dup3\n        /* \"#utility.yul\":9783:9876   */\n      tag_579\n      jump\t// in\n    tag_578:\n        /* \"#utility.yul\":9901:9903   */\n      0x40\n        /* \"#utility.yul\":9896:9899   */\n      dup3\n        /* \"#utility.yul\":9892:9904   */\n      add\n        /* \"#utility.yul\":9885:9904   */\n      swap1\n      pop\n        /* \"#utility.yul\":9690:9910   */\n      swap2\n      swap1\n      pop\n      jump\t// out\n        /* \"#utility.yul\":9916:10282   */\n    tag_580:\n        /* \"#utility.yul\":10058:10061   */\n      0x00\n        /* \"#utility.yul\":10079:10146   */\n      tag_582\n        /* \"#utility.yul\":10143:10145   */\n      0x20\n        /* \"#utility.yul\":10138:10141   */\n      dup4\n        /* \"#utility.yul\":10079:10146   */\n      tag_511\n      jump\t// in\n    tag_582:\n        /* \"#utility.yul\":10072:10146   */\n      swap2\n      pop\n        /* \"#utility.yul\":10155:10248   */\n      tag_583\n        /* \"#utility.yul\":10244:10247   */\n      dup3\n        /* \"#utility.yul\":10155:10248   */\n      tag_584\n      jump\t// in\n    tag_583:\n        /* \"#utility.yul\":10273:10275   */\n      0x20\n        /* \"#utility.yul\":10268:10271   */\n      dup3\n        /* \"#utility.yul\":10264:10276   */\n      add\n        /* \"#utility.yul\":10257:10276   */\n      swap1\n      pop\n        /* \"#utility.yul\":10062:10282   */\n      swap2\n      swap1\n      pop\n      jump\t// out\n        /* \"#utility.yul\":10288:10654   */\n    tag_585:\n        /* \"#utility.yul\":10430:10433   */\n      0x00\n        /* \"#utility.yul\":10451:10518   */\n      tag_587\n        /* \"#utility.yul\":10515:10517   */\n      0x21\n        /* \"#utility.yul\":10510:10513   */\n      dup4\n        /* \"#utility.yul\":10451:10518   */\n      tag_511\n      jump\t// in\n    tag_587:\n        /* \"#utility.yul\":10444:10518   */\n      swap2\n      pop\n        /* \"#utility.yul\":10527:10620   */\n      tag_588\n        /* \"#utility.yul\":10616:10619   */\n      dup3\n        /* \"#utility.yul\":10527:10620   */\n      tag_589\n      jump\t// in\n    tag_588:\n        /* \"#utility.yul\":10645:10647   */\n      0x40\n        /* \"#utility.yul\":10640:10643   */\n      dup3\n        /* \"#utility.yul\":10636:10648   */\n      add\n        /* \"#utility.yul\":10629:10648   */\n      swap1\n      pop\n        /* \"#utility.yul\":10434:10654   */\n      swap2\n      swap1\n      pop\n      jump\t// out\n        /* \"#utility.yul\":10660:11026   */\n    tag_590:\n        /* \"#utility.yul\":10802:10805   */\n      0x00\n        /* \"#utility.yul\":10823:10890   */\n      tag_592\n        /* \"#utility.yul\":10887:10889   */\n      0x26\n        /* \"#utility.yul\":10882:10885   */\n      dup4\n        /* \"#utility.yul\":10823:10890   */\n      tag_511\n      jump\t// in\n    tag_592:\n        /* \"#utility.yul\":10816:10890   */\n      swap2\n      pop\n        /* \"#utility.yul\":10899:10992   */\n      tag_593\n        /* \"#utility.yul\":10988:10991   */\n      dup3\n        /* \"#utility.yul\":10899:10992   */\n      tag_594\n      jump\t// in\n    tag_593:\n        /* \"#utility.yul\":11017:11019   */\n      0x40\n        /* \"#utility.yul\":11012:11015   */\n      dup3\n        /* \"#utility.yul\":11008:11020   */\n      add\n        /* \"#utility.yul\":11001:11020   */\n      swap1\n      pop\n        /* \"#utility.yul\":10806:11026   */\n      swap2\n      swap1\n      pop\n      jump\t// out\n        /* \"#utility.yul\":11032:11398   */\n    tag_595:\n        /* \"#utility.yul\":11174:11177   */\n      0x00\n        /* \"#utility.yul\":11195:11262   */\n      tag_597\n        /* \"#utility.yul\":11259:11261   */\n      0x25\n        /* \"#utility.yul\":11254:11257   */\n      dup4\n        /* \"#utility.yul\":11195:11262   */\n      tag_511\n      jump\t// in\n    tag_597:\n        /* \"#utility.yul\":11188:11262   */\n      swap2\n      pop\n        /* \"#utility.yul\":11271:11364   */\n      tag_598\n        /* \"#utility.yul\":11360:11363   */\n      dup3\n        /* \"#utility.yul\":11271:11364   */\n      tag_599\n      jump\t// in\n    tag_598:\n        /* \"#utility.yul\":11389:11391   */\n      0x40\n        /* \"#utility.yul\":11384:11387   */\n      dup3\n        /* \"#utility.yul\":11380:11392   */\n      add\n        /* \"#utility.yul\":11373:11392   */\n      swap1\n      pop\n        /* \"#utility.yul\":11178:11398   */\n      swap2\n      swap1\n      pop\n      jump\t// out\n        /* \"#utility.yul\":11404:11770   */\n    tag_600:\n        /* \"#utility.yul\":11546:11549   */\n      0x00\n        /* \"#utility.yul\":11567:11634   */\n      tag_602\n        /* \"#utility.yul\":11631:11633   */\n      0x24\n        /* \"#utility.yul\":11626:11629   */\n      dup4\n        /* \"#utility.yul\":11567:11634   */\n      tag_511\n      jump\t// in\n    tag_602:\n        /* \"#utility.yul\":11560:11634   */\n      swap2\n      pop\n        /* \"#utility.yul\":11643:11736   */\n      tag_603\n        /* \"#utility.yul\":11732:11735   */\n      dup3\n        /* \"#utility.yul\":11643:11736   */\n      tag_604\n      jump\t// in\n    tag_603:\n        /* \"#utility.yul\":11761:11763   */\n      0x40\n        /* \"#utility.yul\":11756:11759   */\n      dup3\n        /* \"#utility.yul\":11752:11764   */\n      add\n        /* \"#utility.yul\":11745:11764   */\n      swap1\n      pop\n        /* \"#utility.yul\":11550:11770   */\n      swap2\n      swap1\n      pop\n      jump\t// out\n        /* \"#utility.yul\":11776:12142   */\n    tag_605:\n        /* \"#utility.yul\":11918:11921   */\n      0x00\n        /* \"#utility.yul\":11939:12006   */\n      tag_607\n        /* \"#utility.yul\":12003:12005   */\n      0x2b\n        /* \"#utility.yul\":11998:12001   */\n      dup4\n        /* \"#utility.yul\":11939:12006   */\n      tag_511\n      jump\t// in\n    tag_607:\n        /* \"#utility.yul\":11932:12006   */\n      swap2\n      pop\n        /* \"#utility.yul\":12015:12108   */\n      tag_608\n        /* \"#utility.yul\":12104:12107   */\n      dup3\n        /* \"#utility.yul\":12015:12108   */\n      tag_609\n      jump\t// in\n    tag_608:\n        /* \"#utility.yul\":12133:12135   */\n      0x40\n        /* \"#utility.yul\":12128:12131   */\n      dup3\n        /* \"#utility.yul\":12124:12136   */\n      add\n        /* \"#utility.yul\":12117:12136   */\n      swap1\n      pop\n        /* \"#utility.yul\":11922:12142   */\n      swap2\n      swap1\n      pop\n      jump\t// out\n        /* \"#utility.yul\":12148:12514   */\n    tag_610:\n        /* \"#utility.yul\":12290:12293   */\n      0x00\n        /* \"#utility.yul\":12311:12378   */\n      tag_612\n        /* \"#utility.yul\":12375:12377   */\n      0x25\n        /* \"#utility.yul\":12370:12373   */\n      dup4\n        /* \"#utility.yul\":12311:12378   */\n      tag_511\n      jump\t// in\n    tag_612:\n        /* \"#utility.yul\":12304:12378   */\n      swap2\n      pop\n        /* \"#utility.yul\":12387:12480   */\n      tag_613\n        /* \"#utility.yul\":12476:12479   */\n      dup3\n        /* \"#utility.yul\":12387:12480   */\n      tag_614\n      jump\t// in\n    tag_613:\n        /* \"#utility.yul\":12505:12507   */\n      0x40\n        /* \"#utility.yul\":12500:12503   */\n      dup3\n        /* \"#utility.yul\":12496:12508   */\n      add\n        /* \"#utility.yul\":12489:12508   */\n      swap1\n      pop\n        /* \"#utility.yul\":12294:12514   */\n      swap2\n      swap1\n      pop\n      jump\t// out\n        /* \"#utility.yul\":12520:12886   */\n    tag_615:\n        /* \"#utility.yul\":12662:12665   */\n      0x00\n        /* \"#utility.yul\":12683:12750   */\n      tag_617\n        /* \"#utility.yul\":12747:12749   */\n      0x1f\n        /* \"#utility.yul\":12742:12745   */\n      dup4\n        /* \"#utility.yul\":12683:12750   */\n      tag_511\n      jump\t// in\n    tag_617:\n        /* \"#utility.yul\":12676:12750   */\n      swap2\n      pop\n        /* \"#utility.yul\":12759:12852   */\n      tag_618\n        /* \"#utility.yul\":12848:12851   */\n      dup3\n        /* \"#utility.yul\":12759:12852   */\n      tag_619\n      jump\t// in\n    tag_618:\n        /* \"#utility.yul\":12877:12879   */\n      0x20\n        /* \"#utility.yul\":12872:12875   */\n      dup3\n        /* \"#utility.yul\":12868:12880   */\n      add\n        /* \"#utility.yul\":12861:12880   */\n      swap1\n      pop\n        /* \"#utility.yul\":12666:12886   */\n      swap2\n      swap1\n      pop\n      jump\t// out\n        /* \"#utility.yul\":12892:13010   */\n    tag_620:\n        /* \"#utility.yul\":12979:13003   */\n      tag_622\n        /* \"#utility.yul\":12997:13002   */\n      dup2\n        /* \"#utility.yul\":12979:13003   */\n      tag_623\n      jump\t// in\n    tag_622:\n        /* \"#utility.yul\":12974:12977   */\n      dup3\n        /* \"#utility.yul\":12967:13004   */\n      mstore\n        /* \"#utility.yul\":12957:13010   */\n      pop\n      pop\n      jump\t// out\n        /* \"#utility.yul\":13016:13128   */\n    tag_624:\n        /* \"#utility.yul\":13099:13121   */\n      tag_626\n        /* \"#utility.yul\":13115:13120   */\n      dup2\n        /* \"#utility.yul\":13099:13121   */\n      tag_627\n      jump\t// in\n    tag_626:\n        /* \"#utility.yul\":13094:13097   */\n      dup3\n        /* \"#utility.yul\":13087:13122   */\n      mstore\n        /* \"#utility.yul\":13077:13128   */\n      pop\n      pop\n      jump\t// out\n        /* \"#utility.yul\":13134:13405   */\n    tag_407:\n        /* \"#utility.yul\":13264:13267   */\n      0x00\n        /* \"#utility.yul\":13286:13379   */\n      tag_629\n        /* \"#utility.yul\":13375:13378   */\n      dup3\n        /* \"#utility.yul\":13366:13372   */\n      dup5\n        /* \"#utility.yul\":13286:13379   */\n      tag_494\n      jump\t// in\n    tag_629:\n        /* \"#utility.yul\":13279:13379   */\n      swap2\n      pop\n        /* \"#utility.yul\":13396:13399   */\n      dup2\n        /* \"#utility.yul\":13389:13399   */\n      swap1\n      pop\n        /* \"#utility.yul\":13268:13405   */\n      swap3\n      swap2\n      pop\n      pop\n      jump\t// out\n        /* \"#utility.yul\":13411:13633   */\n    tag_102:\n        /* \"#utility.yul\":13504:13508   */\n      0x00\n        /* \"#utility.yul\":13542:13544   */\n      0x20\n        /* \"#utility.yul\":13531:13540   */\n      dup3\n        /* \"#utility.yul\":13527:13545   */\n      add\n        /* \"#utility.yul\":13519:13545   */\n      swap1\n      pop\n        /* \"#utility.yul\":13555:13626   */\n      tag_631\n        /* \"#utility.yul\":13623:13624   */\n      0x00\n        /* \"#utility.yul\":13612:13621   */\n      dup4\n        /* \"#utility.yul\":13608:13625   */\n      add\n        /* \"#utility.yul\":13599:13605   */\n      dup5\n        /* \"#utility.yul\":13555:13626   */\n      tag_482\n      jump\t// in\n    tag_631:\n        /* \"#utility.yul\":13509:13633   */\n      swap3\n      swap2\n      pop\n      pop\n      jump\t// out\n        /* \"#utility.yul\":13639:13849   */\n    tag_38:\n        /* \"#utility.yul\":13726:13730   */\n      0x00\n        /* \"#utility.yul\":13764:13766   */\n      0x20\n        /* \"#utility.yul\":13753:13762   */\n      dup3\n        /* \"#utility.yul\":13749:13767   */\n      add\n        /* \"#utility.yul\":13741:13767   */\n      swap1\n      pop\n        /* \"#utility.yul\":13777:13842   */\n      tag_633\n        /* \"#utility.yul\":13839:13840   */\n      0x00\n        /* \"#utility.yul\":13828:13837   */\n      dup4\n        /* \"#utility.yul\":13824:13841   */\n      add\n        /* \"#utility.yul\":13815:13821   */\n      dup5\n        /* \"#utility.yul\":13777:13842   */\n      tag_486\n      jump\t// in\n    tag_633:\n        /* \"#utility.yul\":13731:13849   */\n      swap3\n      swap2\n      pop\n      pop\n      jump\t// out\n        /* \"#utility.yul\":13855:14077   */\n    tag_82:\n        /* \"#utility.yul\":13948:13952   */\n      0x00\n        /* \"#utility.yul\":13986:13988   */\n      0x20\n        /* \"#utility.yul\":13975:13984   */\n      dup3\n        /* \"#utility.yul\":13971:13989   */\n      add\n        /* \"#utility.yul\":13963:13989   */\n      swap1\n      pop\n        /* \"#utility.yul\":13999:14070   */\n      tag_635\n        /* \"#utility.yul\":14067:14068   */\n      0x00\n        /* \"#utility.yul\":14056:14065   */\n      dup4\n        /* \"#utility.yul\":14052:14069   */\n      add\n        /* \"#utility.yul\":14043:14049   */\n      dup5\n        /* \"#utility.yul\":13999:14070   */\n      tag_490\n      jump\t// in\n    tag_635:\n        /* \"#utility.yul\":13953:14077   */\n      swap3\n      swap2\n      pop\n      pop\n      jump\t// out\n        /* \"#utility.yul\":14083:14317   */\n    tag_228:\n        /* \"#utility.yul\":14182:14186   */\n      0x00\n        /* \"#utility.yul\":14220:14222   */\n      0x20\n        /* \"#utility.yul\":14209:14218   */\n      dup3\n        /* \"#utility.yul\":14205:14223   */\n      add\n        /* \"#utility.yul\":14197:14223   */\n      swap1\n      pop\n        /* \"#utility.yul\":14233:14310   */\n      tag_637\n        /* \"#utility.yul\":14307:14308   */\n      0x00\n        /* \"#utility.yul\":14296:14305   */\n      dup4\n        /* \"#utility.yul\":14292:14309   */\n      add\n        /* \"#utility.yul\":14283:14289   */\n      dup5\n        /* \"#utility.yul\":14233:14310   */\n      tag_502\n      jump\t// in\n    tag_637:\n        /* \"#utility.yul\":14187:14317   */\n      swap3\n      swap2\n      pop\n      pop\n      jump\t// out\n        /* \"#utility.yul\":14323:14636   */\n    tag_31:\n        /* \"#utility.yul\":14436:14440   */\n      0x00\n        /* \"#utility.yul\":14474:14476   */\n      0x20\n        /* \"#utility.yul\":14463:14472   */\n      dup3\n        /* \"#utility.yul\":14459:14477   */\n      add\n        /* \"#utility.yul\":14451:14477   */\n      swap1\n      pop\n        /* \"#utility.yul\":14523:14532   */\n      dup2\n        /* \"#utility.yul\":14517:14521   */\n      dup2\n        /* \"#utility.yul\":14513:14533   */\n      sub\n        /* \"#utility.yul\":14509:14510   */\n      0x00\n        /* \"#utility.yul\":14498:14507   */\n      dup4\n        /* \"#utility.yul\":14494:14511   */\n      add\n        /* \"#utility.yul\":14487:14534   */\n      mstore\n        /* \"#utility.yul\":14551:14629   */\n      tag_639\n        /* \"#utility.yul\":14624:14628   */\n      dup2\n        /* \"#utility.yul\":14615:14621   */\n      dup5\n        /* \"#utility.yul\":14551:14629   */\n      tag_506\n      jump\t// in\n    tag_639:\n        /* \"#utility.yul\":14543:14629   */\n      swap1\n      pop\n        /* \"#utility.yul\":14441:14636   */\n      swap3\n      swap2\n      pop\n      pop\n      jump\t// out\n        /* \"#utility.yul\":14642:15061   */\n    tag_280:\n        /* \"#utility.yul\":14808:14812   */\n      0x00\n        /* \"#utility.yul\":14846:14848   */\n      0x20\n        /* \"#utility.yul\":14835:14844   */\n      dup3\n        /* \"#utility.yul\":14831:14849   */\n      add\n        /* \"#utility.yul\":14823:14849   */\n      swap1\n      pop\n        /* \"#utility.yul\":14895:14904   */\n      dup2\n        /* \"#utility.yul\":14889:14893   */\n      dup2\n        /* \"#utility.yul\":14885:14905   */\n      sub\n        /* \"#utility.yul\":14881:14882   */\n      0x00\n        /* \"#utility.yul\":14870:14879   */\n      dup4\n        /* \"#utility.yul\":14866:14883   */\n      add\n        /* \"#utility.yul\":14859:14906   */\n      mstore\n        /* \"#utility.yul\":14923:15054   */\n      tag_641\n        /* \"#utility.yul\":15049:15053   */\n      dup2\n        /* \"#utility.yul\":14923:15054   */\n      tag_515\n      jump\t// in\n    tag_641:\n        /* \"#utility.yul\":14915:15054   */\n      swap1\n      pop\n        /* \"#utility.yul\":14813:15061   */\n      swap2\n      swap1\n      pop\n      jump\t// out\n        /* \"#utility.yul\":15067:15486   */\n    tag_341:\n        /* \"#utility.yul\":15233:15237   */\n      0x00\n        /* \"#utility.yul\":15271:15273   */\n      0x20\n        /* \"#utility.yul\":15260:15269   */\n      dup3\n        /* \"#utility.yul\":15256:15274   */\n      add\n        /* \"#utility.yul\":15248:15274   */\n      swap1\n      pop\n        /* \"#utility.yul\":15320:15329   */\n      dup2\n        /* \"#utility.yul\":15314:15318   */\n      dup2\n        /* \"#utility.yul\":15310:15330   */\n      sub\n        /* \"#utility.yul\":15306:15307   */\n      0x00\n        /* \"#utility.yul\":15295:15304   */\n      dup4\n        /* \"#utility.yul\":15291:15308   */\n      add\n        /* \"#utility.yul\":15284:15331   */\n      mstore\n        /* \"#utility.yul\":15348:15479   */\n      tag_643\n        /* \"#utility.yul\":15474:15478   */\n      dup2\n        /* \"#utility.yul\":15348:15479   */\n      tag_520\n      jump\t// in\n    tag_643:\n        /* \"#utility.yul\":15340:15479   */\n      swap1\n      pop\n        /* \"#utility.yul\":15238:15486   */\n      swap2\n      swap1\n      pop\n      jump\t// out\n        /* \"#utility.yul\":15492:15911   */\n    tag_256:\n        /* \"#utility.yul\":15658:15662   */\n      0x00\n        /* \"#utility.yul\":15696:15698   */\n      0x20\n        /* \"#utility.yul\":15685:15694   */\n      dup3\n        /* \"#utility.yul\":15681:15699   */\n      add\n        /* \"#utility.yul\":15673:15699   */\n      swap1\n      pop\n        /* \"#utility.yul\":15745:15754   */\n      dup2\n        /* \"#utility.yul\":15739:15743   */\n      dup2\n        /* \"#utility.yul\":15735:15755   */\n      sub\n        /* \"#utility.yul\":15731:15732   */\n      0x00\n        /* \"#utility.yul\":15720:15729   */\n      dup4\n        /* \"#utility.yul\":15716:15733   */\n      add\n        /* \"#utility.yul\":15709:15756   */\n      mstore\n        /* \"#utility.yul\":15773:15904   */\n      tag_645\n        /* \"#utility.yul\":15899:15903   */\n      dup2\n        /* \"#utility.yul\":15773:15904   */\n      tag_525\n      jump\t// in\n    tag_645:\n        /* \"#utility.yul\":15765:15904   */\n      swap1\n      pop\n        /* \"#utility.yul\":15663:15911   */\n      swap2\n      swap1\n      pop\n      jump\t// out\n        /* \"#utility.yul\":15917:16336   */\n    tag_265:\n        /* \"#utility.yul\":16083:16087   */\n      0x00\n        /* \"#utility.yul\":16121:16123   */\n      0x20\n        /* \"#utility.yul\":16110:16119   */\n      dup3\n        /* \"#utility.yul\":16106:16124   */\n      add\n        /* \"#utility.yul\":16098:16124   */\n      swap1\n      pop\n        /* \"#utility.yul\":16170:16179   */\n      dup2\n        /* \"#utility.yul\":16164:16168   */\n      dup2\n        /* \"#utility.yul\":16160:16180   */\n      sub\n        /* \"#utility.yul\":16156:16157   */\n      0x00\n        /* \"#utility.yul\":16145:16154   */\n      dup4\n        /* \"#utility.yul\":16141:16158   */\n      add\n        /* \"#utility.yul\":16134:16181   */\n      mstore\n        /* \"#utility.yul\":16198:16329   */\n      tag_647\n        /* \"#utility.yul\":16324:16328   */\n      dup2\n        /* \"#utility.yul\":16198:16329   */\n      tag_530\n      jump\t// in\n    tag_647:\n        /* \"#utility.yul\":16190:16329   */\n      swap1\n      pop\n        /* \"#utility.yul\":16088:16336   */\n      swap2\n      swap1\n      pop\n      jump\t// out\n        /* \"#utility.yul\":16342:16761   */\n    tag_154:\n        /* \"#utility.yul\":16508:16512   */\n      0x00\n        /* \"#utility.yul\":16546:16548   */\n      0x20\n        /* \"#utility.yul\":16535:16544   */\n      dup3\n        /* \"#utility.yul\":16531:16549   */\n      add\n        /* \"#utility.yul\":16523:16549   */\n      swap1\n      pop\n        /* \"#utility.yul\":16595:16604   */\n      dup2\n        /* \"#utility.yul\":16589:16593   */\n      dup2\n        /* \"#utility.yul\":16585:16605   */\n      sub\n        /* \"#utility.yul\":16581:16582   */\n      0x00\n        /* \"#utility.yul\":16570:16579   */\n      dup4\n        /* \"#utility.yul\":16566:16583   */\n      add\n        /* \"#utility.yul\":16559:16606   */\n      mstore\n        /* \"#utility.yul\":16623:16754   */\n      tag_649\n        /* \"#utility.yul\":16749:16753   */\n      dup2\n        /* \"#utility.yul\":16623:16754   */\n      tag_535\n      jump\t// in\n    tag_649:\n        /* \"#utility.yul\":16615:16754   */\n      swap1\n      pop\n        /* \"#utility.yul\":16513:16761   */\n      swap2\n      swap1\n      pop\n      jump\t// out\n        /* \"#utility.yul\":16767:17186   */\n    tag_272:\n        /* \"#utility.yul\":16933:16937   */\n      0x00\n        /* \"#utility.yul\":16971:16973   */\n      0x20\n        /* \"#utility.yul\":16960:16969   */\n      dup3\n        /* \"#utility.yul\":16956:16974   */\n      add\n        /* \"#utility.yul\":16948:16974   */\n      swap1\n      pop\n        /* \"#utility.yul\":17020:17029   */\n      dup2\n        /* \"#utility.yul\":17014:17018   */\n      dup2\n        /* \"#utility.yul\":17010:17030   */\n      sub\n        /* \"#utility.yul\":17006:17007   */\n      0x00\n        /* \"#utility.yul\":16995:17004   */\n      dup4\n        /* \"#utility.yul\":16991:17008   */\n      add\n        /* \"#utility.yul\":16984:17031   */\n      mstore\n        /* \"#utility.yul\":17048:17179   */\n      tag_651\n        /* \"#utility.yul\":17174:17178   */\n      dup2\n        /* \"#utility.yul\":17048:17179   */\n      tag_540\n      jump\t// in\n    tag_651:\n        /* \"#utility.yul\":17040:17179   */\n      swap1\n      pop\n        /* \"#utility.yul\":16938:17186   */\n      swap2\n      swap1\n      pop\n      jump\t// out\n        /* \"#utility.yul\":17192:17611   */\n    tag_285:\n        /* \"#utility.yul\":17358:17362   */\n      0x00\n        /* \"#utility.yul\":17396:17398   */\n      0x20\n        /* \"#utility.yul\":17385:17394   */\n      dup3\n        /* \"#utility.yul\":17381:17399   */\n      add\n        /* \"#utility.yul\":17373:17399   */\n      swap1\n      pop\n        /* \"#utility.yul\":17445:17454   */\n      dup2\n        /* \"#utility.yul\":17439:17443   */\n      dup2\n        /* \"#utility.yul\":17435:17455   */\n      sub\n        /* \"#utility.yul\":17431:17432   */\n      0x00\n        /* \"#utility.yul\":17420:17429   */\n      dup4\n        /* \"#utility.yul\":17416:17433   */\n      add\n        /* \"#utility.yul\":17409:17456   */\n      mstore\n        /* \"#utility.yul\":17473:17604   */\n      tag_653\n        /* \"#utility.yul\":17599:17603   */\n      dup2\n        /* \"#utility.yul\":17473:17604   */\n      tag_545\n      jump\t// in\n    tag_653:\n        /* \"#utility.yul\":17465:17604   */\n      swap1\n      pop\n        /* \"#utility.yul\":17363:17611   */\n      swap2\n      swap1\n      pop\n      jump\t// out\n        /* \"#utility.yul\":17617:18036   */\n    tag_159:\n        /* \"#utility.yul\":17783:17787   */\n      0x00\n        /* \"#utility.yul\":17821:17823   */\n      0x20\n        /* \"#utility.yul\":17810:17819   */\n      dup3\n        /* \"#utility.yul\":17806:17824   */\n      add\n        /* \"#utility.yul\":17798:17824   */\n      swap1\n      pop\n        /* \"#utility.yul\":17870:17879   */\n      dup2\n        /* \"#utility.yul\":17864:17868   */\n      dup2\n        /* \"#utility.yul\":17860:17880   */\n      sub\n        /* \"#utility.yul\":17856:17857   */\n      0x00\n        /* \"#utility.yul\":17845:17854   */\n      dup4\n        /* \"#utility.yul\":17841:17858   */\n      add\n        /* \"#utility.yul\":17834:17881   */\n      mstore\n        /* \"#utility.yul\":17898:18029   */\n      tag_655\n        /* \"#utility.yul\":18024:18028   */\n      dup2\n        /* \"#utility.yul\":17898:18029   */\n      tag_550\n      jump\t// in\n    tag_655:\n        /* \"#utility.yul\":17890:18029   */\n      swap1\n      pop\n        /* \"#utility.yul\":17788:18036   */\n      swap2\n      swap1\n      pop\n      jump\t// out\n        /* \"#utility.yul\":18042:18461   */\n    tag_195:\n        /* \"#utility.yul\":18208:18212   */\n      0x00\n        /* \"#utility.yul\":18246:18248   */\n      0x20\n        /* \"#utility.yul\":18235:18244   */\n      dup3\n        /* \"#utility.yul\":18231:18249   */\n      add\n        /* \"#utility.yul\":18223:18249   */\n      swap1\n      pop\n        /* \"#utility.yul\":18295:18304   */\n      dup2\n        /* \"#utility.yul\":18289:18293   */\n      dup2\n        /* \"#utility.yul\":18285:18305   */\n      sub\n        /* \"#utility.yul\":18281:18282   */\n      0x00\n        /* \"#utility.yul\":18270:18279   */\n      dup4\n        /* \"#utility.yul\":18266:18283   */\n      add\n        /* \"#utility.yul\":18259:18306   */\n      mstore\n        /* \"#utility.yul\":18323:18454   */\n      tag_657\n        /* \"#utility.yul\":18449:18453   */\n      dup2\n        /* \"#utility.yul\":18323:18454   */\n      tag_555\n      jump\t// in\n    tag_657:\n        /* \"#utility.yul\":18315:18454   */\n      swap1\n      pop\n        /* \"#utility.yul\":18213:18461   */\n      swap2\n      swap1\n      pop\n      jump\t// out\n        /* \"#utility.yul\":18467:18886   */\n    tag_316:\n        /* \"#utility.yul\":18633:18637   */\n      0x00\n        /* \"#utility.yul\":18671:18673   */\n      0x20\n        /* \"#utility.yul\":18660:18669   */\n      dup3\n        /* \"#utility.yul\":18656:18674   */\n      add\n        /* \"#utility.yul\":18648:18674   */\n      swap1\n      pop\n        /* \"#utility.yul\":18720:18729   */\n      dup2\n        /* \"#utility.yul\":18714:18718   */\n      dup2\n        /* \"#utility.yul\":18710:18730   */\n      sub\n        /* \"#utility.yul\":18706:18707   */\n      0x00\n        /* \"#utility.yul\":18695:18704   */\n      dup4\n        /* \"#utility.yul\":18691:18708   */\n      add\n        /* \"#utility.yul\":18684:18731   */\n      mstore\n        /* \"#utility.yul\":18748:18879   */\n      tag_659\n        /* \"#utility.yul\":18874:18878   */\n      dup2\n        /* \"#utility.yul\":18748:18879   */\n      tag_560\n      jump\t// in\n    tag_659:\n        /* \"#utility.yul\":18740:18879   */\n      swap1\n      pop\n        /* \"#utility.yul\":18638:18886   */\n      swap2\n      swap1\n      pop\n      jump\t// out\n        /* \"#utility.yul\":18892:19311   */\n    tag_215:\n        /* \"#utility.yul\":19058:19062   */\n      0x00\n        /* \"#utility.yul\":19096:19098   */\n      0x20\n        /* \"#utility.yul\":19085:19094   */\n      dup3\n        /* \"#utility.yul\":19081:19099   */\n      add\n        /* \"#utility.yul\":19073:19099   */\n      swap1\n      pop\n        /* \"#utility.yul\":19145:19154   */\n      dup2\n        /* \"#utility.yul\":19139:19143   */\n      dup2\n        /* \"#utility.yul\":19135:19155   */\n      sub\n        /* \"#utility.yul\":19131:19132   */\n      0x00\n        /* \"#utility.yul\":19120:19129   */\n      dup4\n        /* \"#utility.yul\":19116:19133   */\n      add\n        /* \"#utility.yul\":19109:19156   */\n      mstore\n        /* \"#utility.yul\":19173:19304   */\n      tag_661\n        /* \"#utility.yul\":19299:19303   */\n      dup2\n        /* \"#utility.yul\":19173:19304   */\n      tag_565\n      jump\t// in\n    tag_661:\n        /* \"#utility.yul\":19165:19304   */\n      swap1\n      pop\n        /* \"#utility.yul\":19063:19311   */\n      swap2\n      swap1\n      pop\n      jump\t// out\n        /* \"#utility.yul\":19317:19736   */\n    tag_312:\n        /* \"#utility.yul\":19483:19487   */\n      0x00\n        /* \"#utility.yul\":19521:19523   */\n      0x20\n        /* \"#utility.yul\":19510:19519   */\n      dup3\n        /* \"#utility.yul\":19506:19524   */\n      add\n        /* \"#utility.yul\":19498:19524   */\n      swap1\n      pop\n        /* \"#utility.yul\":19570:19579   */\n      dup2\n        /* \"#utility.yul\":19564:19568   */\n      dup2\n        /* \"#utility.yul\":19560:19580   */\n      sub\n        /* \"#utility.yul\":19556:19557   */\n      0x00\n        /* \"#utility.yul\":19545:19554   */\n      dup4\n        /* \"#utility.yul\":19541:19558   */\n      add\n        /* \"#utility.yul\":19534:19581   */\n      mstore\n        /* \"#utility.yul\":19598:19729   */\n      tag_663\n        /* \"#utility.yul\":19724:19728   */\n      dup2\n        /* \"#utility.yul\":19598:19729   */\n      tag_570\n      jump\t// in\n    tag_663:\n        /* \"#utility.yul\":19590:19729   */\n      swap1\n      pop\n        /* \"#utility.yul\":19488:19736   */\n      swap2\n      swap1\n      pop\n      jump\t// out\n        /* \"#utility.yul\":19742:20161   */\n    tag_377:\n        /* \"#utility.yul\":19908:19912   */\n      0x00\n        /* \"#utility.yul\":19946:19948   */\n      0x20\n        /* \"#utility.yul\":19935:19944   */\n      dup3\n        /* \"#utility.yul\":19931:19949   */\n      add\n        /* \"#utility.yul\":19923:19949   */\n      swap1\n      pop\n        /* \"#utility.yul\":19995:20004   */\n      dup2\n        /* \"#utility.yul\":19989:19993   */\n      dup2\n        /* \"#utility.yul\":19985:20005   */\n      sub\n        /* \"#utility.yul\":19981:19982   */\n      0x00\n        /* \"#utility.yul\":19970:19979   */\n      dup4\n        /* \"#utility.yul\":19966:19983   */\n      add\n        /* \"#utility.yul\":19959:20006   */\n      mstore\n        /* \"#utility.yul\":20023:20154   */\n      tag_665\n        /* \"#utility.yul\":20149:20153   */\n      dup2\n        /* \"#utility.yul\":20023:20154   */\n      tag_575\n      jump\t// in\n    tag_665:\n        /* \"#utility.yul\":20015:20154   */\n      swap1\n      pop\n        /* \"#utility.yul\":19913:20161   */\n      swap2\n      swap1\n      pop\n      jump\t// out\n        /* \"#utility.yul\":20167:20586   */\n    tag_324:\n        /* \"#utility.yul\":20333:20337   */\n      0x00\n        /* \"#utility.yul\":20371:20373   */\n      0x20\n        /* \"#utility.yul\":20360:20369   */\n      dup3\n        /* \"#utility.yul\":20356:20374   */\n      add\n        /* \"#utility.yul\":20348:20374   */\n      swap1\n      pop\n        /* \"#utility.yul\":20420:20429   */\n      dup2\n        /* \"#utility.yul\":20414:20418   */\n      dup2\n        /* \"#utility.yul\":20410:20430   */\n      sub\n        /* \"#utility.yul\":20406:20407   */\n      0x00\n        /* \"#utility.yul\":20395:20404   */\n      dup4\n        /* \"#utility.yul\":20391:20408   */\n      add\n        /* \"#utility.yul\":20384:20431   */\n      mstore\n        /* \"#utility.yul\":20448:20579   */\n      tag_667\n        /* \"#utility.yul\":20574:20578   */\n      dup2\n        /* \"#utility.yul\":20448:20579   */\n      tag_580\n      jump\t// in\n    tag_667:\n        /* \"#utility.yul\":20440:20579   */\n      swap1\n      pop\n        /* \"#utility.yul\":20338:20586   */\n      swap2\n      swap1\n      pop\n      jump\t// out\n        /* \"#utility.yul\":20592:21011   */\n    tag_337:\n        /* \"#utility.yul\":20758:20762   */\n      0x00\n        /* \"#utility.yul\":20796:20798   */\n      0x20\n        /* \"#utility.yul\":20785:20794   */\n      dup3\n        /* \"#utility.yul\":20781:20799   */\n      add\n        /* \"#utility.yul\":20773:20799   */\n      swap1\n      pop\n        /* \"#utility.yul\":20845:20854   */\n      dup2\n        /* \"#utility.yul\":20839:20843   */\n      dup2\n        /* \"#utility.yul\":20835:20855   */\n      sub\n        /* \"#utility.yul\":20831:20832   */\n      0x00\n        /* \"#utility.yul\":20820:20829   */\n      dup4\n        /* \"#utility.yul\":20816:20833   */\n      add\n        /* \"#utility.yul\":20809:20856   */\n      mstore\n        /* \"#utility.yul\":20873:21004   */\n      tag_669\n        /* \"#utility.yul\":20999:21003   */\n      dup2\n        /* \"#utility.yul\":20873:21004   */\n      tag_585\n      jump\t// in\n    tag_669:\n        /* \"#utility.yul\":20865:21004   */\n      swap1\n      pop\n        /* \"#utility.yul\":20763:21011   */\n      swap2\n      swap1\n      pop\n      jump\t// out\n        /* \"#utility.yul\":21017:21436   */\n    tag_405:\n        /* \"#utility.yul\":21183:21187   */\n      0x00\n        /* \"#utility.yul\":21221:21223   */\n      0x20\n        /* \"#utility.yul\":21210:21219   */\n      dup3\n        /* \"#utility.yul\":21206:21224   */\n      add\n        /* \"#utility.yul\":21198:21224   */\n      swap1\n      pop\n        /* \"#utility.yul\":21270:21279   */\n      dup2\n        /* \"#utility.yul\":21264:21268   */\n      dup2\n        /* \"#utility.yul\":21260:21280   */\n      sub\n        /* \"#utility.yul\":21256:21257   */\n      0x00\n        /* \"#utility.yul\":21245:21254   */\n      dup4\n        /* \"#utility.yul\":21241:21258   */\n      add\n        /* \"#utility.yul\":21234:21281   */\n      mstore\n        /* \"#utility.yul\":21298:21429   */\n      tag_671\n        /* \"#utility.yul\":21424:21428   */\n      dup2\n        /* \"#utility.yul\":21298:21429   */\n      tag_590\n      jump\t// in\n    tag_671:\n        /* \"#utility.yul\":21290:21429   */\n      swap1\n      pop\n        /* \"#utility.yul\":21188:21436   */\n      swap2\n      swap1\n      pop\n      jump\t// out\n        /* \"#utility.yul\":21442:21861   */\n    tag_277:\n        /* \"#utility.yul\":21608:21612   */\n      0x00\n        /* \"#utility.yul\":21646:21648   */\n      0x20\n        /* \"#utility.yul\":21635:21644   */\n      dup3\n        /* \"#utility.yul\":21631:21649   */\n      add\n        /* \"#utility.yul\":21623:21649   */\n      swap1\n      pop\n        /* \"#utility.yul\":21695:21704   */\n      dup2\n        /* \"#utility.yul\":21689:21693   */\n      dup2\n        /* \"#utility.yul\":21685:21705   */\n      sub\n        /* \"#utility.yul\":21681:21682   */\n      0x00\n        /* \"#utility.yul\":21670:21679   */\n      dup4\n        /* \"#utility.yul\":21666:21683   */\n      add\n        /* \"#utility.yul\":21659:21706   */\n      mstore\n        /* \"#utility.yul\":21723:21854   */\n      tag_673\n        /* \"#utility.yul\":21849:21853   */\n      dup2\n        /* \"#utility.yul\":21723:21854   */\n      tag_595\n      jump\t// in\n    tag_673:\n        /* \"#utility.yul\":21715:21854   */\n      swap1\n      pop\n        /* \"#utility.yul\":21613:21861   */\n      swap2\n      swap1\n      pop\n      jump\t// out\n        /* \"#utility.yul\":21867:22286   */\n    tag_262:\n        /* \"#utility.yul\":22033:22037   */\n      0x00\n        /* \"#utility.yul\":22071:22073   */\n      0x20\n        /* \"#utility.yul\":22060:22069   */\n      dup3\n        /* \"#utility.yul\":22056:22074   */\n      add\n        /* \"#utility.yul\":22048:22074   */\n      swap1\n      pop\n        /* \"#utility.yul\":22120:22129   */\n      dup2\n        /* \"#utility.yul\":22114:22118   */\n      dup2\n        /* \"#utility.yul\":22110:22130   */\n      sub\n        /* \"#utility.yul\":22106:22107   */\n      0x00\n        /* \"#utility.yul\":22095:22104   */\n      dup4\n        /* \"#utility.yul\":22091:22108   */\n      add\n        /* \"#utility.yul\":22084:22131   */\n      mstore\n        /* \"#utility.yul\":22148:22279   */\n      tag_675\n        /* \"#utility.yul\":22274:22278   */\n      dup2\n        /* \"#utility.yul\":22148:22279   */\n      tag_600\n      jump\t// in\n    tag_675:\n        /* \"#utility.yul\":22140:22279   */\n      swap1\n      pop\n        /* \"#utility.yul\":22038:22286   */\n      swap2\n      swap1\n      pop\n      jump\t// out\n        /* \"#utility.yul\":22292:22711   */\n    tag_351:\n        /* \"#utility.yul\":22458:22462   */\n      0x00\n        /* \"#utility.yul\":22496:22498   */\n      0x20\n        /* \"#utility.yul\":22485:22494   */\n      dup3\n        /* \"#utility.yul\":22481:22499   */\n      add\n        /* \"#utility.yul\":22473:22499   */\n      swap1\n      pop\n        /* \"#utility.yul\":22545:22554   */\n      dup2\n        /* \"#utility.yul\":22539:22543   */\n      dup2\n        /* \"#utility.yul\":22535:22555   */\n      sub\n        /* \"#utility.yul\":22531:22532   */\n      0x00\n        /* \"#utility.yul\":22520:22529   */\n      dup4\n        /* \"#utility.yul\":22516:22533   */\n      add\n        /* \"#utility.yul\":22509:22556   */\n      mstore\n        /* \"#utility.yul\":22573:22704   */\n      tag_677\n        /* \"#utility.yul\":22699:22703   */\n      dup2\n        /* \"#utility.yul\":22573:22704   */\n      tag_605\n      jump\t// in\n    tag_677:\n        /* \"#utility.yul\":22565:22704   */\n      swap1\n      pop\n        /* \"#utility.yul\":22463:22711   */\n      swap2\n      swap1\n      pop\n      jump\t// out\n        /* \"#utility.yul\":22717:23136   */\n    tag_241:\n        /* \"#utility.yul\":22883:22887   */\n      0x00\n        /* \"#utility.yul\":22921:22923   */\n      0x20\n        /* \"#utility.yul\":22910:22919   */\n      dup3\n        /* \"#utility.yul\":22906:22924   */\n      add\n        /* \"#utility.yul\":22898:22924   */\n      swap1\n      pop\n        /* \"#utility.yul\":22970:22979   */\n      dup2\n        /* \"#utility.yul\":22964:22968   */\n      dup2\n        /* \"#utility.yul\":22960:22980   */\n      sub\n        /* \"#utility.yul\":22956:22957   */\n      0x00\n        /* \"#utility.yul\":22945:22954   */\n      dup4\n        /* \"#utility.yul\":22941:22958   */\n      add\n        /* \"#utility.yul\":22934:22981   */\n      mstore\n        /* \"#utility.yul\":22998:23129   */\n      tag_679\n        /* \"#utility.yul\":23124:23128   */\n      dup2\n        /* \"#utility.yul\":22998:23129   */\n      tag_610\n      jump\t// in\n    tag_679:\n        /* \"#utility.yul\":22990:23129   */\n      swap1\n      pop\n        /* \"#utility.yul\":22888:23136   */\n      swap2\n      swap1\n      pop\n      jump\t// out\n        /* \"#utility.yul\":23142:23561   */\n    tag_328:\n        /* \"#utility.yul\":23308:23312   */\n      0x00\n        /* \"#utility.yul\":23346:23348   */\n      0x20\n        /* \"#utility.yul\":23335:23344   */\n      dup3\n        /* \"#utility.yul\":23331:23349   */\n      add\n        /* \"#utility.yul\":23323:23349   */\n      swap1\n      pop\n        /* \"#utility.yul\":23395:23404   */\n      dup2\n        /* \"#utility.yul\":23389:23393   */\n      dup2\n        /* \"#utility.yul\":23385:23405   */\n      sub\n        /* \"#utility.yul\":23381:23382   */\n      0x00\n        /* \"#utility.yul\":23370:23379   */\n      dup4\n        /* \"#utility.yul\":23366:23383   */\n      add\n        /* \"#utility.yul\":23359:23406   */\n      mstore\n        /* \"#utility.yul\":23423:23554   */\n      tag_681\n        /* \"#utility.yul\":23549:23553   */\n      dup2\n        /* \"#utility.yul\":23423:23554   */\n      tag_615\n      jump\t// in\n    tag_681:\n        /* \"#utility.yul\":23415:23554   */\n      swap1\n      pop\n        /* \"#utility.yul\":23313:23561   */\n      swap2\n      swap1\n      pop\n      jump\t// out\n        /* \"#utility.yul\":23567:23789   */\n    tag_43:\n        /* \"#utility.yul\":23660:23664   */\n      0x00\n        /* \"#utility.yul\":23698:23700   */\n      0x20\n        /* \"#utility.yul\":23687:23696   */\n      dup3\n        /* \"#utility.yul\":23683:23701   */\n      add\n        /* \"#utility.yul\":23675:23701   */\n      swap1\n      pop\n        /* \"#utility.yul\":23711:23782   */\n      tag_683\n        /* \"#utility.yul\":23779:23780   */\n      0x00\n        /* \"#utility.yul\":23768:23777   */\n      dup4\n        /* \"#utility.yul\":23764:23781   */\n      add\n        /* \"#utility.yul\":23755:23761   */\n      dup5\n        /* \"#utility.yul\":23711:23782   */\n      tag_620\n      jump\t// in\n    tag_683:\n        /* \"#utility.yul\":23665:23789   */\n      swap3\n      swap2\n      pop\n      pop\n      jump\t// out\n        /* \"#utility.yul\":23795:24009   */\n    tag_54:\n        /* \"#utility.yul\":23884:23888   */\n      0x00\n        /* \"#utility.yul\":23922:23924   */\n      0x20\n        /* \"#utility.yul\":23911:23920   */\n      dup3\n        /* \"#utility.yul\":23907:23925   */\n      add\n        /* \"#utility.yul\":23899:23925   */\n      swap1\n      pop\n        /* \"#utility.yul\":23935:24002   */\n      tag_685\n        /* \"#utility.yul\":23999:24000   */\n      0x00\n        /* \"#utility.yul\":23988:23997   */\n      dup4\n        /* \"#utility.yul\":23984:24001   */\n      add\n        /* \"#utility.yul\":23975:23981   */\n      dup5\n        /* \"#utility.yul\":23935:24002   */\n      tag_624\n      jump\t// in\n    tag_685:\n        /* \"#utility.yul\":23889:24009   */\n      swap3\n      swap2\n      pop\n      pop\n      jump\t// out\n        /* \"#utility.yul\":24015:24144   */\n    tag_435:\n        /* \"#utility.yul\":24049:24055   */\n      0x00\n        /* \"#utility.yul\":24076:24096   */\n      tag_687\n      tag_688\n      jump\t// in\n    tag_687:\n        /* \"#utility.yul\":24066:24096   */\n      swap1\n      pop\n        /* \"#utility.yul\":24105:24138   */\n      tag_689\n        /* \"#utility.yul\":24133:24137   */\n      dup3\n        /* \"#utility.yul\":24125:24131   */\n      dup3\n        /* \"#utility.yul\":24105:24138   */\n      tag_690\n      jump\t// in\n    tag_689:\n        /* \"#utility.yul\":24056:24144   */\n      swap2\n      swap1\n      pop\n      jump\t// out\n        /* \"#utility.yul\":24150:24225   */\n    tag_688:\n        /* \"#utility.yul\":24183:24189   */\n      0x00\n        /* \"#utility.yul\":24216:24218   */\n      0x40\n        /* \"#utility.yul\":24210:24219   */\n      mload\n        /* \"#utility.yul\":24200:24219   */\n      swap1\n      pop\n        /* \"#utility.yul\":24190:24225   */\n      swap1\n      jump\t// out\n        /* \"#utility.yul\":24231:24538   */\n    tag_434:\n        /* \"#utility.yul\":24292:24296   */\n      0x00\n        /* \"#utility.yul\":24382:24400   */\n      0xffffffffffffffff\n        /* \"#utility.yul\":24374:24380   */\n      dup3\n        /* \"#utility.yul\":24371:24401   */\n      gt\n        /* \"#utility.yul\":24368:24370   */\n      iszero\n      tag_693\n      jumpi\n        /* \"#utility.yul\":24404:24422   */\n      tag_694\n      tag_695\n      jump\t// in\n    tag_694:\n        /* \"#utility.yul\":24368:24370   */\n    tag_693:\n        /* \"#utility.yul\":24442:24471   */\n      tag_696\n        /* \"#utility.yul\":24464:24470   */\n      dup3\n        /* \"#utility.yul\":24442:24471   */\n      tag_514\n      jump\t// in\n    tag_696:\n        /* \"#utility.yul\":24434:24471   */\n      swap1\n      pop\n        /* \"#utility.yul\":24526:24530   */\n      0x20\n        /* \"#utility.yul\":24520:24524   */\n      dup2\n        /* \"#utility.yul\":24516:24531   */\n      add\n        /* \"#utility.yul\":24508:24531   */\n      swap1\n      pop\n        /* \"#utility.yul\":24297:24538   */\n      swap2\n      swap1\n      pop\n      jump\t// out\n        /* \"#utility.yul\":24544:24642   */\n    tag_497:\n        /* \"#utility.yul\":24595:24601   */\n      0x00\n        /* \"#utility.yul\":24629:24634   */\n      dup2\n        /* \"#utility.yul\":24623:24635   */\n      mload\n        /* \"#utility.yul\":24613:24635   */\n      swap1\n      pop\n        /* \"#utility.yul\":24602:24642   */\n      swap2\n      swap1\n      pop\n      jump\t// out\n        /* \"#utility.yul\":24648:24747   */\n    tag_509:\n        /* \"#utility.yul\":24700:24706   */\n      0x00\n        /* \"#utility.yul\":24734:24739   */\n      dup2\n        /* \"#utility.yul\":24728:24740   */\n      mload\n        /* \"#utility.yul\":24718:24740   */\n      swap1\n      pop\n        /* \"#utility.yul\":24707:24747   */\n      swap2\n      swap1\n      pop\n      jump\t// out\n        /* \"#utility.yul\":24753:24900   */\n    tag_499:\n        /* \"#utility.yul\":24854:24865   */\n      0x00\n        /* \"#utility.yul\":24891:24894   */\n      dup2\n        /* \"#utility.yul\":24876:24894   */\n      swap1\n      pop\n        /* \"#utility.yul\":24866:24900   */\n      swap3\n      swap2\n      pop\n      pop\n      jump\t// out\n        /* \"#utility.yul\":24906:25075   */\n    tag_511:\n        /* \"#utility.yul\":24990:25001   */\n      0x00\n        /* \"#utility.yul\":25024:25030   */\n      dup3\n        /* \"#utility.yul\":25019:25022   */\n      dup3\n        /* \"#utility.yul\":25012:25031   */\n      mstore\n        /* \"#utility.yul\":25064:25068   */\n      0x20\n        /* \"#utility.yul\":25059:25062   */\n      dup3\n        /* \"#utility.yul\":25055:25069   */\n      add\n        /* \"#utility.yul\":25040:25069   */\n      swap1\n      pop\n        /* \"#utility.yul\":25002:25075   */\n      swap3\n      swap2\n      pop\n      pop\n      jump\t// out\n        /* \"#utility.yul\":25081:25386   */\n    tag_172:\n        /* \"#utility.yul\":25121:25124   */\n      0x00\n        /* \"#utility.yul\":25140:25160   */\n      tag_702\n        /* \"#utility.yul\":25158:25159   */\n      dup3\n        /* \"#utility.yul\":25140:25160   */\n      tag_623\n      jump\t// in\n    tag_702:\n        /* \"#utility.yul\":25135:25160   */\n      swap2\n      pop\n        /* \"#utility.yul\":25174:25194   */\n      tag_703\n        /* \"#utility.yul\":25192:25193   */\n      dup4\n        /* \"#utility.yul\":25174:25194   */\n      tag_623\n      jump\t// in\n    tag_703:\n        /* \"#utility.yul\":25169:25194   */\n      swap3\n      pop\n        /* \"#utility.yul\":25328:25329   */\n      dup3\n        /* \"#utility.yul\":25260:25326   */\n      0xffffffffffffffffffffffffffffffffffffffffffffffffffffffffffffffff\n        /* \"#utility.yul\":25256:25330   */\n      sub\n        /* \"#utility.yul\":25253:25254   */\n      dup3\n        /* \"#utility.yul\":25250:25331   */\n      gt\n        /* \"#utility.yul\":25247:25249   */\n      iszero\n      tag_704\n      jumpi\n        /* \"#utility.yul\":25334:25352   */\n      tag_705\n      tag_706\n      jump\t// in\n    tag_705:\n        /* \"#utility.yul\":25247:25249   */\n    tag_704:\n        /* \"#utility.yul\":25378:25379   */\n      dup3\n        /* \"#utility.yul\":25375:25376   */\n      dup3\n        /* \"#utility.yul\":25371:25380   */\n      add\n        /* \"#utility.yul\":25364:25380   */\n      swap1\n      pop\n        /* \"#utility.yul\":25125:25386   */\n      swap3\n      swap2\n      pop\n      pop\n      jump\t// out\n        /* \"#utility.yul\":25392:25583   */\n    tag_343:\n        /* \"#utility.yul\":25432:25436   */\n      0x00\n        /* \"#utility.yul\":25452:25472   */\n      tag_708\n        /* \"#utility.yul\":25470:25471   */\n      dup3\n        /* \"#utility.yul\":25452:25472   */\n      tag_623\n      jump\t// in\n    tag_708:\n        /* \"#utility.yul\":25447:25472   */\n      swap2\n      pop\n        /* \"#utility.yul\":25486:25506   */\n      tag_709\n        /* \"#utility.yul\":25504:25505   */\n      dup4\n        /* \"#utility.yul\":25486:25506   */\n      tag_623\n      jump\t// in\n    tag_709:\n        /* \"#utility.yul\":25481:25506   */\n      swap3\n      pop\n        /* \"#utility.yul\":25525:25526   */\n      dup3\n        /* \"#utility.yul\":25522:25523   */\n      dup3\n        /* \"#utility.yul\":25519:25527   */\n      lt\n        /* \"#utility.yul\":25516:25518   */\n      iszero\n      tag_710\n      jumpi\n        /* \"#utility.yul\":25530:25548   */\n      tag_711\n      tag_706\n      jump\t// in\n    tag_711:\n        /* \"#utility.yul\":25516:25518   */\n    tag_710:\n        /* \"#utility.yul\":25575:25576   */\n      dup3\n        /* \"#utility.yul\":25572:25573   */\n      dup3\n        /* \"#utility.yul\":25568:25577   */\n      sub\n        /* \"#utility.yul\":25560:25577   */\n      swap1\n      pop\n        /* \"#utility.yul\":25437:25583   */\n      swap3\n      swap2\n      pop\n      pop\n      jump\t// out\n        /* \"#utility.yul\":25589:25685   */\n    tag_485:\n        /* \"#utility.yul\":25626:25633   */\n      0x00\n        /* \"#utility.yul\":25655:25679   */\n      tag_713\n        /* \"#utility.yul\":25673:25678   */\n      dup3\n        /* \"#utility.yul\":25655:25679   */\n      tag_714\n      jump\t// in\n    tag_713:\n        /* \"#utility.yul\":25644:25679   */\n      swap1\n      pop\n        /* \"#utility.yul\":25634:25685   */\n      swap2\n      swap1\n      pop\n      jump\t// out\n        /* \"#utility.yul\":25691:25781   */\n    tag_489:\n        /* \"#utility.yul\":25725:25732   */\n      0x00\n        /* \"#utility.yul\":25768:25773   */\n      dup2\n        /* \"#utility.yul\":25761:25774   */\n      iszero\n        /* \"#utility.yul\":25754:25775   */\n      iszero\n        /* \"#utility.yul\":25743:25775   */\n      swap1\n      pop\n        /* \"#utility.yul\":25733:25781   */\n      swap2\n      swap1\n      pop\n      jump\t// out\n        /* \"#utility.yul\":25787:25864   */\n    tag_493:\n        /* \"#utility.yul\":25824:25831   */\n      0x00\n        /* \"#utility.yul\":25853:25858   */\n      dup2\n        /* \"#utility.yul\":25842:25858   */\n      swap1\n      pop\n        /* \"#utility.yul\":25832:25864   */\n      swap2\n      swap1\n      pop\n      jump\t// out\n        /* \"#utility.yul\":25870:25996   */\n    tag_714:\n        /* \"#utility.yul\":25907:25914   */\n      0x00\n        /* \"#utility.yul\":25947:25989   */\n      0xffffffffffffffffffffffffffffffffffffffff\n        /* \"#utility.yul\":25940:25945   */\n      dup3\n        /* \"#utility.yul\":25936:25990   */\n      and\n        /* \"#utility.yul\":25925:25990   */\n      swap1\n      pop\n        /* \"#utility.yul\":25915:25996   */\n      swap2\n      swap1\n      pop\n      jump\t// out\n        /* \"#utility.yul\":26002:26079   */\n    tag_623:\n        /* \"#utility.yul\":26039:26046   */\n      0x00\n        /* \"#utility.yul\":26068:26073   */\n      dup2\n        /* \"#utility.yul\":26057:26073   */\n      swap1\n      pop\n        /* \"#utility.yul\":26047:26079   */\n      swap2\n      swap1\n      pop\n      jump\t// out\n        /* \"#utility.yul\":26085:26171   */\n    tag_627:\n        /* \"#utility.yul\":26120:26127   */\n      0x00\n        /* \"#utility.yul\":26160:26164   */\n      0xff\n        /* \"#utility.yul\":26153:26158   */\n      dup3\n        /* \"#utility.yul\":26149:26165   */\n      and\n        /* \"#utility.yul\":26138:26165   */\n      swap1\n      pop\n        /* \"#utility.yul\":26128:26171   */\n      swap2\n      swap1\n      pop\n      jump\t// out\n        /* \"#utility.yul\":26177:26294   */\n    tag_505:\n        /* \"#utility.yul\":26233:26242   */\n      0x00\n        /* \"#utility.yul\":26266:26288   */\n      tag_721\n        /* \"#utility.yul\":26282:26287   */\n      dup3\n        /* \"#utility.yul\":26266:26288   */\n      tag_627\n      jump\t// in\n    tag_721:\n        /* \"#utility.yul\":26253:26288   */\n      swap1\n      pop\n        /* \"#utility.yul\":26243:26294   */\n      swap2\n      swap1\n      pop\n      jump\t// out\n        /* \"#utility.yul\":26300:26454   */\n    tag_438:\n        /* \"#utility.yul\":26384:26390   */\n      dup3\n        /* \"#utility.yul\":26379:26382   */\n      dup2\n        /* \"#utility.yul\":26374:26377   */\n      dup4\n        /* \"#utility.yul\":26361:26391   */\n      calldatacopy\n        /* \"#utility.yul\":26446:26447   */\n      0x00\n        /* \"#utility.yul\":26437:26443   */\n      dup4\n        /* \"#utility.yul\":26432:26435   */\n      dup4\n        /* \"#utility.yul\":26428:26444   */\n      add\n        /* \"#utility.yul\":26421:26448   */\n      mstore\n        /* \"#utility.yul\":26351:26454   */\n      pop\n      pop\n      pop\n      jump\t// out\n        /* \"#utility.yul\":26460:26767   */\n    tag_501:\n        /* \"#utility.yul\":26528:26529   */\n      0x00\n        /* \"#utility.yul\":26538:26651   */\n    tag_724:\n        /* \"#utility.yul\":26552:26558   */\n      dup4\n        /* \"#utility.yul\":26549:26550   */\n      dup2\n        /* \"#utility.yul\":26546:26559   */\n      lt\n        /* \"#utility.yul\":26538:26651   */\n      iszero\n      tag_726\n      jumpi\n        /* \"#utility.yul\":26637:26638   */\n      dup1\n        /* \"#utility.yul\":26632:26635   */\n      dup3\n        /* \"#utility.yul\":26628:26639   */\n      add\n        /* \"#utility.yul\":26622:26640   */\n      mload\n        /* \"#utility.yul\":26618:26619   */\n      dup2\n        /* \"#utility.yul\":26613:26616   */\n      dup5\n        /* \"#utility.yul\":26609:26620   */\n      add\n        /* \"#utility.yul\":26602:26641   */\n      mstore\n        /* \"#utility.yul\":26574:26576   */\n      0x20\n        /* \"#utility.yul\":26571:26572   */\n      dup2\n        /* \"#utility.yul\":26567:26577   */\n      add\n        /* \"#utility.yul\":26562:26577   */\n      swap1\n      pop\n        /* \"#utility.yul\":26538:26651   */\n      jump(tag_724)\n    tag_726:\n        /* \"#utility.yul\":26669:26675   */\n      dup4\n        /* \"#utility.yul\":26666:26667   */\n      dup2\n        /* \"#utility.yul\":26663:26676   */\n      gt\n        /* \"#utility.yul\":26660:26662   */\n      iszero\n      tag_727\n      jumpi\n        /* \"#utility.yul\":26749:26750   */\n      0x00\n        /* \"#utility.yul\":26740:26746   */\n      dup5\n        /* \"#utility.yul\":26735:26738   */\n      dup5\n        /* \"#utility.yul\":26731:26747   */\n      add\n        /* \"#utility.yul\":26724:26751   */\n      mstore\n        /* \"#utility.yul\":26660:26662   */\n    tag_727:\n        /* \"#utility.yul\":26509:26767   */\n      pop\n      pop\n      pop\n      pop\n      jump\t// out\n        /* \"#utility.yul\":26773:27093   */\n    tag_133:\n        /* \"#utility.yul\":26817:26823   */\n      0x00\n        /* \"#utility.yul\":26854:26855   */\n      0x02\n        /* \"#utility.yul\":26848:26852   */\n      dup3\n        /* \"#utility.yul\":26844:26856   */\n      div\n        /* \"#utility.yul\":26834:26856   */\n      swap1\n      pop\n        /* \"#utility.yul\":26901:26902   */\n      0x01\n        /* \"#utility.yul\":26895:26899   */\n      dup3\n        /* \"#utility.yul\":26891:26903   */\n      and\n        /* \"#utility.yul\":26922:26940   */\n      dup1\n        /* \"#utility.yul\":26912:26914   */\n      tag_729\n      jumpi\n        /* \"#utility.yul\":26978:26982   */\n      0x7f\n        /* \"#utility.yul\":26970:26976   */\n      dup3\n        /* \"#utility.yul\":26966:26983   */\n      and\n        /* \"#utility.yul\":26956:26983   */\n      swap2\n      pop\n        /* \"#utility.yul\":26912:26914   */\n    tag_729:\n        /* \"#utility.yul\":27040:27042   */\n      0x20\n        /* \"#utility.yul\":27032:27038   */\n      dup3\n        /* \"#utility.yul\":27029:27043   */\n      lt\n        /* \"#utility.yul\":27009:27027   */\n      dup2\n        /* \"#utility.yul\":27006:27044   */\n      eq\n        /* \"#utility.yul\":27003:27005   */\n      iszero\n      tag_730\n      jumpi\n        /* \"#utility.yul\":27059:27077   */\n      tag_731\n      tag_732\n      jump\t// in\n    tag_731:\n        /* \"#utility.yul\":27003:27005   */\n    tag_730:\n        /* \"#utility.yul\":26824:27093   */\n      pop\n      swap2\n      swap1\n      pop\n      jump\t// out\n        /* \"#utility.yul\":27099:27380   */\n    tag_690:\n        /* \"#utility.yul\":27182:27209   */\n      tag_734\n        /* \"#utility.yul\":27204:27208   */\n      dup3\n        /* \"#utility.yul\":27182:27209   */\n      tag_514\n      jump\t// in\n    tag_734:\n        /* \"#utility.yul\":27174:27180   */\n      dup2\n        /* \"#utility.yul\":27170:27210   */\n      add\n        /* \"#utility.yul\":27312:27318   */\n      dup2\n        /* \"#utility.yul\":27300:27310   */\n      dup2\n        /* \"#utility.yul\":27297:27319   */\n      lt\n        /* \"#utility.yul\":27276:27294   */\n      0xffffffffffffffff\n        /* \"#utility.yul\":27264:27274   */\n      dup3\n        /* \"#utility.yul\":27261:27295   */\n      gt\n        /* \"#utility.yul\":27258:27320   */\n      or\n        /* \"#utility.yul\":27255:27257   */\n      iszero\n      tag_735\n      jumpi\n        /* \"#utility.yul\":27323:27341   */\n      tag_736\n      tag_695\n      jump\t// in\n    tag_736:\n        /* \"#utility.yul\":27255:27257   */\n    tag_735:\n        /* \"#utility.yul\":27363:27373   */\n      dup1\n        /* \"#utility.yul\":27359:27361   */\n      0x40\n        /* \"#utility.yul\":27352:27374   */\n      mstore\n        /* \"#utility.yul\":27142:27380   */\n      pop\n      pop\n      pop\n      jump\t// out\n        /* \"#utility.yul\":27386:27566   */\n    tag_706:\n        /* \"#utility.yul\":27434:27511   */\n      0x4e487b7100000000000000000000000000000000000000000000000000000000\n        /* \"#utility.yul\":27431:27432   */\n      0x00\n        /* \"#utility.yul\":27424:27512   */\n      mstore\n        /* \"#utility.yul\":27531:27535   */\n      0x11\n        /* \"#utility.yul\":27528:27529   */\n      0x04\n        /* \"#utility.yul\":27521:27536   */\n      mstore\n        /* \"#utility.yul\":27555:27559   */\n      0x24\n        /* \"#utility.yul\":27552:27553   */\n      0x00\n        /* \"#utility.yul\":27545:27560   */\n      revert\n        /* \"#utility.yul\":27572:27752   */\n    tag_732:\n        /* \"#utility.yul\":27620:27697   */\n      0x4e487b7100000000000000000000000000000000000000000000000000000000\n        /* \"#utility.yul\":27617:27618   */\n      0x00\n        /* \"#utility.yul\":27610:27698   */\n      mstore\n        /* \"#utility.yul\":27717:27721   */\n      0x22\n        /* \"#utility.yul\":27714:27715   */\n      0x04\n        /* \"#utility.yul\":27707:27722   */\n      mstore\n        /* \"#utility.yul\":27741:27745   */\n      0x24\n        /* \"#utility.yul\":27738:27739   */\n      0x00\n        /* \"#utility.yul\":27731:27746   */\n      revert\n        /* \"#utility.yul\":27758:27938   */\n    tag_695:\n        /* \"#utility.yul\":27806:27883   */\n      0x4e487b7100000000000000000000000000000000000000000000000000000000\n        /* \"#utility.yul\":27803:27804   */\n      0x00\n        /* \"#utility.yul\":27796:27884   */\n      mstore\n        /* \"#utility.yul\":27903:27907   */\n      0x41\n        /* \"#utility.yul\":27900:27901   */\n      0x04\n        /* \"#utility.yul\":27893:27908   */\n      mstore\n        /* \"#utility.yul\":27927:27931   */\n      0x24\n        /* \"#utility.yul\":27924:27925   */\n      0x00\n        /* \"#utility.yul\":27917:27932   */\n      revert\n        /* \"#utility.yul\":27944:28046   */\n    tag_514:\n        /* \"#utility.yul\":27985:27991   */\n      0x00\n        /* \"#utility.yul\":28036:28038   */\n      0x1f\n        /* \"#utility.yul\":28032:28039   */\n      not\n        /* \"#utility.yul\":28027:28029   */\n      0x1f\n        /* \"#utility.yul\":28020:28025   */\n      dup4\n        /* \"#utility.yul\":28016:28030   */\n      add\n        /* \"#utility.yul\":28012:28040   */\n      and\n        /* \"#utility.yul\":28002:28040   */\n      swap1\n      pop\n        /* \"#utility.yul\":27992:28046   */\n      swap2\n      swap1\n      pop\n      jump\t// out\n        /* \"#utility.yul\":28052:28274   */\n    tag_519:\n        /* \"#utility.yul\":28192:28226   */\n      0x45524332303a207472616e7366657220746f20746865207a65726f2061646472\n        /* \"#utility.yul\":28188:28189   */\n      0x00\n        /* \"#utility.yul\":28180:28186   */\n      dup3\n        /* \"#utility.yul\":28176:28190   */\n      add\n        /* \"#utility.yul\":28169:28227   */\n      mstore\n        /* \"#utility.yul\":28261:28266   */\n      0x6573730000000000000000000000000000000000000000000000000000000000\n        /* \"#utility.yul\":28256:28258   */\n      0x20\n        /* \"#utility.yul\":28248:28254   */\n      dup3\n        /* \"#utility.yul\":28244:28259   */\n      add\n        /* \"#utility.yul\":28237:28267   */\n      mstore\n        /* \"#utility.yul\":28158:28274   */\n      pop\n      jump\t// out\n        /* \"#utility.yul\":28280:28501   */\n    tag_524:\n        /* \"#utility.yul\":28420:28454   */\n      0x45524332303a206275726e20616d6f756e7420657863656564732062616c616e\n        /* \"#utility.yul\":28416:28417   */\n      0x00\n        /* \"#utility.yul\":28408:28414   */\n      dup3\n        /* \"#utility.yul\":28404:28418   */\n      add\n        /* \"#utility.yul\":28397:28455   */\n      mstore\n        /* \"#utility.yul\":28489:28493   */\n      0x6365000000000000000000000000000000000000000000000000000000000000\n        /* \"#utility.yul\":28484:28486   */\n      0x20\n        /* \"#utility.yul\":28476:28482   */\n      dup3\n        /* \"#utility.yul\":28472:28487   */\n      add\n        /* \"#utility.yul\":28465:28494   */\n      mstore\n        /* \"#utility.yul\":28386:28501   */\n      pop\n      jump\t// out\n        /* \"#utility.yul\":28507:28732   */\n    tag_529:\n        /* \"#utility.yul\":28647:28681   */\n      0x4f776e61626c653a206e6577206f776e657220697320746865207a65726f2061\n        /* \"#utility.yul\":28643:28644   */\n      0x00\n        /* \"#utility.yul\":28635:28641   */\n      dup3\n        /* \"#utility.yul\":28631:28645   */\n      add\n        /* \"#utility.yul\":28624:28682   */\n      mstore\n        /* \"#utility.yul\":28716:28724   */\n      0x6464726573730000000000000000000000000000000000000000000000000000\n        /* \"#utility.yul\":28711:28713   */\n      0x20\n        /* \"#utility.yul\":28703:28709   */\n      dup3\n        /* \"#utility.yul\":28699:28714   */\n      add\n        /* \"#utility.yul\":28692:28725   */\n      mstore\n        /* \"#utility.yul\":28613:28732   */\n      pop\n      jump\t// out\n        /* \"#utility.yul\":28738:28959   */\n    tag_534:\n        /* \"#utility.yul\":28878:28912   */\n      0x45524332303a20617070726f766520746f20746865207a65726f206164647265\n        /* \"#utility.yul\":28874:28875   */\n      0x00\n        /* \"#utility.yul\":28866:28872   */\n      dup3\n        /* \"#utility.yul\":28862:28876   */\n      add\n        /* \"#utility.yul\":28855:28913   */\n      mstore\n        /* \"#utility.yul\":28947:28951   */\n      0x7373000000000000000000000000000000000000000000000000000000000000\n        /* \"#utility.yul\":28942:28944   */\n      0x20\n        /* \"#utility.yul\":28934:28940   */\n      dup3\n        /* \"#utility.yul\":28930:28945   */\n      add\n        /* \"#utility.yul\":28923:28952   */\n      mstore\n        /* \"#utility.yul\":28844:28959   */\n      pop\n      jump\t// out\n        /* \"#utility.yul\":28965:29196   */\n    tag_539:\n        /* \"#utility.yul\":29105:29139   */\n      0x46756e6374696f6e206d7573742062652063616c6c6564207468726f75676820\n        /* \"#utility.yul\":29101:29102   */\n      0x00\n        /* \"#utility.yul\":29093:29099   */\n      dup3\n        /* \"#utility.yul\":29089:29103   */\n      add\n        /* \"#utility.yul\":29082:29140   */\n      mstore\n        /* \"#utility.yul\":29174:29188   */\n      0x64656c656761746563616c6c0000000000000000000000000000000000000000\n        /* \"#utility.yul\":29169:29171   */\n      0x20\n        /* \"#utility.yul\":29161:29167   */\n      dup3\n        /* \"#utility.yul\":29157:29172   */\n      add\n        /* \"#utility.yul\":29150:29189   */\n      mstore\n        /* \"#utility.yul\":29071:29196   */\n      pop\n      jump\t// out\n        /* \"#utility.yul\":29202:29381   */\n    tag_544:\n        /* \"#utility.yul\":29342:29373   */\n      0x45524332303a20696e73756666696369656e7420616c6c6f77616e6365000000\n        /* \"#utility.yul\":29338:29339   */\n      0x00\n        /* \"#utility.yul\":29330:29336   */\n      dup3\n        /* \"#utility.yul\":29326:29340   */\n      add\n        /* \"#utility.yul\":29319:29374   */\n      mstore\n        /* \"#utility.yul\":29308:29381   */\n      pop\n      jump\t// out\n        /* \"#utility.yul\":29387:29612   */\n    tag_549:\n        /* \"#utility.yul\":29527:29561   */\n      0x45524332303a207472616e7366657220616d6f756e7420657863656564732062\n        /* \"#utility.yul\":29523:29524   */\n      0x00\n        /* \"#utility.yul\":29515:29521   */\n      dup3\n        /* \"#utility.yul\":29511:29525   */\n      add\n        /* \"#utility.yul\":29504:29562   */\n      mstore\n        /* \"#utility.yul\":29596:29604   */\n      0x616c616e63650000000000000000000000000000000000000000000000000000\n        /* \"#utility.yul\":29591:29593   */\n      0x20\n        /* \"#utility.yul\":29583:29589   */\n      dup3\n        /* \"#utility.yul\":29579:29594   */\n      add\n        /* \"#utility.yul\":29572:29605   */\n      mstore\n        /* \"#utility.yul\":29493:29612   */\n      pop\n      jump\t// out\n        /* \"#utility.yul\":29618:29849   */\n    tag_554:\n        /* \"#utility.yul\":29758:29792   */\n      0x46756e6374696f6e206d7573742062652063616c6c6564207468726f75676820\n        /* \"#utility.yul\":29754:29755   */\n      0x00\n        /* \"#utility.yul\":29746:29752   */\n      dup3\n        /* \"#utility.yul\":29742:29756   */\n      add\n        /* \"#utility.yul\":29735:29793   */\n      mstore\n        /* \"#utility.yul\":29827:29841   */\n      0x6163746976652070726f78790000000000000000000000000000000000000000\n        /* \"#utility.yul\":29822:29824   */\n      0x20\n        /* \"#utility.yul\":29814:29820   */\n      dup3\n        /* \"#utility.yul\":29810:29825   */\n      add\n        /* \"#utility.yul\":29803:29842   */\n      mstore\n        /* \"#utility.yul\":29724:29849   */\n      pop\n      jump\t// out\n        /* \"#utility.yul\":29855:30098   */\n    tag_559:\n        /* \"#utility.yul\":29995:30029   */\n      0x555550535570677261646561626c653a206d757374206e6f742062652063616c\n        /* \"#utility.yul\":29991:29992   */\n      0x00\n        /* \"#utility.yul\":29983:29989   */\n      dup3\n        /* \"#utility.yul\":29979:29993   */\n      add\n        /* \"#utility.yul\":29972:30030   */\n      mstore\n        /* \"#utility.yul\":30064:30090   */\n      0x6c6564207468726f7567682064656c656761746563616c6c0000000000000000\n        /* \"#utility.yul\":30059:30061   */\n      0x20\n        /* \"#utility.yul\":30051:30057   */\n      dup3\n        /* \"#utility.yul\":30047:30062   */\n      add\n        /* \"#utility.yul\":30040:30091   */\n      mstore\n        /* \"#utility.yul\":29961:30098   */\n      pop\n      jump\t// out\n        /* \"#utility.yul\":30104:30332   */\n    tag_564:\n        /* \"#utility.yul\":30244:30278   */\n      0x45524331393637557067726164653a20756e737570706f727465642070726f78\n        /* \"#utility.yul\":30240:30241   */\n      0x00\n        /* \"#utility.yul\":30232:30238   */\n      dup3\n        /* \"#utility.yul\":30228:30242   */\n      add\n        /* \"#utility.yul\":30221:30279   */\n      mstore\n        /* \"#utility.yul\":30313:30324   */\n      0x6961626c65555549440000000000000000000000000000000000000000000000\n        /* \"#utility.yul\":30308:30310   */\n      0x20\n        /* \"#utility.yul\":30300:30306   */\n      dup3\n        /* \"#utility.yul\":30296:30311   */\n      add\n        /* \"#utility.yul\":30289:30325   */\n      mstore\n        /* \"#utility.yul\":30210:30332   */\n      pop\n      jump\t// out\n        /* \"#utility.yul\":30338:30571   */\n    tag_569:\n        /* \"#utility.yul\":30478:30512   */\n      0x496e697469616c697a61626c653a20636f6e747261637420697320616c726561\n        /* \"#utility.yul\":30474:30475   */\n      0x00\n        /* \"#utility.yul\":30466:30472   */\n      dup3\n        /* \"#utility.yul\":30462:30476   */\n      add\n        /* \"#utility.yul\":30455:30513   */\n      mstore\n        /* \"#utility.yul\":30547:30563   */\n      0x647920696e697469616c697a6564000000000000000000000000000000000000\n        /* \"#utility.yul\":30542:30544   */\n      0x20\n        /* \"#utility.yul\":30534:30540   */\n      dup3\n        /* \"#utility.yul\":30530:30545   */\n      add\n        /* \"#utility.yul\":30523:30564   */\n      mstore\n        /* \"#utility.yul\":30444:30571   */\n      pop\n      jump\t// out\n        /* \"#utility.yul\":30577:30810   */\n    tag_574:\n        /* \"#utility.yul\":30717:30751   */\n      0x45524331393637557067726164653a206e657720696d706c656d656e74617469\n        /* \"#utility.yul\":30713:30714   */\n      0x00\n        /* \"#utility.yul\":30705:30711   */\n      dup3\n        /* \"#utility.yul\":30701:30715   */\n      add\n        /* \"#utility.yul\":30694:30752   */\n      mstore\n        /* \"#utility.yul\":30786:30802   */\n      0x6f6e206973206e6f742055555053000000000000000000000000000000000000\n        /* \"#utility.yul\":30781:30783   */\n      0x20\n        /* \"#utility.yul\":30773:30779   */\n      dup3\n        /* \"#utility.yul\":30769:30784   */\n      add\n        /* \"#utility.yul\":30762:30803   */\n      mstore\n        /* \"#utility.yul\":30683:30810   */\n      pop\n      jump\t// out\n        /* \"#utility.yul\":30816:31048   */\n    tag_579:\n        /* \"#utility.yul\":30956:30990   */\n      0x455243313936373a206e657720696d706c656d656e746174696f6e206973206e\n        /* \"#utility.yul\":30952:30953   */\n      0x00\n        /* \"#utility.yul\":30944:30950   */\n      dup3\n        /* \"#utility.yul\":30940:30954   */\n      add\n        /* \"#utility.yul\":30933:30991   */\n      mstore\n        /* \"#utility.yul\":31025:31040   */\n      0x6f74206120636f6e747261637400000000000000000000000000000000000000\n        /* \"#utility.yul\":31020:31022   */\n      0x20\n        /* \"#utility.yul\":31012:31018   */\n      dup3\n        /* \"#utility.yul\":31008:31023   */\n      add\n        /* \"#utility.yul\":31001:31041   */\n      mstore\n        /* \"#utility.yul\":30922:31048   */\n      pop\n      jump\t// out\n        /* \"#utility.yul\":31054:31236   */\n    tag_584:\n        /* \"#utility.yul\":31194:31228   */\n      0x4f776e61626c653a2063616c6c6572206973206e6f7420746865206f776e6572\n        /* \"#utility.yul\":31190:31191   */\n      0x00\n        /* \"#utility.yul\":31182:31188   */\n      dup3\n        /* \"#utility.yul\":31178:31192   */\n      add\n        /* \"#utility.yul\":31171:31229   */\n      mstore\n        /* \"#utility.yul\":31160:31236   */\n      pop\n      jump\t// out\n        /* \"#utility.yul\":31242:31462   */\n    tag_589:\n        /* \"#utility.yul\":31382:31416   */\n      0x45524332303a206275726e2066726f6d20746865207a65726f20616464726573\n        /* \"#utility.yul\":31378:31379   */\n      0x00\n        /* \"#utility.yul\":31370:31376   */\n      dup3\n        /* \"#utility.yul\":31366:31380   */\n      add\n        /* \"#utility.yul\":31359:31417   */\n      mstore\n        /* \"#utility.yul\":31451:31454   */\n      0x7300000000000000000000000000000000000000000000000000000000000000\n        /* \"#utility.yul\":31446:31448   */\n      0x20\n        /* \"#utility.yul\":31438:31444   */\n      dup3\n        /* \"#utility.yul\":31434:31449   */\n      add\n        /* \"#utility.yul\":31427:31455   */\n      mstore\n        /* \"#utility.yul\":31348:31462   */\n      pop\n      jump\t// out\n        /* \"#utility.yul\":31468:31693   */\n    tag_594:\n        /* \"#utility.yul\":31608:31642   */\n      0x416464726573733a2064656c65676174652063616c6c20746f206e6f6e2d636f\n        /* \"#utility.yul\":31604:31605   */\n      0x00\n        /* \"#utility.yul\":31596:31602   */\n      dup3\n        /* \"#utility.yul\":31592:31606   */\n      add\n        /* \"#utility.yul\":31585:31643   */\n      mstore\n        /* \"#utility.yul\":31677:31685   */\n      0x6e74726163740000000000000000000000000000000000000000000000000000\n        /* \"#utility.yul\":31672:31674   */\n      0x20\n        /* \"#utility.yul\":31664:31670   */\n      dup3\n        /* \"#utility.yul\":31660:31675   */\n      add\n        /* \"#utility.yul\":31653:31686   */\n      mstore\n        /* \"#utility.yul\":31574:31693   */\n      pop\n      jump\t// out\n        /* \"#utility.yul\":31699:31923   */\n    tag_599:\n        /* \"#utility.yul\":31839:31873   */\n      0x45524332303a207472616e736665722066726f6d20746865207a65726f206164\n        /* \"#utility.yul\":31835:31836   */\n      0x00\n        /* \"#utility.yul\":31827:31833   */\n      dup3\n        /* \"#utility.yul\":31823:31837   */\n      add\n        /* \"#utility.yul\":31816:31874   */\n      mstore\n        /* \"#utility.yul\":31908:31915   */\n      0x6472657373000000000000000000000000000000000000000000000000000000\n        /* \"#utility.yul\":31903:31905   */\n      0x20\n        /* \"#utility.yul\":31895:31901   */\n      dup3\n        /* \"#utility.yul\":31891:31906   */\n      add\n        /* \"#utility.yul\":31884:31916   */\n      mstore\n        /* \"#utility.yul\":31805:31923   */\n      pop\n      jump\t// out\n        /* \"#utility.yul\":31929:32152   */\n    tag_604:\n        /* \"#utility.yul\":32069:32103   */\n      0x45524332303a20617070726f76652066726f6d20746865207a65726f20616464\n        /* \"#utility.yul\":32065:32066   */\n      0x00\n        /* \"#utility.yul\":32057:32063   */\n      dup3\n        /* \"#utility.yul\":32053:32067   */\n      add\n        /* \"#utility.yul\":32046:32104   */\n      mstore\n        /* \"#utility.yul\":32138:32144   */\n      0x7265737300000000000000000000000000000000000000000000000000000000\n        /* \"#utility.yul\":32133:32135   */\n      0x20\n        /* \"#utility.yul\":32125:32131   */\n      dup3\n        /* \"#utility.yul\":32121:32136   */\n      add\n        /* \"#utility.yul\":32114:32145   */\n      mstore\n        /* \"#utility.yul\":32035:32152   */\n      pop\n      jump\t// out\n        /* \"#utility.yul\":32158:32388   */\n    tag_609:\n        /* \"#utility.yul\":32298:32332   */\n      0x496e697469616c697a61626c653a20636f6e7472616374206973206e6f742069\n        /* \"#utility.yul\":32294:32295   */\n      0x00\n        /* \"#utility.yul\":32286:32292   */\n      dup3\n        /* \"#utility.yul\":32282:32296   */\n      add\n        /* \"#utility.yul\":32275:32333   */\n      mstore\n        /* \"#utility.yul\":32367:32380   */\n      0x6e697469616c697a696e67000000000000000000000000000000000000000000\n        /* \"#utility.yul\":32362:32364   */\n      0x20\n        /* \"#utility.yul\":32354:32360   */\n      dup3\n        /* \"#utility.yul\":32350:32365   */\n      add\n        /* \"#utility.yul\":32343:32381   */\n      mstore\n        /* \"#utility.yul\":32264:32388   */\n      pop\n      jump\t// out\n        /* \"#utility.yul\":32394:32618   */\n    tag_614:\n        /* \"#utility.yul\":32534:32568   */\n      0x45524332303a2064656372656173656420616c6c6f77616e63652062656c6f77\n        /* \"#utility.yul\":32530:32531   */\n      0x00\n        /* \"#utility.yul\":32522:32528   */\n      dup3\n        /* \"#utility.yul\":32518:32532   */\n      add\n        /* \"#utility.yul\":32511:32569   */\n      mstore\n        /* \"#utility.yul\":32603:32610   */\n      0x207a65726f000000000000000000000000000000000000000000000000000000\n        /* \"#utility.yul\":32598:32600   */\n      0x20\n        /* \"#utility.yul\":32590:32596   */\n      dup3\n        /* \"#utility.yul\":32586:32601   */\n      add\n        /* \"#utility.yul\":32579:32611   */\n      mstore\n        /* \"#utility.yul\":32500:32618   */\n      pop\n      jump\t// out\n        /* \"#utility.yul\":32624:32805   */\n    tag_619:\n        /* \"#utility.yul\":32764:32797   */\n      0x45524332303a206d696e7420746f20746865207a65726f206164647265737300\n        /* \"#utility.yul\":32760:32761   */\n      0x00\n        /* \"#utility.yul\":32752:32758   */\n      dup3\n        /* \"#utility.yul\":32748:32762   */\n      add\n        /* \"#utility.yul\":32741:32798   */\n      mstore\n        /* \"#utility.yul\":32730:32805   */\n      pop\n      jump\t// out\n        /* \"#utility.yul\":32811:32933   */\n    tag_442:\n        /* \"#utility.yul\":32884:32908   */\n      tag_763\n        /* \"#utility.yul\":32902:32907   */\n      dup2\n        /* \"#utility.yul\":32884:32908   */\n      tag_485\n      jump\t// in\n    tag_763:\n        /* \"#utility.yul\":32877:32882   */\n      dup2\n        /* \"#utility.yul\":32874:32909   */\n      eq\n        /* \"#utility.yul\":32864:32866   */\n      tag_764\n      jumpi\n        /* \"#utility.yul\":32923:32924   */\n      0x00\n        /* \"#utility.yul\":32920:32921   */\n      dup1\n        /* \"#utility.yul\":32913:32925   */\n      revert\n        /* \"#utility.yul\":32864:32866   */\n    tag_764:\n        /* \"#utility.yul\":32854:32933   */\n      pop\n      jump\t// out\n        /* \"#utility.yul\":32939:33061   */\n    tag_446:\n        /* \"#utility.yul\":33012:33036   */\n      tag_766\n        /* \"#utility.yul\":33030:33035   */\n      dup2\n        /* \"#utility.yul\":33012:33036   */\n      tag_493\n      jump\t// in\n    tag_766:\n        /* \"#utility.yul\":33005:33010   */\n      dup2\n        /* \"#utility.yul\":33002:33037   */\n      eq\n        /* \"#utility.yul\":32992:32994   */\n      tag_767\n      jumpi\n        /* \"#utility.yul\":33051:33052   */\n      0x00\n        /* \"#utility.yul\":33048:33049   */\n      dup1\n        /* \"#utility.yul\":33041:33053   */\n      revert\n        /* \"#utility.yul\":32992:32994   */\n    tag_767:\n        /* \"#utility.yul\":32982:33061   */\n      pop\n      jump\t// out\n        /* \"#utility.yul\":33067:33189   */\n    tag_454:\n        /* \"#utility.yul\":33140:33164   */\n      tag_769\n        /* \"#utility.yul\":33158:33163   */\n      dup2\n        /* \"#utility.yul\":33140:33164   */\n      tag_623\n      jump\t// in\n    tag_769:\n        /* \"#utility.yul\":33133:33138   */\n      dup2\n        /* \"#utility.yul\":33130:33165   */\n      eq\n        /* \"#utility.yul\":33120:33122   */\n      tag_770\n      jumpi\n        /* \"#utility.yul\":33179:33180   */\n      0x00\n        /* \"#utility.yul\":33176:33177   */\n      dup1\n        /* \"#utility.yul\":33169:33181   */\n      revert\n        /* \"#utility.yul\":33120:33122   */\n    tag_770:\n        /* \"#utility.yul\":33110:33189   */\n      pop\n      jump\t// out\n    stop\n    data_9fdcd12e4b726339b32a442b0a448365d5d85c96b2d2cff917b4f66c63110398 416464726573733a206c6f772d6c6576656c2064656c65676174652063616c6c206661696c6564\n\n    auxdata: 0xa2646970667358221220b72a03d20f95c3dda536e6c7d3afa82d828d9fc4d8d08a1a5c5a4e7e9e11951d64736f6c63430008040033\n}\n",
				"bytecode": {
					"linkReferences": {},
					"object": "60a06040523073ffffffffffffffffffffffffffffffffffffffff1660809073ffffffffffffffffffffffffffffffffffffffff1660601b8152503480156200004757600080fd5b50620000586200005e60201b60201c565b62000209565b600060019054906101000a900460ff1615620000b1576040517f08c379a0000000000000000000000000000000000000000000000000000000008152600401620000a8906200015d565b60405180910390fd5b60ff801660008054906101000a900460ff1660ff161015620001235760ff6000806101000a81548160ff021916908360ff1602179055507f7f26b83ff96e1f2b6a682f133852f6798a09c465da95921460cefb384740249860ff6040516200011a91906200017f565b60405180910390a15b565b6000620001346027836200019c565b91506200014182620001ba565b604082019050919050565b6200015781620001ad565b82525050565b60006020820190508181036000830152620001788162000125565b9050919050565b60006020820190506200019660008301846200014c565b92915050565b600082825260208201905092915050565b600060ff82169050919050565b7f496e697469616c697a61626c653a20636f6e747261637420697320696e69746960008201527f616c697a696e6700000000000000000000000000000000000000000000000000602082015250565b60805160601c6132836200024460003960008181610620015281816106af01528181610830015281816108bf015261096f01526132836000f3fe6080604052600436106101355760003560e01c806370a08231116100ab57806395d89b411161006f57806395d89b41146103f3578063a457c2d71461041e578063a9059cbb1461045b578063d48bcc8114610498578063dd62ed3e146104c1578063f2fde38b146104fe57610135565b806370a0823114610334578063715018a61461037157806379cc6790146103885780638129fc1c146103b15780638da5cb5b146103c857610135565b80633659cfe6116100fd5780633659cfe614610235578063395093511461025e57806340c10f191461029b57806342966c68146102c45780634f1ef286146102ed57806352d1902d1461030957610135565b806306fdde031461013a578063095ea7b31461016557806318160ddd146101a257806323b872dd146101cd578063313ce5671461020a575b600080fd5b34801561014657600080fd5b5061014f610527565b60405161015c919061261a565b60405180910390f35b34801561017157600080fd5b5061018c60048036038101906101879190612166565b6105b9565b60405161019991906125c9565b60405180910390f35b3480156101ae57600080fd5b506101b76105dc565b6040516101c491906128dc565b60405180910390f35b3480156101d957600080fd5b506101f460048036038101906101ef91906120c3565b6105e6565b60405161020191906125c9565b60405180910390f35b34801561021657600080fd5b5061021f610615565b60405161022c91906128f7565b60405180910390f35b34801561024157600080fd5b5061025c6004803603810190610257919061205e565b61061e565b005b34801561026a57600080fd5b5061028560048036038101906102809190612166565b6107cd565b60405161029291906125c9565b60405180910390f35b3480156102a757600080fd5b506102c260048036038101906102bd9190612166565b610804565b005b3480156102d057600080fd5b506102eb60048036038101906102e691906121cb565b61081a565b005b61030760048036038101906103029190612112565b61082e565b005b34801561031557600080fd5b5061031e61096b565b60405161032b91906125e4565b60405180910390f35b34801561034057600080fd5b5061035b6004803603810190610356919061205e565b610a24565b60405161036891906128dc565b60405180910390f35b34801561037d57600080fd5b50610386610a6d565b005b34801561039457600080fd5b506103af60048036038101906103aa9190612166565b610a81565b005b3480156103bd57600080fd5b506103c6610aa1565b005b3480156103d457600080fd5b506103dd610c63565b6040516103ea91906125ae565b60405180910390f35b3480156103ff57600080fd5b50610408610c8d565b604051610415919061261a565b60405180910390f35b34801561042a57600080fd5b5061044560048036038101906104409190612166565b610d1f565b60405161045291906125c9565b60405180910390f35b34801561046757600080fd5b50610482600480360381019061047d9190612166565b610d96565b60405161048f91906125c9565b60405180910390f35b3480156104a457600080fd5b506104bf60048036038101906104ba9190612166565b610db9565b005b3480156104cd57600080fd5b506104e860048036038101906104e39190612087565b610dcf565b6040516104f591906128dc565b60405180910390f35b34801561050a57600080fd5b506105256004803603810190610520919061205e565b610e56565b005b60606036805461053690612ad7565b80601f016020809104026020016040519081016040528092919081815260200182805461056290612ad7565b80156105af5780601f10610584576101008083540402835291602001916105af565b820191906000526020600020905b81548152906001019060200180831161059257829003601f168201915b5050505050905090565b6000806105c4610eda565b90506105d1818585610ee2565b600191505092915050565b6000603554905090565b6000806105f1610eda565b90506105fe8582856110ad565b610609858585611139565b60019150509392505050565b60006012905090565b7f000000000000000000000000000000000000000000000000000000000000000073ffffffffffffffffffffffffffffffffffffffff163073ffffffffffffffffffffffffffffffffffffffff1614156106ad576040517f08c379a00000000000000000000000000000000000000000000000000000000081526004016106a4906126bc565b60405180910390fd5b7f000000000000000000000000000000000000000000000000000000000000000073ffffffffffffffffffffffffffffffffffffffff166106ec6113bd565b73ffffffffffffffffffffffffffffffffffffffff1614610742576040517f08c379a00000000000000000000000000000000000000000000000000000000081526004016107399061271c565b60405180910390fd5b61074b81611414565b6107ca81600067ffffffffffffffff811115610790577f4e487b7100000000000000000000000000000000000000000000000000000000600052604160045260246000fd5b6040519080825280601f01601f1916602001820160405280156107c25781602001600182028036833780820191505090505b50600061141f565b50565b6000806107d8610eda565b90506107f98185856107ea8589610dcf565b6107f4919061299a565b610ee2565b600191505092915050565b61080c61159c565b610816828261161a565b5050565b61082b610825610eda565b8261177b565b50565b7f000000000000000000000000000000000000000000000000000000000000000073ffffffffffffffffffffffffffffffffffffffff163073ffffffffffffffffffffffffffffffffffffffff1614156108bd576040517f08c379a00000000000000000000000000000000000000000000000000000000081526004016108b4906126bc565b60405180910390fd5b7f000000000000000000000000000000000000000000000000000000000000000073ffffffffffffffffffffffffffffffffffffffff166108fc6113bd565b73ffffffffffffffffffffffffffffffffffffffff1614610952576040517f08c379a00000000000000000000000000000000000000000000000000000000081526004016109499061271c565b60405180910390fd5b61095b82611414565b6109678282600161141f565b5050565b60007f000000000000000000000000000000000000000000000000000000000000000073ffffffffffffffffffffffffffffffffffffffff163073ffffffffffffffffffffffffffffffffffffffff16146109fb576040517f08c379a00000000000000000000000000000000000000000000000000000000081526004016109f29061273c565b60405180910390fd5b7f360894a13ba1a3210667c828492db98dca3e2076cc3735a920a3ca505d382bbc60001b905090565b6000603360008373ffffffffffffffffffffffffffffffffffffffff1673ffffffffffffffffffffffffffffffffffffffff168152602001908152602001600020549050919050565b610a7561159c565b610a7f6000611954565b565b610a9382610a8d610eda565b836110ad565b610a9d828261177b565b5050565b60008060019054906101000a900460ff16159050808015610ad25750600160008054906101000a900460ff1660ff16105b80610aff5750610ae130611a1a565b158015610afe5750600160008054906101000a900460ff1660ff16145b5b610b3e576040517f08c379a0000000000000000000000000000000000000000000000000000000008152600401610b359061277c565b60405180910390fd5b60016000806101000a81548160ff021916908360ff1602179055508015610b7b576001600060016101000a81548160ff0219169083151502179055505b610bef6040518060400160405280600781526020017f4d79546f6b656e000000000000000000000000000000000000000000000000008152506040518060400160405280600381526020017f4d544b0000000000000000000000000000000000000000000000000000000000815250611a3d565b610bf7611a9a565b610bff611aeb565b610c07611b44565b8015610c605760008060016101000a81548160ff0219169083151502179055507f7f26b83ff96e1f2b6a682f133852f6798a09c465da95921460cefb38474024986001604051610c5791906125ff565b60405180910390a15b50565b6000609760009054906101000a900473ffffffffffffffffffffffffffffffffffffffff16905090565b606060378054610c9c90612ad7565b80601f0160208091040260200160405190810160405280929190818152602001828054610cc890612ad7565b8015610d155780601f10610cea57610100808354040283529160200191610d15565b820191906000526020600020905b815481529060010190602001808311610cf857829003601f168201915b5050505050905090565b600080610d2a610eda565b90506000610d388286610dcf565b905083811015610d7d576040517f08c379a0000000000000000000000000000000000000000000000000000000008152600401610d749061289c565b60405180910390fd5b610d8a8286868403610ee2565b60019250505092915050565b600080610da1610eda565b9050610dae818585611139565b600191505092915050565b610dc161159c565b610dcb828261161a565b5050565b6000603460008473ffffffffffffffffffffffffffffffffffffffff1673ffffffffffffffffffffffffffffffffffffffff16815260200190815260200160002060008373ffffffffffffffffffffffffffffffffffffffff1673ffffffffffffffffffffffffffffffffffffffff16815260200190815260200160002054905092915050565b610e5e61159c565b600073ffffffffffffffffffffffffffffffffffffffff168173ffffffffffffffffffffffffffffffffffffffff161415610ece576040517f08c379a0000000000000000000000000000000000000000000000000000000008152600401610ec59061267c565b60405180910390fd5b610ed781611954565b50565b600033905090565b600073ffffffffffffffffffffffffffffffffffffffff168373ffffffffffffffffffffffffffffffffffffffff161415610f52576040517f08c379a0000000000000000000000000000000000000000000000000000000008152600401610f499061285c565b60405180910390fd5b600073ffffffffffffffffffffffffffffffffffffffff168273ffffffffffffffffffffffffffffffffffffffff161415610fc2576040517f08c379a0000000000000000000000000000000000000000000000000000000008152600401610fb99061269c565b60405180910390fd5b80603460008573ffffffffffffffffffffffffffffffffffffffff1673ffffffffffffffffffffffffffffffffffffffff16815260200190815260200160002060008473ffffffffffffffffffffffffffffffffffffffff1673ffffffffffffffffffffffffffffffffffffffff168152602001908152602001600020819055508173ffffffffffffffffffffffffffffffffffffffff168373ffffffffffffffffffffffffffffffffffffffff167f8c5be1e5ebec7d5bd14f71427d1e84f3dd0314c0f7b2291e5b200ac8c7c3b925836040516110a091906128dc565b60405180910390a3505050565b60006110b98484610dcf565b90507fffffffffffffffffffffffffffffffffffffffffffffffffffffffffffffffff81146111335781811015611125576040517f08c379a000000000000000000000000000000000000000000000000000000000815260040161111c906126dc565b60405180910390fd5b6111328484848403610ee2565b5b50505050565b600073ffffffffffffffffffffffffffffffffffffffff168373ffffffffffffffffffffffffffffffffffffffff1614156111a9576040517f08c379a00000000000000000000000000000000000000000000000000000000081526004016111a09061283c565b60405180910390fd5b600073ffffffffffffffffffffffffffffffffffffffff168273ffffffffffffffffffffffffffffffffffffffff161415611219576040517f08c379a00000000000000000000000000000000000000000000000000000000081526004016112109061263c565b60405180910390fd5b611224838383611b95565b6000603360008573ffffffffffffffffffffffffffffffffffffffff1673ffffffffffffffffffffffffffffffffffffffff168152602001908152602001600020549050818110156112ab576040517f08c379a00000000000000000000000000000000000000000000000000000000081526004016112a2906126fc565b60405180910390fd5b818103603360008673ffffffffffffffffffffffffffffffffffffffff1673ffffffffffffffffffffffffffffffffffffffff1681526020019081526020016000208190555081603360008573ffffffffffffffffffffffffffffffffffffffff1673ffffffffffffffffffffffffffffffffffffffff1681526020019081526020016000206000828254611340919061299a565b925050819055508273ffffffffffffffffffffffffffffffffffffffff168473ffffffffffffffffffffffffffffffffffffffff167fddf252ad1be2c89b69c2b068fc378daa952ba7f163c4a11628f55a4df523b3ef846040516113a491906128dc565b60405180910390a36113b7848484611b9a565b50505050565b60006113eb7f360894a13ba1a3210667c828492db98dca3e2076cc3735a920a3ca505d382bbc60001b611b9f565b60000160009054906101000a900473ffffffffffffffffffffffffffffffffffffffff16905090565b61141c61159c565b50565b61144b7f4910fdfa16fed3260ed0e7147f7cc6da11a60208b5b9406d12a635614ffd914360001b611ba9565b60000160009054906101000a900460ff161561146f5761146a83611bb3565b611597565b8273ffffffffffffffffffffffffffffffffffffffff166352d1902d6040518163ffffffff1660e01b815260040160206040518083038186803b1580156114b557600080fd5b505afa9250505080156114e657506040513d601f19601f820116820180604052508101906114e391906121a2565b60015b611525576040517f08c379a000000000000000000000000000000000000000000000000000000000815260040161151c9061279c565b60405180910390fd5b7f360894a13ba1a3210667c828492db98dca3e2076cc3735a920a3ca505d382bbc60001b811461158a576040517f08c379a00000000000000000000000000000000000000000000000000000000081526004016115819061275c565b60405180910390fd5b50611596838383611c6c565b5b505050565b6115a4610eda565b73ffffffffffffffffffffffffffffffffffffffff166115c2610c63565b73ffffffffffffffffffffffffffffffffffffffff1614611618576040517f08c379a000000000000000000000000000000000000000000000000000000000815260040161160f906127dc565b60405180910390fd5b565b600073ffffffffffffffffffffffffffffffffffffffff168273ffffffffffffffffffffffffffffffffffffffff16141561168a576040517f08c379a0000000000000000000000000000000000000000000000000000000008152600401611681906128bc565b60405180910390fd5b61169660008383611b95565b80603560008282546116a8919061299a565b9250508190555080603360008473ffffffffffffffffffffffffffffffffffffffff1673ffffffffffffffffffffffffffffffffffffffff16815260200190815260200160002060008282546116fe919061299a565b925050819055508173ffffffffffffffffffffffffffffffffffffffff16600073ffffffffffffffffffffffffffffffffffffffff167fddf252ad1be2c89b69c2b068fc378daa952ba7f163c4a11628f55a4df523b3ef8360405161176391906128dc565b60405180910390a361177760008383611b9a565b5050565b600073ffffffffffffffffffffffffffffffffffffffff168273ffffffffffffffffffffffffffffffffffffffff1614156117eb576040517f08c379a00000000000000000000000000000000000000000000000000000000081526004016117e2906127fc565b60405180910390fd5b6117f782600083611b95565b6000603360008473ffffffffffffffffffffffffffffffffffffffff1673ffffffffffffffffffffffffffffffffffffffff1681526020019081526020016000205490508181101561187e576040517f08c379a00000000000000000000000000000000000000000000000000000000081526004016118759061265c565b60405180910390fd5b818103603360008573ffffffffffffffffffffffffffffffffffffffff1673ffffffffffffffffffffffffffffffffffffffff1681526020019081526020016000208190555081603560008282546118d691906129f0565b92505081905550600073ffffffffffffffffffffffffffffffffffffffff168373ffffffffffffffffffffffffffffffffffffffff167fddf252ad1be2c89b69c2b068fc378daa952ba7f163c4a11628f55a4df523b3ef8460405161193b91906128dc565b60405180910390a361194f83600084611b9a565b505050565b6000609760009054906101000a900473ffffffffffffffffffffffffffffffffffffffff16905081609760006101000a81548173ffffffffffffffffffffffffffffffffffffffff021916908373ffffffffffffffffffffffffffffffffffffffff1602179055508173ffffffffffffffffffffffffffffffffffffffff168173ffffffffffffffffffffffffffffffffffffffff167f8be0079c531659141344cd1fd0a4f28419497f9722a3daafe3b4186f6b6457e060405160405180910390a35050565b6000808273ffffffffffffffffffffffffffffffffffffffff163b119050919050565b600060019054906101000a900460ff16611a8c576040517f08c379a0000000000000000000000000000000000000000000000000000000008152600401611a839061287c565b60405180910390fd5b611a968282611c98565b5050565b600060019054906101000a900460ff16611ae9576040517f08c379a0000000000000000000000000000000000000000000000000000000008152600401611ae09061287c565b60405180910390fd5b565b600060019054906101000a900460ff16611b3a576040517f08c379a0000000000000000000000000000000000000000000000000000000008152600401611b319061287c565b60405180910390fd5b611b42611d19565b565b600060019054906101000a900460ff16611b93576040517f08c379a0000000000000000000000000000000000000000000000000000000008152600401611b8a9061287c565b60405180910390fd5b565b505050565b505050565b6000819050919050565b6000819050919050565b611bbc81611a1a565b611bfb576040517f08c379a0000000000000000000000000000000000000000000000000000000008152600401611bf2906127bc565b60405180910390fd5b80611c287f360894a13ba1a3210667c828492db98dca3e2076cc3735a920a3ca505d382bbc60001b611b9f565b60000160006101000a81548173ffffffffffffffffffffffffffffffffffffffff021916908373ffffffffffffffffffffffffffffffffffffffff16021790555050565b611c7583611d7a565b600082511180611c825750805b15611c9357611c918383611dc9565b505b505050565b600060019054906101000a900460ff16611ce7576040517f08c379a0000000000000000000000000000000000000000000000000000000008152600401611cde9061287c565b60405180910390fd5b8160369080519060200190611cfd929190611f14565b508060379080519060200190611d14929190611f14565b505050565b600060019054906101000a900460ff16611d68576040517f08c379a0000000000000000000000000000000000000000000000000000000008152600401611d5f9061287c565b60405180910390fd5b611d78611d73610eda565b611954565b565b611d8381611bb3565b8073ffffffffffffffffffffffffffffffffffffffff167fbc7cd75a20ee27fd9adebab32041f755214dbc6bffa90cc0225b39da2e5c2d3b60405160405180910390a250565b6060611dd483611a1a565b611e13576040517f08c379a0000000000000000000000000000000000000000000000000000000008152600401611e0a9061281c565b60405180910390fd5b6000808473ffffffffffffffffffffffffffffffffffffffff1684604051611e3b9190612597565b600060405180830381855af49150503d8060008114611e76576040519150601f19603f3d011682016040523d82523d6000602084013e611e7b565b606091505b5091509150611ea3828260405180606001604052806027815260200161322760279139611ead565b9250505092915050565b60608315611ebd57829050611f0d565b600083511115611ed05782518084602001fd5b816040517f08c379a0000000000000000000000000000000000000000000000000000000008152600401611f04919061261a565b60405180910390fd5b9392505050565b828054611f2090612ad7565b90600052602060002090601f016020900481019282611f425760008555611f89565b82601f10611f5b57805160ff1916838001178555611f89565b82800160010185558215611f89579182015b82811115611f88578251825591602001919060010190611f6d565b5b509050611f969190611f9a565b5090565b5b80821115611fb3576000816000905550600101611f9b565b5090565b6000611fca611fc584612937565b612912565b905082815260208101848484011115611fe257600080fd5b611fed848285612a95565b509392505050565b600081359050612004816131e1565b92915050565b600081519050612019816131f8565b92915050565b600082601f83011261203057600080fd5b8135612040848260208601611fb7565b91505092915050565b6000813590506120588161320f565b92915050565b60006020828403121561207057600080fd5b600061207e84828501611ff5565b91505092915050565b6000806040838503121561209a57600080fd5b60006120a885828601611ff5565b92505060206120b985828601611ff5565b9150509250929050565b6000806000606084860312156120d857600080fd5b60006120e686828701611ff5565b93505060206120f786828701611ff5565b925050604061210886828701612049565b9150509250925092565b6000806040838503121561212557600080fd5b600061213385828601611ff5565b925050602083013567ffffffffffffffff81111561215057600080fd5b61215c8582860161201f565b9150509250929050565b6000806040838503121561217957600080fd5b600061218785828601611ff5565b925050602061219885828601612049565b9150509250929050565b6000602082840312156121b457600080fd5b60006121c28482850161200a565b91505092915050565b6000602082840312156121dd57600080fd5b60006121eb84828501612049565b91505092915050565b6121fd81612a24565b82525050565b61220c81612a36565b82525050565b61221b81612a42565b82525050565b600061222c82612968565b612236818561297e565b9350612246818560208601612aa4565b80840191505092915050565b61225b81612a83565b82525050565b600061226c82612973565b6122768185612989565b9350612286818560208601612aa4565b61228f81612bc7565b840191505092915050565b60006122a7602383612989565b91506122b282612bd8565b604082019050919050565b60006122ca602283612989565b91506122d582612c27565b604082019050919050565b60006122ed602683612989565b91506122f882612c76565b604082019050919050565b6000612310602283612989565b915061231b82612cc5565b604082019050919050565b6000612333602c83612989565b915061233e82612d14565b604082019050919050565b6000612356601d83612989565b915061236182612d63565b602082019050919050565b6000612379602683612989565b915061238482612d8c565b604082019050919050565b600061239c602c83612989565b91506123a782612ddb565b604082019050919050565b60006123bf603883612989565b91506123ca82612e2a565b604082019050919050565b60006123e2602983612989565b91506123ed82612e79565b604082019050919050565b6000612405602e83612989565b915061241082612ec8565b604082019050919050565b6000612428602e83612989565b915061243382612f17565b604082019050919050565b600061244b602d83612989565b915061245682612f66565b604082019050919050565b600061246e602083612989565b915061247982612fb5565b602082019050919050565b6000612491602183612989565b915061249c82612fde565b604082019050919050565b60006124b4602683612989565b91506124bf8261302d565b604082019050919050565b60006124d7602583612989565b91506124e28261307c565b604082019050919050565b60006124fa602483612989565b9150612505826130cb565b604082019050919050565b600061251d602b83612989565b91506125288261311a565b604082019050919050565b6000612540602583612989565b915061254b82613169565b604082019050919050565b6000612563601f83612989565b915061256e826131b8565b602082019050919050565b61258281612a6c565b82525050565b61259181612a76565b82525050565b60006125a38284612221565b915081905092915050565b60006020820190506125c360008301846121f4565b92915050565b60006020820190506125de6000830184612203565b92915050565b60006020820190506125f96000830184612212565b92915050565b60006020820190506126146000830184612252565b92915050565b600060208201905081810360008301526126348184612261565b905092915050565b600060208201905081810360008301526126558161229a565b9050919050565b60006020820190508181036000830152612675816122bd565b9050919050565b60006020820190508181036000830152612695816122e0565b9050919050565b600060208201905081810360008301526126b581612303565b9050919050565b600060208201905081810360008301526126d581612326565b9050919050565b600060208201905081810360008301526126f581612349565b9050919050565b600060208201905081810360008301526127158161236c565b9050919050565b600060208201905081810360008301526127358161238f565b9050919050565b60006020820190508181036000830152612755816123b2565b9050919050565b60006020820190508181036000830152612775816123d5565b9050919050565b60006020820190508181036000830152612795816123f8565b9050919050565b600060208201905081810360008301526127b58161241b565b9050919050565b600060208201905081810360008301526127d58161243e565b9050919050565b600060208201905081810360008301526127f581612461565b9050919050565b6000602082019050818103600083015261281581612484565b9050919050565b60006020820190508181036000830152612835816124a7565b9050919050565b60006020820190508181036000830152612855816124ca565b9050919050565b60006020820190508181036000830152612875816124ed565b9050919050565b6000602082019050818103600083015261289581612510565b9050919050565b600060208201905081810360008301526128b581612533565b9050919050565b600060208201905081810360008301526128d581612556565b9050919050565b60006020820190506128f16000830184612579565b92915050565b600060208201905061290c6000830184612588565b92915050565b600061291c61292d565b90506129288282612b09565b919050565b6000604051905090565b600067ffffffffffffffff82111561295257612951612b98565b5b61295b82612bc7565b9050602081019050919050565b600081519050919050565b600081519050919050565b600081905092915050565b600082825260208201905092915050565b60006129a582612a6c565b91506129b083612a6c565b9250827fffffffffffffffffffffffffffffffffffffffffffffffffffffffffffffffff038211156129e5576129e4612b3a565b5b828201905092915050565b60006129fb82612a6c565b9150612a0683612a6c565b925082821015612a1957612a18612b3a565b5b828203905092915050565b6000612a2f82612a4c565b9050919050565b60008115159050919050565b6000819050919050565b600073ffffffffffffffffffffffffffffffffffffffff82169050919050565b6000819050919050565b600060ff82169050919050565b6000612a8e82612a76565b9050919050565b82818337600083830152505050565b60005b83811015612ac2578082015181840152602081019050612aa7565b83811115612ad1576000848401525b50505050565b60006002820490506001821680612aef57607f821691505b60208210811415612b0357612b02612b69565b5b50919050565b612b1282612bc7565b810181811067ffffffffffffffff82111715612b3157612b30612b98565b5b80604052505050565b7f4e487b7100000000000000000000000000000000000000000000000000000000600052601160045260246000fd5b7f4e487b7100000000000000000000000000000000000000000000000000000000600052602260045260246000fd5b7f4e487b7100000000000000000000000000000000000000000000000000000000600052604160045260246000fd5b6000601f19601f8301169050919050565b7f45524332303a207472616e7366657220746f20746865207a65726f206164647260008201527f6573730000000000000000000000000000000000000000000000000000000000602082015250565b7f45524332303a206275726e20616d6f756e7420657863656564732062616c616e60008201527f6365000000000000000000000000000000000000000000000000000000000000602082015250565b7f4f776e61626c653a206e6577206f776e657220697320746865207a65726f206160008201527f6464726573730000000000000000000000000000000000000000000000000000602082015250565b7f45524332303a20617070726f766520746f20746865207a65726f20616464726560008201527f7373000000000000000000000000000000000000000000000000000000000000602082015250565b7f46756e6374696f6e206d7573742062652063616c6c6564207468726f7567682060008201527f64656c656761746563616c6c0000000000000000000000000000000000000000602082015250565b7f45524332303a20696e73756666696369656e7420616c6c6f77616e6365000000600082015250565b7f45524332303a207472616e7366657220616d6f756e742065786365656473206260008201527f616c616e63650000000000000000000000000000000000000000000000000000602082015250565b7f46756e6374696f6e206d7573742062652063616c6c6564207468726f7567682060008201527f6163746976652070726f78790000000000000000000000000000000000000000602082015250565b7f555550535570677261646561626c653a206d757374206e6f742062652063616c60008201527f6c6564207468726f7567682064656c656761746563616c6c0000000000000000602082015250565b7f45524331393637557067726164653a20756e737570706f727465642070726f7860008201527f6961626c65555549440000000000000000000000000000000000000000000000602082015250565b7f496e697469616c697a61626c653a20636f6e747261637420697320616c72656160008201527f647920696e697469616c697a6564000000000000000000000000000000000000602082015250565b7f45524331393637557067726164653a206e657720696d706c656d656e7461746960008201527f6f6e206973206e6f742055555053000000000000000000000000000000000000602082015250565b7f455243313936373a206e657720696d706c656d656e746174696f6e206973206e60008201527f6f74206120636f6e747261637400000000000000000000000000000000000000602082015250565b7f4f776e61626c653a2063616c6c6572206973206e6f7420746865206f776e6572600082015250565b7f45524332303a206275726e2066726f6d20746865207a65726f2061646472657360008201527f7300000000000000000000000000000000000000000000000000000000000000602082015250565b7f416464726573733a2064656c65676174652063616c6c20746f206e6f6e2d636f60008201527f6e74726163740000000000000000000000000000000000000000000000000000602082015250565b7f45524332303a207472616e736665722066726f6d20746865207a65726f20616460008201527f6472657373000000000000000000000000000000000000000000000000000000602082015250565b7f45524332303a20617070726f76652066726f6d20746865207a65726f2061646460008201527f7265737300000000000000000000000000000000000000000000000000000000602082015250565b7f496e697469616c697a61626c653a20636f6e7472616374206973206e6f74206960008201527f6e697469616c697a696e67000000000000000000000000000000000000000000602082015250565b7f45524332303a2064656372656173656420616c6c6f77616e63652062656c6f7760008201527f207a65726f000000000000000000000000000000000000000000000000000000602082015250565b7f45524332303a206d696e7420746f20746865207a65726f206164647265737300600082015250565b6131ea81612a24565b81146131f557600080fd5b50565b61320181612a42565b811461320c57600080fd5b50565b61321881612a6c565b811461322357600080fd5b5056fe416464726573733a206c6f772d6c6576656c2064656c65676174652063616c6c206661696c6564a2646970667358221220b72a03d20f95c3dda536e6c7d3afa82d828d9fc4d8d08a1a5c5a4e7e9e11951d64736f6c63430008040033",
					"opcodes": "PUSH1 0xA0 PUSH1 0x40 MSTORE ADDRESS PUSH20 0xFFFFFFFFFFFFFFFFFFFFFFFFFFFFFFFFFFFFFFFF AND PUSH1 0x80 SWAP1 PUSH20 0xFFFFFFFFFFFFFFFFFFFFFFFFFFFFFFFFFFFFFFFF AND PUSH1 0x60 SHL DUP2 MSTORE POP CALLVALUE DUP1 ISZERO PUSH3 0x47 JUMPI PUSH1 0x0 DUP1 REVERT JUMPDEST POP PUSH3 0x58 PUSH3 0x5E PUSH1 0x20 SHL PUSH1 0x20 SHR JUMP JUMPDEST PUSH3 0x209 JUMP JUMPDEST PUSH1 0x0 PUSH1 0x1 SWAP1 SLOAD SWAP1 PUSH2 0x100 EXP SWAP1 DIV PUSH1 0xFF AND ISZERO PUSH3 0xB1 JUMPI PUSH1 0x40 MLOAD PUSH32 0x8C379A000000000000000000000000000000000000000000000000000000000 DUP2 MSTORE PUSH1 0x4 ADD PUSH3 0xA8 SWAP1 PUSH3 0x15D JUMP JUMPDEST PUSH1 0x40 MLOAD DUP1 SWAP2 SUB SWAP1 REVERT JUMPDEST PUSH1 0xFF DUP1 AND PUSH1 0x0 DUP1 SLOAD SWAP1 PUSH2 0x100 EXP SWAP1 DIV PUSH1 0xFF AND PUSH1 0xFF AND LT ISZERO PUSH3 0x123 JUMPI PUSH1 0xFF PUSH1 0x0 DUP1 PUSH2 0x100 EXP DUP2 SLOAD DUP2 PUSH1 0xFF MUL NOT AND SWAP1 DUP4 PUSH1 0xFF AND MUL OR SWAP1 SSTORE POP PUSH32 0x7F26B83FF96E1F2B6A682F133852F6798A09C465DA95921460CEFB3847402498 PUSH1 0xFF PUSH1 0x40 MLOAD PUSH3 0x11A SWAP2 SWAP1 PUSH3 0x17F JUMP JUMPDEST PUSH1 0x40 MLOAD DUP1 SWAP2 SUB SWAP1 LOG1 JUMPDEST JUMP JUMPDEST PUSH1 0x0 PUSH3 0x134 PUSH1 0x27 DUP4 PUSH3 0x19C JUMP JUMPDEST SWAP2 POP PUSH3 0x141 DUP3 PUSH3 0x1BA JUMP JUMPDEST PUSH1 0x40 DUP3 ADD SWAP1 POP SWAP2 SWAP1 POP JUMP JUMPDEST PUSH3 0x157 DUP2 PUSH3 0x1AD JUMP JUMPDEST DUP3 MSTORE POP POP JUMP JUMPDEST PUSH1 0x0 PUSH1 0x20 DUP3 ADD SWAP1 POP DUP2 DUP2 SUB PUSH1 0x0 DUP4 ADD MSTORE PUSH3 0x178 DUP2 PUSH3 0x125 JUMP JUMPDEST SWAP1 POP SWAP2 SWAP1 POP JUMP JUMPDEST PUSH1 0x0 PUSH1 0x20 DUP3 ADD SWAP1 POP PUSH3 0x196 PUSH1 0x0 DUP4 ADD DUP5 PUSH3 0x14C JUMP JUMPDEST SWAP3 SWAP2 POP POP JUMP JUMPDEST PUSH1 0x0 DUP3 DUP3 MSTORE PUSH1 0x20 DUP3 ADD SWAP1 POP SWAP3 SWAP2 POP POP JUMP JUMPDEST PUSH1 0x0 PUSH1 0xFF DUP3 AND SWAP1 POP SWAP2 SWAP1 POP JUMP JUMPDEST PUSH32 0x496E697469616C697A61626C653A20636F6E747261637420697320696E697469 PUSH1 0x0 DUP3 ADD MSTORE PUSH32 0x616C697A696E6700000000000000000000000000000000000000000000000000 PUSH1 0x20 DUP3 ADD MSTORE POP JUMP JUMPDEST PUSH1 0x80 MLOAD PUSH1 0x60 SHR PUSH2 0x3283 PUSH3 0x244 PUSH1 0x0 CODECOPY PUSH1 0x0 DUP2 DUP2 PUSH2 0x620 ADD MSTORE DUP2 DUP2 PUSH2 0x6AF ADD MSTORE DUP2 DUP2 PUSH2 0x830 ADD MSTORE DUP2 DUP2 PUSH2 0x8BF ADD MSTORE PUSH2 0x96F ADD MSTORE PUSH2 0x3283 PUSH1 0x0 RETURN INVALID PUSH1 0x80 PUSH1 0x40 MSTORE PUSH1 0x4 CALLDATASIZE LT PUSH2 0x135 JUMPI PUSH1 0x0 CALLDATALOAD PUSH1 0xE0 SHR DUP1 PUSH4 0x70A08231 GT PUSH2 0xAB JUMPI DUP1 PUSH4 0x95D89B41 GT PUSH2 0x6F JUMPI DUP1 PUSH4 0x95D89B41 EQ PUSH2 0x3F3 JUMPI DUP1 PUSH4 0xA457C2D7 EQ PUSH2 0x41E JUMPI DUP1 PUSH4 0xA9059CBB EQ PUSH2 0x45B JUMPI DUP1 PUSH4 0xD48BCC81 EQ PUSH2 0x498 JUMPI DUP1 PUSH4 0xDD62ED3E EQ PUSH2 0x4C1 JUMPI DUP1 PUSH4 0xF2FDE38B EQ PUSH2 0x4FE JUMPI PUSH2 0x135 JUMP JUMPDEST DUP1 PUSH4 0x70A08231 EQ PUSH2 0x334 JUMPI DUP1 PUSH4 0x715018A6 EQ PUSH2 0x371 JUMPI DUP1 PUSH4 0x79CC6790 EQ PUSH2 0x388 JUMPI DUP1 PUSH4 0x8129FC1C EQ PUSH2 0x3B1 JUMPI DUP1 PUSH4 0x8DA5CB5B EQ PUSH2 0x3C8 JUMPI PUSH2 0x135 JUMP JUMPDEST DUP1 PUSH4 0x3659CFE6 GT PUSH2 0xFD JUMPI DUP1 PUSH4 0x3659CFE6 EQ PUSH2 0x235 JUMPI DUP1 PUSH4 0x39509351 EQ PUSH2 0x25E JUMPI DUP1 PUSH4 0x40C10F19 EQ PUSH2 0x29B JUMPI DUP1 PUSH4 0x42966C68 EQ PUSH2 0x2C4 JUMPI DUP1 PUSH4 0x4F1EF286 EQ PUSH2 0x2ED JUMPI DUP1 PUSH4 0x52D1902D EQ PUSH2 0x309 JUMPI PUSH2 0x135 JUMP JUMPDEST DUP1 PUSH4 0x6FDDE03 EQ PUSH2 0x13A JUMPI DUP1 PUSH4 0x95EA7B3 EQ PUSH2 0x165 JUMPI DUP1 PUSH4 0x18160DDD EQ PUSH2 0x1A2 JUMPI DUP1 PUSH4 0x23B872DD EQ PUSH2 0x1CD JUMPI DUP1 PUSH4 0x313CE567 EQ PUSH2 0x20A JUMPI JUMPDEST PUSH1 0x0 DUP1 REVERT JUMPDEST CALLVALUE DUP1 ISZERO PUSH2 0x146 JUMPI PUSH1 0x0 DUP1 REVERT JUMPDEST POP PUSH2 0x14F PUSH2 0x527 JUMP JUMPDEST PUSH1 0x40 MLOAD PUSH2 0x15C SWAP2 SWAP1 PUSH2 0x261A JUMP JUMPDEST PUSH1 0x40 MLOAD DUP1 SWAP2 SUB SWAP1 RETURN JUMPDEST CALLVALUE DUP1 ISZERO PUSH2 0x171 JUMPI PUSH1 0x0 DUP1 REVERT JUMPDEST POP PUSH2 0x18C PUSH1 0x4 DUP1 CALLDATASIZE SUB DUP2 ADD SWAP1 PUSH2 0x187 SWAP2 SWAP1 PUSH2 0x2166 JUMP JUMPDEST PUSH2 0x5B9 JUMP JUMPDEST PUSH1 0x40 MLOAD PUSH2 0x199 SWAP2 SWAP1 PUSH2 0x25C9 JUMP JUMPDEST PUSH1 0x40 MLOAD DUP1 SWAP2 SUB SWAP1 RETURN JUMPDEST CALLVALUE DUP1 ISZERO PUSH2 0x1AE JUMPI PUSH1 0x0 DUP1 REVERT JUMPDEST POP PUSH2 0x1B7 PUSH2 0x5DC JUMP JUMPDEST PUSH1 0x40 MLOAD PUSH2 0x1C4 SWAP2 SWAP1 PUSH2 0x28DC JUMP JUMPDEST PUSH1 0x40 MLOAD DUP1 SWAP2 SUB SWAP1 RETURN JUMPDEST CALLVALUE DUP1 ISZERO PUSH2 0x1D9 JUMPI PUSH1 0x0 DUP1 REVERT JUMPDEST POP PUSH2 0x1F4 PUSH1 0x4 DUP1 CALLDATASIZE SUB DUP2 ADD SWAP1 PUSH2 0x1EF SWAP2 SWAP1 PUSH2 0x20C3 JUMP JUMPDEST PUSH2 0x5E6 JUMP JUMPDEST PUSH1 0x40 MLOAD PUSH2 0x201 SWAP2 SWAP1 PUSH2 0x25C9 JUMP JUMPDEST PUSH1 0x40 MLOAD DUP1 SWAP2 SUB SWAP1 RETURN JUMPDEST CALLVALUE DUP1 ISZERO PUSH2 0x216 JUMPI PUSH1 0x0 DUP1 REVERT JUMPDEST POP PUSH2 0x21F PUSH2 0x615 JUMP JUMPDEST PUSH1 0x40 MLOAD PUSH2 0x22C SWAP2 SWAP1 PUSH2 0x28F7 JUMP JUMPDEST PUSH1 0x40 MLOAD DUP1 SWAP2 SUB SWAP1 RETURN JUMPDEST CALLVALUE DUP1 ISZERO PUSH2 0x241 JUMPI PUSH1 0x0 DUP1 REVERT JUMPDEST POP PUSH2 0x25C PUSH1 0x4 DUP1 CALLDATASIZE SUB DUP2 ADD SWAP1 PUSH2 0x257 SWAP2 SWAP1 PUSH2 0x205E JUMP JUMPDEST PUSH2 0x61E JUMP JUMPDEST STOP JUMPDEST CALLVALUE DUP1 ISZERO PUSH2 0x26A JUMPI PUSH1 0x0 DUP1 REVERT JUMPDEST POP PUSH2 0x285 PUSH1 0x4 DUP1 CALLDATASIZE SUB DUP2 ADD SWAP1 PUSH2 0x280 SWAP2 SWAP1 PUSH2 0x2166 JUMP JUMPDEST PUSH2 0x7CD JUMP JUMPDEST PUSH1 0x40 MLOAD PUSH2 0x292 SWAP2 SWAP1 PUSH2 0x25C9 JUMP JUMPDEST PUSH1 0x40 MLOAD DUP1 SWAP2 SUB SWAP1 RETURN JUMPDEST CALLVALUE DUP1 ISZERO PUSH2 0x2A7 JUMPI PUSH1 0x0 DUP1 REVERT JUMPDEST POP PUSH2 0x2C2 PUSH1 0x4 DUP1 CALLDATASIZE SUB DUP2 ADD SWAP1 PUSH2 0x2BD SWAP2 SWAP1 PUSH2 0x2166 JUMP JUMPDEST PUSH2 0x804 JUMP JUMPDEST STOP JUMPDEST CALLVALUE DUP1 ISZERO PUSH2 0x2D0 JUMPI PUSH1 0x0 DUP1 REVERT JUMPDEST POP PUSH2 0x2EB PUSH1 0x4 DUP1 CALLDATASIZE SUB DUP2 ADD SWAP1 PUSH2 0x2E6 SWAP2 SWAP1 PUSH2 0x21CB JUMP JUMPDEST PUSH2 0x81A JUMP JUMPDEST STOP JUMPDEST PUSH2 0x307 PUSH1 0x4 DUP1 CALLDATASIZE SUB DUP2 ADD SWAP1 PUSH2 0x302 SWAP2 SWAP1 PUSH2 0x2112 JUMP JUMPDEST PUSH2 0x82E JUMP JUMPDEST STOP JUMPDEST CALLVALUE DUP1 ISZERO PUSH2 0x315 JUMPI PUSH1 0x0 DUP1 REVERT JUMPDEST POP PUSH2 0x31E PUSH2 0x96B JUMP JUMPDEST PUSH1 0x40 MLOAD PUSH2 0x32B SWAP2 SWAP1 PUSH2 0x25E4 JUMP JUMPDEST PUSH1 0x40 MLOAD DUP1 SWAP2 SUB SWAP1 RETURN JUMPDEST CALLVALUE DUP1 ISZERO PUSH2 0x340 JUMPI PUSH1 0x0 DUP1 REVERT JUMPDEST POP PUSH2 0x35B PUSH1 0x4 DUP1 CALLDATASIZE SUB DUP2 ADD SWAP1 PUSH2 0x356 SWAP2 SWAP1 PUSH2 0x205E JUMP JUMPDEST PUSH2 0xA24 JUMP JUMPDEST PUSH1 0x40 MLOAD PUSH2 0x368 SWAP2 SWAP1 PUSH2 0x28DC JUMP JUMPDEST PUSH1 0x40 MLOAD DUP1 SWAP2 SUB SWAP1 RETURN JUMPDEST CALLVALUE DUP1 ISZERO PUSH2 0x37D JUMPI PUSH1 0x0 DUP1 REVERT JUMPDEST POP PUSH2 0x386 PUSH2 0xA6D JUMP JUMPDEST STOP JUMPDEST CALLVALUE DUP1 ISZERO PUSH2 0x394 JUMPI PUSH1 0x0 DUP1 REVERT JUMPDEST POP PUSH2 0x3AF PUSH1 0x4 DUP1 CALLDATASIZE SUB DUP2 ADD SWAP1 PUSH2 0x3AA SWAP2 SWAP1 PUSH2 0x2166 JUMP JUMPDEST PUSH2 0xA81 JUMP JUMPDEST STOP JUMPDEST CALLVALUE DUP1 ISZERO PUSH2 0x3BD JUMPI PUSH1 0x0 DUP1 REVERT JUMPDEST POP PUSH2 0x3C6 PUSH2 0xAA1 JUMP JUMPDEST STOP JUMPDEST CALLVALUE DUP1 ISZERO PUSH2 0x3D4 JUMPI PUSH1 0x0 DUP1 REVERT JUMPDEST POP PUSH2 0x3DD PUSH2 0xC63 JUMP JUMPDEST PUSH1 0x40 MLOAD PUSH2 0x3EA SWAP2 SWAP1 PUSH2 0x25AE JUMP JUMPDEST PUSH1 0x40 MLOAD DUP1 SWAP2 SUB SWAP1 RETURN JUMPDEST CALLVALUE DUP1 ISZERO PUSH2 0x3FF JUMPI PUSH1 0x0 DUP1 REVERT JUMPDEST POP PUSH2 0x408 PUSH2 0xC8D JUMP JUMPDEST PUSH1 0x40 MLOAD PUSH2 0x415 SWAP2 SWAP1 PUSH2 0x261A JUMP JUMPDEST PUSH1 0x40 MLOAD DUP1 SWAP2 SUB SWAP1 RETURN JUMPDEST CALLVALUE DUP1 ISZERO PUSH2 0x42A JUMPI PUSH1 0x0 DUP1 REVERT JUMPDEST POP PUSH2 0x445 PUSH1 0x4 DUP1 CALLDATASIZE SUB DUP2 ADD SWAP1 PUSH2 0x440 SWAP2 SWAP1 PUSH2 0x2166 JUMP JUMPDEST PUSH2 0xD1F JUMP JUMPDEST PUSH1 0x40 MLOAD PUSH2 0x452 SWAP2 SWAP1 PUSH2 0x25C9 JUMP JUMPDEST PUSH1 0x40 MLOAD DUP1 SWAP2 SUB SWAP1 RETURN JUMPDEST CALLVALUE DUP1 ISZERO PUSH2 0x467 JUMPI PUSH1 0x0 DUP1 REVERT JUMPDEST POP PUSH2 0x482 PUSH1 0x4 DUP1 CALLDATASIZE SUB DUP2 ADD SWAP1 PUSH2 0x47D SWAP2 SWAP1 PUSH2 0x2166 JUMP JUMPDEST PUSH2 0xD96 JUMP JUMPDEST PUSH1 0x40 MLOAD PUSH2 0x48F SWAP2 SWAP1 PUSH2 0x25C9 JUMP JUMPDEST PUSH1 0x40 MLOAD DUP1 SWAP2 SUB SWAP1 RETURN JUMPDEST CALLVALUE DUP1 ISZERO PUSH2 0x4A4 JUMPI PUSH1 0x0 DUP1 REVERT JUMPDEST POP PUSH2 0x4BF PUSH1 0x4 DUP1 CALLDATASIZE SUB DUP2 ADD SWAP1 PUSH2 0x4BA SWAP2 SWAP1 PUSH2 0x2166 JUMP JUMPDEST PUSH2 0xDB9 JUMP JUMPDEST STOP JUMPDEST CALLVALUE DUP1 ISZERO PUSH2 0x4CD JUMPI PUSH1 0x0 DUP1 REVERT JUMPDEST POP PUSH2 0x4E8 PUSH1 0x4 DUP1 CALLDATASIZE SUB DUP2 ADD SWAP1 PUSH2 0x4E3 SWAP2 SWAP1 PUSH2 0x2087 JUMP JUMPDEST PUSH2 0xDCF JUMP JUMPDEST PUSH1 0x40 MLOAD PUSH2 0x4F5 SWAP2 SWAP1 PUSH2 0x28DC JUMP JUMPDEST PUSH1 0x40 MLOAD DUP1 SWAP2 SUB SWAP1 RETURN JUMPDEST CALLVALUE DUP1 ISZERO PUSH2 0x50A JUMPI PUSH1 0x0 DUP1 REVERT JUMPDEST POP PUSH2 0x525 PUSH1 0x4 DUP1 CALLDATASIZE SUB DUP2 ADD SWAP1 PUSH2 0x520 SWAP2 SWAP1 PUSH2 0x205E JUMP JUMPDEST PUSH2 0xE56 JUMP JUMPDEST STOP JUMPDEST PUSH1 0x60 PUSH1 0x36 DUP1 SLOAD PUSH2 0x536 SWAP1 PUSH2 0x2AD7 JUMP JUMPDEST DUP1 PUSH1 0x1F ADD PUSH1 0x20 DUP1 SWAP2 DIV MUL PUSH1 0x20 ADD PUSH1 0x40 MLOAD SWAP1 DUP2 ADD PUSH1 0x40 MSTORE DUP1 SWAP3 SWAP2 SWAP1 DUP2 DUP2 MSTORE PUSH1 0x20 ADD DUP3 DUP1 SLOAD PUSH2 0x562 SWAP1 PUSH2 0x2AD7 JUMP JUMPDEST DUP1 ISZERO PUSH2 0x5AF JUMPI DUP1 PUSH1 0x1F LT PUSH2 0x584 JUMPI PUSH2 0x100 DUP1 DUP4 SLOAD DIV MUL DUP4 MSTORE SWAP2 PUSH1 0x20 ADD SWAP2 PUSH2 0x5AF JUMP JUMPDEST DUP3 ADD SWAP2 SWAP1 PUSH1 0x0 MSTORE PUSH1 0x20 PUSH1 0x0 KECCAK256 SWAP1 JUMPDEST DUP2 SLOAD DUP2 MSTORE SWAP1 PUSH1 0x1 ADD SWAP1 PUSH1 0x20 ADD DUP1 DUP4 GT PUSH2 0x592 JUMPI DUP3 SWAP1 SUB PUSH1 0x1F AND DUP3 ADD SWAP2 JUMPDEST POP POP POP POP POP SWAP1 POP SWAP1 JUMP JUMPDEST PUSH1 0x0 DUP1 PUSH2 0x5C4 PUSH2 0xEDA JUMP JUMPDEST SWAP1 POP PUSH2 0x5D1 DUP2 DUP6 DUP6 PUSH2 0xEE2 JUMP JUMPDEST PUSH1 0x1 SWAP2 POP POP SWAP3 SWAP2 POP POP JUMP JUMPDEST PUSH1 0x0 PUSH1 0x35 SLOAD SWAP1 POP SWAP1 JUMP JUMPDEST PUSH1 0x0 DUP1 PUSH2 0x5F1 PUSH2 0xEDA JUMP JUMPDEST SWAP1 POP PUSH2 0x5FE DUP6 DUP3 DUP6 PUSH2 0x10AD JUMP JUMPDEST PUSH2 0x609 DUP6 DUP6 DUP6 PUSH2 0x1139 JUMP JUMPDEST PUSH1 0x1 SWAP2 POP POP SWAP4 SWAP3 POP POP POP JUMP JUMPDEST PUSH1 0x0 PUSH1 0x12 SWAP1 POP SWAP1 JUMP JUMPDEST PUSH32 0x0 PUSH20 0xFFFFFFFFFFFFFFFFFFFFFFFFFFFFFFFFFFFFFFFF AND ADDRESS PUSH20 0xFFFFFFFFFFFFFFFFFFFFFFFFFFFFFFFFFFFFFFFF AND EQ ISZERO PUSH2 0x6AD JUMPI PUSH1 0x40 MLOAD PUSH32 0x8C379A000000000000000000000000000000000000000000000000000000000 DUP2 MSTORE PUSH1 0x4 ADD PUSH2 0x6A4 SWAP1 PUSH2 0x26BC JUMP JUMPDEST PUSH1 0x40 MLOAD DUP1 SWAP2 SUB SWAP1 REVERT JUMPDEST PUSH32 0x0 PUSH20 0xFFFFFFFFFFFFFFFFFFFFFFFFFFFFFFFFFFFFFFFF AND PUSH2 0x6EC PUSH2 0x13BD JUMP JUMPDEST PUSH20 0xFFFFFFFFFFFFFFFFFFFFFFFFFFFFFFFFFFFFFFFF AND EQ PUSH2 0x742 JUMPI PUSH1 0x40 MLOAD PUSH32 0x8C379A000000000000000000000000000000000000000000000000000000000 DUP2 MSTORE PUSH1 0x4 ADD PUSH2 0x739 SWAP1 PUSH2 0x271C JUMP JUMPDEST PUSH1 0x40 MLOAD DUP1 SWAP2 SUB SWAP1 REVERT JUMPDEST PUSH2 0x74B DUP2 PUSH2 0x1414 JUMP JUMPDEST PUSH2 0x7CA DUP2 PUSH1 0x0 PUSH8 0xFFFFFFFFFFFFFFFF DUP2 GT ISZERO PUSH2 0x790 JUMPI PUSH32 0x4E487B7100000000000000000000000000000000000000000000000000000000 PUSH1 0x0 MSTORE PUSH1 0x41 PUSH1 0x4 MSTORE PUSH1 0x24 PUSH1 0x0 REVERT JUMPDEST PUSH1 0x40 MLOAD SWAP1 DUP1 DUP3 MSTORE DUP1 PUSH1 0x1F ADD PUSH1 0x1F NOT AND PUSH1 0x20 ADD DUP3 ADD PUSH1 0x40 MSTORE DUP1 ISZERO PUSH2 0x7C2 JUMPI DUP2 PUSH1 0x20 ADD PUSH1 0x1 DUP3 MUL DUP1 CALLDATASIZE DUP4 CALLDATACOPY DUP1 DUP3 ADD SWAP2 POP POP SWAP1 POP JUMPDEST POP PUSH1 0x0 PUSH2 0x141F JUMP JUMPDEST POP JUMP JUMPDEST PUSH1 0x0 DUP1 PUSH2 0x7D8 PUSH2 0xEDA JUMP JUMPDEST SWAP1 POP PUSH2 0x7F9 DUP2 DUP6 DUP6 PUSH2 0x7EA DUP6 DUP10 PUSH2 0xDCF JUMP JUMPDEST PUSH2 0x7F4 SWAP2 SWAP1 PUSH2 0x299A JUMP JUMPDEST PUSH2 0xEE2 JUMP JUMPDEST PUSH1 0x1 SWAP2 POP POP SWAP3 SWAP2 POP POP JUMP JUMPDEST PUSH2 0x80C PUSH2 0x159C JUMP JUMPDEST PUSH2 0x816 DUP3 DUP3 PUSH2 0x161A JUMP JUMPDEST POP POP JUMP JUMPDEST PUSH2 0x82B PUSH2 0x825 PUSH2 0xEDA JUMP JUMPDEST DUP3 PUSH2 0x177B JUMP JUMPDEST POP JUMP JUMPDEST PUSH32 0x0 PUSH20 0xFFFFFFFFFFFFFFFFFFFFFFFFFFFFFFFFFFFFFFFF AND ADDRESS PUSH20 0xFFFFFFFFFFFFFFFFFFFFFFFFFFFFFFFFFFFFFFFF AND EQ ISZERO PUSH2 0x8BD JUMPI PUSH1 0x40 MLOAD PUSH32 0x8C379A000000000000000000000000000000000000000000000000000000000 DUP2 MSTORE PUSH1 0x4 ADD PUSH2 0x8B4 SWAP1 PUSH2 0x26BC JUMP JUMPDEST PUSH1 0x40 MLOAD DUP1 SWAP2 SUB SWAP1 REVERT JUMPDEST PUSH32 0x0 PUSH20 0xFFFFFFFFFFFFFFFFFFFFFFFFFFFFFFFFFFFFFFFF AND PUSH2 0x8FC PUSH2 0x13BD JUMP JUMPDEST PUSH20 0xFFFFFFFFFFFFFFFFFFFFFFFFFFFFFFFFFFFFFFFF AND EQ PUSH2 0x952 JUMPI PUSH1 0x40 MLOAD PUSH32 0x8C379A000000000000000000000000000000000000000000000000000000000 DUP2 MSTORE PUSH1 0x4 ADD PUSH2 0x949 SWAP1 PUSH2 0x271C JUMP JUMPDEST PUSH1 0x40 MLOAD DUP1 SWAP2 SUB SWAP1 REVERT JUMPDEST PUSH2 0x95B DUP3 PUSH2 0x1414 JUMP JUMPDEST PUSH2 0x967 DUP3 DUP3 PUSH1 0x1 PUSH2 0x141F JUMP JUMPDEST POP POP JUMP JUMPDEST PUSH1 0x0 PUSH32 0x0 PUSH20 0xFFFFFFFFFFFFFFFFFFFFFFFFFFFFFFFFFFFFFFFF AND ADDRESS PUSH20 0xFFFFFFFFFFFFFFFFFFFFFFFFFFFFFFFFFFFFFFFF AND EQ PUSH2 0x9FB JUMPI PUSH1 0x40 MLOAD PUSH32 0x8C379A000000000000000000000000000000000000000000000000000000000 DUP2 MSTORE PUSH1 0x4 ADD PUSH2 0x9F2 SWAP1 PUSH2 0x273C JUMP JUMPDEST PUSH1 0x40 MLOAD DUP1 SWAP2 SUB SWAP1 REVERT JUMPDEST PUSH32 0x360894A13BA1A3210667C828492DB98DCA3E2076CC3735A920A3CA505D382BBC PUSH1 0x0 SHL SWAP1 POP SWAP1 JUMP JUMPDEST PUSH1 0x0 PUSH1 0x33 PUSH1 0x0 DUP4 PUSH20 0xFFFFFFFFFFFFFFFFFFFFFFFFFFFFFFFFFFFFFFFF AND PUSH20 0xFFFFFFFFFFFFFFFFFFFFFFFFFFFFFFFFFFFFFFFF AND DUP2 MSTORE PUSH1 0x20 ADD SWAP1 DUP2 MSTORE PUSH1 0x20 ADD PUSH1 0x0 KECCAK256 SLOAD SWAP1 POP SWAP2 SWAP1 POP JUMP JUMPDEST PUSH2 0xA75 PUSH2 0x159C JUMP JUMPDEST PUSH2 0xA7F PUSH1 0x0 PUSH2 0x1954 JUMP JUMPDEST JUMP JUMPDEST PUSH2 0xA93 DUP3 PUSH2 0xA8D PUSH2 0xEDA JUMP JUMPDEST DUP4 PUSH2 0x10AD JUMP JUMPDEST PUSH2 0xA9D DUP3 DUP3 PUSH2 0x177B JUMP JUMPDEST POP POP JUMP JUMPDEST PUSH1 0x0 DUP1 PUSH1 0x1 SWAP1 SLOAD SWAP1 PUSH2 0x100 EXP SWAP1 DIV PUSH1 0xFF AND ISZERO SWAP1 POP DUP1 DUP1 ISZERO PUSH2 0xAD2 JUMPI POP PUSH1 0x1 PUSH1 0x0 DUP1 SLOAD SWAP1 PUSH2 0x100 EXP SWAP1 DIV PUSH1 0xFF AND PUSH1 0xFF AND LT JUMPDEST DUP1 PUSH2 0xAFF JUMPI POP PUSH2 0xAE1 ADDRESS PUSH2 0x1A1A JUMP JUMPDEST ISZERO DUP1 ISZERO PUSH2 0xAFE JUMPI POP PUSH1 0x1 PUSH1 0x0 DUP1 SLOAD SWAP1 PUSH2 0x100 EXP SWAP1 DIV PUSH1 0xFF AND PUSH1 0xFF AND EQ JUMPDEST JUMPDEST PUSH2 0xB3E JUMPI PUSH1 0x40 MLOAD PUSH32 0x8C379A000000000000000000000000000000000000000000000000000000000 DUP2 MSTORE PUSH1 0x4 ADD PUSH2 0xB35 SWAP1 PUSH2 0x277C JUMP JUMPDEST PUSH1 0x40 MLOAD DUP1 SWAP2 SUB SWAP1 REVERT JUMPDEST PUSH1 0x1 PUSH1 0x0 DUP1 PUSH2 0x100 EXP DUP2 SLOAD DUP2 PUSH1 0xFF MUL NOT AND SWAP1 DUP4 PUSH1 0xFF AND MUL OR SWAP1 SSTORE POP DUP1 ISZERO PUSH2 0xB7B JUMPI PUSH1 0x1 PUSH1 0x0 PUSH1 0x1 PUSH2 0x100 EXP DUP2 SLOAD DUP2 PUSH1 0xFF MUL NOT AND SWAP1 DUP4 ISZERO ISZERO MUL OR SWAP1 SSTORE POP JUMPDEST PUSH2 0xBEF PUSH1 0x40 MLOAD DUP1 PUSH1 0x40 ADD PUSH1 0x40 MSTORE DUP1 PUSH1 0x7 DUP2 MSTORE PUSH1 0x20 ADD PUSH32 0x4D79546F6B656E00000000000000000000000000000000000000000000000000 DUP2 MSTORE POP PUSH1 0x40 MLOAD DUP1 PUSH1 0x40 ADD PUSH1 0x40 MSTORE DUP1 PUSH1 0x3 DUP2 MSTORE PUSH1 0x20 ADD PUSH32 0x4D544B0000000000000000000000000000000000000000000000000000000000 DUP2 MSTORE POP PUSH2 0x1A3D JUMP JUMPDEST PUSH2 0xBF7 PUSH2 0x1A9A JUMP JUMPDEST PUSH2 0xBFF PUSH2 0x1AEB JUMP JUMPDEST PUSH2 0xC07 PUSH2 0x1B44 JUMP JUMPDEST DUP1 ISZERO PUSH2 0xC60 JUMPI PUSH1 0x0 DUP1 PUSH1 0x1 PUSH2 0x100 EXP DUP2 SLOAD DUP2 PUSH1 0xFF MUL NOT AND SWAP1 DUP4 ISZERO ISZERO MUL OR SWAP1 SSTORE POP PUSH32 0x7F26B83FF96E1F2B6A682F133852F6798A09C465DA95921460CEFB3847402498 PUSH1 0x1 PUSH1 0x40 MLOAD PUSH2 0xC57 SWAP2 SWAP1 PUSH2 0x25FF JUMP JUMPDEST PUSH1 0x40 MLOAD DUP1 SWAP2 SUB SWAP1 LOG1 JUMPDEST POP JUMP JUMPDEST PUSH1 0x0 PUSH1 0x97 PUSH1 0x0 SWAP1 SLOAD SWAP1 PUSH2 0x100 EXP SWAP1 DIV PUSH20 0xFFFFFFFFFFFFFFFFFFFFFFFFFFFFFFFFFFFFFFFF AND SWAP1 POP SWAP1 JUMP JUMPDEST PUSH1 0x60 PUSH1 0x37 DUP1 SLOAD PUSH2 0xC9C SWAP1 PUSH2 0x2AD7 JUMP JUMPDEST DUP1 PUSH1 0x1F ADD PUSH1 0x20 DUP1 SWAP2 DIV MUL PUSH1 0x20 ADD PUSH1 0x40 MLOAD SWAP1 DUP2 ADD PUSH1 0x40 MSTORE DUP1 SWAP3 SWAP2 SWAP1 DUP2 DUP2 MSTORE PUSH1 0x20 ADD DUP3 DUP1 SLOAD PUSH2 0xCC8 SWAP1 PUSH2 0x2AD7 JUMP JUMPDEST DUP1 ISZERO PUSH2 0xD15 JUMPI DUP1 PUSH1 0x1F LT PUSH2 0xCEA JUMPI PUSH2 0x100 DUP1 DUP4 SLOAD DIV MUL DUP4 MSTORE SWAP2 PUSH1 0x20 ADD SWAP2 PUSH2 0xD15 JUMP JUMPDEST DUP3 ADD SWAP2 SWAP1 PUSH1 0x0 MSTORE PUSH1 0x20 PUSH1 0x0 KECCAK256 SWAP1 JUMPDEST DUP2 SLOAD DUP2 MSTORE SWAP1 PUSH1 0x1 ADD SWAP1 PUSH1 0x20 ADD DUP1 DUP4 GT PUSH2 0xCF8 JUMPI DUP3 SWAP1 SUB PUSH1 0x1F AND DUP3 ADD SWAP2 JUMPDEST POP POP POP POP POP SWAP1 POP SWAP1 JUMP JUMPDEST PUSH1 0x0 DUP1 PUSH2 0xD2A PUSH2 0xEDA JUMP JUMPDEST SWAP1 POP PUSH1 0x0 PUSH2 0xD38 DUP3 DUP7 PUSH2 0xDCF JUMP JUMPDEST SWAP1 POP DUP4 DUP2 LT ISZERO PUSH2 0xD7D JUMPI PUSH1 0x40 MLOAD PUSH32 0x8C379A000000000000000000000000000000000000000000000000000000000 DUP2 MSTORE PUSH1 0x4 ADD PUSH2 0xD74 SWAP1 PUSH2 0x289C JUMP JUMPDEST PUSH1 0x40 MLOAD DUP1 SWAP2 SUB SWAP1 REVERT JUMPDEST PUSH2 0xD8A DUP3 DUP7 DUP7 DUP5 SUB PUSH2 0xEE2 JUMP JUMPDEST PUSH1 0x1 SWAP3 POP POP POP SWAP3 SWAP2 POP POP JUMP JUMPDEST PUSH1 0x0 DUP1 PUSH2 0xDA1 PUSH2 0xEDA JUMP JUMPDEST SWAP1 POP PUSH2 0xDAE DUP2 DUP6 DUP6 PUSH2 0x1139 JUMP JUMPDEST PUSH1 0x1 SWAP2 POP POP SWAP3 SWAP2 POP POP JUMP JUMPDEST PUSH2 0xDC1 PUSH2 0x159C JUMP JUMPDEST PUSH2 0xDCB DUP3 DUP3 PUSH2 0x161A JUMP JUMPDEST POP POP JUMP JUMPDEST PUSH1 0x0 PUSH1 0x34 PUSH1 0x0 DUP5 PUSH20 0xFFFFFFFFFFFFFFFFFFFFFFFFFFFFFFFFFFFFFFFF AND PUSH20 0xFFFFFFFFFFFFFFFFFFFFFFFFFFFFFFFFFFFFFFFF AND DUP2 MSTORE PUSH1 0x20 ADD SWAP1 DUP2 MSTORE PUSH1 0x20 ADD PUSH1 0x0 KECCAK256 PUSH1 0x0 DUP4 PUSH20 0xFFFFFFFFFFFFFFFFFFFFFFFFFFFFFFFFFFFFFFFF AND PUSH20 0xFFFFFFFFFFFFFFFFFFFFFFFFFFFFFFFFFFFFFFFF AND DUP2 MSTORE PUSH1 0x20 ADD SWAP1 DUP2 MSTORE PUSH1 0x20 ADD PUSH1 0x0 KECCAK256 SLOAD SWAP1 POP SWAP3 SWAP2 POP POP JUMP JUMPDEST PUSH2 0xE5E PUSH2 0x159C JUMP JUMPDEST PUSH1 0x0 PUSH20 0xFFFFFFFFFFFFFFFFFFFFFFFFFFFFFFFFFFFFFFFF AND DUP2 PUSH20 0xFFFFFFFFFFFFFFFFFFFFFFFFFFFFFFFFFFFFFFFF AND EQ ISZERO PUSH2 0xECE JUMPI PUSH1 0x40 MLOAD PUSH32 0x8C379A000000000000000000000000000000000000000000000000000000000 DUP2 MSTORE PUSH1 0x4 ADD PUSH2 0xEC5 SWAP1 PUSH2 0x267C JUMP JUMPDEST PUSH1 0x40 MLOAD DUP1 SWAP2 SUB SWAP1 REVERT JUMPDEST PUSH2 0xED7 DUP2 PUSH2 0x1954 JUMP JUMPDEST POP JUMP JUMPDEST PUSH1 0x0 CALLER SWAP1 POP SWAP1 JUMP JUMPDEST PUSH1 0x0 PUSH20 0xFFFFFFFFFFFFFFFFFFFFFFFFFFFFFFFFFFFFFFFF AND DUP4 PUSH20 0xFFFFFFFFFFFFFFFFFFFFFFFFFFFFFFFFFFFFFFFF AND EQ ISZERO PUSH2 0xF52 JUMPI PUSH1 0x40 MLOAD PUSH32 0x8C379A000000000000000000000000000000000000000000000000000000000 DUP2 MSTORE PUSH1 0x4 ADD PUSH2 0xF49 SWAP1 PUSH2 0x285C JUMP JUMPDEST PUSH1 0x40 MLOAD DUP1 SWAP2 SUB SWAP1 REVERT JUMPDEST PUSH1 0x0 PUSH20 0xFFFFFFFFFFFFFFFFFFFFFFFFFFFFFFFFFFFFFFFF AND DUP3 PUSH20 0xFFFFFFFFFFFFFFFFFFFFFFFFFFFFFFFFFFFFFFFF AND EQ ISZERO PUSH2 0xFC2 JUMPI PUSH1 0x40 MLOAD PUSH32 0x8C379A000000000000000000000000000000000000000000000000000000000 DUP2 MSTORE PUSH1 0x4 ADD PUSH2 0xFB9 SWAP1 PUSH2 0x269C JUMP JUMPDEST PUSH1 0x40 MLOAD DUP1 SWAP2 SUB SWAP1 REVERT JUMPDEST DUP1 PUSH1 0x34 PUSH1 0x0 DUP6 PUSH20 0xFFFFFFFFFFFFFFFFFFFFFFFFFFFFFFFFFFFFFFFF AND PUSH20 0xFFFFFFFFFFFFFFFFFFFFFFFFFFFFFFFFFFFFFFFF AND DUP2 MSTORE PUSH1 0x20 ADD SWAP1 DUP2 MSTORE PUSH1 0x20 ADD PUSH1 0x0 KECCAK256 PUSH1 0x0 DUP5 PUSH20 0xFFFFFFFFFFFFFFFFFFFFFFFFFFFFFFFFFFFFFFFF AND PUSH20 0xFFFFFFFFFFFFFFFFFFFFFFFFFFFFFFFFFFFFFFFF AND DUP2 MSTORE PUSH1 0x20 ADD SWAP1 DUP2 MSTORE PUSH1 0x20 ADD PUSH1 0x0 KECCAK256 DUP2 SWAP1 SSTORE POP DUP2 PUSH20 0xFFFFFFFFFFFFFFFFFFFFFFFFFFFFFFFFFFFFFFFF AND DUP4 PUSH20 0xFFFFFFFFFFFFFFFFFFFFFFFFFFFFFFFFFFFFFFFF AND PUSH32 0x8C5BE1E5EBEC7D5BD14F71427D1E84F3DD0314C0F7B2291E5B200AC8C7C3B925 DUP4 PUSH1 0x40 MLOAD PUSH2 0x10A0 SWAP2 SWAP1 PUSH2 0x28DC JUMP JUMPDEST PUSH1 0x40 MLOAD DUP1 SWAP2 SUB SWAP1 LOG3 POP POP POP JUMP JUMPDEST PUSH1 0x0 PUSH2 0x10B9 DUP5 DUP5 PUSH2 0xDCF JUMP JUMPDEST SWAP1 POP PUSH32 0xFFFFFFFFFFFFFFFFFFFFFFFFFFFFFFFFFFFFFFFFFFFFFFFFFFFFFFFFFFFFFFFF DUP2 EQ PUSH2 0x1133 JUMPI DUP2 DUP2 LT ISZERO PUSH2 0x1125 JUMPI PUSH1 0x40 MLOAD PUSH32 0x8C379A000000000000000000000000000000000000000000000000000000000 DUP2 MSTORE PUSH1 0x4 ADD PUSH2 0x111C SWAP1 PUSH2 0x26DC JUMP JUMPDEST PUSH1 0x40 MLOAD DUP1 SWAP2 SUB SWAP1 REVERT JUMPDEST PUSH2 0x1132 DUP5 DUP5 DUP5 DUP5 SUB PUSH2 0xEE2 JUMP JUMPDEST JUMPDEST POP POP POP POP JUMP JUMPDEST PUSH1 0x0 PUSH20 0xFFFFFFFFFFFFFFFFFFFFFFFFFFFFFFFFFFFFFFFF AND DUP4 PUSH20 0xFFFFFFFFFFFFFFFFFFFFFFFFFFFFFFFFFFFFFFFF AND EQ ISZERO PUSH2 0x11A9 JUMPI PUSH1 0x40 MLOAD PUSH32 0x8C379A000000000000000000000000000000000000000000000000000000000 DUP2 MSTORE PUSH1 0x4 ADD PUSH2 0x11A0 SWAP1 PUSH2 0x283C JUMP JUMPDEST PUSH1 0x40 MLOAD DUP1 SWAP2 SUB SWAP1 REVERT JUMPDEST PUSH1 0x0 PUSH20 0xFFFFFFFFFFFFFFFFFFFFFFFFFFFFFFFFFFFFFFFF AND DUP3 PUSH20 0xFFFFFFFFFFFFFFFFFFFFFFFFFFFFFFFFFFFFFFFF AND EQ ISZERO PUSH2 0x1219 JUMPI PUSH1 0x40 MLOAD PUSH32 0x8C379A000000000000000000000000000000000000000000000000000000000 DUP2 MSTORE PUSH1 0x4 ADD PUSH2 0x1210 SWAP1 PUSH2 0x263C JUMP JUMPDEST PUSH1 0x40 MLOAD DUP1 SWAP2 SUB SWAP1 REVERT JUMPDEST PUSH2 0x1224 DUP4 DUP4 DUP4 PUSH2 0x1B95 JUMP JUMPDEST PUSH1 0x0 PUSH1 0x33 PUSH1 0x0 DUP6 PUSH20 0xFFFFFFFFFFFFFFFFFFFFFFFFFFFFFFFFFFFFFFFF AND PUSH20 0xFFFFFFFFFFFFFFFFFFFFFFFFFFFFFFFFFFFFFFFF AND DUP2 MSTORE PUSH1 0x20 ADD SWAP1 DUP2 MSTORE PUSH1 0x20 ADD PUSH1 0x0 KECCAK256 SLOAD SWAP1 POP DUP2 DUP2 LT ISZERO PUSH2 0x12AB JUMPI PUSH1 0x40 MLOAD PUSH32 0x8C379A000000000000000000000000000000000000000000000000000000000 DUP2 MSTORE PUSH1 0x4 ADD PUSH2 0x12A2 SWAP1 PUSH2 0x26FC JUMP JUMPDEST PUSH1 0x40 MLOAD DUP1 SWAP2 SUB SWAP1 REVERT JUMPDEST DUP2 DUP2 SUB PUSH1 0x33 PUSH1 0x0 DUP7 PUSH20 0xFFFFFFFFFFFFFFFFFFFFFFFFFFFFFFFFFFFFFFFF AND PUSH20 0xFFFFFFFFFFFFFFFFFFFFFFFFFFFFFFFFFFFFFFFF AND DUP2 MSTORE PUSH1 0x20 ADD SWAP1 DUP2 MSTORE PUSH1 0x20 ADD PUSH1 0x0 KECCAK256 DUP2 SWAP1 SSTORE POP DUP2 PUSH1 0x33 PUSH1 0x0 DUP6 PUSH20 0xFFFFFFFFFFFFFFFFFFFFFFFFFFFFFFFFFFFFFFFF AND PUSH20 0xFFFFFFFFFFFFFFFFFFFFFFFFFFFFFFFFFFFFFFFF AND DUP2 MSTORE PUSH1 0x20 ADD SWAP1 DUP2 MSTORE PUSH1 0x20 ADD PUSH1 0x0 KECCAK256 PUSH1 0x0 DUP3 DUP3 SLOAD PUSH2 0x1340 SWAP2 SWAP1 PUSH2 0x299A JUMP JUMPDEST SWAP3 POP POP DUP2 SWAP1 SSTORE POP DUP3 PUSH20 0xFFFFFFFFFFFFFFFFFFFFFFFFFFFFFFFFFFFFFFFF AND DUP5 PUSH20 0xFFFFFFFFFFFFFFFFFFFFFFFFFFFFFFFFFFFFFFFF AND PUSH32 0xDDF252AD1BE2C89B69C2B068FC378DAA952BA7F163C4A11628F55A4DF523B3EF DUP5 PUSH1 0x40 MLOAD PUSH2 0x13A4 SWAP2 SWAP1 PUSH2 0x28DC JUMP JUMPDEST PUSH1 0x40 MLOAD DUP1 SWAP2 SUB SWAP1 LOG3 PUSH2 0x13B7 DUP5 DUP5 DUP5 PUSH2 0x1B9A JUMP JUMPDEST POP POP POP POP JUMP JUMPDEST PUSH1 0x0 PUSH2 0x13EB PUSH32 0x360894A13BA1A3210667C828492DB98DCA3E2076CC3735A920A3CA505D382BBC PUSH1 0x0 SHL PUSH2 0x1B9F JUMP JUMPDEST PUSH1 0x0 ADD PUSH1 0x0 SWAP1 SLOAD SWAP1 PUSH2 0x100 EXP SWAP1 DIV PUSH20 0xFFFFFFFFFFFFFFFFFFFFFFFFFFFFFFFFFFFFFFFF AND SWAP1 POP SWAP1 JUMP JUMPDEST PUSH2 0x141C PUSH2 0x159C JUMP JUMPDEST POP JUMP JUMPDEST PUSH2 0x144B PUSH32 0x4910FDFA16FED3260ED0E7147F7CC6DA11A60208B5B9406D12A635614FFD9143 PUSH1 0x0 SHL PUSH2 0x1BA9 JUMP JUMPDEST PUSH1 0x0 ADD PUSH1 0x0 SWAP1 SLOAD SWAP1 PUSH2 0x100 EXP SWAP1 DIV PUSH1 0xFF AND ISZERO PUSH2 0x146F JUMPI PUSH2 0x146A DUP4 PUSH2 0x1BB3 JUMP JUMPDEST PUSH2 0x1597 JUMP JUMPDEST DUP3 PUSH20 0xFFFFFFFFFFFFFFFFFFFFFFFFFFFFFFFFFFFFFFFF AND PUSH4 0x52D1902D PUSH1 0x40 MLOAD DUP2 PUSH4 0xFFFFFFFF AND PUSH1 0xE0 SHL DUP2 MSTORE PUSH1 0x4 ADD PUSH1 0x20 PUSH1 0x40 MLOAD DUP1 DUP4 SUB DUP2 DUP7 DUP1 EXTCODESIZE ISZERO DUP1 ISZERO PUSH2 0x14B5 JUMPI PUSH1 0x0 DUP1 REVERT JUMPDEST POP GAS STATICCALL SWAP3 POP POP POP DUP1 ISZERO PUSH2 0x14E6 JUMPI POP PUSH1 0x40 MLOAD RETURNDATASIZE PUSH1 0x1F NOT PUSH1 0x1F DUP3 ADD AND DUP3 ADD DUP1 PUSH1 0x40 MSTORE POP DUP2 ADD SWAP1 PUSH2 0x14E3 SWAP2 SWAP1 PUSH2 0x21A2 JUMP JUMPDEST PUSH1 0x1 JUMPDEST PUSH2 0x1525 JUMPI PUSH1 0x40 MLOAD PUSH32 0x8C379A000000000000000000000000000000000000000000000000000000000 DUP2 MSTORE PUSH1 0x4 ADD PUSH2 0x151C SWAP1 PUSH2 0x279C JUMP JUMPDEST PUSH1 0x40 MLOAD DUP1 SWAP2 SUB SWAP1 REVERT JUMPDEST PUSH32 0x360894A13BA1A3210667C828492DB98DCA3E2076CC3735A920A3CA505D382BBC PUSH1 0x0 SHL DUP2 EQ PUSH2 0x158A JUMPI PUSH1 0x40 MLOAD PUSH32 0x8C379A000000000000000000000000000000000000000000000000000000000 DUP2 MSTORE PUSH1 0x4 ADD PUSH2 0x1581 SWAP1 PUSH2 0x275C JUMP JUMPDEST PUSH1 0x40 MLOAD DUP1 SWAP2 SUB SWAP1 REVERT JUMPDEST POP PUSH2 0x1596 DUP4 DUP4 DUP4 PUSH2 0x1C6C JUMP JUMPDEST JUMPDEST POP POP POP JUMP JUMPDEST PUSH2 0x15A4 PUSH2 0xEDA JUMP JUMPDEST PUSH20 0xFFFFFFFFFFFFFFFFFFFFFFFFFFFFFFFFFFFFFFFF AND PUSH2 0x15C2 PUSH2 0xC63 JUMP JUMPDEST PUSH20 0xFFFFFFFFFFFFFFFFFFFFFFFFFFFFFFFFFFFFFFFF AND EQ PUSH2 0x1618 JUMPI PUSH1 0x40 MLOAD PUSH32 0x8C379A000000000000000000000000000000000000000000000000000000000 DUP2 MSTORE PUSH1 0x4 ADD PUSH2 0x160F SWAP1 PUSH2 0x27DC JUMP JUMPDEST PUSH1 0x40 MLOAD DUP1 SWAP2 SUB SWAP1 REVERT JUMPDEST JUMP JUMPDEST PUSH1 0x0 PUSH20 0xFFFFFFFFFFFFFFFFFFFFFFFFFFFFFFFFFFFFFFFF AND DUP3 PUSH20 0xFFFFFFFFFFFFFFFFFFFFFFFFFFFFFFFFFFFFFFFF AND EQ ISZERO PUSH2 0x168A JUMPI PUSH1 0x40 MLOAD PUSH32 0x8C379A000000000000000000000000000000000000000000000000000000000 DUP2 MSTORE PUSH1 0x4 ADD PUSH2 0x1681 SWAP1 PUSH2 0x28BC JUMP JUMPDEST PUSH1 0x40 MLOAD DUP1 SWAP2 SUB SWAP1 REVERT JUMPDEST PUSH2 0x1696 PUSH1 0x0 DUP4 DUP4 PUSH2 0x1B95 JUMP JUMPDEST DUP1 PUSH1 0x35 PUSH1 0x0 DUP3 DUP3 SLOAD PUSH2 0x16A8 SWAP2 SWAP1 PUSH2 0x299A JUMP JUMPDEST SWAP3 POP POP DUP2 SWAP1 SSTORE POP DUP1 PUSH1 0x33 PUSH1 0x0 DUP5 PUSH20 0xFFFFFFFFFFFFFFFFFFFFFFFFFFFFFFFFFFFFFFFF AND PUSH20 0xFFFFFFFFFFFFFFFFFFFFFFFFFFFFFFFFFFFFFFFF AND DUP2 MSTORE PUSH1 0x20 ADD SWAP1 DUP2 MSTORE PUSH1 0x20 ADD PUSH1 0x0 KECCAK256 PUSH1 0x0 DUP3 DUP3 SLOAD PUSH2 0x16FE SWAP2 SWAP1 PUSH2 0x299A JUMP JUMPDEST SWAP3 POP POP DUP2 SWAP1 SSTORE POP DUP2 PUSH20 0xFFFFFFFFFFFFFFFFFFFFFFFFFFFFFFFFFFFFFFFF AND PUSH1 0x0 PUSH20 0xFFFFFFFFFFFFFFFFFFFFFFFFFFFFFFFFFFFFFFFF AND PUSH32 0xDDF252AD1BE2C89B69C2B068FC378DAA952BA7F163C4A11628F55A4DF523B3EF DUP4 PUSH1 0x40 MLOAD PUSH2 0x1763 SWAP2 SWAP1 PUSH2 0x28DC JUMP JUMPDEST PUSH1 0x40 MLOAD DUP1 SWAP2 SUB SWAP1 LOG3 PUSH2 0x1777 PUSH1 0x0 DUP4 DUP4 PUSH2 0x1B9A JUMP JUMPDEST POP POP JUMP JUMPDEST PUSH1 0x0 PUSH20 0xFFFFFFFFFFFFFFFFFFFFFFFFFFFFFFFFFFFFFFFF AND DUP3 PUSH20 0xFFFFFFFFFFFFFFFFFFFFFFFFFFFFFFFFFFFFFFFF AND EQ ISZERO PUSH2 0x17EB JUMPI PUSH1 0x40 MLOAD PUSH32 0x8C379A000000000000000000000000000000000000000000000000000000000 DUP2 MSTORE PUSH1 0x4 ADD PUSH2 0x17E2 SWAP1 PUSH2 0x27FC JUMP JUMPDEST PUSH1 0x40 MLOAD DUP1 SWAP2 SUB SWAP1 REVERT JUMPDEST PUSH2 0x17F7 DUP3 PUSH1 0x0 DUP4 PUSH2 0x1B95 JUMP JUMPDEST PUSH1 0x0 PUSH1 0x33 PUSH1 0x0 DUP5 PUSH20 0xFFFFFFFFFFFFFFFFFFFFFFFFFFFFFFFFFFFFFFFF AND PUSH20 0xFFFFFFFFFFFFFFFFFFFFFFFFFFFFFFFFFFFFFFFF AND DUP2 MSTORE PUSH1 0x20 ADD SWAP1 DUP2 MSTORE PUSH1 0x20 ADD PUSH1 0x0 KECCAK256 SLOAD SWAP1 POP DUP2 DUP2 LT ISZERO PUSH2 0x187E JUMPI PUSH1 0x40 MLOAD PUSH32 0x8C379A000000000000000000000000000000000000000000000000000000000 DUP2 MSTORE PUSH1 0x4 ADD PUSH2 0x1875 SWAP1 PUSH2 0x265C JUMP JUMPDEST PUSH1 0x40 MLOAD DUP1 SWAP2 SUB SWAP1 REVERT JUMPDEST DUP2 DUP2 SUB PUSH1 0x33 PUSH1 0x0 DUP6 PUSH20 0xFFFFFFFFFFFFFFFFFFFFFFFFFFFFFFFFFFFFFFFF AND PUSH20 0xFFFFFFFFFFFFFFFFFFFFFFFFFFFFFFFFFFFFFFFF AND DUP2 MSTORE PUSH1 0x20 ADD SWAP1 DUP2 MSTORE PUSH1 0x20 ADD PUSH1 0x0 KECCAK256 DUP2 SWAP1 SSTORE POP DUP2 PUSH1 0x35 PUSH1 0x0 DUP3 DUP3 SLOAD PUSH2 0x18D6 SWAP2 SWAP1 PUSH2 0x29F0 JUMP JUMPDEST SWAP3 POP POP DUP2 SWAP1 SSTORE POP PUSH1 0x0 PUSH20 0xFFFFFFFFFFFFFFFFFFFFFFFFFFFFFFFFFFFFFFFF AND DUP4 PUSH20 0xFFFFFFFFFFFFFFFFFFFFFFFFFFFFFFFFFFFFFFFF AND PUSH32 0xDDF252AD1BE2C89B69C2B068FC378DAA952BA7F163C4A11628F55A4DF523B3EF DUP5 PUSH1 0x40 MLOAD PUSH2 0x193B SWAP2 SWAP1 PUSH2 0x28DC JUMP JUMPDEST PUSH1 0x40 MLOAD DUP1 SWAP2 SUB SWAP1 LOG3 PUSH2 0x194F DUP4 PUSH1 0x0 DUP5 PUSH2 0x1B9A JUMP JUMPDEST POP POP POP JUMP JUMPDEST PUSH1 0x0 PUSH1 0x97 PUSH1 0x0 SWAP1 SLOAD SWAP1 PUSH2 0x100 EXP SWAP1 DIV PUSH20 0xFFFFFFFFFFFFFFFFFFFFFFFFFFFFFFFFFFFFFFFF AND SWAP1 POP DUP2 PUSH1 0x97 PUSH1 0x0 PUSH2 0x100 EXP DUP2 SLOAD DUP2 PUSH20 0xFFFFFFFFFFFFFFFFFFFFFFFFFFFFFFFFFFFFFFFF MUL NOT AND SWAP1 DUP4 PUSH20 0xFFFFFFFFFFFFFFFFFFFFFFFFFFFFFFFFFFFFFFFF AND MUL OR SWAP1 SSTORE POP DUP2 PUSH20 0xFFFFFFFFFFFFFFFFFFFFFFFFFFFFFFFFFFFFFFFF AND DUP2 PUSH20 0xFFFFFFFFFFFFFFFFFFFFFFFFFFFFFFFFFFFFFFFF AND PUSH32 0x8BE0079C531659141344CD1FD0A4F28419497F9722A3DAAFE3B4186F6B6457E0 PUSH1 0x40 MLOAD PUSH1 0x40 MLOAD DUP1 SWAP2 SUB SWAP1 LOG3 POP POP JUMP JUMPDEST PUSH1 0x0 DUP1 DUP3 PUSH20 0xFFFFFFFFFFFFFFFFFFFFFFFFFFFFFFFFFFFFFFFF AND EXTCODESIZE GT SWAP1 POP SWAP2 SWAP1 POP JUMP JUMPDEST PUSH1 0x0 PUSH1 0x1 SWAP1 SLOAD SWAP1 PUSH2 0x100 EXP SWAP1 DIV PUSH1 0xFF AND PUSH2 0x1A8C JUMPI PUSH1 0x40 MLOAD PUSH32 0x8C379A000000000000000000000000000000000000000000000000000000000 DUP2 MSTORE PUSH1 0x4 ADD PUSH2 0x1A83 SWAP1 PUSH2 0x287C JUMP JUMPDEST PUSH1 0x40 MLOAD DUP1 SWAP2 SUB SWAP1 REVERT JUMPDEST PUSH2 0x1A96 DUP3 DUP3 PUSH2 0x1C98 JUMP JUMPDEST POP POP JUMP JUMPDEST PUSH1 0x0 PUSH1 0x1 SWAP1 SLOAD SWAP1 PUSH2 0x100 EXP SWAP1 DIV PUSH1 0xFF AND PUSH2 0x1AE9 JUMPI PUSH1 0x40 MLOAD PUSH32 0x8C379A000000000000000000000000000000000000000000000000000000000 DUP2 MSTORE PUSH1 0x4 ADD PUSH2 0x1AE0 SWAP1 PUSH2 0x287C JUMP JUMPDEST PUSH1 0x40 MLOAD DUP1 SWAP2 SUB SWAP1 REVERT JUMPDEST JUMP JUMPDEST PUSH1 0x0 PUSH1 0x1 SWAP1 SLOAD SWAP1 PUSH2 0x100 EXP SWAP1 DIV PUSH1 0xFF AND PUSH2 0x1B3A JUMPI PUSH1 0x40 MLOAD PUSH32 0x8C379A000000000000000000000000000000000000000000000000000000000 DUP2 MSTORE PUSH1 0x4 ADD PUSH2 0x1B31 SWAP1 PUSH2 0x287C JUMP JUMPDEST PUSH1 0x40 MLOAD DUP1 SWAP2 SUB SWAP1 REVERT JUMPDEST PUSH2 0x1B42 PUSH2 0x1D19 JUMP JUMPDEST JUMP JUMPDEST PUSH1 0x0 PUSH1 0x1 SWAP1 SLOAD SWAP1 PUSH2 0x100 EXP SWAP1 DIV PUSH1 0xFF AND PUSH2 0x1B93 JUMPI PUSH1 0x40 MLOAD PUSH32 0x8C379A000000000000000000000000000000000000000000000000000000000 DUP2 MSTORE PUSH1 0x4 ADD PUSH2 0x1B8A SWAP1 PUSH2 0x287C JUMP JUMPDEST PUSH1 0x40 MLOAD DUP1 SWAP2 SUB SWAP1 REVERT JUMPDEST JUMP JUMPDEST POP POP POP JUMP JUMPDEST POP POP POP JUMP JUMPDEST PUSH1 0x0 DUP2 SWAP1 POP SWAP2 SWAP1 POP JUMP JUMPDEST PUSH1 0x0 DUP2 SWAP1 POP SWAP2 SWAP1 POP JUMP JUMPDEST PUSH2 0x1BBC DUP2 PUSH2 0x1A1A JUMP JUMPDEST PUSH2 0x1BFB JUMPI PUSH1 0x40 MLOAD PUSH32 0x8C379A000000000000000000000000000000000000000000000000000000000 DUP2 MSTORE PUSH1 0x4 ADD PUSH2 0x1BF2 SWAP1 PUSH2 0x27BC JUMP JUMPDEST PUSH1 0x40 MLOAD DUP1 SWAP2 SUB SWAP1 REVERT JUMPDEST DUP1 PUSH2 0x1C28 PUSH32 0x360894A13BA1A3210667C828492DB98DCA3E2076CC3735A920A3CA505D382BBC PUSH1 0x0 SHL PUSH2 0x1B9F JUMP JUMPDEST PUSH1 0x0 ADD PUSH1 0x0 PUSH2 0x100 EXP DUP2 SLOAD DUP2 PUSH20 0xFFFFFFFFFFFFFFFFFFFFFFFFFFFFFFFFFFFFFFFF MUL NOT AND SWAP1 DUP4 PUSH20 0xFFFFFFFFFFFFFFFFFFFFFFFFFFFFFFFFFFFFFFFF AND MUL OR SWAP1 SSTORE POP POP JUMP JUMPDEST PUSH2 0x1C75 DUP4 PUSH2 0x1D7A JUMP JUMPDEST PUSH1 0x0 DUP3 MLOAD GT DUP1 PUSH2 0x1C82 JUMPI POP DUP1 JUMPDEST ISZERO PUSH2 0x1C93 JUMPI PUSH2 0x1C91 DUP4 DUP4 PUSH2 0x1DC9 JUMP JUMPDEST POP JUMPDEST POP POP POP JUMP JUMPDEST PUSH1 0x0 PUSH1 0x1 SWAP1 SLOAD SWAP1 PUSH2 0x100 EXP SWAP1 DIV PUSH1 0xFF AND PUSH2 0x1CE7 JUMPI PUSH1 0x40 MLOAD PUSH32 0x8C379A000000000000000000000000000000000000000000000000000000000 DUP2 MSTORE PUSH1 0x4 ADD PUSH2 0x1CDE SWAP1 PUSH2 0x287C JUMP JUMPDEST PUSH1 0x40 MLOAD DUP1 SWAP2 SUB SWAP1 REVERT JUMPDEST DUP2 PUSH1 0x36 SWAP1 DUP1 MLOAD SWAP1 PUSH1 0x20 ADD SWAP1 PUSH2 0x1CFD SWAP3 SWAP2 SWAP1 PUSH2 0x1F14 JUMP JUMPDEST POP DUP1 PUSH1 0x37 SWAP1 DUP1 MLOAD SWAP1 PUSH1 0x20 ADD SWAP1 PUSH2 0x1D14 SWAP3 SWAP2 SWAP1 PUSH2 0x1F14 JUMP JUMPDEST POP POP POP JUMP JUMPDEST PUSH1 0x0 PUSH1 0x1 SWAP1 SLOAD SWAP1 PUSH2 0x100 EXP SWAP1 DIV PUSH1 0xFF AND PUSH2 0x1D68 JUMPI PUSH1 0x40 MLOAD PUSH32 0x8C379A000000000000000000000000000000000000000000000000000000000 DUP2 MSTORE PUSH1 0x4 ADD PUSH2 0x1D5F SWAP1 PUSH2 0x287C JUMP JUMPDEST PUSH1 0x40 MLOAD DUP1 SWAP2 SUB SWAP1 REVERT JUMPDEST PUSH2 0x1D78 PUSH2 0x1D73 PUSH2 0xEDA JUMP JUMPDEST PUSH2 0x1954 JUMP JUMPDEST JUMP JUMPDEST PUSH2 0x1D83 DUP2 PUSH2 0x1BB3 JUMP JUMPDEST DUP1 PUSH20 0xFFFFFFFFFFFFFFFFFFFFFFFFFFFFFFFFFFFFFFFF AND PUSH32 0xBC7CD75A20EE27FD9ADEBAB32041F755214DBC6BFFA90CC0225B39DA2E5C2D3B PUSH1 0x40 MLOAD PUSH1 0x40 MLOAD DUP1 SWAP2 SUB SWAP1 LOG2 POP JUMP JUMPDEST PUSH1 0x60 PUSH2 0x1DD4 DUP4 PUSH2 0x1A1A JUMP JUMPDEST PUSH2 0x1E13 JUMPI PUSH1 0x40 MLOAD PUSH32 0x8C379A000000000000000000000000000000000000000000000000000000000 DUP2 MSTORE PUSH1 0x4 ADD PUSH2 0x1E0A SWAP1 PUSH2 0x281C JUMP JUMPDEST PUSH1 0x40 MLOAD DUP1 SWAP2 SUB SWAP1 REVERT JUMPDEST PUSH1 0x0 DUP1 DUP5 PUSH20 0xFFFFFFFFFFFFFFFFFFFFFFFFFFFFFFFFFFFFFFFF AND DUP5 PUSH1 0x40 MLOAD PUSH2 0x1E3B SWAP2 SWAP1 PUSH2 0x2597 JUMP JUMPDEST PUSH1 0x0 PUSH1 0x40 MLOAD DUP1 DUP4 SUB DUP2 DUP6 GAS DELEGATECALL SWAP2 POP POP RETURNDATASIZE DUP1 PUSH1 0x0 DUP2 EQ PUSH2 0x1E76 JUMPI PUSH1 0x40 MLOAD SWAP2 POP PUSH1 0x1F NOT PUSH1 0x3F RETURNDATASIZE ADD AND DUP3 ADD PUSH1 0x40 MSTORE RETURNDATASIZE DUP3 MSTORE RETURNDATASIZE PUSH1 0x0 PUSH1 0x20 DUP5 ADD RETURNDATACOPY PUSH2 0x1E7B JUMP JUMPDEST PUSH1 0x60 SWAP2 POP JUMPDEST POP SWAP2 POP SWAP2 POP PUSH2 0x1EA3 DUP3 DUP3 PUSH1 0x40 MLOAD DUP1 PUSH1 0x60 ADD PUSH1 0x40 MSTORE DUP1 PUSH1 0x27 DUP2 MSTORE PUSH1 0x20 ADD PUSH2 0x3227 PUSH1 0x27 SWAP2 CODECOPY PUSH2 0x1EAD JUMP JUMPDEST SWAP3 POP POP POP SWAP3 SWAP2 POP POP JUMP JUMPDEST PUSH1 0x60 DUP4 ISZERO PUSH2 0x1EBD JUMPI DUP3 SWAP1 POP PUSH2 0x1F0D JUMP JUMPDEST PUSH1 0x0 DUP4 MLOAD GT ISZERO PUSH2 0x1ED0 JUMPI DUP3 MLOAD DUP1 DUP5 PUSH1 0x20 ADD REVERT JUMPDEST DUP2 PUSH1 0x40 MLOAD PUSH32 0x8C379A000000000000000000000000000000000000000000000000000000000 DUP2 MSTORE PUSH1 0x4 ADD PUSH2 0x1F04 SWAP2 SWAP1 PUSH2 0x261A JUMP JUMPDEST PUSH1 0x40 MLOAD DUP1 SWAP2 SUB SWAP1 REVERT JUMPDEST SWAP4 SWAP3 POP POP POP JUMP JUMPDEST DUP3 DUP1 SLOAD PUSH2 0x1F20 SWAP1 PUSH2 0x2AD7 JUMP JUMPDEST SWAP1 PUSH1 0x0 MSTORE PUSH1 0x20 PUSH1 0x0 KECCAK256 SWAP1 PUSH1 0x1F ADD PUSH1 0x20 SWAP1 DIV DUP2 ADD SWAP3 DUP3 PUSH2 0x1F42 JUMPI PUSH1 0x0 DUP6 SSTORE PUSH2 0x1F89 JUMP JUMPDEST DUP3 PUSH1 0x1F LT PUSH2 0x1F5B JUMPI DUP1 MLOAD PUSH1 0xFF NOT AND DUP4 DUP1 ADD OR DUP6 SSTORE PUSH2 0x1F89 JUMP JUMPDEST DUP3 DUP1 ADD PUSH1 0x1 ADD DUP6 SSTORE DUP3 ISZERO PUSH2 0x1F89 JUMPI SWAP2 DUP3 ADD JUMPDEST DUP3 DUP2 GT ISZERO PUSH2 0x1F88 JUMPI DUP3 MLOAD DUP3 SSTORE SWAP2 PUSH1 0x20 ADD SWAP2 SWAP1 PUSH1 0x1 ADD SWAP1 PUSH2 0x1F6D JUMP JUMPDEST JUMPDEST POP SWAP1 POP PUSH2 0x1F96 SWAP2 SWAP1 PUSH2 0x1F9A JUMP JUMPDEST POP SWAP1 JUMP JUMPDEST JUMPDEST DUP1 DUP3 GT ISZERO PUSH2 0x1FB3 JUMPI PUSH1 0x0 DUP2 PUSH1 0x0 SWAP1 SSTORE POP PUSH1 0x1 ADD PUSH2 0x1F9B JUMP JUMPDEST POP SWAP1 JUMP JUMPDEST PUSH1 0x0 PUSH2 0x1FCA PUSH2 0x1FC5 DUP5 PUSH2 0x2937 JUMP JUMPDEST PUSH2 0x2912 JUMP JUMPDEST SWAP1 POP DUP3 DUP2 MSTORE PUSH1 0x20 DUP2 ADD DUP5 DUP5 DUP5 ADD GT ISZERO PUSH2 0x1FE2 JUMPI PUSH1 0x0 DUP1 REVERT JUMPDEST PUSH2 0x1FED DUP5 DUP3 DUP6 PUSH2 0x2A95 JUMP JUMPDEST POP SWAP4 SWAP3 POP POP POP JUMP JUMPDEST PUSH1 0x0 DUP2 CALLDATALOAD SWAP1 POP PUSH2 0x2004 DUP2 PUSH2 0x31E1 JUMP JUMPDEST SWAP3 SWAP2 POP POP JUMP JUMPDEST PUSH1 0x0 DUP2 MLOAD SWAP1 POP PUSH2 0x2019 DUP2 PUSH2 0x31F8 JUMP JUMPDEST SWAP3 SWAP2 POP POP JUMP JUMPDEST PUSH1 0x0 DUP3 PUSH1 0x1F DUP4 ADD SLT PUSH2 0x2030 JUMPI PUSH1 0x0 DUP1 REVERT JUMPDEST DUP2 CALLDATALOAD PUSH2 0x2040 DUP5 DUP3 PUSH1 0x20 DUP7 ADD PUSH2 0x1FB7 JUMP JUMPDEST SWAP2 POP POP SWAP3 SWAP2 POP POP JUMP JUMPDEST PUSH1 0x0 DUP2 CALLDATALOAD SWAP1 POP PUSH2 0x2058 DUP2 PUSH2 0x320F JUMP JUMPDEST SWAP3 SWAP2 POP POP JUMP JUMPDEST PUSH1 0x0 PUSH1 0x20 DUP3 DUP5 SUB SLT ISZERO PUSH2 0x2070 JUMPI PUSH1 0x0 DUP1 REVERT JUMPDEST PUSH1 0x0 PUSH2 0x207E DUP5 DUP3 DUP6 ADD PUSH2 0x1FF5 JUMP JUMPDEST SWAP2 POP POP SWAP3 SWAP2 POP POP JUMP JUMPDEST PUSH1 0x0 DUP1 PUSH1 0x40 DUP4 DUP6 SUB SLT ISZERO PUSH2 0x209A JUMPI PUSH1 0x0 DUP1 REVERT JUMPDEST PUSH1 0x0 PUSH2 0x20A8 DUP6 DUP3 DUP7 ADD PUSH2 0x1FF5 JUMP JUMPDEST SWAP3 POP POP PUSH1 0x20 PUSH2 0x20B9 DUP6 DUP3 DUP7 ADD PUSH2 0x1FF5 JUMP JUMPDEST SWAP2 POP POP SWAP3 POP SWAP3 SWAP1 POP JUMP JUMPDEST PUSH1 0x0 DUP1 PUSH1 0x0 PUSH1 0x60 DUP5 DUP7 SUB SLT ISZERO PUSH2 0x20D8 JUMPI PUSH1 0x0 DUP1 REVERT JUMPDEST PUSH1 0x0 PUSH2 0x20E6 DUP7 DUP3 DUP8 ADD PUSH2 0x1FF5 JUMP JUMPDEST SWAP4 POP POP PUSH1 0x20 PUSH2 0x20F7 DUP7 DUP3 DUP8 ADD PUSH2 0x1FF5 JUMP JUMPDEST SWAP3 POP POP PUSH1 0x40 PUSH2 0x2108 DUP7 DUP3 DUP8 ADD PUSH2 0x2049 JUMP JUMPDEST SWAP2 POP POP SWAP3 POP SWAP3 POP SWAP3 JUMP JUMPDEST PUSH1 0x0 DUP1 PUSH1 0x40 DUP4 DUP6 SUB SLT ISZERO PUSH2 0x2125 JUMPI PUSH1 0x0 DUP1 REVERT JUMPDEST PUSH1 0x0 PUSH2 0x2133 DUP6 DUP3 DUP7 ADD PUSH2 0x1FF5 JUMP JUMPDEST SWAP3 POP POP PUSH1 0x20 DUP4 ADD CALLDATALOAD PUSH8 0xFFFFFFFFFFFFFFFF DUP2 GT ISZERO PUSH2 0x2150 JUMPI PUSH1 0x0 DUP1 REVERT JUMPDEST PUSH2 0x215C DUP6 DUP3 DUP7 ADD PUSH2 0x201F JUMP JUMPDEST SWAP2 POP POP SWAP3 POP SWAP3 SWAP1 POP JUMP JUMPDEST PUSH1 0x0 DUP1 PUSH1 0x40 DUP4 DUP6 SUB SLT ISZERO PUSH2 0x2179 JUMPI PUSH1 0x0 DUP1 REVERT JUMPDEST PUSH1 0x0 PUSH2 0x2187 DUP6 DUP3 DUP7 ADD PUSH2 0x1FF5 JUMP JUMPDEST SWAP3 POP POP PUSH1 0x20 PUSH2 0x2198 DUP6 DUP3 DUP7 ADD PUSH2 0x2049 JUMP JUMPDEST SWAP2 POP POP SWAP3 POP SWAP3 SWAP1 POP JUMP JUMPDEST PUSH1 0x0 PUSH1 0x20 DUP3 DUP5 SUB SLT ISZERO PUSH2 0x21B4 JUMPI PUSH1 0x0 DUP1 REVERT JUMPDEST PUSH1 0x0 PUSH2 0x21C2 DUP5 DUP3 DUP6 ADD PUSH2 0x200A JUMP JUMPDEST SWAP2 POP POP SWAP3 SWAP2 POP POP JUMP JUMPDEST PUSH1 0x0 PUSH1 0x20 DUP3 DUP5 SUB SLT ISZERO PUSH2 0x21DD JUMPI PUSH1 0x0 DUP1 REVERT JUMPDEST PUSH1 0x0 PUSH2 0x21EB DUP5 DUP3 DUP6 ADD PUSH2 0x2049 JUMP JUMPDEST SWAP2 POP POP SWAP3 SWAP2 POP POP JUMP JUMPDEST PUSH2 0x21FD DUP2 PUSH2 0x2A24 JUMP JUMPDEST DUP3 MSTORE POP POP JUMP JUMPDEST PUSH2 0x220C DUP2 PUSH2 0x2A36 JUMP JUMPDEST DUP3 MSTORE POP POP JUMP JUMPDEST PUSH2 0x221B DUP2 PUSH2 0x2A42 JUMP JUMPDEST DUP3 MSTORE POP POP JUMP JUMPDEST PUSH1 0x0 PUSH2 0x222C DUP3 PUSH2 0x2968 JUMP JUMPDEST PUSH2 0x2236 DUP2 DUP6 PUSH2 0x297E JUMP JUMPDEST SWAP4 POP PUSH2 0x2246 DUP2 DUP6 PUSH1 0x20 DUP7 ADD PUSH2 0x2AA4 JUMP JUMPDEST DUP1 DUP5 ADD SWAP2 POP POP SWAP3 SWAP2 POP POP JUMP JUMPDEST PUSH2 0x225B DUP2 PUSH2 0x2A83 JUMP JUMPDEST DUP3 MSTORE POP POP JUMP JUMPDEST PUSH1 0x0 PUSH2 0x226C DUP3 PUSH2 0x2973 JUMP JUMPDEST PUSH2 0x2276 DUP2 DUP6 PUSH2 0x2989 JUMP JUMPDEST SWAP4 POP PUSH2 0x2286 DUP2 DUP6 PUSH1 0x20 DUP7 ADD PUSH2 0x2AA4 JUMP JUMPDEST PUSH2 0x228F DUP2 PUSH2 0x2BC7 JUMP JUMPDEST DUP5 ADD SWAP2 POP POP SWAP3 SWAP2 POP POP JUMP JUMPDEST PUSH1 0x0 PUSH2 0x22A7 PUSH1 0x23 DUP4 PUSH2 0x2989 JUMP JUMPDEST SWAP2 POP PUSH2 0x22B2 DUP3 PUSH2 0x2BD8 JUMP JUMPDEST PUSH1 0x40 DUP3 ADD SWAP1 POP SWAP2 SWAP1 POP JUMP JUMPDEST PUSH1 0x0 PUSH2 0x22CA PUSH1 0x22 DUP4 PUSH2 0x2989 JUMP JUMPDEST SWAP2 POP PUSH2 0x22D5 DUP3 PUSH2 0x2C27 JUMP JUMPDEST PUSH1 0x40 DUP3 ADD SWAP1 POP SWAP2 SWAP1 POP JUMP JUMPDEST PUSH1 0x0 PUSH2 0x22ED PUSH1 0x26 DUP4 PUSH2 0x2989 JUMP JUMPDEST SWAP2 POP PUSH2 0x22F8 DUP3 PUSH2 0x2C76 JUMP JUMPDEST PUSH1 0x40 DUP3 ADD SWAP1 POP SWAP2 SWAP1 POP JUMP JUMPDEST PUSH1 0x0 PUSH2 0x2310 PUSH1 0x22 DUP4 PUSH2 0x2989 JUMP JUMPDEST SWAP2 POP PUSH2 0x231B DUP3 PUSH2 0x2CC5 JUMP JUMPDEST PUSH1 0x40 DUP3 ADD SWAP1 POP SWAP2 SWAP1 POP JUMP JUMPDEST PUSH1 0x0 PUSH2 0x2333 PUSH1 0x2C DUP4 PUSH2 0x2989 JUMP JUMPDEST SWAP2 POP PUSH2 0x233E DUP3 PUSH2 0x2D14 JUMP JUMPDEST PUSH1 0x40 DUP3 ADD SWAP1 POP SWAP2 SWAP1 POP JUMP JUMPDEST PUSH1 0x0 PUSH2 0x2356 PUSH1 0x1D DUP4 PUSH2 0x2989 JUMP JUMPDEST SWAP2 POP PUSH2 0x2361 DUP3 PUSH2 0x2D63 JUMP JUMPDEST PUSH1 0x20 DUP3 ADD SWAP1 POP SWAP2 SWAP1 POP JUMP JUMPDEST PUSH1 0x0 PUSH2 0x2379 PUSH1 0x26 DUP4 PUSH2 0x2989 JUMP JUMPDEST SWAP2 POP PUSH2 0x2384 DUP3 PUSH2 0x2D8C JUMP JUMPDEST PUSH1 0x40 DUP3 ADD SWAP1 POP SWAP2 SWAP1 POP JUMP JUMPDEST PUSH1 0x0 PUSH2 0x239C PUSH1 0x2C DUP4 PUSH2 0x2989 JUMP JUMPDEST SWAP2 POP PUSH2 0x23A7 DUP3 PUSH2 0x2DDB JUMP JUMPDEST PUSH1 0x40 DUP3 ADD SWAP1 POP SWAP2 SWAP1 POP JUMP JUMPDEST PUSH1 0x0 PUSH2 0x23BF PUSH1 0x38 DUP4 PUSH2 0x2989 JUMP JUMPDEST SWAP2 POP PUSH2 0x23CA DUP3 PUSH2 0x2E2A JUMP JUMPDEST PUSH1 0x40 DUP3 ADD SWAP1 POP SWAP2 SWAP1 POP JUMP JUMPDEST PUSH1 0x0 PUSH2 0x23E2 PUSH1 0x29 DUP4 PUSH2 0x2989 JUMP JUMPDEST SWAP2 POP PUSH2 0x23ED DUP3 PUSH2 0x2E79 JUMP JUMPDEST PUSH1 0x40 DUP3 ADD SWAP1 POP SWAP2 SWAP1 POP JUMP JUMPDEST PUSH1 0x0 PUSH2 0x2405 PUSH1 0x2E DUP4 PUSH2 0x2989 JUMP JUMPDEST SWAP2 POP PUSH2 0x2410 DUP3 PUSH2 0x2EC8 JUMP JUMPDEST PUSH1 0x40 DUP3 ADD SWAP1 POP SWAP2 SWAP1 POP JUMP JUMPDEST PUSH1 0x0 PUSH2 0x2428 PUSH1 0x2E DUP4 PUSH2 0x2989 JUMP JUMPDEST SWAP2 POP PUSH2 0x2433 DUP3 PUSH2 0x2F17 JUMP JUMPDEST PUSH1 0x40 DUP3 ADD SWAP1 POP SWAP2 SWAP1 POP JUMP JUMPDEST PUSH1 0x0 PUSH2 0x244B PUSH1 0x2D DUP4 PUSH2 0x2989 JUMP JUMPDEST SWAP2 POP PUSH2 0x2456 DUP3 PUSH2 0x2F66 JUMP JUMPDEST PUSH1 0x40 DUP3 ADD SWAP1 POP SWAP2 SWAP1 POP JUMP JUMPDEST PUSH1 0x0 PUSH2 0x246E PUSH1 0x20 DUP4 PUSH2 0x2989 JUMP JUMPDEST SWAP2 POP PUSH2 0x2479 DUP3 PUSH2 0x2FB5 JUMP JUMPDEST PUSH1 0x20 DUP3 ADD SWAP1 POP SWAP2 SWAP1 POP JUMP JUMPDEST PUSH1 0x0 PUSH2 0x2491 PUSH1 0x21 DUP4 PUSH2 0x2989 JUMP JUMPDEST SWAP2 POP PUSH2 0x249C DUP3 PUSH2 0x2FDE JUMP JUMPDEST PUSH1 0x40 DUP3 ADD SWAP1 POP SWAP2 SWAP1 POP JUMP JUMPDEST PUSH1 0x0 PUSH2 0x24B4 PUSH1 0x26 DUP4 PUSH2 0x2989 JUMP JUMPDEST SWAP2 POP PUSH2 0x24BF DUP3 PUSH2 0x302D JUMP JUMPDEST PUSH1 0x40 DUP3 ADD SWAP1 POP SWAP2 SWAP1 POP JUMP JUMPDEST PUSH1 0x0 PUSH2 0x24D7 PUSH1 0x25 DUP4 PUSH2 0x2989 JUMP JUMPDEST SWAP2 POP PUSH2 0x24E2 DUP3 PUSH2 0x307C JUMP JUMPDEST PUSH1 0x40 DUP3 ADD SWAP1 POP SWAP2 SWAP1 POP JUMP JUMPDEST PUSH1 0x0 PUSH2 0x24FA PUSH1 0x24 DUP4 PUSH2 0x2989 JUMP JUMPDEST SWAP2 POP PUSH2 0x2505 DUP3 PUSH2 0x30CB JUMP JUMPDEST PUSH1 0x40 DUP3 ADD SWAP1 POP SWAP2 SWAP1 POP JUMP JUMPDEST PUSH1 0x0 PUSH2 0x251D PUSH1 0x2B DUP4 PUSH2 0x2989 JUMP JUMPDEST SWAP2 POP PUSH2 0x2528 DUP3 PUSH2 0x311A JUMP JUMPDEST PUSH1 0x40 DUP3 ADD SWAP1 POP SWAP2 SWAP1 POP JUMP JUMPDEST PUSH1 0x0 PUSH2 0x2540 PUSH1 0x25 DUP4 PUSH2 0x2989 JUMP JUMPDEST SWAP2 POP PUSH2 0x254B DUP3 PUSH2 0x3169 JUMP JUMPDEST PUSH1 0x40 DUP3 ADD SWAP1 POP SWAP2 SWAP1 POP JUMP JUMPDEST PUSH1 0x0 PUSH2 0x2563 PUSH1 0x1F DUP4 PUSH2 0x2989 JUMP JUMPDEST SWAP2 POP PUSH2 0x256E DUP3 PUSH2 0x31B8 JUMP JUMPDEST PUSH1 0x20 DUP3 ADD SWAP1 POP SWAP2 SWAP1 POP JUMP JUMPDEST PUSH2 0x2582 DUP2 PUSH2 0x2A6C JUMP JUMPDEST DUP3 MSTORE POP POP JUMP JUMPDEST PUSH2 0x2591 DUP2 PUSH2 0x2A76 JUMP JUMPDEST DUP3 MSTORE POP POP JUMP JUMPDEST PUSH1 0x0 PUSH2 0x25A3 DUP3 DUP5 PUSH2 0x2221 JUMP JUMPDEST SWAP2 POP DUP2 SWAP1 POP SWAP3 SWAP2 POP POP JUMP JUMPDEST PUSH1 0x0 PUSH1 0x20 DUP3 ADD SWAP1 POP PUSH2 0x25C3 PUSH1 0x0 DUP4 ADD DUP5 PUSH2 0x21F4 JUMP JUMPDEST SWAP3 SWAP2 POP POP JUMP JUMPDEST PUSH1 0x0 PUSH1 0x20 DUP3 ADD SWAP1 POP PUSH2 0x25DE PUSH1 0x0 DUP4 ADD DUP5 PUSH2 0x2203 JUMP JUMPDEST SWAP3 SWAP2 POP POP JUMP JUMPDEST PUSH1 0x0 PUSH1 0x20 DUP3 ADD SWAP1 POP PUSH2 0x25F9 PUSH1 0x0 DUP4 ADD DUP5 PUSH2 0x2212 JUMP JUMPDEST SWAP3 SWAP2 POP POP JUMP JUMPDEST PUSH1 0x0 PUSH1 0x20 DUP3 ADD SWAP1 POP PUSH2 0x2614 PUSH1 0x0 DUP4 ADD DUP5 PUSH2 0x2252 JUMP JUMPDEST SWAP3 SWAP2 POP POP JUMP JUMPDEST PUSH1 0x0 PUSH1 0x20 DUP3 ADD SWAP1 POP DUP2 DUP2 SUB PUSH1 0x0 DUP4 ADD MSTORE PUSH2 0x2634 DUP2 DUP5 PUSH2 0x2261 JUMP JUMPDEST SWAP1 POP SWAP3 SWAP2 POP POP JUMP JUMPDEST PUSH1 0x0 PUSH1 0x20 DUP3 ADD SWAP1 POP DUP2 DUP2 SUB PUSH1 0x0 DUP4 ADD MSTORE PUSH2 0x2655 DUP2 PUSH2 0x229A JUMP JUMPDEST SWAP1 POP SWAP2 SWAP1 POP JUMP JUMPDEST PUSH1 0x0 PUSH1 0x20 DUP3 ADD SWAP1 POP DUP2 DUP2 SUB PUSH1 0x0 DUP4 ADD MSTORE PUSH2 0x2675 DUP2 PUSH2 0x22BD JUMP JUMPDEST SWAP1 POP SWAP2 SWAP1 POP JUMP JUMPDEST PUSH1 0x0 PUSH1 0x20 DUP3 ADD SWAP1 POP DUP2 DUP2 SUB PUSH1 0x0 DUP4 ADD MSTORE PUSH2 0x2695 DUP2 PUSH2 0x22E0 JUMP JUMPDEST SWAP1 POP SWAP2 SWAP1 POP JUMP JUMPDEST PUSH1 0x0 PUSH1 0x20 DUP3 ADD SWAP1 POP DUP2 DUP2 SUB PUSH1 0x0 DUP4 ADD MSTORE PUSH2 0x26B5 DUP2 PUSH2 0x2303 JUMP JUMPDEST SWAP1 POP SWAP2 SWAP1 POP JUMP JUMPDEST PUSH1 0x0 PUSH1 0x20 DUP3 ADD SWAP1 POP DUP2 DUP2 SUB PUSH1 0x0 DUP4 ADD MSTORE PUSH2 0x26D5 DUP2 PUSH2 0x2326 JUMP JUMPDEST SWAP1 POP SWAP2 SWAP1 POP JUMP JUMPDEST PUSH1 0x0 PUSH1 0x20 DUP3 ADD SWAP1 POP DUP2 DUP2 SUB PUSH1 0x0 DUP4 ADD MSTORE PUSH2 0x26F5 DUP2 PUSH2 0x2349 JUMP JUMPDEST SWAP1 POP SWAP2 SWAP1 POP JUMP JUMPDEST PUSH1 0x0 PUSH1 0x20 DUP3 ADD SWAP1 POP DUP2 DUP2 SUB PUSH1 0x0 DUP4 ADD MSTORE PUSH2 0x2715 DUP2 PUSH2 0x236C JUMP JUMPDEST SWAP1 POP SWAP2 SWAP1 POP JUMP JUMPDEST PUSH1 0x0 PUSH1 0x20 DUP3 ADD SWAP1 POP DUP2 DUP2 SUB PUSH1 0x0 DUP4 ADD MSTORE PUSH2 0x2735 DUP2 PUSH2 0x238F JUMP JUMPDEST SWAP1 POP SWAP2 SWAP1 POP JUMP JUMPDEST PUSH1 0x0 PUSH1 0x20 DUP3 ADD SWAP1 POP DUP2 DUP2 SUB PUSH1 0x0 DUP4 ADD MSTORE PUSH2 0x2755 DUP2 PUSH2 0x23B2 JUMP JUMPDEST SWAP1 POP SWAP2 SWAP1 POP JUMP JUMPDEST PUSH1 0x0 PUSH1 0x20 DUP3 ADD SWAP1 POP DUP2 DUP2 SUB PUSH1 0x0 DUP4 ADD MSTORE PUSH2 0x2775 DUP2 PUSH2 0x23D5 JUMP JUMPDEST SWAP1 POP SWAP2 SWAP1 POP JUMP JUMPDEST PUSH1 0x0 PUSH1 0x20 DUP3 ADD SWAP1 POP DUP2 DUP2 SUB PUSH1 0x0 DUP4 ADD MSTORE PUSH2 0x2795 DUP2 PUSH2 0x23F8 JUMP JUMPDEST SWAP1 POP SWAP2 SWAP1 POP JUMP JUMPDEST PUSH1 0x0 PUSH1 0x20 DUP3 ADD SWAP1 POP DUP2 DUP2 SUB PUSH1 0x0 DUP4 ADD MSTORE PUSH2 0x27B5 DUP2 PUSH2 0x241B JUMP JUMPDEST SWAP1 POP SWAP2 SWAP1 POP JUMP JUMPDEST PUSH1 0x0 PUSH1 0x20 DUP3 ADD SWAP1 POP DUP2 DUP2 SUB PUSH1 0x0 DUP4 ADD MSTORE PUSH2 0x27D5 DUP2 PUSH2 0x243E JUMP JUMPDEST SWAP1 POP SWAP2 SWAP1 POP JUMP JUMPDEST PUSH1 0x0 PUSH1 0x20 DUP3 ADD SWAP1 POP DUP2 DUP2 SUB PUSH1 0x0 DUP4 ADD MSTORE PUSH2 0x27F5 DUP2 PUSH2 0x2461 JUMP JUMPDEST SWAP1 POP SWAP2 SWAP1 POP JUMP JUMPDEST PUSH1 0x0 PUSH1 0x20 DUP3 ADD SWAP1 POP DUP2 DUP2 SUB PUSH1 0x0 DUP4 ADD MSTORE PUSH2 0x2815 DUP2 PUSH2 0x2484 JUMP JUMPDEST SWAP1 POP SWAP2 SWAP1 POP JUMP JUMPDEST PUSH1 0x0 PUSH1 0x20 DUP3 ADD SWAP1 POP DUP2 DUP2 SUB PUSH1 0x0 DUP4 ADD MSTORE PUSH2 0x2835 DUP2 PUSH2 0x24A7 JUMP JUMPDEST SWAP1 POP SWAP2 SWAP1 POP JUMP JUMPDEST PUSH1 0x0 PUSH1 0x20 DUP3 ADD SWAP1 POP DUP2 DUP2 SUB PUSH1 0x0 DUP4 ADD MSTORE PUSH2 0x2855 DUP2 PUSH2 0x24CA JUMP JUMPDEST SWAP1 POP SWAP2 SWAP1 POP JUMP JUMPDEST PUSH1 0x0 PUSH1 0x20 DUP3 ADD SWAP1 POP DUP2 DUP2 SUB PUSH1 0x0 DUP4 ADD MSTORE PUSH2 0x2875 DUP2 PUSH2 0x24ED JUMP JUMPDEST SWAP1 POP SWAP2 SWAP1 POP JUMP JUMPDEST PUSH1 0x0 PUSH1 0x20 DUP3 ADD SWAP1 POP DUP2 DUP2 SUB PUSH1 0x0 DUP4 ADD MSTORE PUSH2 0x2895 DUP2 PUSH2 0x2510 JUMP JUMPDEST SWAP1 POP SWAP2 SWAP1 POP JUMP JUMPDEST PUSH1 0x0 PUSH1 0x20 DUP3 ADD SWAP1 POP DUP2 DUP2 SUB PUSH1 0x0 DUP4 ADD MSTORE PUSH2 0x28B5 DUP2 PUSH2 0x2533 JUMP JUMPDEST SWAP1 POP SWAP2 SWAP1 POP JUMP JUMPDEST PUSH1 0x0 PUSH1 0x20 DUP3 ADD SWAP1 POP DUP2 DUP2 SUB PUSH1 0x0 DUP4 ADD MSTORE PUSH2 0x28D5 DUP2 PUSH2 0x2556 JUMP JUMPDEST SWAP1 POP SWAP2 SWAP1 POP JUMP JUMPDEST PUSH1 0x0 PUSH1 0x20 DUP3 ADD SWAP1 POP PUSH2 0x28F1 PUSH1 0x0 DUP4 ADD DUP5 PUSH2 0x2579 JUMP JUMPDEST SWAP3 SWAP2 POP POP JUMP JUMPDEST PUSH1 0x0 PUSH1 0x20 DUP3 ADD SWAP1 POP PUSH2 0x290C PUSH1 0x0 DUP4 ADD DUP5 PUSH2 0x2588 JUMP JUMPDEST SWAP3 SWAP2 POP POP JUMP JUMPDEST PUSH1 0x0 PUSH2 0x291C PUSH2 0x292D JUMP JUMPDEST SWAP1 POP PUSH2 0x2928 DUP3 DUP3 PUSH2 0x2B09 JUMP JUMPDEST SWAP2 SWAP1 POP JUMP JUMPDEST PUSH1 0x0 PUSH1 0x40 MLOAD SWAP1 POP SWAP1 JUMP JUMPDEST PUSH1 0x0 PUSH8 0xFFFFFFFFFFFFFFFF DUP3 GT ISZERO PUSH2 0x2952 JUMPI PUSH2 0x2951 PUSH2 0x2B98 JUMP JUMPDEST JUMPDEST PUSH2 0x295B DUP3 PUSH2 0x2BC7 JUMP JUMPDEST SWAP1 POP PUSH1 0x20 DUP2 ADD SWAP1 POP SWAP2 SWAP1 POP JUMP JUMPDEST PUSH1 0x0 DUP2 MLOAD SWAP1 POP SWAP2 SWAP1 POP JUMP JUMPDEST PUSH1 0x0 DUP2 MLOAD SWAP1 POP SWAP2 SWAP1 POP JUMP JUMPDEST PUSH1 0x0 DUP2 SWAP1 POP SWAP3 SWAP2 POP POP JUMP JUMPDEST PUSH1 0x0 DUP3 DUP3 MSTORE PUSH1 0x20 DUP3 ADD SWAP1 POP SWAP3 SWAP2 POP POP JUMP JUMPDEST PUSH1 0x0 PUSH2 0x29A5 DUP3 PUSH2 0x2A6C JUMP JUMPDEST SWAP2 POP PUSH2 0x29B0 DUP4 PUSH2 0x2A6C JUMP JUMPDEST SWAP3 POP DUP3 PUSH32 0xFFFFFFFFFFFFFFFFFFFFFFFFFFFFFFFFFFFFFFFFFFFFFFFFFFFFFFFFFFFFFFFF SUB DUP3 GT ISZERO PUSH2 0x29E5 JUMPI PUSH2 0x29E4 PUSH2 0x2B3A JUMP JUMPDEST JUMPDEST DUP3 DUP3 ADD SWAP1 POP SWAP3 SWAP2 POP POP JUMP JUMPDEST PUSH1 0x0 PUSH2 0x29FB DUP3 PUSH2 0x2A6C JUMP JUMPDEST SWAP2 POP PUSH2 0x2A06 DUP4 PUSH2 0x2A6C JUMP JUMPDEST SWAP3 POP DUP3 DUP3 LT ISZERO PUSH2 0x2A19 JUMPI PUSH2 0x2A18 PUSH2 0x2B3A JUMP JUMPDEST JUMPDEST DUP3 DUP3 SUB SWAP1 POP SWAP3 SWAP2 POP POP JUMP JUMPDEST PUSH1 0x0 PUSH2 0x2A2F DUP3 PUSH2 0x2A4C JUMP JUMPDEST SWAP1 POP SWAP2 SWAP1 POP JUMP JUMPDEST PUSH1 0x0 DUP2 ISZERO ISZERO SWAP1 POP SWAP2 SWAP1 POP JUMP JUMPDEST PUSH1 0x0 DUP2 SWAP1 POP SWAP2 SWAP1 POP JUMP JUMPDEST PUSH1 0x0 PUSH20 0xFFFFFFFFFFFFFFFFFFFFFFFFFFFFFFFFFFFFFFFF DUP3 AND SWAP1 POP SWAP2 SWAP1 POP JUMP JUMPDEST PUSH1 0x0 DUP2 SWAP1 POP SWAP2 SWAP1 POP JUMP JUMPDEST PUSH1 0x0 PUSH1 0xFF DUP3 AND SWAP1 POP SWAP2 SWAP1 POP JUMP JUMPDEST PUSH1 0x0 PUSH2 0x2A8E DUP3 PUSH2 0x2A76 JUMP JUMPDEST SWAP1 POP SWAP2 SWAP1 POP JUMP JUMPDEST DUP3 DUP2 DUP4 CALLDATACOPY PUSH1 0x0 DUP4 DUP4 ADD MSTORE POP POP POP JUMP JUMPDEST PUSH1 0x0 JUMPDEST DUP4 DUP2 LT ISZERO PUSH2 0x2AC2 JUMPI DUP1 DUP3 ADD MLOAD DUP2 DUP5 ADD MSTORE PUSH1 0x20 DUP2 ADD SWAP1 POP PUSH2 0x2AA7 JUMP JUMPDEST DUP4 DUP2 GT ISZERO PUSH2 0x2AD1 JUMPI PUSH1 0x0 DUP5 DUP5 ADD MSTORE JUMPDEST POP POP POP POP JUMP JUMPDEST PUSH1 0x0 PUSH1 0x2 DUP3 DIV SWAP1 POP PUSH1 0x1 DUP3 AND DUP1 PUSH2 0x2AEF JUMPI PUSH1 0x7F DUP3 AND SWAP2 POP JUMPDEST PUSH1 0x20 DUP3 LT DUP2 EQ ISZERO PUSH2 0x2B03 JUMPI PUSH2 0x2B02 PUSH2 0x2B69 JUMP JUMPDEST JUMPDEST POP SWAP2 SWAP1 POP JUMP JUMPDEST PUSH2 0x2B12 DUP3 PUSH2 0x2BC7 JUMP JUMPDEST DUP2 ADD DUP2 DUP2 LT PUSH8 0xFFFFFFFFFFFFFFFF DUP3 GT OR ISZERO PUSH2 0x2B31 JUMPI PUSH2 0x2B30 PUSH2 0x2B98 JUMP JUMPDEST JUMPDEST DUP1 PUSH1 0x40 MSTORE POP POP POP JUMP JUMPDEST PUSH32 0x4E487B7100000000000000000000000000000000000000000000000000000000 PUSH1 0x0 MSTORE PUSH1 0x11 PUSH1 0x4 MSTORE PUSH1 0x24 PUSH1 0x0 REVERT JUMPDEST PUSH32 0x4E487B7100000000000000000000000000000000000000000000000000000000 PUSH1 0x0 MSTORE PUSH1 0x22 PUSH1 0x4 MSTORE PUSH1 0x24 PUSH1 0x0 REVERT JUMPDEST PUSH32 0x4E487B7100000000000000000000000000000000000000000000000000000000 PUSH1 0x0 MSTORE PUSH1 0x41 PUSH1 0x4 MSTORE PUSH1 0x24 PUSH1 0x0 REVERT JUMPDEST PUSH1 0x0 PUSH1 0x1F NOT PUSH1 0x1F DUP4 ADD AND SWAP1 POP SWAP2 SWAP1 POP JUMP JUMPDEST PUSH32 0x45524332303A207472616E7366657220746F20746865207A65726F2061646472 PUSH1 0x0 DUP3 ADD MSTORE PUSH32 0x6573730000000000000000000000000000000000000000000000000000000000 PUSH1 0x20 DUP3 ADD MSTORE POP JUMP JUMPDEST PUSH32 0x45524332303A206275726E20616D6F756E7420657863656564732062616C616E PUSH1 0x0 DUP3 ADD MSTORE PUSH32 0x6365000000000000000000000000000000000000000000000000000000000000 PUSH1 0x20 DUP3 ADD MSTORE POP JUMP JUMPDEST PUSH32 0x4F776E61626C653A206E6577206F776E657220697320746865207A65726F2061 PUSH1 0x0 DUP3 ADD MSTORE PUSH32 0x6464726573730000000000000000000000000000000000000000000000000000 PUSH1 0x20 DUP3 ADD MSTORE POP JUMP JUMPDEST PUSH32 0x45524332303A20617070726F766520746F20746865207A65726F206164647265 PUSH1 0x0 DUP3 ADD MSTORE PUSH32 0x7373000000000000000000000000000000000000000000000000000000000000 PUSH1 0x20 DUP3 ADD MSTORE POP JUMP JUMPDEST PUSH32 0x46756E6374696F6E206D7573742062652063616C6C6564207468726F75676820 PUSH1 0x0 DUP3 ADD MSTORE PUSH32 0x64656C656761746563616C6C0000000000000000000000000000000000000000 PUSH1 0x20 DUP3 ADD MSTORE POP JUMP JUMPDEST PUSH32 0x45524332303A20696E73756666696369656E7420616C6C6F77616E6365000000 PUSH1 0x0 DUP3 ADD MSTORE POP JUMP JUMPDEST PUSH32 0x45524332303A207472616E7366657220616D6F756E7420657863656564732062 PUSH1 0x0 DUP3 ADD MSTORE PUSH32 0x616C616E63650000000000000000000000000000000000000000000000000000 PUSH1 0x20 DUP3 ADD MSTORE POP JUMP JUMPDEST PUSH32 0x46756E6374696F6E206D7573742062652063616C6C6564207468726F75676820 PUSH1 0x0 DUP3 ADD MSTORE PUSH32 0x6163746976652070726F78790000000000000000000000000000000000000000 PUSH1 0x20 DUP3 ADD MSTORE POP JUMP JUMPDEST PUSH32 0x555550535570677261646561626C653A206D757374206E6F742062652063616C PUSH1 0x0 DUP3 ADD MSTORE PUSH32 0x6C6564207468726F7567682064656C656761746563616C6C0000000000000000 PUSH1 0x20 DUP3 ADD MSTORE POP JUMP JUMPDEST PUSH32 0x45524331393637557067726164653A20756E737570706F727465642070726F78 PUSH1 0x0 DUP3 ADD MSTORE PUSH32 0x6961626C65555549440000000000000000000000000000000000000000000000 PUSH1 0x20 DUP3 ADD MSTORE POP JUMP JUMPDEST PUSH32 0x496E697469616C697A61626C653A20636F6E747261637420697320616C726561 PUSH1 0x0 DUP3 ADD MSTORE PUSH32 0x647920696E697469616C697A6564000000000000000000000000000000000000 PUSH1 0x20 DUP3 ADD MSTORE POP JUMP JUMPDEST PUSH32 0x45524331393637557067726164653A206E657720696D706C656D656E74617469 PUSH1 0x0 DUP3 ADD MSTORE PUSH32 0x6F6E206973206E6F742055555053000000000000000000000000000000000000 PUSH1 0x20 DUP3 ADD MSTORE POP JUMP JUMPDEST PUSH32 0x455243313936373A206E657720696D706C656D656E746174696F6E206973206E PUSH1 0x0 DUP3 ADD MSTORE PUSH32 0x6F74206120636F6E747261637400000000000000000000000000000000000000 PUSH1 0x20 DUP3 ADD MSTORE POP JUMP JUMPDEST PUSH32 0x4F776E61626C653A2063616C6C6572206973206E6F7420746865206F776E6572 PUSH1 0x0 DUP3 ADD MSTORE POP JUMP JUMPDEST PUSH32 0x45524332303A206275726E2066726F6D20746865207A65726F20616464726573 PUSH1 0x0 DUP3 ADD MSTORE PUSH32 0x7300000000000000000000000000000000000000000000000000000000000000 PUSH1 0x20 DUP3 ADD MSTORE POP JUMP JUMPDEST PUSH32 0x416464726573733A2064656C65676174652063616C6C20746F206E6F6E2D636F PUSH1 0x0 DUP3 ADD MSTORE PUSH32 0x6E74726163740000000000000000000000000000000000000000000000000000 PUSH1 0x20 DUP3 ADD MSTORE POP JUMP JUMPDEST PUSH32 0x45524332303A207472616E736665722066726F6D20746865207A65726F206164 PUSH1 0x0 DUP3 ADD MSTORE PUSH32 0x6472657373000000000000000000000000000000000000000000000000000000 PUSH1 0x20 DUP3 ADD MSTORE POP JUMP JUMPDEST PUSH32 0x45524332303A20617070726F76652066726F6D20746865207A65726F20616464 PUSH1 0x0 DUP3 ADD MSTORE PUSH32 0x7265737300000000000000000000000000000000000000000000000000000000 PUSH1 0x20 DUP3 ADD MSTORE POP JUMP JUMPDEST PUSH32 0x496E697469616C697A61626C653A20636F6E7472616374206973206E6F742069 PUSH1 0x0 DUP3 ADD MSTORE PUSH32 0x6E697469616C697A696E67000000000000000000000000000000000000000000 PUSH1 0x20 DUP3 ADD MSTORE POP JUMP JUMPDEST PUSH32 0x45524332303A2064656372656173656420616C6C6F77616E63652062656C6F77 PUSH1 0x0 DUP3 ADD MSTORE PUSH32 0x207A65726F000000000000000000000000000000000000000000000000000000 PUSH1 0x20 DUP3 ADD MSTORE POP JUMP JUMPDEST PUSH32 0x45524332303A206D696E7420746F20746865207A65726F206164647265737300 PUSH1 0x0 DUP3 ADD MSTORE POP JUMP JUMPDEST PUSH2 0x31EA DUP2 PUSH2 0x2A24 JUMP JUMPDEST DUP2 EQ PUSH2 0x31F5 JUMPI PUSH1 0x0 DUP1 REVERT JUMPDEST POP JUMP JUMPDEST PUSH2 0x3201 DUP2 PUSH2 0x2A42 JUMP JUMPDEST DUP2 EQ PUSH2 0x320C JUMPI PUSH1 0x0 DUP1 REVERT JUMPDEST POP JUMP JUMPDEST PUSH2 0x3218 DUP2 PUSH2 0x2A6C JUMP JUMPDEST DUP2 EQ PUSH2 0x3223 JUMPI PUSH1 0x0 DUP1 REVERT JUMPDEST POP JUMP INVALID COINBASE PUSH5 0x6472657373 GASPRICE KECCAK256 PUSH13 0x6F772D6C6576656C2064656C65 PUSH8 0x6174652063616C6C KECCAK256 PUSH7 0x61696C6564A264 PUSH10 0x70667358221220B72A03 0xD2 0xF SWAP6 0xC3 0xDD 0xA5 CALLDATASIZE 0xE6 0xC7 0xD3 0xAF 0xA8 0x2D DUP3 DUP14 SWAP16 0xC4 0xD8 0xD0 DUP11 BYTE 0x5C GAS 0x4E PUSH31 0x9E11951D64736F6C6343000804003300000000000000000000000000000000 "
				},
				"gasEstimates": {
					"creation": {
						"codeDepositCost": "2586200",
						"executionCost": "infinite",
						"totalCost": "infinite"
					},
					"external": {
						"Tarder(address,uint256)": "infinite",
						"allowance(address,address)": "infinite",
						"approve(address,uint256)": "infinite",
						"balanceOf(address)": "1564",
						"burn(uint256)": "infinite",
						"burnFrom(address,uint256)": "infinite",
						"decimals()": "455",
						"decreaseAllowance(address,uint256)": "infinite",
						"increaseAllowance(address,uint256)": "infinite",
						"initialize()": "infinite",
						"mint(address,uint256)": "infinite",
						"name()": "infinite",
						"owner()": "1333",
						"proxiableUUID()": "infinite",
						"renounceOwnership()": "24443",
						"symbol()": "infinite",
						"totalSupply()": "1205",
						"transfer(address,uint256)": "infinite",
						"transferFrom(address,address,uint256)": "infinite",
						"transferOwnership(address)": "24879",
						"upgradeTo(address)": "infinite",
						"upgradeToAndCall(address,bytes)": "infinite"
					},
					"internal": {
						"_authorizeUpgrade(address)": "infinite"
					}
				},
				"methodIdentifiers": {
					"Tarder(address,uint256)": "d48bcc81",
					"allowance(address,address)": "dd62ed3e",
					"approve(address,uint256)": "095ea7b3",
					"balanceOf(address)": "70a08231",
					"burn(uint256)": "42966c68",
					"burnFrom(address,uint256)": "79cc6790",
					"decimals()": "313ce567",
					"decreaseAllowance(address,uint256)": "a457c2d7",
					"increaseAllowance(address,uint256)": "39509351",
					"initialize()": "8129fc1c",
					"mint(address,uint256)": "40c10f19",
					"name()": "06fdde03",
					"owner()": "8da5cb5b",
					"proxiableUUID()": "52d1902d",
					"renounceOwnership()": "715018a6",
					"symbol()": "95d89b41",
					"totalSupply()": "18160ddd",
					"transfer(address,uint256)": "a9059cbb",
					"transferFrom(address,address,uint256)": "23b872dd",
					"transferOwnership(address)": "f2fde38b",
					"upgradeTo(address)": "3659cfe6",
					"upgradeToAndCall(address,bytes)": "4f1ef286"
				}
			},
			"storageLayout": {
				"storage": [
					{
						"astId": 527,
						"contract": "Desktop/work/dao-company1/contracts/sq.sol:MyToken",
						"label": "_initialized",
						"offset": 0,
						"slot": "0",
						"type": "t_uint8"
					},
					{
						"astId": 530,
						"contract": "Desktop/work/dao-company1/contracts/sq.sol:MyToken",
						"label": "_initializing",
						"offset": 1,
						"slot": "0",
						"type": "t_bool"
					},
					{
						"astId": 1869,
						"contract": "Desktop/work/dao-company1/contracts/sq.sol:MyToken",
						"label": "__gap",
						"offset": 0,
						"slot": "1",
						"type": "t_array(t_uint256)50_storage"
					},
					{
						"astId": 826,
						"contract": "Desktop/work/dao-company1/contracts/sq.sol:MyToken",
						"label": "_balances",
						"offset": 0,
						"slot": "51",
						"type": "t_mapping(t_address,t_uint256)"
					},
					{
						"astId": 832,
						"contract": "Desktop/work/dao-company1/contracts/sq.sol:MyToken",
						"label": "_allowances",
						"offset": 0,
						"slot": "52",
						"type": "t_mapping(t_address,t_mapping(t_address,t_uint256))"
					},
					{
						"astId": 834,
						"contract": "Desktop/work/dao-company1/contracts/sq.sol:MyToken",
						"label": "_totalSupply",
						"offset": 0,
						"slot": "53",
						"type": "t_uint256"
					},
					{
						"astId": 836,
						"contract": "Desktop/work/dao-company1/contracts/sq.sol:MyToken",
						"label": "_name",
						"offset": 0,
						"slot": "54",
						"type": "t_string_storage"
					},
					{
						"astId": 838,
						"contract": "Desktop/work/dao-company1/contracts/sq.sol:MyToken",
						"label": "_symbol",
						"offset": 0,
						"slot": "55",
						"type": "t_string_storage"
					},
					{
						"astId": 1417,
						"contract": "Desktop/work/dao-company1/contracts/sq.sol:MyToken",
						"label": "__gap",
						"offset": 0,
						"slot": "56",
						"type": "t_array(t_uint256)45_storage"
					},
					{
						"astId": 1559,
						"contract": "Desktop/work/dao-company1/contracts/sq.sol:MyToken",
						"label": "__gap",
						"offset": 0,
						"slot": "101",
						"type": "t_array(t_uint256)50_storage"
					},
					{
						"astId": 10,
						"contract": "Desktop/work/dao-company1/contracts/sq.sol:MyToken",
						"label": "_owner",
						"offset": 0,
						"slot": "151",
						"type": "t_address"
					},
					{
						"astId": 130,
						"contract": "Desktop/work/dao-company1/contracts/sq.sol:MyToken",
						"label": "__gap",
						"offset": 0,
						"slot": "152",
						"type": "t_array(t_uint256)49_storage"
					},
					{
						"astId": 509,
						"contract": "Desktop/work/dao-company1/contracts/sq.sol:MyToken",
						"label": "__gap",
						"offset": 0,
						"slot": "201",
						"type": "t_array(t_uint256)50_storage"
					},
					{
						"astId": 806,
						"contract": "Desktop/work/dao-company1/contracts/sq.sol:MyToken",
						"label": "__gap",
						"offset": 0,
						"slot": "251",
						"type": "t_array(t_uint256)50_storage"
					}
				],
				"types": {
					"t_address": {
						"encoding": "inplace",
						"label": "address",
						"numberOfBytes": "20"
					},
					"t_array(t_uint256)45_storage": {
						"base": "t_uint256",
						"encoding": "inplace",
						"label": "uint256[45]",
						"numberOfBytes": "1440"
					},
					"t_array(t_uint256)49_storage": {
						"base": "t_uint256",
						"encoding": "inplace",
						"label": "uint256[49]",
						"numberOfBytes": "1568"
					},
					"t_array(t_uint256)50_storage": {
						"base": "t_uint256",
						"encoding": "inplace",
						"label": "uint256[50]",
						"numberOfBytes": "1600"
					},
					"t_bool": {
						"encoding": "inplace",
						"label": "bool",
						"numberOfBytes": "1"
					},
					"t_mapping(t_address,t_mapping(t_address,t_uint256))": {
						"encoding": "mapping",
						"key": "t_address",
						"label": "mapping(address => mapping(address => uint256))",
						"numberOfBytes": "32",
						"value": "t_mapping(t_address,t_uint256)"
					},
					"t_mapping(t_address,t_uint256)": {
						"encoding": "mapping",
						"key": "t_address",
						"label": "mapping(address => uint256)",
						"numberOfBytes": "32",
						"value": "t_uint256"
					},
					"t_string_storage": {
						"encoding": "bytes",
						"label": "string",
						"numberOfBytes": "32"
					},
					"t_uint256": {
						"encoding": "inplace",
						"label": "uint256",
						"numberOfBytes": "32"
					},
					"t_uint8": {
						"encoding": "inplace",
						"label": "uint8",
						"numberOfBytes": "1"
					}
				}
			},
			"userdoc": {
				"kind": "user",
				"methods": {},
				"version": 1
			}
		}
	}
}