{
	"Desktop/work/dao-company/contracts/Demo.sol": {
		"Demo": {
			"abi": [
				{
					"inputs": [],
					"stateMutability": "nonpayable",
					"type": "constructor"
				},
				{
					"inputs": [
						{
							"internalType": "address",
							"name": "",
							"type": "address"
						}
					],
					"name": "balances",
					"outputs": [
						{
							"internalType": "uint256",
							"name": "",
							"type": "uint256"
						}
					],
					"stateMutability": "view",
					"type": "function"
				},
				{
					"inputs": [],
					"name": "message",
					"outputs": [
						{
							"internalType": "string",
							"name": "",
							"type": "string"
						}
					],
					"stateMutability": "view",
					"type": "function"
				},
				{
					"inputs": [],
					"name": "owner",
					"outputs": [
						{
							"internalType": "address",
							"name": "",
							"type": "address"
						}
					],
					"stateMutability": "view",
					"type": "function"
				},
				{
					"inputs": [
						{
							"internalType": "string",
							"name": "_message",
							"type": "string"
						}
					],
					"name": "pay",
					"outputs": [],
					"stateMutability": "payable",
					"type": "function"
				},
				{
					"inputs": [
						{
							"internalType": "address",
							"name": "_to",
							"type": "address"
						}
					],
					"name": "transferOwnership",
					"outputs": [],
					"stateMutability": "nonpayable",
					"type": "function"
				}
			],
			"devdoc": {
				"kind": "dev",
				"methods": {},
				"version": 1
			},
			"evm": {
				"assembly": "    /* \"Desktop/work/dao-company/contracts/Demo.sol\":58:527  contract Demo {... */\n  mstore(0x40, 0x80)\n    /* \"Desktop/work/dao-company/contracts/Demo.sol\":178:227  constructor() {... */\n  callvalue\n  dup1\n  iszero\n  tag_1\n  jumpi\n  0x00\n  dup1\n  revert\ntag_1:\n  pop\n    /* \"Desktop/work/dao-company/contracts/Demo.sol\":210:220  msg.sender */\n  caller\n    /* \"Desktop/work/dao-company/contracts/Demo.sol\":202:207  owner */\n  0x02\n  0x00\n    /* \"Desktop/work/dao-company/contracts/Demo.sol\":202:220  owner = msg.sender */\n  0x0100\n  exp\n  dup2\n  sload\n  dup2\n  0xffffffffffffffffffffffffffffffffffffffff\n  mul\n  not\n  and\n  swap1\n  dup4\n  0xffffffffffffffffffffffffffffffffffffffff\n  and\n  mul\n  or\n  swap1\n  sstore\n  pop\n    /* \"Desktop/work/dao-company/contracts/Demo.sol\":58:527  contract Demo {... */\n  dataSize(sub_0)\n  dup1\n  dataOffset(sub_0)\n  0x00\n  codecopy\n  0x00\n  return\nstop\n\nsub_0: assembly {\n        /* \"Desktop/work/dao-company/contracts/Demo.sol\":58:527  contract Demo {... */\n      mstore(0x40, 0x80)\n      jumpi(tag_1, lt(calldatasize, 0x04))\n      shr(0xe0, calldataload(0x00))\n      dup1\n      0x27e235e3\n      eq\n      tag_2\n      jumpi\n      dup1\n      0x2b66d72e\n      eq\n      tag_3\n      jumpi\n      dup1\n      0x8da5cb5b\n      eq\n      tag_4\n      jumpi\n      dup1\n      0xe21f37ce\n      eq\n      tag_5\n      jumpi\n      dup1\n      0xf2fde38b\n      eq\n      tag_6\n      jumpi\n    tag_1:\n      0x00\n      dup1\n      revert\n        /* \"Desktop/work/dao-company/contracts/Demo.sol\":105:145  mapping(address => uint) public balances */\n    tag_2:\n      callvalue\n      dup1\n      iszero\n      tag_7\n      jumpi\n      0x00\n      dup1\n      revert\n    tag_7:\n      pop\n      tag_8\n      0x04\n      dup1\n      calldatasize\n      sub\n      dup2\n      add\n      swap1\n      tag_9\n      swap2\n      swap1\n      tag_10\n      jump\t// in\n    tag_9:\n      tag_11\n      jump\t// in\n    tag_8:\n      mload(0x40)\n      tag_12\n      swap2\n      swap1\n      tag_13\n      jump\t// in\n    tag_12:\n      mload(0x40)\n      dup1\n      swap2\n      sub\n      swap1\n      return\n        /* \"Desktop/work/dao-company/contracts/Demo.sol\":354:525  function pay(string calldata _message) external payable {... */\n    tag_3:\n      tag_14\n      0x04\n      dup1\n      calldatasize\n      sub\n      dup2\n      add\n      swap1\n      tag_15\n      swap2\n      swap1\n      tag_16\n      jump\t// in\n    tag_15:\n      tag_17\n      jump\t// in\n    tag_14:\n      stop\n        /* \"Desktop/work/dao-company/contracts/Demo.sol\":151:171  address public owner */\n    tag_4:\n      callvalue\n      dup1\n      iszero\n      tag_18\n      jumpi\n      0x00\n      dup1\n      revert\n    tag_18:\n      pop\n      tag_19\n      tag_20\n      jump\t// in\n    tag_19:\n      mload(0x40)\n      tag_21\n      swap2\n      swap1\n      tag_22\n      jump\t// in\n    tag_21:\n      mload(0x40)\n      dup1\n      swap2\n      sub\n      swap1\n      return\n        /* \"Desktop/work/dao-company/contracts/Demo.sol\":78:99  string public message */\n    tag_5:\n      callvalue\n      dup1\n      iszero\n      tag_23\n      jumpi\n      0x00\n      dup1\n      revert\n    tag_23:\n      pop\n      tag_24\n      tag_25\n      jump\t// in\n    tag_24:\n      mload(0x40)\n      tag_26\n      swap2\n      swap1\n      tag_27\n      jump\t// in\n    tag_26:\n      mload(0x40)\n      dup1\n      swap2\n      sub\n      swap1\n      return\n        /* \"Desktop/work/dao-company/contracts/Demo.sol\":233:348  function transferOwnership(address _to) external {... */\n    tag_6:\n      callvalue\n      dup1\n      iszero\n      tag_28\n      jumpi\n      0x00\n      dup1\n      revert\n    tag_28:\n      pop\n      tag_29\n      0x04\n      dup1\n      calldatasize\n      sub\n      dup2\n      add\n      swap1\n      tag_30\n      swap2\n      swap1\n      tag_10\n      jump\t// in\n    tag_30:\n      tag_31\n      jump\t// in\n    tag_29:\n      stop\n        /* \"Desktop/work/dao-company/contracts/Demo.sol\":105:145  mapping(address => uint) public balances */\n    tag_11:\n      mstore(0x20, 0x01)\n      dup1\n      0x00\n      mstore\n      keccak256(0x00, 0x40)\n      0x00\n      swap2\n      pop\n      swap1\n      pop\n      sload\n      dup2\n      jump\t// out\n        /* \"Desktop/work/dao-company/contracts/Demo.sol\":354:525  function pay(string calldata _message) external payable {... */\n    tag_17:\n        /* \"Desktop/work/dao-company/contracts/Demo.sol\":442:447  owner */\n      0x02\n      0x00\n      swap1\n      sload\n      swap1\n      0x0100\n      exp\n      swap1\n      div\n      0xffffffffffffffffffffffffffffffffffffffff\n      and\n        /* \"Desktop/work/dao-company/contracts/Demo.sol\":428:447  msg.sender == owner */\n      0xffffffffffffffffffffffffffffffffffffffff\n      and\n        /* \"Desktop/work/dao-company/contracts/Demo.sol\":428:438  msg.sender */\n      caller\n        /* \"Desktop/work/dao-company/contracts/Demo.sol\":428:447  msg.sender == owner */\n      0xffffffffffffffffffffffffffffffffffffffff\n      and\n      eq\n        /* \"Desktop/work/dao-company/contracts/Demo.sol\":420:448  require(msg.sender == owner) */\n      tag_33\n      jumpi\n      0x00\n      dup1\n      revert\n    tag_33:\n        /* \"Desktop/work/dao-company/contracts/Demo.sol\":468:476  _message */\n      dup2\n      dup2\n        /* \"Desktop/work/dao-company/contracts/Demo.sol\":458:465  message */\n      0x00\n        /* \"Desktop/work/dao-company/contracts/Demo.sol\":458:476  message = _message */\n      swap2\n      dup3\n      tag_34\n      swap3\n      swap2\n      swap1\n      tag_35\n      jump\t// in\n    tag_34:\n      pop\n        /* \"Desktop/work/dao-company/contracts/Demo.sol\":509:518  msg.value */\n      callvalue\n        /* \"Desktop/work/dao-company/contracts/Demo.sol\":486:494  balances */\n      0x01\n        /* \"Desktop/work/dao-company/contracts/Demo.sol\":486:506  balances[msg.sender] */\n      0x00\n        /* \"Desktop/work/dao-company/contracts/Demo.sol\":495:505  msg.sender */\n      caller\n        /* \"Desktop/work/dao-company/contracts/Demo.sol\":486:506  balances[msg.sender] */\n      0xffffffffffffffffffffffffffffffffffffffff\n      and\n      0xffffffffffffffffffffffffffffffffffffffff\n      and\n      dup2\n      mstore\n      0x20\n      add\n      swap1\n      dup2\n      mstore\n      0x20\n      add\n      0x00\n      keccak256\n        /* \"Desktop/work/dao-company/contracts/Demo.sol\":486:518  balances[msg.sender] = msg.value */\n      dup2\n      swap1\n      sstore\n      pop\n        /* \"Desktop/work/dao-company/contracts/Demo.sol\":354:525  function pay(string calldata _message) external payable {... */\n      pop\n      pop\n      jump\t// out\n        /* \"Desktop/work/dao-company/contracts/Demo.sol\":151:171  address public owner */\n    tag_20:\n      0x02\n      0x00\n      swap1\n      sload\n      swap1\n      0x0100\n      exp\n      swap1\n      div\n      0xffffffffffffffffffffffffffffffffffffffff\n      and\n      dup2\n      jump\t// out\n        /* \"Desktop/work/dao-company/contracts/Demo.sol\":78:99  string public message */\n    tag_25:\n      0x00\n      dup1\n      sload\n      tag_36\n      swap1\n      tag_37\n      jump\t// in\n    tag_36:\n      dup1\n      0x1f\n      add\n      0x20\n      dup1\n      swap2\n      div\n      mul\n      0x20\n      add\n      mload(0x40)\n      swap1\n      dup2\n      add\n      0x40\n      mstore\n      dup1\n      swap3\n      swap2\n      swap1\n      dup2\n      dup2\n      mstore\n      0x20\n      add\n      dup3\n      dup1\n      sload\n      tag_38\n      swap1\n      tag_37\n      jump\t// in\n    tag_38:\n      dup1\n      iszero\n      tag_39\n      jumpi\n      dup1\n      0x1f\n      lt\n      tag_40\n      jumpi\n      0x0100\n      dup1\n      dup4\n      sload\n      div\n      mul\n      dup4\n      mstore\n      swap2\n      0x20\n      add\n      swap2\n      jump(tag_39)\n    tag_40:\n      dup3\n      add\n      swap2\n      swap1\n      0x00\n      mstore\n      keccak256(0x00, 0x20)\n      swap1\n    tag_41:\n      dup2\n      sload\n      dup2\n      mstore\n      swap1\n      0x01\n      add\n      swap1\n      0x20\n      add\n      dup1\n      dup4\n      gt\n      tag_41\n      jumpi\n      dup3\n      swap1\n      sub\n      0x1f\n      and\n      dup3\n      add\n      swap2\n    tag_39:\n      pop\n      pop\n      pop\n      pop\n      pop\n      dup2\n      jump\t// out\n        /* \"Desktop/work/dao-company/contracts/Demo.sol\":233:348  function transferOwnership(address _to) external {... */\n    tag_31:\n        /* \"Desktop/work/dao-company/contracts/Demo.sol\":314:319  owner */\n      0x02\n      0x00\n      swap1\n      sload\n      swap1\n      0x0100\n      exp\n      swap1\n      div\n      0xffffffffffffffffffffffffffffffffffffffff\n      and\n        /* \"Desktop/work/dao-company/contracts/Demo.sol\":300:319  msg.sender == owner */\n      0xffffffffffffffffffffffffffffffffffffffff\n      and\n        /* \"Desktop/work/dao-company/contracts/Demo.sol\":300:310  msg.sender */\n      caller\n        /* \"Desktop/work/dao-company/contracts/Demo.sol\":300:319  msg.sender == owner */\n      0xffffffffffffffffffffffffffffffffffffffff\n      and\n      eq\n        /* \"Desktop/work/dao-company/contracts/Demo.sol\":292:320  require(msg.sender == owner) */\n      tag_43\n      jumpi\n      0x00\n      dup1\n      revert\n    tag_43:\n        /* \"Desktop/work/dao-company/contracts/Demo.sol\":338:341  _to */\n      dup1\n        /* \"Desktop/work/dao-company/contracts/Demo.sol\":330:335  owner */\n      0x02\n      0x00\n        /* \"Desktop/work/dao-company/contracts/Demo.sol\":330:341  owner = _to */\n      0x0100\n      exp\n      dup2\n      sload\n      dup2\n      0xffffffffffffffffffffffffffffffffffffffff\n      mul\n      not\n      and\n      swap1\n      dup4\n      0xffffffffffffffffffffffffffffffffffffffff\n      and\n      mul\n      or\n      swap1\n      sstore\n      pop\n        /* \"Desktop/work/dao-company/contracts/Demo.sol\":233:348  function transferOwnership(address _to) external {... */\n      pop\n      jump\t// out\n        /* \"#utility.yul\":88:205   */\n    tag_45:\n        /* \"#utility.yul\":197:198   */\n      0x00\n        /* \"#utility.yul\":194:195   */\n      dup1\n        /* \"#utility.yul\":187:199   */\n      revert\n        /* \"#utility.yul\":211:328   */\n    tag_46:\n        /* \"#utility.yul\":320:321   */\n      0x00\n        /* \"#utility.yul\":317:318   */\n      dup1\n        /* \"#utility.yul\":310:322   */\n      revert\n        /* \"#utility.yul\":334:460   */\n    tag_47:\n        /* \"#utility.yul\":371:378   */\n      0x00\n        /* \"#utility.yul\":411:453   */\n      0xffffffffffffffffffffffffffffffffffffffff\n        /* \"#utility.yul\":404:409   */\n      dup3\n        /* \"#utility.yul\":400:454   */\n      and\n        /* \"#utility.yul\":389:454   */\n      swap1\n      pop\n        /* \"#utility.yul\":334:460   */\n      swap2\n      swap1\n      pop\n      jump\t// out\n        /* \"#utility.yul\":466:562   */\n    tag_48:\n        /* \"#utility.yul\":503:510   */\n      0x00\n        /* \"#utility.yul\":532:556   */\n      tag_87\n        /* \"#utility.yul\":550:555   */\n      dup3\n        /* \"#utility.yul\":532:556   */\n      tag_47\n      jump\t// in\n    tag_87:\n        /* \"#utility.yul\":521:556   */\n      swap1\n      pop\n        /* \"#utility.yul\":466:562   */\n      swap2\n      swap1\n      pop\n      jump\t// out\n        /* \"#utility.yul\":568:690   */\n    tag_49:\n        /* \"#utility.yul\":641:665   */\n      tag_89\n        /* \"#utility.yul\":659:664   */\n      dup2\n        /* \"#utility.yul\":641:665   */\n      tag_48\n      jump\t// in\n    tag_89:\n        /* \"#utility.yul\":634:639   */\n      dup2\n        /* \"#utility.yul\":631:666   */\n      eq\n        /* \"#utility.yul\":621:684   */\n      tag_90\n      jumpi\n        /* \"#utility.yul\":680:681   */\n      0x00\n        /* \"#utility.yul\":677:678   */\n      dup1\n        /* \"#utility.yul\":670:682   */\n      revert\n        /* \"#utility.yul\":621:684   */\n    tag_90:\n        /* \"#utility.yul\":568:690   */\n      pop\n      jump\t// out\n        /* \"#utility.yul\":696:835   */\n    tag_50:\n        /* \"#utility.yul\":742:747   */\n      0x00\n        /* \"#utility.yul\":780:786   */\n      dup2\n        /* \"#utility.yul\":767:787   */\n      calldataload\n        /* \"#utility.yul\":758:787   */\n      swap1\n      pop\n        /* \"#utility.yul\":796:829   */\n      tag_92\n        /* \"#utility.yul\":823:828   */\n      dup2\n        /* \"#utility.yul\":796:829   */\n      tag_49\n      jump\t// in\n    tag_92:\n        /* \"#utility.yul\":696:835   */\n      swap3\n      swap2\n      pop\n      pop\n      jump\t// out\n        /* \"#utility.yul\":841:1170   */\n    tag_10:\n        /* \"#utility.yul\":900:906   */\n      0x00\n        /* \"#utility.yul\":949:951   */\n      0x20\n        /* \"#utility.yul\":937:946   */\n      dup3\n        /* \"#utility.yul\":928:935   */\n      dup5\n        /* \"#utility.yul\":924:947   */\n      sub\n        /* \"#utility.yul\":920:952   */\n      slt\n        /* \"#utility.yul\":917:1036   */\n      iszero\n      tag_94\n      jumpi\n        /* \"#utility.yul\":955:1034   */\n      tag_95\n      tag_45\n      jump\t// in\n    tag_95:\n        /* \"#utility.yul\":917:1036   */\n    tag_94:\n        /* \"#utility.yul\":1075:1076   */\n      0x00\n        /* \"#utility.yul\":1100:1153   */\n      tag_96\n        /* \"#utility.yul\":1145:1152   */\n      dup5\n        /* \"#utility.yul\":1136:1142   */\n      dup3\n        /* \"#utility.yul\":1125:1134   */\n      dup6\n        /* \"#utility.yul\":1121:1143   */\n      add\n        /* \"#utility.yul\":1100:1153   */\n      tag_50\n      jump\t// in\n    tag_96:\n        /* \"#utility.yul\":1090:1153   */\n      swap2\n      pop\n        /* \"#utility.yul\":1046:1163   */\n      pop\n        /* \"#utility.yul\":841:1170   */\n      swap3\n      swap2\n      pop\n      pop\n      jump\t// out\n        /* \"#utility.yul\":1176:1253   */\n    tag_51:\n        /* \"#utility.yul\":1213:1220   */\n      0x00\n        /* \"#utility.yul\":1242:1247   */\n      dup2\n        /* \"#utility.yul\":1231:1247   */\n      swap1\n      pop\n        /* \"#utility.yul\":1176:1253   */\n      swap2\n      swap1\n      pop\n      jump\t// out\n        /* \"#utility.yul\":1259:1377   */\n    tag_52:\n        /* \"#utility.yul\":1346:1370   */\n      tag_99\n        /* \"#utility.yul\":1364:1369   */\n      dup2\n        /* \"#utility.yul\":1346:1370   */\n      tag_51\n      jump\t// in\n    tag_99:\n        /* \"#utility.yul\":1341:1344   */\n      dup3\n        /* \"#utility.yul\":1334:1371   */\n      mstore\n        /* \"#utility.yul\":1259:1377   */\n      pop\n      pop\n      jump\t// out\n        /* \"#utility.yul\":1383:1605   */\n    tag_13:\n        /* \"#utility.yul\":1476:1480   */\n      0x00\n        /* \"#utility.yul\":1514:1516   */\n      0x20\n        /* \"#utility.yul\":1503:1512   */\n      dup3\n        /* \"#utility.yul\":1499:1517   */\n      add\n        /* \"#utility.yul\":1491:1517   */\n      swap1\n      pop\n        /* \"#utility.yul\":1527:1598   */\n      tag_101\n        /* \"#utility.yul\":1595:1596   */\n      0x00\n        /* \"#utility.yul\":1584:1593   */\n      dup4\n        /* \"#utility.yul\":1580:1597   */\n      add\n        /* \"#utility.yul\":1571:1577   */\n      dup5\n        /* \"#utility.yul\":1527:1598   */\n      tag_52\n      jump\t// in\n    tag_101:\n        /* \"#utility.yul\":1383:1605   */\n      swap3\n      swap2\n      pop\n      pop\n      jump\t// out\n        /* \"#utility.yul\":1611:1728   */\n    tag_53:\n        /* \"#utility.yul\":1720:1721   */\n      0x00\n        /* \"#utility.yul\":1717:1718   */\n      dup1\n        /* \"#utility.yul\":1710:1722   */\n      revert\n        /* \"#utility.yul\":1734:1851   */\n    tag_54:\n        /* \"#utility.yul\":1843:1844   */\n      0x00\n        /* \"#utility.yul\":1840:1841   */\n      dup1\n        /* \"#utility.yul\":1833:1845   */\n      revert\n        /* \"#utility.yul\":1857:1974   */\n    tag_55:\n        /* \"#utility.yul\":1966:1967   */\n      0x00\n        /* \"#utility.yul\":1963:1964   */\n      dup1\n        /* \"#utility.yul\":1956:1968   */\n      revert\n        /* \"#utility.yul\":1994:2547   */\n    tag_56:\n        /* \"#utility.yul\":2052:2060   */\n      0x00\n        /* \"#utility.yul\":2062:2068   */\n      dup1\n        /* \"#utility.yul\":2112:2115   */\n      dup4\n        /* \"#utility.yul\":2105:2109   */\n      0x1f\n        /* \"#utility.yul\":2097:2103   */\n      dup5\n        /* \"#utility.yul\":2093:2110   */\n      add\n        /* \"#utility.yul\":2089:2116   */\n      slt\n        /* \"#utility.yul\":2079:2201   */\n      tag_106\n      jumpi\n        /* \"#utility.yul\":2120:2199   */\n      tag_107\n      tag_53\n      jump\t// in\n    tag_107:\n        /* \"#utility.yul\":2079:2201   */\n    tag_106:\n        /* \"#utility.yul\":2233:2239   */\n      dup3\n        /* \"#utility.yul\":2220:2240   */\n      calldataload\n        /* \"#utility.yul\":2210:2240   */\n      swap1\n      pop\n        /* \"#utility.yul\":2263:2281   */\n      0xffffffffffffffff\n        /* \"#utility.yul\":2255:2261   */\n      dup2\n        /* \"#utility.yul\":2252:2282   */\n      gt\n        /* \"#utility.yul\":2249:2366   */\n      iszero\n      tag_108\n      jumpi\n        /* \"#utility.yul\":2285:2364   */\n      tag_109\n      tag_54\n      jump\t// in\n    tag_109:\n        /* \"#utility.yul\":2249:2366   */\n    tag_108:\n        /* \"#utility.yul\":2399:2403   */\n      0x20\n        /* \"#utility.yul\":2391:2397   */\n      dup4\n        /* \"#utility.yul\":2387:2404   */\n      add\n        /* \"#utility.yul\":2375:2404   */\n      swap2\n      pop\n        /* \"#utility.yul\":2453:2456   */\n      dup4\n        /* \"#utility.yul\":2445:2449   */\n      0x01\n        /* \"#utility.yul\":2437:2443   */\n      dup3\n        /* \"#utility.yul\":2433:2450   */\n      mul\n        /* \"#utility.yul\":2423:2431   */\n      dup4\n        /* \"#utility.yul\":2419:2451   */\n      add\n        /* \"#utility.yul\":2416:2457   */\n      gt\n        /* \"#utility.yul\":2413:2541   */\n      iszero\n      tag_110\n      jumpi\n        /* \"#utility.yul\":2460:2539   */\n      tag_111\n      tag_55\n      jump\t// in\n    tag_111:\n        /* \"#utility.yul\":2413:2541   */\n    tag_110:\n        /* \"#utility.yul\":1994:2547   */\n      swap3\n      pop\n      swap3\n      swap1\n      pop\n      jump\t// out\n        /* \"#utility.yul\":2553:3082   */\n    tag_16:\n        /* \"#utility.yul\":2624:2630   */\n      0x00\n        /* \"#utility.yul\":2632:2638   */\n      dup1\n        /* \"#utility.yul\":2681:2683   */\n      0x20\n        /* \"#utility.yul\":2669:2678   */\n      dup4\n        /* \"#utility.yul\":2660:2667   */\n      dup6\n        /* \"#utility.yul\":2656:2679   */\n      sub\n        /* \"#utility.yul\":2652:2684   */\n      slt\n        /* \"#utility.yul\":2649:2768   */\n      iszero\n      tag_113\n      jumpi\n        /* \"#utility.yul\":2687:2766   */\n      tag_114\n      tag_45\n      jump\t// in\n    tag_114:\n        /* \"#utility.yul\":2649:2768   */\n    tag_113:\n        /* \"#utility.yul\":2835:2836   */\n      0x00\n        /* \"#utility.yul\":2824:2833   */\n      dup4\n        /* \"#utility.yul\":2820:2837   */\n      add\n        /* \"#utility.yul\":2807:2838   */\n      calldataload\n        /* \"#utility.yul\":2865:2883   */\n      0xffffffffffffffff\n        /* \"#utility.yul\":2857:2863   */\n      dup2\n        /* \"#utility.yul\":2854:2884   */\n      gt\n        /* \"#utility.yul\":2851:2968   */\n      iszero\n      tag_115\n      jumpi\n        /* \"#utility.yul\":2887:2966   */\n      tag_116\n      tag_46\n      jump\t// in\n    tag_116:\n        /* \"#utility.yul\":2851:2968   */\n    tag_115:\n        /* \"#utility.yul\":3000:3065   */\n      tag_117\n        /* \"#utility.yul\":3057:3064   */\n      dup6\n        /* \"#utility.yul\":3048:3054   */\n      dup3\n        /* \"#utility.yul\":3037:3046   */\n      dup7\n        /* \"#utility.yul\":3033:3055   */\n      add\n        /* \"#utility.yul\":3000:3065   */\n      tag_56\n      jump\t// in\n    tag_117:\n        /* \"#utility.yul\":2982:3065   */\n      swap3\n      pop\n      swap3\n      pop\n        /* \"#utility.yul\":2778:3075   */\n      pop\n        /* \"#utility.yul\":2553:3082   */\n      swap3\n      pop\n      swap3\n      swap1\n      pop\n      jump\t// out\n        /* \"#utility.yul\":3088:3206   */\n    tag_57:\n        /* \"#utility.yul\":3175:3199   */\n      tag_119\n        /* \"#utility.yul\":3193:3198   */\n      dup2\n        /* \"#utility.yul\":3175:3199   */\n      tag_48\n      jump\t// in\n    tag_119:\n        /* \"#utility.yul\":3170:3173   */\n      dup3\n        /* \"#utility.yul\":3163:3200   */\n      mstore\n        /* \"#utility.yul\":3088:3206   */\n      pop\n      pop\n      jump\t// out\n        /* \"#utility.yul\":3212:3434   */\n    tag_22:\n        /* \"#utility.yul\":3305:3309   */\n      0x00\n        /* \"#utility.yul\":3343:3345   */\n      0x20\n        /* \"#utility.yul\":3332:3341   */\n      dup3\n        /* \"#utility.yul\":3328:3346   */\n      add\n        /* \"#utility.yul\":3320:3346   */\n      swap1\n      pop\n        /* \"#utility.yul\":3356:3427   */\n      tag_121\n        /* \"#utility.yul\":3424:3425   */\n      0x00\n        /* \"#utility.yul\":3413:3422   */\n      dup4\n        /* \"#utility.yul\":3409:3426   */\n      add\n        /* \"#utility.yul\":3400:3406   */\n      dup5\n        /* \"#utility.yul\":3356:3427   */\n      tag_57\n      jump\t// in\n    tag_121:\n        /* \"#utility.yul\":3212:3434   */\n      swap3\n      swap2\n      pop\n      pop\n      jump\t// out\n        /* \"#utility.yul\":3440:3539   */\n    tag_58:\n        /* \"#utility.yul\":3492:3498   */\n      0x00\n        /* \"#utility.yul\":3526:3531   */\n      dup2\n        /* \"#utility.yul\":3520:3532   */\n      mload\n        /* \"#utility.yul\":3510:3532   */\n      swap1\n      pop\n        /* \"#utility.yul\":3440:3539   */\n      swap2\n      swap1\n      pop\n      jump\t// out\n        /* \"#utility.yul\":3545:3714   */\n    tag_59:\n        /* \"#utility.yul\":3629:3640   */\n      0x00\n        /* \"#utility.yul\":3663:3669   */\n      dup3\n        /* \"#utility.yul\":3658:3661   */\n      dup3\n        /* \"#utility.yul\":3651:3670   */\n      mstore\n        /* \"#utility.yul\":3703:3707   */\n      0x20\n        /* \"#utility.yul\":3698:3701   */\n      dup3\n        /* \"#utility.yul\":3694:3708   */\n      add\n        /* \"#utility.yul\":3679:3708   */\n      swap1\n      pop\n        /* \"#utility.yul\":3545:3714   */\n      swap3\n      swap2\n      pop\n      pop\n      jump\t// out\n        /* \"#utility.yul\":3720:3966   */\n    tag_60:\n        /* \"#utility.yul\":3801:3802   */\n      0x00\n        /* \"#utility.yul\":3811:3924   */\n    tag_125:\n        /* \"#utility.yul\":3825:3831   */\n      dup4\n        /* \"#utility.yul\":3822:3823   */\n      dup2\n        /* \"#utility.yul\":3819:3832   */\n      lt\n        /* \"#utility.yul\":3811:3924   */\n      iszero\n      tag_127\n      jumpi\n        /* \"#utility.yul\":3910:3911   */\n      dup1\n        /* \"#utility.yul\":3905:3908   */\n      dup3\n        /* \"#utility.yul\":3901:3912   */\n      add\n        /* \"#utility.yul\":3895:3913   */\n      mload\n        /* \"#utility.yul\":3891:3892   */\n      dup2\n        /* \"#utility.yul\":3886:3889   */\n      dup5\n        /* \"#utility.yul\":3882:3893   */\n      add\n        /* \"#utility.yul\":3875:3914   */\n      mstore\n        /* \"#utility.yul\":3847:3849   */\n      0x20\n        /* \"#utility.yul\":3844:3845   */\n      dup2\n        /* \"#utility.yul\":3840:3850   */\n      add\n        /* \"#utility.yul\":3835:3850   */\n      swap1\n      pop\n        /* \"#utility.yul\":3811:3924   */\n      jump(tag_125)\n    tag_127:\n        /* \"#utility.yul\":3958:3959   */\n      0x00\n        /* \"#utility.yul\":3949:3955   */\n      dup5\n        /* \"#utility.yul\":3944:3947   */\n      dup5\n        /* \"#utility.yul\":3940:3956   */\n      add\n        /* \"#utility.yul\":3933:3960   */\n      mstore\n        /* \"#utility.yul\":3782:3966   */\n      pop\n        /* \"#utility.yul\":3720:3966   */\n      pop\n      pop\n      pop\n      jump\t// out\n        /* \"#utility.yul\":3972:4074   */\n    tag_61:\n        /* \"#utility.yul\":4013:4019   */\n      0x00\n        /* \"#utility.yul\":4064:4066   */\n      0x1f\n        /* \"#utility.yul\":4060:4067   */\n      not\n        /* \"#utility.yul\":4055:4057   */\n      0x1f\n        /* \"#utility.yul\":4048:4053   */\n      dup4\n        /* \"#utility.yul\":4044:4058   */\n      add\n        /* \"#utility.yul\":4040:4068   */\n      and\n        /* \"#utility.yul\":4030:4068   */\n      swap1\n      pop\n        /* \"#utility.yul\":3972:4074   */\n      swap2\n      swap1\n      pop\n      jump\t// out\n        /* \"#utility.yul\":4080:4457   */\n    tag_62:\n        /* \"#utility.yul\":4168:4171   */\n      0x00\n        /* \"#utility.yul\":4196:4235   */\n      tag_130\n        /* \"#utility.yul\":4229:4234   */\n      dup3\n        /* \"#utility.yul\":4196:4235   */\n      tag_58\n      jump\t// in\n    tag_130:\n        /* \"#utility.yul\":4251:4322   */\n      tag_131\n        /* \"#utility.yul\":4315:4321   */\n      dup2\n        /* \"#utility.yul\":4310:4313   */\n      dup6\n        /* \"#utility.yul\":4251:4322   */\n      tag_59\n      jump\t// in\n    tag_131:\n        /* \"#utility.yul\":4244:4322   */\n      swap4\n      pop\n        /* \"#utility.yul\":4331:4396   */\n      tag_132\n        /* \"#utility.yul\":4389:4395   */\n      dup2\n        /* \"#utility.yul\":4384:4387   */\n      dup6\n        /* \"#utility.yul\":4377:4381   */\n      0x20\n        /* \"#utility.yul\":4370:4375   */\n      dup7\n        /* \"#utility.yul\":4366:4382   */\n      add\n        /* \"#utility.yul\":4331:4396   */\n      tag_60\n      jump\t// in\n    tag_132:\n        /* \"#utility.yul\":4421:4450   */\n      tag_133\n        /* \"#utility.yul\":4443:4449   */\n      dup2\n        /* \"#utility.yul\":4421:4450   */\n      tag_61\n      jump\t// in\n    tag_133:\n        /* \"#utility.yul\":4416:4419   */\n      dup5\n        /* \"#utility.yul\":4412:4451   */\n      add\n        /* \"#utility.yul\":4405:4451   */\n      swap2\n      pop\n        /* \"#utility.yul\":4172:4457   */\n      pop\n        /* \"#utility.yul\":4080:4457   */\n      swap3\n      swap2\n      pop\n      pop\n      jump\t// out\n        /* \"#utility.yul\":4463:4776   */\n    tag_27:\n        /* \"#utility.yul\":4576:4580   */\n      0x00\n        /* \"#utility.yul\":4614:4616   */\n      0x20\n        /* \"#utility.yul\":4603:4612   */\n      dup3\n        /* \"#utility.yul\":4599:4617   */\n      add\n        /* \"#utility.yul\":4591:4617   */\n      swap1\n      pop\n        /* \"#utility.yul\":4663:4672   */\n      dup2\n        /* \"#utility.yul\":4657:4661   */\n      dup2\n        /* \"#utility.yul\":4653:4673   */\n      sub\n        /* \"#utility.yul\":4649:4650   */\n      0x00\n        /* \"#utility.yul\":4638:4647   */\n      dup4\n        /* \"#utility.yul\":4634:4651   */\n      add\n        /* \"#utility.yul\":4627:4674   */\n      mstore\n        /* \"#utility.yul\":4691:4769   */\n      tag_135\n        /* \"#utility.yul\":4764:4768   */\n      dup2\n        /* \"#utility.yul\":4755:4761   */\n      dup5\n        /* \"#utility.yul\":4691:4769   */\n      tag_62\n      jump\t// in\n    tag_135:\n        /* \"#utility.yul\":4683:4769   */\n      swap1\n      pop\n        /* \"#utility.yul\":4463:4776   */\n      swap3\n      swap2\n      pop\n      pop\n      jump\t// out\n        /* \"#utility.yul\":4782:4879   */\n    tag_63:\n        /* \"#utility.yul\":4841:4847   */\n      0x00\n        /* \"#utility.yul\":4869:4872   */\n      dup3\n        /* \"#utility.yul\":4859:4872   */\n      swap1\n      pop\n        /* \"#utility.yul\":4782:4879   */\n      swap3\n      swap2\n      pop\n      pop\n      jump\t// out\n        /* \"#utility.yul\":4885:5065   */\n    tag_64:\n        /* \"#utility.yul\":4933:5010   */\n      0x4e487b7100000000000000000000000000000000000000000000000000000000\n        /* \"#utility.yul\":4930:4931   */\n      0x00\n        /* \"#utility.yul\":4923:5011   */\n      mstore\n        /* \"#utility.yul\":5030:5034   */\n      0x41\n        /* \"#utility.yul\":5027:5028   */\n      0x04\n        /* \"#utility.yul\":5020:5035   */\n      mstore\n        /* \"#utility.yul\":5054:5058   */\n      0x24\n        /* \"#utility.yul\":5051:5052   */\n      0x00\n        /* \"#utility.yul\":5044:5059   */\n      revert\n        /* \"#utility.yul\":5071:5251   */\n    tag_65:\n        /* \"#utility.yul\":5119:5196   */\n      0x4e487b7100000000000000000000000000000000000000000000000000000000\n        /* \"#utility.yul\":5116:5117   */\n      0x00\n        /* \"#utility.yul\":5109:5197   */\n      mstore\n        /* \"#utility.yul\":5216:5220   */\n      0x22\n        /* \"#utility.yul\":5213:5214   */\n      0x04\n        /* \"#utility.yul\":5206:5221   */\n      mstore\n        /* \"#utility.yul\":5240:5244   */\n      0x24\n        /* \"#utility.yul\":5237:5238   */\n      0x00\n        /* \"#utility.yul\":5230:5245   */\n      revert\n        /* \"#utility.yul\":5257:5577   */\n    tag_37:\n        /* \"#utility.yul\":5301:5307   */\n      0x00\n        /* \"#utility.yul\":5338:5339   */\n      0x02\n        /* \"#utility.yul\":5332:5336   */\n      dup3\n        /* \"#utility.yul\":5328:5340   */\n      div\n        /* \"#utility.yul\":5318:5340   */\n      swap1\n      pop\n        /* \"#utility.yul\":5385:5386   */\n      0x01\n        /* \"#utility.yul\":5379:5383   */\n      dup3\n        /* \"#utility.yul\":5375:5387   */\n      and\n        /* \"#utility.yul\":5406:5424   */\n      dup1\n        /* \"#utility.yul\":5396:5477   */\n      tag_140\n      jumpi\n        /* \"#utility.yul\":5462:5466   */\n      0x7f\n        /* \"#utility.yul\":5454:5460   */\n      dup3\n        /* \"#utility.yul\":5450:5467   */\n      and\n        /* \"#utility.yul\":5440:5467   */\n      swap2\n      pop\n        /* \"#utility.yul\":5396:5477   */\n    tag_140:\n        /* \"#utility.yul\":5524:5526   */\n      0x20\n        /* \"#utility.yul\":5516:5522   */\n      dup3\n        /* \"#utility.yul\":5513:5527   */\n      lt\n        /* \"#utility.yul\":5493:5511   */\n      dup2\n        /* \"#utility.yul\":5490:5528   */\n      sub\n        /* \"#utility.yul\":5487:5571   */\n      tag_141\n      jumpi\n        /* \"#utility.yul\":5543:5561   */\n      tag_142\n      tag_65\n      jump\t// in\n    tag_142:\n        /* \"#utility.yul\":5487:5571   */\n    tag_141:\n        /* \"#utility.yul\":5308:5577   */\n      pop\n        /* \"#utility.yul\":5257:5577   */\n      swap2\n      swap1\n      pop\n      jump\t// out\n        /* \"#utility.yul\":5583:5724   */\n    tag_66:\n        /* \"#utility.yul\":5632:5636   */\n      0x00\n        /* \"#utility.yul\":5655:5658   */\n      dup2\n        /* \"#utility.yul\":5647:5658   */\n      swap1\n      pop\n        /* \"#utility.yul\":5678:5681   */\n      dup2\n        /* \"#utility.yul\":5675:5676   */\n      0x00\n        /* \"#utility.yul\":5668:5682   */\n      mstore\n        /* \"#utility.yul\":5712:5716   */\n      0x20\n        /* \"#utility.yul\":5709:5710   */\n      0x00\n        /* \"#utility.yul\":5699:5717   */\n      keccak256\n        /* \"#utility.yul\":5691:5717   */\n      swap1\n      pop\n        /* \"#utility.yul\":5583:5724   */\n      swap2\n      swap1\n      pop\n      jump\t// out\n        /* \"#utility.yul\":5730:5823   */\n    tag_67:\n        /* \"#utility.yul\":5767:5773   */\n      0x00\n        /* \"#utility.yul\":5814:5816   */\n      0x20\n        /* \"#utility.yul\":5809:5811   */\n      0x1f\n        /* \"#utility.yul\":5802:5807   */\n      dup4\n        /* \"#utility.yul\":5798:5812   */\n      add\n        /* \"#utility.yul\":5794:5817   */\n      div\n        /* \"#utility.yul\":5784:5817   */\n      swap1\n      pop\n        /* \"#utility.yul\":5730:5823   */\n      swap2\n      swap1\n      pop\n      jump\t// out\n        /* \"#utility.yul\":5829:5936   */\n    tag_68:\n        /* \"#utility.yul\":5873:5881   */\n      0x00\n        /* \"#utility.yul\":5923:5928   */\n      dup3\n        /* \"#utility.yul\":5917:5921   */\n      dup3\n        /* \"#utility.yul\":5913:5929   */\n      shl\n        /* \"#utility.yul\":5892:5929   */\n      swap1\n      pop\n        /* \"#utility.yul\":5829:5936   */\n      swap3\n      swap2\n      pop\n      pop\n      jump\t// out\n        /* \"#utility.yul\":5942:6335   */\n    tag_69:\n        /* \"#utility.yul\":6011:6017   */\n      0x00\n        /* \"#utility.yul\":6061:6062   */\n      0x08\n        /* \"#utility.yul\":6049:6059   */\n      dup4\n        /* \"#utility.yul\":6045:6063   */\n      mul\n        /* \"#utility.yul\":6084:6181   */\n      tag_147\n        /* \"#utility.yul\":6114:6180   */\n      0xffffffffffffffffffffffffffffffffffffffffffffffffffffffffffffffff\n        /* \"#utility.yul\":6103:6112   */\n      dup3\n        /* \"#utility.yul\":6084:6181   */\n      tag_68\n      jump\t// in\n    tag_147:\n        /* \"#utility.yul\":6202:6241   */\n      tag_148\n        /* \"#utility.yul\":6232:6240   */\n      dup7\n        /* \"#utility.yul\":6221:6230   */\n      dup4\n        /* \"#utility.yul\":6202:6241   */\n      tag_68\n      jump\t// in\n    tag_148:\n        /* \"#utility.yul\":6190:6241   */\n      swap6\n      pop\n        /* \"#utility.yul\":6274:6278   */\n      dup1\n        /* \"#utility.yul\":6270:6279   */\n      not\n        /* \"#utility.yul\":6263:6268   */\n      dup5\n        /* \"#utility.yul\":6259:6280   */\n      and\n        /* \"#utility.yul\":6250:6280   */\n      swap4\n      pop\n        /* \"#utility.yul\":6323:6327   */\n      dup1\n        /* \"#utility.yul\":6313:6321   */\n      dup7\n        /* \"#utility.yul\":6309:6328   */\n      and\n        /* \"#utility.yul\":6302:6307   */\n      dup5\n        /* \"#utility.yul\":6299:6329   */\n      or\n        /* \"#utility.yul\":6289:6329   */\n      swap3\n      pop\n        /* \"#utility.yul\":6018:6335   */\n      pop\n      pop\n        /* \"#utility.yul\":5942:6335   */\n      swap4\n      swap3\n      pop\n      pop\n      pop\n      jump\t// out\n        /* \"#utility.yul\":6341:6401   */\n    tag_70:\n        /* \"#utility.yul\":6369:6372   */\n      0x00\n        /* \"#utility.yul\":6390:6395   */\n      dup2\n        /* \"#utility.yul\":6383:6395   */\n      swap1\n      pop\n        /* \"#utility.yul\":6341:6401   */\n      swap2\n      swap1\n      pop\n      jump\t// out\n        /* \"#utility.yul\":6407:6549   */\n    tag_71:\n        /* \"#utility.yul\":6457:6466   */\n      0x00\n        /* \"#utility.yul\":6490:6543   */\n      tag_151\n        /* \"#utility.yul\":6508:6542   */\n      tag_152\n        /* \"#utility.yul\":6517:6541   */\n      tag_153\n        /* \"#utility.yul\":6535:6540   */\n      dup5\n        /* \"#utility.yul\":6517:6541   */\n      tag_51\n      jump\t// in\n    tag_153:\n        /* \"#utility.yul\":6508:6542   */\n      tag_70\n      jump\t// in\n    tag_152:\n        /* \"#utility.yul\":6490:6543   */\n      tag_51\n      jump\t// in\n    tag_151:\n        /* \"#utility.yul\":6477:6543   */\n      swap1\n      pop\n        /* \"#utility.yul\":6407:6549   */\n      swap2\n      swap1\n      pop\n      jump\t// out\n        /* \"#utility.yul\":6555:6630   */\n    tag_72:\n        /* \"#utility.yul\":6598:6601   */\n      0x00\n        /* \"#utility.yul\":6619:6624   */\n      dup2\n        /* \"#utility.yul\":6612:6624   */\n      swap1\n      pop\n        /* \"#utility.yul\":6555:6630   */\n      swap2\n      swap1\n      pop\n      jump\t// out\n        /* \"#utility.yul\":6636:6905   */\n    tag_73:\n        /* \"#utility.yul\":6746:6785   */\n      tag_156\n        /* \"#utility.yul\":6777:6784   */\n      dup4\n        /* \"#utility.yul\":6746:6785   */\n      tag_71\n      jump\t// in\n    tag_156:\n        /* \"#utility.yul\":6807:6898   */\n      tag_157\n        /* \"#utility.yul\":6856:6897   */\n      tag_158\n        /* \"#utility.yul\":6880:6896   */\n      dup3\n        /* \"#utility.yul\":6856:6897   */\n      tag_72\n      jump\t// in\n    tag_158:\n        /* \"#utility.yul\":6848:6854   */\n      dup5\n        /* \"#utility.yul\":6841:6845   */\n      dup5\n        /* \"#utility.yul\":6835:6846   */\n      sload\n        /* \"#utility.yul\":6807:6898   */\n      tag_69\n      jump\t// in\n    tag_157:\n        /* \"#utility.yul\":6801:6805   */\n      dup3\n        /* \"#utility.yul\":6794:6899   */\n      sstore\n        /* \"#utility.yul\":6712:6905   */\n      pop\n        /* \"#utility.yul\":6636:6905   */\n      pop\n      pop\n      pop\n      jump\t// out\n        /* \"#utility.yul\":6911:6984   */\n    tag_74:\n        /* \"#utility.yul\":6956:6959   */\n      0x00\n        /* \"#utility.yul\":6911:6984   */\n      swap1\n      jump\t// out\n        /* \"#utility.yul\":6990:7179   */\n    tag_75:\n        /* \"#utility.yul\":7067:7099   */\n      tag_161\n      tag_74\n      jump\t// in\n    tag_161:\n        /* \"#utility.yul\":7108:7173   */\n      tag_162\n        /* \"#utility.yul\":7166:7172   */\n      dup2\n        /* \"#utility.yul\":7158:7164   */\n      dup5\n        /* \"#utility.yul\":7152:7156   */\n      dup5\n        /* \"#utility.yul\":7108:7173   */\n      tag_73\n      jump\t// in\n    tag_162:\n        /* \"#utility.yul\":7043:7179   */\n      pop\n        /* \"#utility.yul\":6990:7179   */\n      pop\n      pop\n      jump\t// out\n        /* \"#utility.yul\":7185:7371   */\n    tag_76:\n        /* \"#utility.yul\":7245:7365   */\n    tag_164:\n        /* \"#utility.yul\":7262:7265   */\n      dup2\n        /* \"#utility.yul\":7255:7260   */\n      dup2\n        /* \"#utility.yul\":7252:7266   */\n      lt\n        /* \"#utility.yul\":7245:7365   */\n      iszero\n      tag_166\n      jumpi\n        /* \"#utility.yul\":7316:7355   */\n      tag_167\n        /* \"#utility.yul\":7353:7354   */\n      0x00\n        /* \"#utility.yul\":7346:7351   */\n      dup3\n        /* \"#utility.yul\":7316:7355   */\n      tag_75\n      jump\t// in\n    tag_167:\n        /* \"#utility.yul\":7289:7290   */\n      0x01\n        /* \"#utility.yul\":7282:7287   */\n      dup2\n        /* \"#utility.yul\":7278:7291   */\n      add\n        /* \"#utility.yul\":7269:7291   */\n      swap1\n      pop\n        /* \"#utility.yul\":7245:7365   */\n      jump(tag_164)\n    tag_166:\n        /* \"#utility.yul\":7185:7371   */\n      pop\n      pop\n      jump\t// out\n        /* \"#utility.yul\":7377:7920   */\n    tag_77:\n        /* \"#utility.yul\":7478:7480   */\n      0x1f\n        /* \"#utility.yul\":7473:7476   */\n      dup3\n        /* \"#utility.yul\":7470:7481   */\n      gt\n        /* \"#utility.yul\":7467:7913   */\n      iszero\n      tag_169\n      jumpi\n        /* \"#utility.yul\":7512:7550   */\n      tag_170\n        /* \"#utility.yul\":7544:7549   */\n      dup2\n        /* \"#utility.yul\":7512:7550   */\n      tag_66\n      jump\t// in\n    tag_170:\n        /* \"#utility.yul\":7596:7625   */\n      tag_171\n        /* \"#utility.yul\":7614:7624   */\n      dup5\n        /* \"#utility.yul\":7596:7625   */\n      tag_67\n      jump\t// in\n    tag_171:\n        /* \"#utility.yul\":7586:7594   */\n      dup2\n        /* \"#utility.yul\":7582:7626   */\n      add\n        /* \"#utility.yul\":7779:7781   */\n      0x20\n        /* \"#utility.yul\":7767:7777   */\n      dup6\n        /* \"#utility.yul\":7764:7782   */\n      lt\n        /* \"#utility.yul\":7761:7810   */\n      iszero\n      tag_172\n      jumpi\n        /* \"#utility.yul\":7800:7808   */\n      dup2\n        /* \"#utility.yul\":7785:7808   */\n      swap1\n      pop\n        /* \"#utility.yul\":7761:7810   */\n    tag_172:\n        /* \"#utility.yul\":7823:7903   */\n      tag_173\n        /* \"#utility.yul\":7879:7901   */\n      tag_174\n        /* \"#utility.yul\":7897:7900   */\n      dup6\n        /* \"#utility.yul\":7879:7901   */\n      tag_67\n      jump\t// in\n    tag_174:\n        /* \"#utility.yul\":7869:7877   */\n      dup4\n        /* \"#utility.yul\":7865:7902   */\n      add\n        /* \"#utility.yul\":7852:7863   */\n      dup3\n        /* \"#utility.yul\":7823:7903   */\n      tag_76\n      jump\t// in\n    tag_173:\n        /* \"#utility.yul\":7482:7913   */\n      pop\n      pop\n        /* \"#utility.yul\":7467:7913   */\n    tag_169:\n        /* \"#utility.yul\":7377:7920   */\n      pop\n      pop\n      pop\n      jump\t// out\n        /* \"#utility.yul\":7926:8043   */\n    tag_78:\n        /* \"#utility.yul\":7980:7988   */\n      0x00\n        /* \"#utility.yul\":8030:8035   */\n      dup3\n        /* \"#utility.yul\":8024:8028   */\n      dup3\n        /* \"#utility.yul\":8020:8036   */\n      shr\n        /* \"#utility.yul\":7999:8036   */\n      swap1\n      pop\n        /* \"#utility.yul\":7926:8043   */\n      swap3\n      swap2\n      pop\n      pop\n      jump\t// out\n        /* \"#utility.yul\":8049:8218   */\n    tag_79:\n        /* \"#utility.yul\":8093:8099   */\n      0x00\n        /* \"#utility.yul\":8126:8177   */\n      tag_177\n        /* \"#utility.yul\":8174:8175   */\n      0x00\n        /* \"#utility.yul\":8170:8176   */\n      not\n        /* \"#utility.yul\":8162:8167   */\n      dup5\n        /* \"#utility.yul\":8159:8160   */\n      0x08\n        /* \"#utility.yul\":8155:8168   */\n      mul\n        /* \"#utility.yul\":8126:8177   */\n      tag_78\n      jump\t// in\n    tag_177:\n        /* \"#utility.yul\":8122:8178   */\n      not\n        /* \"#utility.yul\":8207:8211   */\n      dup1\n        /* \"#utility.yul\":8201:8205   */\n      dup4\n        /* \"#utility.yul\":8197:8212   */\n      and\n        /* \"#utility.yul\":8187:8212   */\n      swap2\n      pop\n        /* \"#utility.yul\":8100:8218   */\n      pop\n        /* \"#utility.yul\":8049:8218   */\n      swap3\n      swap2\n      pop\n      pop\n      jump\t// out\n        /* \"#utility.yul\":8223:8518   */\n    tag_80:\n        /* \"#utility.yul\":8299:8303   */\n      0x00\n        /* \"#utility.yul\":8445:8474   */\n      tag_179\n        /* \"#utility.yul\":8470:8473   */\n      dup4\n        /* \"#utility.yul\":8464:8468   */\n      dup4\n        /* \"#utility.yul\":8445:8474   */\n      tag_79\n      jump\t// in\n    tag_179:\n        /* \"#utility.yul\":8437:8474   */\n      swap2\n      pop\n        /* \"#utility.yul\":8507:8510   */\n      dup3\n        /* \"#utility.yul\":8504:8505   */\n      0x02\n        /* \"#utility.yul\":8500:8511   */\n      mul\n        /* \"#utility.yul\":8494:8498   */\n      dup3\n        /* \"#utility.yul\":8491:8512   */\n      or\n        /* \"#utility.yul\":8483:8512   */\n      swap1\n      pop\n        /* \"#utility.yul\":8223:8518   */\n      swap3\n      swap2\n      pop\n      pop\n      jump\t// out\n        /* \"#utility.yul\":8523:9926   */\n    tag_35:\n        /* \"#utility.yul\":8647:8691   */\n      tag_181\n        /* \"#utility.yul\":8687:8690   */\n      dup4\n        /* \"#utility.yul\":8682:8685   */\n      dup4\n        /* \"#utility.yul\":8647:8691   */\n      tag_63\n      jump\t// in\n    tag_181:\n        /* \"#utility.yul\":8756:8774   */\n      0xffffffffffffffff\n        /* \"#utility.yul\":8748:8754   */\n      dup2\n        /* \"#utility.yul\":8745:8775   */\n      gt\n        /* \"#utility.yul\":8742:8798   */\n      iszero\n      tag_182\n      jumpi\n        /* \"#utility.yul\":8778:8796   */\n      tag_183\n      tag_64\n      jump\t// in\n    tag_183:\n        /* \"#utility.yul\":8742:8798   */\n    tag_182:\n        /* \"#utility.yul\":8822:8860   */\n      tag_184\n        /* \"#utility.yul\":8854:8858   */\n      dup3\n        /* \"#utility.yul\":8848:8859   */\n      sload\n        /* \"#utility.yul\":8822:8860   */\n      tag_37\n      jump\t// in\n    tag_184:\n        /* \"#utility.yul\":8907:8974   */\n      tag_185\n        /* \"#utility.yul\":8967:8973   */\n      dup3\n        /* \"#utility.yul\":8959:8965   */\n      dup3\n        /* \"#utility.yul\":8953:8957   */\n      dup6\n        /* \"#utility.yul\":8907:8974   */\n      tag_77\n      jump\t// in\n    tag_185:\n        /* \"#utility.yul\":9001:9002   */\n      0x00\n        /* \"#utility.yul\":9030:9032   */\n      0x1f\n        /* \"#utility.yul\":9022:9028   */\n      dup4\n        /* \"#utility.yul\":9019:9033   */\n      gt\n        /* \"#utility.yul\":9047:9048   */\n      0x01\n        /* \"#utility.yul\":9042:9674   */\n      dup2\n      eq\n      tag_187\n      jumpi\n        /* \"#utility.yul\":9718:9719   */\n      0x00\n        /* \"#utility.yul\":9735:9741   */\n      dup5\n        /* \"#utility.yul\":9732:9816   */\n      iszero\n      tag_188\n      jumpi\n        /* \"#utility.yul\":9791:9800   */\n      dup3\n        /* \"#utility.yul\":9786:9789   */\n      dup8\n        /* \"#utility.yul\":9782:9801   */\n      add\n        /* \"#utility.yul\":9769:9802   */\n      calldataload\n        /* \"#utility.yul\":9760:9802   */\n      swap1\n      pop\n        /* \"#utility.yul\":9732:9816   */\n    tag_188:\n        /* \"#utility.yul\":9842:9909   */\n      tag_189\n        /* \"#utility.yul\":9902:9908   */\n      dup6\n        /* \"#utility.yul\":9895:9900   */\n      dup3\n        /* \"#utility.yul\":9842:9909   */\n      tag_80\n      jump\t// in\n    tag_189:\n        /* \"#utility.yul\":9836:9840   */\n      dup7\n        /* \"#utility.yul\":9829:9910   */\n      sstore\n        /* \"#utility.yul\":9691:9920   */\n      pop\n        /* \"#utility.yul\":9012:9920   */\n      jump(tag_186)\n        /* \"#utility.yul\":9042:9674   */\n    tag_187:\n        /* \"#utility.yul\":9094:9098   */\n      0x1f\n        /* \"#utility.yul\":9090:9099   */\n      not\n        /* \"#utility.yul\":9082:9088   */\n      dup5\n        /* \"#utility.yul\":9078:9100   */\n      and\n        /* \"#utility.yul\":9128:9165   */\n      tag_190\n        /* \"#utility.yul\":9160:9164   */\n      dup7\n        /* \"#utility.yul\":9128:9165   */\n      tag_66\n      jump\t// in\n    tag_190:\n        /* \"#utility.yul\":9187:9188   */\n      0x00\n        /* \"#utility.yul\":9201:9416   */\n    tag_191:\n        /* \"#utility.yul\":9215:9222   */\n      dup3\n        /* \"#utility.yul\":9212:9213   */\n      dup2\n        /* \"#utility.yul\":9209:9223   */\n      lt\n        /* \"#utility.yul\":9201:9416   */\n      iszero\n      tag_193\n      jumpi\n        /* \"#utility.yul\":9301:9310   */\n      dup5\n        /* \"#utility.yul\":9296:9299   */\n      dup10\n        /* \"#utility.yul\":9292:9311   */\n      add\n        /* \"#utility.yul\":9279:9312   */\n      calldataload\n        /* \"#utility.yul\":9271:9277   */\n      dup3\n        /* \"#utility.yul\":9264:9313   */\n      sstore\n        /* \"#utility.yul\":9352:9353   */\n      0x01\n        /* \"#utility.yul\":9344:9350   */\n      dup3\n        /* \"#utility.yul\":9340:9354   */\n      add\n        /* \"#utility.yul\":9330:9354   */\n      swap2\n      pop\n        /* \"#utility.yul\":9399:9401   */\n      0x20\n        /* \"#utility.yul\":9388:9397   */\n      dup6\n        /* \"#utility.yul\":9384:9402   */\n      add\n        /* \"#utility.yul\":9371:9402   */\n      swap5\n      pop\n        /* \"#utility.yul\":9238:9242   */\n      0x20\n        /* \"#utility.yul\":9235:9236   */\n      dup2\n        /* \"#utility.yul\":9231:9243   */\n      add\n        /* \"#utility.yul\":9226:9243   */\n      swap1\n      pop\n        /* \"#utility.yul\":9201:9416   */\n      jump(tag_191)\n    tag_193:\n        /* \"#utility.yul\":9444:9450   */\n      dup7\n        /* \"#utility.yul\":9435:9442   */\n      dup4\n        /* \"#utility.yul\":9432:9451   */\n      lt\n        /* \"#utility.yul\":9429:9615   */\n      iszero\n      tag_194\n      jumpi\n        /* \"#utility.yul\":9509:9518   */\n      dup5\n        /* \"#utility.yul\":9504:9507   */\n      dup10\n        /* \"#utility.yul\":9500:9519   */\n      add\n        /* \"#utility.yul\":9487:9520   */\n      calldataload\n        /* \"#utility.yul\":9552:9600   */\n      tag_195\n        /* \"#utility.yul\":9594:9598   */\n      0x1f\n        /* \"#utility.yul\":9586:9592   */\n      dup10\n        /* \"#utility.yul\":9582:9599   */\n      and\n        /* \"#utility.yul\":9571:9580   */\n      dup3\n        /* \"#utility.yul\":9552:9600   */\n      tag_79\n      jump\t// in\n    tag_195:\n        /* \"#utility.yul\":9544:9550   */\n      dup4\n        /* \"#utility.yul\":9537:9601   */\n      sstore\n        /* \"#utility.yul\":9452:9615   */\n      pop\n        /* \"#utility.yul\":9429:9615   */\n    tag_194:\n        /* \"#utility.yul\":9661:9662   */\n      0x01\n        /* \"#utility.yul\":9657:9658   */\n      0x02\n        /* \"#utility.yul\":9649:9655   */\n      dup9\n        /* \"#utility.yul\":9645:9659   */\n      mul\n        /* \"#utility.yul\":9641:9663   */\n      add\n        /* \"#utility.yul\":9635:9639   */\n      dup9\n        /* \"#utility.yul\":9628:9664   */\n      sstore\n        /* \"#utility.yul\":9049:9674   */\n      pop\n      pop\n      pop\n        /* \"#utility.yul\":9012:9920   */\n    tag_186:\n      pop\n        /* \"#utility.yul\":8622:9926   */\n      pop\n      pop\n      pop\n        /* \"#utility.yul\":8523:9926   */\n      pop\n      pop\n      pop\n      jump\t// out\n\n    auxdata: 0xa2646970667358221220747ad9bb65e147b7fe9877b84276ca3e158ccb9cadf4c327e17e69fdcac7321b64736f6c63430008100033\n}\n",
				"bytecode": {
					"linkReferences": {},
					"object": "608060405234801561001057600080fd5b5033600260006101000a81548173ffffffffffffffffffffffffffffffffffffffff021916908373ffffffffffffffffffffffffffffffffffffffff1602179055506108e8806100616000396000f3fe60806040526004361061004a5760003560e01c806327e235e31461004f5780632b66d72e1461008c5780638da5cb5b146100a8578063e21f37ce146100d3578063f2fde38b146100fe575b600080fd5b34801561005b57600080fd5b50610076600480360381019061007191906103ad565b610127565b60405161008391906103f3565b60405180910390f35b6100a660048036038101906100a19190610473565b61013f565b005b3480156100b457600080fd5b506100bd6101f3565b6040516100ca91906104cf565b60405180910390f35b3480156100df57600080fd5b506100e8610219565b6040516100f5919061057a565b60405180910390f35b34801561010a57600080fd5b50610125600480360381019061012091906103ad565b6102a7565b005b60016020528060005260406000206000915090505481565b600260009054906101000a900473ffffffffffffffffffffffffffffffffffffffff1673ffffffffffffffffffffffffffffffffffffffff163373ffffffffffffffffffffffffffffffffffffffff161461019957600080fd5b8181600091826101aa9291906107e2565b5034600160003373ffffffffffffffffffffffffffffffffffffffff1673ffffffffffffffffffffffffffffffffffffffff168152602001908152602001600020819055505050565b600260009054906101000a900473ffffffffffffffffffffffffffffffffffffffff1681565b6000805461022690610605565b80601f016020809104026020016040519081016040528092919081815260200182805461025290610605565b801561029f5780601f106102745761010080835404028352916020019161029f565b820191906000526020600020905b81548152906001019060200180831161028257829003601f168201915b505050505081565b600260009054906101000a900473ffffffffffffffffffffffffffffffffffffffff1673ffffffffffffffffffffffffffffffffffffffff163373ffffffffffffffffffffffffffffffffffffffff161461030157600080fd5b80600260006101000a81548173ffffffffffffffffffffffffffffffffffffffff021916908373ffffffffffffffffffffffffffffffffffffffff16021790555050565b600080fd5b600080fd5b600073ffffffffffffffffffffffffffffffffffffffff82169050919050565b600061037a8261034f565b9050919050565b61038a8161036f565b811461039557600080fd5b50565b6000813590506103a781610381565b92915050565b6000602082840312156103c3576103c2610345565b5b60006103d184828501610398565b91505092915050565b6000819050919050565b6103ed816103da565b82525050565b600060208201905061040860008301846103e4565b92915050565b600080fd5b600080fd5b600080fd5b60008083601f8401126104335761043261040e565b5b8235905067ffffffffffffffff8111156104505761044f610413565b5b60208301915083600182028301111561046c5761046b610418565b5b9250929050565b6000806020838503121561048a57610489610345565b5b600083013567ffffffffffffffff8111156104a8576104a761034a565b5b6104b48582860161041d565b92509250509250929050565b6104c98161036f565b82525050565b60006020820190506104e460008301846104c0565b92915050565b600081519050919050565b600082825260208201905092915050565b60005b83811015610524578082015181840152602081019050610509565b60008484015250505050565b6000601f19601f8301169050919050565b600061054c826104ea565b61055681856104f5565b9350610566818560208601610506565b61056f81610530565b840191505092915050565b600060208201905081810360008301526105948184610541565b905092915050565b600082905092915050565b7f4e487b7100000000000000000000000000000000000000000000000000000000600052604160045260246000fd5b7f4e487b7100000000000000000000000000000000000000000000000000000000600052602260045260246000fd5b6000600282049050600182168061061d57607f821691505b6020821081036106305761062f6105d6565b5b50919050565b60008190508160005260206000209050919050565b60006020601f8301049050919050565b600082821b905092915050565b6000600883026106987fffffffffffffffffffffffffffffffffffffffffffffffffffffffffffffffff8261065b565b6106a2868361065b565b95508019841693508086168417925050509392505050565b6000819050919050565b60006106df6106da6106d5846103da565b6106ba565b6103da565b9050919050565b6000819050919050565b6106f9836106c4565b61070d610705826106e6565b848454610668565b825550505050565b600090565b610722610715565b61072d8184846106f0565b505050565b5b818110156107515761074660008261071a565b600181019050610733565b5050565b601f8211156107965761076781610636565b6107708461064b565b8101602085101561077f578190505b61079361078b8561064b565b830182610732565b50505b505050565b600082821c905092915050565b60006107b96000198460080261079b565b1980831691505092915050565b60006107d283836107a8565b9150826002028217905092915050565b6107ec838361059c565b67ffffffffffffffff811115610805576108046105a7565b5b61080f8254610605565b61081a828285610755565b6000601f8311600181146108495760008415610837578287013590505b61084185826107c6565b8655506108a9565b601f19841661085786610636565b60005b8281101561087f5784890135825560018201915060208501945060208101905061085a565b8683101561089c5784890135610898601f8916826107a8565b8355505b6001600288020188555050505b5050505050505056fea2646970667358221220747ad9bb65e147b7fe9877b84276ca3e158ccb9cadf4c327e17e69fdcac7321b64736f6c63430008100033",
					"opcodes": "PUSH1 0x80 PUSH1 0x40 MSTORE CALLVALUE DUP1 ISZERO PUSH2 0x10 JUMPI PUSH1 0x0 DUP1 REVERT JUMPDEST POP CALLER PUSH1 0x2 PUSH1 0x0 PUSH2 0x100 EXP DUP2 SLOAD DUP2 PUSH20 0xFFFFFFFFFFFFFFFFFFFFFFFFFFFFFFFFFFFFFFFF MUL NOT AND SWAP1 DUP4 PUSH20 0xFFFFFFFFFFFFFFFFFFFFFFFFFFFFFFFFFFFFFFFF AND MUL OR SWAP1 SSTORE POP PUSH2 0x8E8 DUP1 PUSH2 0x61 PUSH1 0x0 CODECOPY PUSH1 0x0 RETURN INVALID PUSH1 0x80 PUSH1 0x40 MSTORE PUSH1 0x4 CALLDATASIZE LT PUSH2 0x4A JUMPI PUSH1 0x0 CALLDATALOAD PUSH1 0xE0 SHR DUP1 PUSH4 0x27E235E3 EQ PUSH2 0x4F JUMPI DUP1 PUSH4 0x2B66D72E EQ PUSH2 0x8C JUMPI DUP1 PUSH4 0x8DA5CB5B EQ PUSH2 0xA8 JUMPI DUP1 PUSH4 0xE21F37CE EQ PUSH2 0xD3 JUMPI DUP1 PUSH4 0xF2FDE38B EQ PUSH2 0xFE JUMPI JUMPDEST PUSH1 0x0 DUP1 REVERT JUMPDEST CALLVALUE DUP1 ISZERO PUSH2 0x5B JUMPI PUSH1 0x0 DUP1 REVERT JUMPDEST POP PUSH2 0x76 PUSH1 0x4 DUP1 CALLDATASIZE SUB DUP2 ADD SWAP1 PUSH2 0x71 SWAP2 SWAP1 PUSH2 0x3AD JUMP JUMPDEST PUSH2 0x127 JUMP JUMPDEST PUSH1 0x40 MLOAD PUSH2 0x83 SWAP2 SWAP1 PUSH2 0x3F3 JUMP JUMPDEST PUSH1 0x40 MLOAD DUP1 SWAP2 SUB SWAP1 RETURN JUMPDEST PUSH2 0xA6 PUSH1 0x4 DUP1 CALLDATASIZE SUB DUP2 ADD SWAP1 PUSH2 0xA1 SWAP2 SWAP1 PUSH2 0x473 JUMP JUMPDEST PUSH2 0x13F JUMP JUMPDEST STOP JUMPDEST CALLVALUE DUP1 ISZERO PUSH2 0xB4 JUMPI PUSH1 0x0 DUP1 REVERT JUMPDEST POP PUSH2 0xBD PUSH2 0x1F3 JUMP JUMPDEST PUSH1 0x40 MLOAD PUSH2 0xCA SWAP2 SWAP1 PUSH2 0x4CF JUMP JUMPDEST PUSH1 0x40 MLOAD DUP1 SWAP2 SUB SWAP1 RETURN JUMPDEST CALLVALUE DUP1 ISZERO PUSH2 0xDF JUMPI PUSH1 0x0 DUP1 REVERT JUMPDEST POP PUSH2 0xE8 PUSH2 0x219 JUMP JUMPDEST PUSH1 0x40 MLOAD PUSH2 0xF5 SWAP2 SWAP1 PUSH2 0x57A JUMP JUMPDEST PUSH1 0x40 MLOAD DUP1 SWAP2 SUB SWAP1 RETURN JUMPDEST CALLVALUE DUP1 ISZERO PUSH2 0x10A JUMPI PUSH1 0x0 DUP1 REVERT JUMPDEST POP PUSH2 0x125 PUSH1 0x4 DUP1 CALLDATASIZE SUB DUP2 ADD SWAP1 PUSH2 0x120 SWAP2 SWAP1 PUSH2 0x3AD JUMP JUMPDEST PUSH2 0x2A7 JUMP JUMPDEST STOP JUMPDEST PUSH1 0x1 PUSH1 0x20 MSTORE DUP1 PUSH1 0x0 MSTORE PUSH1 0x40 PUSH1 0x0 KECCAK256 PUSH1 0x0 SWAP2 POP SWAP1 POP SLOAD DUP2 JUMP JUMPDEST PUSH1 0x2 PUSH1 0x0 SWAP1 SLOAD SWAP1 PUSH2 0x100 EXP SWAP1 DIV PUSH20 0xFFFFFFFFFFFFFFFFFFFFFFFFFFFFFFFFFFFFFFFF AND PUSH20 0xFFFFFFFFFFFFFFFFFFFFFFFFFFFFFFFFFFFFFFFF AND CALLER PUSH20 0xFFFFFFFFFFFFFFFFFFFFFFFFFFFFFFFFFFFFFFFF AND EQ PUSH2 0x199 JUMPI PUSH1 0x0 DUP1 REVERT JUMPDEST DUP2 DUP2 PUSH1 0x0 SWAP2 DUP3 PUSH2 0x1AA SWAP3 SWAP2 SWAP1 PUSH2 0x7E2 JUMP JUMPDEST POP CALLVALUE PUSH1 0x1 PUSH1 0x0 CALLER PUSH20 0xFFFFFFFFFFFFFFFFFFFFFFFFFFFFFFFFFFFFFFFF AND PUSH20 0xFFFFFFFFFFFFFFFFFFFFFFFFFFFFFFFFFFFFFFFF AND DUP2 MSTORE PUSH1 0x20 ADD SWAP1 DUP2 MSTORE PUSH1 0x20 ADD PUSH1 0x0 KECCAK256 DUP2 SWAP1 SSTORE POP POP POP JUMP JUMPDEST PUSH1 0x2 PUSH1 0x0 SWAP1 SLOAD SWAP1 PUSH2 0x100 EXP SWAP1 DIV PUSH20 0xFFFFFFFFFFFFFFFFFFFFFFFFFFFFFFFFFFFFFFFF AND DUP2 JUMP JUMPDEST PUSH1 0x0 DUP1 SLOAD PUSH2 0x226 SWAP1 PUSH2 0x605 JUMP JUMPDEST DUP1 PUSH1 0x1F ADD PUSH1 0x20 DUP1 SWAP2 DIV MUL PUSH1 0x20 ADD PUSH1 0x40 MLOAD SWAP1 DUP2 ADD PUSH1 0x40 MSTORE DUP1 SWAP3 SWAP2 SWAP1 DUP2 DUP2 MSTORE PUSH1 0x20 ADD DUP3 DUP1 SLOAD PUSH2 0x252 SWAP1 PUSH2 0x605 JUMP JUMPDEST DUP1 ISZERO PUSH2 0x29F JUMPI DUP1 PUSH1 0x1F LT PUSH2 0x274 JUMPI PUSH2 0x100 DUP1 DUP4 SLOAD DIV MUL DUP4 MSTORE SWAP2 PUSH1 0x20 ADD SWAP2 PUSH2 0x29F JUMP JUMPDEST DUP3 ADD SWAP2 SWAP1 PUSH1 0x0 MSTORE PUSH1 0x20 PUSH1 0x0 KECCAK256 SWAP1 JUMPDEST DUP2 SLOAD DUP2 MSTORE SWAP1 PUSH1 0x1 ADD SWAP1 PUSH1 0x20 ADD DUP1 DUP4 GT PUSH2 0x282 JUMPI DUP3 SWAP1 SUB PUSH1 0x1F AND DUP3 ADD SWAP2 JUMPDEST POP POP POP POP POP DUP2 JUMP JUMPDEST PUSH1 0x2 PUSH1 0x0 SWAP1 SLOAD SWAP1 PUSH2 0x100 EXP SWAP1 DIV PUSH20 0xFFFFFFFFFFFFFFFFFFFFFFFFFFFFFFFFFFFFFFFF AND PUSH20 0xFFFFFFFFFFFFFFFFFFFFFFFFFFFFFFFFFFFFFFFF AND CALLER PUSH20 0xFFFFFFFFFFFFFFFFFFFFFFFFFFFFFFFFFFFFFFFF AND EQ PUSH2 0x301 JUMPI PUSH1 0x0 DUP1 REVERT JUMPDEST DUP1 PUSH1 0x2 PUSH1 0x0 PUSH2 0x100 EXP DUP2 SLOAD DUP2 PUSH20 0xFFFFFFFFFFFFFFFFFFFFFFFFFFFFFFFFFFFFFFFF MUL NOT AND SWAP1 DUP4 PUSH20 0xFFFFFFFFFFFFFFFFFFFFFFFFFFFFFFFFFFFFFFFF AND MUL OR SWAP1 SSTORE POP POP JUMP JUMPDEST PUSH1 0x0 DUP1 REVERT JUMPDEST PUSH1 0x0 DUP1 REVERT JUMPDEST PUSH1 0x0 PUSH20 0xFFFFFFFFFFFFFFFFFFFFFFFFFFFFFFFFFFFFFFFF DUP3 AND SWAP1 POP SWAP2 SWAP1 POP JUMP JUMPDEST PUSH1 0x0 PUSH2 0x37A DUP3 PUSH2 0x34F JUMP JUMPDEST SWAP1 POP SWAP2 SWAP1 POP JUMP JUMPDEST PUSH2 0x38A DUP2 PUSH2 0x36F JUMP JUMPDEST DUP2 EQ PUSH2 0x395 JUMPI PUSH1 0x0 DUP1 REVERT JUMPDEST POP JUMP JUMPDEST PUSH1 0x0 DUP2 CALLDATALOAD SWAP1 POP PUSH2 0x3A7 DUP2 PUSH2 0x381 JUMP JUMPDEST SWAP3 SWAP2 POP POP JUMP JUMPDEST PUSH1 0x0 PUSH1 0x20 DUP3 DUP5 SUB SLT ISZERO PUSH2 0x3C3 JUMPI PUSH2 0x3C2 PUSH2 0x345 JUMP JUMPDEST JUMPDEST PUSH1 0x0 PUSH2 0x3D1 DUP5 DUP3 DUP6 ADD PUSH2 0x398 JUMP JUMPDEST SWAP2 POP POP SWAP3 SWAP2 POP POP JUMP JUMPDEST PUSH1 0x0 DUP2 SWAP1 POP SWAP2 SWAP1 POP JUMP JUMPDEST PUSH2 0x3ED DUP2 PUSH2 0x3DA JUMP JUMPDEST DUP3 MSTORE POP POP JUMP JUMPDEST PUSH1 0x0 PUSH1 0x20 DUP3 ADD SWAP1 POP PUSH2 0x408 PUSH1 0x0 DUP4 ADD DUP5 PUSH2 0x3E4 JUMP JUMPDEST SWAP3 SWAP2 POP POP JUMP JUMPDEST PUSH1 0x0 DUP1 REVERT JUMPDEST PUSH1 0x0 DUP1 REVERT JUMPDEST PUSH1 0x0 DUP1 REVERT JUMPDEST PUSH1 0x0 DUP1 DUP4 PUSH1 0x1F DUP5 ADD SLT PUSH2 0x433 JUMPI PUSH2 0x432 PUSH2 0x40E JUMP JUMPDEST JUMPDEST DUP3 CALLDATALOAD SWAP1 POP PUSH8 0xFFFFFFFFFFFFFFFF DUP2 GT ISZERO PUSH2 0x450 JUMPI PUSH2 0x44F PUSH2 0x413 JUMP JUMPDEST JUMPDEST PUSH1 0x20 DUP4 ADD SWAP2 POP DUP4 PUSH1 0x1 DUP3 MUL DUP4 ADD GT ISZERO PUSH2 0x46C JUMPI PUSH2 0x46B PUSH2 0x418 JUMP JUMPDEST JUMPDEST SWAP3 POP SWAP3 SWAP1 POP JUMP JUMPDEST PUSH1 0x0 DUP1 PUSH1 0x20 DUP4 DUP6 SUB SLT ISZERO PUSH2 0x48A JUMPI PUSH2 0x489 PUSH2 0x345 JUMP JUMPDEST JUMPDEST PUSH1 0x0 DUP4 ADD CALLDATALOAD PUSH8 0xFFFFFFFFFFFFFFFF DUP2 GT ISZERO PUSH2 0x4A8 JUMPI PUSH2 0x4A7 PUSH2 0x34A JUMP JUMPDEST JUMPDEST PUSH2 0x4B4 DUP6 DUP3 DUP7 ADD PUSH2 0x41D JUMP JUMPDEST SWAP3 POP SWAP3 POP POP SWAP3 POP SWAP3 SWAP1 POP JUMP JUMPDEST PUSH2 0x4C9 DUP2 PUSH2 0x36F JUMP JUMPDEST DUP3 MSTORE POP POP JUMP JUMPDEST PUSH1 0x0 PUSH1 0x20 DUP3 ADD SWAP1 POP PUSH2 0x4E4 PUSH1 0x0 DUP4 ADD DUP5 PUSH2 0x4C0 JUMP JUMPDEST SWAP3 SWAP2 POP POP JUMP JUMPDEST PUSH1 0x0 DUP2 MLOAD SWAP1 POP SWAP2 SWAP1 POP JUMP JUMPDEST PUSH1 0x0 DUP3 DUP3 MSTORE PUSH1 0x20 DUP3 ADD SWAP1 POP SWAP3 SWAP2 POP POP JUMP JUMPDEST PUSH1 0x0 JUMPDEST DUP4 DUP2 LT ISZERO PUSH2 0x524 JUMPI DUP1 DUP3 ADD MLOAD DUP2 DUP5 ADD MSTORE PUSH1 0x20 DUP2 ADD SWAP1 POP PUSH2 0x509 JUMP JUMPDEST PUSH1 0x0 DUP5 DUP5 ADD MSTORE POP POP POP POP JUMP JUMPDEST PUSH1 0x0 PUSH1 0x1F NOT PUSH1 0x1F DUP4 ADD AND SWAP1 POP SWAP2 SWAP1 POP JUMP JUMPDEST PUSH1 0x0 PUSH2 0x54C DUP3 PUSH2 0x4EA JUMP JUMPDEST PUSH2 0x556 DUP2 DUP6 PUSH2 0x4F5 JUMP JUMPDEST SWAP4 POP PUSH2 0x566 DUP2 DUP6 PUSH1 0x20 DUP7 ADD PUSH2 0x506 JUMP JUMPDEST PUSH2 0x56F DUP2 PUSH2 0x530 JUMP JUMPDEST DUP5 ADD SWAP2 POP POP SWAP3 SWAP2 POP POP JUMP JUMPDEST PUSH1 0x0 PUSH1 0x20 DUP3 ADD SWAP1 POP DUP2 DUP2 SUB PUSH1 0x0 DUP4 ADD MSTORE PUSH2 0x594 DUP2 DUP5 PUSH2 0x541 JUMP JUMPDEST SWAP1 POP SWAP3 SWAP2 POP POP JUMP JUMPDEST PUSH1 0x0 DUP3 SWAP1 POP SWAP3 SWAP2 POP POP JUMP JUMPDEST PUSH32 0x4E487B7100000000000000000000000000000000000000000000000000000000 PUSH1 0x0 MSTORE PUSH1 0x41 PUSH1 0x4 MSTORE PUSH1 0x24 PUSH1 0x0 REVERT JUMPDEST PUSH32 0x4E487B7100000000000000000000000000000000000000000000000000000000 PUSH1 0x0 MSTORE PUSH1 0x22 PUSH1 0x4 MSTORE PUSH1 0x24 PUSH1 0x0 REVERT JUMPDEST PUSH1 0x0 PUSH1 0x2 DUP3 DIV SWAP1 POP PUSH1 0x1 DUP3 AND DUP1 PUSH2 0x61D JUMPI PUSH1 0x7F DUP3 AND SWAP2 POP JUMPDEST PUSH1 0x20 DUP3 LT DUP2 SUB PUSH2 0x630 JUMPI PUSH2 0x62F PUSH2 0x5D6 JUMP JUMPDEST JUMPDEST POP SWAP2 SWAP1 POP JUMP JUMPDEST PUSH1 0x0 DUP2 SWAP1 POP DUP2 PUSH1 0x0 MSTORE PUSH1 0x20 PUSH1 0x0 KECCAK256 SWAP1 POP SWAP2 SWAP1 POP JUMP JUMPDEST PUSH1 0x0 PUSH1 0x20 PUSH1 0x1F DUP4 ADD DIV SWAP1 POP SWAP2 SWAP1 POP JUMP JUMPDEST PUSH1 0x0 DUP3 DUP3 SHL SWAP1 POP SWAP3 SWAP2 POP POP JUMP JUMPDEST PUSH1 0x0 PUSH1 0x8 DUP4 MUL PUSH2 0x698 PUSH32 0xFFFFFFFFFFFFFFFFFFFFFFFFFFFFFFFFFFFFFFFFFFFFFFFFFFFFFFFFFFFFFFFF DUP3 PUSH2 0x65B JUMP JUMPDEST PUSH2 0x6A2 DUP7 DUP4 PUSH2 0x65B JUMP JUMPDEST SWAP6 POP DUP1 NOT DUP5 AND SWAP4 POP DUP1 DUP7 AND DUP5 OR SWAP3 POP POP POP SWAP4 SWAP3 POP POP POP JUMP JUMPDEST PUSH1 0x0 DUP2 SWAP1 POP SWAP2 SWAP1 POP JUMP JUMPDEST PUSH1 0x0 PUSH2 0x6DF PUSH2 0x6DA PUSH2 0x6D5 DUP5 PUSH2 0x3DA JUMP JUMPDEST PUSH2 0x6BA JUMP JUMPDEST PUSH2 0x3DA JUMP JUMPDEST SWAP1 POP SWAP2 SWAP1 POP JUMP JUMPDEST PUSH1 0x0 DUP2 SWAP1 POP SWAP2 SWAP1 POP JUMP JUMPDEST PUSH2 0x6F9 DUP4 PUSH2 0x6C4 JUMP JUMPDEST PUSH2 0x70D PUSH2 0x705 DUP3 PUSH2 0x6E6 JUMP JUMPDEST DUP5 DUP5 SLOAD PUSH2 0x668 JUMP JUMPDEST DUP3 SSTORE POP POP POP POP JUMP JUMPDEST PUSH1 0x0 SWAP1 JUMP JUMPDEST PUSH2 0x722 PUSH2 0x715 JUMP JUMPDEST PUSH2 0x72D DUP2 DUP5 DUP5 PUSH2 0x6F0 JUMP JUMPDEST POP POP POP JUMP JUMPDEST JUMPDEST DUP2 DUP2 LT ISZERO PUSH2 0x751 JUMPI PUSH2 0x746 PUSH1 0x0 DUP3 PUSH2 0x71A JUMP JUMPDEST PUSH1 0x1 DUP2 ADD SWAP1 POP PUSH2 0x733 JUMP JUMPDEST POP POP JUMP JUMPDEST PUSH1 0x1F DUP3 GT ISZERO PUSH2 0x796 JUMPI PUSH2 0x767 DUP2 PUSH2 0x636 JUMP JUMPDEST PUSH2 0x770 DUP5 PUSH2 0x64B JUMP JUMPDEST DUP2 ADD PUSH1 0x20 DUP6 LT ISZERO PUSH2 0x77F JUMPI DUP2 SWAP1 POP JUMPDEST PUSH2 0x793 PUSH2 0x78B DUP6 PUSH2 0x64B JUMP JUMPDEST DUP4 ADD DUP3 PUSH2 0x732 JUMP JUMPDEST POP POP JUMPDEST POP POP POP JUMP JUMPDEST PUSH1 0x0 DUP3 DUP3 SHR SWAP1 POP SWAP3 SWAP2 POP POP JUMP JUMPDEST PUSH1 0x0 PUSH2 0x7B9 PUSH1 0x0 NOT DUP5 PUSH1 0x8 MUL PUSH2 0x79B JUMP JUMPDEST NOT DUP1 DUP4 AND SWAP2 POP POP SWAP3 SWAP2 POP POP JUMP JUMPDEST PUSH1 0x0 PUSH2 0x7D2 DUP4 DUP4 PUSH2 0x7A8 JUMP JUMPDEST SWAP2 POP DUP3 PUSH1 0x2 MUL DUP3 OR SWAP1 POP SWAP3 SWAP2 POP POP JUMP JUMPDEST PUSH2 0x7EC DUP4 DUP4 PUSH2 0x59C JUMP JUMPDEST PUSH8 0xFFFFFFFFFFFFFFFF DUP2 GT ISZERO PUSH2 0x805 JUMPI PUSH2 0x804 PUSH2 0x5A7 JUMP JUMPDEST JUMPDEST PUSH2 0x80F DUP3 SLOAD PUSH2 0x605 JUMP JUMPDEST PUSH2 0x81A DUP3 DUP3 DUP6 PUSH2 0x755 JUMP JUMPDEST PUSH1 0x0 PUSH1 0x1F DUP4 GT PUSH1 0x1 DUP2 EQ PUSH2 0x849 JUMPI PUSH1 0x0 DUP5 ISZERO PUSH2 0x837 JUMPI DUP3 DUP8 ADD CALLDATALOAD SWAP1 POP JUMPDEST PUSH2 0x841 DUP6 DUP3 PUSH2 0x7C6 JUMP JUMPDEST DUP7 SSTORE POP PUSH2 0x8A9 JUMP JUMPDEST PUSH1 0x1F NOT DUP5 AND PUSH2 0x857 DUP7 PUSH2 0x636 JUMP JUMPDEST PUSH1 0x0 JUMPDEST DUP3 DUP2 LT ISZERO PUSH2 0x87F JUMPI DUP5 DUP10 ADD CALLDATALOAD DUP3 SSTORE PUSH1 0x1 DUP3 ADD SWAP2 POP PUSH1 0x20 DUP6 ADD SWAP5 POP PUSH1 0x20 DUP2 ADD SWAP1 POP PUSH2 0x85A JUMP JUMPDEST DUP7 DUP4 LT ISZERO PUSH2 0x89C JUMPI DUP5 DUP10 ADD CALLDATALOAD PUSH2 0x898 PUSH1 0x1F DUP10 AND DUP3 PUSH2 0x7A8 JUMP JUMPDEST DUP4 SSTORE POP JUMPDEST PUSH1 0x1 PUSH1 0x2 DUP9 MUL ADD DUP9 SSTORE POP POP POP JUMPDEST POP POP POP POP POP POP POP JUMP INVALID LOG2 PUSH5 0x6970667358 0x22 SLT KECCAK256 PUSH21 0x7AD9BB65E147B7FE9877B84276CA3E158CCB9CADF4 0xC3 0x27 0xE1 PUSH31 0x69FDCAC7321B64736F6C634300081000330000000000000000000000000000 "
				},
				"gasEstimates": {
					"creation": {
						"codeDepositCost": "456000",
						"executionCost": "24759",
						"totalCost": "480759"
					},
					"external": {
						"balances(address)": "2792",
						"message()": "infinite",
						"owner()": "2536",
						"pay(string)": "infinite",
						"transferOwnership(address)": "26958"
					}
				},
				"methodIdentifiers": {
					"balances(address)": "27e235e3",
					"message()": "e21f37ce",
					"owner()": "8da5cb5b",
					"pay(string)": "2b66d72e",
					"transferOwnership(address)": "f2fde38b"
				}
			},
			"storageLayout": {
				"storage": [
					{
						"astId": 3,
						"contract": "Desktop/work/dao-company/contracts/Demo.sol:Demo",
						"label": "message",
						"offset": 0,
						"slot": "0",
						"type": "t_string_storage"
					},
					{
						"astId": 7,
						"contract": "Desktop/work/dao-company/contracts/Demo.sol:Demo",
						"label": "balances",
						"offset": 0,
						"slot": "1",
						"type": "t_mapping(t_address,t_uint256)"
					},
					{
						"astId": 9,
						"contract": "Desktop/work/dao-company/contracts/Demo.sol:Demo",
						"label": "owner",
						"offset": 0,
						"slot": "2",
						"type": "t_address"
					}
				],
				"types": {
					"t_address": {
						"encoding": "inplace",
						"label": "address",
						"numberOfBytes": "20"
					},
					"t_mapping(t_address,t_uint256)": {
						"encoding": "mapping",
						"key": "t_address",
						"label": "mapping(address => uint256)",
						"numberOfBytes": "32",
						"value": "t_uint256"
					},
					"t_string_storage": {
						"encoding": "bytes",
						"label": "string",
						"numberOfBytes": "32"
					},
					"t_uint256": {
						"encoding": "inplace",
						"label": "uint256",
						"numberOfBytes": "32"
					}
				}
			},
			"userdoc": {
				"kind": "user",
				"methods": {},
				"version": 1
			}
		}
	}
}